201506010060000100000000000000019551000000000000000195519611111111111111111111CONSUMIDOR-FINAL              000000000047100000000000000000000000000000000000000000000000000000000000000000000000000000000000000000000000000000000000PES00010000001 00000000000000000000000
201506010060000100000000000000019552000000000000000195529611111111111111111111CONSUMIDOR-FINAL              000000000027000000000000000000000000000000000000000000000000000000000000000000000000000000000000000000000000000000000000PES00010000001 00000000000000000000000
201506010010000100000000000000000959000000000000000009598000000000027206909051SILVESTRI-OLGA                000000000113500000000000000000000000000000000000000000000000000000000000000000000000000000000000000000000000000000000000PES00010000001 00000000000000000000000
201506010060000100000000000000019553000000000000000195539611111111111111111111CONSUMIDOR-FINAL              000000000094800000000000000000000000000000000000000000000000000000000000000000000000000000000000000000000000000000000000PES00010000001 00000000000000000000000
201506010060000100000000000000019554000000000000000195549611111111111111111111CONSUMIDOR-FINAL              000000000025500000000000000000000000000000000000000000000000000000000000000000000000000000000000000000000000000000000000PES00010000001 00000000000000000000000
201506010060000100000000000000019555000000000000000195559611111111111111111111CONSUMIDOR-FINAL              000000000025000000000000000000000000000000000000000000000000000000000000000000000000000000000000000000000000000000000000PES00010000001 00000000000000000000000
201506010060000100000000000000019556000000000000000195569611111111111111111111CONSUMIDOR-FINAL              000000000019000000000000000000000000000000000000000000000000000000000000000000000000000000000000000000000000000000000000PES00010000001 00000000000000000000000
201506010060000100000000000000019557000000000000000195579611111111111111111111CONSUMIDOR-FINAL              000000000015000000000000000000000000000000000000000000000000000000000000000000000000000000000000000000000000000000000000PES00010000001 00000000000000000000000
201506010060000100000000000000019558000000000000000195589611111111111111111111CONSUMIDOR-FINAL              000000000041000000000000000000000000000000000000000000000000000000000000000000000000000000000000000000000000000000000000PES00010000001 00000000000000000000000
201506020060000100000000000000013683000000000000000136838000000000030711716676AGENCIA-6016                  000000000024400000000000000000000000000000000000000000000000000000000000000000000000000000000000000000000000000000000000PES00010000001 00000000000000000000000
201506020010000100000000000000000960000000000000000009608000000000020282726409JUAN-SAHONERO                 000000000123500000000000000000000000000000000000000000000000000000000000000000000000000000000000000000000000000000000000PES00010000001 00000000000000000000000
201506020060000100000000000000019559000000000000000195599611111111111111111111CONSUMIDOR-FINAL              000000000080000000000000000000000000000000000000000000000000000000000000000000000000000000000000000000000000000000000000PES00010000001 00000000000000000000000
201506020060000100000000000000019560000000000000000195609611111111111111111111CONSUMIDOR-FINAL              000000000035000000000000000000000000000000000000000000000000000000000000000000000000000000000000000000000000000000000000PES00010000001 00000000000000000000000
201506020060000100000000000000019561000000000000000195619611111111111111111111CONSUMIDOR-FINAL              000000000069500000000000000000000000000000000000000000000000000000000000000000000000000000000000000000000000000000000000PES00010000001 00000000000000000000000
201506020060000100000000000000019562000000000000000195629611111111111111111111CONSUMIDOR-FINAL              000000000036200000000000000000000000000000000000000000000000000000000000000000000000000000000000000000000000000000000000PES00010000001 00000000000000000000000
201506020060000100000000000000019563000000000000000195639611111111111111111111CONSUMIDOR-FINAL              000000000035000000000000000000000000000000000000000000000000000000000000000000000000000000000000000000000000000000000000PES00010000001 00000000000000000000000
201506020060000100000000000000019564000000000000000195649611111111111111111111CONSUMIDOR-FINAL              000000000021500000000000000000000000000000000000000000000000000000000000000000000000000000000000000000000000000000000000PES00010000001 00000000000000000000000
201506020060000100000000000000019565000000000000000195659611111111111111111111CONSUMIDOR-FINAL              000000000036900000000000000000000000000000000000000000000000000000000000000000000000000000000000000000000000000000000000PES00010000001 00000000000000000000000
201506020060000100000000000000019566000000000000000195669611111111111111111111CONSUMIDOR-FINAL              000000000045000000000000000000000000000000000000000000000000000000000000000000000000000000000000000000000000000000000000PES00010000001 00000000000000000000000
201506020060000100000000000000019567000000000000000195679611111111111111111111CONSUMIDOR-FINAL              000000000047500000000000000000000000000000000000000000000000000000000000000000000000000000000000000000000000000000000000PES00010000001 00000000000000000000000
201506030060000100000000000000019569000000000000000195699611111111111111111111CONSUMIDOR-FINAL              000000000109400000000000000000000000000000000000000000000000000000000000000000000000000000000000000000000000000000000000PES00010000001 00000000000000000000000
201506030060000100000000000000019570000000000000000195709611111111111111111111CONSUMIDOR-FINAL              000000000059000000000000000000000000000000000000000000000000000000000000000000000000000000000000000000000000000000000000PES00010000001 00000000000000000000000
201506030060000100000000000000019571000000000000000195719611111111111111111111CONSUMIDOR-FINAL              000000000019000000000000000000000000000000000000000000000000000000000000000000000000000000000000000000000000000000000000PES00010000001 00000000000000000000000
201506030060000100000000000000019572000000000000000195729611111111111111111111CONSUMIDOR-FINAL              000000000010000000000000000000000000000000000000000000000000000000000000000000000000000000000000000000000000000000000000PES00010000001 00000000000000000000000
201506030060000100000000000000019573000000000000000195739611111111111111111111CONSUMIDOR-FINAL              000000000070000000000000000000000000000000000000000000000000000000000000000000000000000000000000000000000000000000000000PES00010000001 00000000000000000000000
201506030060000100000000000000019574000000000000000195749611111111111111111111CONSUMIDOR-FINAL              000000000082600000000000000000000000000000000000000000000000000000000000000000000000000000000000000000000000000000000000PES00010000001 00000000000000000000000
201506030060000100000000000000019575000000000000000195759611111111111111111111CONSUMIDOR-FINAL              000000000026000000000000000000000000000000000000000000000000000000000000000000000000000000000000000000000000000000000000PES00010000001 00000000000000000000000
201506030060000100000000000000019576000000000000000195769611111111111111111111CONSUMIDOR-FINAL              000000000014000000000000000000000000000000000000000000000000000000000000000000000000000000000000000000000000000000000000PES00010000001 00000000000000000000000
201506030060000100000000000000019577000000000000000195779611111111111111111111CONSUMIDOR-FINAL              000000000245000000000000000000000000000000000000000000000000000000000000000000000000000000000000000000000000000000000000PES00010000001 00000000000000000000000
201506030060000100000000000000019578000000000000000195789611111111111111111111CONSUMIDOR-FINAL              000000000054500000000000000000000000000000000000000000000000000000000000000000000000000000000000000000000000000000000000PES00010000001 00000000000000000000000
201506030060000100000000000000019579000000000000000195799611111111111111111111CONSUMIDOR-FINAL              000000000054500000000000000000000000000000000000000000000000000000000000000000000000000000000000000000000000000000000000PES00010000001 00000000000000000000000
201506040060000100000000000000019580000000000000000195809611111111111111111111CONSUMIDOR-FINAL              000000000640900000000000000000000000000000000000000000000000000000000000000000000000000000000000000000000000000000000000PES00010000001 00000000000000000000000
201506040060000100000000000000019581000000000000000195819611111111111111111111CONSUMIDOR-FINAL              000000000151000000000000000000000000000000000000000000000000000000000000000000000000000000000000000000000000000000000000PES00010000001 00000000000000000000000
201506040060000100000000000000019582000000000000000195829611111111111111111111CONSUMIDOR-FINAL              000000000014500000000000000000000000000000000000000000000000000000000000000000000000000000000000000000000000000000000000PES00010000001 00000000000000000000000
201506040060000100000000000000019583000000000000000195839611111111111111111111CONSUMIDOR-FINAL              000000000050500000000000000000000000000000000000000000000000000000000000000000000000000000000000000000000000000000000000PES00010000001 00000000000000000000000
201506040060000100000000000000019584000000000000000195849611111111111111111111CONSUMIDOR-FINAL              000000000043300000000000000000000000000000000000000000000000000000000000000000000000000000000000000000000000000000000000PES00010000001 00000000000000000000000
201506040060000100000000000000019585000000000000000195859611111111111111111111CONSUMIDOR-FINAL              000000000042000000000000000000000000000000000000000000000000000000000000000000000000000000000000000000000000000000000000PES00010000001 00000000000000000000000
201506040060000100000000000000019586000000000000000195869611111111111111111111CONSUMIDOR-FINAL              000000000054100000000000000000000000000000000000000000000000000000000000000000000000000000000000000000000000000000000000PES00010000001 00000000000000000000000
201506040060000100000000000000019587000000000000000195879611111111111111111111CONSUMIDOR-FINAL              000000000015000000000000000000000000000000000000000000000000000000000000000000000000000000000000000000000000000000000000PES00010000001 00000000000000000000000
201506040060000100000000000000019588000000000000000195889611111111111111111111CONSUMIDOR-FINAL              000000000019500000000000000000000000000000000000000000000000000000000000000000000000000000000000000000000000000000000000PES00010000001 00000000000000000000000
201506040060000100000000000000019589000000000000000195899611111111111111111111CONSUMIDOR-FINAL              000000000062000000000000000000000000000000000000000000000000000000000000000000000000000000000000000000000000000000000000PES00010000001 00000000000000000000000
201506040060000100000000000000019590000000000000000195909611111111111111111111CONSUMIDOR-FINAL              000000000127500000000000000000000000000000000000000000000000000000000000000000000000000000000000000000000000000000000000PES00010000001 00000000000000000000000
201506040060000100000000000000019591000000000000000195919611111111111111111111CONSUMIDOR-FINAL              000000000220000000000000000000000000000000000000000000000000000000000000000000000000000000000000000000000000000000000000PES00010000001 00000000000000000000000
201506040060000100000000000000019592000000000000000195929611111111111111111111CONSUMIDOR-FINAL              000000000099800000000000000000000000000000000000000000000000000000000000000000000000000000000000000000000000000000000000PES00010000001 00000000000000000000000
201506040060000100000000000000019593000000000000000195939611111111111111111111CONSUMIDOR-FINAL              000000000018500000000000000000000000000000000000000000000000000000000000000000000000000000000000000000000000000000000000PES00010000001 00000000000000000000000
201506040060000100000000000000019594000000000000000195949611111111111111111111CONSUMIDOR-FINAL              000000000014000000000000000000000000000000000000000000000000000000000000000000000000000000000000000000000000000000000000PES00010000001 00000000000000000000000
201506040060000100000000000000019595000000000000000195959611111111111111111111CONSUMIDOR-FINAL              000000000059500000000000000000000000000000000000000000000000000000000000000000000000000000000000000000000000000000000000PES00010000001 00000000000000000000000
201506040060000100000000000000019596000000000000000195969611111111111111111111CONSUMIDOR-FINAL              000000000099000000000000000000000000000000000000000000000000000000000000000000000000000000000000000000000000000000000000PES00010000001 00000000000000000000000
201506050060000100000000000000019597000000000000000195979611111111111111111111CONSUMIDOR-FINAL              000000000411500000000000000000000000000000000000000000000000000000000000000000000000000000000000000000000000000000000000PES00010000001 00000000000000000000000
201506050060000100000000000000019598000000000000000195989611111111111111111111CONSUMIDOR-FINAL              000000000022500000000000000000000000000000000000000000000000000000000000000000000000000000000000000000000000000000000000PES00010000001 00000000000000000000000
201506050060000100000000000000019599000000000000000195999611111111111111111111CONSUMIDOR-FINAL              000000000012500000000000000000000000000000000000000000000000000000000000000000000000000000000000000000000000000000000000PES00010000001 00000000000000000000000
201506050060000100000000000000019600000000000000000196009611111111111111111111CONSUMIDOR-FINAL              000000000028300000000000000000000000000000000000000000000000000000000000000000000000000000000000000000000000000000000000PES00010000001 00000000000000000000000
201506050060000100000000000000019601000000000000000196019611111111111111111111CONSUMIDOR-FINAL              000000000032500000000000000000000000000000000000000000000000000000000000000000000000000000000000000000000000000000000000PES00010000001 00000000000000000000000
201506050060000100000000000000019602000000000000000196029611111111111111111111CONSUMIDOR-FINAL              000000000015000000000000000000000000000000000000000000000000000000000000000000000000000000000000000000000000000000000000PES00010000001 00000000000000000000000
201506050060000100000000000000019603000000000000000196039611111111111111111111CONSUMIDOR-FINAL              000000000078000000000000000000000000000000000000000000000000000000000000000000000000000000000000000000000000000000000000PES00010000001 00000000000000000000000
201506050010000100000000000000000961000000000000000009618000000000020167573291OJEDA-LIZANDRO-JORGE          000000000037000000000000000000000000000000000000000000000000000000000000000000000000000000000000000000000000000000000000PES00010000001 00000000000000000000000
201506050060000100000000000000019604000000000000000196049611111111111111111111CONSUMIDOR-FINAL              000000000087000000000000000000000000000000000000000000000000000000000000000000000000000000000000000000000000000000000000PES00010000001 00000000000000000000000
201506050010000100000000000000000962000000000000000009628000000000027234390010VIVIANA-TORRACA               000000000158500000000000000000000000000000000000000000000000000000000000000000000000000000000000000000000000000000000000PES00010000001 00000000000000000000000
201506050060000100000000000000019605000000000000000196059611111111111111111111CONSUMIDOR-FINAL              000000000016500000000000000000000000000000000000000000000000000000000000000000000000000000000000000000000000000000000000PES00010000001 00000000000000000000000
201506050060000100000000000000019606000000000000000196069611111111111111111111CONSUMIDOR-FINAL              000000000061500000000000000000000000000000000000000000000000000000000000000000000000000000000000000000000000000000000000PES00010000001 00000000000000000000000
201506050060000100000000000000019607000000000000000196079611111111111111111111CONSUMIDOR-FINAL              000000000031000000000000000000000000000000000000000000000000000000000000000000000000000000000000000000000000000000000000PES00010000001 00000000000000000000000
201506050060000100000000000000019608000000000000000196089611111111111111111111CONSUMIDOR-FINAL              000000000082500000000000000000000000000000000000000000000000000000000000000000000000000000000000000000000000000000000000PES00010000001 00000000000000000000000
201506050060000100000000000000019609000000000000000196099611111111111111111111CONSUMIDOR-FINAL              000000000042000000000000000000000000000000000000000000000000000000000000000000000000000000000000000000000000000000000000PES00010000001 00000000000000000000000
201506050060000100000000000000019610000000000000000196109611111111111111111111CONSUMIDOR-FINAL              000000000016000000000000000000000000000000000000000000000000000000000000000000000000000000000000000000000000000000000000PES00010000001 00000000000000000000000
201506060060000100000000000000019611000000000000000196119611111111111111111111CONSUMIDOR-FINAL              000000000027000000000000000000000000000000000000000000000000000000000000000000000000000000000000000000000000000000000000PES00010000001 00000000000000000000000
201506060060000100000000000000019612000000000000000196129611111111111111111111CONSUMIDOR-FINAL              000000000095000000000000000000000000000000000000000000000000000000000000000000000000000000000000000000000000000000000000PES00010000001 00000000000000000000000
201506060060000100000000000000019613000000000000000196139611111111111111111111CONSUMIDOR-FINAL              000000000037000000000000000000000000000000000000000000000000000000000000000000000000000000000000000000000000000000000000PES00010000001 00000000000000000000000
201506060060000100000000000000019614000000000000000196149611111111111111111111CONSUMIDOR-FINAL              000000000066000000000000000000000000000000000000000000000000000000000000000000000000000000000000000000000000000000000000PES00010000001 00000000000000000000000
201506060060000100000000000000019615000000000000000196159611111111111111111111CONSUMIDOR-FINAL              000000000078100000000000000000000000000000000000000000000000000000000000000000000000000000000000000000000000000000000000PES00010000001 00000000000000000000000
201506060060000100000000000000019616000000000000000196169611111111111111111111CONSUMIDOR-FINAL              000000000129000000000000000000000000000000000000000000000000000000000000000000000000000000000000000000000000000000000000PES00010000001 00000000000000000000000
201506060060000100000000000000019617000000000000000196179611111111111111111111CONSUMIDOR-FINAL              000000000018000000000000000000000000000000000000000000000000000000000000000000000000000000000000000000000000000000000000PES00010000001 00000000000000000000000
201506060060000100000000000000019618000000000000000196189611111111111111111111CONSUMIDOR-FINAL              000000000033000000000000000000000000000000000000000000000000000000000000000000000000000000000000000000000000000000000000PES00010000001 00000000000000000000000
201506060060000100000000000000019619000000000000000196199611111111111111111111CONSUMIDOR-FINAL              000000000054500000000000000000000000000000000000000000000000000000000000000000000000000000000000000000000000000000000000PES00010000001 00000000000000000000000
201506060060000100000000000000019620000000000000000196209611111111111111111111CONSUMIDOR-FINAL              000000000065000000000000000000000000000000000000000000000000000000000000000000000000000000000000000000000000000000000000PES00010000001 00000000000000000000000
201506060060000100000000000000019621000000000000000196219611111111111111111111CONSUMIDOR-FINAL              000000000028500000000000000000000000000000000000000000000000000000000000000000000000000000000000000000000000000000000000PES00010000001 00000000000000000000000
201506060060000100000000000000019622000000000000000196229611111111111111111111CONSUMIDOR-FINAL              000000000028300000000000000000000000000000000000000000000000000000000000000000000000000000000000000000000000000000000000PES00010000001 00000000000000000000000
201506060060000100000000000000019623000000000000000196239611111111111111111111CONSUMIDOR-FINAL              000000000032500000000000000000000000000000000000000000000000000000000000000000000000000000000000000000000000000000000000PES00010000001 00000000000000000000000
201506060060000100000000000000019624000000000000000196249611111111111111111111CONSUMIDOR-FINAL              000000000034000000000000000000000000000000000000000000000000000000000000000000000000000000000000000000000000000000000000PES00010000001 00000000000000000000000
201506060060000100000000000000019625000000000000000196259611111111111111111111CONSUMIDOR-FINAL              000000000065000000000000000000000000000000000000000000000000000000000000000000000000000000000000000000000000000000000000PES00010000001 00000000000000000000000
201506060060000100000000000000019626000000000000000196269611111111111111111111CONSUMIDOR-FINAL              000000000006000000000000000000000000000000000000000000000000000000000000000000000000000000000000000000000000000000000000PES00010000001 00000000000000000000000
201506060060000100000000000000019627000000000000000196279611111111111111111111CONSUMIDOR-FINAL              000000000051000000000000000000000000000000000000000000000000000000000000000000000000000000000000000000000000000000000000PES00010000001 00000000000000000000000
201506060060000100000000000000019628000000000000000196289611111111111111111111CONSUMIDOR-FINAL              000000000037000000000000000000000000000000000000000000000000000000000000000000000000000000000000000000000000000000000000PES00010000001 00000000000000000000000
201506060060000100000000000000019629000000000000000196299611111111111111111111CONSUMIDOR-FINAL              000000000163000000000000000000000000000000000000000000000000000000000000000000000000000000000000000000000000000000000000PES00010000001 00000000000000000000000
201506060060000100000000000000019630000000000000000196309611111111111111111111CONSUMIDOR-FINAL              000000000012500000000000000000000000000000000000000000000000000000000000000000000000000000000000000000000000000000000000PES00010000001 00000000000000000000000
201506060060000100000000000000019631000000000000000196319611111111111111111111CONSUMIDOR-FINAL              000000000123200000000000000000000000000000000000000000000000000000000000000000000000000000000000000000000000000000000000PES00010000001 00000000000000000000000
201506060060000100000000000000019632000000000000000196329611111111111111111111CONSUMIDOR-FINAL              000000000087000000000000000000000000000000000000000000000000000000000000000000000000000000000000000000000000000000000000PES00010000001 00000000000000000000000
201506060060000100000000000000019633000000000000000196339611111111111111111111CONSUMIDOR-FINAL              000000000042000000000000000000000000000000000000000000000000000000000000000000000000000000000000000000000000000000000000PES00010000001 00000000000000000000000
201506060060000100000000000000019634000000000000000196349611111111111111111111CONSUMIDOR-FINAL              000000000083500000000000000000000000000000000000000000000000000000000000000000000000000000000000000000000000000000000000PES00010000001 00000000000000000000000
201506060060000100000000000000019635000000000000000196359611111111111111111111CONSUMIDOR-FINAL              000000000008500000000000000000000000000000000000000000000000000000000000000000000000000000000000000000000000000000000000PES00010000001 00000000000000000000000
201506060060000100000000000000019636000000000000000196369611111111111111111111CONSUMIDOR-FINAL              000000000028500000000000000000000000000000000000000000000000000000000000000000000000000000000000000000000000000000000000PES00010000001 00000000000000000000000
201506060060000100000000000000019637000000000000000196379611111111111111111111CONSUMIDOR-FINAL              000000000115000000000000000000000000000000000000000000000000000000000000000000000000000000000000000000000000000000000000PES00010000001 00000000000000000000000
201506060060000100000000000000019638000000000000000196389611111111111111111111CONSUMIDOR-FINAL              000000000019500000000000000000000000000000000000000000000000000000000000000000000000000000000000000000000000000000000000PES00010000001 00000000000000000000000
201506060060000100000000000000019639000000000000000196399611111111111111111111CONSUMIDOR-FINAL              000000000016300000000000000000000000000000000000000000000000000000000000000000000000000000000000000000000000000000000000PES00010000001 00000000000000000000000
201506060060000100000000000000019640000000000000000196409611111111111111111111CONSUMIDOR-FINAL              000000000138000000000000000000000000000000000000000000000000000000000000000000000000000000000000000000000000000000000000PES00010000001 00000000000000000000000
201506060060000100000000000000019641000000000000000196419611111111111111111111CONSUMIDOR-FINAL              000000000079500000000000000000000000000000000000000000000000000000000000000000000000000000000000000000000000000000000000PES00010000001 00000000000000000000000
201506060060000100000000000000019642000000000000000196429611111111111111111111CONSUMIDOR-FINAL              000000000176500000000000000000000000000000000000000000000000000000000000000000000000000000000000000000000000000000000000PES00010000001 00000000000000000000000
201506060060000100000000000000019643000000000000000196439611111111111111111111CONSUMIDOR-FINAL              000000000093500000000000000000000000000000000000000000000000000000000000000000000000000000000000000000000000000000000000PES00010000001 00000000000000000000000
201506060060000100000000000000019644000000000000000196449611111111111111111111CONSUMIDOR-FINAL              000000000030400000000000000000000000000000000000000000000000000000000000000000000000000000000000000000000000000000000000PES00010000001 00000000000000000000000
201506080060000100000000000000019645000000000000000196459611111111111111111111CONSUMIDOR-FINAL              000000000023500000000000000000000000000000000000000000000000000000000000000000000000000000000000000000000000000000000000PES00010000001 00000000000000000000000
201506080060000100000000000000019646000000000000000196469611111111111111111111CONSUMIDOR-FINAL              000000000007000000000000000000000000000000000000000000000000000000000000000000000000000000000000000000000000000000000000PES00010000001 00000000000000000000000
201506080060000100000000000000019647000000000000000196479611111111111111111111CONSUMIDOR-FINAL              000000000034000000000000000000000000000000000000000000000000000000000000000000000000000000000000000000000000000000000000PES00010000001 00000000000000000000000
201506080010000100000000000000000963000000000000000009638000000000020269964074ASEF-FELIX                    000000000349000000000000000000000000000000000000000000000000000000000000000000000000000000000000000000000000000000000000PES00010000001 00000000000000000000000
201506080060000100000000000000019648000000000000000196489611111111111111111111CONSUMIDOR-FINAL              000000000009000000000000000000000000000000000000000000000000000000000000000000000000000000000000000000000000000000000000PES00010000001 00000000000000000000000
201506080060000100000000000000019649000000000000000196499611111111111111111111CONSUMIDOR-FINAL              000000000035000000000000000000000000000000000000000000000000000000000000000000000000000000000000000000000000000000000000PES00010000001 00000000000000000000000
201506080060000100000000000000019650000000000000000196509611111111111111111111CONSUMIDOR-FINAL              000000000047000000000000000000000000000000000000000000000000000000000000000000000000000000000000000000000000000000000000PES00010000001 00000000000000000000000
201506080060000100000000000000019651000000000000000196519611111111111111111111CONSUMIDOR-FINAL              000000000060400000000000000000000000000000000000000000000000000000000000000000000000000000000000000000000000000000000000PES00010000001 00000000000000000000000
201506080060000100000000000000019652000000000000000196529611111111111111111111CONSUMIDOR-FINAL              000000000027000000000000000000000000000000000000000000000000000000000000000000000000000000000000000000000000000000000000PES00010000001 00000000000000000000000
201506080060000100000000000000019653000000000000000196539611111111111111111111CONSUMIDOR-FINAL              000000000038500000000000000000000000000000000000000000000000000000000000000000000000000000000000000000000000000000000000PES00010000001 00000000000000000000000
201506080060000100000000000000019654000000000000000196549611111111111111111111CONSUMIDOR-FINAL              000000000034100000000000000000000000000000000000000000000000000000000000000000000000000000000000000000000000000000000000PES00010000001 00000000000000000000000
201506080060000100000000000000019655000000000000000196559611111111111111111111CONSUMIDOR-FINAL              000000000038500000000000000000000000000000000000000000000000000000000000000000000000000000000000000000000000000000000000PES00010000001 00000000000000000000000
201506080060000100000000000000019656000000000000000196569611111111111111111111CONSUMIDOR-FINAL              000000000068500000000000000000000000000000000000000000000000000000000000000000000000000000000000000000000000000000000000PES00010000001 00000000000000000000000
201506080060000100000000000000019657000000000000000196579611111111111111111111CONSUMIDOR-FINAL              000000000020000000000000000000000000000000000000000000000000000000000000000000000000000000000000000000000000000000000000PES00010000001 00000000000000000000000
201506080060000100000000000000019658000000000000000196589611111111111111111111CONSUMIDOR-FINAL              000000000038500000000000000000000000000000000000000000000000000000000000000000000000000000000000000000000000000000000000PES00010000001 00000000000000000000000
201506090060000100000000000000019659000000000000000196599611111111111111111111CONSUMIDOR-FINAL              000000000066000000000000000000000000000000000000000000000000000000000000000000000000000000000000000000000000000000000000PES00010000001 00000000000000000000000
201506090060000100000000000000019660000000000000000196609611111111111111111111CONSUMIDOR-FINAL              000000000020000000000000000000000000000000000000000000000000000000000000000000000000000000000000000000000000000000000000PES00010000001 00000000000000000000000
201506090060000100000000000000019661000000000000000196619611111111111111111111CONSUMIDOR-FINAL              000000000044500000000000000000000000000000000000000000000000000000000000000000000000000000000000000000000000000000000000PES00010000001 00000000000000000000000
201506090060000100000000000000019662000000000000000196629611111111111111111111CONSUMIDOR-FINAL              000000000031000000000000000000000000000000000000000000000000000000000000000000000000000000000000000000000000000000000000PES00010000001 00000000000000000000000
201506090060000100000000000000019663000000000000000196639611111111111111111111CONSUMIDOR-FINAL              000000000021500000000000000000000000000000000000000000000000000000000000000000000000000000000000000000000000000000000000PES00010000001 00000000000000000000000
201506090060000100000000000000019664000000000000000196649611111111111111111111CONSUMIDOR-FINAL              000000000021500000000000000000000000000000000000000000000000000000000000000000000000000000000000000000000000000000000000PES00010000001 00000000000000000000000
201506090060000100000000000000019665000000000000000196659611111111111111111111CONSUMIDOR-FINAL              000000000015500000000000000000000000000000000000000000000000000000000000000000000000000000000000000000000000000000000000PES00010000001 00000000000000000000000
201506090060000100000000000000019666000000000000000196669611111111111111111111CONSUMIDOR-FINAL              000000000165000000000000000000000000000000000000000000000000000000000000000000000000000000000000000000000000000000000000PES00010000001 00000000000000000000000
201506090060000100000000000000019667000000000000000196679611111111111111111111CONSUMIDOR-FINAL              000000000085000000000000000000000000000000000000000000000000000000000000000000000000000000000000000000000000000000000000PES00010000001 00000000000000000000000
201506090060000100000000000000019668000000000000000196689611111111111111111111CONSUMIDOR-FINAL              000000000052800000000000000000000000000000000000000000000000000000000000000000000000000000000000000000000000000000000000PES00010000001 00000000000000000000000
201506090060000100000000000000019669000000000000000196699611111111111111111111CONSUMIDOR-FINAL              000000000023800000000000000000000000000000000000000000000000000000000000000000000000000000000000000000000000000000000000PES00010000001 00000000000000000000000
201506100060000100000000000000019670000000000000000196709611111111111111111111CONSUMIDOR-FINAL              000000000066000000000000000000000000000000000000000000000000000000000000000000000000000000000000000000000000000000000000PES00010000001 00000000000000000000000
201506100060000100000000000000019671000000000000000196719611111111111111111111CONSUMIDOR-FINAL              000000000030000000000000000000000000000000000000000000000000000000000000000000000000000000000000000000000000000000000000PES00010000001 00000000000000000000000
201506100060000100000000000000019672000000000000000196729611111111111111111111CONSUMIDOR-FINAL              000000000020000000000000000000000000000000000000000000000000000000000000000000000000000000000000000000000000000000000000PES00010000001 00000000000000000000000
201506100060000100000000000000019673000000000000000196739611111111111111111111CONSUMIDOR-FINAL              000000000039500000000000000000000000000000000000000000000000000000000000000000000000000000000000000000000000000000000000PES00010000001 00000000000000000000000
201506110060000100000000000000019674000000000000000196749611111111111111111111CONSUMIDOR-FINAL              000000000034500000000000000000000000000000000000000000000000000000000000000000000000000000000000000000000000000000000000PES00010000001 00000000000000000000000
201506110060000100000000000000019675000000000000000196759611111111111111111111CONSUMIDOR-FINAL              000000000264000000000000000000000000000000000000000000000000000000000000000000000000000000000000000000000000000000000000PES00010000001 00000000000000000000000
201506110060000100000000000000019676000000000000000196769611111111111111111111CONSUMIDOR-FINAL              000000000009800000000000000000000000000000000000000000000000000000000000000000000000000000000000000000000000000000000000PES00010000001 00000000000000000000000
201506110060000100000000000000019677000000000000000196779611111111111111111111CONSUMIDOR-FINAL              000000000013000000000000000000000000000000000000000000000000000000000000000000000000000000000000000000000000000000000000PES00010000001 00000000000000000000000
201506110060000100000000000000019678000000000000000196789611111111111111111111CONSUMIDOR-FINAL              000000000032500000000000000000000000000000000000000000000000000000000000000000000000000000000000000000000000000000000000PES00010000001 00000000000000000000000
201506110060000100000000000000019679000000000000000196799611111111111111111111CONSUMIDOR-FINAL              000000000153000000000000000000000000000000000000000000000000000000000000000000000000000000000000000000000000000000000000PES00010000001 00000000000000000000000
201506110060000100000000000000019680000000000000000196809611111111111111111111CONSUMIDOR-FINAL              000000000023000000000000000000000000000000000000000000000000000000000000000000000000000000000000000000000000000000000000PES00010000001 00000000000000000000000
201506110060000100000000000000019681000000000000000196819611111111111111111111CONSUMIDOR-FINAL              000000000138500000000000000000000000000000000000000000000000000000000000000000000000000000000000000000000000000000000000PES00010000001 00000000000000000000000
201506120060000100000000000000019682000000000000000196829611111111111111111111CONSUMIDOR-FINAL              000000000019000000000000000000000000000000000000000000000000000000000000000000000000000000000000000000000000000000000000PES00010000001 00000000000000000000000
201506120010000100000000000000000964000000000000000009648000000000030708926155TRANSUNION-SA                 000000000132250000000000000000000000000000000000000000000000000000000000000000000000000000000000000000000000000000000000PES00010000001 00000000000000000000000
201506120060000100000000000000019683000000000000000196839611111111111111111111CONSUMIDOR-FINAL              000000000012000000000000000000000000000000000000000000000000000000000000000000000000000000000000000000000000000000000000PES00010000001 00000000000000000000000
201506120060000100000000000000019684000000000000000196849611111111111111111111CONSUMIDOR-FINAL              000000000068000000000000000000000000000000000000000000000000000000000000000000000000000000000000000000000000000000000000PES00010000001 00000000000000000000000
201506120010000100000000000000000965000000000000000009658000000000030691996375-BELVEDERE-SA                 000000000370800000000000000000000000000000000000000000000000000000000000000000000000000000000000000000000000000000000000PES00010000001 00000000000000000000000
201506120060000100000000000000019685000000000000000196859611111111111111111111CONSUMIDOR-FINAL              000000000074000000000000000000000000000000000000000000000000000000000000000000000000000000000000000000000000000000000000PES00010000001 00000000000000000000000
201506120060000100000000000000019686000000000000000196869611111111111111111111CONSUMIDOR-FINAL              000000000047500000000000000000000000000000000000000000000000000000000000000000000000000000000000000000000000000000000000PES00010000001 00000000000000000000000
201506120060000100000000000000019687000000000000000196879611111111111111111111CONSUMIDOR-FINAL              000000000039500000000000000000000000000000000000000000000000000000000000000000000000000000000000000000000000000000000000PES00010000001 00000000000000000000000
201506120060000100000000000000019688000000000000000196889611111111111111111111CONSUMIDOR-FINAL              000000000029000000000000000000000000000000000000000000000000000000000000000000000000000000000000000000000000000000000000PES00010000001 00000000000000000000000
201506120060000100000000000000019689000000000000000196899611111111111111111111CONSUMIDOR-FINAL              000000000060400000000000000000000000000000000000000000000000000000000000000000000000000000000000000000000000000000000000PES00010000001 00000000000000000000000
201506120060000100000000000000019690000000000000000196909611111111111111111111CONSUMIDOR-FINAL              000000000181000000000000000000000000000000000000000000000000000000000000000000000000000000000000000000000000000000000000PES00010000001 00000000000000000000000
201506120060000100000000000000019691000000000000000196919611111111111111111111CONSUMIDOR-FINAL              000000000027500000000000000000000000000000000000000000000000000000000000000000000000000000000000000000000000000000000000PES00010000001 00000000000000000000000
201506120060000100000000000000019692000000000000000196929611111111111111111111CONSUMIDOR-FINAL              000000000007500000000000000000000000000000000000000000000000000000000000000000000000000000000000000000000000000000000000PES00010000001 00000000000000000000000
201506130060000100000000000000019693000000000000000196939611111111111111111111CONSUMIDOR-FINAL              000000000077200000000000000000000000000000000000000000000000000000000000000000000000000000000000000000000000000000000000PES00010000001 00000000000000000000000
201506130060000100000000000000019694000000000000000196949611111111111111111111CONSUMIDOR-FINAL              000000000056800000000000000000000000000000000000000000000000000000000000000000000000000000000000000000000000000000000000PES00010000001 00000000000000000000000
201506130060000100000000000000019695000000000000000196959611111111111111111111CONSUMIDOR-FINAL              000000000103000000000000000000000000000000000000000000000000000000000000000000000000000000000000000000000000000000000000PES00010000001 00000000000000000000000
201506130060000100000000000000019696000000000000000196969611111111111111111111CONSUMIDOR-FINAL              000000000060000000000000000000000000000000000000000000000000000000000000000000000000000000000000000000000000000000000000PES00010000001 00000000000000000000000
201506130060000100000000000000019697000000000000000196979611111111111111111111CONSUMIDOR-FINAL              000000000037500000000000000000000000000000000000000000000000000000000000000000000000000000000000000000000000000000000000PES00010000001 00000000000000000000000
201506130060000100000000000000019698000000000000000196989611111111111111111111CONSUMIDOR-FINAL              000000000015500000000000000000000000000000000000000000000000000000000000000000000000000000000000000000000000000000000000PES00010000001 00000000000000000000000
201506130060000100000000000000019699000000000000000196999611111111111111111111CONSUMIDOR-FINAL              000000000492300000000000000000000000000000000000000000000000000000000000000000000000000000000000000000000000000000000000PES00010000001 00000000000000000000000
201506130060000100000000000000019700000000000000000197009611111111111111111111CONSUMIDOR-FINAL              000000000056500000000000000000000000000000000000000000000000000000000000000000000000000000000000000000000000000000000000PES00010000001 00000000000000000000000
201506130060000100000000000000019701000000000000000197019611111111111111111111CONSUMIDOR-FINAL              000000000036000000000000000000000000000000000000000000000000000000000000000000000000000000000000000000000000000000000000PES00010000001 00000000000000000000000
201506130060000100000000000000019702000000000000000197029611111111111111111111CONSUMIDOR-FINAL              000000000016500000000000000000000000000000000000000000000000000000000000000000000000000000000000000000000000000000000000PES00010000001 00000000000000000000000
201506130060000100000000000000019703000000000000000197039611111111111111111111CONSUMIDOR-FINAL              000000000072000000000000000000000000000000000000000000000000000000000000000000000000000000000000000000000000000000000000PES00010000001 00000000000000000000000
201506130060000100000000000000019704000000000000000197049611111111111111111111CONSUMIDOR-FINAL              000000000057000000000000000000000000000000000000000000000000000000000000000000000000000000000000000000000000000000000000PES00010000001 00000000000000000000000
201506130060000100000000000000019705000000000000000197059611111111111111111111CONSUMIDOR-FINAL              000000000016500000000000000000000000000000000000000000000000000000000000000000000000000000000000000000000000000000000000PES00010000001 00000000000000000000000
201506130060000100000000000000019706000000000000000197069611111111111111111111CONSUMIDOR-FINAL              000000000027000000000000000000000000000000000000000000000000000000000000000000000000000000000000000000000000000000000000PES00010000001 00000000000000000000000
201506130060000100000000000000019707000000000000000197079611111111111111111111CONSUMIDOR-FINAL              000000000117500000000000000000000000000000000000000000000000000000000000000000000000000000000000000000000000000000000000PES00010000001 00000000000000000000000
201506130060000100000000000000019708000000000000000197089611111111111111111111CONSUMIDOR-FINAL              000000000064500000000000000000000000000000000000000000000000000000000000000000000000000000000000000000000000000000000000PES00010000001 00000000000000000000000
201506130060000100000000000000019709000000000000000197099611111111111111111111CONSUMIDOR-FINAL              000000000127000000000000000000000000000000000000000000000000000000000000000000000000000000000000000000000000000000000000PES00010000001 00000000000000000000000
201506130060000100000000000000019710000000000000000197109611111111111111111111CONSUMIDOR-FINAL              000000000054000000000000000000000000000000000000000000000000000000000000000000000000000000000000000000000000000000000000PES00010000001 00000000000000000000000
201506130060000100000000000000019711000000000000000197119611111111111111111111CONSUMIDOR-FINAL              000000000034000000000000000000000000000000000000000000000000000000000000000000000000000000000000000000000000000000000000PES00010000001 00000000000000000000000
201506130060000100000000000000019712000000000000000197129611111111111111111111CONSUMIDOR-FINAL              000000000020500000000000000000000000000000000000000000000000000000000000000000000000000000000000000000000000000000000000PES00010000001 00000000000000000000000
201506130060000100000000000000019713000000000000000197139611111111111111111111CONSUMIDOR-FINAL              000000000013500000000000000000000000000000000000000000000000000000000000000000000000000000000000000000000000000000000000PES00010000001 00000000000000000000000
201506130060000100000000000000019714000000000000000197149611111111111111111111CONSUMIDOR-FINAL              000000000096000000000000000000000000000000000000000000000000000000000000000000000000000000000000000000000000000000000000PES00010000001 00000000000000000000000
201506130060000100000000000000019715000000000000000197159611111111111111111111CONSUMIDOR-FINAL              000000000140000000000000000000000000000000000000000000000000000000000000000000000000000000000000000000000000000000000000PES00010000001 00000000000000000000000
201506130060000100000000000000019716000000000000000197169611111111111111111111CONSUMIDOR-FINAL              000000000064500000000000000000000000000000000000000000000000000000000000000000000000000000000000000000000000000000000000PES00010000001 00000000000000000000000
201506130060000100000000000000019717000000000000000197179611111111111111111111CONSUMIDOR-FINAL              000000000062500000000000000000000000000000000000000000000000000000000000000000000000000000000000000000000000000000000000PES00010000001 00000000000000000000000
201506130060000100000000000000019718000000000000000197189611111111111111111111CONSUMIDOR-FINAL              000000000022500000000000000000000000000000000000000000000000000000000000000000000000000000000000000000000000000000000000PES00010000001 00000000000000000000000
201506130060000100000000000000019719000000000000000197199611111111111111111111CONSUMIDOR-FINAL              000000000057000000000000000000000000000000000000000000000000000000000000000000000000000000000000000000000000000000000000PES00010000001 00000000000000000000000
201506150060000100000000000000019720000000000000000197209611111111111111111111CONSUMIDOR-FINAL              000000000119000000000000000000000000000000000000000000000000000000000000000000000000000000000000000000000000000000000000PES00010000001 00000000000000000000000
201506150060000100000000000000019721000000000000000197219611111111111111111111CONSUMIDOR-FINAL              000000000180000000000000000000000000000000000000000000000000000000000000000000000000000000000000000000000000000000000000PES00010000001 00000000000000000000000
201506150060000100000000000000019722000000000000000197229611111111111111111111CONSUMIDOR-FINAL              000000000029500000000000000000000000000000000000000000000000000000000000000000000000000000000000000000000000000000000000PES00010000001 00000000000000000000000
201506150060000100000000000000019723000000000000000197239611111111111111111111CONSUMIDOR-FINAL              000000000054000000000000000000000000000000000000000000000000000000000000000000000000000000000000000000000000000000000000PES00010000001 00000000000000000000000
201506150060000100000000000000019724000000000000000197249611111111111111111111CONSUMIDOR-FINAL              000000000143500000000000000000000000000000000000000000000000000000000000000000000000000000000000000000000000000000000000PES00010000001 00000000000000000000000
201506150060000100000000000000019725000000000000000197259611111111111111111111CONSUMIDOR-FINAL              000000000175000000000000000000000000000000000000000000000000000000000000000000000000000000000000000000000000000000000000PES00010000001 00000000000000000000000
201506150060000100000000000000019726000000000000000197269611111111111111111111CONSUMIDOR-FINAL              000000000153500000000000000000000000000000000000000000000000000000000000000000000000000000000000000000000000000000000000PES00010000001 00000000000000000000000
201506150060000100000000000000019727000000000000000197279611111111111111111111CONSUMIDOR-FINAL              000000000071500000000000000000000000000000000000000000000000000000000000000000000000000000000000000000000000000000000000PES00010000001 00000000000000000000000
201506150060000100000000000000019728000000000000000197289611111111111111111111CONSUMIDOR-FINAL              000000000040300000000000000000000000000000000000000000000000000000000000000000000000000000000000000000000000000000000000PES00010000001 00000000000000000000000
201506150060000100000000000000019729000000000000000197299611111111111111111111CONSUMIDOR-FINAL              000000000024000000000000000000000000000000000000000000000000000000000000000000000000000000000000000000000000000000000000PES00010000001 00000000000000000000000
201506150060000100000000000000019730000000000000000197309611111111111111111111CONSUMIDOR-FINAL              000000000051000000000000000000000000000000000000000000000000000000000000000000000000000000000000000000000000000000000000PES00010000001 00000000000000000000000
201506150060000100000000000000019731000000000000000197319611111111111111111111CONSUMIDOR-FINAL              000000000061700000000000000000000000000000000000000000000000000000000000000000000000000000000000000000000000000000000000PES00010000001 00000000000000000000000
201506160060000100000000000000019732000000000000000197329611111111111111111111CONSUMIDOR-FINAL              000000000037600000000000000000000000000000000000000000000000000000000000000000000000000000000000000000000000000000000000PES00010000001 00000000000000000000000
201506160060000100000000000000019733000000000000000197339611111111111111111111CONSUMIDOR-FINAL              000000000043500000000000000000000000000000000000000000000000000000000000000000000000000000000000000000000000000000000000PES00010000001 00000000000000000000000
201506160060000100000000000000019734000000000000000197349611111111111111111111CONSUMIDOR-FINAL              000000000068500000000000000000000000000000000000000000000000000000000000000000000000000000000000000000000000000000000000PES00010000001 00000000000000000000000
201506160060000100000000000000019735000000000000000197359611111111111111111111CONSUMIDOR-FINAL              000000000027000000000000000000000000000000000000000000000000000000000000000000000000000000000000000000000000000000000000PES00010000001 00000000000000000000000
201506160060000100000000000000019736000000000000000197369611111111111111111111CONSUMIDOR-FINAL              000000000035000000000000000000000000000000000000000000000000000000000000000000000000000000000000000000000000000000000000PES00010000001 00000000000000000000000
201506160060000100000000000000019737000000000000000197379611111111111111111111CONSUMIDOR-FINAL              000000000070000000000000000000000000000000000000000000000000000000000000000000000000000000000000000000000000000000000000PES00010000001 00000000000000000000000
201506160060000100000000000000019738000000000000000197389611111111111111111111CONSUMIDOR-FINAL              000000000025500000000000000000000000000000000000000000000000000000000000000000000000000000000000000000000000000000000000PES00010000001 00000000000000000000000
201506160060000100000000000000019739000000000000000197399611111111111111111111CONSUMIDOR-FINAL              000000000065500000000000000000000000000000000000000000000000000000000000000000000000000000000000000000000000000000000000PES00010000001 00000000000000000000000
201506160060000100000000000000019740000000000000000197409611111111111111111111CONSUMIDOR-FINAL              000000000021700000000000000000000000000000000000000000000000000000000000000000000000000000000000000000000000000000000000PES00010000001 00000000000000000000000
201506160060000100000000000000019741000000000000000197419611111111111111111111CONSUMIDOR-FINAL              000000000032200000000000000000000000000000000000000000000000000000000000000000000000000000000000000000000000000000000000PES00010000001 00000000000000000000000
201506160060000100000000000000019742000000000000000197429611111111111111111111CONSUMIDOR-FINAL              000000000029900000000000000000000000000000000000000000000000000000000000000000000000000000000000000000000000000000000000PES00010000001 00000000000000000000000
201506160060000100000000000000019743000000000000000197439611111111111111111111CONSUMIDOR-FINAL              000000000011000000000000000000000000000000000000000000000000000000000000000000000000000000000000000000000000000000000000PES00010000001 00000000000000000000000
201506160060000100000000000000019744000000000000000197449611111111111111111111CONSUMIDOR-FINAL              000000000038500000000000000000000000000000000000000000000000000000000000000000000000000000000000000000000000000000000000PES00010000001 00000000000000000000000
201506170060000100000000000000019745000000000000000197459611111111111111111111CONSUMIDOR-FINAL              000000000107000000000000000000000000000000000000000000000000000000000000000000000000000000000000000000000000000000000000PES00010000001 00000000000000000000000
201506170060000100000000000000019746000000000000000197469611111111111111111111CONSUMIDOR-FINAL              000000000023800000000000000000000000000000000000000000000000000000000000000000000000000000000000000000000000000000000000PES00010000001 00000000000000000000000
201506170060000100000000000000019747000000000000000197479611111111111111111111CONSUMIDOR-FINAL              000000000049000000000000000000000000000000000000000000000000000000000000000000000000000000000000000000000000000000000000PES00010000001 00000000000000000000000
201506170010000100000000000000000966000000000000000009668000000000023185027694MARISA-NAVARRO                000000000011300000000000000000000000000000000000000000000000000000000000000000000000000000000000000000000000000000000000PES00010000001 00000000000000000000000
201506170060000100000000000000019748000000000000000197489611111111111111111111CONSUMIDOR-FINAL              000000000054200000000000000000000000000000000000000000000000000000000000000000000000000000000000000000000000000000000000PES00010000001 00000000000000000000000
201506170060000100000000000000019749000000000000000197499611111111111111111111CONSUMIDOR-FINAL              000000000180000000000000000000000000000000000000000000000000000000000000000000000000000000000000000000000000000000000000PES00010000001 00000000000000000000000
201506170060000100000000000000019750000000000000000197509611111111111111111111CONSUMIDOR-FINAL              000000000026000000000000000000000000000000000000000000000000000000000000000000000000000000000000000000000000000000000000PES00010000001 00000000000000000000000
201506170060000100000000000000019751000000000000000197519611111111111111111111CONSUMIDOR-FINAL              000000000096000000000000000000000000000000000000000000000000000000000000000000000000000000000000000000000000000000000000PES00010000001 00000000000000000000000
201506170010000100000000000000000967000000000000000009678000000000027120401136-LAGO-ISABEL                  000000000107500000000000000000000000000000000000000000000000000000000000000000000000000000000000000000000000000000000000PES00010000001 00000000000000000000000
201506170060000100000000000000019752000000000000000197529611111111111111111111CONSUMIDOR-FINAL              000000000041500000000000000000000000000000000000000000000000000000000000000000000000000000000000000000000000000000000000PES00010000001 00000000000000000000000
201506170060000100000000000000019753000000000000000197539611111111111111111111CONSUMIDOR-FINAL              000000000058900000000000000000000000000000000000000000000000000000000000000000000000000000000000000000000000000000000000PES00010000001 00000000000000000000000
201506170060000100000000000000019754000000000000000197549611111111111111111111CONSUMIDOR-FINAL              000000000011000000000000000000000000000000000000000000000000000000000000000000000000000000000000000000000000000000000000PES00010000001 00000000000000000000000
201506180060000100000000000000019755000000000000000197559611111111111111111111CONSUMIDOR-FINAL              000000000023000000000000000000000000000000000000000000000000000000000000000000000000000000000000000000000000000000000000PES00010000001 00000000000000000000000
201506180060000100000000000000019756000000000000000197569611111111111111111111CONSUMIDOR-FINAL              000000000050400000000000000000000000000000000000000000000000000000000000000000000000000000000000000000000000000000000000PES00010000001 00000000000000000000000
201506180060000100000000000000019757000000000000000197579611111111111111111111CONSUMIDOR-FINAL              000000000052000000000000000000000000000000000000000000000000000000000000000000000000000000000000000000000000000000000000PES00010000001 00000000000000000000000
201506180060000100000000000000019758000000000000000197589611111111111111111111CONSUMIDOR-FINAL              000000000163300000000000000000000000000000000000000000000000000000000000000000000000000000000000000000000000000000000000PES00010000001 00000000000000000000000
201506180060000100000000000000019759000000000000000197599611111111111111111111CONSUMIDOR-FINAL              000000000045000000000000000000000000000000000000000000000000000000000000000000000000000000000000000000000000000000000000PES00010000001 00000000000000000000000
201506180010000100000000000000000968000000000000000009688000000000020110437561-HORACIO-ARTURO-BERGES        000000000431500000000000000000000000000000000000000000000000000000000000000000000000000000000000000000000000000000000000PES00010000001 00000000000000000000000
201506180060000100000000000000019760000000000000000197609611111111111111111111CONSUMIDOR-FINAL              000000000019500000000000000000000000000000000000000000000000000000000000000000000000000000000000000000000000000000000000PES00010000001 00000000000000000000000
201506180060000100000000000000019761000000000000000197619611111111111111111111CONSUMIDOR-FINAL              000000000071500000000000000000000000000000000000000000000000000000000000000000000000000000000000000000000000000000000000PES00010000001 00000000000000000000000
201506180060000100000000000000019762000000000000000197629611111111111111111111CONSUMIDOR-FINAL              000000000120600000000000000000000000000000000000000000000000000000000000000000000000000000000000000000000000000000000000PES00010000001 00000000000000000000000
201506180060000100000000000000019763000000000000000197639611111111111111111111CONSUMIDOR-FINAL              000000000021500000000000000000000000000000000000000000000000000000000000000000000000000000000000000000000000000000000000PES00010000001 00000000000000000000000
201506180060000100000000000000019764000000000000000197649611111111111111111111CONSUMIDOR-FINAL              000000000104300000000000000000000000000000000000000000000000000000000000000000000000000000000000000000000000000000000000PES00010000001 00000000000000000000000
201506180060000100000000000000019765000000000000000197659611111111111111111111CONSUMIDOR-FINAL              000000000217200000000000000000000000000000000000000000000000000000000000000000000000000000000000000000000000000000000000PES00010000001 00000000000000000000000
201506180060000100000000000000019766000000000000000197669611111111111111111111CONSUMIDOR-FINAL              000000000052000000000000000000000000000000000000000000000000000000000000000000000000000000000000000000000000000000000000PES00010000001 00000000000000000000000
201506180060000100000000000000019767000000000000000197679611111111111111111111CONSUMIDOR-FINAL              000000000027500000000000000000000000000000000000000000000000000000000000000000000000000000000000000000000000000000000000PES00010000001 00000000000000000000000
201506180060000100000000000000019768000000000000000197689611111111111111111111CONSUMIDOR-FINAL              000000000077500000000000000000000000000000000000000000000000000000000000000000000000000000000000000000000000000000000000PES00010000001 00000000000000000000000
201506180060000100000000000000019769000000000000000197699611111111111111111111CONSUMIDOR-FINAL              000000000240000000000000000000000000000000000000000000000000000000000000000000000000000000000000000000000000000000000000PES00010000001 00000000000000000000000
201506180060000100000000000000019770000000000000000197709611111111111111111111CONSUMIDOR-FINAL              000000000022000000000000000000000000000000000000000000000000000000000000000000000000000000000000000000000000000000000000PES00010000001 00000000000000000000000
201506180060000100000000000000019771000000000000000197719611111111111111111111CONSUMIDOR-FINAL              000000000021500000000000000000000000000000000000000000000000000000000000000000000000000000000000000000000000000000000000PES00010000001 00000000000000000000000
201506190060000100000000000000019772000000000000000197729611111111111111111111CONSUMIDOR-FINAL              000000000056000000000000000000000000000000000000000000000000000000000000000000000000000000000000000000000000000000000000PES00010000001 00000000000000000000000
201506190060000100000000000000019773000000000000000197739611111111111111111111CONSUMIDOR-FINAL              000000000024200000000000000000000000000000000000000000000000000000000000000000000000000000000000000000000000000000000000PES00010000001 00000000000000000000000
201506190060000100000000000000019774000000000000000197749611111111111111111111CONSUMIDOR-FINAL              000000000026000000000000000000000000000000000000000000000000000000000000000000000000000000000000000000000000000000000000PES00010000001 00000000000000000000000
201506190060000100000000000000019775000000000000000197759611111111111111111111CONSUMIDOR-FINAL              000000000028000000000000000000000000000000000000000000000000000000000000000000000000000000000000000000000000000000000000PES00010000001 00000000000000000000000
201506190060000100000000000000013684000000000000000136848000000000027163632808FREILE-SANDRA                 000000000158500000000000000000000000000000000000000000000000000000000000000000000000000000000000000000000000000000000000PES00010000001 00000000000000000000000
201506190060000100000000000000019776000000000000000197769611111111111111111111CONSUMIDOR-FINAL              000000000018500000000000000000000000000000000000000000000000000000000000000000000000000000000000000000000000000000000000PES00010000001 00000000000000000000000
201506190060000100000000000000019777000000000000000197779611111111111111111111CONSUMIDOR-FINAL              000000000182500000000000000000000000000000000000000000000000000000000000000000000000000000000000000000000000000000000000PES00010000001 00000000000000000000000
201506190060000100000000000000019778000000000000000197789611111111111111111111CONSUMIDOR-FINAL              000000000024000000000000000000000000000000000000000000000000000000000000000000000000000000000000000000000000000000000000PES00010000001 00000000000000000000000
201506190060000100000000000000019779000000000000000197799611111111111111111111CONSUMIDOR-FINAL              000000000031000000000000000000000000000000000000000000000000000000000000000000000000000000000000000000000000000000000000PES00010000001 00000000000000000000000
201506190060000100000000000000019780000000000000000197809611111111111111111111CONSUMIDOR-FINAL              000000000038000000000000000000000000000000000000000000000000000000000000000000000000000000000000000000000000000000000000PES00010000001 00000000000000000000000
201506190060000100000000000000019781000000000000000197819611111111111111111111CONSUMIDOR-FINAL              000000000030500000000000000000000000000000000000000000000000000000000000000000000000000000000000000000000000000000000000PES00010000001 00000000000000000000000
201506190060000100000000000000019782000000000000000197829611111111111111111111CONSUMIDOR-FINAL              000000000020300000000000000000000000000000000000000000000000000000000000000000000000000000000000000000000000000000000000PES00010000001 00000000000000000000000
201506190060000100000000000000019783000000000000000197839611111111111111111111CONSUMIDOR-FINAL              000000000024000000000000000000000000000000000000000000000000000000000000000000000000000000000000000000000000000000000000PES00010000001 00000000000000000000000
201506190060000100000000000000019784000000000000000197849611111111111111111111CONSUMIDOR-FINAL              000000000045500000000000000000000000000000000000000000000000000000000000000000000000000000000000000000000000000000000000PES00010000001 00000000000000000000000
201506190060000100000000000000019785000000000000000197859611111111111111111111CONSUMIDOR-FINAL              000000000021800000000000000000000000000000000000000000000000000000000000000000000000000000000000000000000000000000000000PES00010000001 00000000000000000000000
201506190060000100000000000000019786000000000000000197869611111111111111111111CONSUMIDOR-FINAL              000000000057000000000000000000000000000000000000000000000000000000000000000000000000000000000000000000000000000000000000PES00010000001 00000000000000000000000
201506190060000100000000000000019787000000000000000197879611111111111111111111CONSUMIDOR-FINAL              000000000033000000000000000000000000000000000000000000000000000000000000000000000000000000000000000000000000000000000000PES00010000001 00000000000000000000000
201506190060000100000000000000019788000000000000000197889611111111111111111111CONSUMIDOR-FINAL              000000000027500000000000000000000000000000000000000000000000000000000000000000000000000000000000000000000000000000000000PES00010000001 00000000000000000000000
201506190060000100000000000000019789000000000000000197899611111111111111111111CONSUMIDOR-FINAL              000000000067500000000000000000000000000000000000000000000000000000000000000000000000000000000000000000000000000000000000PES00010000001 00000000000000000000000
201506190060000100000000000000019790000000000000000197909611111111111111111111CONSUMIDOR-FINAL              000000000153600000000000000000000000000000000000000000000000000000000000000000000000000000000000000000000000000000000000PES00010000001 00000000000000000000000
201506190060000100000000000000019791000000000000000197919611111111111111111111CONSUMIDOR-FINAL              000000000015000000000000000000000000000000000000000000000000000000000000000000000000000000000000000000000000000000000000PES00010000001 00000000000000000000000
201506190060000100000000000000019792000000000000000197929611111111111111111111CONSUMIDOR-FINAL              000000000016500000000000000000000000000000000000000000000000000000000000000000000000000000000000000000000000000000000000PES00010000001 00000000000000000000000
201506190060000100000000000000019793000000000000000197939611111111111111111111CONSUMIDOR-FINAL              000000000015500000000000000000000000000000000000000000000000000000000000000000000000000000000000000000000000000000000000PES00010000001 00000000000000000000000
201506190060000100000000000000019794000000000000000197949611111111111111111111CONSUMIDOR-FINAL              000000000076500000000000000000000000000000000000000000000000000000000000000000000000000000000000000000000000000000000000PES00010000001 00000000000000000000000
201506190060000100000000000000019795000000000000000197959611111111111111111111CONSUMIDOR-FINAL              000000000010500000000000000000000000000000000000000000000000000000000000000000000000000000000000000000000000000000000000PES00010000001 00000000000000000000000
201506190060000100000000000000019796000000000000000197969611111111111111111111CONSUMIDOR-FINAL              000000000019500000000000000000000000000000000000000000000000000000000000000000000000000000000000000000000000000000000000PES00010000001 00000000000000000000000
201506190060000100000000000000019797000000000000000197979611111111111111111111CONSUMIDOR-FINAL              000000000060500000000000000000000000000000000000000000000000000000000000000000000000000000000000000000000000000000000000PES00010000001 00000000000000000000000
201506190060000100000000000000019798000000000000000197989611111111111111111111CONSUMIDOR-FINAL              000000000084000000000000000000000000000000000000000000000000000000000000000000000000000000000000000000000000000000000000PES00010000001 00000000000000000000000
201506190060000100000000000000019799000000000000000197999611111111111111111111CONSUMIDOR-FINAL              000000000034300000000000000000000000000000000000000000000000000000000000000000000000000000000000000000000000000000000000PES00010000001 00000000000000000000000
201506190060000100000000000000019800000000000000000198009611111111111111111111CONSUMIDOR-FINAL              000000000059000000000000000000000000000000000000000000000000000000000000000000000000000000000000000000000000000000000000PES00010000001 00000000000000000000000
201506190060000100000000000000019801000000000000000198019611111111111111111111CONSUMIDOR-FINAL              000000000030000000000000000000000000000000000000000000000000000000000000000000000000000000000000000000000000000000000000PES00010000001 00000000000000000000000
201506190060000100000000000000019802000000000000000198029611111111111111111111CONSUMIDOR-FINAL              000000000060000000000000000000000000000000000000000000000000000000000000000000000000000000000000000000000000000000000000PES00010000001 00000000000000000000000
201506200060000100000000000000019803000000000000000198039611111111111111111111CONSUMIDOR-FINAL              000000000054000000000000000000000000000000000000000000000000000000000000000000000000000000000000000000000000000000000000PES00010000001 00000000000000000000000
201506200060000100000000000000019804000000000000000198049611111111111111111111CONSUMIDOR-FINAL              000000000148000000000000000000000000000000000000000000000000000000000000000000000000000000000000000000000000000000000000PES00010000001 00000000000000000000000
201506200060000100000000000000019805000000000000000198059611111111111111111111CONSUMIDOR-FINAL              000000000051500000000000000000000000000000000000000000000000000000000000000000000000000000000000000000000000000000000000PES00010000001 00000000000000000000000
201506200060000100000000000000019806000000000000000198069611111111111111111111CONSUMIDOR-FINAL              000000000075000000000000000000000000000000000000000000000000000000000000000000000000000000000000000000000000000000000000PES00010000001 00000000000000000000000
201506200060000100000000000000019807000000000000000198079611111111111111111111CONSUMIDOR-FINAL              000000000162500000000000000000000000000000000000000000000000000000000000000000000000000000000000000000000000000000000000PES00010000001 00000000000000000000000
201506200060000100000000000000019808000000000000000198089611111111111111111111CONSUMIDOR-FINAL              000000000212500000000000000000000000000000000000000000000000000000000000000000000000000000000000000000000000000000000000PES00010000001 00000000000000000000000
201506200060000100000000000000019809000000000000000198099611111111111111111111CONSUMIDOR-FINAL              000000000026000000000000000000000000000000000000000000000000000000000000000000000000000000000000000000000000000000000000PES00010000001 00000000000000000000000
201506200060000100000000000000019810000000000000000198109611111111111111111111CONSUMIDOR-FINAL              000000000057800000000000000000000000000000000000000000000000000000000000000000000000000000000000000000000000000000000000PES00010000001 00000000000000000000000
201506200060000100000000000000019811000000000000000198119611111111111111111111CONSUMIDOR-FINAL              000000000079500000000000000000000000000000000000000000000000000000000000000000000000000000000000000000000000000000000000PES00010000001 00000000000000000000000
201506200060000100000000000000019812000000000000000198129611111111111111111111CONSUMIDOR-FINAL              000000000025000000000000000000000000000000000000000000000000000000000000000000000000000000000000000000000000000000000000PES00010000001 00000000000000000000000
201506200060000100000000000000019813000000000000000198139611111111111111111111CONSUMIDOR-FINAL              000000000107800000000000000000000000000000000000000000000000000000000000000000000000000000000000000000000000000000000000PES00010000001 00000000000000000000000
201506200060000100000000000000019814000000000000000198149611111111111111111111CONSUMIDOR-FINAL              000000000050500000000000000000000000000000000000000000000000000000000000000000000000000000000000000000000000000000000000PES00010000001 00000000000000000000000
201506200010000100000000000000000969000000000000000009698000000000020171295425JORGE-SAAVEDRA                000000000044500000000000000000000000000000000000000000000000000000000000000000000000000000000000000000000000000000000000PES00010000001 00000000000000000000000
201506200060000100000000000000019815000000000000000198159611111111111111111111CONSUMIDOR-FINAL              000000000087000000000000000000000000000000000000000000000000000000000000000000000000000000000000000000000000000000000000PES00010000001 00000000000000000000000
201506200060000100000000000000019816000000000000000198169611111111111111111111CONSUMIDOR-FINAL              000000000114000000000000000000000000000000000000000000000000000000000000000000000000000000000000000000000000000000000000PES00010000001 00000000000000000000000
201506200060000100000000000000019817000000000000000198179611111111111111111111CONSUMIDOR-FINAL              000000000113000000000000000000000000000000000000000000000000000000000000000000000000000000000000000000000000000000000000PES00010000001 00000000000000000000000
201506200060000100000000000000019818000000000000000198189611111111111111111111CONSUMIDOR-FINAL              000000000108600000000000000000000000000000000000000000000000000000000000000000000000000000000000000000000000000000000000PES00010000001 00000000000000000000000
201506200060000100000000000000019819000000000000000198199611111111111111111111CONSUMIDOR-FINAL              000000000097100000000000000000000000000000000000000000000000000000000000000000000000000000000000000000000000000000000000PES00010000001 00000000000000000000000
201506200060000100000000000000019820000000000000000198209611111111111111111111CONSUMIDOR-FINAL              000000000053000000000000000000000000000000000000000000000000000000000000000000000000000000000000000000000000000000000000PES00010000001 00000000000000000000000
201506200060000100000000000000019821000000000000000198219611111111111111111111CONSUMIDOR-FINAL              000000000030000000000000000000000000000000000000000000000000000000000000000000000000000000000000000000000000000000000000PES00010000001 00000000000000000000000
201506200060000100000000000000019822000000000000000198229611111111111111111111CONSUMIDOR-FINAL              000000000023500000000000000000000000000000000000000000000000000000000000000000000000000000000000000000000000000000000000PES00010000001 00000000000000000000000
201506200060000100000000000000019823000000000000000198239611111111111111111111CONSUMIDOR-FINAL              000000000053500000000000000000000000000000000000000000000000000000000000000000000000000000000000000000000000000000000000PES00010000001 00000000000000000000000
201506200060000100000000000000019824000000000000000198249611111111111111111111CONSUMIDOR-FINAL              000000000236300000000000000000000000000000000000000000000000000000000000000000000000000000000000000000000000000000000000PES00010000001 00000000000000000000000
201506200060000100000000000000019825000000000000000198259611111111111111111111CONSUMIDOR-FINAL              000000000044500000000000000000000000000000000000000000000000000000000000000000000000000000000000000000000000000000000000PES00010000001 00000000000000000000000
201506200060000100000000000000019826000000000000000198269611111111111111111111CONSUMIDOR-FINAL              000000000033000000000000000000000000000000000000000000000000000000000000000000000000000000000000000000000000000000000000PES00010000001 00000000000000000000000
201506200060000100000000000000019827000000000000000198279611111111111111111111CONSUMIDOR-FINAL              000000000117500000000000000000000000000000000000000000000000000000000000000000000000000000000000000000000000000000000000PES00010000001 00000000000000000000000
201506200060000100000000000000019828000000000000000198289611111111111111111111CONSUMIDOR-FINAL              000000000017500000000000000000000000000000000000000000000000000000000000000000000000000000000000000000000000000000000000PES00010000001 00000000000000000000000
201506200060000100000000000000019829000000000000000198299611111111111111111111CONSUMIDOR-FINAL              000000000080900000000000000000000000000000000000000000000000000000000000000000000000000000000000000000000000000000000000PES00010000001 00000000000000000000000
201506200060000100000000000000019830000000000000000198309611111111111111111111CONSUMIDOR-FINAL              000000000015000000000000000000000000000000000000000000000000000000000000000000000000000000000000000000000000000000000000PES00010000001 00000000000000000000000
201506200060000100000000000000019831000000000000000198319611111111111111111111CONSUMIDOR-FINAL              000000000103000000000000000000000000000000000000000000000000000000000000000000000000000000000000000000000000000000000000PES00010000001 00000000000000000000000
201506200060000100000000000000019832000000000000000198329611111111111111111111CONSUMIDOR-FINAL              000000000021500000000000000000000000000000000000000000000000000000000000000000000000000000000000000000000000000000000000PES00010000001 00000000000000000000000
201506200060000100000000000000019833000000000000000198339611111111111111111111CONSUMIDOR-FINAL              000000000035500000000000000000000000000000000000000000000000000000000000000000000000000000000000000000000000000000000000PES00010000001 00000000000000000000000
201506200060000100000000000000019834000000000000000198349611111111111111111111CONSUMIDOR-FINAL              000000000152500000000000000000000000000000000000000000000000000000000000000000000000000000000000000000000000000000000000PES00010000001 00000000000000000000000
201506200060000100000000000000019835000000000000000198359611111111111111111111CONSUMIDOR-FINAL              000000000057500000000000000000000000000000000000000000000000000000000000000000000000000000000000000000000000000000000000PES00010000001 00000000000000000000000
201506200060000100000000000000019836000000000000000198369611111111111111111111CONSUMIDOR-FINAL              000000000024000000000000000000000000000000000000000000000000000000000000000000000000000000000000000000000000000000000000PES00010000001 00000000000000000000000
201506200060000100000000000000019837000000000000000198379611111111111111111111CONSUMIDOR-FINAL              000000000027800000000000000000000000000000000000000000000000000000000000000000000000000000000000000000000000000000000000PES00010000001 00000000000000000000000
201506200060000100000000000000019838000000000000000198389611111111111111111111CONSUMIDOR-FINAL              000000000029000000000000000000000000000000000000000000000000000000000000000000000000000000000000000000000000000000000000PES00010000001 00000000000000000000000
201506200060000100000000000000019839000000000000000198399611111111111111111111CONSUMIDOR-FINAL              000000000094500000000000000000000000000000000000000000000000000000000000000000000000000000000000000000000000000000000000PES00010000001 00000000000000000000000
201506200060000100000000000000019840000000000000000198409611111111111111111111CONSUMIDOR-FINAL              000000000035000000000000000000000000000000000000000000000000000000000000000000000000000000000000000000000000000000000000PES00010000001 00000000000000000000000
201506200060000100000000000000019841000000000000000198419611111111111111111111CONSUMIDOR-FINAL              000000000041500000000000000000000000000000000000000000000000000000000000000000000000000000000000000000000000000000000000PES00010000001 00000000000000000000000
201506200060000100000000000000019842000000000000000198429611111111111111111111CONSUMIDOR-FINAL              000000000027000000000000000000000000000000000000000000000000000000000000000000000000000000000000000000000000000000000000PES00010000001 00000000000000000000000
201506200060000100000000000000019843000000000000000198439611111111111111111111CONSUMIDOR-FINAL              000000000059500000000000000000000000000000000000000000000000000000000000000000000000000000000000000000000000000000000000PES00010000001 00000000000000000000000
201506200060000100000000000000019844000000000000000198449611111111111111111111CONSUMIDOR-FINAL              000000000038000000000000000000000000000000000000000000000000000000000000000000000000000000000000000000000000000000000000PES00010000001 00000000000000000000000
201506200060000100000000000000019845000000000000000198459611111111111111111111CONSUMIDOR-FINAL              000000000038000000000000000000000000000000000000000000000000000000000000000000000000000000000000000000000000000000000000PES00010000001 00000000000000000000000
201506200060000100000000000000019846000000000000000198469611111111111111111111CONSUMIDOR-FINAL              000000000019500000000000000000000000000000000000000000000000000000000000000000000000000000000000000000000000000000000000PES00010000001 00000000000000000000000
201506200060000100000000000000019847000000000000000198479611111111111111111111CONSUMIDOR-FINAL              000000000144500000000000000000000000000000000000000000000000000000000000000000000000000000000000000000000000000000000000PES00010000001 00000000000000000000000
201506200060000100000000000000019848000000000000000198489611111111111111111111CONSUMIDOR-FINAL              000000000073500000000000000000000000000000000000000000000000000000000000000000000000000000000000000000000000000000000000PES00010000001 00000000000000000000000
201506200060000100000000000000019849000000000000000198499611111111111111111111CONSUMIDOR-FINAL              000000000119000000000000000000000000000000000000000000000000000000000000000000000000000000000000000000000000000000000000PES00010000001 00000000000000000000000
201506200010000100000000000000000970000000000000000009708000000000030615764031SANDOVAL-RAVE-SRL             000000000500000000000000000000000000000000000000000000000000000000000000000000000000000000000000000000000000000000000000PES00010000001 00000000000000000000000
201506200060000100000000000000019850000000000000000198509611111111111111111111CONSUMIDOR-FINAL              000000000043000000000000000000000000000000000000000000000000000000000000000000000000000000000000000000000000000000000000PES00010000001 00000000000000000000000
201506200060000100000000000000019851000000000000000198519611111111111111111111CONSUMIDOR-FINAL              000000000071000000000000000000000000000000000000000000000000000000000000000000000000000000000000000000000000000000000000PES00010000001 00000000000000000000000
201506200060000100000000000000019852000000000000000198529611111111111111111111CONSUMIDOR-FINAL              000000000040300000000000000000000000000000000000000000000000000000000000000000000000000000000000000000000000000000000000PES00010000001 00000000000000000000000
201506200060000100000000000000019853000000000000000198539611111111111111111111CONSUMIDOR-FINAL              000000000023000000000000000000000000000000000000000000000000000000000000000000000000000000000000000000000000000000000000PES00010000001 00000000000000000000000
201506200060000100000000000000019854000000000000000198549611111111111111111111CONSUMIDOR-FINAL              000000000048000000000000000000000000000000000000000000000000000000000000000000000000000000000000000000000000000000000000PES00010000001 00000000000000000000000
201506200060000100000000000000019855000000000000000198559611111111111111111111CONSUMIDOR-FINAL              000000000031000000000000000000000000000000000000000000000000000000000000000000000000000000000000000000000000000000000000PES00010000001 00000000000000000000000
201506200060000100000000000000019856000000000000000198569611111111111111111111CONSUMIDOR-FINAL              000000000038500000000000000000000000000000000000000000000000000000000000000000000000000000000000000000000000000000000000PES00010000001 00000000000000000000000
201506200060000100000000000000019857000000000000000198579611111111111111111111CONSUMIDOR-FINAL              000000000064300000000000000000000000000000000000000000000000000000000000000000000000000000000000000000000000000000000000PES00010000001 00000000000000000000000
201506200060000100000000000000019858000000000000000198589611111111111111111111CONSUMIDOR-FINAL              000000000024000000000000000000000000000000000000000000000000000000000000000000000000000000000000000000000000000000000000PES00010000001 00000000000000000000000
201506200060000100000000000000019859000000000000000198599611111111111111111111CONSUMIDOR-FINAL              000000000038500000000000000000000000000000000000000000000000000000000000000000000000000000000000000000000000000000000000PES00010000001 00000000000000000000000
201506200060000100000000000000019860000000000000000198609611111111111111111111CONSUMIDOR-FINAL              000000000099000000000000000000000000000000000000000000000000000000000000000000000000000000000000000000000000000000000000PES00010000001 00000000000000000000000
201506200060000100000000000000019861000000000000000198619611111111111111111111CONSUMIDOR-FINAL              000000000052000000000000000000000000000000000000000000000000000000000000000000000000000000000000000000000000000000000000PES00010000001 00000000000000000000000
201506200060000100000000000000019862000000000000000198629611111111111111111111CONSUMIDOR-FINAL              000000000023000000000000000000000000000000000000000000000000000000000000000000000000000000000000000000000000000000000000PES00010000001 00000000000000000000000
201506200060000100000000000000019863000000000000000198639611111111111111111111CONSUMIDOR-FINAL              000000000059000000000000000000000000000000000000000000000000000000000000000000000000000000000000000000000000000000000000PES00010000001 00000000000000000000000
201506200060000100000000000000019864000000000000000198649611111111111111111111CONSUMIDOR-FINAL              000000000030000000000000000000000000000000000000000000000000000000000000000000000000000000000000000000000000000000000000PES00010000001 00000000000000000000000
201506200060000100000000000000019865000000000000000198659611111111111111111111CONSUMIDOR-FINAL              000000000023000000000000000000000000000000000000000000000000000000000000000000000000000000000000000000000000000000000000PES00010000001 00000000000000000000000
201506200060000100000000000000019866000000000000000198669611111111111111111111CONSUMIDOR-FINAL              000000000067500000000000000000000000000000000000000000000000000000000000000000000000000000000000000000000000000000000000PES00010000001 00000000000000000000000
201506200060000100000000000000019867000000000000000198679611111111111111111111CONSUMIDOR-FINAL              000000000153000000000000000000000000000000000000000000000000000000000000000000000000000000000000000000000000000000000000PES00010000001 00000000000000000000000
201506200060000100000000000000019868000000000000000198689611111111111111111111CONSUMIDOR-FINAL              000000000097500000000000000000000000000000000000000000000000000000000000000000000000000000000000000000000000000000000000PES00010000001 00000000000000000000000
201506200060000100000000000000019869000000000000000198699611111111111111111111CONSUMIDOR-FINAL              000000000066000000000000000000000000000000000000000000000000000000000000000000000000000000000000000000000000000000000000PES00010000001 00000000000000000000000
201506200060000100000000000000019870000000000000000198709611111111111111111111CONSUMIDOR-FINAL              000000000039000000000000000000000000000000000000000000000000000000000000000000000000000000000000000000000000000000000000PES00010000001 00000000000000000000000
201506200060000100000000000000019871000000000000000198719611111111111111111111CONSUMIDOR-FINAL              000000000158500000000000000000000000000000000000000000000000000000000000000000000000000000000000000000000000000000000000PES00010000001 00000000000000000000000
201506200060000100000000000000019872000000000000000198729611111111111111111111CONSUMIDOR-FINAL              000000000022500000000000000000000000000000000000000000000000000000000000000000000000000000000000000000000000000000000000PES00010000001 00000000000000000000000
201506200060000100000000000000019873000000000000000198739611111111111111111111CONSUMIDOR-FINAL              000000000043000000000000000000000000000000000000000000000000000000000000000000000000000000000000000000000000000000000000PES00010000001 00000000000000000000000
201506200060000100000000000000019874000000000000000198749611111111111111111111CONSUMIDOR-FINAL              000000000039000000000000000000000000000000000000000000000000000000000000000000000000000000000000000000000000000000000000PES00010000001 00000000000000000000000
201506200060000100000000000000019875000000000000000198759611111111111111111111CONSUMIDOR-FINAL              000000000115000000000000000000000000000000000000000000000000000000000000000000000000000000000000000000000000000000000000PES00010000001 00000000000000000000000
201506200060000100000000000000019876000000000000000198769611111111111111111111CONSUMIDOR-FINAL              000000000012500000000000000000000000000000000000000000000000000000000000000000000000000000000000000000000000000000000000PES00010000001 00000000000000000000000
201506200060000100000000000000019877000000000000000198779611111111111111111111CONSUMIDOR-FINAL              000000000010500000000000000000000000000000000000000000000000000000000000000000000000000000000000000000000000000000000000PES00010000001 00000000000000000000000
201506200060000100000000000000019878000000000000000198789611111111111111111111CONSUMIDOR-FINAL              000000000077500000000000000000000000000000000000000000000000000000000000000000000000000000000000000000000000000000000000PES00010000001 00000000000000000000000
201506200060000100000000000000019879000000000000000198799611111111111111111111CONSUMIDOR-FINAL              000000000049500000000000000000000000000000000000000000000000000000000000000000000000000000000000000000000000000000000000PES00010000001 00000000000000000000000
201506200060000100000000000000019880000000000000000198809611111111111111111111CONSUMIDOR-FINAL              000000000064500000000000000000000000000000000000000000000000000000000000000000000000000000000000000000000000000000000000PES00010000001 00000000000000000000000
201506200060000100000000000000019881000000000000000198819611111111111111111111CONSUMIDOR-FINAL              000000000029300000000000000000000000000000000000000000000000000000000000000000000000000000000000000000000000000000000000PES00010000001 00000000000000000000000
201506200060000100000000000000019882000000000000000198829611111111111111111111CONSUMIDOR-FINAL              000000000014500000000000000000000000000000000000000000000000000000000000000000000000000000000000000000000000000000000000PES00010000001 00000000000000000000000
201506200060000100000000000000019883000000000000000198839611111111111111111111CONSUMIDOR-FINAL              000000000126500000000000000000000000000000000000000000000000000000000000000000000000000000000000000000000000000000000000PES00010000001 00000000000000000000000
201506200060000100000000000000019884000000000000000198849611111111111111111111CONSUMIDOR-FINAL              000000000078000000000000000000000000000000000000000000000000000000000000000000000000000000000000000000000000000000000000PES00010000001 00000000000000000000000
201506200060000100000000000000019885000000000000000198859611111111111111111111CONSUMIDOR-FINAL              000000000065000000000000000000000000000000000000000000000000000000000000000000000000000000000000000000000000000000000000PES00010000001 00000000000000000000000
201506200060000100000000000000019886000000000000000198869611111111111111111111CONSUMIDOR-FINAL              000000000013000000000000000000000000000000000000000000000000000000000000000000000000000000000000000000000000000000000000PES00010000001 00000000000000000000000
201506200060000100000000000000019887000000000000000198879611111111111111111111CONSUMIDOR-FINAL              000000000019500000000000000000000000000000000000000000000000000000000000000000000000000000000000000000000000000000000000PES00010000001 00000000000000000000000
201506200060000100000000000000019888000000000000000198889611111111111111111111CONSUMIDOR-FINAL              000000000099800000000000000000000000000000000000000000000000000000000000000000000000000000000000000000000000000000000000PES00010000001 00000000000000000000000
201506200060000100000000000000019889000000000000000198899611111111111111111111CONSUMIDOR-FINAL              000000000108000000000000000000000000000000000000000000000000000000000000000000000000000000000000000000000000000000000000PES00010000001 00000000000000000000000
201506200060000100000000000000019890000000000000000198909611111111111111111111CONSUMIDOR-FINAL              000000000302500000000000000000000000000000000000000000000000000000000000000000000000000000000000000000000000000000000000PES00010000001 00000000000000000000000
201506200060000100000000000000019891000000000000000198919611111111111111111111CONSUMIDOR-FINAL              000000000018000000000000000000000000000000000000000000000000000000000000000000000000000000000000000000000000000000000000PES00010000001 00000000000000000000000
201506200060000100000000000000019892000000000000000198929611111111111111111111CONSUMIDOR-FINAL              000000000017500000000000000000000000000000000000000000000000000000000000000000000000000000000000000000000000000000000000PES00010000001 00000000000000000000000
201506200060000100000000000000019893000000000000000198939611111111111111111111CONSUMIDOR-FINAL              000000000032500000000000000000000000000000000000000000000000000000000000000000000000000000000000000000000000000000000000PES00010000001 00000000000000000000000
201506200060000100000000000000019894000000000000000198949611111111111111111111CONSUMIDOR-FINAL              000000000013000000000000000000000000000000000000000000000000000000000000000000000000000000000000000000000000000000000000PES00010000001 00000000000000000000000
201506200060000100000000000000019895000000000000000198959611111111111111111111CONSUMIDOR-FINAL              000000000046000000000000000000000000000000000000000000000000000000000000000000000000000000000000000000000000000000000000PES00010000001 00000000000000000000000
201506200060000100000000000000019896000000000000000198969611111111111111111111CONSUMIDOR-FINAL              000000000057500000000000000000000000000000000000000000000000000000000000000000000000000000000000000000000000000000000000PES00010000001 00000000000000000000000
201506200060000100000000000000019897000000000000000198979611111111111111111111CONSUMIDOR-FINAL              000000000027000000000000000000000000000000000000000000000000000000000000000000000000000000000000000000000000000000000000PES00010000001 00000000000000000000000
201506220060000100000000000000019898000000000000000198989611111111111111111111CONSUMIDOR-FINAL              000000000044500000000000000000000000000000000000000000000000000000000000000000000000000000000000000000000000000000000000PES00010000001 00000000000000000000000
201506220060000100000000000000019899000000000000000198999611111111111111111111CONSUMIDOR-FINAL              000000000118500000000000000000000000000000000000000000000000000000000000000000000000000000000000000000000000000000000000PES00010000001 00000000000000000000000
201506220060000100000000000000019900000000000000000199009611111111111111111111CONSUMIDOR-FINAL              000000000061000000000000000000000000000000000000000000000000000000000000000000000000000000000000000000000000000000000000PES00010000001 00000000000000000000000
201506220060000100000000000000019901000000000000000199019611111111111111111111CONSUMIDOR-FINAL              000000000044000000000000000000000000000000000000000000000000000000000000000000000000000000000000000000000000000000000000PES00010000001 00000000000000000000000
201506220060000100000000000000019902000000000000000199029611111111111111111111CONSUMIDOR-FINAL              000000000027000000000000000000000000000000000000000000000000000000000000000000000000000000000000000000000000000000000000PES00010000001 00000000000000000000000
201506220060000100000000000000019903000000000000000199039611111111111111111111CONSUMIDOR-FINAL              000000000040000000000000000000000000000000000000000000000000000000000000000000000000000000000000000000000000000000000000PES00010000001 00000000000000000000000
201506220060000100000000000000019904000000000000000199049611111111111111111111CONSUMIDOR-FINAL              000000000085500000000000000000000000000000000000000000000000000000000000000000000000000000000000000000000000000000000000PES00010000001 00000000000000000000000
201506220060000100000000000000019905000000000000000199059611111111111111111111CONSUMIDOR-FINAL              000000000042000000000000000000000000000000000000000000000000000000000000000000000000000000000000000000000000000000000000PES00010000001 00000000000000000000000
201506220060000100000000000000019906000000000000000199069611111111111111111111CONSUMIDOR-FINAL              000000000065500000000000000000000000000000000000000000000000000000000000000000000000000000000000000000000000000000000000PES00010000001 00000000000000000000000
201506220060000100000000000000019907000000000000000199079611111111111111111111CONSUMIDOR-FINAL              000000000005000000000000000000000000000000000000000000000000000000000000000000000000000000000000000000000000000000000000PES00010000001 00000000000000000000000
201506220060000100000000000000019908000000000000000199089611111111111111111111CONSUMIDOR-FINAL              000000000032500000000000000000000000000000000000000000000000000000000000000000000000000000000000000000000000000000000000PES00010000001 00000000000000000000000
201506230060000100000000000000019909000000000000000199099611111111111111111111CONSUMIDOR-FINAL              000000000240000000000000000000000000000000000000000000000000000000000000000000000000000000000000000000000000000000000000PES00010000001 00000000000000000000000
201506230060000100000000000000019910000000000000000199109611111111111111111111CONSUMIDOR-FINAL              000000000027000000000000000000000000000000000000000000000000000000000000000000000000000000000000000000000000000000000000PES00010000001 00000000000000000000000
201506230060000100000000000000019911000000000000000199119611111111111111111111CONSUMIDOR-FINAL              000000000036000000000000000000000000000000000000000000000000000000000000000000000000000000000000000000000000000000000000PES00010000001 00000000000000000000000
