201505050010000200000000000000006060                8000000000020126715111ALEJANDRO-LUIS-BUSTOS         000000000029595000000000000000000000000000000000000000000000000000000000000000000000000000000000000000000000000000000000PES00010000001000000000000000000000000000000000000000000                              000000000000000
201505050010000300000000000000000156                8000000000020222552134GUSTAVO-A-GARCIA              000000000360000000000000000000000000000000000000000000000000000000000000000000000000000000000000000000000000000000000000PES00010000001000000000000000000000000000000000000000000                              000000000000000
201505010010000100000000000000009221                8000000000020161974847FABIAN-GERONIMO               000000000021804000000000000000000000000000000000000000000000000000000000000000000000000000000000000000000000000000000000PES00010000001000000000000000000000000000000000000000000                              000000000000000
201505040010000300000000000000005627                8000000000030710941854RUMAH-JAVA-SRL                000000001004905000000000000000000000000000000000000000000000000000000000000000000000000000000000000000000000000000000000PES00010000001000000000000000000000000000000000000000000                              000000000000000
201505110010000800000000000000050593                8000000000030545726722SOCIEDAD-COOP-POPULAR-LIM-DE  000000000195522000000000000000000000000000000000000000000000000000000000000000000000000000000000000000000000000000000000PES00010000001000000000000000000000000000000000000000000                              000000000000000
201505120010000300000000000000002253                8000000000030711190895AUSTRAL-ALARMAS-SRL           000000000030250000000000000000000000000000000000000000000000000000000000000000000000000000000000000000000000000000000000PES00010000001000000000000000000000000000000000000000000                              000000000000000
201505010010000200000000000000000277                8000000000030710452993BAZAR-Y-CRISTAL-SRL           000000001498580000000000000000000000000000000000000000000000000000000000000000000000000000000000000000000000000000000000PES00010000001000000000000000000000000000000000000000000                              000000000000000
201505160010001000000000000000001857                8000000000030670288613DISTRIBUIDORA-LOA-SA          000000000038295000000000000000000000000000000000000000000000000000000000000000000000000000000000000000000000000000000000PES00010000001000000000000000000000000000000000000000000                              000000000000000
201505110010000400000000000000002262                8000000000020204701998FRADUSCO-ARIEL                000000001544565000000000000000000000000000000000000000000000000000000000000000000000000000000000000000000000000000000000PES00010000001000000000000000000000000000000000000000000                              000000000000000
201505190010000200000000000000006117                8000000000020126715111ALEJANDRO-LUIS-BUSTOS         000000000038519000000000000000000000000000000000000000000000000000000000000000000000000000000000000000000000000000000000PES00010000001000000000000000000000000000000000000000000                              000000000000000
201505090010000100000000000000000007                8000000000030714670618CONDOMINIO-DE-BERSAIS-CESAR-L 000000002662000000000000000000000000000000000000000000000000000000000000000000000000000000000000000000000000000000000000PES00010000001000000000000000000000000000000000000000000                              000000000000000
201505180010000300000000000000030328                8000000000030708273453MISHKA-SA                     000000000733869000000000000000000000000000000000000000000000000000000000000000000000000000000000000000000000000000000000PES00010000001000000000000000000000000000000000000000000                              000000000000000
201505180010000300000000000000030329                8000000000030708273453MISHKA-SA                     000000000043106000000000000000000000000000000000000000000000000000000000000000000000000000000000000000000000000000000000PES00010000001000000000000000000000000000000000000000000                              000000000000000
201505180010000300000000000000030330                8000000000030708273453MISHKA-SA                     000000000255523000000000000000000000000000000000000000000000000000000000000000000000000000000000000000000000000000000000PES00010000001000000000000000000000000000000000000000000                              000000000000000
201505150010000400000000000000120493                8000000000030708926155TRANSPORTES-UNION-SA          000000000459983000000000000000000000000000000000000000000000000000000000000000000000000000000000000000000000000000000000PES00010000001000000000000000000000000000000000000000000                              000000000000000
201505220010000100000000000000001951                8000000000023247772669JORGE-PAULOS-ANTUNES          000000000455986000000000000000000000000000000000000000000000000000000000000000000000000000000000000000000000000000000000PES00010000001000000000000000000000000000000000000000000                              000000000000000
201505190010000300000000000000005674                8000000000030710941854RUMAH-JAVA-SRL                000000000655820000000000000000000000000000000000000000000000000000000000000000000000000000000000000000000000000000000000PES00010000001000000000000000000000000000000000000000000                              000000000000000
201505110010000100000000000020150413                8000000000030639453975TELEFONICA-DE-ARG-SA          000000000073459000000000000000000000000000000000000000000000000000000000000000000000000000000000000000000000000000000000PES00010000001000000000000000000000000000000000000000000                              000000000000000
201505230010000100000000000000015583                8000000000020110064668NESTOR-JUAN-WILLUBER          000000000014801000000000000000000000000000000000000000000000000000000000000000000000000000000000000000000000000000000000PES00010000001000000000000000000000000000000000000000000                              000000000000000
201505260010000200000000000000006141                8000000000020126715111ALEJANDRO-LUIS-BUSTOS         000000000003837000000000000000000000000000000000000000000000000000000000000000000000000000000000000000000000000000000000PES00010000001000000000000000000000000000000000000000000                              000000000000000
201505210010000100000000000000002731                8000000000023161812129GRUPO-ARTE-URBANO             000000000336223000000000000000000000000000000000000000000000000000000000000000000000000000000000000000000000000000000000PES00010000001000000000000000000000000000000000000000000                              000000000000000
201505290010000400000000000000120677                8000000000030708926155TRANSPORTES-UNION-SA          000000000654223000000000000000000000000000000000000000000000000000000000000000000000000000000000000000000000000000000000PES00010000001000000000000000000000000000000000000000000                              000000000000000
201505220010000100000000000000016682                8000000000030708873043ECON-CASA-SRL                 000000000351111000000000000000000000000000000000000000000000000000000000000000000000000000000000000000000000000000000000PES00010000001000000000000000000000000000000000000000000                              000000000000000
