201507100010000100000000000020150613                8000000000030639453975TELEFONICA-DE-ARG-SA          000000000086229000000000000000000000000000000000000000000000000000000000000000000000000000000000000000000000000000000000PES00010000001000000000000000000000000000000000000000000                              000000000000000
201507010010000300000000000000002335                8000000000030711190895AUSTRAL-ALARMAS-SRL           000000000030250000000000000000000000000000000000000000000000000000000000000000000000000000000000000000000000000000000000PES00010000001000000000000000000000000000000000000000000                              000000000000000
201507010010000100000000000000009184                8000000000030709545325GRUPO-MARINHO-SRL             000000001371995000000000000000000000000000000000000000000000000000000000000000000000000000000000000000000000000000000000PES00010000001000000000000000000000000000000000000000000                              000000000000000
201507010010000300000000000000031311                8000000000030708273453MISHKA-SA                     000000000778919000000000000000000000000000000000000000000000000000000000000000000000000000000000000000000000000000000000PES00010000001000000000000000000000000000000000000000000                              000000000000000
201507010010000700000000000000012507                8000000000030710920067SEBSADA-SA                    000000003046804000000000000000000000000000000000000000000000000000000000000000000000000000000000000000000000000000000000PES00010000001000000000000000000000000000000000000000000                              000000000000000
201507010010000700000000000000012508                8000000000030710920067SEBSADA-SA                    000000000870111000000000000000000000000000000000000000000000000000000000000000000000000000000000000000000000000000000000PES00010000001000000000000000000000000000000000000000000                              000000000000000
201507010010000700000000000000012509                8000000000030710920067SEBSADA-SA                    000000000317852000000000000000000000000000000000000000000000000000000000000000000000000000000000000000000000000000000000PES00010000001000000000000000000000000000000000000000000                              000000000000000
201507080010000800000000000000058699                8000000000030545726722SOCIEDAD-COOP-POPULAR-LIM-DE  000000000193317000000000000000000000000000000000000000000000000000000000000000000000000000000000000000000000000000000000PES00010000001000000000000000000000000000000000000000000                              000000000000000
201507010010000200000000000000002702                8000000000030708525436JAVIER-R-BRAIDOT-Y-WALTER-G-  000000000615084000000000000000000000000000000000000000000000000000000000000000000000000000000000000000000000000000000000PES00010000001000000000000000000000000000000000000000000                              000000000000000
201507010010001200000000000000003115                8000000000030708094931ARIFERNIC-INVARG-SRL          000000003531547000000000000000000000000000000000000000000000000000000000000000000000000000000000000000000000000000000000PES00010000001000000000000000000000000000000000000000000                              000000000000000
201507010010000300000000000000000057                8000000000030710492146PUNTA-GROUP-SRL               000000000550491000000000000000000000000000000000000000000000000000000000000000000000000000000000000000000000000000000000PES00010000001000000000000000000000000000000000000000000                              000000000000000
201507030010000200000000000000005065                8000000000030710405928CRISTAL-HOM-SRL               000000000993434000000000000000000000000000000000000000000000000000000000000000000000000000000000000000000000000000000000PES00010000001000000000000000000000000000000000000000000                              000000000000000
201507030010000200000000000000005066                8000000000030710405928CRISTAL-HOM-SRL               000000000232526000000000000000000000000000000000000000000000000000000000000000000000000000000000000000000000000000000000PES00010000001000000000000000000000000000000000000000000                              000000000000000
201507110010002500000000000000000038                8000000000030670288613DISTRIBUIDORA-LOA-SA          000000000048281000000000000000000000000000000000000000000000000000000000000000000000000000000000000000000000000000000000PES00010000001000000000000000000000000000000000000000000                              000000000000000
201507110010002100000000000000006145                8000000000030707454640EL-ESTANCO-SA                 000000000030300000000000000000000000000000000000000000000000000000000000000000000000000000000000000000000000000000000000PES00010000001000000000000000000000000000000000000000000                              000000000000000
201507010010000200000000000000003187                8000000000030708268468ZAIRE-REGALOS-SRL             000000001277130000000000000000000000000000000000000000000000000000000000000000000000000000000000000000000000000000000000PES00010000001000000000000000000000000000000000000000000                              000000000000000
201507010010000200000000000000003188                8000000000030708268468ZAIRE-REGALOS-SRL             000000000159405000000000000000000000000000000000000000000000000000000000000000000000000000000000000000000000000000000000PES00010000001000000000000000000000000000000000000000000                              000000000000000
201507100010005200000000000000028781                8000000000030583210276MERCATOR-SA                   000000000738720000000000000000000000000000000000000000000000000000000000000000000000000000000000000000000000000000000000PES00010000001000000000000000000000000000000000000000000                              000000000000000
201507100010000200000000000000000081                8000000000030709516864GENKO-SA                      000000000381106000000000000000000000000000000000000000000000000000000000000000000000000000000000000000000000000000000000PES00010000001000000000000000000000000000000000000000000                              000000000000000
201507110010000100000000000000000009                8000000000030714670618CONDOMINIO-DE-BERSAIS-CESAR-L 000000002662000000000000000000000000000000000000000000000000000000000000000000000000000000000000000000000000000000000000PES00010000001000000000000000000000000000000000000000000                              000000000000000
201507050010000300000000000000000186                8000000000020222552134GUSTAVO-A-GARCIA              000000000360000000000000000000000000000000000000000000000000000000000000000000000000000000000000000000000000000000000000PES00010000001000000000000000000000000000000000000000000                              000000000000000
201507170010290600000000000000003694                8000000000030506730038SA-IMPORT-Y-EXPORT-DE-LA-PATAG000000000021379000000000000000000000000000000000000000000000000000000000000000000000000000000000000000000000000000000000PES00010000001000000000000000000000000000000000000000000                              000000000000000
201507130010000500000000000000008123                8000000000030711778302MDK-SRL                       000000000492107000000000000000000000000000000000000000000000000000000000000000000000000000000000000000000000000000000000PES00010000001000000000000000000000000000000000000000000                              000000000000000
201507170010000200000000000000000020                8000000000020222551774SERGIO-EDUARDO-SOTO           000000000061710000000000000000000000000000000000000000000000000000000000000000000000000000000000000000000000000000000000PES00010000001000000000000000000000000000000000000000000                              000000000000000
201507180010001000000000000000002629                8000000000030670288613DISTRIBUIDORA-LOA-SA          000000000013528000000000000000000000000000000000000000000000000000000000000000000000000000000000000000000000000000000000PES00010000001000000000000000000000000000000000000000000                              000000000000000
201507150010000400000000000000122105                8000000000030708926155TRANSPORTES-UNION-SA          000000001164253000000000000000000000000000000000000000000000000000000000000000000000000000000000000000000000000000000000PES00010000001000000000000000000000000000000000000000000                              000000000000000
201507160010000200000000000000013658                8000000000030680810946ENTRANCE-SA                   000000000513427000000000000000000000000000000000000000000000000000000000000000000000000000000000000000000000000000000000PES00010000001000000000000000000000000000000000000000000                              000000000000000
201507160010005200000000000000029008                8000000000030583210276MERCATOR-SA                   000000000050849000000000000000000000000000000000000000000000000000000000000000000000000000000000000000000000000000000000PES00010000001000000000000000000000000000000000000000000                              000000000000000
201507160010005200000000000000029007                8000000000030583210276MERCATOR-SA                   000000000542700000000000000000000000000000000000000000000000000000000000000000000000000000000000000000000000000000000000PES00010000001000000000000000000000000000000000000000000                              000000000000000
201507150010000200000000000000001247                8000000000030521034129LOS-ANDES-SCPA                000000000248000000000000000000000000000000000000000000000000000000000000000000000000000000000000000000000000000000000000PES00010000001000000000000000000000000000000000000000000                              000000000000000
201507270010000200000000000000000060                8000000000030611800408GECE-SRL                      000000000744000000000000000000000000000000000000000000000000000000000000000000000000000000000000000000000000000000000000PES00010000001000000000000000000000000000000000000000000                              000000000000000
201507270010000100000000000000004840                8000000000033710589149MARWALL-SA                    000000000161414000000000000000000000000000000000000000000000000000000000000000000000000000000000000000000000000000000000PES00010000001000000000000000000000000000000000000000000                              000000000000000
201507310010000400000000000000122300                8000000000030708926155TRANSPORTES-UNION-SA          000000000446044000000000000000000000000000000000000000000000000000000000000000000000000000000000000000000000000000000000PES00010000001000000000000000000000000000000000000000000                              000000000000000
201507300010100100000000000000000015                8000000000027137539700ALEJANDRA-PAULA-HAVILIO       000000001604460000000000000000000000000000000000000000000000000000000000000000000000000000000000000000000000000000000000PES00010000001000000000000000000000000000000000000000000                              000000000000000
201507300010000300000000000000005875                8000000000030710941854RUMAH-JAVA-SRL                000000000883905000000000000000000000000000000000000000000000000000000000000000000000000000000000000000000000000000000000PES00010000001000000000000000000000000000000000000000000                              000000000000000
201507300010001500000000000000000352                8000000000033708356609PATAGONIACANDLES-SRL          000000000756250000000000000000000000000000000000000000000000000000000000000000000000000000000000000000000000000000000000PES00010000001000000000000000000000000000000000000000000                              000000000000000
201507300010001500000000000000000353                8000000000033708356609PATAGONIACANDLES-SRL          000000001385692000000000000000000000000000000000000000000000000000000000000000000000000000000000000000000000000000000000PES00010000001000000000000000000000000000000000000000000                              000000000000000
201507300010001500000000000000000354                8000000000033708356609PATAGONIACANDLES-SRL          000000001835764000000000000000000000000000000000000000000000000000000000000000000000000000000000000000000000000000000000PES00010000001000000000000000000000000000000000000000000                              000000000000000
