201601040010000700000000000000064713                8000000000030654831072HIERROMAD-AUSTRAL-DE-IRON-SRL 000000000044000000000000000000000000000000000000000000000000000000000000000000000000000000000000000000000000000000000000PES00010000001000000000000000000000000000000000000000000                              000000000000000
201601060010000400000000000000003100                8000000000030710825307AEG-SOLUCIONES-TECNOLOGICAS-SR000000000080000000000000000000000000000000000000000000000000000000000000000000000000000000000000000000000000000000000000PES00010000001000000000000000000000000000000000000000000                              000000000000000
201601060010100100000000000000000085                8000000000027137539700ALEJANDRA-PAULA-HAVILIO       000000004053500000000000000000000000000000000000000000000000000000000000000000000000000000000000000000000000000000000000PES00010000001000000000000000000000000000000000000000000                              000000000000000
201601080010000400000000000000126278                8000000000030708926155TRANSPORTES-UNION-SA          000000000331738000000000000000000000000000000000000000000000000000000000000000000000000000000000000000000000000000000000PES00010000001000000000000000000000000000000000000000000                              000000000000000
201601110010005200000000000000034799                8000000000030583210276MERCATOR-SA                   000000002535821000000000000000000000000000000000000000000000000000000000000000000000000000000000000000000000000000000000PES00010000001000000000000000000000000000000000000000000                              000000000000000
201601110010001100000000000000002156                8000000000030670288613DISTRIBUIDORA-LOA-SA          000000000058410000000000000000000000000000000000000000000000000000000000000000000000000000000000000000000000000000000000PES00010000001000000000000000000000000000000000000000000                              000000000000000
201601110010000200000000000000000834                8000000000030709516864GENKO-SA                      000000000648347000000000000000000000000000000000000000000000000000000000000000000000000000000000000000000000000000000000PES00010000001000000000000000000000000000000000000000000                              000000000000000
201601110010000300000000000000002918                8000000000030711190895AUSTRAL-ALARMAS-SRL           000000000036300000000000000000000000000000000000000000000000000000000000000000000000000000000000000000000000000000000000PES00010000001000000000000000000000000000000000000000000                              000000000000000
201601120010000100000000000000000015                8000000000030714670618CONDOMINIO-DE-BERSAIS-CESAR-L 000000002662000000000000000000000000000000000000000000000000000000000000000000000000000000000000000000000000000000000000PES00010000001000000000000000000000000000000000000000000                              000000000000000
201601130010000500000000000000000122                8000000000030714549665QUEBRACHOS-SRL                000000000062000000000000000000000000000000000000000000000000000000000000000000000000000000000000000000000000000000000000PES00010000001000000000000000000000000000000000000000000                              000000000000000
201601130010000300000000000000000346                8000000000030611800408GECE-SRL                      000000001265750000000000000000000000000000000000000000000000000000000000000000000000000000000000000000000000000000000000PES00010000001000000000000000000000000000000000000000000                              000000000000000
201601150010000300000000000000000282                8000000000020222552134GUSTAVO-A-GARCIA              000000000450000000000000000000000000000000000000000000000000000000000000000000000000000000000000000000000000000000000000PES00010000001000000000000000000000000000000000000000000                              000000000000000
201601190010000400000000000000126848                8000000000030708926155TRANSPORTES-UNION-SA          000000000241077000000000000000000000000000000000000000000000000000000000000000000000000000000000000000000000000000000000PES00010000001000000000000000000000000000000000000000000                              000000000000000
201601190010000300000000000000000252                8000000000023161812129GRUPO-ARTE-URBANO             000000000401560000000000000000000000000000000000000000000000000000000000000000000000000000000000000000000000000000000000PES00010000001000000000000000000000000000000000000000000                              000000000000000
201601190010000300000000000000000253                8000000000023161812129GRUPO-ARTE-URBANO             000000000216863000000000000000000000000000000000000000000000000000000000000000000000000000000000000000000000000000000000PES00010000001000000000000000000000000000000000000000000                              000000000000000
201601200010000300000000000000022246                8000000000030708138645DECORMESA-SA                  000000001123606000000000000000000000000000000000000000000000000000000000000000000000000000000000000000000000000000000000PES00010000001000000000000000000000000000000000000000000                              000000000000000
201601200010000300000000000000006557                8000000000030710941854RUMAH-JAVA-SRL                000000001363065000000000000000000000000000000000000000000000000000000000000000000000000000000000000000000000000000000000PES00010000001000000000000000000000000000000000000000000                              000000000000000
201601220010000400000000000000000852                8000000000020126715111ALEJANDRO-LUIS-BUSTOS         000000000017828000000000000000000000000000000000000000000000000000000000000000000000000000000000000000000000000000000000PES00010000001000000000000000000000000000000000000000000                              000000000000000
