201503100010000100000000000020150213                8000000000030639453975TELEFONICA-DE-ARG-SA          000000000077283000000000000000000000000000000000000000000000000000000000000000000000000000000000000000000000000000000000PES00010000001000000000000000000000000000000000000000000                              000000000000000
201503100010000800000000000000042324                8000000000030545726722SOCIEDAD-COOP-POPULAR-LIM-DE  000000000191943000000000000000000000000000000000000000000000000000000000000000000000000000000000000000000000000000000000PES00010000001000000000000000000000000000000000000000000                              000000000000000
201503030010000300000000000000000136                8000000000020222552134GUSTAVO-A-GARCIA              000000000360000000000000000000000000000000000000000000000000000000000000000000000000000000000000000000000000000000000000PES00010000001000000000000000000000000000000000000000000                              000000000000000
201503050010000700000000000000000019                8000000000030714370223ZURY-SRL                      000000000261033000000000000000000000000000000000000000000000000000000000000000000000000000000000000000000000000000000000PES00010000001000000000000000000000000000000000000000000                              000000000000000
201503040010000300000000000000028312                8000000000030708273453MISHKA-SA                     000000000786669000000000000000000000000000000000000000000000000000000000000000000000000000000000000000000000000000000000PES00010000001000000000000000000000000000000000000000000                              000000000000000
201503110010000200000000000000001798                8000000000030711696446REBALLING-SRL                 000000000007000000000000000000000000000000000000000000000000000000000000000000000000000000000000000000000000000000000000PES00010000001000000000000000000000000000000000000000000                              000000000000000
201503110010000100000000000000000005                8000000000030714670618CONDOMINIO-DE-BERSAIS-CESAR-L 000000002662000000000000000000000000000000000000000000000000000000000000000000000000000000000000000000000000000000000000PES00010000001000000000000000000000000000000000000000000                              000000000000000
201503060010000100000000000000001946                8000000000030711190895AUSTRAL-ALARMAS-SRL           000000000030250000000000000000000000000000000000000000000000000000000000000000000000000000000000000000000000000000000000PES00010000001000000000000000000000000000000000000000000                              000000000000000
201503090010000300000000000000028397                8000000000030708273453MISHKA-SA                     000000000120698000000000000000000000000000000000000000000000000000000000000000000000000000000000000000000000000000000000PES00010000001000000000000000000000000000000000000000000                              000000000000000
201503120010000100000000000000008552                8000000000020222551774SERGIO-EDUARDO-SOTO           000000000054450000000000000000000000000000000000000000000000000000000000000000000000000000000000000000000000000000000000PES00010000001000000000000000000000000000000000000000000                              000000000000000
201503020010000100000000000000004673                8000000000027137539700ALEJANDRA-PAULA-HAVILIO       000000001558480000000000000000000000000000000000000000000000000000000000000000000000000000000000000000000000000000000000PES00010000001000000000000000000000000000000000000000000                              000000000000000
201503140010000200000000000000001701                8000000000020116341167LUIS-JOSE-ZYSMAN              000000001329999000000000000000000000000000000000000000000000000000000000000000000000000000000000000000000000000000000000PES00010000001000000000000000000000000000000000000000000                              000000000000000
201503130010001500000000000000004250                8000000000030615902094NUEVO-SUR-SA                  000000000098392000000000000000000000000000000000000000000000000000000000000000000000000000000000000000000000000000000000PES00010000001000000000000000000000000000000000000000000                              000000000000000
201503170010000100000000000000022029                8000000000030611800408GECE-SRL                      000000000507470000000000000000000000000000000000000000000000000000000000000000000000000000000000000000000000000000000000PES00010000001000000000000000000000000000000000000000000                              000000000000000
201503130010000400000000000000118746                8000000000030708926155TRANSPORTES-UNION-SA          000000000445714000000000000000000000000000000000000000000000000000000000000000000000000000000000000000000000000000000000PES00010000001000000000000000000000000000000000000000000                              000000000000000
201503170010000100000000000000001793                8000000000023247772669JORGE-PAULOS-ANTUNES          000000000570001000000000000000000000000000000000000000000000000000000000000000000000000000000000000000000000000000000000PES00010000001000000000000000000000000000000000000000000                              000000000000000
201503180010000100000000000000001796                8000000000023247772669JORGE-PAULOS-ANTUNES          000000000397501000000000000000000000000000000000000000000000000000000000000000000000000000000000000000000000000000000000PES00010000001000000000000000000000000000000000000000000                              000000000000000
201503190010000200000000000000005899                8000000000020126715111ALEJANDRO-LUIS-BUSTOS         000000000024839000000000000000000000000000000000000000000000000000000000000000000000000000000000000000000000000000000000PES00010000001000000000000000000000000000000000000000000                              000000000000000
201503190010000100000000000000000212                8000000000020108041480JUAN-CARLOS-BACAY             000000000211024000000000000000000000000000000000000000000000000000000000000000000000000000000000000000000000000000000000PES00010000001000000000000000000000000000000000000000000                              000000000000000
201503200010000600000000000000032868                8000000000020055005339JUAN-CARLOS-GONZALEZ-ORONO    000000000015000000000000000000000000000000000000000000000000000000000000000000000000000000000000000000000000000000000000PES00010000001000000000000000000000000000000000000000000                              000000000000000
201503210010001200000000000000007023                8000000000030670288613DISTRIBUIDORA-LOA-SA          000000000039091000000000000000000000000000000000000000000000000000000000000000000000000000000000000000000000000000000000PES00010000001000000000000000000000000000000000000000000                              000000000000000
201503170110000100000000000000000087                8000000000027165575089MARCHETA-IRMA-INES            000000001070000000000000000000000000000000000000000000000000000000000000000000000000000000000000000000000000000000000000PES00010000000000000000000000000000000000000000000000000                              000000000000000
201503200010000300000000000000000694                8000000000030711307911DESDE-EL-ESTE-SA              000000000426239000000000000000000000000000000000000000000000000000000000000000000000000000000000000000000000000000000000PES00010000001000000000000000000000000000000000000000000                              000000000000000
201503260110000100000000000000000996                8000000000020113995743OSCAR-ASTE                    000000000989000000000000000000000000000000000000000000000000000000000000000000000000000000000000000000000000000000000000PES00010000000000000000000000000000000000000000000000000                              000000000000000
201503190010000200000000000000026077                8000000000030710289375FASHION-COOK-SA               000000000616572000000000000000000000000000000000000000000000000000000000000000000000000000000000000000000000000000000000PES00010000001000000000000000000000000000000000000000000                              000000000000000
201503310010002100000000000000004635                8000000000030707454640EL-ESTANCO-SA                 000000000024850000000000000000000000000000000000000000000000000000000000000000000000000000000000000000000000000000000000PES00010000001000000000000000000000000000000000000000000                              000000000000000
201503190010000100000000000000008430                8000000000033712055699WASSA-SRL                     000000000184733000000000000000000000000000000000000000000000000000000000000000000000000000000000000000000000000000000000PES00010000001000000000000000000000000000000000000000000                              000000000000000
201503190010000300000000000000007290                8000000000033712055699WASSA-SRL                     000000001056297000000000000000000000000000000000000000000000000000000000000000000000000000000000000000000000000000000000PES00010000001000000000000000000000000000000000000000000                              000000000000000
201503300010000400000000000000118928                8000000000030708926155TRANSPORTES-UNION-SA          000000000441978000000000000000000000000000000000000000000000000000000000000000000000000000000000000000000000000000000000PES00010000001000000000000000000000000000000000000000000                              000000000000000
