201503020060000100000000000000018489000000000000000184899611111111111111111111CONSUMIDOR-FINAL              000000000029300000000000000000000000000000000000000000000000000000000000000000000000000000000000000000000000000000000000PES00010000001 00000000000000000000000
201503020060000100000000000000018490000000000000000184909611111111111111111111CONSUMIDOR-FINAL              000000000132500000000000000000000000000000000000000000000000000000000000000000000000000000000000000000000000000000000000PES00010000001 00000000000000000000000
201503020060000100000000000000018491000000000000000184919611111111111111111111CONSUMIDOR-FINAL              000000000009800000000000000000000000000000000000000000000000000000000000000000000000000000000000000000000000000000000000PES00010000001 00000000000000000000000
201503020060000100000000000000018492000000000000000184929611111111111111111111CONSUMIDOR-FINAL              000000000049000000000000000000000000000000000000000000000000000000000000000000000000000000000000000000000000000000000000PES00010000001 00000000000000000000000
201503020060000100000000000000018493000000000000000184939611111111111111111111CONSUMIDOR-FINAL              000000000014500000000000000000000000000000000000000000000000000000000000000000000000000000000000000000000000000000000000PES00010000001 00000000000000000000000
201503020060000100000000000000018494000000000000000184949611111111111111111111CONSUMIDOR-FINAL              000000000034500000000000000000000000000000000000000000000000000000000000000000000000000000000000000000000000000000000000PES00010000001 00000000000000000000000
201503020060000100000000000000018495000000000000000184959611111111111111111111CONSUMIDOR-FINAL              000000000020000000000000000000000000000000000000000000000000000000000000000000000000000000000000000000000000000000000000PES00010000001 00000000000000000000000
201503020060000100000000000000018496000000000000000184969611111111111111111111CONSUMIDOR-FINAL              000000000084000000000000000000000000000000000000000000000000000000000000000000000000000000000000000000000000000000000000PES00010000001 00000000000000000000000
201503020060000100000000000000018497000000000000000184979611111111111111111111CONSUMIDOR-FINAL              000000000035000000000000000000000000000000000000000000000000000000000000000000000000000000000000000000000000000000000000PES00010000001 00000000000000000000000
201503020060000100000000000000018498000000000000000184989611111111111111111111CONSUMIDOR-FINAL              000000000018500000000000000000000000000000000000000000000000000000000000000000000000000000000000000000000000000000000000PES00010000001 00000000000000000000000
201503030060000100000000000000018500000000000000000185009611111111111111111111CONSUMIDOR-FINAL              000000000017500000000000000000000000000000000000000000000000000000000000000000000000000000000000000000000000000000000000PES00010000001 00000000000000000000000
201503030060000100000000000000018501000000000000000185019611111111111111111111CONSUMIDOR-FINAL              000000000050000000000000000000000000000000000000000000000000000000000000000000000000000000000000000000000000000000000000PES00010000001 00000000000000000000000
201503030010000100000000000000000911000000000000000009118000000000020266330767ROJAS-FERNANDO-OSCAR          000000000042500000000000000000000000000000000000000000000000000000000000000000000000000000000000000000000000000000000000PES00010000001 00000000000000000000000
201503030060000100000000000000018502000000000000000185029611111111111111111111CONSUMIDOR-FINAL              000000000205900000000000000000000000000000000000000000000000000000000000000000000000000000000000000000000000000000000000PES00010000001 00000000000000000000000
201503030060000100000000000000018503000000000000000185039611111111111111111111CONSUMIDOR-FINAL              000000000069500000000000000000000000000000000000000000000000000000000000000000000000000000000000000000000000000000000000PES00010000001 00000000000000000000000
201503030060000100000000000000018504000000000000000185049611111111111111111111CONSUMIDOR-FINAL              000000000058000000000000000000000000000000000000000000000000000000000000000000000000000000000000000000000000000000000000PES00010000001 00000000000000000000000
201503030060000100000000000000018505000000000000000185059611111111111111111111CONSUMIDOR-FINAL              000000000049000000000000000000000000000000000000000000000000000000000000000000000000000000000000000000000000000000000000PES00010000001 00000000000000000000000
201503030060000100000000000000018506000000000000000185069611111111111111111111CONSUMIDOR-FINAL              000000000062500000000000000000000000000000000000000000000000000000000000000000000000000000000000000000000000000000000000PES00010000001 00000000000000000000000
201503030060000100000000000000018507000000000000000185079611111111111111111111CONSUMIDOR-FINAL              000000000026000000000000000000000000000000000000000000000000000000000000000000000000000000000000000000000000000000000000PES00010000001 00000000000000000000000
201503030060000100000000000000018508000000000000000185089611111111111111111111CONSUMIDOR-FINAL              000000000012200000000000000000000000000000000000000000000000000000000000000000000000000000000000000000000000000000000000PES00010000001 00000000000000000000000
201503030060000100000000000000018509000000000000000185099611111111111111111111CONSUMIDOR-FINAL              000000000028500000000000000000000000000000000000000000000000000000000000000000000000000000000000000000000000000000000000PES00010000001 00000000000000000000000
201503030060000100000000000000018510000000000000000185109611111111111111111111CONSUMIDOR-FINAL              000000000199000000000000000000000000000000000000000000000000000000000000000000000000000000000000000000000000000000000000PES00010000001 00000000000000000000000
201503030060000100000000000000018511000000000000000185119611111111111111111111CONSUMIDOR-FINAL              000000000013500000000000000000000000000000000000000000000000000000000000000000000000000000000000000000000000000000000000PES00010000001 00000000000000000000000
201503030060000100000000000000018512000000000000000185129611111111111111111111CONSUMIDOR-FINAL              000000000023500000000000000000000000000000000000000000000000000000000000000000000000000000000000000000000000000000000000PES00010000001 00000000000000000000000
201503040060000100000000000000018513000000000000000185139611111111111111111111CONSUMIDOR-FINAL              000000000103500000000000000000000000000000000000000000000000000000000000000000000000000000000000000000000000000000000000PES00010000001 00000000000000000000000
201503040060000100000000000000018514000000000000000185149611111111111111111111CONSUMIDOR-FINAL              000000000064500000000000000000000000000000000000000000000000000000000000000000000000000000000000000000000000000000000000PES00010000001 00000000000000000000000
201503040060000100000000000000018515000000000000000185159611111111111111111111CONSUMIDOR-FINAL              000000000030000000000000000000000000000000000000000000000000000000000000000000000000000000000000000000000000000000000000PES00010000001 00000000000000000000000
201503040060000100000000000000018516000000000000000185169611111111111111111111CONSUMIDOR-FINAL              000000000032500000000000000000000000000000000000000000000000000000000000000000000000000000000000000000000000000000000000PES00010000001 00000000000000000000000
201503040060000100000000000000018517000000000000000185179611111111111111111111CONSUMIDOR-FINAL              000000000044000000000000000000000000000000000000000000000000000000000000000000000000000000000000000000000000000000000000PES00010000001 00000000000000000000000
201503040060000100000000000000018518000000000000000185189611111111111111111111CONSUMIDOR-FINAL              000000000057700000000000000000000000000000000000000000000000000000000000000000000000000000000000000000000000000000000000PES00010000001 00000000000000000000000
201503040060000100000000000000018519000000000000000185199611111111111111111111CONSUMIDOR-FINAL              000000000026000000000000000000000000000000000000000000000000000000000000000000000000000000000000000000000000000000000000PES00010000001 00000000000000000000000
201503040060000100000000000000018520000000000000000185209611111111111111111111CONSUMIDOR-FINAL              000000000045600000000000000000000000000000000000000000000000000000000000000000000000000000000000000000000000000000000000PES00010000001 00000000000000000000000
201503040060000100000000000000018521000000000000000185219611111111111111111111CONSUMIDOR-FINAL              000000000086500000000000000000000000000000000000000000000000000000000000000000000000000000000000000000000000000000000000PES00010000001 00000000000000000000000
201503040060000100000000000000018522000000000000000185229611111111111111111111CONSUMIDOR-FINAL              000000000010500000000000000000000000000000000000000000000000000000000000000000000000000000000000000000000000000000000000PES00010000001 00000000000000000000000
201503040060000100000000000000018523000000000000000185239611111111111111111111CONSUMIDOR-FINAL              000000000015500000000000000000000000000000000000000000000000000000000000000000000000000000000000000000000000000000000000PES00010000001 00000000000000000000000
201503040010000100000000000000000912000000000000000009128000000000020280553450BARRIA-GALLARDO-PATRICIO      000000000110000000000000000000000000000000000000000000000000000000000000000000000000000000000000000000000000000000000000PES00010000001 00000000000000000000000
201503040010000100000000000000000913000000000000000009138000000000020280553450BARRIA-GALLARDO-PATRICIO      000000000007700000000000000000000000000000000000000000000000000000000000000000000000000000000000000000000000000000000000PES00010000001 00000000000000000000000
201503040060000100000000000000018524000000000000000185249611111111111111111111CONSUMIDOR-FINAL              000000000035500000000000000000000000000000000000000000000000000000000000000000000000000000000000000000000000000000000000PES00010000001 00000000000000000000000
201503040060000100000000000000018525000000000000000185259611111111111111111111CONSUMIDOR-FINAL              000000000028000000000000000000000000000000000000000000000000000000000000000000000000000000000000000000000000000000000000PES00010000001 00000000000000000000000
201503040060000100000000000000018526000000000000000185269611111111111111111111CONSUMIDOR-FINAL              000000000016000000000000000000000000000000000000000000000000000000000000000000000000000000000000000000000000000000000000PES00010000001 00000000000000000000000
201503040060000100000000000000018527000000000000000185279611111111111111111111CONSUMIDOR-FINAL              000000000058500000000000000000000000000000000000000000000000000000000000000000000000000000000000000000000000000000000000PES00010000001 00000000000000000000000
201503050060000100000000000000018528000000000000000185289611111111111111111111CONSUMIDOR-FINAL              000000000018000000000000000000000000000000000000000000000000000000000000000000000000000000000000000000000000000000000000PES00010000001 00000000000000000000000
201503050060000100000000000000018529000000000000000185299611111111111111111111CONSUMIDOR-FINAL              000000000140000000000000000000000000000000000000000000000000000000000000000000000000000000000000000000000000000000000000PES00010000001 00000000000000000000000
201503050060000100000000000000018530000000000000000185309611111111111111111111CONSUMIDOR-FINAL              000000000004800000000000000000000000000000000000000000000000000000000000000000000000000000000000000000000000000000000000PES00010000001 00000000000000000000000
201503050060000100000000000000018531000000000000000185319611111111111111111111CONSUMIDOR-FINAL              000000000097500000000000000000000000000000000000000000000000000000000000000000000000000000000000000000000000000000000000PES00010000001 00000000000000000000000
201503050060000100000000000000018533000000000000000185339611111111111111111111CONSUMIDOR-FINAL              000000000232700000000000000000000000000000000000000000000000000000000000000000000000000000000000000000000000000000000000PES00010000001 00000000000000000000000
201503050060000100000000000000018534000000000000000185349611111111111111111111CONSUMIDOR-FINAL              000000000034800000000000000000000000000000000000000000000000000000000000000000000000000000000000000000000000000000000000PES00010000001 00000000000000000000000
201503050060000100000000000000018535000000000000000185359611111111111111111111CONSUMIDOR-FINAL              000000000042000000000000000000000000000000000000000000000000000000000000000000000000000000000000000000000000000000000000PES00010000001 00000000000000000000000
201503050060000100000000000000018536000000000000000185369611111111111111111111CONSUMIDOR-FINAL              000000000136500000000000000000000000000000000000000000000000000000000000000000000000000000000000000000000000000000000000PES00010000001 00000000000000000000000
201503050060000100000000000000018537000000000000000185379611111111111111111111CONSUMIDOR-FINAL              000000000028500000000000000000000000000000000000000000000000000000000000000000000000000000000000000000000000000000000000PES00010000001 00000000000000000000000
201503060060000100000000000000018538000000000000000185389611111111111111111111CONSUMIDOR-FINAL              000000000056300000000000000000000000000000000000000000000000000000000000000000000000000000000000000000000000000000000000PES00010000001 00000000000000000000000
201503060060000100000000000000018539000000000000000185399611111111111111111111CONSUMIDOR-FINAL              000000000037500000000000000000000000000000000000000000000000000000000000000000000000000000000000000000000000000000000000PES00010000001 00000000000000000000000
201503060060000100000000000000018540000000000000000185409611111111111111111111CONSUMIDOR-FINAL              000000000049500000000000000000000000000000000000000000000000000000000000000000000000000000000000000000000000000000000000PES00010000001 00000000000000000000000
201503060010000100000000000000000914000000000000000009148000000000020140752739ENRIQUE-EDUARDO-VERDE         000000000110000000000000000000000000000000000000000000000000000000000000000000000000000000000000000000000000000000000000PES00010000001 00000000000000000000000
201503060060000100000000000000018541000000000000000185419611111111111111111111CONSUMIDOR-FINAL              000000000019000000000000000000000000000000000000000000000000000000000000000000000000000000000000000000000000000000000000PES00010000001 00000000000000000000000
201503060060000100000000000000018542000000000000000185429611111111111111111111CONSUMIDOR-FINAL              000000000027000000000000000000000000000000000000000000000000000000000000000000000000000000000000000000000000000000000000PES00010000001 00000000000000000000000
201503060060000100000000000000018543000000000000000185439611111111111111111111CONSUMIDOR-FINAL              000000000028500000000000000000000000000000000000000000000000000000000000000000000000000000000000000000000000000000000000PES00010000001 00000000000000000000000
201503060060000100000000000000018544000000000000000185449611111111111111111111CONSUMIDOR-FINAL              000000000069500000000000000000000000000000000000000000000000000000000000000000000000000000000000000000000000000000000000PES00010000001 00000000000000000000000
201503060060000100000000000000018545000000000000000185459611111111111111111111CONSUMIDOR-FINAL              000000000015000000000000000000000000000000000000000000000000000000000000000000000000000000000000000000000000000000000000PES00010000001 00000000000000000000000
201503060060000100000000000000018546000000000000000185469611111111111111111111CONSUMIDOR-FINAL              000000000029500000000000000000000000000000000000000000000000000000000000000000000000000000000000000000000000000000000000PES00010000001 00000000000000000000000
201503060060000100000000000000018547000000000000000185479611111111111111111111CONSUMIDOR-FINAL              000000000015500000000000000000000000000000000000000000000000000000000000000000000000000000000000000000000000000000000000PES00010000001 00000000000000000000000
201503060060000100000000000000018548000000000000000185489611111111111111111111CONSUMIDOR-FINAL              000000000021500000000000000000000000000000000000000000000000000000000000000000000000000000000000000000000000000000000000PES00010000001 00000000000000000000000
201503060060000100000000000000018549000000000000000185499611111111111111111111CONSUMIDOR-FINAL              000000000057500000000000000000000000000000000000000000000000000000000000000000000000000000000000000000000000000000000000PES00010000001 00000000000000000000000
201503060060000100000000000000018550000000000000000185509611111111111111111111CONSUMIDOR-FINAL              000000000158300000000000000000000000000000000000000000000000000000000000000000000000000000000000000000000000000000000000PES00010000001 00000000000000000000000
201503060060000100000000000000018551000000000000000185519611111111111111111111CONSUMIDOR-FINAL              000000000027000000000000000000000000000000000000000000000000000000000000000000000000000000000000000000000000000000000000PES00010000001 00000000000000000000000
201503060060000100000000000000018552000000000000000185529611111111111111111111CONSUMIDOR-FINAL              000000000011500000000000000000000000000000000000000000000000000000000000000000000000000000000000000000000000000000000000PES00010000001 00000000000000000000000
201503060060000100000000000000018553000000000000000185539611111111111111111111CONSUMIDOR-FINAL              000000000013500000000000000000000000000000000000000000000000000000000000000000000000000000000000000000000000000000000000PES00010000001 00000000000000000000000
201503060060000100000000000000018554000000000000000185549611111111111111111111CONSUMIDOR-FINAL              000000000139000000000000000000000000000000000000000000000000000000000000000000000000000000000000000000000000000000000000PES00010000001 00000000000000000000000
201503070060000100000000000000018555000000000000000185559611111111111111111111CONSUMIDOR-FINAL              000000000037500000000000000000000000000000000000000000000000000000000000000000000000000000000000000000000000000000000000PES00010000001 00000000000000000000000
201503070060000100000000000000018556000000000000000185569611111111111111111111CONSUMIDOR-FINAL              000000000019300000000000000000000000000000000000000000000000000000000000000000000000000000000000000000000000000000000000PES00010000001 00000000000000000000000
201503070060000100000000000000018557000000000000000185579611111111111111111111CONSUMIDOR-FINAL              000000000018400000000000000000000000000000000000000000000000000000000000000000000000000000000000000000000000000000000000PES00010000001 00000000000000000000000
201503070060000100000000000000018558000000000000000185589611111111111111111111CONSUMIDOR-FINAL              000000000035000000000000000000000000000000000000000000000000000000000000000000000000000000000000000000000000000000000000PES00010000001 00000000000000000000000
201503070060000100000000000000018559000000000000000185599611111111111111111111CONSUMIDOR-FINAL              000000000068000000000000000000000000000000000000000000000000000000000000000000000000000000000000000000000000000000000000PES00010000001 00000000000000000000000
201503070060000100000000000000018560000000000000000185609611111111111111111111CONSUMIDOR-FINAL              000000000017000000000000000000000000000000000000000000000000000000000000000000000000000000000000000000000000000000000000PES00010000001 00000000000000000000000
201503070060000100000000000000018561000000000000000185619611111111111111111111CONSUMIDOR-FINAL              000000000030000000000000000000000000000000000000000000000000000000000000000000000000000000000000000000000000000000000000PES00010000001 00000000000000000000000
201503070060000100000000000000018562000000000000000185629611111111111111111111CONSUMIDOR-FINAL              000000000146500000000000000000000000000000000000000000000000000000000000000000000000000000000000000000000000000000000000PES00010000001 00000000000000000000000
201503070060000100000000000000018563000000000000000185639611111111111111111111CONSUMIDOR-FINAL              000000000033900000000000000000000000000000000000000000000000000000000000000000000000000000000000000000000000000000000000PES00010000001 00000000000000000000000
201503070060000100000000000000018564000000000000000185649611111111111111111111CONSUMIDOR-FINAL              000000000024000000000000000000000000000000000000000000000000000000000000000000000000000000000000000000000000000000000000PES00010000001 00000000000000000000000
201503070060000100000000000000018565000000000000000185659611111111111111111111CONSUMIDOR-FINAL              000000000079700000000000000000000000000000000000000000000000000000000000000000000000000000000000000000000000000000000000PES00010000001 00000000000000000000000
201503070060000100000000000000018566000000000000000185669611111111111111111111CONSUMIDOR-FINAL              000000000137700000000000000000000000000000000000000000000000000000000000000000000000000000000000000000000000000000000000PES00010000001 00000000000000000000000
201503070060000100000000000000018567000000000000000185679611111111111111111111CONSUMIDOR-FINAL              000000000037300000000000000000000000000000000000000000000000000000000000000000000000000000000000000000000000000000000000PES00010000001 00000000000000000000000
201503070060000100000000000000018568000000000000000185689611111111111111111111CONSUMIDOR-FINAL              000000000095500000000000000000000000000000000000000000000000000000000000000000000000000000000000000000000000000000000000PES00010000001 00000000000000000000000
201503070060000100000000000000018569000000000000000185699611111111111111111111CONSUMIDOR-FINAL              000000000023800000000000000000000000000000000000000000000000000000000000000000000000000000000000000000000000000000000000PES00010000001 00000000000000000000000
201503070060000100000000000000018570000000000000000185709611111111111111111111CONSUMIDOR-FINAL              000000000032000000000000000000000000000000000000000000000000000000000000000000000000000000000000000000000000000000000000PES00010000001 00000000000000000000000
201503070060000100000000000000018571000000000000000185719611111111111111111111CONSUMIDOR-FINAL              000000000009800000000000000000000000000000000000000000000000000000000000000000000000000000000000000000000000000000000000PES00010000001 00000000000000000000000
201503070060000100000000000000018572000000000000000185729611111111111111111111CONSUMIDOR-FINAL              000000000011500000000000000000000000000000000000000000000000000000000000000000000000000000000000000000000000000000000000PES00010000001 00000000000000000000000
201503070060000100000000000000018573000000000000000185739611111111111111111111CONSUMIDOR-FINAL              000000000069500000000000000000000000000000000000000000000000000000000000000000000000000000000000000000000000000000000000PES00010000001 00000000000000000000000
201503070060000100000000000000018574000000000000000185749611111111111111111111CONSUMIDOR-FINAL              000000000026000000000000000000000000000000000000000000000000000000000000000000000000000000000000000000000000000000000000PES00010000001 00000000000000000000000
201503070060000100000000000000018575000000000000000185759611111111111111111111CONSUMIDOR-FINAL              000000000029500000000000000000000000000000000000000000000000000000000000000000000000000000000000000000000000000000000000PES00010000001 00000000000000000000000
201503070060000100000000000000018576000000000000000185769611111111111111111111CONSUMIDOR-FINAL              000000000088500000000000000000000000000000000000000000000000000000000000000000000000000000000000000000000000000000000000PES00010000001 00000000000000000000000
201503070060000100000000000000018577000000000000000185779611111111111111111111CONSUMIDOR-FINAL              000000000084000000000000000000000000000000000000000000000000000000000000000000000000000000000000000000000000000000000000PES00010000001 00000000000000000000000
201503070060000100000000000000018578000000000000000185789611111111111111111111CONSUMIDOR-FINAL              000000000017000000000000000000000000000000000000000000000000000000000000000000000000000000000000000000000000000000000000PES00010000001 00000000000000000000000
201503070060000100000000000000018579000000000000000185799611111111111111111111CONSUMIDOR-FINAL              000000000033000000000000000000000000000000000000000000000000000000000000000000000000000000000000000000000000000000000000PES00010000001 00000000000000000000000
201503070060000100000000000000018580000000000000000185809611111111111111111111CONSUMIDOR-FINAL              000000000036600000000000000000000000000000000000000000000000000000000000000000000000000000000000000000000000000000000000PES00010000001 00000000000000000000000
201503070060000100000000000000018581000000000000000185819611111111111111111111CONSUMIDOR-FINAL              000000000042500000000000000000000000000000000000000000000000000000000000000000000000000000000000000000000000000000000000PES00010000001 00000000000000000000000
201503070060000100000000000000018582000000000000000185829611111111111111111111CONSUMIDOR-FINAL              000000000093700000000000000000000000000000000000000000000000000000000000000000000000000000000000000000000000000000000000PES00010000001 00000000000000000000000
201503070060000100000000000000018583000000000000000185839611111111111111111111CONSUMIDOR-FINAL              000000000034500000000000000000000000000000000000000000000000000000000000000000000000000000000000000000000000000000000000PES00010000001 00000000000000000000000
201503090060000100000000000000018584000000000000000185849611111111111111111111CONSUMIDOR-FINAL              000000000069000000000000000000000000000000000000000000000000000000000000000000000000000000000000000000000000000000000000PES00010000001 00000000000000000000000
201503090060000100000000000000018585000000000000000185859611111111111111111111CONSUMIDOR-FINAL              000000000027000000000000000000000000000000000000000000000000000000000000000000000000000000000000000000000000000000000000PES00010000001 00000000000000000000000
201503090060000100000000000000018586000000000000000185869611111111111111111111CONSUMIDOR-FINAL              000000000007500000000000000000000000000000000000000000000000000000000000000000000000000000000000000000000000000000000000PES00010000001 00000000000000000000000
201503090060000100000000000000018587000000000000000185879611111111111111111111CONSUMIDOR-FINAL              000000000059000000000000000000000000000000000000000000000000000000000000000000000000000000000000000000000000000000000000PES00010000001 00000000000000000000000
201503090060000100000000000000018588000000000000000185889611111111111111111111CONSUMIDOR-FINAL              000000000019000000000000000000000000000000000000000000000000000000000000000000000000000000000000000000000000000000000000PES00010000001 00000000000000000000000
201503090060000100000000000000018589000000000000000185899611111111111111111111CONSUMIDOR-FINAL              000000000044000000000000000000000000000000000000000000000000000000000000000000000000000000000000000000000000000000000000PES00010000001 00000000000000000000000
201503090060000100000000000000018590000000000000000185909611111111111111111111CONSUMIDOR-FINAL              000000000037000000000000000000000000000000000000000000000000000000000000000000000000000000000000000000000000000000000000PES00010000001 00000000000000000000000
201503090060000100000000000000018591000000000000000185919611111111111111111111CONSUMIDOR-FINAL              000000000044500000000000000000000000000000000000000000000000000000000000000000000000000000000000000000000000000000000000PES00010000001 00000000000000000000000
201503090060000100000000000000018592000000000000000185929611111111111111111111CONSUMIDOR-FINAL              000000000000100000000000000000000000000000000000000000000000000000000000000000000000000000000000000000000000000000000000PES00010000001 00000000000000000000000
201503090060000100000000000000018593000000000000000185939611111111111111111111CONSUMIDOR-FINAL              000000000009500000000000000000000000000000000000000000000000000000000000000000000000000000000000000000000000000000000000PES00010000001 00000000000000000000000
201503100060000100000000000000018594000000000000000185949611111111111111111111CONSUMIDOR-FINAL              000000000026400000000000000000000000000000000000000000000000000000000000000000000000000000000000000000000000000000000000PES00010000001 00000000000000000000000
201503100010000100000000000000000915000000000000000009158000000000030660920451GRUAS-SAN-BLAS-SA             000000000035500000000000000000000000000000000000000000000000000000000000000000000000000000000000000000000000000000000000PES00010000001 00000000000000000000000
201503100060000100000000000000018595000000000000000185959611111111111111111111CONSUMIDOR-FINAL              000000000009500000000000000000000000000000000000000000000000000000000000000000000000000000000000000000000000000000000000PES00010000001 00000000000000000000000
201503100010000100000000000000000916000000000000000009168000000000020160017660DANIEL-FORCHIACCIN            000000000053000000000000000000000000000000000000000000000000000000000000000000000000000000000000000000000000000000000000PES00010000001 00000000000000000000000
201503100060000100000000000000018596000000000000000185969611111111111111111111CONSUMIDOR-FINAL              000000000037000000000000000000000000000000000000000000000000000000000000000000000000000000000000000000000000000000000000PES00010000001 00000000000000000000000
201503100060000100000000000000018597000000000000000185979611111111111111111111CONSUMIDOR-FINAL              000000000043900000000000000000000000000000000000000000000000000000000000000000000000000000000000000000000000000000000000PES00010000001 00000000000000000000000
201503100060000100000000000000018598000000000000000185989611111111111111111111CONSUMIDOR-FINAL              000000000174900000000000000000000000000000000000000000000000000000000000000000000000000000000000000000000000000000000000PES00010000001 00000000000000000000000
201503100060000100000000000000018599000000000000000185999611111111111111111111CONSUMIDOR-FINAL              000000000015000000000000000000000000000000000000000000000000000000000000000000000000000000000000000000000000000000000000PES00010000001 00000000000000000000000
201503100060000100000000000000018600000000000000000186009611111111111111111111CONSUMIDOR-FINAL              000000000033000000000000000000000000000000000000000000000000000000000000000000000000000000000000000000000000000000000000PES00010000001 00000000000000000000000
201503100060000100000000000000018601000000000000000186019611111111111111111111CONSUMIDOR-FINAL              000000000058000000000000000000000000000000000000000000000000000000000000000000000000000000000000000000000000000000000000PES00010000001 00000000000000000000000
201503100060000100000000000000018602000000000000000186029611111111111111111111CONSUMIDOR-FINAL              000000000049500000000000000000000000000000000000000000000000000000000000000000000000000000000000000000000000000000000000PES00010000001 00000000000000000000000
201503100060000100000000000000018603000000000000000186039611111111111111111111CONSUMIDOR-FINAL              000000000068700000000000000000000000000000000000000000000000000000000000000000000000000000000000000000000000000000000000PES00010000001 00000000000000000000000
201503100060000100000000000000018604000000000000000186049611111111111111111111CONSUMIDOR-FINAL              000000000033000000000000000000000000000000000000000000000000000000000000000000000000000000000000000000000000000000000000PES00010000001 00000000000000000000000
201503100060000100000000000000018605000000000000000186059611111111111111111111CONSUMIDOR-FINAL              000000000022500000000000000000000000000000000000000000000000000000000000000000000000000000000000000000000000000000000000PES00010000001 00000000000000000000000
201503100060000100000000000000018606000000000000000186069611111111111111111111CONSUMIDOR-FINAL              000000000048800000000000000000000000000000000000000000000000000000000000000000000000000000000000000000000000000000000000PES00010000001 00000000000000000000000
201503100060000100000000000000018607000000000000000186079611111111111111111111CONSUMIDOR-FINAL              000000000048500000000000000000000000000000000000000000000000000000000000000000000000000000000000000000000000000000000000PES00010000001 00000000000000000000000
201503110060000100000000000000018608000000000000000186089611111111111111111111CONSUMIDOR-FINAL              000000000028000000000000000000000000000000000000000000000000000000000000000000000000000000000000000000000000000000000000PES00010000001 00000000000000000000000
201503110060000100000000000000018609000000000000000186099611111111111111111111CONSUMIDOR-FINAL              000000000158300000000000000000000000000000000000000000000000000000000000000000000000000000000000000000000000000000000000PES00010000001 00000000000000000000000
201503110060000100000000000000018610000000000000000186109611111111111111111111CONSUMIDOR-FINAL              000000000066500000000000000000000000000000000000000000000000000000000000000000000000000000000000000000000000000000000000PES00010000001 00000000000000000000000
201503110060000100000000000000018611000000000000000186119611111111111111111111CONSUMIDOR-FINAL              000000000022500000000000000000000000000000000000000000000000000000000000000000000000000000000000000000000000000000000000PES00010000001 00000000000000000000000
201503110060000100000000000000018612000000000000000186129611111111111111111111CONSUMIDOR-FINAL              000000000044000000000000000000000000000000000000000000000000000000000000000000000000000000000000000000000000000000000000PES00010000001 00000000000000000000000
201503110060000100000000000000018613000000000000000186139611111111111111111111CONSUMIDOR-FINAL              000000000061400000000000000000000000000000000000000000000000000000000000000000000000000000000000000000000000000000000000PES00010000001 00000000000000000000000
201503110060000100000000000000018614000000000000000186149611111111111111111111CONSUMIDOR-FINAL              000000000062000000000000000000000000000000000000000000000000000000000000000000000000000000000000000000000000000000000000PES00010000001 00000000000000000000000
201503110060000100000000000000018615000000000000000186159611111111111111111111CONSUMIDOR-FINAL              000000000143500000000000000000000000000000000000000000000000000000000000000000000000000000000000000000000000000000000000PES00010000001 00000000000000000000000
201503110060000100000000000000018616000000000000000186169611111111111111111111CONSUMIDOR-FINAL              000000000033000000000000000000000000000000000000000000000000000000000000000000000000000000000000000000000000000000000000PES00010000001 00000000000000000000000
201503110060000100000000000000018617000000000000000186179611111111111111111111CONSUMIDOR-FINAL              000000000027800000000000000000000000000000000000000000000000000000000000000000000000000000000000000000000000000000000000PES00010000001 00000000000000000000000
201503110060000100000000000000018618000000000000000186189611111111111111111111CONSUMIDOR-FINAL              000000000026900000000000000000000000000000000000000000000000000000000000000000000000000000000000000000000000000000000000PES00010000001 00000000000000000000000
201503110060000100000000000000018619000000000000000186199611111111111111111111CONSUMIDOR-FINAL              000000000033500000000000000000000000000000000000000000000000000000000000000000000000000000000000000000000000000000000000PES00010000001 00000000000000000000000
201503110060000100000000000000018620000000000000000186209611111111111111111111CONSUMIDOR-FINAL              000000000044100000000000000000000000000000000000000000000000000000000000000000000000000000000000000000000000000000000000PES00010000001 00000000000000000000000
201503110060000100000000000000018621000000000000000186219611111111111111111111CONSUMIDOR-FINAL              000000000009800000000000000000000000000000000000000000000000000000000000000000000000000000000000000000000000000000000000PES00010000001 00000000000000000000000
201503110060000100000000000000018622000000000000000186229611111111111111111111CONSUMIDOR-FINAL              000000000027500000000000000000000000000000000000000000000000000000000000000000000000000000000000000000000000000000000000PES00010000001 00000000000000000000000
201503110010000100000000000000000917000000000000000009178000000000027176229492GANGA-MARIA                   000000000040000000000000000000000000000000000000000000000000000000000000000000000000000000000000000000000000000000000000PES00010000001 00000000000000000000000
201503110060000100000000000000018623000000000000000186239611111111111111111111CONSUMIDOR-FINAL              000000000125000000000000000000000000000000000000000000000000000000000000000000000000000000000000000000000000000000000000PES00010000001 00000000000000000000000
201503110060000100000000000000018624000000000000000186249611111111111111111111CONSUMIDOR-FINAL              000000000070000000000000000000000000000000000000000000000000000000000000000000000000000000000000000000000000000000000000PES00010000001 00000000000000000000000
201503110060000100000000000000018625000000000000000186259611111111111111111111CONSUMIDOR-FINAL              000000000023500000000000000000000000000000000000000000000000000000000000000000000000000000000000000000000000000000000000PES00010000001 00000000000000000000000
201503110060000100000000000000018626000000000000000186269611111111111111111111CONSUMIDOR-FINAL              000000000024700000000000000000000000000000000000000000000000000000000000000000000000000000000000000000000000000000000000PES00010000001 00000000000000000000000
201503110060000100000000000000018627000000000000000186279611111111111111111111CONSUMIDOR-FINAL              000000000051500000000000000000000000000000000000000000000000000000000000000000000000000000000000000000000000000000000000PES00010000001 00000000000000000000000
201503120060000100000000000000018628000000000000000186289611111111111111111111CONSUMIDOR-FINAL              000000000058000000000000000000000000000000000000000000000000000000000000000000000000000000000000000000000000000000000000PES00010000001 00000000000000000000000
201503120060000100000000000000018629000000000000000186299611111111111111111111CONSUMIDOR-FINAL              000000000016500000000000000000000000000000000000000000000000000000000000000000000000000000000000000000000000000000000000PES00010000001 00000000000000000000000
201503120060000100000000000000018630000000000000000186309611111111111111111111CONSUMIDOR-FINAL              000000000050000000000000000000000000000000000000000000000000000000000000000000000000000000000000000000000000000000000000PES00010000001 00000000000000000000000
201503120060000100000000000000018631000000000000000186319611111111111111111111CONSUMIDOR-FINAL              000000000054400000000000000000000000000000000000000000000000000000000000000000000000000000000000000000000000000000000000PES00010000001 00000000000000000000000
201503120060000100000000000000018632000000000000000186329611111111111111111111CONSUMIDOR-FINAL              000000000067000000000000000000000000000000000000000000000000000000000000000000000000000000000000000000000000000000000000PES00010000001 00000000000000000000000
201503120060000100000000000000018633000000000000000186339611111111111111111111CONSUMIDOR-FINAL              000000000037500000000000000000000000000000000000000000000000000000000000000000000000000000000000000000000000000000000000PES00010000001 00000000000000000000000
201503120060000100000000000000018634000000000000000186349611111111111111111111CONSUMIDOR-FINAL              000000000032500000000000000000000000000000000000000000000000000000000000000000000000000000000000000000000000000000000000PES00010000001 00000000000000000000000
201503120060000100000000000000018635000000000000000186359611111111111111111111CONSUMIDOR-FINAL              000000000168000000000000000000000000000000000000000000000000000000000000000000000000000000000000000000000000000000000000PES00010000001 00000000000000000000000
201503120060000100000000000000018636000000000000000186369611111111111111111111CONSUMIDOR-FINAL              000000000029300000000000000000000000000000000000000000000000000000000000000000000000000000000000000000000000000000000000PES00010000001 00000000000000000000000
201503120060000100000000000000018637000000000000000186379611111111111111111111CONSUMIDOR-FINAL              000000000115000000000000000000000000000000000000000000000000000000000000000000000000000000000000000000000000000000000000PES00010000001 00000000000000000000000
201503120060000100000000000000018638000000000000000186389611111111111111111111CONSUMIDOR-FINAL              000000000088000000000000000000000000000000000000000000000000000000000000000000000000000000000000000000000000000000000000PES00010000001 00000000000000000000000
201503120060000100000000000000018639000000000000000186399611111111111111111111CONSUMIDOR-FINAL              000000000034800000000000000000000000000000000000000000000000000000000000000000000000000000000000000000000000000000000000PES00010000001 00000000000000000000000
201503120060000100000000000000018640000000000000000186409611111111111111111111CONSUMIDOR-FINAL              000000000081300000000000000000000000000000000000000000000000000000000000000000000000000000000000000000000000000000000000PES00010000001 00000000000000000000000
201503120060000100000000000000018641000000000000000186419611111111111111111111CONSUMIDOR-FINAL              000000000025000000000000000000000000000000000000000000000000000000000000000000000000000000000000000000000000000000000000PES00010000001 00000000000000000000000
201503130060000100000000000000018642000000000000000186429611111111111111111111CONSUMIDOR-FINAL              000000000017500000000000000000000000000000000000000000000000000000000000000000000000000000000000000000000000000000000000PES00010000001 00000000000000000000000
201503130060000100000000000000018643000000000000000186439611111111111111111111CONSUMIDOR-FINAL              000000000109000000000000000000000000000000000000000000000000000000000000000000000000000000000000000000000000000000000000PES00010000001 00000000000000000000000
201503130060000100000000000000018644000000000000000186449611111111111111111111CONSUMIDOR-FINAL              000000000074300000000000000000000000000000000000000000000000000000000000000000000000000000000000000000000000000000000000PES00010000001 00000000000000000000000
201503130060000100000000000000018645000000000000000186459611111111111111111111CONSUMIDOR-FINAL              000000000041000000000000000000000000000000000000000000000000000000000000000000000000000000000000000000000000000000000000PES00010000001 00000000000000000000000
201503130060000100000000000000018646000000000000000186469611111111111111111111CONSUMIDOR-FINAL              000000000109000000000000000000000000000000000000000000000000000000000000000000000000000000000000000000000000000000000000PES00010000001 00000000000000000000000
201503130060000100000000000000018647000000000000000186479611111111111111111111CONSUMIDOR-FINAL              000000000067500000000000000000000000000000000000000000000000000000000000000000000000000000000000000000000000000000000000PES00010000001 00000000000000000000000
201503130060000100000000000000018648000000000000000186489611111111111111111111CONSUMIDOR-FINAL              000000000028500000000000000000000000000000000000000000000000000000000000000000000000000000000000000000000000000000000000PES00010000001 00000000000000000000000
201503130060000100000000000000018649000000000000000186499611111111111111111111CONSUMIDOR-FINAL              000000000022000000000000000000000000000000000000000000000000000000000000000000000000000000000000000000000000000000000000PES00010000001 00000000000000000000000
201503130060000100000000000000018650000000000000000186509611111111111111111111CONSUMIDOR-FINAL              000000000050900000000000000000000000000000000000000000000000000000000000000000000000000000000000000000000000000000000000PES00010000001 00000000000000000000000
201503130060000100000000000000018651000000000000000186519611111111111111111111CONSUMIDOR-FINAL              000000000097500000000000000000000000000000000000000000000000000000000000000000000000000000000000000000000000000000000000PES00010000001 00000000000000000000000
201503140060000100000000000000018652000000000000000186529611111111111111111111CONSUMIDOR-FINAL              000000000055000000000000000000000000000000000000000000000000000000000000000000000000000000000000000000000000000000000000PES00010000001 00000000000000000000000
201503140060000100000000000000018653000000000000000186539611111111111111111111CONSUMIDOR-FINAL              000000000086400000000000000000000000000000000000000000000000000000000000000000000000000000000000000000000000000000000000PES00010000001 00000000000000000000000
201503140060000100000000000000018654000000000000000186549611111111111111111111CONSUMIDOR-FINAL              000000000043000000000000000000000000000000000000000000000000000000000000000000000000000000000000000000000000000000000000PES00010000001 00000000000000000000000
201503140060000100000000000000018655000000000000000186559611111111111111111111CONSUMIDOR-FINAL              000000000411500000000000000000000000000000000000000000000000000000000000000000000000000000000000000000000000000000000000PES00010000001 00000000000000000000000
201503140060000100000000000000018656000000000000000186569611111111111111111111CONSUMIDOR-FINAL              000000000110200000000000000000000000000000000000000000000000000000000000000000000000000000000000000000000000000000000000PES00010000001 00000000000000000000000
201503140060000100000000000000018657000000000000000186579611111111111111111111CONSUMIDOR-FINAL              000000000021300000000000000000000000000000000000000000000000000000000000000000000000000000000000000000000000000000000000PES00010000001 00000000000000000000000
201503140060000100000000000000018658000000000000000186589611111111111111111111CONSUMIDOR-FINAL              000000000082000000000000000000000000000000000000000000000000000000000000000000000000000000000000000000000000000000000000PES00010000001 00000000000000000000000
201503140060000100000000000000018659000000000000000186599611111111111111111111CONSUMIDOR-FINAL              000000000091100000000000000000000000000000000000000000000000000000000000000000000000000000000000000000000000000000000000PES00010000001 00000000000000000000000
201503140060000100000000000000018660000000000000000186609611111111111111111111CONSUMIDOR-FINAL              000000000070000000000000000000000000000000000000000000000000000000000000000000000000000000000000000000000000000000000000PES00010000001 00000000000000000000000
201503140060000100000000000000018661000000000000000186619611111111111111111111CONSUMIDOR-FINAL              000000000034500000000000000000000000000000000000000000000000000000000000000000000000000000000000000000000000000000000000PES00010000001 00000000000000000000000
201503140060000100000000000000018662000000000000000186629611111111111111111111CONSUMIDOR-FINAL              000000000036000000000000000000000000000000000000000000000000000000000000000000000000000000000000000000000000000000000000PES00010000001 00000000000000000000000
201503140060000100000000000000018663000000000000000186639611111111111111111111CONSUMIDOR-FINAL              000000000009500000000000000000000000000000000000000000000000000000000000000000000000000000000000000000000000000000000000PES00010000001 00000000000000000000000
201503140060000100000000000000018664000000000000000186649611111111111111111111CONSUMIDOR-FINAL              000000000038500000000000000000000000000000000000000000000000000000000000000000000000000000000000000000000000000000000000PES00010000001 00000000000000000000000
201503140060000100000000000000018665000000000000000186659611111111111111111111CONSUMIDOR-FINAL              000000000304900000000000000000000000000000000000000000000000000000000000000000000000000000000000000000000000000000000000PES00010000001 00000000000000000000000
201503140060000100000000000000018666000000000000000186669611111111111111111111CONSUMIDOR-FINAL              000000000090000000000000000000000000000000000000000000000000000000000000000000000000000000000000000000000000000000000000PES00010000001 00000000000000000000000
201503140060000100000000000000018667000000000000000186679611111111111111111111CONSUMIDOR-FINAL              000000000013500000000000000000000000000000000000000000000000000000000000000000000000000000000000000000000000000000000000PES00010000001 00000000000000000000000
201503140060000100000000000000018668000000000000000186689611111111111111111111CONSUMIDOR-FINAL              000000000120500000000000000000000000000000000000000000000000000000000000000000000000000000000000000000000000000000000000PES00010000001 00000000000000000000000
201503140060000100000000000000018669000000000000000186699611111111111111111111CONSUMIDOR-FINAL              000000000037800000000000000000000000000000000000000000000000000000000000000000000000000000000000000000000000000000000000PES00010000001 00000000000000000000000
201503140060000100000000000000018670000000000000000186709611111111111111111111CONSUMIDOR-FINAL              000000000060000000000000000000000000000000000000000000000000000000000000000000000000000000000000000000000000000000000000PES00010000001 00000000000000000000000
201503140060000100000000000000018671000000000000000186719611111111111111111111CONSUMIDOR-FINAL              000000000062500000000000000000000000000000000000000000000000000000000000000000000000000000000000000000000000000000000000PES00010000001 00000000000000000000000
201503140060000100000000000000018672000000000000000186729611111111111111111111CONSUMIDOR-FINAL              000000000091300000000000000000000000000000000000000000000000000000000000000000000000000000000000000000000000000000000000PES00010000001 00000000000000000000000
201503140060000100000000000000018673000000000000000186739611111111111111111111CONSUMIDOR-FINAL              000000000063100000000000000000000000000000000000000000000000000000000000000000000000000000000000000000000000000000000000PES00010000001 00000000000000000000000
201503140060000100000000000000018674000000000000000186749611111111111111111111CONSUMIDOR-FINAL              000000000070500000000000000000000000000000000000000000000000000000000000000000000000000000000000000000000000000000000000PES00010000001 00000000000000000000000
201503140060000100000000000000018675000000000000000186759611111111111111111111CONSUMIDOR-FINAL              000000000039000000000000000000000000000000000000000000000000000000000000000000000000000000000000000000000000000000000000PES00010000001 00000000000000000000000
201503140060000100000000000000018676000000000000000186769611111111111111111111CONSUMIDOR-FINAL              000000000100700000000000000000000000000000000000000000000000000000000000000000000000000000000000000000000000000000000000PES00010000001 00000000000000000000000
201503140060000100000000000000018677000000000000000186779611111111111111111111CONSUMIDOR-FINAL              000000000037500000000000000000000000000000000000000000000000000000000000000000000000000000000000000000000000000000000000PES00010000001 00000000000000000000000
201503140060000100000000000000018678000000000000000186789611111111111111111111CONSUMIDOR-FINAL              000000000165000000000000000000000000000000000000000000000000000000000000000000000000000000000000000000000000000000000000PES00010000001 00000000000000000000000
201503140060000100000000000000018679000000000000000186799611111111111111111111CONSUMIDOR-FINAL              000000000089200000000000000000000000000000000000000000000000000000000000000000000000000000000000000000000000000000000000PES00010000001 00000000000000000000000
201503140060000100000000000000018680000000000000000186809611111111111111111111CONSUMIDOR-FINAL              000000000050000000000000000000000000000000000000000000000000000000000000000000000000000000000000000000000000000000000000PES00010000001 00000000000000000000000
201503140060000100000000000000018681000000000000000186819611111111111111111111CONSUMIDOR-FINAL              000000000017000000000000000000000000000000000000000000000000000000000000000000000000000000000000000000000000000000000000PES00010000001 00000000000000000000000
201503140060000100000000000000018682000000000000000186829611111111111111111111CONSUMIDOR-FINAL              000000000038500000000000000000000000000000000000000000000000000000000000000000000000000000000000000000000000000000000000PES00010000001 00000000000000000000000
201503140060000100000000000000018683000000000000000186839611111111111111111111CONSUMIDOR-FINAL              000000000070500000000000000000000000000000000000000000000000000000000000000000000000000000000000000000000000000000000000PES00010000001 00000000000000000000000
201503160060000100000000000000018684000000000000000186849611111111111111111111CONSUMIDOR-FINAL              000000000099000000000000000000000000000000000000000000000000000000000000000000000000000000000000000000000000000000000000PES00010000001 00000000000000000000000
201503160060000100000000000000018685000000000000000186859611111111111111111111CONSUMIDOR-FINAL              000000000047300000000000000000000000000000000000000000000000000000000000000000000000000000000000000000000000000000000000PES00010000001 00000000000000000000000
201503160060000100000000000000018686000000000000000186869611111111111111111111CONSUMIDOR-FINAL              000000000103400000000000000000000000000000000000000000000000000000000000000000000000000000000000000000000000000000000000PES00010000001 00000000000000000000000
201503160060000100000000000000018687000000000000000186879611111111111111111111CONSUMIDOR-FINAL              000000000011500000000000000000000000000000000000000000000000000000000000000000000000000000000000000000000000000000000000PES00010000001 00000000000000000000000
201503160060000100000000000000018688000000000000000186889611111111111111111111CONSUMIDOR-FINAL              000000000009500000000000000000000000000000000000000000000000000000000000000000000000000000000000000000000000000000000000PES00010000001 00000000000000000000000
201503160060000100000000000000018689000000000000000186899611111111111111111111CONSUMIDOR-FINAL              000000000031500000000000000000000000000000000000000000000000000000000000000000000000000000000000000000000000000000000000PES00010000001 00000000000000000000000
201503160060000100000000000000018690000000000000000186909611111111111111111111CONSUMIDOR-FINAL              000000000068800000000000000000000000000000000000000000000000000000000000000000000000000000000000000000000000000000000000PES00010000001 00000000000000000000000
201503160060000100000000000000018691000000000000000186919611111111111111111111CONSUMIDOR-FINAL              000000000030700000000000000000000000000000000000000000000000000000000000000000000000000000000000000000000000000000000000PES00010000001 00000000000000000000000
201503160060000100000000000000018692000000000000000186929611111111111111111111CONSUMIDOR-FINAL              000000000039000000000000000000000000000000000000000000000000000000000000000000000000000000000000000000000000000000000000PES00010000001 00000000000000000000000
201503160060000100000000000000018693000000000000000186939611111111111111111111CONSUMIDOR-FINAL              000000000071000000000000000000000000000000000000000000000000000000000000000000000000000000000000000000000000000000000000PES00010000001 00000000000000000000000
201503160060000100000000000000018694000000000000000186949611111111111111111111CONSUMIDOR-FINAL              000000000042500000000000000000000000000000000000000000000000000000000000000000000000000000000000000000000000000000000000PES00010000001 00000000000000000000000
201503160060000100000000000000018695000000000000000186959611111111111111111111CONSUMIDOR-FINAL              000000000037500000000000000000000000000000000000000000000000000000000000000000000000000000000000000000000000000000000000PES00010000001 00000000000000000000000
201503160060000100000000000000018696000000000000000186969611111111111111111111CONSUMIDOR-FINAL              000000000465700000000000000000000000000000000000000000000000000000000000000000000000000000000000000000000000000000000000PES00010000001 00000000000000000000000
201503160010000100000000000000000918000000000000000009188000000000027260187258ANALIA-FALESCHINI             000000000465700000000000000000000000000000000000000000000000000000000000000000000000000000000000000000000000000000000000PES00010000001 00000000000000000000000
201503160060000100000000000000000025000000000000000000259600000000027260187258ANALIA-FALESCHINI             000000000465700000000000000000000000000000000000000000000000000000000000000000000000000000000000000000000000000000000000PES00010000001 00000000000000000000000
201503170060000100000000000000018697000000000000000186979611111111111111111111CONSUMIDOR-FINAL              000000000034000000000000000000000000000000000000000000000000000000000000000000000000000000000000000000000000000000000000PES00010000001 00000000000000000000000
201503170060000100000000000000018698000000000000000186989611111111111111111111CONSUMIDOR-FINAL              000000000097500000000000000000000000000000000000000000000000000000000000000000000000000000000000000000000000000000000000PES00010000001 00000000000000000000000
201503170060000100000000000000018699000000000000000186999611111111111111111111CONSUMIDOR-FINAL              000000000031000000000000000000000000000000000000000000000000000000000000000000000000000000000000000000000000000000000000PES00010000001 00000000000000000000000
201503170060000100000000000000018700000000000000000187009611111111111111111111CONSUMIDOR-FINAL              000000000054600000000000000000000000000000000000000000000000000000000000000000000000000000000000000000000000000000000000PES00010000001 00000000000000000000000
201503170060000100000000000000018701000000000000000187019611111111111111111111CONSUMIDOR-FINAL              000000000033000000000000000000000000000000000000000000000000000000000000000000000000000000000000000000000000000000000000PES00010000001 00000000000000000000000
201503170060000100000000000000018702000000000000000187029611111111111111111111CONSUMIDOR-FINAL              000000000065500000000000000000000000000000000000000000000000000000000000000000000000000000000000000000000000000000000000PES00010000001 00000000000000000000000
201503170060000100000000000000018703000000000000000187039611111111111111111111CONSUMIDOR-FINAL              000000000011500000000000000000000000000000000000000000000000000000000000000000000000000000000000000000000000000000000000PES00010000001 00000000000000000000000
201503170010000100000000000000000919000000000000000009198000000000027250110745-CRESPO-GABRIELA              000000000020400000000000000000000000000000000000000000000000000000000000000000000000000000000000000000000000000000000000PES00010000001 00000000000000000000000
201503170060000100000000000000018704000000000000000187049611111111111111111111CONSUMIDOR-FINAL              000000000033000000000000000000000000000000000000000000000000000000000000000000000000000000000000000000000000000000000000PES00010000001 00000000000000000000000
201503170010000100000000000000000920000000000000000009208000000000030711532737MAINSTAY-SA                   000000000101500000000000000000000000000000000000000000000000000000000000000000000000000000000000000000000000000000000000PES00010000001 00000000000000000000000
201503170060000100000000000000018705000000000000000187059611111111111111111111CONSUMIDOR-FINAL              000000000015000000000000000000000000000000000000000000000000000000000000000000000000000000000000000000000000000000000000PES00010000001 00000000000000000000000
201503170060000100000000000000018706000000000000000187069611111111111111111111CONSUMIDOR-FINAL              000000000037500000000000000000000000000000000000000000000000000000000000000000000000000000000000000000000000000000000000PES00010000001 00000000000000000000000
201503170060000100000000000000018707000000000000000187079611111111111111111111CONSUMIDOR-FINAL              000000000007200000000000000000000000000000000000000000000000000000000000000000000000000000000000000000000000000000000000PES00010000001 00000000000000000000000
201503180060000100000000000000018708000000000000000187089611111111111111111111CONSUMIDOR-FINAL              000000000039500000000000000000000000000000000000000000000000000000000000000000000000000000000000000000000000000000000000PES00010000001 00000000000000000000000
201503180010000100000000000000000921000000000000000009218000000000027230323491GASCIUNAS-VERONICA            000000000081500000000000000000000000000000000000000000000000000000000000000000000000000000000000000000000000000000000000PES00010000001 00000000000000000000000
201503180060000100000000000000018709000000000000000187099611111111111111111111CONSUMIDOR-FINAL              000000000012500000000000000000000000000000000000000000000000000000000000000000000000000000000000000000000000000000000000PES00010000001 00000000000000000000000
201503180060000100000000000000018710000000000000000187109611111111111111111111CONSUMIDOR-FINAL              000000000015500000000000000000000000000000000000000000000000000000000000000000000000000000000000000000000000000000000000PES00010000001 00000000000000000000000
201503180060000100000000000000018711000000000000000187119611111111111111111111CONSUMIDOR-FINAL              000000000047500000000000000000000000000000000000000000000000000000000000000000000000000000000000000000000000000000000000PES00010000001 00000000000000000000000
201503180060000100000000000000018712000000000000000187129611111111111111111111CONSUMIDOR-FINAL              000000000067500000000000000000000000000000000000000000000000000000000000000000000000000000000000000000000000000000000000PES00010000001 00000000000000000000000
201503180060000100000000000000018713000000000000000187139611111111111111111111CONSUMIDOR-FINAL              000000000016000000000000000000000000000000000000000000000000000000000000000000000000000000000000000000000000000000000000PES00010000001 00000000000000000000000
201503180060000100000000000000018714000000000000000187149611111111111111111111CONSUMIDOR-FINAL              000000000053000000000000000000000000000000000000000000000000000000000000000000000000000000000000000000000000000000000000PES00010000001 00000000000000000000000
201503180060000100000000000000018715000000000000000187159611111111111111111111CONSUMIDOR-FINAL              000000000032500000000000000000000000000000000000000000000000000000000000000000000000000000000000000000000000000000000000PES00010000001 00000000000000000000000
201503180060000100000000000000018716000000000000000187169611111111111111111111CONSUMIDOR-FINAL              000000000011500000000000000000000000000000000000000000000000000000000000000000000000000000000000000000000000000000000000PES00010000001 00000000000000000000000
201503190060000100000000000000018718000000000000000187189611111111111111111111CONSUMIDOR-FINAL              000000000026000000000000000000000000000000000000000000000000000000000000000000000000000000000000000000000000000000000000PES00010000001 00000000000000000000000
201503190060000100000000000000018719000000000000000187199611111111111111111111CONSUMIDOR-FINAL              000000000035000000000000000000000000000000000000000000000000000000000000000000000000000000000000000000000000000000000000PES00010000001 00000000000000000000000
201503190060000100000000000000018720000000000000000187209611111111111111111111CONSUMIDOR-FINAL              000000000013000000000000000000000000000000000000000000000000000000000000000000000000000000000000000000000000000000000000PES00010000001 00000000000000000000000
201503190060000100000000000000018721000000000000000187219611111111111111111111CONSUMIDOR-FINAL              000000000047200000000000000000000000000000000000000000000000000000000000000000000000000000000000000000000000000000000000PES00010000001 00000000000000000000000
201503190060000100000000000000018722000000000000000187229611111111111111111111CONSUMIDOR-FINAL              000000000110300000000000000000000000000000000000000000000000000000000000000000000000000000000000000000000000000000000000PES00010000001 00000000000000000000000
201503190060000100000000000000018723000000000000000187239611111111111111111111CONSUMIDOR-FINAL              000000000027000000000000000000000000000000000000000000000000000000000000000000000000000000000000000000000000000000000000PES00010000001 00000000000000000000000
201503190060000100000000000000018724000000000000000187249611111111111111111111CONSUMIDOR-FINAL              000000000027300000000000000000000000000000000000000000000000000000000000000000000000000000000000000000000000000000000000PES00010000001 00000000000000000000000
201503190060000100000000000000018725000000000000000187259611111111111111111111CONSUMIDOR-FINAL              000000000016000000000000000000000000000000000000000000000000000000000000000000000000000000000000000000000000000000000000PES00010000001 00000000000000000000000
201503190060000100000000000000018726000000000000000187269611111111111111111111CONSUMIDOR-FINAL              000000000087500000000000000000000000000000000000000000000000000000000000000000000000000000000000000000000000000000000000PES00010000001 00000000000000000000000
201503190060000100000000000000018727000000000000000187279611111111111111111111CONSUMIDOR-FINAL              000000000064000000000000000000000000000000000000000000000000000000000000000000000000000000000000000000000000000000000000PES00010000001 00000000000000000000000
201503190060000100000000000000018728000000000000000187289611111111111111111111CONSUMIDOR-FINAL              000000000054000000000000000000000000000000000000000000000000000000000000000000000000000000000000000000000000000000000000PES00010000001 00000000000000000000000
201503190060000100000000000000018729000000000000000187299611111111111111111111CONSUMIDOR-FINAL              000000000231500000000000000000000000000000000000000000000000000000000000000000000000000000000000000000000000000000000000PES00010000001 00000000000000000000000
201503190060000100000000000000018730000000000000000187309611111111111111111111CONSUMIDOR-FINAL              000000000015000000000000000000000000000000000000000000000000000000000000000000000000000000000000000000000000000000000000PES00010000001 00000000000000000000000
201503200060000100000000000000018731000000000000000187319611111111111111111111CONSUMIDOR-FINAL              000000000057500000000000000000000000000000000000000000000000000000000000000000000000000000000000000000000000000000000000PES00010000001 00000000000000000000000
201503200060000100000000000000018732000000000000000187329611111111111111111111CONSUMIDOR-FINAL              000000000037500000000000000000000000000000000000000000000000000000000000000000000000000000000000000000000000000000000000PES00010000001 00000000000000000000000
201503200060000100000000000000018733000000000000000187339611111111111111111111CONSUMIDOR-FINAL              000000000027300000000000000000000000000000000000000000000000000000000000000000000000000000000000000000000000000000000000PES00010000001 00000000000000000000000
201503200060000100000000000000018734000000000000000187349611111111111111111111CONSUMIDOR-FINAL              000000000037500000000000000000000000000000000000000000000000000000000000000000000000000000000000000000000000000000000000PES00010000001 00000000000000000000000
201503200010000100000000000000000922000000000000000009228000000000030709383082RECO-SA                       000000000135000000000000000000000000000000000000000000000000000000000000000000000000000000000000000000000000000000000000PES00010000001 00000000000000000000000
201503200060000100000000000000018735000000000000000187359611111111111111111111CONSUMIDOR-FINAL              000000000025000000000000000000000000000000000000000000000000000000000000000000000000000000000000000000000000000000000000PES00010000001 00000000000000000000000
201503200060000100000000000000018736000000000000000187369611111111111111111111CONSUMIDOR-FINAL              000000000017000000000000000000000000000000000000000000000000000000000000000000000000000000000000000000000000000000000000PES00010000001 00000000000000000000000
201503200060000100000000000000018737000000000000000187379611111111111111111111CONSUMIDOR-FINAL              000000000204200000000000000000000000000000000000000000000000000000000000000000000000000000000000000000000000000000000000PES00010000001 00000000000000000000000
201503200060000100000000000000018738000000000000000187389611111111111111111111CONSUMIDOR-FINAL              000000000014000000000000000000000000000000000000000000000000000000000000000000000000000000000000000000000000000000000000PES00010000001 00000000000000000000000
201503200060000100000000000000018739000000000000000187399611111111111111111111CONSUMIDOR-FINAL              000000000049000000000000000000000000000000000000000000000000000000000000000000000000000000000000000000000000000000000000PES00010000001 00000000000000000000000
201503200060000100000000000000018740000000000000000187409611111111111111111111CONSUMIDOR-FINAL              000000000019800000000000000000000000000000000000000000000000000000000000000000000000000000000000000000000000000000000000PES00010000001 00000000000000000000000
201503200060000100000000000000018741000000000000000187419611111111111111111111CONSUMIDOR-FINAL              000000000113500000000000000000000000000000000000000000000000000000000000000000000000000000000000000000000000000000000000PES00010000001 00000000000000000000000
201503200060000100000000000000018742000000000000000187429611111111111111111111CONSUMIDOR-FINAL              000000000027500000000000000000000000000000000000000000000000000000000000000000000000000000000000000000000000000000000000PES00010000001 00000000000000000000000
201503200060000100000000000000018743000000000000000187439611111111111111111111CONSUMIDOR-FINAL              000000000302200000000000000000000000000000000000000000000000000000000000000000000000000000000000000000000000000000000000PES00010000001 00000000000000000000000
201503200060000100000000000000018744000000000000000187449611111111111111111111CONSUMIDOR-FINAL              000000000027000000000000000000000000000000000000000000000000000000000000000000000000000000000000000000000000000000000000PES00010000001 00000000000000000000000
201503200060000100000000000000018745000000000000000187459611111111111111111111CONSUMIDOR-FINAL              000000000012000000000000000000000000000000000000000000000000000000000000000000000000000000000000000000000000000000000000PES00010000001 00000000000000000000000
201503200060000100000000000000018746000000000000000187469611111111111111111111CONSUMIDOR-FINAL              000000000083500000000000000000000000000000000000000000000000000000000000000000000000000000000000000000000000000000000000PES00010000001 00000000000000000000000
201503200060000100000000000000018747000000000000000187479611111111111111111111CONSUMIDOR-FINAL              000000000045000000000000000000000000000000000000000000000000000000000000000000000000000000000000000000000000000000000000PES00010000001 00000000000000000000000
201503200060000100000000000000018748000000000000000187489611111111111111111111CONSUMIDOR-FINAL              000000000012500000000000000000000000000000000000000000000000000000000000000000000000000000000000000000000000000000000000PES00010000001 00000000000000000000000
201503210060000100000000000000018749000000000000000187499611111111111111111111CONSUMIDOR-FINAL              000000000011500000000000000000000000000000000000000000000000000000000000000000000000000000000000000000000000000000000000PES00010000001 00000000000000000000000
201503210060000100000000000000018750000000000000000187509611111111111111111111CONSUMIDOR-FINAL              000000000095000000000000000000000000000000000000000000000000000000000000000000000000000000000000000000000000000000000000PES00010000001 00000000000000000000000
201503210060000100000000000000018751000000000000000187519611111111111111111111CONSUMIDOR-FINAL              000000000037500000000000000000000000000000000000000000000000000000000000000000000000000000000000000000000000000000000000PES00010000001 00000000000000000000000
201503210060000100000000000000018752000000000000000187529611111111111111111111CONSUMIDOR-FINAL              000000000048000000000000000000000000000000000000000000000000000000000000000000000000000000000000000000000000000000000000PES00010000001 00000000000000000000000
201503210060000100000000000000018753000000000000000187539611111111111111111111CONSUMIDOR-FINAL              000000000017000000000000000000000000000000000000000000000000000000000000000000000000000000000000000000000000000000000000PES00010000001 00000000000000000000000
201503210060000100000000000000018754000000000000000187549611111111111111111111CONSUMIDOR-FINAL              000000000244000000000000000000000000000000000000000000000000000000000000000000000000000000000000000000000000000000000000PES00010000001 00000000000000000000000
201503210060000100000000000000018755000000000000000187559611111111111111111111CONSUMIDOR-FINAL              000000000074000000000000000000000000000000000000000000000000000000000000000000000000000000000000000000000000000000000000PES00010000001 00000000000000000000000
201503210060000100000000000000018756000000000000000187569611111111111111111111CONSUMIDOR-FINAL              000000000072500000000000000000000000000000000000000000000000000000000000000000000000000000000000000000000000000000000000PES00010000001 00000000000000000000000
201503210060000100000000000000018757000000000000000187579611111111111111111111CONSUMIDOR-FINAL              000000000038000000000000000000000000000000000000000000000000000000000000000000000000000000000000000000000000000000000000PES00010000001 00000000000000000000000
201503210060000100000000000000018759000000000000000187599611111111111111111111CONSUMIDOR-FINAL              000000000083400000000000000000000000000000000000000000000000000000000000000000000000000000000000000000000000000000000000PES00010000001 00000000000000000000000
201503210060000100000000000000018760000000000000000187609611111111111111111111CONSUMIDOR-FINAL              000000000015500000000000000000000000000000000000000000000000000000000000000000000000000000000000000000000000000000000000PES00010000001 00000000000000000000000
201503210060000100000000000000018761000000000000000187619611111111111111111111CONSUMIDOR-FINAL              000000000050000000000000000000000000000000000000000000000000000000000000000000000000000000000000000000000000000000000000PES00010000001 00000000000000000000000
201503210060000100000000000000018762000000000000000187629611111111111111111111CONSUMIDOR-FINAL              000000000050500000000000000000000000000000000000000000000000000000000000000000000000000000000000000000000000000000000000PES00010000001 00000000000000000000000
201503210060000100000000000000018763000000000000000187639611111111111111111111CONSUMIDOR-FINAL              000000000164700000000000000000000000000000000000000000000000000000000000000000000000000000000000000000000000000000000000PES00010000001 00000000000000000000000
201503210060000100000000000000018764000000000000000187649611111111111111111111CONSUMIDOR-FINAL              000000000018000000000000000000000000000000000000000000000000000000000000000000000000000000000000000000000000000000000000PES00010000001 00000000000000000000000
201503210010000100000000000000000923000000000000000009238000000000020270200649ROBERTSON-ALEJANDRO           000000000064500000000000000000000000000000000000000000000000000000000000000000000000000000000000000000000000000000000000PES00010000001 00000000000000000000000
201503250060000100000000000000018765000000000000000187659611111111111111111111CONSUMIDOR-FINAL              000000000035500000000000000000000000000000000000000000000000000000000000000000000000000000000000000000000000000000000000PES00010000001 00000000000000000000000
201503250060000100000000000000018766000000000000000187669611111111111111111111CONSUMIDOR-FINAL              000000000115000000000000000000000000000000000000000000000000000000000000000000000000000000000000000000000000000000000000PES00010000001 00000000000000000000000
201503250060000100000000000000018767000000000000000187679611111111111111111111CONSUMIDOR-FINAL              000000000010000000000000000000000000000000000000000000000000000000000000000000000000000000000000000000000000000000000000PES00010000001 00000000000000000000000
201503250060000100000000000000018768000000000000000187689611111111111111111111CONSUMIDOR-FINAL              000000000027500000000000000000000000000000000000000000000000000000000000000000000000000000000000000000000000000000000000PES00010000001 00000000000000000000000
201503250060000100000000000000018769000000000000000187699611111111111111111111CONSUMIDOR-FINAL              000000000030000000000000000000000000000000000000000000000000000000000000000000000000000000000000000000000000000000000000PES00010000001 00000000000000000000000
201503250060000100000000000000018770000000000000000187709611111111111111111111CONSUMIDOR-FINAL              000000000042800000000000000000000000000000000000000000000000000000000000000000000000000000000000000000000000000000000000PES00010000001 00000000000000000000000
201503250060000100000000000000018771000000000000000187719611111111111111111111CONSUMIDOR-FINAL              000000000056500000000000000000000000000000000000000000000000000000000000000000000000000000000000000000000000000000000000PES00010000001 00000000000000000000000
201503250060000100000000000000018772000000000000000187729611111111111111111111CONSUMIDOR-FINAL              000000000054000000000000000000000000000000000000000000000000000000000000000000000000000000000000000000000000000000000000PES00010000001 00000000000000000000000
201503260060000100000000000000018773000000000000000187739611111111111111111111CONSUMIDOR-FINAL              000000000049000000000000000000000000000000000000000000000000000000000000000000000000000000000000000000000000000000000000PES00010000001 00000000000000000000000
201503260060000100000000000000018774000000000000000187749611111111111111111111CONSUMIDOR-FINAL              000000000029500000000000000000000000000000000000000000000000000000000000000000000000000000000000000000000000000000000000PES00010000001 00000000000000000000000
201503260060000100000000000000018775000000000000000187759611111111111111111111CONSUMIDOR-FINAL              000000000063000000000000000000000000000000000000000000000000000000000000000000000000000000000000000000000000000000000000PES00010000001 00000000000000000000000
201503260060000100000000000000018776000000000000000187769611111111111111111111CONSUMIDOR-FINAL              000000000012000000000000000000000000000000000000000000000000000000000000000000000000000000000000000000000000000000000000PES00010000001 00000000000000000000000
201503260060000100000000000000018777000000000000000187779611111111111111111111CONSUMIDOR-FINAL              000000000024500000000000000000000000000000000000000000000000000000000000000000000000000000000000000000000000000000000000PES00010000001 00000000000000000000000
201503260060000100000000000000018778000000000000000187789611111111111111111111CONSUMIDOR-FINAL              000000000025000000000000000000000000000000000000000000000000000000000000000000000000000000000000000000000000000000000000PES00010000001 00000000000000000000000
201503260060000100000000000000018779000000000000000187799611111111111111111111CONSUMIDOR-FINAL              000000000079000000000000000000000000000000000000000000000000000000000000000000000000000000000000000000000000000000000000PES00010000001 00000000000000000000000
201503260060000100000000000000018780000000000000000187809611111111111111111111CONSUMIDOR-FINAL              000000000051000000000000000000000000000000000000000000000000000000000000000000000000000000000000000000000000000000000000PES00010000001 00000000000000000000000
201503260060000100000000000000018781000000000000000187819611111111111111111111CONSUMIDOR-FINAL              000000000137500000000000000000000000000000000000000000000000000000000000000000000000000000000000000000000000000000000000PES00010000001 00000000000000000000000
201503270060000100000000000000018782000000000000000187829611111111111111111111CONSUMIDOR-FINAL              000000000045700000000000000000000000000000000000000000000000000000000000000000000000000000000000000000000000000000000000PES00010000001 00000000000000000000000
201503270060000100000000000000018783000000000000000187839611111111111111111111CONSUMIDOR-FINAL              000000000010500000000000000000000000000000000000000000000000000000000000000000000000000000000000000000000000000000000000PES00010000001 00000000000000000000000
201503270060000100000000000000018784000000000000000187849611111111111111111111CONSUMIDOR-FINAL              000000000038000000000000000000000000000000000000000000000000000000000000000000000000000000000000000000000000000000000000PES00010000001 00000000000000000000000
201503270060000100000000000000018785000000000000000187859611111111111111111111CONSUMIDOR-FINAL              000000000050000000000000000000000000000000000000000000000000000000000000000000000000000000000000000000000000000000000000PES00010000001 00000000000000000000000
201503270060000100000000000000018786000000000000000187869611111111111111111111CONSUMIDOR-FINAL              000000000100000000000000000000000000000000000000000000000000000000000000000000000000000000000000000000000000000000000000PES00010000001 00000000000000000000000
201503270060000100000000000000018787000000000000000187879611111111111111111111CONSUMIDOR-FINAL              000000000041500000000000000000000000000000000000000000000000000000000000000000000000000000000000000000000000000000000000PES00010000001 00000000000000000000000
201503270060000100000000000000018788000000000000000187889611111111111111111111CONSUMIDOR-FINAL              000000000032500000000000000000000000000000000000000000000000000000000000000000000000000000000000000000000000000000000000PES00010000001 00000000000000000000000
201503270060000100000000000000018789000000000000000187899611111111111111111111CONSUMIDOR-FINAL              000000000443000000000000000000000000000000000000000000000000000000000000000000000000000000000000000000000000000000000000PES00010000001 00000000000000000000000
201503270060000100000000000000018790000000000000000187909611111111111111111111CONSUMIDOR-FINAL              000000000032500000000000000000000000000000000000000000000000000000000000000000000000000000000000000000000000000000000000PES00010000001 00000000000000000000000
201503270060000100000000000000018791000000000000000187919611111111111111111111CONSUMIDOR-FINAL              000000000049500000000000000000000000000000000000000000000000000000000000000000000000000000000000000000000000000000000000PES00010000001 00000000000000000000000
201503280060000100000000000000018792000000000000000187929611111111111111111111CONSUMIDOR-FINAL              000000000030000000000000000000000000000000000000000000000000000000000000000000000000000000000000000000000000000000000000PES00010000001 00000000000000000000000
201503280060000100000000000000018793000000000000000187939611111111111111111111CONSUMIDOR-FINAL              000000000030000000000000000000000000000000000000000000000000000000000000000000000000000000000000000000000000000000000000PES00010000001 00000000000000000000000
201503280010000100000000000000000924000000000000000009248000000000020116859638VISICONTE-ALFREDO             000000000099800000000000000000000000000000000000000000000000000000000000000000000000000000000000000000000000000000000000PES00010000001 00000000000000000000000
201503280060000100000000000000018794000000000000000187949611111111111111111111CONSUMIDOR-FINAL              000000000046000000000000000000000000000000000000000000000000000000000000000000000000000000000000000000000000000000000000PES00010000001 00000000000000000000000
201503280060000100000000000000018795000000000000000187959611111111111111111111CONSUMIDOR-FINAL              000000000024000000000000000000000000000000000000000000000000000000000000000000000000000000000000000000000000000000000000PES00010000001 00000000000000000000000
201503280060000100000000000000018796000000000000000187969611111111111111111111CONSUMIDOR-FINAL              000000000083200000000000000000000000000000000000000000000000000000000000000000000000000000000000000000000000000000000000PES00010000001 00000000000000000000000
201503280060000100000000000000018797000000000000000187979611111111111111111111CONSUMIDOR-FINAL              000000000015000000000000000000000000000000000000000000000000000000000000000000000000000000000000000000000000000000000000PES00010000001 00000000000000000000000
201503280060000100000000000000018798000000000000000187989611111111111111111111CONSUMIDOR-FINAL              000000000049500000000000000000000000000000000000000000000000000000000000000000000000000000000000000000000000000000000000PES00010000001 00000000000000000000000
201503280060000100000000000000018799000000000000000187999611111111111111111111CONSUMIDOR-FINAL              000000000255500000000000000000000000000000000000000000000000000000000000000000000000000000000000000000000000000000000000PES00010000001 00000000000000000000000
201503280060000100000000000000018800000000000000000188009611111111111111111111CONSUMIDOR-FINAL              000000000033000000000000000000000000000000000000000000000000000000000000000000000000000000000000000000000000000000000000PES00010000001 00000000000000000000000
201503280060000100000000000000018801000000000000000188019611111111111111111111CONSUMIDOR-FINAL              000000000015000000000000000000000000000000000000000000000000000000000000000000000000000000000000000000000000000000000000PES00010000001 00000000000000000000000
201503280060000100000000000000018802000000000000000188029611111111111111111111CONSUMIDOR-FINAL              000000000020400000000000000000000000000000000000000000000000000000000000000000000000000000000000000000000000000000000000PES00010000001 00000000000000000000000
201503280060000100000000000000018803000000000000000188039611111111111111111111CONSUMIDOR-FINAL              000000000136800000000000000000000000000000000000000000000000000000000000000000000000000000000000000000000000000000000000PES00010000001 00000000000000000000000
201503280060000100000000000000018804000000000000000188049611111111111111111111CONSUMIDOR-FINAL              000000000051100000000000000000000000000000000000000000000000000000000000000000000000000000000000000000000000000000000000PES00010000001 00000000000000000000000
201503280060000100000000000000018805000000000000000188059611111111111111111111CONSUMIDOR-FINAL              000000000023500000000000000000000000000000000000000000000000000000000000000000000000000000000000000000000000000000000000PES00010000001 00000000000000000000000
201503280060000100000000000000018806000000000000000188069611111111111111111111CONSUMIDOR-FINAL              000000000043400000000000000000000000000000000000000000000000000000000000000000000000000000000000000000000000000000000000PES00010000001 00000000000000000000000
201503280060000100000000000000018807000000000000000188079611111111111111111111CONSUMIDOR-FINAL              000000000064500000000000000000000000000000000000000000000000000000000000000000000000000000000000000000000000000000000000PES00010000001 00000000000000000000000
201503280060000100000000000000018808000000000000000188089611111111111111111111CONSUMIDOR-FINAL              000000000219000000000000000000000000000000000000000000000000000000000000000000000000000000000000000000000000000000000000PES00010000001 00000000000000000000000
201503280060000100000000000000018809000000000000000188099611111111111111111111CONSUMIDOR-FINAL              000000000051500000000000000000000000000000000000000000000000000000000000000000000000000000000000000000000000000000000000PES00010000001 00000000000000000000000
201503300060000100000000000000018810000000000000000188109611111111111111111111CONSUMIDOR-FINAL              000000000161000000000000000000000000000000000000000000000000000000000000000000000000000000000000000000000000000000000000PES00010000001 00000000000000000000000
201503300060000100000000000000018811000000000000000188119611111111111111111111CONSUMIDOR-FINAL              000000000063000000000000000000000000000000000000000000000000000000000000000000000000000000000000000000000000000000000000PES00010000001 00000000000000000000000
201503300060000100000000000000018812000000000000000188129611111111111111111111CONSUMIDOR-FINAL              000000000133000000000000000000000000000000000000000000000000000000000000000000000000000000000000000000000000000000000000PES00010000001 00000000000000000000000
201503300060000100000000000000018813000000000000000188139611111111111111111111CONSUMIDOR-FINAL              000000000030200000000000000000000000000000000000000000000000000000000000000000000000000000000000000000000000000000000000PES00010000001 00000000000000000000000
201503300060000100000000000000018814000000000000000188149611111111111111111111CONSUMIDOR-FINAL              000000000042000000000000000000000000000000000000000000000000000000000000000000000000000000000000000000000000000000000000PES00010000001 00000000000000000000000
201503300060000100000000000000018815000000000000000188159611111111111111111111CONSUMIDOR-FINAL              000000000092200000000000000000000000000000000000000000000000000000000000000000000000000000000000000000000000000000000000PES00010000001 00000000000000000000000
201503300060000100000000000000018816000000000000000188169611111111111111111111CONSUMIDOR-FINAL              000000000197900000000000000000000000000000000000000000000000000000000000000000000000000000000000000000000000000000000000PES00010000001 00000000000000000000000
201503300060000100000000000000018817000000000000000188179611111111111111111111CONSUMIDOR-FINAL              000000000233200000000000000000000000000000000000000000000000000000000000000000000000000000000000000000000000000000000000PES00010000001 00000000000000000000000
201503300060000100000000000000018818000000000000000188189611111111111111111111CONSUMIDOR-FINAL              000000000293000000000000000000000000000000000000000000000000000000000000000000000000000000000000000000000000000000000000PES00010000001 00000000000000000000000
201503300060000100000000000000018819000000000000000188199611111111111111111111CONSUMIDOR-FINAL              000000000019000000000000000000000000000000000000000000000000000000000000000000000000000000000000000000000000000000000000PES00010000001 00000000000000000000000
201503300060000100000000000000018820000000000000000188209611111111111111111111CONSUMIDOR-FINAL              000000000013500000000000000000000000000000000000000000000000000000000000000000000000000000000000000000000000000000000000PES00010000001 00000000000000000000000
201503310060000100000000000000018821000000000000000188219611111111111111111111CONSUMIDOR-FINAL              000000000031500000000000000000000000000000000000000000000000000000000000000000000000000000000000000000000000000000000000PES00010000001 00000000000000000000000
201503310060000100000000000000018822000000000000000188229611111111111111111111CONSUMIDOR-FINAL              000000000042500000000000000000000000000000000000000000000000000000000000000000000000000000000000000000000000000000000000PES00010000001 00000000000000000000000
201503310060000100000000000000018823000000000000000188239611111111111111111111CONSUMIDOR-FINAL              000000000079000000000000000000000000000000000000000000000000000000000000000000000000000000000000000000000000000000000000PES00010000001 00000000000000000000000
201503310060000100000000000000018824000000000000000188249611111111111111111111CONSUMIDOR-FINAL              000000000072000000000000000000000000000000000000000000000000000000000000000000000000000000000000000000000000000000000000PES00010000001 00000000000000000000000
201503310060000100000000000000018825000000000000000188259611111111111111111111CONSUMIDOR-FINAL              000000000023000000000000000000000000000000000000000000000000000000000000000000000000000000000000000000000000000000000000PES00010000001 00000000000000000000000
201503310060000100000000000000018826000000000000000188269611111111111111111111CONSUMIDOR-FINAL              000000000596600000000000000000000000000000000000000000000000000000000000000000000000000000000000000000000000000000000000PES00010000001 00000000000000000000000
201503310060000100000000000000018827000000000000000188279611111111111111111111CONSUMIDOR-FINAL              000000000015000000000000000000000000000000000000000000000000000000000000000000000000000000000000000000000000000000000000PES00010000001 00000000000000000000000
201503310060000100000000000000018828000000000000000188289611111111111111111111CONSUMIDOR-FINAL              000000000008500000000000000000000000000000000000000000000000000000000000000000000000000000000000000000000000000000000000PES00010000001 00000000000000000000000
201503310060000100000000000000018829000000000000000188299611111111111111111111CONSUMIDOR-FINAL              000000000016500000000000000000000000000000000000000000000000000000000000000000000000000000000000000000000000000000000000PES00010000001 00000000000000000000000
201503310060000100000000000000018830000000000000000188309611111111111111111111CONSUMIDOR-FINAL              000000000047500000000000000000000000000000000000000000000000000000000000000000000000000000000000000000000000000000000000PES00010000001 00000000000000000000000
201503310060000100000000000000018831000000000000000188319611111111111111111111CONSUMIDOR-FINAL              000000000032500000000000000000000000000000000000000000000000000000000000000000000000000000000000000000000000000000000000PES00010000001 00000000000000000000000
201503310060000100000000000000018832000000000000000188329611111111111111111111CONSUMIDOR-FINAL              000000000048000000000000000000000000000000000000000000000000000000000000000000000000000000000000000000000000000000000000PES00010000001 00000000000000000000000
201503310060000100000000000000018833000000000000000188339611111111111111111111CONSUMIDOR-FINAL              000000000097000000000000000000000000000000000000000000000000000000000000000000000000000000000000000000000000000000000000PES00010000001 00000000000000000000000
201503310060000100000000000000018834000000000000000188349611111111111111111111CONSUMIDOR-FINAL              000000000009500000000000000000000000000000000000000000000000000000000000000000000000000000000000000000000000000000000000PES00010000001 00000000000000000000000
201503310060000100000000000000018835000000000000000188359611111111111111111111CONSUMIDOR-FINAL              000000000045000000000000000000000000000000000000000000000000000000000000000000000000000000000000000000000000000000000000PES00010000001 00000000000000000000000
201503310060000100000000000000018836000000000000000188369611111111111111111111CONSUMIDOR-FINAL              000000000074300000000000000000000000000000000000000000000000000000000000000000000000000000000000000000000000000000000000PES00010000001 00000000000000000000000
201503310060000100000000000000018837000000000000000188379611111111111111111111CONSUMIDOR-FINAL              000000000058000000000000000000000000000000000000000000000000000000000000000000000000000000000000000000000000000000000000PES00010000001 00000000000000000000000
201503310060000100000000000000018838000000000000000188389611111111111111111111CONSUMIDOR-FINAL              000000000144000000000000000000000000000000000000000000000000000000000000000000000000000000000000000000000000000000000000PES00010000001 00000000000000000000000
201503310060000100000000000000018839000000000000000188399611111111111111111111CONSUMIDOR-FINAL              000000000050500000000000000000000000000000000000000000000000000000000000000000000000000000000000000000000000000000000000PES00010000001 00000000000000000000000
201503310060000100000000000000018840000000000000000188409611111111111111111111CONSUMIDOR-FINAL              000000000039000000000000000000000000000000000000000000000000000000000000000000000000000000000000000000000000000000000000PES00010000001 00000000000000000000000
201503310060000100000000000000018841000000000000000188419611111111111111111111CONSUMIDOR-FINAL              000000000017000000000000000000000000000000000000000000000000000000000000000000000000000000000000000000000000000000000000PES00010000001 00000000000000000000000

