201504080010000800000000000000042325                8000000000030545726722SOCIEDAD-COOP-POPULAR-LIM-DE  000000000182901000000000000000000000000000000000000000000000000000000000000000000000000000000000000000000000000000000000PES00010000001000000000000000000000000000000000000000000                              000000000000000
201504100010000100000000000020150313                8000000000030639453975TELEFONICA-DE-ARG-SA          000000000068161000000000000000000000000000000000000000000000000000000000000000000000000000000000000000000000000000000000PES00010000001000000000000000000000000000000000000000000                              000000000000000
201504010010000300000000000000000143                8000000000020222552134GUSTAVO-A-GARCIA              000000000360000000000000000000000000000000000000000000000000000000000000000000000000000000000000000000000000000000000000PES00010000001000000000000000000000000000000000000000000                              000000000000000
201504070010000200000000000000005956                8000000000020126715111ALEJANDRO-LUIS-BUSTOS         000000000025167000000000000000000000000000000000000000000000000000000000000000000000000000000000000000000000000000000000PES00010000001000000000000000000000000000000000000000000                              000000000000000
201504010010000100000000000000002037                8000000000030711190895AUSTRAL-ALARMAS-SRL           000000000030250000000000000000000000000000000000000000000000000000000000000000000000000000000000000000000000000000000000PES00010000001000000000000000000000000000000000000000000                              000000000000000
201504110010000100000000000000001863                8000000000023247772669JORGE-PAULOS-ANTUNES          000000000216000000000000000000000000000000000000000000000000000000000000000000000000000000000000000000000000000000000000PES00010000001000000000000000000000000000000000000000000                              000000000000000
201504090010000100000000000000000006                8000000000030714670618CONDOMINIO-DE-BERSAIS-CESAR-L 000000002662000000000000000000000000000000000000000000000000000000000000000000000000000000000000000000000000000000000000PES00010000001000000000000000000000000000000000000000000                              000000000000000
201504090010000400000000000000001666                8000000000030710397283KALIBU-DECORATION-SA          000000000247929000000000000000000000000000000000000000000000000000000000000000000000000000000000000000000000000000000000PES00010000001000000000000000000000000000000000000000000                              000000000000000
201504010010000200000000000000002645                8000000000030708525436JAVIER-R-BRAIDOT-Y-WALTER-G-  000000002042334000000000000000000000000000000000000000000000000000000000000000000000000000000000000000000000000000000000PES00010000001000000000000000000000000000000000000000000                              000000000000000
201504090010001600000000000000097868                8000000000030599869138LP-SRL                        000000002939120000000000000000000000000000000000000000000000000000000000000000000000000000000000000000000000000000000000PES00010000001000000000000000000000000000000000000000000                              000000000000000
201504160010250600000000000000003528                8000000000030506730038SA-IMPORT-Y-EXPORT-DE-LA-PATAG000000000018935000000000000000000000000000000000000000000000000000000000000000000000000000000000000000000000000000000000PES00010000001000000000000000000000000000000000000000000                              000000000000000
201504160010000400000000000007838132                8000000000030657864427CAMUZZI-GAS-DEL-SUR           000000000006541000000000000000000000000000000000000000000000000000000000000000000000000000000000000000000000000000000000PES00010000001000000000000000000000000000000000000000000                              000000000000000
201504130010000300000000000000029195                8000000000030708273453MISHKA-SA                     000000001145217000000000000000000000000000000000000000000000000000000000000000000000000000000000000000000000000000000000PES00010000001000000000000000000000000000000000000000000                              000000000000000
201504130010000300000000000000029196                8000000000030708273453MISHKA-SA                     000000001542544000000000000000000000000000000000000000000000000000000000000000000000000000000000000000000000000000000000PES00010000001000000000000000000000000000000000000000000                              000000000000000
201504180010001000000000000000001487                8000000000030670288613DISTRIBUIDORA-LOA-SA          000000000102716000000000000000000000000000000000000000000000000000000000000000000000000000000000000000000000000000000000PES00010000001000000000000000000000000000000000000000000                              000000000000000
201504150010000200000000000000004895                8000000000030710405928CRISTAL-HOM-SRL               000000000324903000000000000000000000000000000000000000000000000000000000000000000000000000000000000000000000000000000000PES00010000001000000000000000000000000000000000000000000                              000000000000000
201504150010000100000000000000004706                8000000000027137539700ALEJANDRA-PAULA-HAVILIO       000000005047757000000000000000000000000000000000000000000000000000000000000000000000000000000000000000000000000000000000PES00010000001000000000000000000000000000000000000000000                              000000000000000
201504140010000400000000000000119683                8000000000030708926155TRANSPORTES-UNION-SA          000000000433986000000000000000000000000000000000000000000000000000000000000000000000000000000000000000000000000000000000PES00010000001000000000000000000000000000000000000000000                              000000000000000
201504180010000100000000000000027634                8000000000030707268219CARMINA-SRL                   000000002647911000000000000000000000000000000000000000000000000000000000000000000000000000000000000000000000000000000000PES00010000001000000000000000000000000000000000000000000                              000000000000000
201504180010000100000000000000027635                8000000000030707268219CARMINA-SRL                   000000000553938000000000000000000000000000000000000000000000000000000000000000000000000000000000000000000000000000000000PES00010000001000000000000000000000000000000000000000000                              000000000000000
201504200010005200000000000000025755                8000000000030583210276MERCATOR-SA                   000000000876776000000000000000000000000000000000000000000000000000000000000000000000000000000000000000000000000000000000PES00010000001000000000000000000000000000000000000000000                              000000000000000
201504170010000200000000000000026608                8000000000030710289375FASHION-COOK-SA               000000001700752000000000000000000000000000000000000000000000000000000000000000000000000000000000000000000000000000000000PES00010000001000000000000000000000000000000000000000000                              000000000000000
201504230010000500000000000000003445                8000000000030682647368GRABACOR-SA                   000000000338374000000000000000000000000000000000000000000000000000000000000000000000000000000000000000000000000000000000PES00010000001000000000000000000000000000000000000000000                              000000000000000
201504280010000100000000000000009828                8000000000020161974847FABIAN-GERONIMO               000000000103946000000000000000000000000000000000000000000000000000000000000000000000000000000000000000000000000000000000PES00010000001000000000000000000000000000000000000000000                              000000000000000
201504300010000400000000000000119984                8000000000030708926155TRANSPORTES-UNION-SA          000000000976053000000000000000000000000000000000000000000000000000000000000000000000000000000000000000000000000000000000PES00010000001000000000000000000000000000000000000000000                              000000000000000
201504280010000500000000000000001300                8000000000030707309659ALMAZEN-IMPORT-SRL            000000001783219000000000000000000000000000000000000000000000000000000000000000000000000000000000000000000000000000000000PES00010000001000000000000000000000000000000000000000000                              000000000000000
201504280010000500000000000000001304                8000000000030707309659ALMAZEN-IMPORT-SRL            000000000020449000000000000000000000000000000000000000000000000000000000000000000000000000000000000000000000000000000000PES00010000001000000000000000000000000000000000000000000                              000000000000000
