201607050010001400000000000000001942                8000000000030708926155TRANSPORTES-UNION-SA          000000000346845000000000000000000000000000000000000000000000000000000000000000000000000000000000000000000000000000000000PES00010000001000000000000000000000000000000000000000000                              000000000000000
201607050010000800000000000000109489                8000000000030545726722SOCIEDAD-COOP-POPULAR-LIM-DE  000000000330966000000000000000000000000000000000000000000000000000000000000000000000000000000000000000000000000000000000PES00010000001000000000000000000000000000000000000000000                              000000000000000
201607050010000100000000000020160613                8000000000030639453975TELEFONICA-DE-ARG-SA          000000000104550000000000000000000000000000000000000000000000000000000000000000000000000000000000000000000000000000000000PES00010000001000000000000000000000000000000000000000000                              000000000000000
201607110010000200000000000000001493                8000000000030709516864GENKO-SA                      000000000618443000000000000000000000000000000000000000000000000000000000000000000000000000000000000000000000000000000000PES00010000001000000000000000000000000000000000000000000                              000000000000000
201607110010100100000000000000000183                8000000000027137539700ALEJANDRA-PAULA-HAVILIO       000000005131610000000000000000000000000000000000000000000000000000000000000000000000000000000000000000000000000000000000PES00010000001000000000000000000000000000000000000000000                              000000000000000
201607140010002400000000000000003330                8000000000030670288613DISTRIBUIDORA-LOA-SA          000000000122097000000000000000000000000000000000000000000000000000000000000000000000000000000000000000000000000000000000PES00010000001000000000000000000000000000000000000000000                              000000000000000
201607150010000400000000000000001394                8000000000020126715111ALEJANDRO-LUIS-BUSTOS         000000000005637000000000000000000000000000000000000000000000000000000000000000000000000000000000000000000000000000000000PES00010000001000000000000000000000000000000000000000000                              000000000000000
201607180010001400000000000000002531                8000000000030708926155TRANSPORTES-UNION-SA          000000000769395000000000000000000000000000000000000000000000000000000000000000000000000000000000000000000000000000000000PES00010000001000000000000000000000000000000000000000000                              000000000000000
201607200010000300000000000000000712                8000000000030611800408GECE-SRL                      000000003588013000000000000000000000000000000000000000000000000000000000000000000000000000000000000000000000000000000000PES00010000001000000000000000000000000000000000000000000                              000000000000000
201607210010000100000000000000000021                8000000000030714670618CONDOMINIO-DE-BERSAIS-CESAR-L 000000002662000000000000000000000000000000000000000000000000000000000000000000000000000000000000000000000000000000000000PES00010000001000000000000000000000000000000000000000000                              000000000000000
201607220010000300000000000000003362                8000000000030711190895AUSTRAL-ALARMAS-SRL           000000000043560000000000000000000000000000000000000000000000000000000000000000000000000000000000000000000000000000000000PES00010000001000000000000000000000000000000000000000000                              000000000000000
201607220010000600000000000000000748                8000000000030709170127MOOVE-SRL                     000000000590129000000000000000000000000000000000000000000000000000000000000000000000000000000000000000000000000000000000PES00010000001000000000000000000000000000000000000000000                              000000000000000
201607220010000400000000000000001093                8000000000020129523094BARRIOS-RUBEN-HORACIO         000000001459900000000000000000000000000000000000000000000000000000000000000000000000000000000000000000000000000000000000PES00010000001000000000000000000000000000000000000000000                              000000000000000
201607270010000300000000000000000310                8000000000030708525436JAVIER-R-BRAIDOT-Y-WALTER-G-  000000002167691000000000000000000000000000000000000000000000000000000000000000000000000000000000000000000000000000000000PES00010000001000000000000000000000000000000000000000000                              000000000000000
201607270010000300000000000000000356                8000000000020222552134GUSTAVO-A-GARCIA              000000000530001000000000000000000000000000000000000000000000000000000000000000000000000000000000000000000000000000000000PES00010000001000000000000000000000000000000000000000000                              000000000000000
201607290010001300000000000000000216                8000000000030714370223ZURY-SRL                      000000000531025000000000000000000000000000000000000000000000000000000000000000000000000000000000000000000000000000000000PES00010000001000000000000000000000000000000000000000000                              000000000000000
201607290010000300000000000000011671                8000000000030710215096PELTRINA-SA                   000000001149548000000000000000000000000000000000000000000000000000000000000000000000000000000000000000000000000000000000PES00010000001000000000000000000000000000000000000000000                              000000000000000
