201603010010000100000000000000001157000000000000000011578000000000030523465704ANAFER-SA                     000000000102000000000000000000000000000000000000000000000000000000000000000000000000000000000000000000000000000000000000PES00010000001 00000000000000000000000
201603030010000100000000000000001158000000000000000011588000000000020125939687-GUSTAVO-DIE                  000000000746300000000000000000000000000000000000000000000000000000000000000000000000000000000000000000000000000000000000PES00010000001 00000000000000000000000
201603090010000100000000000000001159000000000000000011598000000000030709817023-FURLO-SRL                    000000000051500000000000000000000000000000000000000000000000000000000000000000000000000000000000000000000000000000000000PES00010000001 00000000000000000000000
201603090010000100000000000000001160000000000000000011608000000000030708117354-ORVE-SRL                     000000000124500000000000000000000000000000000000000000000000000000000000000000000000000000000000000000000000000000000000PES00010000001 00000000000000000000000
201603120010000100000000000000001161000000000000000011618000000000030711006792-30-DE-NOVIEMBRE-SRL          000000000489000000000000000000000000000000000000000000000000000000000000000000000000000000000000000000000000000000000000PES00010000001 00000000000000000000000
201603170010000100000000000000001162000000000000000011628000000000027167572982MONICA-VAZQUEZ-DOS-RAMOS      000000000213500000000000000000000000000000000000000000000000000000000000000000000000000000000000000000000000000000000000PES00010000001 00000000000000000000000
201603170010000100000000000000001163000000000000000011638000000000020167573291OJEDA-LIZANDRO-JORGE          000000000035000000000000000000000000000000000000000000000000000000000000000000000000000000000000000000000000000000000000PES00010000001 00000000000000000000000
201603180010000100000000000000001164000000000000000011648000000000023012008724TEONIA-ZAIRES                 000000000443000000000000000000000000000000000000000000000000000000000000000000000000000000000000000000000000000000000000PES00010000001 00000000000000000000000
201603180010000100000000000000001165000000000000000011658000000000027266172945-MARIANA-BARILLA              000000000064700000000000000000000000000000000000000000000000000000000000000000000000000000000000000000000000000000000000PES00010000001 00000000000000000000000
201603230010000100000000000000001166000000000000000011668000000000020266330767ROJAS-FERNANDO-OSCAR          000000000032500000000000000000000000000000000000000000000000000000000000000000000000000000000000000000000000000000000000PES00010000001 00000000000000000000000
201603280010000100000000000000001167000000000000000011678000000000020329233880PARDO-ANDRES                  000000000151500000000000000000000000000000000000000000000000000000000000000000000000000000000000000000000000000000000000PES00010000001 00000000000000000000000
201603290010000100000000000000001168000000000000000011688000000000020125939687-GUSTAVO-DIE                  000000000180000000000000000000000000000000000000000000000000000000000000000000000000000000000000000000000000000000000000PES00010000001 00000000000000000000000
201603010060000100000000000000013698000000000000000136988000000000030999065593MUNICIPALIDAD-DE-COMODORO-RIVA000000000051600000000000000000000000000000000000000000000000000000000000000000000000000000000000000000000000000000000000PES00010000001 00000000000000000000000
201603100060000100000000000000013699000000000000000136998000000000030999065593MUNICIPALIDAD-DE-COMODORO-RIVA000000000047600000000000000000000000000000000000000000000000000000000000000000000000000000000000000000000000000000000000PES00010000001 00000000000000000000000
201603110060000100000000000000013700000000000000000137008000000000033670466839OFICINA-JUDICIAL              000000000122400000000000000000000000000000000000000000000000000000000000000000000000000000000000000000000000000000000000PES00010000001 00000000000000000000000
201603010060000100000000000000023823000000000000000238239600000000033714143609CENTRO-DE-ESTUDIOS-DIGESTIVOS-000000000097500000000000000000000000000000000000000000000000000000000000000000000000000000000000000000000000000000000000PES00010000001 00000000000000000000000
201603010060000100000000000000023824000000000000000238249600000000033714143609CENTRO-DE-ESTUDIOS-DIGESTIVOS-000000000057500000000000000000000000000000000000000000000000000000000000000000000000000000000000000000000000000000000000PES00010000001 00000000000000000000000
201603010060000100000000000000023825000000000000000238259600000000033714143609CENTRO-DE-ESTUDIOS-DIGESTIVOS-000000000077500000000000000000000000000000000000000000000000000000000000000000000000000000000000000000000000000000000000PES00010000001 00000000000000000000000
201603010060000100000000000000023826000000000000000238269600000000033714143609CENTRO-DE-ESTUDIOS-DIGESTIVOS-000000000039000000000000000000000000000000000000000000000000000000000000000000000000000000000000000000000000000000000000PES00010000001 00000000000000000000000
201603010060000100000000000000023827000000000000000238279600000000033714143609CENTRO-DE-ESTUDIOS-DIGESTIVOS-000000000043100000000000000000000000000000000000000000000000000000000000000000000000000000000000000000000000000000000000PES00010000001 00000000000000000000000
201603010060000100000000000000023828000000000000000238289600000000033714143609CENTRO-DE-ESTUDIOS-DIGESTIVOS-000000000033000000000000000000000000000000000000000000000000000000000000000000000000000000000000000000000000000000000000PES00010000001 00000000000000000000000
201603010060000100000000000000023829000000000000000238299600000000033714143609CENTRO-DE-ESTUDIOS-DIGESTIVOS-000000000046400000000000000000000000000000000000000000000000000000000000000000000000000000000000000000000000000000000000PES00010000001 00000000000000000000000
201603010060000100000000000000023830000000000000000238309600000000033714143609CENTRO-DE-ESTUDIOS-DIGESTIVOS-000000000030300000000000000000000000000000000000000000000000000000000000000000000000000000000000000000000000000000000000PES00010000001 00000000000000000000000
201603010060000100000000000000023831000000000000000238319600000000033714143609CENTRO-DE-ESTUDIOS-DIGESTIVOS-000000000122500000000000000000000000000000000000000000000000000000000000000000000000000000000000000000000000000000000000PES00010000001 00000000000000000000000
201603020060000100000000000000023832000000000000000238329600000000033714143609CENTRO-DE-ESTUDIOS-DIGESTIVOS-000000000032500000000000000000000000000000000000000000000000000000000000000000000000000000000000000000000000000000000000PES00010000001 00000000000000000000000
201603020060000100000000000000023833000000000000000238339600000000033714143609CENTRO-DE-ESTUDIOS-DIGESTIVOS-000000000056500000000000000000000000000000000000000000000000000000000000000000000000000000000000000000000000000000000000PES00010000001 00000000000000000000000
201603020060000100000000000000023834000000000000000238349600000000033714143609CENTRO-DE-ESTUDIOS-DIGESTIVOS-000000000044500000000000000000000000000000000000000000000000000000000000000000000000000000000000000000000000000000000000PES00010000001 00000000000000000000000
201603020060000100000000000000023835000000000000000238359600000000033714143609CENTRO-DE-ESTUDIOS-DIGESTIVOS-000000000025000000000000000000000000000000000000000000000000000000000000000000000000000000000000000000000000000000000000PES00010000001 00000000000000000000000
201603020060000100000000000000023836000000000000000238369600000000033714143609CENTRO-DE-ESTUDIOS-DIGESTIVOS-000000000041500000000000000000000000000000000000000000000000000000000000000000000000000000000000000000000000000000000000PES00010000001 00000000000000000000000
201603020060000100000000000000023837000000000000000238379600000000033714143609CENTRO-DE-ESTUDIOS-DIGESTIVOS-000000000119900000000000000000000000000000000000000000000000000000000000000000000000000000000000000000000000000000000000PES00010000001 00000000000000000000000
201603020060000100000000000000023838000000000000000238389600000000033714143609CENTRO-DE-ESTUDIOS-DIGESTIVOS-000000000028000000000000000000000000000000000000000000000000000000000000000000000000000000000000000000000000000000000000PES00010000001 00000000000000000000000
201603020060000100000000000000023839000000000000000238399600000000033714143609CENTRO-DE-ESTUDIOS-DIGESTIVOS-000000000056000000000000000000000000000000000000000000000000000000000000000000000000000000000000000000000000000000000000PES00010000001 00000000000000000000000
201603020060000100000000000000023840000000000000000238409600000000033714143609CENTRO-DE-ESTUDIOS-DIGESTIVOS-000000000044600000000000000000000000000000000000000000000000000000000000000000000000000000000000000000000000000000000000PES00010000001 00000000000000000000000
201603020060000100000000000000023841000000000000000238419600000000033714143609CENTRO-DE-ESTUDIOS-DIGESTIVOS-000000000069500000000000000000000000000000000000000000000000000000000000000000000000000000000000000000000000000000000000PES00010000001 00000000000000000000000
201603020060000100000000000000023842000000000000000238429600000000033714143609CENTRO-DE-ESTUDIOS-DIGESTIVOS-000000000054500000000000000000000000000000000000000000000000000000000000000000000000000000000000000000000000000000000000PES00010000001 00000000000000000000000
201603030060000100000000000000023843000000000000000238439600000000033714143609CENTRO-DE-ESTUDIOS-DIGESTIVOS-000000000529500000000000000000000000000000000000000000000000000000000000000000000000000000000000000000000000000000000000PES00010000001 00000000000000000000000
201603030060000100000000000000023844000000000000000238449600000000033714143609CENTRO-DE-ESTUDIOS-DIGESTIVOS-000000000021500000000000000000000000000000000000000000000000000000000000000000000000000000000000000000000000000000000000PES00010000001 00000000000000000000000
201603030060000100000000000000023845000000000000000238459600000000033714143609CENTRO-DE-ESTUDIOS-DIGESTIVOS-000000000059500000000000000000000000000000000000000000000000000000000000000000000000000000000000000000000000000000000000PES00010000001 00000000000000000000000
201603030060000100000000000000023846000000000000000238469600000000033714143609CENTRO-DE-ESTUDIOS-DIGESTIVOS-000000000118000000000000000000000000000000000000000000000000000000000000000000000000000000000000000000000000000000000000PES00010000001 00000000000000000000000
201603030060000100000000000000023848000000000000000238489600000000033714143609CENTRO-DE-ESTUDIOS-DIGESTIVOS-000000000039500000000000000000000000000000000000000000000000000000000000000000000000000000000000000000000000000000000000PES00010000001 00000000000000000000000
201603030060000100000000000000023849000000000000000238499600000000033714143609CENTRO-DE-ESTUDIOS-DIGESTIVOS-000000000037000000000000000000000000000000000000000000000000000000000000000000000000000000000000000000000000000000000000PES00010000001 00000000000000000000000
201603030060000100000000000000023850000000000000000238509600000000033714143609CENTRO-DE-ESTUDIOS-DIGESTIVOS-000000000035000000000000000000000000000000000000000000000000000000000000000000000000000000000000000000000000000000000000PES00010000001 00000000000000000000000
201603030060000100000000000000023851000000000000000238519600000000033714143609CENTRO-DE-ESTUDIOS-DIGESTIVOS-000000000096000000000000000000000000000000000000000000000000000000000000000000000000000000000000000000000000000000000000PES00010000001 00000000000000000000000
201603030060000100000000000000023852000000000000000238529600000000033714143609CENTRO-DE-ESTUDIOS-DIGESTIVOS-000000000396000000000000000000000000000000000000000000000000000000000000000000000000000000000000000000000000000000000000PES00010000001 00000000000000000000000
201603040060000100000000000000023853000000000000000238539600000000033714143609CENTRO-DE-ESTUDIOS-DIGESTIVOS-000000000016000000000000000000000000000000000000000000000000000000000000000000000000000000000000000000000000000000000000PES00010000001 00000000000000000000000
201603040060000100000000000000023854000000000000000238549600000000033714143609CENTRO-DE-ESTUDIOS-DIGESTIVOS-000000000128400000000000000000000000000000000000000000000000000000000000000000000000000000000000000000000000000000000000PES00010000001 00000000000000000000000
201603040060000100000000000000023855000000000000000238559600000000033714143609CENTRO-DE-ESTUDIOS-DIGESTIVOS-000000000036800000000000000000000000000000000000000000000000000000000000000000000000000000000000000000000000000000000000PES00010000001 00000000000000000000000
201603040060000100000000000000023856000000000000000238569600000000033714143609CENTRO-DE-ESTUDIOS-DIGESTIVOS-000000000063000000000000000000000000000000000000000000000000000000000000000000000000000000000000000000000000000000000000PES00010000001 00000000000000000000000
201603040060000100000000000000023857000000000000000238579600000000033714143609CENTRO-DE-ESTUDIOS-DIGESTIVOS-000000000114500000000000000000000000000000000000000000000000000000000000000000000000000000000000000000000000000000000000PES00010000001 00000000000000000000000
201603040060000100000000000000023858000000000000000238589600000000033714143609CENTRO-DE-ESTUDIOS-DIGESTIVOS-000000000061000000000000000000000000000000000000000000000000000000000000000000000000000000000000000000000000000000000000PES00010000001 00000000000000000000000
201603040060000100000000000000023859000000000000000238599600000000033714143609CENTRO-DE-ESTUDIOS-DIGESTIVOS-000000000083500000000000000000000000000000000000000000000000000000000000000000000000000000000000000000000000000000000000PES00010000001 00000000000000000000000
201603040060000100000000000000023860000000000000000238609600000000033714143609CENTRO-DE-ESTUDIOS-DIGESTIVOS-000000000019500000000000000000000000000000000000000000000000000000000000000000000000000000000000000000000000000000000000PES00010000001 00000000000000000000000
201603040060000100000000000000023861000000000000000238619600000000033714143609CENTRO-DE-ESTUDIOS-DIGESTIVOS-000000000143800000000000000000000000000000000000000000000000000000000000000000000000000000000000000000000000000000000000PES00010000001 00000000000000000000000
201603040060000100000000000000023862000000000000000238629600000000033714143609CENTRO-DE-ESTUDIOS-DIGESTIVOS-000000000037400000000000000000000000000000000000000000000000000000000000000000000000000000000000000000000000000000000000PES00010000001 00000000000000000000000
201603040060000100000000000000023863000000000000000238639600000000033714143609CENTRO-DE-ESTUDIOS-DIGESTIVOS-000000000017200000000000000000000000000000000000000000000000000000000000000000000000000000000000000000000000000000000000PES00010000001 00000000000000000000000
201603040060000100000000000000023864000000000000000238649600000000033714143609CENTRO-DE-ESTUDIOS-DIGESTIVOS-000000000052800000000000000000000000000000000000000000000000000000000000000000000000000000000000000000000000000000000000PES00010000001 00000000000000000000000
201603040060000100000000000000023865000000000000000238659600000000033714143609CENTRO-DE-ESTUDIOS-DIGESTIVOS-000000000073500000000000000000000000000000000000000000000000000000000000000000000000000000000000000000000000000000000000PES00010000001 00000000000000000000000
201603040060000100000000000000023866000000000000000238669600000000033714143609CENTRO-DE-ESTUDIOS-DIGESTIVOS-000000000065000000000000000000000000000000000000000000000000000000000000000000000000000000000000000000000000000000000000PES00010000001 00000000000000000000000
201603040060000100000000000000023867000000000000000238679600000000033714143609CENTRO-DE-ESTUDIOS-DIGESTIVOS-000000000127500000000000000000000000000000000000000000000000000000000000000000000000000000000000000000000000000000000000PES00010000001 00000000000000000000000
201603040060000100000000000000023868000000000000000238689600000000033714143609CENTRO-DE-ESTUDIOS-DIGESTIVOS-000000000089500000000000000000000000000000000000000000000000000000000000000000000000000000000000000000000000000000000000PES00010000001 00000000000000000000000
201603040060000100000000000000023869000000000000000238699600000000033714143609CENTRO-DE-ESTUDIOS-DIGESTIVOS-000000000050500000000000000000000000000000000000000000000000000000000000000000000000000000000000000000000000000000000000PES00010000001 00000000000000000000000
201603040060000100000000000000023870000000000000000238709600000000033714143609CENTRO-DE-ESTUDIOS-DIGESTIVOS-000000000140500000000000000000000000000000000000000000000000000000000000000000000000000000000000000000000000000000000000PES00010000001 00000000000000000000000
201603040060000100000000000000023871000000000000000238719600000000033714143609CENTRO-DE-ESTUDIOS-DIGESTIVOS-000000000116600000000000000000000000000000000000000000000000000000000000000000000000000000000000000000000000000000000000PES00010000001 00000000000000000000000
201603040060000100000000000000023872000000000000000238729600000000033714143609CENTRO-DE-ESTUDIOS-DIGESTIVOS-000000000072000000000000000000000000000000000000000000000000000000000000000000000000000000000000000000000000000000000000PES00010000001 00000000000000000000000
201603040060000100000000000000023873000000000000000238739600000000033714143609CENTRO-DE-ESTUDIOS-DIGESTIVOS-000000000015600000000000000000000000000000000000000000000000000000000000000000000000000000000000000000000000000000000000PES00010000001 00000000000000000000000
201603040060000100000000000000023874000000000000000238749600000000033714143609CENTRO-DE-ESTUDIOS-DIGESTIVOS-000000000033500000000000000000000000000000000000000000000000000000000000000000000000000000000000000000000000000000000000PES00010000001 00000000000000000000000
201603050060000100000000000000023875000000000000000238759600000000033714143609CENTRO-DE-ESTUDIOS-DIGESTIVOS-000000000022500000000000000000000000000000000000000000000000000000000000000000000000000000000000000000000000000000000000PES00010000001 00000000000000000000000
201603050060000100000000000000023876000000000000000238769600000000033714143609CENTRO-DE-ESTUDIOS-DIGESTIVOS-000000000018500000000000000000000000000000000000000000000000000000000000000000000000000000000000000000000000000000000000PES00010000001 00000000000000000000000
201603050060000100000000000000023877000000000000000238779600000000033714143609CENTRO-DE-ESTUDIOS-DIGESTIVOS-000000000086000000000000000000000000000000000000000000000000000000000000000000000000000000000000000000000000000000000000PES00010000001 00000000000000000000000
201603050060000100000000000000023878000000000000000238789600000000033714143609CENTRO-DE-ESTUDIOS-DIGESTIVOS-000000000166900000000000000000000000000000000000000000000000000000000000000000000000000000000000000000000000000000000000PES00010000001 00000000000000000000000
201603050060000100000000000000023879000000000000000238799600000000033714143609CENTRO-DE-ESTUDIOS-DIGESTIVOS-000000000043000000000000000000000000000000000000000000000000000000000000000000000000000000000000000000000000000000000000PES00010000001 00000000000000000000000
201603050060000100000000000000023880000000000000000238809600000000033714143609CENTRO-DE-ESTUDIOS-DIGESTIVOS-000000000045000000000000000000000000000000000000000000000000000000000000000000000000000000000000000000000000000000000000PES00010000001 00000000000000000000000
201603050060000100000000000000023881000000000000000238819600000000033714143609CENTRO-DE-ESTUDIOS-DIGESTIVOS-000000000044500000000000000000000000000000000000000000000000000000000000000000000000000000000000000000000000000000000000PES00010000001 00000000000000000000000
201603050060000100000000000000023882000000000000000238829600000000033714143609CENTRO-DE-ESTUDIOS-DIGESTIVOS-000000000157500000000000000000000000000000000000000000000000000000000000000000000000000000000000000000000000000000000000PES00010000001 00000000000000000000000
201603050060000100000000000000023883000000000000000238839600000000033714143609CENTRO-DE-ESTUDIOS-DIGESTIVOS-000000000046000000000000000000000000000000000000000000000000000000000000000000000000000000000000000000000000000000000000PES00010000001 00000000000000000000000
201603050060000100000000000000023884000000000000000238849600000000033714143609CENTRO-DE-ESTUDIOS-DIGESTIVOS-000000000042300000000000000000000000000000000000000000000000000000000000000000000000000000000000000000000000000000000000PES00010000001 00000000000000000000000
201603050060000100000000000000023885000000000000000238859600000000033714143609CENTRO-DE-ESTUDIOS-DIGESTIVOS-000000000036000000000000000000000000000000000000000000000000000000000000000000000000000000000000000000000000000000000000PES00010000001 00000000000000000000000
201603050060000100000000000000023886000000000000000238869600000000033714143609CENTRO-DE-ESTUDIOS-DIGESTIVOS-000000000031600000000000000000000000000000000000000000000000000000000000000000000000000000000000000000000000000000000000PES00010000001 00000000000000000000000
201603050060000100000000000000023888000000000000000238889600000000033714143609CENTRO-DE-ESTUDIOS-DIGESTIVOS-000000000031500000000000000000000000000000000000000000000000000000000000000000000000000000000000000000000000000000000000PES00010000001 00000000000000000000000
201603050060000100000000000000023889000000000000000238899600000000033714143609CENTRO-DE-ESTUDIOS-DIGESTIVOS-000000000064000000000000000000000000000000000000000000000000000000000000000000000000000000000000000000000000000000000000PES00010000001 00000000000000000000000
201603050060000100000000000000023890000000000000000238909600000000033714143609CENTRO-DE-ESTUDIOS-DIGESTIVOS-000000000015700000000000000000000000000000000000000000000000000000000000000000000000000000000000000000000000000000000000PES00010000001 00000000000000000000000
201603050060000100000000000000023891000000000000000238919600000000033714143609CENTRO-DE-ESTUDIOS-DIGESTIVOS-000000000039500000000000000000000000000000000000000000000000000000000000000000000000000000000000000000000000000000000000PES00010000001 00000000000000000000000
201603050060000100000000000000023892000000000000000238929600000000033714143609CENTRO-DE-ESTUDIOS-DIGESTIVOS-000000000019500000000000000000000000000000000000000000000000000000000000000000000000000000000000000000000000000000000000PES00010000001 00000000000000000000000
201603070060000100000000000000023894000000000000000238949600000000033714143609CENTRO-DE-ESTUDIOS-DIGESTIVOS-000000000050500000000000000000000000000000000000000000000000000000000000000000000000000000000000000000000000000000000000PES00010000001 00000000000000000000000
201603070060000100000000000000023895000000000000000238959600000000033714143609CENTRO-DE-ESTUDIOS-DIGESTIVOS-000000000012600000000000000000000000000000000000000000000000000000000000000000000000000000000000000000000000000000000000PES00010000001 00000000000000000000000
201603070060000100000000000000023896000000000000000238969600000000033714143609CENTRO-DE-ESTUDIOS-DIGESTIVOS-000000000019000000000000000000000000000000000000000000000000000000000000000000000000000000000000000000000000000000000000PES00010000001 00000000000000000000000
201603070060000100000000000000023897000000000000000238979600000000033714143609CENTRO-DE-ESTUDIOS-DIGESTIVOS-000000000060000000000000000000000000000000000000000000000000000000000000000000000000000000000000000000000000000000000000PES00010000001 00000000000000000000000
201603070060000100000000000000023898000000000000000238989600000000033714143609CENTRO-DE-ESTUDIOS-DIGESTIVOS-000000000100000000000000000000000000000000000000000000000000000000000000000000000000000000000000000000000000000000000000PES00010000001 00000000000000000000000
201603070060000100000000000000023899000000000000000238999600000000033714143609CENTRO-DE-ESTUDIOS-DIGESTIVOS-000000000050000000000000000000000000000000000000000000000000000000000000000000000000000000000000000000000000000000000000PES00010000001 00000000000000000000000
201603070060000100000000000000023900000000000000000239009600000000033714143609CENTRO-DE-ESTUDIOS-DIGESTIVOS-000000000013000000000000000000000000000000000000000000000000000000000000000000000000000000000000000000000000000000000000PES00010000001 00000000000000000000000
201603070060000100000000000000023901000000000000000239019600000000033714143609CENTRO-DE-ESTUDIOS-DIGESTIVOS-000000000041500000000000000000000000000000000000000000000000000000000000000000000000000000000000000000000000000000000000PES00010000001 00000000000000000000000
201603070060000100000000000000023902000000000000000239029600000000033714143609CENTRO-DE-ESTUDIOS-DIGESTIVOS-000000000154500000000000000000000000000000000000000000000000000000000000000000000000000000000000000000000000000000000000PES00010000001 00000000000000000000000
201603070060000100000000000000023903000000000000000239039600000000033714143609CENTRO-DE-ESTUDIOS-DIGESTIVOS-000000000044100000000000000000000000000000000000000000000000000000000000000000000000000000000000000000000000000000000000PES00010000001 00000000000000000000000
201603070060000100000000000000023904000000000000000239049600000000033714143609CENTRO-DE-ESTUDIOS-DIGESTIVOS-000000000031500000000000000000000000000000000000000000000000000000000000000000000000000000000000000000000000000000000000PES00010000001 00000000000000000000000
201603070060000100000000000000023905000000000000000239059600000000033714143609CENTRO-DE-ESTUDIOS-DIGESTIVOS-000000000018000000000000000000000000000000000000000000000000000000000000000000000000000000000000000000000000000000000000PES00010000001 00000000000000000000000
201603070060000100000000000000023906000000000000000239069600000000033714143609CENTRO-DE-ESTUDIOS-DIGESTIVOS-000000000069800000000000000000000000000000000000000000000000000000000000000000000000000000000000000000000000000000000000PES00010000001 00000000000000000000000
201603070060000100000000000000023907000000000000000239079600000000033714143609CENTRO-DE-ESTUDIOS-DIGESTIVOS-000000000061500000000000000000000000000000000000000000000000000000000000000000000000000000000000000000000000000000000000PES00010000001 00000000000000000000000
201603080060000100000000000000023909000000000000000239099600000000033714143609CENTRO-DE-ESTUDIOS-DIGESTIVOS-000000000057500000000000000000000000000000000000000000000000000000000000000000000000000000000000000000000000000000000000PES00010000001 00000000000000000000000
201603080060000100000000000000023910000000000000000239109600000000033714143609CENTRO-DE-ESTUDIOS-DIGESTIVOS-000000000046500000000000000000000000000000000000000000000000000000000000000000000000000000000000000000000000000000000000PES00010000001 00000000000000000000000
201603080060000100000000000000023911000000000000000239119600000000033714143609CENTRO-DE-ESTUDIOS-DIGESTIVOS-000000000099500000000000000000000000000000000000000000000000000000000000000000000000000000000000000000000000000000000000PES00010000001 00000000000000000000000
201603080060000100000000000000023912000000000000000239129600000000033714143609CENTRO-DE-ESTUDIOS-DIGESTIVOS-000000000223800000000000000000000000000000000000000000000000000000000000000000000000000000000000000000000000000000000000PES00010000001 00000000000000000000000
201603080060000100000000000000023913000000000000000239139600000000033714143609CENTRO-DE-ESTUDIOS-DIGESTIVOS-000000000061500000000000000000000000000000000000000000000000000000000000000000000000000000000000000000000000000000000000PES00010000001 00000000000000000000000
201603080060000100000000000000023914000000000000000239149600000000033714143609CENTRO-DE-ESTUDIOS-DIGESTIVOS-000000000129000000000000000000000000000000000000000000000000000000000000000000000000000000000000000000000000000000000000PES00010000001 00000000000000000000000
201603080060000100000000000000023915000000000000000239159600000000033714143609CENTRO-DE-ESTUDIOS-DIGESTIVOS-000000000037300000000000000000000000000000000000000000000000000000000000000000000000000000000000000000000000000000000000PES00010000001 00000000000000000000000
201603080060000100000000000000023916000000000000000239169600000000033714143609CENTRO-DE-ESTUDIOS-DIGESTIVOS-000000000046000000000000000000000000000000000000000000000000000000000000000000000000000000000000000000000000000000000000PES00010000001 00000000000000000000000
201603080060000100000000000000023917000000000000000239179600000000033714143609CENTRO-DE-ESTUDIOS-DIGESTIVOS-000000000189000000000000000000000000000000000000000000000000000000000000000000000000000000000000000000000000000000000000PES00010000001 00000000000000000000000
201603080060000100000000000000023918000000000000000239189600000000033714143609CENTRO-DE-ESTUDIOS-DIGESTIVOS-000000000026000000000000000000000000000000000000000000000000000000000000000000000000000000000000000000000000000000000000PES00010000001 00000000000000000000000
201603080060000100000000000000023919000000000000000239199600000000033714143609CENTRO-DE-ESTUDIOS-DIGESTIVOS-000000000016500000000000000000000000000000000000000000000000000000000000000000000000000000000000000000000000000000000000PES00010000001 00000000000000000000000
201603080060000100000000000000023920000000000000000239209600000000033714143609CENTRO-DE-ESTUDIOS-DIGESTIVOS-000000000027500000000000000000000000000000000000000000000000000000000000000000000000000000000000000000000000000000000000PES00010000001 00000000000000000000000
201603080060000100000000000000023921000000000000000239219600000000033714143609CENTRO-DE-ESTUDIOS-DIGESTIVOS-000000000044500000000000000000000000000000000000000000000000000000000000000000000000000000000000000000000000000000000000PES00010000001 00000000000000000000000
201603080060000100000000000000023922000000000000000239229600000000033714143609CENTRO-DE-ESTUDIOS-DIGESTIVOS-000000000034800000000000000000000000000000000000000000000000000000000000000000000000000000000000000000000000000000000000PES00010000001 00000000000000000000000
201603080060000100000000000000023923000000000000000239239600000000033714143609CENTRO-DE-ESTUDIOS-DIGESTIVOS-000000000058500000000000000000000000000000000000000000000000000000000000000000000000000000000000000000000000000000000000PES00010000001 00000000000000000000000
201603090060000100000000000000023924000000000000000239249600000000033714143609CENTRO-DE-ESTUDIOS-DIGESTIVOS-000000000039400000000000000000000000000000000000000000000000000000000000000000000000000000000000000000000000000000000000PES00010000001 00000000000000000000000
201603090060000100000000000000023925000000000000000239259600000000033714143609CENTRO-DE-ESTUDIOS-DIGESTIVOS-000000000041500000000000000000000000000000000000000000000000000000000000000000000000000000000000000000000000000000000000PES00010000001 00000000000000000000000
201603090060000100000000000000023926000000000000000239269600000000033714143609CENTRO-DE-ESTUDIOS-DIGESTIVOS-000000000011000000000000000000000000000000000000000000000000000000000000000000000000000000000000000000000000000000000000PES00010000001 00000000000000000000000
201603090060000100000000000000023927000000000000000239279600000000033714143609CENTRO-DE-ESTUDIOS-DIGESTIVOS-000000000077100000000000000000000000000000000000000000000000000000000000000000000000000000000000000000000000000000000000PES00010000001 00000000000000000000000
201603090060000100000000000000023928000000000000000239289600000000033714143609CENTRO-DE-ESTUDIOS-DIGESTIVOS-000000000047000000000000000000000000000000000000000000000000000000000000000000000000000000000000000000000000000000000000PES00010000001 00000000000000000000000
201603090060000100000000000000023929000000000000000239299600000000033714143609CENTRO-DE-ESTUDIOS-DIGESTIVOS-000000000030500000000000000000000000000000000000000000000000000000000000000000000000000000000000000000000000000000000000PES00010000001 00000000000000000000000
201603090060000100000000000000023930000000000000000239309600000000033714143609CENTRO-DE-ESTUDIOS-DIGESTIVOS-000000000064500000000000000000000000000000000000000000000000000000000000000000000000000000000000000000000000000000000000PES00010000001 00000000000000000000000
201603090060000100000000000000023931000000000000000239319600000000033714143609CENTRO-DE-ESTUDIOS-DIGESTIVOS-000000000019000000000000000000000000000000000000000000000000000000000000000000000000000000000000000000000000000000000000PES00010000001 00000000000000000000000
201603090060000100000000000000023932000000000000000239329600000000033714143609CENTRO-DE-ESTUDIOS-DIGESTIVOS-000000000066000000000000000000000000000000000000000000000000000000000000000000000000000000000000000000000000000000000000PES00010000001 00000000000000000000000
201603090060000100000000000000023933000000000000000239339600000000033714143609CENTRO-DE-ESTUDIOS-DIGESTIVOS-000000000013600000000000000000000000000000000000000000000000000000000000000000000000000000000000000000000000000000000000PES00010000001 00000000000000000000000
201603090060000100000000000000023934000000000000000239349600000000033714143609CENTRO-DE-ESTUDIOS-DIGESTIVOS-000000000092000000000000000000000000000000000000000000000000000000000000000000000000000000000000000000000000000000000000PES00010000001 00000000000000000000000
201603090060000100000000000000023935000000000000000239359600000000033714143609CENTRO-DE-ESTUDIOS-DIGESTIVOS-000000000083000000000000000000000000000000000000000000000000000000000000000000000000000000000000000000000000000000000000PES00010000001 00000000000000000000000
201603090060000100000000000000023936000000000000000239369600000000033714143609CENTRO-DE-ESTUDIOS-DIGESTIVOS-000000000112900000000000000000000000000000000000000000000000000000000000000000000000000000000000000000000000000000000000PES00010000001 00000000000000000000000
201603100060000100000000000000023937000000000000000239379600000000033714143609CENTRO-DE-ESTUDIOS-DIGESTIVOS-000000000057500000000000000000000000000000000000000000000000000000000000000000000000000000000000000000000000000000000000PES00010000001 00000000000000000000000
201603100060000100000000000000023938000000000000000239389600000000033714143609CENTRO-DE-ESTUDIOS-DIGESTIVOS-000000000076000000000000000000000000000000000000000000000000000000000000000000000000000000000000000000000000000000000000PES00010000001 00000000000000000000000
201603100060000100000000000000023939000000000000000239399600000000033714143609CENTRO-DE-ESTUDIOS-DIGESTIVOS-000000000013500000000000000000000000000000000000000000000000000000000000000000000000000000000000000000000000000000000000PES00010000001 00000000000000000000000
201603100060000100000000000000023940000000000000000239409600000000033714143609CENTRO-DE-ESTUDIOS-DIGESTIVOS-000000000018000000000000000000000000000000000000000000000000000000000000000000000000000000000000000000000000000000000000PES00010000001 00000000000000000000000
201603100060000100000000000000023941000000000000000239419600000000033714143609CENTRO-DE-ESTUDIOS-DIGESTIVOS-000000000069500000000000000000000000000000000000000000000000000000000000000000000000000000000000000000000000000000000000PES00010000001 00000000000000000000000
201603100060000100000000000000023942000000000000000239429600000000033714143609CENTRO-DE-ESTUDIOS-DIGESTIVOS-000000000055800000000000000000000000000000000000000000000000000000000000000000000000000000000000000000000000000000000000PES00010000001 00000000000000000000000
201603100060000100000000000000023943000000000000000239439600000000033714143609CENTRO-DE-ESTUDIOS-DIGESTIVOS-000000000026800000000000000000000000000000000000000000000000000000000000000000000000000000000000000000000000000000000000PES00010000001 00000000000000000000000
201603100060000100000000000000023944000000000000000239449600000000033714143609CENTRO-DE-ESTUDIOS-DIGESTIVOS-000000000047500000000000000000000000000000000000000000000000000000000000000000000000000000000000000000000000000000000000PES00010000001 00000000000000000000000
201603100060000100000000000000023945000000000000000239459600000000033714143609CENTRO-DE-ESTUDIOS-DIGESTIVOS-000000000160500000000000000000000000000000000000000000000000000000000000000000000000000000000000000000000000000000000000PES00010000001 00000000000000000000000
201603100060000100000000000000023946000000000000000239469600000000033714143609CENTRO-DE-ESTUDIOS-DIGESTIVOS-000000000047500000000000000000000000000000000000000000000000000000000000000000000000000000000000000000000000000000000000PES00010000001 00000000000000000000000
201603100060000100000000000000023947000000000000000239479600000000033714143609CENTRO-DE-ESTUDIOS-DIGESTIVOS-000000000111500000000000000000000000000000000000000000000000000000000000000000000000000000000000000000000000000000000000PES00010000001 00000000000000000000000
201603100060000100000000000000023948000000000000000239489600000000033714143609CENTRO-DE-ESTUDIOS-DIGESTIVOS-000000000195000000000000000000000000000000000000000000000000000000000000000000000000000000000000000000000000000000000000PES00010000001 00000000000000000000000
201603100060000100000000000000023949000000000000000239499600000000033714143609CENTRO-DE-ESTUDIOS-DIGESTIVOS-000000000177000000000000000000000000000000000000000000000000000000000000000000000000000000000000000000000000000000000000PES00010000001 00000000000000000000000
201603100060000100000000000000023950000000000000000239509600000000033714143609CENTRO-DE-ESTUDIOS-DIGESTIVOS-000000000049500000000000000000000000000000000000000000000000000000000000000000000000000000000000000000000000000000000000PES00010000001 00000000000000000000000
201603100060000100000000000000023951000000000000000239519600000000033714143609CENTRO-DE-ESTUDIOS-DIGESTIVOS-000000000069500000000000000000000000000000000000000000000000000000000000000000000000000000000000000000000000000000000000PES00010000001 00000000000000000000000
201603100060000100000000000000023952000000000000000239529600000000033714143609CENTRO-DE-ESTUDIOS-DIGESTIVOS-000000000067500000000000000000000000000000000000000000000000000000000000000000000000000000000000000000000000000000000000PES00010000001 00000000000000000000000
201603100060000100000000000000023953000000000000000239539600000000033714143609CENTRO-DE-ESTUDIOS-DIGESTIVOS-000000000053500000000000000000000000000000000000000000000000000000000000000000000000000000000000000000000000000000000000PES00010000001 00000000000000000000000
201603100060000100000000000000023954000000000000000239549600000000033714143609CENTRO-DE-ESTUDIOS-DIGESTIVOS-000000000032500000000000000000000000000000000000000000000000000000000000000000000000000000000000000000000000000000000000PES00010000001 00000000000000000000000
201603110060000100000000000000023955000000000000000239559600000000033714143609CENTRO-DE-ESTUDIOS-DIGESTIVOS-000000000095600000000000000000000000000000000000000000000000000000000000000000000000000000000000000000000000000000000000PES00010000001 00000000000000000000000
201603110060000100000000000000023956000000000000000239569600000000033714143609CENTRO-DE-ESTUDIOS-DIGESTIVOS-000000000069500000000000000000000000000000000000000000000000000000000000000000000000000000000000000000000000000000000000PES00010000001 00000000000000000000000
201603110060000100000000000000023957000000000000000239579600000000033714143609CENTRO-DE-ESTUDIOS-DIGESTIVOS-000000000168000000000000000000000000000000000000000000000000000000000000000000000000000000000000000000000000000000000000PES00010000001 00000000000000000000000
201603110060000100000000000000023958000000000000000239589600000000033714143609CENTRO-DE-ESTUDIOS-DIGESTIVOS-000000000044500000000000000000000000000000000000000000000000000000000000000000000000000000000000000000000000000000000000PES00010000001 00000000000000000000000
201603110060000100000000000000023959000000000000000239599600000000033714143609CENTRO-DE-ESTUDIOS-DIGESTIVOS-000000000168500000000000000000000000000000000000000000000000000000000000000000000000000000000000000000000000000000000000PES00010000001 00000000000000000000000
201603110060000100000000000000023960000000000000000239609600000000033714143609CENTRO-DE-ESTUDIOS-DIGESTIVOS-000000000017000000000000000000000000000000000000000000000000000000000000000000000000000000000000000000000000000000000000PES00010000001 00000000000000000000000
201603110060000100000000000000023961000000000000000239619600000000033714143609CENTRO-DE-ESTUDIOS-DIGESTIVOS-000000000062600000000000000000000000000000000000000000000000000000000000000000000000000000000000000000000000000000000000PES00010000001 00000000000000000000000
201603110060000100000000000000023962000000000000000239629600000000033714143609CENTRO-DE-ESTUDIOS-DIGESTIVOS-000000000013600000000000000000000000000000000000000000000000000000000000000000000000000000000000000000000000000000000000PES00010000001 00000000000000000000000
201603110060000100000000000000023963000000000000000239639600000000033714143609CENTRO-DE-ESTUDIOS-DIGESTIVOS-000000000044500000000000000000000000000000000000000000000000000000000000000000000000000000000000000000000000000000000000PES00010000001 00000000000000000000000
201603110060000100000000000000023964000000000000000239649600000000033714143609CENTRO-DE-ESTUDIOS-DIGESTIVOS-000000000016500000000000000000000000000000000000000000000000000000000000000000000000000000000000000000000000000000000000PES00010000001 00000000000000000000000
201603110060000100000000000000023965000000000000000239659600000000033714143609CENTRO-DE-ESTUDIOS-DIGESTIVOS-000000000059500000000000000000000000000000000000000000000000000000000000000000000000000000000000000000000000000000000000PES00010000001 00000000000000000000000
201603110060000100000000000000023966000000000000000239669600000000033714143609CENTRO-DE-ESTUDIOS-DIGESTIVOS-000000000116000000000000000000000000000000000000000000000000000000000000000000000000000000000000000000000000000000000000PES00010000001 00000000000000000000000
201603110060000100000000000000023967000000000000000239679600000000033714143609CENTRO-DE-ESTUDIOS-DIGESTIVOS-000000000098000000000000000000000000000000000000000000000000000000000000000000000000000000000000000000000000000000000000PES00010000001 00000000000000000000000
201603110060000100000000000000023968000000000000000239689600000000033714143609CENTRO-DE-ESTUDIOS-DIGESTIVOS-000000000048100000000000000000000000000000000000000000000000000000000000000000000000000000000000000000000000000000000000PES00010000001 00000000000000000000000
201603120060000100000000000000023969000000000000000239699600000000033714143609CENTRO-DE-ESTUDIOS-DIGESTIVOS-000000000015400000000000000000000000000000000000000000000000000000000000000000000000000000000000000000000000000000000000PES00010000001 00000000000000000000000
201603120060000100000000000000023970000000000000000239709600000000033714143609CENTRO-DE-ESTUDIOS-DIGESTIVOS-000000000137500000000000000000000000000000000000000000000000000000000000000000000000000000000000000000000000000000000000PES00010000001 00000000000000000000000
201603120060000100000000000000023971000000000000000239719600000000033714143609CENTRO-DE-ESTUDIOS-DIGESTIVOS-000000000104000000000000000000000000000000000000000000000000000000000000000000000000000000000000000000000000000000000000PES00010000001 00000000000000000000000
201603120060000100000000000000023972000000000000000239729600000000033714143609CENTRO-DE-ESTUDIOS-DIGESTIVOS-000000000132500000000000000000000000000000000000000000000000000000000000000000000000000000000000000000000000000000000000PES00010000001 00000000000000000000000
201603120060000100000000000000023973000000000000000239739600000000033714143609CENTRO-DE-ESTUDIOS-DIGESTIVOS-000000000046000000000000000000000000000000000000000000000000000000000000000000000000000000000000000000000000000000000000PES00010000001 00000000000000000000000
201603120060000100000000000000023974000000000000000239749600000000033714143609CENTRO-DE-ESTUDIOS-DIGESTIVOS-000000000020600000000000000000000000000000000000000000000000000000000000000000000000000000000000000000000000000000000000PES00010000001 00000000000000000000000
201603120060000100000000000000023975000000000000000239759600000000033714143609CENTRO-DE-ESTUDIOS-DIGESTIVOS-000000000097000000000000000000000000000000000000000000000000000000000000000000000000000000000000000000000000000000000000PES00010000001 00000000000000000000000
201603120060000100000000000000023976000000000000000239769600000000033714143609CENTRO-DE-ESTUDIOS-DIGESTIVOS-000000000036000000000000000000000000000000000000000000000000000000000000000000000000000000000000000000000000000000000000PES00010000001 00000000000000000000000
201603120060000100000000000000023977000000000000000239779600000000033714143609CENTRO-DE-ESTUDIOS-DIGESTIVOS-000000000107000000000000000000000000000000000000000000000000000000000000000000000000000000000000000000000000000000000000PES00010000001 00000000000000000000000
201603120060000100000000000000023978000000000000000239789600000000033714143609CENTRO-DE-ESTUDIOS-DIGESTIVOS-000000000063000000000000000000000000000000000000000000000000000000000000000000000000000000000000000000000000000000000000PES00010000001 00000000000000000000000
201603120060000100000000000000023979000000000000000239799600000000033714143609CENTRO-DE-ESTUDIOS-DIGESTIVOS-000000000024000000000000000000000000000000000000000000000000000000000000000000000000000000000000000000000000000000000000PES00010000001 00000000000000000000000
201603120060000100000000000000023980000000000000000239809600000000033714143609CENTRO-DE-ESTUDIOS-DIGESTIVOS-000000000158500000000000000000000000000000000000000000000000000000000000000000000000000000000000000000000000000000000000PES00010000001 00000000000000000000000
201603120060000100000000000000023981000000000000000239819600000000033714143609CENTRO-DE-ESTUDIOS-DIGESTIVOS-000000000058000000000000000000000000000000000000000000000000000000000000000000000000000000000000000000000000000000000000PES00010000001 00000000000000000000000
201603120060000100000000000000023982000000000000000239829600000000033714143609CENTRO-DE-ESTUDIOS-DIGESTIVOS-000000000034300000000000000000000000000000000000000000000000000000000000000000000000000000000000000000000000000000000000PES00010000001 00000000000000000000000
201603120060000100000000000000023983000000000000000239839600000000033714143609CENTRO-DE-ESTUDIOS-DIGESTIVOS-000000000101100000000000000000000000000000000000000000000000000000000000000000000000000000000000000000000000000000000000PES00010000001 00000000000000000000000
201603120060000100000000000000023984000000000000000239849600000000033714143609CENTRO-DE-ESTUDIOS-DIGESTIVOS-000000000044500000000000000000000000000000000000000000000000000000000000000000000000000000000000000000000000000000000000PES00010000001 00000000000000000000000
201603120060000100000000000000023985000000000000000239859600000000033714143609CENTRO-DE-ESTUDIOS-DIGESTIVOS-000000000016000000000000000000000000000000000000000000000000000000000000000000000000000000000000000000000000000000000000PES00010000001 00000000000000000000000
201603120060000100000000000000023986000000000000000239869600000000033714143609CENTRO-DE-ESTUDIOS-DIGESTIVOS-000000000033000000000000000000000000000000000000000000000000000000000000000000000000000000000000000000000000000000000000PES00010000001 00000000000000000000000
201603120060000100000000000000023987000000000000000239879600000000033714143609CENTRO-DE-ESTUDIOS-DIGESTIVOS-000000000378000000000000000000000000000000000000000000000000000000000000000000000000000000000000000000000000000000000000PES00010000001 00000000000000000000000
201603120060000100000000000000023988000000000000000239889600000000033714143609CENTRO-DE-ESTUDIOS-DIGESTIVOS-000000000023500000000000000000000000000000000000000000000000000000000000000000000000000000000000000000000000000000000000PES00010000001 00000000000000000000000
201603120060000100000000000000023989000000000000000239899600000000033714143609CENTRO-DE-ESTUDIOS-DIGESTIVOS-000000000130500000000000000000000000000000000000000000000000000000000000000000000000000000000000000000000000000000000000PES00010000001 00000000000000000000000
201603120060000100000000000000023990000000000000000239909600000000033714143609CENTRO-DE-ESTUDIOS-DIGESTIVOS-000000000027500000000000000000000000000000000000000000000000000000000000000000000000000000000000000000000000000000000000PES00010000001 00000000000000000000000
201603120060000100000000000000023991000000000000000239919600000000033714143609CENTRO-DE-ESTUDIOS-DIGESTIVOS-000000000028000000000000000000000000000000000000000000000000000000000000000000000000000000000000000000000000000000000000PES00010000001 00000000000000000000000
201603140060000100000000000000023992000000000000000239929600000000033714143609CENTRO-DE-ESTUDIOS-DIGESTIVOS-000000000035000000000000000000000000000000000000000000000000000000000000000000000000000000000000000000000000000000000000PES00010000001 00000000000000000000000
201603140060000100000000000000023993000000000000000239939600000000033714143609CENTRO-DE-ESTUDIOS-DIGESTIVOS-000000000206500000000000000000000000000000000000000000000000000000000000000000000000000000000000000000000000000000000000PES00010000001 00000000000000000000000
201603140060000100000000000000023994000000000000000239949600000000033714143609CENTRO-DE-ESTUDIOS-DIGESTIVOS-000000000185000000000000000000000000000000000000000000000000000000000000000000000000000000000000000000000000000000000000PES00010000001 00000000000000000000000
201603140060000100000000000000023995000000000000000239959600000000033714143609CENTRO-DE-ESTUDIOS-DIGESTIVOS-000000000041500000000000000000000000000000000000000000000000000000000000000000000000000000000000000000000000000000000000PES00010000001 00000000000000000000000
201603140060000100000000000000023996000000000000000239969600000000033714143609CENTRO-DE-ESTUDIOS-DIGESTIVOS-000000000009000000000000000000000000000000000000000000000000000000000000000000000000000000000000000000000000000000000000PES00010000001 00000000000000000000000
201603140060000100000000000000023997000000000000000239979600000000033714143609CENTRO-DE-ESTUDIOS-DIGESTIVOS-000000000046500000000000000000000000000000000000000000000000000000000000000000000000000000000000000000000000000000000000PES00010000001 00000000000000000000000
201603140060000100000000000000023998000000000000000239989600000000033714143609CENTRO-DE-ESTUDIOS-DIGESTIVOS-000000000154000000000000000000000000000000000000000000000000000000000000000000000000000000000000000000000000000000000000PES00010000001 00000000000000000000000
201603140060000100000000000000023999000000000000000239999600000000033714143609CENTRO-DE-ESTUDIOS-DIGESTIVOS-000000000085000000000000000000000000000000000000000000000000000000000000000000000000000000000000000000000000000000000000PES00010000001 00000000000000000000000
201603140060000100000000000000024000000000000000000240009600000000033714143609CENTRO-DE-ESTUDIOS-DIGESTIVOS-000000000073000000000000000000000000000000000000000000000000000000000000000000000000000000000000000000000000000000000000PES00010000001 00000000000000000000000
201603150060000100000000000000024001000000000000000240019600000000033714143609CENTRO-DE-ESTUDIOS-DIGESTIVOS-000000000062500000000000000000000000000000000000000000000000000000000000000000000000000000000000000000000000000000000000PES00010000001 00000000000000000000000
201603150060000100000000000000024002000000000000000240029600000000033714143609CENTRO-DE-ESTUDIOS-DIGESTIVOS-000000000069000000000000000000000000000000000000000000000000000000000000000000000000000000000000000000000000000000000000PES00010000001 00000000000000000000000
201603150060000100000000000000024003000000000000000240039600000000033714143609CENTRO-DE-ESTUDIOS-DIGESTIVOS-000000000019500000000000000000000000000000000000000000000000000000000000000000000000000000000000000000000000000000000000PES00010000001 00000000000000000000000
201603150060000100000000000000024004000000000000000240049600000000033714143609CENTRO-DE-ESTUDIOS-DIGESTIVOS-000000000057500000000000000000000000000000000000000000000000000000000000000000000000000000000000000000000000000000000000PES00010000001 00000000000000000000000
201603150060000100000000000000024005000000000000000240059600000000033714143609CENTRO-DE-ESTUDIOS-DIGESTIVOS-000000000012500000000000000000000000000000000000000000000000000000000000000000000000000000000000000000000000000000000000PES00010000001 00000000000000000000000
201603150060000100000000000000024006000000000000000240069600000000033714143609CENTRO-DE-ESTUDIOS-DIGESTIVOS-000000000049500000000000000000000000000000000000000000000000000000000000000000000000000000000000000000000000000000000000PES00010000001 00000000000000000000000
201603150060000100000000000000024007000000000000000240079600000000033714143609CENTRO-DE-ESTUDIOS-DIGESTIVOS-000000000023500000000000000000000000000000000000000000000000000000000000000000000000000000000000000000000000000000000000PES00010000001 00000000000000000000000
201603150060000100000000000000024008000000000000000240089600000000033714143609CENTRO-DE-ESTUDIOS-DIGESTIVOS-000000000017500000000000000000000000000000000000000000000000000000000000000000000000000000000000000000000000000000000000PES00010000001 00000000000000000000000
201603150060000100000000000000024009000000000000000240099600000000033714143609CENTRO-DE-ESTUDIOS-DIGESTIVOS-000000000050000000000000000000000000000000000000000000000000000000000000000000000000000000000000000000000000000000000000PES00010000001 00000000000000000000000
201603150060000100000000000000024010000000000000000240109600000000033714143609CENTRO-DE-ESTUDIOS-DIGESTIVOS-000000000031000000000000000000000000000000000000000000000000000000000000000000000000000000000000000000000000000000000000PES00010000001 00000000000000000000000
201603150060000100000000000000024011000000000000000240119600000000033714143609CENTRO-DE-ESTUDIOS-DIGESTIVOS-000000000015000000000000000000000000000000000000000000000000000000000000000000000000000000000000000000000000000000000000PES00010000001 00000000000000000000000
201603150060000100000000000000024012000000000000000240129600000000033714143609CENTRO-DE-ESTUDIOS-DIGESTIVOS-000000000038000000000000000000000000000000000000000000000000000000000000000000000000000000000000000000000000000000000000PES00010000001 00000000000000000000000
201603160060000100000000000000024013000000000000000240139600000000033714143609CENTRO-DE-ESTUDIOS-DIGESTIVOS-000000000047000000000000000000000000000000000000000000000000000000000000000000000000000000000000000000000000000000000000PES00010000001 00000000000000000000000
201603160060000100000000000000024014000000000000000240149600000000033714143609CENTRO-DE-ESTUDIOS-DIGESTIVOS-000000000070500000000000000000000000000000000000000000000000000000000000000000000000000000000000000000000000000000000000PES00010000001 00000000000000000000000
201603160060000100000000000000024015000000000000000240159600000000033714143609CENTRO-DE-ESTUDIOS-DIGESTIVOS-000000000091000000000000000000000000000000000000000000000000000000000000000000000000000000000000000000000000000000000000PES00010000001 00000000000000000000000
201603160060000100000000000000024016000000000000000240169600000000033714143609CENTRO-DE-ESTUDIOS-DIGESTIVOS-000000000038300000000000000000000000000000000000000000000000000000000000000000000000000000000000000000000000000000000000PES00010000001 00000000000000000000000
201603160060000100000000000000024017000000000000000240179600000000033714143609CENTRO-DE-ESTUDIOS-DIGESTIVOS-000000000036000000000000000000000000000000000000000000000000000000000000000000000000000000000000000000000000000000000000PES00010000001 00000000000000000000000
201603160060000100000000000000024018000000000000000240189600000000033714143609CENTRO-DE-ESTUDIOS-DIGESTIVOS-000000000015000000000000000000000000000000000000000000000000000000000000000000000000000000000000000000000000000000000000PES00010000001 00000000000000000000000
201603160060000100000000000000024019000000000000000240199600000000033714143609CENTRO-DE-ESTUDIOS-DIGESTIVOS-000000000032300000000000000000000000000000000000000000000000000000000000000000000000000000000000000000000000000000000000PES00010000001 00000000000000000000000
201603160060000100000000000000024020000000000000000240209600000000033714143609CENTRO-DE-ESTUDIOS-DIGESTIVOS-000000000034500000000000000000000000000000000000000000000000000000000000000000000000000000000000000000000000000000000000PES00010000001 00000000000000000000000
201603160060000100000000000000024021000000000000000240219600000000033714143609CENTRO-DE-ESTUDIOS-DIGESTIVOS-000000000107000000000000000000000000000000000000000000000000000000000000000000000000000000000000000000000000000000000000PES00010000001 00000000000000000000000
201603160060000100000000000000024022000000000000000240229600000000033714143609CENTRO-DE-ESTUDIOS-DIGESTIVOS-000000000057500000000000000000000000000000000000000000000000000000000000000000000000000000000000000000000000000000000000PES00010000001 00000000000000000000000
201603160060000100000000000000024023000000000000000240239600000000033714143609CENTRO-DE-ESTUDIOS-DIGESTIVOS-000000000013500000000000000000000000000000000000000000000000000000000000000000000000000000000000000000000000000000000000PES00010000001 00000000000000000000000
201603170060000100000000000000024024000000000000000240249600000000033714143609CENTRO-DE-ESTUDIOS-DIGESTIVOS-000000000092800000000000000000000000000000000000000000000000000000000000000000000000000000000000000000000000000000000000PES00010000001 00000000000000000000000
201603170060000100000000000000024025000000000000000240259600000000033714143609CENTRO-DE-ESTUDIOS-DIGESTIVOS-000000000048000000000000000000000000000000000000000000000000000000000000000000000000000000000000000000000000000000000000PES00010000001 00000000000000000000000
201603170060000100000000000000024026000000000000000240269600000000033714143609CENTRO-DE-ESTUDIOS-DIGESTIVOS-000000000225000000000000000000000000000000000000000000000000000000000000000000000000000000000000000000000000000000000000PES00010000001 00000000000000000000000
201603170060000100000000000000024027000000000000000240279600000000033714143609CENTRO-DE-ESTUDIOS-DIGESTIVOS-000000000079800000000000000000000000000000000000000000000000000000000000000000000000000000000000000000000000000000000000PES00010000001 00000000000000000000000
201603170060000100000000000000024028000000000000000240289600000000033714143609CENTRO-DE-ESTUDIOS-DIGESTIVOS-000000000155000000000000000000000000000000000000000000000000000000000000000000000000000000000000000000000000000000000000PES00010000001 00000000000000000000000
201603170060000100000000000000024029000000000000000240299600000000033714143609CENTRO-DE-ESTUDIOS-DIGESTIVOS-000000000039800000000000000000000000000000000000000000000000000000000000000000000000000000000000000000000000000000000000PES00010000001 00000000000000000000000
201603170060000100000000000000024030000000000000000240309600000000033714143609CENTRO-DE-ESTUDIOS-DIGESTIVOS-000000000061500000000000000000000000000000000000000000000000000000000000000000000000000000000000000000000000000000000000PES00010000001 00000000000000000000000
201603170060000100000000000000024031000000000000000240319600000000033714143609CENTRO-DE-ESTUDIOS-DIGESTIVOS-000000000021500000000000000000000000000000000000000000000000000000000000000000000000000000000000000000000000000000000000PES00010000001 00000000000000000000000
201603170060000100000000000000024032000000000000000240329600000000033714143609CENTRO-DE-ESTUDIOS-DIGESTIVOS-000000000074500000000000000000000000000000000000000000000000000000000000000000000000000000000000000000000000000000000000PES00010000001 00000000000000000000000
201603180060000100000000000000024034000000000000000240349600000000033714143609CENTRO-DE-ESTUDIOS-DIGESTIVOS-000000000123500000000000000000000000000000000000000000000000000000000000000000000000000000000000000000000000000000000000PES00010000001 00000000000000000000000
201603180060000100000000000000024035000000000000000240359600000000033714143609CENTRO-DE-ESTUDIOS-DIGESTIVOS-000000000269800000000000000000000000000000000000000000000000000000000000000000000000000000000000000000000000000000000000PES00010000001 00000000000000000000000
201603180060000100000000000000024036000000000000000240369600000000033714143609CENTRO-DE-ESTUDIOS-DIGESTIVOS-000000000134800000000000000000000000000000000000000000000000000000000000000000000000000000000000000000000000000000000000PES00010000001 00000000000000000000000
201603180060000100000000000000024037000000000000000240379600000000033714143609CENTRO-DE-ESTUDIOS-DIGESTIVOS-000000000023000000000000000000000000000000000000000000000000000000000000000000000000000000000000000000000000000000000000PES00010000001 00000000000000000000000
201603180060000100000000000000024038000000000000000240389600000000033714143609CENTRO-DE-ESTUDIOS-DIGESTIVOS-000000000116000000000000000000000000000000000000000000000000000000000000000000000000000000000000000000000000000000000000PES00010000001 00000000000000000000000
201603180060000100000000000000024039000000000000000240399600000000033714143609CENTRO-DE-ESTUDIOS-DIGESTIVOS-000000000150200000000000000000000000000000000000000000000000000000000000000000000000000000000000000000000000000000000000PES00010000001 00000000000000000000000
201603180060000100000000000000024040000000000000000240409600000000033714143609CENTRO-DE-ESTUDIOS-DIGESTIVOS-000000000100300000000000000000000000000000000000000000000000000000000000000000000000000000000000000000000000000000000000PES00010000001 00000000000000000000000
201603180060000100000000000000024041000000000000000240419600000000033714143609CENTRO-DE-ESTUDIOS-DIGESTIVOS-000000000025000000000000000000000000000000000000000000000000000000000000000000000000000000000000000000000000000000000000PES00010000001 00000000000000000000000
201603180060000100000000000000024042000000000000000240429600000000033714143609CENTRO-DE-ESTUDIOS-DIGESTIVOS-000000000101500000000000000000000000000000000000000000000000000000000000000000000000000000000000000000000000000000000000PES00010000001 00000000000000000000000
201603180060000100000000000000024043000000000000000240439600000000033714143609CENTRO-DE-ESTUDIOS-DIGESTIVOS-000000000089000000000000000000000000000000000000000000000000000000000000000000000000000000000000000000000000000000000000PES00010000001 00000000000000000000000
201603180060000100000000000000024044000000000000000240449600000000033714143609CENTRO-DE-ESTUDIOS-DIGESTIVOS-000000000299500000000000000000000000000000000000000000000000000000000000000000000000000000000000000000000000000000000000PES00010000001 00000000000000000000000
201603180060000100000000000000024045000000000000000240459600000000033714143609CENTRO-DE-ESTUDIOS-DIGESTIVOS-000000000334000000000000000000000000000000000000000000000000000000000000000000000000000000000000000000000000000000000000PES00010000001 00000000000000000000000
201603190060000100000000000000024046000000000000000240469600000000033714143609CENTRO-DE-ESTUDIOS-DIGESTIVOS-000000000062000000000000000000000000000000000000000000000000000000000000000000000000000000000000000000000000000000000000PES00010000001 00000000000000000000000
201603190060000100000000000000024047000000000000000240479600000000033714143609CENTRO-DE-ESTUDIOS-DIGESTIVOS-000000000023000000000000000000000000000000000000000000000000000000000000000000000000000000000000000000000000000000000000PES00010000001 00000000000000000000000
201603190060000100000000000000024048000000000000000240489600000000033714143609CENTRO-DE-ESTUDIOS-DIGESTIVOS-000000000058100000000000000000000000000000000000000000000000000000000000000000000000000000000000000000000000000000000000PES00010000001 00000000000000000000000
201603190060000100000000000000024049000000000000000240499600000000033714143609CENTRO-DE-ESTUDIOS-DIGESTIVOS-000000000069800000000000000000000000000000000000000000000000000000000000000000000000000000000000000000000000000000000000PES00010000001 00000000000000000000000
201603190060000100000000000000024050000000000000000240509600000000033714143609CENTRO-DE-ESTUDIOS-DIGESTIVOS-000000000056000000000000000000000000000000000000000000000000000000000000000000000000000000000000000000000000000000000000PES00010000001 00000000000000000000000
201603190060000100000000000000024051000000000000000240519600000000033714143609CENTRO-DE-ESTUDIOS-DIGESTIVOS-000000000016700000000000000000000000000000000000000000000000000000000000000000000000000000000000000000000000000000000000PES00010000001 00000000000000000000000
201603190060000100000000000000024052000000000000000240529600000000033714143609CENTRO-DE-ESTUDIOS-DIGESTIVOS-000000000066000000000000000000000000000000000000000000000000000000000000000000000000000000000000000000000000000000000000PES00010000001 00000000000000000000000
201603190060000100000000000000024053000000000000000240539600000000033714143609CENTRO-DE-ESTUDIOS-DIGESTIVOS-000000000047000000000000000000000000000000000000000000000000000000000000000000000000000000000000000000000000000000000000PES00010000001 00000000000000000000000
201603190060000100000000000000024054000000000000000240549600000000033714143609CENTRO-DE-ESTUDIOS-DIGESTIVOS-000000000004700000000000000000000000000000000000000000000000000000000000000000000000000000000000000000000000000000000000PES00010000001 00000000000000000000000
201603190060000100000000000000024055000000000000000240559600000000033714143609CENTRO-DE-ESTUDIOS-DIGESTIVOS-000000000057500000000000000000000000000000000000000000000000000000000000000000000000000000000000000000000000000000000000PES00010000001 00000000000000000000000
201603190060000100000000000000024056000000000000000240569600000000033714143609CENTRO-DE-ESTUDIOS-DIGESTIVOS-000000000177300000000000000000000000000000000000000000000000000000000000000000000000000000000000000000000000000000000000PES00010000001 00000000000000000000000
201603190060000100000000000000024057000000000000000240579600000000033714143609CENTRO-DE-ESTUDIOS-DIGESTIVOS-000000000160500000000000000000000000000000000000000000000000000000000000000000000000000000000000000000000000000000000000PES00010000001 00000000000000000000000
201603190060000100000000000000024058000000000000000240589600000000033714143609CENTRO-DE-ESTUDIOS-DIGESTIVOS-000000000144800000000000000000000000000000000000000000000000000000000000000000000000000000000000000000000000000000000000PES00010000001 00000000000000000000000
201603190060000100000000000000024059000000000000000240599600000000033714143609CENTRO-DE-ESTUDIOS-DIGESTIVOS-000000000115800000000000000000000000000000000000000000000000000000000000000000000000000000000000000000000000000000000000PES00010000001 00000000000000000000000
201603190060000100000000000000024060000000000000000240609600000000033714143609CENTRO-DE-ESTUDIOS-DIGESTIVOS-000000000025500000000000000000000000000000000000000000000000000000000000000000000000000000000000000000000000000000000000PES00010000001 00000000000000000000000
201603190060000100000000000000024061000000000000000240619600000000033714143609CENTRO-DE-ESTUDIOS-DIGESTIVOS-000000000075000000000000000000000000000000000000000000000000000000000000000000000000000000000000000000000000000000000000PES00010000001 00000000000000000000000
201603190060000100000000000000024062000000000000000240629600000000033714143609CENTRO-DE-ESTUDIOS-DIGESTIVOS-000000000034700000000000000000000000000000000000000000000000000000000000000000000000000000000000000000000000000000000000PES00010000001 00000000000000000000000
201603190060000100000000000000024063000000000000000240639600000000033714143609CENTRO-DE-ESTUDIOS-DIGESTIVOS-000000000083000000000000000000000000000000000000000000000000000000000000000000000000000000000000000000000000000000000000PES00010000001 00000000000000000000000
201603190060000100000000000000024064000000000000000240649600000000033714143609CENTRO-DE-ESTUDIOS-DIGESTIVOS-000000000262200000000000000000000000000000000000000000000000000000000000000000000000000000000000000000000000000000000000PES00010000001 00000000000000000000000
201603190060000100000000000000024065000000000000000240659600000000033714143609CENTRO-DE-ESTUDIOS-DIGESTIVOS-000000000007500000000000000000000000000000000000000000000000000000000000000000000000000000000000000000000000000000000000PES00010000001 00000000000000000000000
201603190060000100000000000000024066000000000000000240669600000000033714143609CENTRO-DE-ESTUDIOS-DIGESTIVOS-000000000052500000000000000000000000000000000000000000000000000000000000000000000000000000000000000000000000000000000000PES00010000001 00000000000000000000000
201603210060000100000000000000024067000000000000000240679600000000033714143609CENTRO-DE-ESTUDIOS-DIGESTIVOS-000000000216000000000000000000000000000000000000000000000000000000000000000000000000000000000000000000000000000000000000PES00010000001 00000000000000000000000
201603210060000100000000000000024068000000000000000240689600000000033714143609CENTRO-DE-ESTUDIOS-DIGESTIVOS-000000000037800000000000000000000000000000000000000000000000000000000000000000000000000000000000000000000000000000000000PES00010000001 00000000000000000000000
201603210060000100000000000000024069000000000000000240699600000000033714143609CENTRO-DE-ESTUDIOS-DIGESTIVOS-000000000084500000000000000000000000000000000000000000000000000000000000000000000000000000000000000000000000000000000000PES00010000001 00000000000000000000000
201603210060000100000000000000024070000000000000000240709600000000033714143609CENTRO-DE-ESTUDIOS-DIGESTIVOS-000000000018000000000000000000000000000000000000000000000000000000000000000000000000000000000000000000000000000000000000PES00010000001 00000000000000000000000
201603210060000100000000000000024071000000000000000240719600000000033714143609CENTRO-DE-ESTUDIOS-DIGESTIVOS-000000000028500000000000000000000000000000000000000000000000000000000000000000000000000000000000000000000000000000000000PES00010000001 00000000000000000000000
201603210060000100000000000000024072000000000000000240729600000000033714143609CENTRO-DE-ESTUDIOS-DIGESTIVOS-000000000057700000000000000000000000000000000000000000000000000000000000000000000000000000000000000000000000000000000000PES00010000001 00000000000000000000000
201603210060000100000000000000024073000000000000000240739600000000033714143609CENTRO-DE-ESTUDIOS-DIGESTIVOS-000000000055000000000000000000000000000000000000000000000000000000000000000000000000000000000000000000000000000000000000PES00010000001 00000000000000000000000
201603210060000100000000000000024074000000000000000240749600000000033714143609CENTRO-DE-ESTUDIOS-DIGESTIVOS-000000000027500000000000000000000000000000000000000000000000000000000000000000000000000000000000000000000000000000000000PES00010000001 00000000000000000000000
201603220060000100000000000000024075000000000000000240759600000000033714143609CENTRO-DE-ESTUDIOS-DIGESTIVOS-000000000026000000000000000000000000000000000000000000000000000000000000000000000000000000000000000000000000000000000000PES00010000001 00000000000000000000000
201603220060000100000000000000024076000000000000000240769600000000033714143609CENTRO-DE-ESTUDIOS-DIGESTIVOS-000000000011500000000000000000000000000000000000000000000000000000000000000000000000000000000000000000000000000000000000PES00010000001 00000000000000000000000
201603220060000100000000000000024077000000000000000240779600000000033714143609CENTRO-DE-ESTUDIOS-DIGESTIVOS-000000000037500000000000000000000000000000000000000000000000000000000000000000000000000000000000000000000000000000000000PES00010000001 00000000000000000000000
201603220060000100000000000000024078000000000000000240789600000000033714143609CENTRO-DE-ESTUDIOS-DIGESTIVOS-000000000070000000000000000000000000000000000000000000000000000000000000000000000000000000000000000000000000000000000000PES00010000001 00000000000000000000000
201603220060000100000000000000024080000000000000000240809600000000033714143609CENTRO-DE-ESTUDIOS-DIGESTIVOS-000000000075000000000000000000000000000000000000000000000000000000000000000000000000000000000000000000000000000000000000PES00010000001 00000000000000000000000
201603220060000100000000000000024081000000000000000240819600000000033714143609CENTRO-DE-ESTUDIOS-DIGESTIVOS-000000000073500000000000000000000000000000000000000000000000000000000000000000000000000000000000000000000000000000000000PES00010000001 00000000000000000000000
201603220060000100000000000000024082000000000000000240829600000000033714143609CENTRO-DE-ESTUDIOS-DIGESTIVOS-000000000038500000000000000000000000000000000000000000000000000000000000000000000000000000000000000000000000000000000000PES00010000001 00000000000000000000000
201603220060000100000000000000024083000000000000000240839600000000033714143609CENTRO-DE-ESTUDIOS-DIGESTIVOS-000000000023000000000000000000000000000000000000000000000000000000000000000000000000000000000000000000000000000000000000PES00010000001 00000000000000000000000
201603230060000100000000000000024084000000000000000240849600000000033714143609CENTRO-DE-ESTUDIOS-DIGESTIVOS-000000000029000000000000000000000000000000000000000000000000000000000000000000000000000000000000000000000000000000000000PES00010000001 00000000000000000000000
201603230060000100000000000000024085000000000000000240859600000000033714143609CENTRO-DE-ESTUDIOS-DIGESTIVOS-000000000094500000000000000000000000000000000000000000000000000000000000000000000000000000000000000000000000000000000000PES00010000001 00000000000000000000000
201603230060000100000000000000024086000000000000000240869600000000033714143609CENTRO-DE-ESTUDIOS-DIGESTIVOS-000000000152500000000000000000000000000000000000000000000000000000000000000000000000000000000000000000000000000000000000PES00010000001 00000000000000000000000
201603230060000100000000000000024087000000000000000240879600000000033714143609CENTRO-DE-ESTUDIOS-DIGESTIVOS-000000000044500000000000000000000000000000000000000000000000000000000000000000000000000000000000000000000000000000000000PES00010000001 00000000000000000000000
201603230060000100000000000000024088000000000000000240889600000000033714143609CENTRO-DE-ESTUDIOS-DIGESTIVOS-000000000073000000000000000000000000000000000000000000000000000000000000000000000000000000000000000000000000000000000000PES00010000001 00000000000000000000000
201603230060000100000000000000024089000000000000000240899600000000033714143609CENTRO-DE-ESTUDIOS-DIGESTIVOS-000000000037000000000000000000000000000000000000000000000000000000000000000000000000000000000000000000000000000000000000PES00010000001 00000000000000000000000
201603230060000100000000000000024090000000000000000240909600000000033714143609CENTRO-DE-ESTUDIOS-DIGESTIVOS-000000000032000000000000000000000000000000000000000000000000000000000000000000000000000000000000000000000000000000000000PES00010000001 00000000000000000000000
201603230060000100000000000000024091000000000000000240919600000000033714143609CENTRO-DE-ESTUDIOS-DIGESTIVOS-000000000048500000000000000000000000000000000000000000000000000000000000000000000000000000000000000000000000000000000000PES00010000001 00000000000000000000000
201603230060000100000000000000024092000000000000000240929600000000033714143609CENTRO-DE-ESTUDIOS-DIGESTIVOS-000000000018500000000000000000000000000000000000000000000000000000000000000000000000000000000000000000000000000000000000PES00010000001 00000000000000000000000
201603230060000100000000000000024093000000000000000240939600000000033714143609CENTRO-DE-ESTUDIOS-DIGESTIVOS-000000000049500000000000000000000000000000000000000000000000000000000000000000000000000000000000000000000000000000000000PES00010000001 00000000000000000000000
201603230060000100000000000000024094000000000000000240949600000000033714143609CENTRO-DE-ESTUDIOS-DIGESTIVOS-000000000061000000000000000000000000000000000000000000000000000000000000000000000000000000000000000000000000000000000000PES00010000001 00000000000000000000000
201603230060000100000000000000024095000000000000000240959600000000033714143609CENTRO-DE-ESTUDIOS-DIGESTIVOS-000000000075000000000000000000000000000000000000000000000000000000000000000000000000000000000000000000000000000000000000PES00010000001 00000000000000000000000
201603260060000100000000000000024096000000000000000240969600000000033714143609CENTRO-DE-ESTUDIOS-DIGESTIVOS-000000000098500000000000000000000000000000000000000000000000000000000000000000000000000000000000000000000000000000000000PES00010000001 00000000000000000000000
201603260060000100000000000000024097000000000000000240979600000000033714143609CENTRO-DE-ESTUDIOS-DIGESTIVOS-000000000045000000000000000000000000000000000000000000000000000000000000000000000000000000000000000000000000000000000000PES00010000001 00000000000000000000000
201603260060000100000000000000024098000000000000000240989600000000033714143609CENTRO-DE-ESTUDIOS-DIGESTIVOS-000000000064000000000000000000000000000000000000000000000000000000000000000000000000000000000000000000000000000000000000PES00010000001 00000000000000000000000
201603260060000100000000000000024099000000000000000240999600000000033714143609CENTRO-DE-ESTUDIOS-DIGESTIVOS-000000000102800000000000000000000000000000000000000000000000000000000000000000000000000000000000000000000000000000000000PES00010000001 00000000000000000000000
201603260060000100000000000000024100000000000000000241009600000000033714143609CENTRO-DE-ESTUDIOS-DIGESTIVOS-000000000137500000000000000000000000000000000000000000000000000000000000000000000000000000000000000000000000000000000000PES00010000001 00000000000000000000000
201603260060000100000000000000024101000000000000000241019600000000033714143609CENTRO-DE-ESTUDIOS-DIGESTIVOS-000000000167900000000000000000000000000000000000000000000000000000000000000000000000000000000000000000000000000000000000PES00010000001 00000000000000000000000
201603260060000100000000000000024102000000000000000241029600000000033714143609CENTRO-DE-ESTUDIOS-DIGESTIVOS-000000000039300000000000000000000000000000000000000000000000000000000000000000000000000000000000000000000000000000000000PES00010000001 00000000000000000000000
201603260060000100000000000000024103000000000000000241039600000000033714143609CENTRO-DE-ESTUDIOS-DIGESTIVOS-000000000053000000000000000000000000000000000000000000000000000000000000000000000000000000000000000000000000000000000000PES00010000001 00000000000000000000000
201603260060000100000000000000024104000000000000000241049600000000033714143609CENTRO-DE-ESTUDIOS-DIGESTIVOS-000000000024500000000000000000000000000000000000000000000000000000000000000000000000000000000000000000000000000000000000PES00010000001 00000000000000000000000
201603260060000100000000000000024105000000000000000241059600000000033714143609CENTRO-DE-ESTUDIOS-DIGESTIVOS-000000000053000000000000000000000000000000000000000000000000000000000000000000000000000000000000000000000000000000000000PES00010000001 00000000000000000000000
201603280060000100000000000000024106000000000000000241069600000000033714143609CENTRO-DE-ESTUDIOS-DIGESTIVOS-000000000033000000000000000000000000000000000000000000000000000000000000000000000000000000000000000000000000000000000000PES00010000001 00000000000000000000000
201603280060000100000000000000024107000000000000000241079600000000033714143609CENTRO-DE-ESTUDIOS-DIGESTIVOS-000000000015000000000000000000000000000000000000000000000000000000000000000000000000000000000000000000000000000000000000PES00010000001 00000000000000000000000
201603280060000100000000000000024108000000000000000241089600000000033714143609CENTRO-DE-ESTUDIOS-DIGESTIVOS-000000000022500000000000000000000000000000000000000000000000000000000000000000000000000000000000000000000000000000000000PES00010000001 00000000000000000000000
201603280060000100000000000000024109000000000000000241099600000000033714143609CENTRO-DE-ESTUDIOS-DIGESTIVOS-000000000086100000000000000000000000000000000000000000000000000000000000000000000000000000000000000000000000000000000000PES00010000001 00000000000000000000000
201603280060000100000000000000024110000000000000000241109600000000033714143609CENTRO-DE-ESTUDIOS-DIGESTIVOS-000000000116000000000000000000000000000000000000000000000000000000000000000000000000000000000000000000000000000000000000PES00010000001 00000000000000000000000
201603280060000100000000000000024111000000000000000241119600000000033714143609CENTRO-DE-ESTUDIOS-DIGESTIVOS-000000000168000000000000000000000000000000000000000000000000000000000000000000000000000000000000000000000000000000000000PES00010000001 00000000000000000000000
201603280060000100000000000000024112000000000000000241129600000000033714143609CENTRO-DE-ESTUDIOS-DIGESTIVOS-000000000075000000000000000000000000000000000000000000000000000000000000000000000000000000000000000000000000000000000000PES00010000001 00000000000000000000000
201603280060000100000000000000024113000000000000000241139600000000033714143609CENTRO-DE-ESTUDIOS-DIGESTIVOS-000000000370800000000000000000000000000000000000000000000000000000000000000000000000000000000000000000000000000000000000PES00010000001 00000000000000000000000
201603280060000100000000000000024114000000000000000241149600000000033714143609CENTRO-DE-ESTUDIOS-DIGESTIVOS-000000000039000000000000000000000000000000000000000000000000000000000000000000000000000000000000000000000000000000000000PES00010000001 00000000000000000000000
201603290060000100000000000000024115000000000000000241159600000000033714143609CENTRO-DE-ESTUDIOS-DIGESTIVOS-000000000108800000000000000000000000000000000000000000000000000000000000000000000000000000000000000000000000000000000000PES00010000001 00000000000000000000000
201603290060000100000000000000024116000000000000000241169600000000033714143609CENTRO-DE-ESTUDIOS-DIGESTIVOS-000000000022500000000000000000000000000000000000000000000000000000000000000000000000000000000000000000000000000000000000PES00010000001 00000000000000000000000
201603290060000100000000000000024117000000000000000241179600000000033714143609CENTRO-DE-ESTUDIOS-DIGESTIVOS-000000000028000000000000000000000000000000000000000000000000000000000000000000000000000000000000000000000000000000000000PES00010000001 00000000000000000000000
201603290060000100000000000000024118000000000000000241189600000000033714143609CENTRO-DE-ESTUDIOS-DIGESTIVOS-000000000040000000000000000000000000000000000000000000000000000000000000000000000000000000000000000000000000000000000000PES00010000001 00000000000000000000000
201603290060000100000000000000024119000000000000000241199600000000033714143609CENTRO-DE-ESTUDIOS-DIGESTIVOS-000000000078000000000000000000000000000000000000000000000000000000000000000000000000000000000000000000000000000000000000PES00010000001 00000000000000000000000
201603290060000100000000000000024120000000000000000241209600000000033714143609CENTRO-DE-ESTUDIOS-DIGESTIVOS-000000000023000000000000000000000000000000000000000000000000000000000000000000000000000000000000000000000000000000000000PES00010000001 00000000000000000000000
201603300060000100000000000000024121000000000000000241219600000000033714143609CENTRO-DE-ESTUDIOS-DIGESTIVOS-000000000155200000000000000000000000000000000000000000000000000000000000000000000000000000000000000000000000000000000000PES00010000001 00000000000000000000000
201603300060000100000000000000024122000000000000000241229600000000033714143609CENTRO-DE-ESTUDIOS-DIGESTIVOS-000000000147500000000000000000000000000000000000000000000000000000000000000000000000000000000000000000000000000000000000PES00010000001 00000000000000000000000
201603300060000100000000000000024123000000000000000241239600000000033714143609CENTRO-DE-ESTUDIOS-DIGESTIVOS-000000000070200000000000000000000000000000000000000000000000000000000000000000000000000000000000000000000000000000000000PES00010000001 00000000000000000000000
201603300060000100000000000000024124000000000000000241249600000000033714143609CENTRO-DE-ESTUDIOS-DIGESTIVOS-000000000077500000000000000000000000000000000000000000000000000000000000000000000000000000000000000000000000000000000000PES00010000001 00000000000000000000000
201603300060000100000000000000024125000000000000000241259600000000033714143609CENTRO-DE-ESTUDIOS-DIGESTIVOS-000000000101000000000000000000000000000000000000000000000000000000000000000000000000000000000000000000000000000000000000PES00010000001 00000000000000000000000
201603300060000100000000000000024126000000000000000241269600000000033714143609CENTRO-DE-ESTUDIOS-DIGESTIVOS-000000000056500000000000000000000000000000000000000000000000000000000000000000000000000000000000000000000000000000000000PES00010000001 00000000000000000000000
201603310060000100000000000000024127000000000000000241279600000000033714143609CENTRO-DE-ESTUDIOS-DIGESTIVOS-000000000084000000000000000000000000000000000000000000000000000000000000000000000000000000000000000000000000000000000000PES00010000001 00000000000000000000000
201603310060000100000000000000024128000000000000000241289600000000033714143609CENTRO-DE-ESTUDIOS-DIGESTIVOS-000000000015000000000000000000000000000000000000000000000000000000000000000000000000000000000000000000000000000000000000PES00010000001 00000000000000000000000
201603310060000100000000000000024129000000000000000241299600000000033714143609CENTRO-DE-ESTUDIOS-DIGESTIVOS-000000000031000000000000000000000000000000000000000000000000000000000000000000000000000000000000000000000000000000000000PES00010000001 00000000000000000000000
201603310060000100000000000000024130000000000000000241309600000000033714143609CENTRO-DE-ESTUDIOS-DIGESTIVOS-000000000048000000000000000000000000000000000000000000000000000000000000000000000000000000000000000000000000000000000000PES00010000001 00000000000000000000000
201603310060000100000000000000024131000000000000000241319600000000033714143609CENTRO-DE-ESTUDIOS-DIGESTIVOS-000000000045800000000000000000000000000000000000000000000000000000000000000000000000000000000000000000000000000000000000PES00010000001 00000000000000000000000
201603310060000100000000000000024132000000000000000241329600000000033714143609CENTRO-DE-ESTUDIOS-DIGESTIVOS-000000000120500000000000000000000000000000000000000000000000000000000000000000000000000000000000000000000000000000000000PES00010000001 00000000000000000000000
201603310060000100000000000000024133000000000000000241339600000000033714143609CENTRO-DE-ESTUDIOS-DIGESTIVOS-000000000046500000000000000000000000000000000000000000000000000000000000000000000000000000000000000000000000000000000000PES00010000001 00000000000000000000000
201603310060000100000000000000024134000000000000000241349600000000033714143609CENTRO-DE-ESTUDIOS-DIGESTIVOS-000000000087000000000000000000000000000000000000000000000000000000000000000000000000000000000000000000000000000000000000PES00010000001 00000000000000000000000
201603310060000100000000000000024135000000000000000241359600000000033714143609CENTRO-DE-ESTUDIOS-DIGESTIVOS-000000000056500000000000000000000000000000000000000000000000000000000000000000000000000000000000000000000000000000000000PES00010000001 00000000000000000000000

