201502050010000800000000000000034165                8000000000030545726722SOCIEDAD-COOP-POPULAR-LIM-DE  000000000193799000000000000000000000000000000000000000000000000000000000000000000000000000000000000000000000000000000000PES00010000001000000000000000000000000000000000000000000                              000000000000000
201502030010005200000000000000023941                8000000000030583210276MERCATOR-SA                   000000000586097000000000000000000000000000000000000000000000000000000000000000000000000000000000000000000000000000000000PES00010000001000000000000000000000000000000000000000000                              000000000000000
201502030010005200000000000000023490                8000000000030583210276MERCATOR-SA                   000000002375253000000000000000000000000000000000000000000000000000000000000000000000000000000000000000000000000000000000PES00010000001000000000000000000000000000000000000000000                              000000000000000
201502030010000100000000000000006916                8000000000030682810293GLAMUR-SRL                    000000001492542000000000000000000000000000000000000000000000000000000000000000000000000000000000000000000000000000000000PES00010000001000000000000000000000000000000000000000000                              000000000000000
201502050010000300000000000000005303                8000000000030710941854RUMAH-JAVA-SRL                000000000346665000000000000000000000000000000000000000000000000000000000000000000000000000000000000000000000000000000000PES00010000001000000000000000000000000000000000000000000                              000000000000000
201502030010000200000000000000002917                8000000000030708268468ZAIRE-REGALOS-SRL             000000000806534000000000000000000000000000000000000000000000000000000000000000000000000000000000000000000000000000000000PES00010000001000000000000000000000000000000000000000000                              000000000000000
201502030010000200000000000000002918                8000000000030708268468ZAIRE-REGALOS-SRL             000000000070167000000000000000000000000000000000000000000000000000000000000000000000000000000000000000000000000000000000PES00010000001000000000000000000000000000000000000000000                              000000000000000
201502100010000500000000000000000873                8000000000030707309659ALMAZEN-IMPORT-SRL            000000001118403000000000000000000000000000000000000000000000000000000000000000000000000000000000000000000000000000000000PES00010000001000000000000000000000000000000000000000000                              000000000000000
201502060010000100000000000000001850                8000000000030711190895AUSTRAL-ALARMAS-SRL           000000000030250000000000000000000000000000000000000000000000000000000000000000000000000000000000000000000000000000000000PES00010000001000000000000000000000000000000000000000000                              000000000000000
201502050010000100000000000000000004                8000000000030714670618CONDOMINIO-DE-BERSAIS-CESAR-L 000000002662000000000000000000000000000000000000000000000000000000000000000000000000000000000000000000000000000000000000PES00010000001000000000000000000000000000000000000000000                              000000000000000
201502130010000400000000000007769842                8000000000030657864427CAMUZZI-GAS-DEL-SUR           000000000006878000000000000000000000000000000000000000000000000000000000000000000000000000000000000000000000000000000000PES00010000001000000000000000000000000000000000000000000                              000000000000000
201502100010000100000000000020150113                8000000000030639453975TELEFONICA-DE-ARG-SA          000000000069354000000000000000000000000000000000000000000000000000000000000000000000000000000000000000000000000000000000PES00010000001000000000000000000000000000000000000000000                              000000000000000
201502100010000500000000000000000872                8000000000030707309659ALMAZEN-IMPORT-SRL            000000001550845000000000000000000000000000000000000000000000000000000000000000000000000000000000000000000000000000000000PES00010000001000000000000000000000000000000000000000000                              000000000000000
201502110010000200000000000000003832                8000000000030711489165STASSDECO-SA                  000000000030250000000000000000000000000000000000000000000000000000000000000000000000000000000000000000000000000000000000PES00010000001000000000000000000000000000000000000000000                              000000000000000
201502100010000200000000000000003831                8000000000030711489165STASSDECO-SA                  000000000347580000000000000000000000000000000000000000000000000000000000000000000000000000000000000000000000000000000000PES00010000001000000000000000000000000000000000000000000                              000000000000000
201502190010000200000000000000007769                8000000000027160014593GALLARDO-DANIEL               000000000041499000000000000000000000000000000000000000000000000000000000000000000000000000000000000000000000000000000000PES00010000001000000000000000000000000000000000000000000                              000000000000000
201502100010000100000000000000002531                8000000000023161812129GRUPO-ARTE-URBANO             000000000103491000000000000000000000000000000000000000000000000000000000000000000000000000000000000000000000000000000000PES00010000001000000000000000000000000000000000000000000                              000000000000000
201502100010000700000000000000010817                8000000000030710920067SEBSADA-SA                    000000001028149000000000000000000000000000000000000000000000000000000000000000000000000000000000000000000000000000000000PES00010000001000000000000000000000000000000000000000000                              000000000000000
201502020010000300000000000000000122                8000000000020222552134GUSTAVO-A-GARCIA              000000000360000000000000000000000000000000000000000000000000000000000000000000000000000000000000000000000000000000000000PES00010000001000000000000000000000000000000000000000000                              000000000000000
201502130010000400000000000000117967                8000000000030708926155TRANSPORTES-UNION-SA          000000000900137000000000000000000000000000000000000000000000000000000000000000000000000000000000000000000000000000000000PES00010000001000000000000000000000000000000000000000000                              000000000000000
201502130010000100000000000000004461                8000000000033710589149MARWALL-SA                    000000000043754000000000000000000000000000000000000000000000000000000000000000000000000000000000000000000000000000000000PES00010000001000000000000000000000000000000000000000000                              000000000000000
201502180010000500000000000000007383                8000000000030711778302MDK-SRL                       000000000516525000000000000000000000000000000000000000000000000000000000000000000000000000000000000000000000000000000000PES00010000001000000000000000000000000000000000000000000                              000000000000000
201502240010001100000000000000033616                8000000000030670288613DISTRIBUIDORA-LOA-SA          000000000095240000000000000000000000000000000000000000000000000000000000000000000000000000000000000000000000000000000000PES00010000001000000000000000000000000000000000000000000                              000000000000000
201502020010000400000000000000117369                8000000000030708926155TRANSPORTES-UNION-SA          000000000250330000000000000000000000000000000000000000000000000000000000000000000000000000000000000000000000000000000000PES00010000001000000000000000000000000000000000000000000                              000000000000000
201502260010000200000000000000005827                8000000000020126715111ALEJANDRO-LUIS-BUSTOS         000000000025359000000000000000000000000000000000000000000000000000000000000000000000000000000000000000000000000000000000PES00010000001000000000000000000000000000000000000000000                              000000000000000
201502230010000300000000000000010779                8000000000030587479407CERRO-NEVADO-SA               000000001398407000000000000000000000000000000000000000000000000000000000000000000000000000000000000000000000000000000000PES00010000001000000000000000000000000000000000000000000                              000000000000000
201502200010000100000000000000022227                8000000000033708356609PATAGONIACANDLES-SRL          000000000623973000000000000000000000000000000000000000000000000000000000000000000000000000000000000000000000000000000000PES00010000001000000000000000000000000000000000000000000                              000000000000000
201502200010000100000000000000022228                8000000000033708356609PATAGONIACANDLES-SRL          000000000552692000000000000000000000000000000000000000000000000000000000000000000000000000000000000000000000000000000000PES00010000001000000000000000000000000000000000000000000                              000000000000000
201502200010000100000000000000022229                8000000000033708356609PATAGONIACANDLES-SRL          000000000908408000000000000000000000000000000000000000000000000000000000000000000000000000000000000000000000000000000000PES00010000001000000000000000000000000000000000000000000                              000000000000000
201502250010000400000000000000118133                8000000000030708926155TRANSPORTES-UNION-SA          000000000596807000000000000000000000000000000000000000000000000000000000000000000000000000000000000000000000000000000000PES00010000001000000000000000000000000000000000000000000                              000000000000000
201502240010000500000000000000007428                8000000000030711778302MDK-SRL                       000000000401938000000000000000000000000000000000000000000000000000000000000000000000000000000000000000000000000000000000PES00010000001000000000000000000000000000000000000000000                              000000000000000
201502260010000500000000000000007443                8000000000030711778302MDK-SRL                       000000001354791000000000000000000000000000000000000000000000000000000000000000000000000000000000000000000000000000000000PES00010000001000000000000000000000000000000000000000000                              000000000000000
201502270010000400000000000000001549                8000000000030710397283KALIBU-DECORATION-SA          000000000222277000000000000000000000000000000000000000000000000000000000000000000000000000000000000000000000000000000000PES00010000001000000000000000000000000000000000000000000                              000000000000000
