201502190060000100000000000000013680000000000000000136808000000000020179155355CARLOS-SIDELNICK              000000000000100000000000000000000000000000000000000000000000000000000000000000000000000000000000000000000000000000000000PES00010000001 00000000000000000000000
201502190060000100000000000000013681000000000000000136818000000000030643885642ASOCIOCION-EDUCADORES-PATAGONI000000000480000000000000000000000000000000000000000000000000000000000000000000000000000000000000000000000000000000000000PES00010000001 00000000000000000000000
201502020060000100000000000000018196000000000000000181969611111111111111111111CONS-FINAL                    000000000105900000000000000000000000000000000000000000000000000000000000000000000000000000000000000000000000000000000000PES00010000001 00000000000000000000000
201502020060000100000000000000018197000000000000000181979611111111111111111111CONS-FINAL                    000000000098000000000000000000000000000000000000000000000000000000000000000000000000000000000000000000000000000000000000PES00010000001 00000000000000000000000
201502020060000100000000000000018198000000000000000181989611111111111111111111CONS-FINAL                    000000000039900000000000000000000000000000000000000000000000000000000000000000000000000000000000000000000000000000000000PES00010000001 00000000000000000000000
201502020060000100000000000000018199000000000000000181999611111111111111111111CONS-FINAL                    000000000018500000000000000000000000000000000000000000000000000000000000000000000000000000000000000000000000000000000000PES00010000001 00000000000000000000000
201502020060000100000000000000018200000000000000000182009611111111111111111111CONS-FINAL                    000000000057500000000000000000000000000000000000000000000000000000000000000000000000000000000000000000000000000000000000PES00010000001 00000000000000000000000
201502020060000100000000000000018201000000000000000182019611111111111111111111CONS-FINAL                    000000000030000000000000000000000000000000000000000000000000000000000000000000000000000000000000000000000000000000000000PES00010000001 00000000000000000000000
201502020060000100000000000000018202000000000000000182029611111111111111111111CONS-FINAL                    000000000032500000000000000000000000000000000000000000000000000000000000000000000000000000000000000000000000000000000000PES00010000001 00000000000000000000000
201502020060000100000000000000018203000000000000000182039611111111111111111111CONS-FINAL                    000000000031000000000000000000000000000000000000000000000000000000000000000000000000000000000000000000000000000000000000PES00010000001 00000000000000000000000
201502020060000100000000000000018204000000000000000182049611111111111111111111CONS-FINAL                    000000000035000000000000000000000000000000000000000000000000000000000000000000000000000000000000000000000000000000000000PES00010000001 00000000000000000000000
201502020060000100000000000000018205000000000000000182059611111111111111111111CONS-FINAL                    000000000006800000000000000000000000000000000000000000000000000000000000000000000000000000000000000000000000000000000000PES00010000001 00000000000000000000000
201502020060000100000000000000018206000000000000000182069611111111111111111111CONS-FINAL                    000000000038100000000000000000000000000000000000000000000000000000000000000000000000000000000000000000000000000000000000PES00010000001 00000000000000000000000
201502020060000100000000000000018207000000000000000182079611111111111111111111CONS-FINAL                    000000000012500000000000000000000000000000000000000000000000000000000000000000000000000000000000000000000000000000000000PES00010000001 00000000000000000000000
201502020060000100000000000000018208000000000000000182089611111111111111111111CONS-FINAL                    000000000026200000000000000000000000000000000000000000000000000000000000000000000000000000000000000000000000000000000000PES00010000001 00000000000000000000000
201502020060000100000000000000018209000000000000000182099611111111111111111111CONS-FINAL                    000000000038400000000000000000000000000000000000000000000000000000000000000000000000000000000000000000000000000000000000PES00010000001 00000000000000000000000
201502030060000100000000000000018210000000000000000182109611111111111111111111CONS-FINAL                    000000000054500000000000000000000000000000000000000000000000000000000000000000000000000000000000000000000000000000000000PES00010000001 00000000000000000000000
201502030060000100000000000000018211000000000000000182119611111111111111111111CONS-FINAL                    000000000029500000000000000000000000000000000000000000000000000000000000000000000000000000000000000000000000000000000000PES00010000001 00000000000000000000000
201502030060000100000000000000018212000000000000000182129611111111111111111111CONS-FINAL                    000000000019500000000000000000000000000000000000000000000000000000000000000000000000000000000000000000000000000000000000PES00010000001 00000000000000000000000
201502030060000100000000000000018213000000000000000182139611111111111111111111CONS-FINAL                    000000000008500000000000000000000000000000000000000000000000000000000000000000000000000000000000000000000000000000000000PES00010000001 00000000000000000000000
201502030060000100000000000000018214000000000000000182149611111111111111111111CONS-FINAL                    000000000137500000000000000000000000000000000000000000000000000000000000000000000000000000000000000000000000000000000000PES00010000001 00000000000000000000000
201502030060000100000000000000018215000000000000000182159611111111111111111111CONS-FINAL                    000000000031500000000000000000000000000000000000000000000000000000000000000000000000000000000000000000000000000000000000PES00010000001 00000000000000000000000
201502030060000100000000000000018216000000000000000182169611111111111111111111CONS-FINAL                    000000000028000000000000000000000000000000000000000000000000000000000000000000000000000000000000000000000000000000000000PES00010000001 00000000000000000000000
201502030060000100000000000000018217000000000000000182179611111111111111111111CONS-FINAL                    000000000011500000000000000000000000000000000000000000000000000000000000000000000000000000000000000000000000000000000000PES00010000001 00000000000000000000000
201502030060000100000000000000018218000000000000000182189611111111111111111111CONS-FINAL                    000000000018000000000000000000000000000000000000000000000000000000000000000000000000000000000000000000000000000000000000PES00010000001 00000000000000000000000
201502040060000100000000000000018219000000000000000182199611111111111111111111CONS-FINAL                    000000000020700000000000000000000000000000000000000000000000000000000000000000000000000000000000000000000000000000000000PES00010000001 00000000000000000000000
201502040060000100000000000000018220000000000000000182209611111111111111111111CONS-FINAL                    000000000012000000000000000000000000000000000000000000000000000000000000000000000000000000000000000000000000000000000000PES00010000001 00000000000000000000000
201502040060000100000000000000018221000000000000000182219611111111111111111111CONS-FINAL                    000000000027500000000000000000000000000000000000000000000000000000000000000000000000000000000000000000000000000000000000PES00010000001 00000000000000000000000
201502040060000100000000000000018222000000000000000182229611111111111111111111CONS-FINAL                    000000000022500000000000000000000000000000000000000000000000000000000000000000000000000000000000000000000000000000000000PES00010000001 00000000000000000000000
201502040060000100000000000000018223000000000000000182239611111111111111111111CONS-FINAL                    000000000019000000000000000000000000000000000000000000000000000000000000000000000000000000000000000000000000000000000000PES00010000001 00000000000000000000000
201502040060000100000000000000018224000000000000000182249611111111111111111111CONS-FINAL                    000000000138000000000000000000000000000000000000000000000000000000000000000000000000000000000000000000000000000000000000PES00010000001 00000000000000000000000
201502040060000100000000000000018225000000000000000182259611111111111111111111CONS-FINAL                    000000000033800000000000000000000000000000000000000000000000000000000000000000000000000000000000000000000000000000000000PES00010000001 00000000000000000000000
201502040060000100000000000000018226000000000000000182269611111111111111111111CONS-FINAL                    000000000021000000000000000000000000000000000000000000000000000000000000000000000000000000000000000000000000000000000000PES00010000001 00000000000000000000000
201502040060000100000000000000018227000000000000000182279611111111111111111111CONS-FINAL                    000000000019500000000000000000000000000000000000000000000000000000000000000000000000000000000000000000000000000000000000PES00010000001 00000000000000000000000
201502040060000100000000000000018228000000000000000182289611111111111111111111CONS-FINAL                    000000000028500000000000000000000000000000000000000000000000000000000000000000000000000000000000000000000000000000000000PES00010000001 00000000000000000000000
201502040060000100000000000000018229000000000000000182299611111111111111111111CONS-FINAL                    000000000017500000000000000000000000000000000000000000000000000000000000000000000000000000000000000000000000000000000000PES00010000001 00000000000000000000000
201502040060000100000000000000018230000000000000000182309611111111111111111111CONS-FINAL                    000000000017000000000000000000000000000000000000000000000000000000000000000000000000000000000000000000000000000000000000PES00010000001 00000000000000000000000
201502040060000100000000000000018231000000000000000182319611111111111111111111CONS-FINAL                    000000000031000000000000000000000000000000000000000000000000000000000000000000000000000000000000000000000000000000000000PES00010000001 00000000000000000000000
201502040060000100000000000000018232000000000000000182329611111111111111111111CONS-FINAL                    000000000018000000000000000000000000000000000000000000000000000000000000000000000000000000000000000000000000000000000000PES00010000001 00000000000000000000000
201502040060000100000000000000018233000000000000000182339611111111111111111111CONS-FINAL                    000000000132600000000000000000000000000000000000000000000000000000000000000000000000000000000000000000000000000000000000PES00010000001 00000000000000000000000
201502040060000100000000000000018234000000000000000182349611111111111111111111CONS-FINAL                    000000000030000000000000000000000000000000000000000000000000000000000000000000000000000000000000000000000000000000000000PES00010000001 00000000000000000000000
201502040060000100000000000000018235000000000000000182359611111111111111111111CONS-FINAL                    000000000055000000000000000000000000000000000000000000000000000000000000000000000000000000000000000000000000000000000000PES00010000001 00000000000000000000000
201502040060000100000000000000018236000000000000000182369611111111111111111111CONS-FINAL                    000000000013000000000000000000000000000000000000000000000000000000000000000000000000000000000000000000000000000000000000PES00010000001 00000000000000000000000
201502040060000100000000000000018237000000000000000182379611111111111111111111CONS-FINAL                    000000000144000000000000000000000000000000000000000000000000000000000000000000000000000000000000000000000000000000000000PES00010000001 00000000000000000000000
201502040060000100000000000000018238000000000000000182389611111111111111111111CONS-FINAL                    000000000182000000000000000000000000000000000000000000000000000000000000000000000000000000000000000000000000000000000000PES00010000001 00000000000000000000000
201502040060000100000000000000018239000000000000000182399611111111111111111111CONS-FINAL                    000000000021500000000000000000000000000000000000000000000000000000000000000000000000000000000000000000000000000000000000PES00010000001 00000000000000000000000
201502040060000100000000000000018240000000000000000182409611111111111111111111CONS-FINAL                    000000000015000000000000000000000000000000000000000000000000000000000000000000000000000000000000000000000000000000000000PES00010000001 00000000000000000000000
201502040060000100000000000000018241000000000000000182419611111111111111111111CONS-FINAL                    000000000012500000000000000000000000000000000000000000000000000000000000000000000000000000000000000000000000000000000000PES00010000001 00000000000000000000000
201502040060000100000000000000018242000000000000000182429611111111111111111111CONS-FINAL                    000000000049500000000000000000000000000000000000000000000000000000000000000000000000000000000000000000000000000000000000PES00010000001 00000000000000000000000
201502040060000100000000000000018243000000000000000182439611111111111111111111CONS-FINAL                    000000000014000000000000000000000000000000000000000000000000000000000000000000000000000000000000000000000000000000000000PES00010000001 00000000000000000000000
201502040060000100000000000000018244000000000000000182449611111111111111111111CONS-FINAL                    000000000012000000000000000000000000000000000000000000000000000000000000000000000000000000000000000000000000000000000000PES00010000001 00000000000000000000000
201502040060000100000000000000018245000000000000000182459611111111111111111111CONS-FINAL                    000000000009800000000000000000000000000000000000000000000000000000000000000000000000000000000000000000000000000000000000PES00010000001 00000000000000000000000
201502040060000100000000000000018246000000000000000182469611111111111111111111CONS-FINAL                    000000000072500000000000000000000000000000000000000000000000000000000000000000000000000000000000000000000000000000000000PES00010000001 00000000000000000000000
201502040060000100000000000000018247000000000000000182479611111111111111111111CONS-FINAL                    000000000114000000000000000000000000000000000000000000000000000000000000000000000000000000000000000000000000000000000000PES00010000001 00000000000000000000000
201502040060000100000000000000018248000000000000000182489611111111111111111111CONS-FINAL                    000000000071700000000000000000000000000000000000000000000000000000000000000000000000000000000000000000000000000000000000PES00010000001 00000000000000000000000
201502050060000100000000000000018249000000000000000182499611111111111111111111CONS-FINAL                    000000000023500000000000000000000000000000000000000000000000000000000000000000000000000000000000000000000000000000000000PES00010000001 00000000000000000000000
201502050060000100000000000000018250000000000000000182509611111111111111111111CONS-FINAL                    000000000060000000000000000000000000000000000000000000000000000000000000000000000000000000000000000000000000000000000000PES00010000001 00000000000000000000000
201502050060000100000000000000018251000000000000000182519611111111111111111111CONS-FINAL                    000000000054000000000000000000000000000000000000000000000000000000000000000000000000000000000000000000000000000000000000PES00010000001 00000000000000000000000
201502050060000100000000000000018252000000000000000182529611111111111111111111CONS-FINAL                    000000000038000000000000000000000000000000000000000000000000000000000000000000000000000000000000000000000000000000000000PES00010000001 00000000000000000000000
201502050060000100000000000000018253000000000000000182539611111111111111111111CONS-FINAL                    000000000051100000000000000000000000000000000000000000000000000000000000000000000000000000000000000000000000000000000000PES00010000001 00000000000000000000000
201502050060000100000000000000018254000000000000000182549611111111111111111111CONS-FINAL                    000000000022500000000000000000000000000000000000000000000000000000000000000000000000000000000000000000000000000000000000PES00010000001 00000000000000000000000
201502050060000100000000000000018255000000000000000182559611111111111111111111CONS-FINAL                    000000000012500000000000000000000000000000000000000000000000000000000000000000000000000000000000000000000000000000000000PES00010000001 00000000000000000000000
201502050060000100000000000000018256000000000000000182569611111111111111111111CONS-FINAL                    000000000010800000000000000000000000000000000000000000000000000000000000000000000000000000000000000000000000000000000000PES00010000001 00000000000000000000000
201502050060000100000000000000018257000000000000000182579611111111111111111111CONS-FINAL                    000000000010800000000000000000000000000000000000000000000000000000000000000000000000000000000000000000000000000000000000PES00010000001 00000000000000000000000
201502050060000100000000000000018258000000000000000182589611111111111111111111CONS-FINAL                    000000000098000000000000000000000000000000000000000000000000000000000000000000000000000000000000000000000000000000000000PES00010000001 00000000000000000000000
201502050060000100000000000000018259000000000000000182599611111111111111111111CONS-FINAL                    000000000033000000000000000000000000000000000000000000000000000000000000000000000000000000000000000000000000000000000000PES00010000001 00000000000000000000000
201502060060000100000000000000018260000000000000000182609611111111111111111111CONS-FINAL                    000000000030000000000000000000000000000000000000000000000000000000000000000000000000000000000000000000000000000000000000PES00010000001 00000000000000000000000
201502060060000100000000000000018261000000000000000182619611111111111111111111CONS-FINAL                    000000000946400000000000000000000000000000000000000000000000000000000000000000000000000000000000000000000000000000000000PES00010000001 00000000000000000000000
201502060060000100000000000000018262000000000000000182629611111111111111111111CONS-FINAL                    000000000021500000000000000000000000000000000000000000000000000000000000000000000000000000000000000000000000000000000000PES00010000001 00000000000000000000000
201502060060000100000000000000018263000000000000000182639611111111111111111111CONS-FINAL                    000000000021500000000000000000000000000000000000000000000000000000000000000000000000000000000000000000000000000000000000PES00010000001 00000000000000000000000
201502060060000100000000000000018264000000000000000182649611111111111111111111CONS-FINAL                    000000000035800000000000000000000000000000000000000000000000000000000000000000000000000000000000000000000000000000000000PES00010000001 00000000000000000000000
201502060060000100000000000000018265000000000000000182659611111111111111111111CONS-FINAL                    000000000026000000000000000000000000000000000000000000000000000000000000000000000000000000000000000000000000000000000000PES00010000001 00000000000000000000000
201502060060000100000000000000018266000000000000000182669611111111111111111111CONS-FINAL                    000000000023000000000000000000000000000000000000000000000000000000000000000000000000000000000000000000000000000000000000PES00010000001 00000000000000000000000
201502060060000100000000000000018267000000000000000182679611111111111111111111CONS-FINAL                    000000000015000000000000000000000000000000000000000000000000000000000000000000000000000000000000000000000000000000000000PES00010000001 00000000000000000000000
201502060060000100000000000000018268000000000000000182689611111111111111111111CONS-FINAL                    000000000267900000000000000000000000000000000000000000000000000000000000000000000000000000000000000000000000000000000000PES00010000001 00000000000000000000000
201502060060000100000000000000018269000000000000000182699611111111111111111111CONS-FINAL                    000000000003500000000000000000000000000000000000000000000000000000000000000000000000000000000000000000000000000000000000PES00010000001 00000000000000000000000
201502060060000100000000000000018270000000000000000182709611111111111111111111CONS-FINAL                    000000000032500000000000000000000000000000000000000000000000000000000000000000000000000000000000000000000000000000000000PES00010000001 00000000000000000000000
201502060060000100000000000000018271000000000000000182719611111111111111111111CONS-FINAL                    000000000039000000000000000000000000000000000000000000000000000000000000000000000000000000000000000000000000000000000000PES00010000001 00000000000000000000000
201502060060000100000000000000018272000000000000000182729611111111111111111111CONS-FINAL                    000000000060500000000000000000000000000000000000000000000000000000000000000000000000000000000000000000000000000000000000PES00010000001 00000000000000000000000
201502060060000100000000000000018273000000000000000182739611111111111111111111CONS-FINAL                    000000000037000000000000000000000000000000000000000000000000000000000000000000000000000000000000000000000000000000000000PES00010000001 00000000000000000000000
201502060060000100000000000000018274000000000000000182749611111111111111111111CONS-FINAL                    000000000045000000000000000000000000000000000000000000000000000000000000000000000000000000000000000000000000000000000000PES00010000001 00000000000000000000000
201502060060000100000000000000018275000000000000000182759611111111111111111111CONS-FINAL                    000000000033000000000000000000000000000000000000000000000000000000000000000000000000000000000000000000000000000000000000PES00010000001 00000000000000000000000
201502060060000100000000000000018276000000000000000182769611111111111111111111CONS-FINAL                    000000000046500000000000000000000000000000000000000000000000000000000000000000000000000000000000000000000000000000000000PES00010000001 00000000000000000000000
201502060060000100000000000000018277000000000000000182779611111111111111111111CONS-FINAL                    000000000376000000000000000000000000000000000000000000000000000000000000000000000000000000000000000000000000000000000000PES00010000001 00000000000000000000000
201502060060000100000000000000018278000000000000000182789611111111111111111111CONS-FINAL                    000000000066000000000000000000000000000000000000000000000000000000000000000000000000000000000000000000000000000000000000PES00010000001 00000000000000000000000
201502070060000100000000000000018279000000000000000182799611111111111111111111CONS-FINAL                    000000000011500000000000000000000000000000000000000000000000000000000000000000000000000000000000000000000000000000000000PES00010000001 00000000000000000000000
201502070060000100000000000000018280000000000000000182809611111111111111111111CONS-FINAL                    000000000064000000000000000000000000000000000000000000000000000000000000000000000000000000000000000000000000000000000000PES00010000001 00000000000000000000000
201502070060000100000000000000018281000000000000000182819611111111111111111111CONS-FINAL                    000000000052000000000000000000000000000000000000000000000000000000000000000000000000000000000000000000000000000000000000PES00010000001 00000000000000000000000
201502070060000100000000000000018282000000000000000182829611111111111111111111CONS-FINAL                    000000000116000000000000000000000000000000000000000000000000000000000000000000000000000000000000000000000000000000000000PES00010000001 00000000000000000000000
201502070060000100000000000000018283000000000000000182839611111111111111111111CONS-FINAL                    000000000099500000000000000000000000000000000000000000000000000000000000000000000000000000000000000000000000000000000000PES00010000001 00000000000000000000000
201502070060000100000000000000018284000000000000000182849611111111111111111111CONS-FINAL                    000000000013500000000000000000000000000000000000000000000000000000000000000000000000000000000000000000000000000000000000PES00010000001 00000000000000000000000
201502070060000100000000000000018285000000000000000182859611111111111111111111CONS-FINAL                    000000000028500000000000000000000000000000000000000000000000000000000000000000000000000000000000000000000000000000000000PES00010000001 00000000000000000000000
201502070060000100000000000000018286000000000000000182869611111111111111111111CONS-FINAL                    000000000015600000000000000000000000000000000000000000000000000000000000000000000000000000000000000000000000000000000000PES00010000001 00000000000000000000000
201502070060000100000000000000018287000000000000000182879611111111111111111111CONS-FINAL                    000000000043000000000000000000000000000000000000000000000000000000000000000000000000000000000000000000000000000000000000PES00010000001 00000000000000000000000
201502070060000100000000000000018288000000000000000182889611111111111111111111CONS-FINAL                    000000000013000000000000000000000000000000000000000000000000000000000000000000000000000000000000000000000000000000000000PES00010000001 00000000000000000000000
201502070060000100000000000000018289000000000000000182899611111111111111111111CONS-FINAL                    000000000047500000000000000000000000000000000000000000000000000000000000000000000000000000000000000000000000000000000000PES00010000001 00000000000000000000000
201502070060000100000000000000018290000000000000000182909611111111111111111111CONS-FINAL                    000000000149500000000000000000000000000000000000000000000000000000000000000000000000000000000000000000000000000000000000PES00010000001 00000000000000000000000
201502070060000100000000000000018291000000000000000182919611111111111111111111CONS-FINAL                    000000000012500000000000000000000000000000000000000000000000000000000000000000000000000000000000000000000000000000000000PES00010000001 00000000000000000000000
201502070060000100000000000000018292000000000000000182929611111111111111111111CONS-FINAL                    000000000246500000000000000000000000000000000000000000000000000000000000000000000000000000000000000000000000000000000000PES00010000001 00000000000000000000000
201502070060000100000000000000018293000000000000000182939611111111111111111111CONS-FINAL                    000000000073300000000000000000000000000000000000000000000000000000000000000000000000000000000000000000000000000000000000PES00010000001 00000000000000000000000
201502070060000100000000000000018294000000000000000182949611111111111111111111CONS-FINAL                    000000000117000000000000000000000000000000000000000000000000000000000000000000000000000000000000000000000000000000000000PES00010000001 00000000000000000000000
201502070060000100000000000000018295000000000000000182959611111111111111111111CONS-FINAL                    000000000024000000000000000000000000000000000000000000000000000000000000000000000000000000000000000000000000000000000000PES00010000001 00000000000000000000000
201502070060000100000000000000018296000000000000000182969611111111111111111111CONS-FINAL                    000000000022500000000000000000000000000000000000000000000000000000000000000000000000000000000000000000000000000000000000PES00010000001 00000000000000000000000
201502070060000100000000000000018297000000000000000182979611111111111111111111CONS-FINAL                    000000000011000000000000000000000000000000000000000000000000000000000000000000000000000000000000000000000000000000000000PES00010000001 00000000000000000000000
201502070060000100000000000000018298000000000000000182989611111111111111111111CONS-FINAL                    000000000010500000000000000000000000000000000000000000000000000000000000000000000000000000000000000000000000000000000000PES00010000001 00000000000000000000000
201502070060000100000000000000018299000000000000000182999611111111111111111111CONS-FINAL                    000000000052000000000000000000000000000000000000000000000000000000000000000000000000000000000000000000000000000000000000PES00010000001 00000000000000000000000
201502070060000100000000000000018300000000000000000183009611111111111111111111CONS-FINAL                    000000000022000000000000000000000000000000000000000000000000000000000000000000000000000000000000000000000000000000000000PES00010000001 00000000000000000000000
201502070060000100000000000000018301000000000000000183019611111111111111111111CONS-FINAL                    000000000120000000000000000000000000000000000000000000000000000000000000000000000000000000000000000000000000000000000000PES00010000001 00000000000000000000000
201502070060000100000000000000018302000000000000000183029611111111111111111111CONS-FINAL                    000000000061800000000000000000000000000000000000000000000000000000000000000000000000000000000000000000000000000000000000PES00010000001 00000000000000000000000
201502070060000100000000000000018303000000000000000183039611111111111111111111CONS-FINAL                    000000000042100000000000000000000000000000000000000000000000000000000000000000000000000000000000000000000000000000000000PES00010000001 00000000000000000000000
201502070060000100000000000000018304000000000000000183049611111111111111111111CONS-FINAL                    000000000095000000000000000000000000000000000000000000000000000000000000000000000000000000000000000000000000000000000000PES00010000001 00000000000000000000000
201502070060000100000000000000018305000000000000000183059611111111111111111111CONS-FINAL                    000000000125000000000000000000000000000000000000000000000000000000000000000000000000000000000000000000000000000000000000PES00010000001 00000000000000000000000
201502070060000100000000000000018306000000000000000183069611111111111111111111CONS-FINAL                    000000000379500000000000000000000000000000000000000000000000000000000000000000000000000000000000000000000000000000000000PES00010000001 00000000000000000000000
201502070060000100000000000000018307000000000000000183079611111111111111111111CONS-FINAL                    000000000086500000000000000000000000000000000000000000000000000000000000000000000000000000000000000000000000000000000000PES00010000001 00000000000000000000000
201502070060000100000000000000018308000000000000000183089611111111111111111111CONS-FINAL                    000000000055000000000000000000000000000000000000000000000000000000000000000000000000000000000000000000000000000000000000PES00010000001 00000000000000000000000
201502070060000100000000000000018309000000000000000183099611111111111111111111CONS-FINAL                    000000000023500000000000000000000000000000000000000000000000000000000000000000000000000000000000000000000000000000000000PES00010000001 00000000000000000000000
201502090060000100000000000000018310000000000000000183109611111111111111111111CONS-FINAL                    000000000024000000000000000000000000000000000000000000000000000000000000000000000000000000000000000000000000000000000000PES00010000001 00000000000000000000000
201502090060000100000000000000018311000000000000000183119611111111111111111111CONS-FINAL                    000000000032000000000000000000000000000000000000000000000000000000000000000000000000000000000000000000000000000000000000PES00010000001 00000000000000000000000
201502090060000100000000000000018312000000000000000183129611111111111111111111CONS-FINAL                    000000000490000000000000000000000000000000000000000000000000000000000000000000000000000000000000000000000000000000000000PES00010000001 00000000000000000000000
201502090060000100000000000000018313000000000000000183139611111111111111111111CONS-FINAL                    000000000067500000000000000000000000000000000000000000000000000000000000000000000000000000000000000000000000000000000000PES00010000001 00000000000000000000000
201502090060000100000000000000018314000000000000000183149611111111111111111111CONS-FINAL                    000000000017500000000000000000000000000000000000000000000000000000000000000000000000000000000000000000000000000000000000PES00010000001 00000000000000000000000
201502090060000100000000000000018315000000000000000183159611111111111111111111CONS-FINAL                    000000000021000000000000000000000000000000000000000000000000000000000000000000000000000000000000000000000000000000000000PES00010000001 00000000000000000000000
201502090060000100000000000000018316000000000000000183169611111111111111111111CONS-FINAL                    000000000021500000000000000000000000000000000000000000000000000000000000000000000000000000000000000000000000000000000000PES00010000001 00000000000000000000000
201502090060000100000000000000018317000000000000000183179611111111111111111111CONS-FINAL                    000000000066000000000000000000000000000000000000000000000000000000000000000000000000000000000000000000000000000000000000PES00010000001 00000000000000000000000
201502090060000100000000000000018318000000000000000183189611111111111111111111CONS-FINAL                    000000000019500000000000000000000000000000000000000000000000000000000000000000000000000000000000000000000000000000000000PES00010000001 00000000000000000000000
201502090060000100000000000000018319000000000000000183199611111111111111111111CONS-FINAL                    000000000035000000000000000000000000000000000000000000000000000000000000000000000000000000000000000000000000000000000000PES00010000001 00000000000000000000000
201502090060000100000000000000018320000000000000000183209611111111111111111111CONS-FINAL                    000000000061500000000000000000000000000000000000000000000000000000000000000000000000000000000000000000000000000000000000PES00010000001 00000000000000000000000
201502090060000100000000000000018321000000000000000183219611111111111111111111CONS-FINAL                    000000000013600000000000000000000000000000000000000000000000000000000000000000000000000000000000000000000000000000000000PES00010000001 00000000000000000000000
201502090060000100000000000000018322000000000000000183229611111111111111111111CONS-FINAL                    000000000047500000000000000000000000000000000000000000000000000000000000000000000000000000000000000000000000000000000000PES00010000001 00000000000000000000000
201502090060000100000000000000018323000000000000000183239611111111111111111111CONS-FINAL                    000000000081000000000000000000000000000000000000000000000000000000000000000000000000000000000000000000000000000000000000PES00010000001 00000000000000000000000
201502090060000100000000000000018324000000000000000183249611111111111111111111CONS-FINAL                    000000000039500000000000000000000000000000000000000000000000000000000000000000000000000000000000000000000000000000000000PES00010000001 00000000000000000000000
201502090060000100000000000000018325000000000000000183259611111111111111111111CONS-FINAL                    000000000036000000000000000000000000000000000000000000000000000000000000000000000000000000000000000000000000000000000000PES00010000001 00000000000000000000000
201502090060000100000000000000018326000000000000000183269611111111111111111111CONS-FINAL                    000000000040500000000000000000000000000000000000000000000000000000000000000000000000000000000000000000000000000000000000PES00010000001 00000000000000000000000
201502090060000100000000000000018327000000000000000183279611111111111111111111CONS-FINAL                    000000000027500000000000000000000000000000000000000000000000000000000000000000000000000000000000000000000000000000000000PES00010000001 00000000000000000000000
201502090060000100000000000000018328000000000000000183289611111111111111111111CONS-FINAL                    000000000022500000000000000000000000000000000000000000000000000000000000000000000000000000000000000000000000000000000000PES00010000001 00000000000000000000000
201502090060000100000000000000018329000000000000000183299611111111111111111111CONS-FINAL                    000000000033000000000000000000000000000000000000000000000000000000000000000000000000000000000000000000000000000000000000PES00010000001 00000000000000000000000
201502090060000100000000000000018330000000000000000183309611111111111111111111CONS-FINAL                    000000000099800000000000000000000000000000000000000000000000000000000000000000000000000000000000000000000000000000000000PES00010000001 00000000000000000000000
201502090060000100000000000000018331000000000000000183319611111111111111111111CONS-FINAL                    000000000067500000000000000000000000000000000000000000000000000000000000000000000000000000000000000000000000000000000000PES00010000001 00000000000000000000000
201502090060000100000000000000018332000000000000000183329611111111111111111111CONS-FINAL                    000000000016500000000000000000000000000000000000000000000000000000000000000000000000000000000000000000000000000000000000PES00010000001 00000000000000000000000
201502100060000100000000000000018333000000000000000183339611111111111111111111CONS-FINAL                    000000000005000000000000000000000000000000000000000000000000000000000000000000000000000000000000000000000000000000000000PES00010000001 00000000000000000000000
201502100060000100000000000000018334000000000000000183349611111111111111111111CONS-FINAL                    000000000010500000000000000000000000000000000000000000000000000000000000000000000000000000000000000000000000000000000000PES00010000001 00000000000000000000000
201502100060000100000000000000018335000000000000000183359611111111111111111111CONS-FINAL                    000000000097500000000000000000000000000000000000000000000000000000000000000000000000000000000000000000000000000000000000PES00010000001 00000000000000000000000
201502100060000100000000000000018336000000000000000183369611111111111111111111CONS-FINAL                    000000000052000000000000000000000000000000000000000000000000000000000000000000000000000000000000000000000000000000000000PES00010000001 00000000000000000000000
201502100060000100000000000000018337000000000000000183379611111111111111111111CONS-FINAL                    000000000023000000000000000000000000000000000000000000000000000000000000000000000000000000000000000000000000000000000000PES00010000001 00000000000000000000000
201502190060000100000000000000018338000000000000000183389611111111111111111111CONSUMIDOR-FINAL              000000000000100000000000000000000000000000000000000000000000000000000000000000000000000000000000000000000000000000000000PES00010000001 00000000000000000000000
201502190060000100000000000000018339000000000000000183399611111111111111111111CONSUMIDOR-FINAL              000000000016500000000000000000000000000000000000000000000000000000000000000000000000000000000000000000000000000000000000PES00010000001 00000000000000000000000
201502190060000100000000000000018340000000000000000183409611111111111111111111CONSUMIDOR-FINAL              000000000090000000000000000000000000000000000000000000000000000000000000000000000000000000000000000000000000000000000000PES00010000001 00000000000000000000000
201502190060000100000000000000018341000000000000000183419611111111111111111111CONSUMIDOR-FINAL              000000000112100000000000000000000000000000000000000000000000000000000000000000000000000000000000000000000000000000000000PES00010000001 00000000000000000000000
201502190060000100000000000000018342000000000000000183429611111111111111111111CONSUMIDOR-FINAL              000000000026000000000000000000000000000000000000000000000000000000000000000000000000000000000000000000000000000000000000PES00010000001 00000000000000000000000
201502190060000100000000000000018343000000000000000183439611111111111111111111CONSUMIDOR-FINAL              000000000036000000000000000000000000000000000000000000000000000000000000000000000000000000000000000000000000000000000000PES00010000001 00000000000000000000000
201502190060000100000000000000018344000000000000000183449611111111111111111111CONSUMIDOR-FINAL              000000000158000000000000000000000000000000000000000000000000000000000000000000000000000000000000000000000000000000000000PES00010000001 00000000000000000000000
201502190060000100000000000000018345000000000000000183459611111111111111111111CONSUMIDOR-FINAL              000000000030500000000000000000000000000000000000000000000000000000000000000000000000000000000000000000000000000000000000PES00010000001 00000000000000000000000
201502190060000100000000000000018346000000000000000183469611111111111111111111CONSUMIDOR-FINAL              000000000156000000000000000000000000000000000000000000000000000000000000000000000000000000000000000000000000000000000000PES00010000001 00000000000000000000000
201502190060000100000000000000018347000000000000000183479611111111111111111111CONSUMIDOR-FINAL              000000000015500000000000000000000000000000000000000000000000000000000000000000000000000000000000000000000000000000000000PES00010000001 00000000000000000000000
201502190060000100000000000000018348000000000000000183489611111111111111111111CONSUMIDOR-FINAL              000000000112300000000000000000000000000000000000000000000000000000000000000000000000000000000000000000000000000000000000PES00010000001 00000000000000000000000
201502190060000100000000000000018349000000000000000183499611111111111111111111CONSUMIDOR-FINAL              000000000010500000000000000000000000000000000000000000000000000000000000000000000000000000000000000000000000000000000000PES00010000001 00000000000000000000000
201502200060000100000000000000018350000000000000000183509611111111111111111111CONSUMIDOR-FINAL              000000000060000000000000000000000000000000000000000000000000000000000000000000000000000000000000000000000000000000000000PES00010000001 00000000000000000000000
201502200060000100000000000000018351000000000000000183519611111111111111111111CONSUMIDOR-FINAL              000000000046000000000000000000000000000000000000000000000000000000000000000000000000000000000000000000000000000000000000PES00010000001 00000000000000000000000
201502200060000100000000000000018352000000000000000183529611111111111111111111CONSUMIDOR-FINAL              000000000037500000000000000000000000000000000000000000000000000000000000000000000000000000000000000000000000000000000000PES00010000001 00000000000000000000000
201502200060000100000000000000018353000000000000000183539611111111111111111111CONSUMIDOR-FINAL              000000000025500000000000000000000000000000000000000000000000000000000000000000000000000000000000000000000000000000000000PES00010000001 00000000000000000000000
201502200060000100000000000000018354000000000000000183549611111111111111111111CONSUMIDOR-FINAL              000000000209000000000000000000000000000000000000000000000000000000000000000000000000000000000000000000000000000000000000PES00010000001 00000000000000000000000
201502200060000100000000000000018355000000000000000183559611111111111111111111CONSUMIDOR-FINAL              000000000026000000000000000000000000000000000000000000000000000000000000000000000000000000000000000000000000000000000000PES00010000001 00000000000000000000000
201502200060000100000000000000018356000000000000000183569611111111111111111111CONSUMIDOR-FINAL              000000000012700000000000000000000000000000000000000000000000000000000000000000000000000000000000000000000000000000000000PES00010000001 00000000000000000000000
201502200060000100000000000000018357000000000000000183579611111111111111111111CONSUMIDOR-FINAL              000000000000100000000000000000000000000000000000000000000000000000000000000000000000000000000000000000000000000000000000PES00010000001 00000000000000000000000
201502200060000100000000000000018358000000000000000183589611111111111111111111CONSUMIDOR-FINAL              000000000045500000000000000000000000000000000000000000000000000000000000000000000000000000000000000000000000000000000000PES00010000001 00000000000000000000000
201502200060000100000000000000018359000000000000000183599611111111111111111111CONSUMIDOR-FINAL              000000000086000000000000000000000000000000000000000000000000000000000000000000000000000000000000000000000000000000000000PES00010000001 00000000000000000000000
201502200060000100000000000000018360000000000000000183609611111111111111111111CONSUMIDOR-FINAL              000000000027000000000000000000000000000000000000000000000000000000000000000000000000000000000000000000000000000000000000PES00010000001 00000000000000000000000
201502200060000100000000000000018361000000000000000183619611111111111111111111CONSUMIDOR-FINAL              000000000039500000000000000000000000000000000000000000000000000000000000000000000000000000000000000000000000000000000000PES00010000001 00000000000000000000000
201502200060000100000000000000018362000000000000000183629611111111111111111111CONSUMIDOR-FINAL              000000000031500000000000000000000000000000000000000000000000000000000000000000000000000000000000000000000000000000000000PES00010000001 00000000000000000000000
201502200060000100000000000000018363000000000000000183639611111111111111111111CONSUMIDOR-FINAL              000000000030000000000000000000000000000000000000000000000000000000000000000000000000000000000000000000000000000000000000PES00010000001 00000000000000000000000
201502200060000100000000000000018364000000000000000183649611111111111111111111CONSUMIDOR-FINAL              000000000041000000000000000000000000000000000000000000000000000000000000000000000000000000000000000000000000000000000000PES00010000001 00000000000000000000000
201502200060000100000000000000018365000000000000000183659611111111111111111111CONSUMIDOR-FINAL              000000000019000000000000000000000000000000000000000000000000000000000000000000000000000000000000000000000000000000000000PES00010000001 00000000000000000000000
201502200060000100000000000000018366000000000000000183669611111111111111111111CONSUMIDOR-FINAL              000000000019500000000000000000000000000000000000000000000000000000000000000000000000000000000000000000000000000000000000PES00010000001 00000000000000000000000
201502200060000100000000000000018367000000000000000183679611111111111111111111CONSUMIDOR-FINAL              000000000041100000000000000000000000000000000000000000000000000000000000000000000000000000000000000000000000000000000000PES00010000001 00000000000000000000000
201502200060000100000000000000018368000000000000000183689611111111111111111111CONSUMIDOR-FINAL              000000000076000000000000000000000000000000000000000000000000000000000000000000000000000000000000000000000000000000000000PES00010000001 00000000000000000000000
201502200060000100000000000000018369000000000000000183699611111111111111111111CONSUMIDOR-FINAL              000000000069400000000000000000000000000000000000000000000000000000000000000000000000000000000000000000000000000000000000PES00010000001 00000000000000000000000
201502200060000100000000000000018370000000000000000183709611111111111111111111CONSUMIDOR-FINAL              000000000015200000000000000000000000000000000000000000000000000000000000000000000000000000000000000000000000000000000000PES00010000001 00000000000000000000000
201502200060000100000000000000018371000000000000000183719611111111111111111111CONSUMIDOR-FINAL              000000000078100000000000000000000000000000000000000000000000000000000000000000000000000000000000000000000000000000000000PES00010000001 00000000000000000000000
201502200060000100000000000000018372000000000000000183729611111111111111111111CONSUMIDOR-FINAL              000000000065500000000000000000000000000000000000000000000000000000000000000000000000000000000000000000000000000000000000PES00010000001 00000000000000000000000
201502210060000100000000000000018373000000000000000183739611111111111111111111CONSUMIDOR-FINAL              000000000026000000000000000000000000000000000000000000000000000000000000000000000000000000000000000000000000000000000000PES00010000001 00000000000000000000000
201502210060000100000000000000018374000000000000000183749611111111111111111111CONSUMIDOR-FINAL              000000000032500000000000000000000000000000000000000000000000000000000000000000000000000000000000000000000000000000000000PES00010000001 00000000000000000000000
201502210060000100000000000000018375000000000000000183759611111111111111111111CONSUMIDOR-FINAL              000000000067500000000000000000000000000000000000000000000000000000000000000000000000000000000000000000000000000000000000PES00010000001 00000000000000000000000
201502210060000100000000000000018376000000000000000183769611111111111111111111CONSUMIDOR-FINAL              000000000024000000000000000000000000000000000000000000000000000000000000000000000000000000000000000000000000000000000000PES00010000001 00000000000000000000000
201502210060000100000000000000018377000000000000000183779611111111111111111111CONSUMIDOR-FINAL              000000000029400000000000000000000000000000000000000000000000000000000000000000000000000000000000000000000000000000000000PES00010000001 00000000000000000000000
201502210060000100000000000000018378000000000000000183789611111111111111111111CONSUMIDOR-FINAL              000000000019000000000000000000000000000000000000000000000000000000000000000000000000000000000000000000000000000000000000PES00010000001 00000000000000000000000
201502210060000100000000000000018379000000000000000183799611111111111111111111CONSUMIDOR-FINAL              000000000019500000000000000000000000000000000000000000000000000000000000000000000000000000000000000000000000000000000000PES00010000001 00000000000000000000000
201502210060000100000000000000018380000000000000000183809611111111111111111111CONSUMIDOR-FINAL              000000000080800000000000000000000000000000000000000000000000000000000000000000000000000000000000000000000000000000000000PES00010000001 00000000000000000000000
201502210060000100000000000000018381000000000000000183819611111111111111111111CONSUMIDOR-FINAL              000000000115500000000000000000000000000000000000000000000000000000000000000000000000000000000000000000000000000000000000PES00010000001 00000000000000000000000
201502210060000100000000000000018382000000000000000183829611111111111111111111CONSUMIDOR-FINAL              000000000027500000000000000000000000000000000000000000000000000000000000000000000000000000000000000000000000000000000000PES00010000001 00000000000000000000000
201502210060000100000000000000018383000000000000000183839611111111111111111111CONSUMIDOR-FINAL              000000000033000000000000000000000000000000000000000000000000000000000000000000000000000000000000000000000000000000000000PES00010000001 00000000000000000000000
201502210060000100000000000000018384000000000000000183849611111111111111111111CONSUMIDOR-FINAL              000000000028600000000000000000000000000000000000000000000000000000000000000000000000000000000000000000000000000000000000PES00010000001 00000000000000000000000
201502210060000100000000000000018385000000000000000183859611111111111111111111CONSUMIDOR-FINAL              000000000015500000000000000000000000000000000000000000000000000000000000000000000000000000000000000000000000000000000000PES00010000001 00000000000000000000000
201502210060000100000000000000018386000000000000000183869611111111111111111111CONSUMIDOR-FINAL              000000000075000000000000000000000000000000000000000000000000000000000000000000000000000000000000000000000000000000000000PES00010000001 00000000000000000000000
201502210060000100000000000000018387000000000000000183879611111111111111111111CONSUMIDOR-FINAL              000000000059500000000000000000000000000000000000000000000000000000000000000000000000000000000000000000000000000000000000PES00010000001 00000000000000000000000
201502210060000100000000000000018388000000000000000183889611111111111111111111CONSUMIDOR-FINAL              000000000171500000000000000000000000000000000000000000000000000000000000000000000000000000000000000000000000000000000000PES00010000001 00000000000000000000000
201502210060000100000000000000018389000000000000000183899611111111111111111111CONSUMIDOR-FINAL              000000000079000000000000000000000000000000000000000000000000000000000000000000000000000000000000000000000000000000000000PES00010000001 00000000000000000000000
201502210060000100000000000000018390000000000000000183909611111111111111111111CONSUMIDOR-FINAL              000000000030500000000000000000000000000000000000000000000000000000000000000000000000000000000000000000000000000000000000PES00010000001 00000000000000000000000
201502210060000100000000000000018391000000000000000183919611111111111111111111CONSUMIDOR-FINAL              000000000037800000000000000000000000000000000000000000000000000000000000000000000000000000000000000000000000000000000000PES00010000001 00000000000000000000000
201502210060000100000000000000018392000000000000000183929611111111111111111111CONSUMIDOR-FINAL              000000000026000000000000000000000000000000000000000000000000000000000000000000000000000000000000000000000000000000000000PES00010000001 00000000000000000000000
201502210060000100000000000000018393000000000000000183939611111111111111111111CONSUMIDOR-FINAL              000000000034000000000000000000000000000000000000000000000000000000000000000000000000000000000000000000000000000000000000PES00010000001 00000000000000000000000
201502210060000100000000000000018394000000000000000183949611111111111111111111CONSUMIDOR-FINAL              000000000045500000000000000000000000000000000000000000000000000000000000000000000000000000000000000000000000000000000000PES00010000001 00000000000000000000000
201502210060000100000000000000018395000000000000000183959611111111111111111111CONSUMIDOR-FINAL              000000000011500000000000000000000000000000000000000000000000000000000000000000000000000000000000000000000000000000000000PES00010000001 00000000000000000000000
201502210060000100000000000000018396000000000000000183969611111111111111111111CONSUMIDOR-FINAL              000000000059200000000000000000000000000000000000000000000000000000000000000000000000000000000000000000000000000000000000PES00010000001 00000000000000000000000
201502210060000100000000000000018397000000000000000183979611111111111111111111CONSUMIDOR-FINAL              000000000013000000000000000000000000000000000000000000000000000000000000000000000000000000000000000000000000000000000000PES00010000001 00000000000000000000000
201502210060000100000000000000018398000000000000000183989611111111111111111111CONSUMIDOR-FINAL              000000000034500000000000000000000000000000000000000000000000000000000000000000000000000000000000000000000000000000000000PES00010000001 00000000000000000000000
201502210060000100000000000000018399000000000000000183999611111111111111111111CONSUMIDOR-FINAL              000000000047500000000000000000000000000000000000000000000000000000000000000000000000000000000000000000000000000000000000PES00010000001 00000000000000000000000
201502230060000100000000000000018400000000000000000184009611111111111111111111CONSUMIDOR-FINAL              000000000049000000000000000000000000000000000000000000000000000000000000000000000000000000000000000000000000000000000000PES00010000001 00000000000000000000000
201502230060000100000000000000018401000000000000000184019611111111111111111111CONSUMIDOR-FINAL              000000000018200000000000000000000000000000000000000000000000000000000000000000000000000000000000000000000000000000000000PES00010000001 00000000000000000000000
201502230060000100000000000000018402000000000000000184029611111111111111111111CONSUMIDOR-FINAL              000000000077000000000000000000000000000000000000000000000000000000000000000000000000000000000000000000000000000000000000PES00010000001 00000000000000000000000
201502230060000100000000000000018403000000000000000184039611111111111111111111CONSUMIDOR-FINAL              000000000084500000000000000000000000000000000000000000000000000000000000000000000000000000000000000000000000000000000000PES00010000001 00000000000000000000000
201502230060000100000000000000018404000000000000000184049611111111111111111111CONSUMIDOR-FINAL              000000000045600000000000000000000000000000000000000000000000000000000000000000000000000000000000000000000000000000000000PES00010000001 00000000000000000000000
201502230060000100000000000000018405000000000000000184059611111111111111111111CONSUMIDOR-FINAL              000000000034000000000000000000000000000000000000000000000000000000000000000000000000000000000000000000000000000000000000PES00010000001 00000000000000000000000
201502230060000100000000000000018406000000000000000184069611111111111111111111CONSUMIDOR-FINAL              000000000149500000000000000000000000000000000000000000000000000000000000000000000000000000000000000000000000000000000000PES00010000001 00000000000000000000000
201502230060000100000000000000018407000000000000000184079611111111111111111111CONSUMIDOR-FINAL              000000000091600000000000000000000000000000000000000000000000000000000000000000000000000000000000000000000000000000000000PES00010000001 00000000000000000000000
201502230060000100000000000000018408000000000000000184089611111111111111111111CONSUMIDOR-FINAL              000000000010000000000000000000000000000000000000000000000000000000000000000000000000000000000000000000000000000000000000PES00010000001 00000000000000000000000
201502230060000100000000000000018409000000000000000184099611111111111111111111CONSUMIDOR-FINAL              000000000016800000000000000000000000000000000000000000000000000000000000000000000000000000000000000000000000000000000000PES00010000001 00000000000000000000000
201502230060000100000000000000018410000000000000000184109611111111111111111111CONSUMIDOR-FINAL              000000000010400000000000000000000000000000000000000000000000000000000000000000000000000000000000000000000000000000000000PES00010000001 00000000000000000000000
201502230060000100000000000000018411000000000000000184119611111111111111111111CONSUMIDOR-FINAL              000000000006500000000000000000000000000000000000000000000000000000000000000000000000000000000000000000000000000000000000PES00010000001 00000000000000000000000
201502230060000100000000000000018412000000000000000184129611111111111111111111CONSUMIDOR-FINAL              000000000037600000000000000000000000000000000000000000000000000000000000000000000000000000000000000000000000000000000000PES00010000001 00000000000000000000000
201502230060000100000000000000018413000000000000000184139611111111111111111111CONSUMIDOR-FINAL              000000000094000000000000000000000000000000000000000000000000000000000000000000000000000000000000000000000000000000000000PES00010000001 00000000000000000000000
201502240060000100000000000000018415000000000000000184159611111111111111111111CONSUMIDOR-FINAL              000000000275000000000000000000000000000000000000000000000000000000000000000000000000000000000000000000000000000000000000PES00010000001 00000000000000000000000
201502240060000100000000000000018416000000000000000184169611111111111111111111CONSUMIDOR-FINAL              000000000092200000000000000000000000000000000000000000000000000000000000000000000000000000000000000000000000000000000000PES00010000001 00000000000000000000000
201502240060000100000000000000018417000000000000000184179611111111111111111111CONSUMIDOR-FINAL              000000000027500000000000000000000000000000000000000000000000000000000000000000000000000000000000000000000000000000000000PES00010000001 00000000000000000000000
201502240060000100000000000000018418000000000000000184189611111111111111111111CONSUMIDOR-FINAL              000000000203500000000000000000000000000000000000000000000000000000000000000000000000000000000000000000000000000000000000PES00010000001 00000000000000000000000
201502240060000100000000000000018421000000000000000184219611111111111111111111CONSUMIDOR-FINAL              000000000189000000000000000000000000000000000000000000000000000000000000000000000000000000000000000000000000000000000000PES00010000001 00000000000000000000000
201502240060000100000000000000018422000000000000000184229611111111111111111111CONSUMIDOR-FINAL              000000000226200000000000000000000000000000000000000000000000000000000000000000000000000000000000000000000000000000000000PES00010000001 00000000000000000000000
201502240060000100000000000000018423000000000000000184239611111111111111111111CONSUMIDOR-FINAL              000000000072500000000000000000000000000000000000000000000000000000000000000000000000000000000000000000000000000000000000PES00010000001 00000000000000000000000
201502240060000100000000000000018424000000000000000184249611111111111111111111CONSUMIDOR-FINAL              000000000196400000000000000000000000000000000000000000000000000000000000000000000000000000000000000000000000000000000000PES00010000001 00000000000000000000000
201502240060000100000000000000018425000000000000000184259611111111111111111111CONSUMIDOR-FINAL              000000000010500000000000000000000000000000000000000000000000000000000000000000000000000000000000000000000000000000000000PES00010000001 00000000000000000000000
201502240060000100000000000000018426000000000000000184269611111111111111111111CONSUMIDOR-FINAL              000000000083500000000000000000000000000000000000000000000000000000000000000000000000000000000000000000000000000000000000PES00010000001 00000000000000000000000
201502240060000100000000000000018427000000000000000184279611111111111111111111CONSUMIDOR-FINAL              000000000057000000000000000000000000000000000000000000000000000000000000000000000000000000000000000000000000000000000000PES00010000001 00000000000000000000000
201502240060000100000000000000018428000000000000000184289611111111111111111111CONSUMIDOR-FINAL              000000000071000000000000000000000000000000000000000000000000000000000000000000000000000000000000000000000000000000000000PES00010000001 00000000000000000000000
201502240060000100000000000000018429000000000000000184299611111111111111111111CONSUMIDOR-FINAL              000000000116500000000000000000000000000000000000000000000000000000000000000000000000000000000000000000000000000000000000PES00010000001 00000000000000000000000
201502250060000100000000000000018430000000000000000184309611111111111111111111CONSUMIDOR-FINAL              000000000023000000000000000000000000000000000000000000000000000000000000000000000000000000000000000000000000000000000000PES00010000001 00000000000000000000000
201502250060000100000000000000018431000000000000000184319611111111111111111111CONSUMIDOR-FINAL              000000000056700000000000000000000000000000000000000000000000000000000000000000000000000000000000000000000000000000000000PES00010000001 00000000000000000000000
201502250060000100000000000000018432000000000000000184329611111111111111111111CONSUMIDOR-FINAL              000000000024000000000000000000000000000000000000000000000000000000000000000000000000000000000000000000000000000000000000PES00010000001 00000000000000000000000
201502250060000100000000000000018433000000000000000184339611111111111111111111CONSUMIDOR-FINAL              000000000039000000000000000000000000000000000000000000000000000000000000000000000000000000000000000000000000000000000000PES00010000001 00000000000000000000000
201502250060000100000000000000018434000000000000000184349611111111111111111111CONSUMIDOR-FINAL              000000000051500000000000000000000000000000000000000000000000000000000000000000000000000000000000000000000000000000000000PES00010000001 00000000000000000000000
201502250060000100000000000000018435000000000000000184359611111111111111111111CONSUMIDOR-FINAL              000000000019500000000000000000000000000000000000000000000000000000000000000000000000000000000000000000000000000000000000PES00010000001 00000000000000000000000
201502250060000100000000000000018436000000000000000184369611111111111111111111CONSUMIDOR-FINAL              000000000028500000000000000000000000000000000000000000000000000000000000000000000000000000000000000000000000000000000000PES00010000001 00000000000000000000000
201502250060000100000000000000018437000000000000000184379611111111111111111111CONSUMIDOR-FINAL              000000000125300000000000000000000000000000000000000000000000000000000000000000000000000000000000000000000000000000000000PES00010000001 00000000000000000000000
201502250060000100000000000000018438000000000000000184389611111111111111111111CONSUMIDOR-FINAL              000000000045000000000000000000000000000000000000000000000000000000000000000000000000000000000000000000000000000000000000PES00010000001 00000000000000000000000
201502250060000100000000000000018439000000000000000184399611111111111111111111CONSUMIDOR-FINAL              000000000039000000000000000000000000000000000000000000000000000000000000000000000000000000000000000000000000000000000000PES00010000001 00000000000000000000000
201502250060000100000000000000018440000000000000000184409611111111111111111111CONSUMIDOR-FINAL              000000000036500000000000000000000000000000000000000000000000000000000000000000000000000000000000000000000000000000000000PES00010000001 00000000000000000000000
201502250060000100000000000000018441000000000000000184419611111111111111111111CONSUMIDOR-FINAL              000000000184800000000000000000000000000000000000000000000000000000000000000000000000000000000000000000000000000000000000PES00010000001 00000000000000000000000
201502260060000100000000000000018442000000000000000184429611111111111111111111CONSUMIDOR-FINAL              000000000015000000000000000000000000000000000000000000000000000000000000000000000000000000000000000000000000000000000000PES00010000001 00000000000000000000000
201502260060000100000000000000018443000000000000000184439611111111111111111111CONSUMIDOR-FINAL              000000000030000000000000000000000000000000000000000000000000000000000000000000000000000000000000000000000000000000000000PES00010000001 00000000000000000000000
201502260060000100000000000000018444000000000000000184449611111111111111111111CONSUMIDOR-FINAL              000000000014500000000000000000000000000000000000000000000000000000000000000000000000000000000000000000000000000000000000PES00010000001 00000000000000000000000
201502260060000100000000000000018445000000000000000184459611111111111111111111CONSUMIDOR-FINAL              000000000033100000000000000000000000000000000000000000000000000000000000000000000000000000000000000000000000000000000000PES00010000001 00000000000000000000000
201502260060000100000000000000018446000000000000000184469611111111111111111111CONSUMIDOR-FINAL              000000000070800000000000000000000000000000000000000000000000000000000000000000000000000000000000000000000000000000000000PES00010000001 00000000000000000000000
201502260060000100000000000000018447000000000000000184479611111111111111111111CONSUMIDOR-FINAL              000000000029000000000000000000000000000000000000000000000000000000000000000000000000000000000000000000000000000000000000PES00010000001 00000000000000000000000
201502260060000100000000000000018448000000000000000184489611111111111111111111CONSUMIDOR-FINAL              000000000211500000000000000000000000000000000000000000000000000000000000000000000000000000000000000000000000000000000000PES00010000001 00000000000000000000000
201502270060000100000000000000018449000000000000000184499611111111111111111111CONSUMIDOR-FINAL              000000000078000000000000000000000000000000000000000000000000000000000000000000000000000000000000000000000000000000000000PES00010000001 00000000000000000000000
201502270060000100000000000000018450000000000000000184509611111111111111111111CONSUMIDOR-FINAL              000000000059000000000000000000000000000000000000000000000000000000000000000000000000000000000000000000000000000000000000PES00010000001 00000000000000000000000
201502270060000100000000000000018451000000000000000184519611111111111111111111CONSUMIDOR-FINAL              000000000020400000000000000000000000000000000000000000000000000000000000000000000000000000000000000000000000000000000000PES00010000001 00000000000000000000000
201502270060000100000000000000018452000000000000000184529611111111111111111111CONSUMIDOR-FINAL              000000000046000000000000000000000000000000000000000000000000000000000000000000000000000000000000000000000000000000000000PES00010000001 00000000000000000000000
201502270060000100000000000000018453000000000000000184539611111111111111111111CONSUMIDOR-FINAL              000000000054500000000000000000000000000000000000000000000000000000000000000000000000000000000000000000000000000000000000PES00010000001 00000000000000000000000
201502270060000100000000000000018454000000000000000184549611111111111111111111CONSUMIDOR-FINAL              000000000016300000000000000000000000000000000000000000000000000000000000000000000000000000000000000000000000000000000000PES00010000001 00000000000000000000000
201502270060000100000000000000018455000000000000000184559611111111111111111111CONSUMIDOR-FINAL              000000000640000000000000000000000000000000000000000000000000000000000000000000000000000000000000000000000000000000000000PES00010000001 00000000000000000000000
201502270060000100000000000000018456000000000000000184569611111111111111111111CONSUMIDOR-FINAL              000000000071900000000000000000000000000000000000000000000000000000000000000000000000000000000000000000000000000000000000PES00010000001 00000000000000000000000
201502270060000100000000000000018457000000000000000184579611111111111111111111CONSUMIDOR-FINAL              000000000082000000000000000000000000000000000000000000000000000000000000000000000000000000000000000000000000000000000000PES00010000001 00000000000000000000000
201502270060000100000000000000018458000000000000000184589611111111111111111111CONSUMIDOR-FINAL              000000000065000000000000000000000000000000000000000000000000000000000000000000000000000000000000000000000000000000000000PES00010000001 00000000000000000000000
201502270060000100000000000000018459000000000000000184599611111111111111111111CONSUMIDOR-FINAL              000000000044500000000000000000000000000000000000000000000000000000000000000000000000000000000000000000000000000000000000PES00010000001 00000000000000000000000
201502270060000100000000000000018460000000000000000184609611111111111111111111CONSUMIDOR-FINAL              000000000039500000000000000000000000000000000000000000000000000000000000000000000000000000000000000000000000000000000000PES00010000001 00000000000000000000000
201502270060000100000000000000018461000000000000000184619611111111111111111111CONSUMIDOR-FINAL              000000000177000000000000000000000000000000000000000000000000000000000000000000000000000000000000000000000000000000000000PES00010000001 00000000000000000000000
201502270060000100000000000000018462000000000000000184629611111111111111111111CONSUMIDOR-FINAL              000000000038000000000000000000000000000000000000000000000000000000000000000000000000000000000000000000000000000000000000PES00010000001 00000000000000000000000
201502270060000100000000000000018463000000000000000184639611111111111111111111CONSUMIDOR-FINAL              000000000005000000000000000000000000000000000000000000000000000000000000000000000000000000000000000000000000000000000000PES00010000001 00000000000000000000000
201502280060000100000000000000018464000000000000000184649611111111111111111111CONSUMIDOR-FINAL              000000000024100000000000000000000000000000000000000000000000000000000000000000000000000000000000000000000000000000000000PES00010000001 00000000000000000000000
201502280060000100000000000000018465000000000000000184659611111111111111111111CONSUMIDOR-FINAL              000000000035000000000000000000000000000000000000000000000000000000000000000000000000000000000000000000000000000000000000PES00010000001 00000000000000000000000
201502280060000100000000000000018466000000000000000184669611111111111111111111CONSUMIDOR-FINAL              000000000048200000000000000000000000000000000000000000000000000000000000000000000000000000000000000000000000000000000000PES00010000001 00000000000000000000000
201502280060000100000000000000018467000000000000000184679611111111111111111111CONSUMIDOR-FINAL              000000000047000000000000000000000000000000000000000000000000000000000000000000000000000000000000000000000000000000000000PES00010000001 00000000000000000000000
201502280060000100000000000000018468000000000000000184689611111111111111111111CONSUMIDOR-FINAL              000000000018500000000000000000000000000000000000000000000000000000000000000000000000000000000000000000000000000000000000PES00010000001 00000000000000000000000
201502280060000100000000000000018469000000000000000184699611111111111111111111CONSUMIDOR-FINAL              000000000095000000000000000000000000000000000000000000000000000000000000000000000000000000000000000000000000000000000000PES00010000001 00000000000000000000000
201502280060000100000000000000018470000000000000000184709611111111111111111111CONSUMIDOR-FINAL              000000000307400000000000000000000000000000000000000000000000000000000000000000000000000000000000000000000000000000000000PES00010000001 00000000000000000000000
201502280060000100000000000000018471000000000000000184719611111111111111111111CONSUMIDOR-FINAL              000000000026000000000000000000000000000000000000000000000000000000000000000000000000000000000000000000000000000000000000PES00010000001 00000000000000000000000
201502280060000100000000000000018472000000000000000184729611111111111111111111CONSUMIDOR-FINAL              000000000041500000000000000000000000000000000000000000000000000000000000000000000000000000000000000000000000000000000000PES00010000001 00000000000000000000000
201502280060000100000000000000018473000000000000000184739611111111111111111111CONSUMIDOR-FINAL              000000000013500000000000000000000000000000000000000000000000000000000000000000000000000000000000000000000000000000000000PES00010000001 00000000000000000000000
201502280060000100000000000000018474000000000000000184749611111111111111111111CONSUMIDOR-FINAL              000000000127500000000000000000000000000000000000000000000000000000000000000000000000000000000000000000000000000000000000PES00010000001 00000000000000000000000
201502280060000100000000000000018475000000000000000184759611111111111111111111CONSUMIDOR-FINAL              000000000007600000000000000000000000000000000000000000000000000000000000000000000000000000000000000000000000000000000000PES00010000001 00000000000000000000000
201502280060000100000000000000018476000000000000000184769611111111111111111111CONSUMIDOR-FINAL              000000000145000000000000000000000000000000000000000000000000000000000000000000000000000000000000000000000000000000000000PES00010000001 00000000000000000000000
201502280060000100000000000000018477000000000000000184779611111111111111111111CONSUMIDOR-FINAL              000000000038400000000000000000000000000000000000000000000000000000000000000000000000000000000000000000000000000000000000PES00010000001 00000000000000000000000
201502280060000100000000000000018478000000000000000184789611111111111111111111CONSUMIDOR-FINAL              000000000064500000000000000000000000000000000000000000000000000000000000000000000000000000000000000000000000000000000000PES00010000001 00000000000000000000000
201502280060000100000000000000018479000000000000000184799611111111111111111111CONSUMIDOR-FINAL              000000000017000000000000000000000000000000000000000000000000000000000000000000000000000000000000000000000000000000000000PES00010000001 00000000000000000000000
201502280060000100000000000000018480000000000000000184809611111111111111111111CONSUMIDOR-FINAL              000000000073200000000000000000000000000000000000000000000000000000000000000000000000000000000000000000000000000000000000PES00010000001 00000000000000000000000
201502280060000100000000000000018481000000000000000184819611111111111111111111CONSUMIDOR-FINAL              000000000021500000000000000000000000000000000000000000000000000000000000000000000000000000000000000000000000000000000000PES00010000001 00000000000000000000000
201502280060000100000000000000018482000000000000000184829611111111111111111111CONSUMIDOR-FINAL              000000000039000000000000000000000000000000000000000000000000000000000000000000000000000000000000000000000000000000000000PES00010000001 00000000000000000000000
201502280060000100000000000000018483000000000000000184839611111111111111111111CONSUMIDOR-FINAL              000000000014300000000000000000000000000000000000000000000000000000000000000000000000000000000000000000000000000000000000PES00010000001 00000000000000000000000
201502280060000100000000000000018484000000000000000184849611111111111111111111CONSUMIDOR-FINAL              000000000033500000000000000000000000000000000000000000000000000000000000000000000000000000000000000000000000000000000000PES00010000001 00000000000000000000000
201502280060000100000000000000018485000000000000000184859611111111111111111111CONSUMIDOR-FINAL              000000000065200000000000000000000000000000000000000000000000000000000000000000000000000000000000000000000000000000000000PES00010000001 00000000000000000000000
201502280060000100000000000000018486000000000000000184869611111111111111111111CONSUMIDOR-FINAL              000000000050000000000000000000000000000000000000000000000000000000000000000000000000000000000000000000000000000000000000PES00010000001 00000000000000000000000
201502280060000100000000000000018487000000000000000184879611111111111111111111CONSUMIDOR-FINAL              000000000098600000000000000000000000000000000000000000000000000000000000000000000000000000000000000000000000000000000000PES00010000001 00000000000000000000000
201502280060000100000000000000018488000000000000000184889611111111111111111111CONSUMIDOR-FINAL              000000000032500000000000000000000000000000000000000000000000000000000000000000000000000000000000000000000000000000000000PES00010000001 00000000000000000000000
201502240060000100000000000000000024000000000000000000249611111111111111111111CONSUMIDOR-FINAL              000000000234400000000000000000000000000000000000000000000000000000000000000000000000000000000000000000000000000000000000PES00010000001 00000000000000000000000
201502020010000100000000000000000897000000000000000008978000000000033708101899-MAXICON-SRL                  000000000102500000000000000000000000000000000000000000000000000000000000000000000000000000000000000000000000000000000000PES00010000001 00000000000000000000000
201502040010000100000000000000000898000000000000000008988000000000020135642801-BARRIONUEVO-JULIO            000000000047000000000000000000000000000000000000000000000000000000000000000000000000000000000000000000000000000000000000PES00010000001 00000000000000000000000
201502040010000100000000000000000899000000000000000008998000000000020135642801-BARRIONUEVO-JULIO            000000000120000000000000000000000000000000000000000000000000000000000000000000000000000000000000000000000000000000000000PES00010000001 00000000000000000000000
201502050010000100000000000000000900000000000000000009008000000000020140752739ENRIQUE-EDUARDO-VERDE         000000000208200000000000000000000000000000000000000000000000000000000000000000000000000000000000000000000000000000000000PES00010000001 00000000000000000000000
201502060010000100000000000000000901000000000000000009018000000000030707822690-SPA-SER-SRL                  000000000047500000000000000000000000000000000000000000000000000000000000000000000000000000000000000000000000000000000000PES00010000001 00000000000000000000000
201502190010000100000000000000000902000000000000000009028000000000020222550514-CONTE-GRAND-HORACIO          000000000000100000000000000000000000000000000000000000000000000000000000000000000000000000000000000000000000000000000000PES00010000001 00000000000000000000000
201502190010000100000000000000000903000000000000000009038000000000027125938340ELSA-CORDERO                  000000000009500000000000000000000000000000000000000000000000000000000000000000000000000000000000000000000000000000000000PES00010000001 00000000000000000000000
201502190010000100000000000000000904000000000000000009048000000000030558242848DEL-SOL-AUTOMOTOR-SRL         000000000020000000000000000000000000000000000000000000000000000000000000000000000000000000000000000000000000000000000000PES00010000001 00000000000000000000000
201502190010000100000000000000000905000000000000000009058000000000030708926155TRANSUNION-SA                 000000000132200000000000000000000000000000000000000000000000000000000000000000000000000000000000000000000000000000000000PES00010000001 00000000000000000000000
201502200010000100000000000000000906000000000000000009068000000000030648698743NUEZ-CARLOS-Y-NUEZ-ANTOIO     000000000675000000000000000000000000000000000000000000000000000000000000000000000000000000000000000000000000000000000000PES00010000001 00000000000000000000000
201502230010000100000000000000000907000000000000000009078000000000020167573291OJEDA-LIZANDRO-JORGE          000000000017500000000000000000000000000000000000000000000000000000000000000000000000000000000000000000000000000000000000PES00010000001 00000000000000000000000
201502240010000100000000000000000908000000000000000009088000000000030710805802-VICENTE-ALVAREZ-SA           000000000035000000000000000000000000000000000000000000000000000000000000000000000000000000000000000000000000000000000000PES00010000001 00000000000000000000000
201502270010000100000000000000000909000000000000000009098000000000027188578840-ALVARADO-NAYANETT            000000000017000000000000000000000000000000000000000000000000000000000000000000000000000000000000000000000000000000000000PES00010000001 00000000000000000000000
201502280010000100000000000000000910000000000000000009108000000000020181230925-NEIRA-CESAR-                 000000000091500000000000000000000000000000000000000000000000000000000000000000000000000000000000000000000000000000000000PES00010000001 00000000000000000000000

