201512010010000100000000000000001082000000000000000010828000000000027202380056-OJEDA-LILIANA                000000000017500000000000000000000000000000000000000000000000000000000000000000000000000000000000000000000000000000000000PES00010000001 00000000000000000000000
201512030010000100000000000000001083000000000000000010838000000000030691979071-LUCANIA-SRL                  000000000055000000000000000000000000000000000000000000000000000000000000000000000000000000000000000000000000000000000000PES00010000001 00000000000000000000000
201512030010000100000000000000001084000000000000000010848000000000020270200649ROBERTSON-ALEJANDRO           000000000299000000000000000000000000000000000000000000000000000000000000000000000000000000000000000000000000000000000000PES00010000001 00000000000000000000000
201512040010000100000000000000001085000000000000000010858000000000030670239418-MARBAR-SRL                   000000000113100000000000000000000000000000000000000000000000000000000000000000000000000000000000000000000000000000000000PES00010000001 00000000000000000000000
201512040010000100000000000000001086000000000000000010868000000000030710719868PLASTISUR                     000000000802500000000000000000000000000000000000000000000000000000000000000000000000000000000000000000000000000000000000PES00010000001 00000000000000000000000
201512050010000100000000000000001088000000000000000010888000000000020148599441QUELIN-OMAR-REMIGIO           000000000054400000000000000000000000000000000000000000000000000000000000000000000000000000000000000000000000000000000000PES00010000001 00000000000000000000000
201512050010000100000000000000001089000000000000000010898000000000020218718486MANSILLA-MARCELINO-EDUARDO    000000001027900000000000000000000000000000000000000000000000000000000000000000000000000000000000000000000000000000000000PES00010000001 00000000000000000000000
201512050010000100000000000000001090000000000000000010908000000000023308826619-ESPIGA-CRISTIAN-ALEJANDRO    000000000195000000000000000000000000000000000000000000000000000000000000000000000000000000000000000000000000000000000000PES00010000001 00000000000000000000000
201512050010000100000000000000001091000000000000000010918000000000020266330767ROJAS-FERNANDO-OSCAR          000000000028000000000000000000000000000000000000000000000000000000000000000000000000000000000000000000000000000000000000PES00010000001 00000000000000000000000
201512070010000100000000000000001092000000000000000010928000000000020135642321-NIETO-JORGE-JOSE-            000000000339200000000000000000000000000000000000000000000000000000000000000000000000000000000000000000000000000000000000PES00010000001 00000000000000000000000
201512070010000100000000000000001093000000000000000010938000000000030710396899-ESCAPES-NICO-SRL             000000000386000000000000000000000000000000000000000000000000000000000000000000000000000000000000000000000000000000000000PES00010000001 00000000000000000000000
201512080800000100000000000000001094000000000000000010948000000000033714143609CENTRO-DE-ESTUDIOS-DIGESTIVOS-000000000322500000000000000000000000000000000000000000000000000000000000000000000000000000000000000000000000000000000000PES00010000001 00000000000000000000000
201512080010000100000000000000001095000000000000000010958000000000023130334709RUIZ-ANDRES-BENITO            000000000035000000000000000000000000000000000000000000000000000000000000000000000000000000000000000000000000000000000000PES00010000001 00000000000000000000000
201512090010000100000000000000001096000000000000000010968000000000023356592549AGRELO-MARCELO-               000000000124600000000000000000000000000000000000000000000000000000000000000000000000000000000000000000000000000000000000PES00010000001 00000000000000000000000
201512090010000100000000000000001097000000000000000010978000000000023308826619-ESPIGA-CRISTIAN-ALEJANDRO    000000000009500000000000000000000000000000000000000000000000000000000000000000000000000000000000000000000000000000000000PES00010000001 00000000000000000000000
201512100010000100000000000000001098000000000000000010988000000000030670279509CLINICA-DEL-VALLE-SRL         000000001273700000000000000000000000000000000000000000000000000000000000000000000000000000000000000000000000000000000000PES00010000001 00000000000000000000000
201512110010000100000000000000001099000000000000000010998000000000030558242848DEL-SOL-AUTOMOTOR-SRL         000000000054000000000000000000000000000000000000000000000000000000000000000000000000000000000000000000000000000000000000PES00010000001 00000000000000000000000
201512110010000100000000000000001100000000000000000011008000000000030713251808PARADOR-DIEZ-SA               000000000114000000000000000000000000000000000000000000000000000000000000000000000000000000000000000000000000000000000000PES00010000001 00000000000000000000000
201512110010000100000000000000001101000000000000000011018000000000030500852131-AIR-LIQUIDE-ARG-SA           000000000700000000000000000000000000000000000000000000000000000000000000000000000000000000000000000000000000000000000000PES00010000001 00000000000000000000000
201512110010000100000000000000001102000000000000000011028000000000030711987505-BALBO-BIANCO-SRL             000000000055700000000000000000000000000000000000000000000000000000000000000000000000000000000000000000000000000000000000PES00010000001 00000000000000000000000
201512110010000100000000000000001103000000000000000011038000000000020205006231ALTI-RICARDO-CARLOS           000000000017500000000000000000000000000000000000000000000000000000000000000000000000000000000000000000000000000000000000PES00010000001 00000000000000000000000
201512120010000100000000000000001104000000000000000011048000000000020205006231ALTI-RICARDO-CARLOS           000000000022500000000000000000000000000000000000000000000000000000000000000000000000000000000000000000000000000000000000PES00010000001 00000000000000000000000
201512150010000100000000000000001105000000000000000011058000000000030708934409MESETA-SRL                    000000000207000000000000000000000000000000000000000000000000000000000000000000000000000000000000000000000000000000000000PES00010000001 00000000000000000000000
201512160010000100000000000000001106000000000000000011068000000000030707413375-MACRICO-SRL                  000000000129000000000000000000000000000000000000000000000000000000000000000000000000000000000000000000000000000000000000PES00010000001 00000000000000000000000
201512170010000100000000000000001107000000000000000011078000000000020188277390SUCESION-DE-ENRIQUE-EZTEFEN   000000000027500000000000000000000000000000000000000000000000000000000000000000000000000000000000000000000000000000000000PES00010000001 00000000000000000000000
201512180010000100000000000000001108000000000000000011088000000000030707607889ELECTRO-PATAGONIA-SA          000000000993000000000000000000000000000000000000000000000000000000000000000000000000000000000000000000000000000000000000PES00010000001 00000000000000000000000
201512180010000100000000000000001109000000000000000011098000000000033707219519-WINDLAND-SA                  000000000171500000000000000000000000000000000000000000000000000000000000000000000000000000000000000000000000000000000000PES00010000001 00000000000000000000000
201512190010000100000000000000001110000000000000000011108000000000027239051265MARIA-GABRIELA-QUINTANA       000000000140000000000000000000000000000000000000000000000000000000000000000000000000000000000000000000000000000000000000PES00010000001 00000000000000000000000
201512210010000100000000000000001111000000000000000011118000000000030714096822GRAND-PARENTS                 000000000047500000000000000000000000000000000000000000000000000000000000000000000000000000000000000000000000000000000000PES00010000001 00000000000000000000000
201512210010000100000000000000001112000000000000000011128000000000027253978940-DAMBOREARENA-MARIA-LAURA     000000000087000000000000000000000000000000000000000000000000000000000000000000000000000000000000000000000000000000000000PES00010000001 00000000000000000000000
201512210010000100000000000000001113000000000000000011138000000000027190364181-AGUILAR-NANCI-               000000000174000000000000000000000000000000000000000000000000000000000000000000000000000000000000000000000000000000000000PES00010000001 00000000000000000000000
201512210010000100000000000000001114000000000000000011148000000000027190364181-AGUILAR-NANCI-               000000000174000000000000000000000000000000000000000000000000000000000000000000000000000000000000000000000000000000000000PES00010000001 00000000000000000000000
201512220010000100000000000000001115000000000000000011158000000000020160017660FORCHIASIN-DANIEL             000000000286100000000000000000000000000000000000000000000000000000000000000000000000000000000000000000000000000000000000PES00010000001 00000000000000000000000
201512220010000100000000000000001116000000000000000011168000000000030708358734HIDROIL-SRL                   000000000149000000000000000000000000000000000000000000000000000000000000000000000000000000000000000000000000000000000000PES00010000001 00000000000000000000000
201512220010000100000000000000001117000000000000000011178000000000027135120516AGUILERA-ILIAN-SUSANA-        000000000104100000000000000000000000000000000000000000000000000000000000000000000000000000000000000000000000000000000000PES00010000001 00000000000000000000000
201512220010000100000000000000001118000000000000000011188000000000027253978940-DAMBOREARENA-MARIA-LAURA     000000000161500000000000000000000000000000000000000000000000000000000000000000000000000000000000000000000000000000000000PES00010000001 00000000000000000000000
201512230010000100000000000000001119000000000000000011198000000000030571405594-FEADAR-SA                    000000000024000000000000000000000000000000000000000000000000000000000000000000000000000000000000000000000000000000000000PES00010000001 00000000000000000000000
201512230010000100000000000000001120000000000000000011208000000000030710396899-ESCAPES-NICO-SRL             000000000496800000000000000000000000000000000000000000000000000000000000000000000000000000000000000000000000000000000000PES00010000001 00000000000000000000000
201512230010000100000000000000001121000000000000000011218000000000020125939687-GUSTAVO-DIE                  000000000145500000000000000000000000000000000000000000000000000000000000000000000000000000000000000000000000000000000000PES00010000001 00000000000000000000000
201512230010000100000000000000001122000000000000000011228000000000020125939687-GUSTAVO-DIE                  000000000036000000000000000000000000000000000000000000000000000000000000000000000000000000000000000000000000000000000000PES00010000001 00000000000000000000000
201512230010000100000000000000001123000000000000000011238000000000030707413375-MACRICO-SRL                  000000000219000000000000000000000000000000000000000000000000000000000000000000000000000000000000000000000000000000000000PES00010000001 00000000000000000000000
201512230010000100000000000000001124000000000000000011248000000000020361818572MALDONADO-MATIAS              000000000127300000000000000000000000000000000000000000000000000000000000000000000000000000000000000000000000000000000000PES00010000001 00000000000000000000000
201512230010000100000000000000001125000000000000000011258000000000027256193235MALDONADO-ANDREA-ESTER        000000000107800000000000000000000000000000000000000000000000000000000000000000000000000000000000000000000000000000000000PES00010000001 00000000000000000000000
201512240010000100000000000000001126000000000000000011268000000000020266330767ROJAS-FERNANDO-OSCAR          000000000049500000000000000000000000000000000000000000000000000000000000000000000000000000000000000000000000000000000000PES00010000001 00000000000000000000000
201512290010000100000000000000001127000000000000000011278000000000030657589574SERVICIOS-TECNICOS-Y-TERMO-MEC000000000046000000000000000000000000000000000000000000000000000000000000000000000000000000000000000000000000000000000000PES00010000001 00000000000000000000000
201512290010000100000000000000001128000000000000000011288000000000020205006231ALTI-RICARDO-CARLOS           000000000018000000000000000000000000000000000000000000000000000000000000000000000000000000000000000000000000000000000000PES00010000001 00000000000000000000000
201512300010000100000000000000001129000000000000000011298000000000020284669003SANTANDER-LUIS                000000000461000000000000000000000000000000000000000000000000000000000000000000000000000000000000000000000000000000000000PES00010000001 00000000000000000000000
201512310010000100000000000000001130000000000000000011308000000000030707413375-MACRICO-SRL                  000000000115500000000000000000000000000000000000000000000000000000000000000000000000000000000000000000000000000000000000PES00010000001 00000000000000000000000
201512050060000100000000000000013694000000000000000136948000000000030691964783CELI-SA                       000000000600000000000000000000000000000000000000000000000000000000000000000000000000000000000000000000000000000000000000PES00010000001 00000000000000000000000
201512210030000100000000000000000019000000000000000000198000000000033714143609CENTRO-DE-ESTUDIOS-DIGESTIVOS-000000000174000000000000000000000000000000000000000000000000000000000000000000000000000000000000000000000000000000000000PES00010000001 00000000000000000000000
201512010060000100000000000000022180000000000000000221809600000000033714143609CENTRO-DE-ESTUDIOS-DIGESTIVOS-000000000045000000000000000000000000000000000000000000000000000000000000000000000000000000000000000000000000000000000000PES00010000001 00000000000000000000000
201512010060000100000000000000022181000000000000000221819600000000033714143609CENTRO-DE-ESTUDIOS-DIGESTIVOS-000000000040800000000000000000000000000000000000000000000000000000000000000000000000000000000000000000000000000000000000PES00010000001 00000000000000000000000
201512010060000100000000000000022182000000000000000221829600000000033714143609CENTRO-DE-ESTUDIOS-DIGESTIVOS-000000000041500000000000000000000000000000000000000000000000000000000000000000000000000000000000000000000000000000000000PES00010000001 00000000000000000000000
201512010060000100000000000000022183000000000000000221839600000000033714143609CENTRO-DE-ESTUDIOS-DIGESTIVOS-000000000160700000000000000000000000000000000000000000000000000000000000000000000000000000000000000000000000000000000000PES00010000001 00000000000000000000000
201512010060000100000000000000022184000000000000000221849600000000033714143609CENTRO-DE-ESTUDIOS-DIGESTIVOS-000000000021500000000000000000000000000000000000000000000000000000000000000000000000000000000000000000000000000000000000PES00010000001 00000000000000000000000
201512010060000100000000000000022185000000000000000221859600000000033714143609CENTRO-DE-ESTUDIOS-DIGESTIVOS-000000000087000000000000000000000000000000000000000000000000000000000000000000000000000000000000000000000000000000000000PES00010000001 00000000000000000000000
201512010060000100000000000000022186000000000000000221869600000000033714143609CENTRO-DE-ESTUDIOS-DIGESTIVOS-000000000037500000000000000000000000000000000000000000000000000000000000000000000000000000000000000000000000000000000000PES00010000001 00000000000000000000000
201512010060000100000000000000022187000000000000000221879600000000033714143609CENTRO-DE-ESTUDIOS-DIGESTIVOS-000000000054500000000000000000000000000000000000000000000000000000000000000000000000000000000000000000000000000000000000PES00010000001 00000000000000000000000
201512010060000100000000000000022188000000000000000221889600000000033714143609CENTRO-DE-ESTUDIOS-DIGESTIVOS-000000000034500000000000000000000000000000000000000000000000000000000000000000000000000000000000000000000000000000000000PES00010000001 00000000000000000000000
201512010060000100000000000000022189000000000000000221899600000000033714143609CENTRO-DE-ESTUDIOS-DIGESTIVOS-000000000012000000000000000000000000000000000000000000000000000000000000000000000000000000000000000000000000000000000000PES00010000001 00000000000000000000000
201512010060000100000000000000022190000000000000000221909600000000033714143609CENTRO-DE-ESTUDIOS-DIGESTIVOS-000000000009500000000000000000000000000000000000000000000000000000000000000000000000000000000000000000000000000000000000PES00010000001 00000000000000000000000
201512010060000100000000000000022191000000000000000221919600000000033714143609CENTRO-DE-ESTUDIOS-DIGESTIVOS-000000000083500000000000000000000000000000000000000000000000000000000000000000000000000000000000000000000000000000000000PES00010000001 00000000000000000000000
201512010060000100000000000000022192000000000000000221929600000000033714143609CENTRO-DE-ESTUDIOS-DIGESTIVOS-000000000099000000000000000000000000000000000000000000000000000000000000000000000000000000000000000000000000000000000000PES00010000001 00000000000000000000000
201512010060000100000000000000022193000000000000000221939600000000033714143609CENTRO-DE-ESTUDIOS-DIGESTIVOS-000000000125000000000000000000000000000000000000000000000000000000000000000000000000000000000000000000000000000000000000PES00010000001 00000000000000000000000
201512010060000100000000000000022194000000000000000221949600000000033714143609CENTRO-DE-ESTUDIOS-DIGESTIVOS-000000000011000000000000000000000000000000000000000000000000000000000000000000000000000000000000000000000000000000000000PES00010000001 00000000000000000000000
201512010060000100000000000000022195000000000000000221959600000000033714143609CENTRO-DE-ESTUDIOS-DIGESTIVOS-000000000099500000000000000000000000000000000000000000000000000000000000000000000000000000000000000000000000000000000000PES00010000001 00000000000000000000000
201512010060000100000000000000022196000000000000000221969600000000033714143609CENTRO-DE-ESTUDIOS-DIGESTIVOS-000000000058000000000000000000000000000000000000000000000000000000000000000000000000000000000000000000000000000000000000PES00010000001 00000000000000000000000
201512020060000100000000000000022197000000000000000221979600000000033714143609CENTRO-DE-ESTUDIOS-DIGESTIVOS-000000000067500000000000000000000000000000000000000000000000000000000000000000000000000000000000000000000000000000000000PES00010000001 00000000000000000000000
201512020060000100000000000000022198000000000000000221989600000000033714143609CENTRO-DE-ESTUDIOS-DIGESTIVOS-000000000080000000000000000000000000000000000000000000000000000000000000000000000000000000000000000000000000000000000000PES00010000001 00000000000000000000000
201512020060000100000000000000022199000000000000000221999600000000033714143609CENTRO-DE-ESTUDIOS-DIGESTIVOS-000000000030000000000000000000000000000000000000000000000000000000000000000000000000000000000000000000000000000000000000PES00010000001 00000000000000000000000
201512020060000100000000000000022200000000000000000222009600000000033714143609CENTRO-DE-ESTUDIOS-DIGESTIVOS-000000000039500000000000000000000000000000000000000000000000000000000000000000000000000000000000000000000000000000000000PES00010000001 00000000000000000000000
201512020060000100000000000000022201000000000000000222019600000000033714143609CENTRO-DE-ESTUDIOS-DIGESTIVOS-000000000218800000000000000000000000000000000000000000000000000000000000000000000000000000000000000000000000000000000000PES00010000001 00000000000000000000000
201512020060000100000000000000022202000000000000000222029600000000033714143609CENTRO-DE-ESTUDIOS-DIGESTIVOS-000000000006000000000000000000000000000000000000000000000000000000000000000000000000000000000000000000000000000000000000PES00010000001 00000000000000000000000
201512020060000100000000000000022203000000000000000222039600000000033714143609CENTRO-DE-ESTUDIOS-DIGESTIVOS-000000000247000000000000000000000000000000000000000000000000000000000000000000000000000000000000000000000000000000000000PES00010000001 00000000000000000000000
201512020060000100000000000000022204000000000000000222049600000000033714143609CENTRO-DE-ESTUDIOS-DIGESTIVOS-000000000047500000000000000000000000000000000000000000000000000000000000000000000000000000000000000000000000000000000000PES00010000001 00000000000000000000000
201512020060000100000000000000022205000000000000000222059600000000033714143609CENTRO-DE-ESTUDIOS-DIGESTIVOS-000000000068500000000000000000000000000000000000000000000000000000000000000000000000000000000000000000000000000000000000PES00010000001 00000000000000000000000
201512020060000100000000000000022206000000000000000222069600000000033714143609CENTRO-DE-ESTUDIOS-DIGESTIVOS-000000000029500000000000000000000000000000000000000000000000000000000000000000000000000000000000000000000000000000000000PES00010000001 00000000000000000000000
201512020060000100000000000000022207000000000000000222079600000000033714143609CENTRO-DE-ESTUDIOS-DIGESTIVOS-000000000039000000000000000000000000000000000000000000000000000000000000000000000000000000000000000000000000000000000000PES00010000001 00000000000000000000000
201512020060000100000000000000022208000000000000000222089600000000033714143609CENTRO-DE-ESTUDIOS-DIGESTIVOS-000000000032000000000000000000000000000000000000000000000000000000000000000000000000000000000000000000000000000000000000PES00010000001 00000000000000000000000
201512020060000100000000000000022209000000000000000222099600000000033714143609CENTRO-DE-ESTUDIOS-DIGESTIVOS-000000000184000000000000000000000000000000000000000000000000000000000000000000000000000000000000000000000000000000000000PES00010000001 00000000000000000000000
201512020060000100000000000000022210000000000000000222109600000000033714143609CENTRO-DE-ESTUDIOS-DIGESTIVOS-000000000049500000000000000000000000000000000000000000000000000000000000000000000000000000000000000000000000000000000000PES00010000001 00000000000000000000000
201512030060000100000000000000022211000000000000000222119600000000033714143609CENTRO-DE-ESTUDIOS-DIGESTIVOS-000000000034000000000000000000000000000000000000000000000000000000000000000000000000000000000000000000000000000000000000PES00010000001 00000000000000000000000
201512030060000100000000000000022212000000000000000222129600000000033714143609CENTRO-DE-ESTUDIOS-DIGESTIVOS-000000000134500000000000000000000000000000000000000000000000000000000000000000000000000000000000000000000000000000000000PES00010000001 00000000000000000000000
201512030060000100000000000000022213000000000000000222139600000000033714143609CENTRO-DE-ESTUDIOS-DIGESTIVOS-000000000088500000000000000000000000000000000000000000000000000000000000000000000000000000000000000000000000000000000000PES00010000001 00000000000000000000000
201512030060000100000000000000022214000000000000000222149600000000033714143609CENTRO-DE-ESTUDIOS-DIGESTIVOS-000000000126300000000000000000000000000000000000000000000000000000000000000000000000000000000000000000000000000000000000PES00010000001 00000000000000000000000
201512030060000100000000000000022215000000000000000222159600000000033714143609CENTRO-DE-ESTUDIOS-DIGESTIVOS-000000000017500000000000000000000000000000000000000000000000000000000000000000000000000000000000000000000000000000000000PES00010000001 00000000000000000000000
201512030060000100000000000000022216000000000000000222169600000000033714143609CENTRO-DE-ESTUDIOS-DIGESTIVOS-000000000031500000000000000000000000000000000000000000000000000000000000000000000000000000000000000000000000000000000000PES00010000001 00000000000000000000000
201512030060000100000000000000022217000000000000000222179600000000033714143609CENTRO-DE-ESTUDIOS-DIGESTIVOS-000000000049000000000000000000000000000000000000000000000000000000000000000000000000000000000000000000000000000000000000PES00010000001 00000000000000000000000
201512030060000100000000000000022218000000000000000222189600000000033714143609CENTRO-DE-ESTUDIOS-DIGESTIVOS-000000000006000000000000000000000000000000000000000000000000000000000000000000000000000000000000000000000000000000000000PES00010000001 00000000000000000000000
201512030060000100000000000000022219000000000000000222199600000000033714143609CENTRO-DE-ESTUDIOS-DIGESTIVOS-000000000081500000000000000000000000000000000000000000000000000000000000000000000000000000000000000000000000000000000000PES00010000001 00000000000000000000000
201512030060000100000000000000022220000000000000000222209600000000033714143609CENTRO-DE-ESTUDIOS-DIGESTIVOS-000000000035000000000000000000000000000000000000000000000000000000000000000000000000000000000000000000000000000000000000PES00010000001 00000000000000000000000
201512030060000100000000000000022221000000000000000222219600000000033714143609CENTRO-DE-ESTUDIOS-DIGESTIVOS-000000000013000000000000000000000000000000000000000000000000000000000000000000000000000000000000000000000000000000000000PES00010000001 00000000000000000000000
201512030060000100000000000000022222000000000000000222229600000000033714143609CENTRO-DE-ESTUDIOS-DIGESTIVOS-000000000015200000000000000000000000000000000000000000000000000000000000000000000000000000000000000000000000000000000000PES00010000001 00000000000000000000000
201512030060000100000000000000022223000000000000000222239600000000033714143609CENTRO-DE-ESTUDIOS-DIGESTIVOS-000000000013000000000000000000000000000000000000000000000000000000000000000000000000000000000000000000000000000000000000PES00010000001 00000000000000000000000
201512030060000100000000000000022224000000000000000222249600000000033714143609CENTRO-DE-ESTUDIOS-DIGESTIVOS-000000000169500000000000000000000000000000000000000000000000000000000000000000000000000000000000000000000000000000000000PES00010000001 00000000000000000000000
201512030060000100000000000000022225000000000000000222259600000000033714143609CENTRO-DE-ESTUDIOS-DIGESTIVOS-000000000059500000000000000000000000000000000000000000000000000000000000000000000000000000000000000000000000000000000000PES00010000001 00000000000000000000000
201512030060000100000000000000022226000000000000000222269600000000033714143609CENTRO-DE-ESTUDIOS-DIGESTIVOS-000000000024100000000000000000000000000000000000000000000000000000000000000000000000000000000000000000000000000000000000PES00010000001 00000000000000000000000
201512030060000100000000000000022227000000000000000222279600000000033714143609CENTRO-DE-ESTUDIOS-DIGESTIVOS-000000000114000000000000000000000000000000000000000000000000000000000000000000000000000000000000000000000000000000000000PES00010000001 00000000000000000000000
201512030060000100000000000000022228000000000000000222289600000000033714143609CENTRO-DE-ESTUDIOS-DIGESTIVOS-000000000130000000000000000000000000000000000000000000000000000000000000000000000000000000000000000000000000000000000000PES00010000001 00000000000000000000000
201512030060000100000000000000022229000000000000000222299600000000033714143609CENTRO-DE-ESTUDIOS-DIGESTIVOS-000000000055000000000000000000000000000000000000000000000000000000000000000000000000000000000000000000000000000000000000PES00010000001 00000000000000000000000
201512030060000100000000000000022230000000000000000222309600000000033714143609CENTRO-DE-ESTUDIOS-DIGESTIVOS-000000000045800000000000000000000000000000000000000000000000000000000000000000000000000000000000000000000000000000000000PES00010000001 00000000000000000000000
201512030060000100000000000000022231000000000000000222319600000000033714143609CENTRO-DE-ESTUDIOS-DIGESTIVOS-000000000025000000000000000000000000000000000000000000000000000000000000000000000000000000000000000000000000000000000000PES00010000001 00000000000000000000000
201512030060000100000000000000022232000000000000000222329600000000033714143609CENTRO-DE-ESTUDIOS-DIGESTIVOS-000000000056500000000000000000000000000000000000000000000000000000000000000000000000000000000000000000000000000000000000PES00010000001 00000000000000000000000
201512030060000100000000000000022233000000000000000222339600000000033714143609CENTRO-DE-ESTUDIOS-DIGESTIVOS-000000000042000000000000000000000000000000000000000000000000000000000000000000000000000000000000000000000000000000000000PES00010000001 00000000000000000000000
201512030060000100000000000000022234000000000000000222349600000000033714143609CENTRO-DE-ESTUDIOS-DIGESTIVOS-000000000079500000000000000000000000000000000000000000000000000000000000000000000000000000000000000000000000000000000000PES00010000001 00000000000000000000000
201512030060000100000000000000022235000000000000000222359600000000033714143609CENTRO-DE-ESTUDIOS-DIGESTIVOS-000000000053000000000000000000000000000000000000000000000000000000000000000000000000000000000000000000000000000000000000PES00010000001 00000000000000000000000
201512030060000100000000000000022236000000000000000222369600000000033714143609CENTRO-DE-ESTUDIOS-DIGESTIVOS-000000000110000000000000000000000000000000000000000000000000000000000000000000000000000000000000000000000000000000000000PES00010000001 00000000000000000000000
201512030060000100000000000000022237000000000000000222379600000000033714143609CENTRO-DE-ESTUDIOS-DIGESTIVOS-000000000145000000000000000000000000000000000000000000000000000000000000000000000000000000000000000000000000000000000000PES00010000001 00000000000000000000000
201512030060000100000000000000022238000000000000000222389600000000033714143609CENTRO-DE-ESTUDIOS-DIGESTIVOS-000000000402000000000000000000000000000000000000000000000000000000000000000000000000000000000000000000000000000000000000PES00010000001 00000000000000000000000
201512040060000100000000000000022239000000000000000222399600000000033714143609CENTRO-DE-ESTUDIOS-DIGESTIVOS-000000001026500000000000000000000000000000000000000000000000000000000000000000000000000000000000000000000000000000000000PES00010000001 00000000000000000000000
201512040060000100000000000000022240000000000000000222409600000000033714143609CENTRO-DE-ESTUDIOS-DIGESTIVOS-000000000028500000000000000000000000000000000000000000000000000000000000000000000000000000000000000000000000000000000000PES00010000001 00000000000000000000000
201512040060000100000000000000022241000000000000000222419600000000033714143609CENTRO-DE-ESTUDIOS-DIGESTIVOS-000000000058300000000000000000000000000000000000000000000000000000000000000000000000000000000000000000000000000000000000PES00010000001 00000000000000000000000
201512040060000100000000000000022242000000000000000222429600000000033714143609CENTRO-DE-ESTUDIOS-DIGESTIVOS-000000000034500000000000000000000000000000000000000000000000000000000000000000000000000000000000000000000000000000000000PES00010000001 00000000000000000000000
201512040060000100000000000000022243000000000000000222439600000000033714143609CENTRO-DE-ESTUDIOS-DIGESTIVOS-000000000096500000000000000000000000000000000000000000000000000000000000000000000000000000000000000000000000000000000000PES00010000001 00000000000000000000000
201512040060000100000000000000022244000000000000000222449600000000033714143609CENTRO-DE-ESTUDIOS-DIGESTIVOS-000000000028000000000000000000000000000000000000000000000000000000000000000000000000000000000000000000000000000000000000PES00010000001 00000000000000000000000
201512040060000100000000000000022245000000000000000222459600000000033714143609CENTRO-DE-ESTUDIOS-DIGESTIVOS-000000000018000000000000000000000000000000000000000000000000000000000000000000000000000000000000000000000000000000000000PES00010000001 00000000000000000000000
201512040060000100000000000000022246000000000000000222469600000000033714143609CENTRO-DE-ESTUDIOS-DIGESTIVOS-000000000085100000000000000000000000000000000000000000000000000000000000000000000000000000000000000000000000000000000000PES00010000001 00000000000000000000000
201512040060000100000000000000022247000000000000000222479600000000033714143609CENTRO-DE-ESTUDIOS-DIGESTIVOS-000000000004000000000000000000000000000000000000000000000000000000000000000000000000000000000000000000000000000000000000PES00010000001 00000000000000000000000
201512040060000100000000000000022248000000000000000222489600000000033714143609CENTRO-DE-ESTUDIOS-DIGESTIVOS-000000000312000000000000000000000000000000000000000000000000000000000000000000000000000000000000000000000000000000000000PES00010000001 00000000000000000000000
201512040060000100000000000000022249000000000000000222499600000000033714143609CENTRO-DE-ESTUDIOS-DIGESTIVOS-000000000015000000000000000000000000000000000000000000000000000000000000000000000000000000000000000000000000000000000000PES00010000001 00000000000000000000000
201512040060000100000000000000022250000000000000000222509600000000033714143609CENTRO-DE-ESTUDIOS-DIGESTIVOS-000000000059000000000000000000000000000000000000000000000000000000000000000000000000000000000000000000000000000000000000PES00010000001 00000000000000000000000
201512040060000100000000000000022251000000000000000222519600000000033714143609CENTRO-DE-ESTUDIOS-DIGESTIVOS-000000000009500000000000000000000000000000000000000000000000000000000000000000000000000000000000000000000000000000000000PES00010000001 00000000000000000000000
201512040060000100000000000000022252000000000000000222529600000000033714143609CENTRO-DE-ESTUDIOS-DIGESTIVOS-000000000095000000000000000000000000000000000000000000000000000000000000000000000000000000000000000000000000000000000000PES00010000001 00000000000000000000000
201512040060000100000000000000022253000000000000000222539600000000033714143609CENTRO-DE-ESTUDIOS-DIGESTIVOS-000000000035000000000000000000000000000000000000000000000000000000000000000000000000000000000000000000000000000000000000PES00010000001 00000000000000000000000
201512040060000100000000000000022254000000000000000222549600000000033714143609CENTRO-DE-ESTUDIOS-DIGESTIVOS-000000000019600000000000000000000000000000000000000000000000000000000000000000000000000000000000000000000000000000000000PES00010000001 00000000000000000000000
201512040060000100000000000000022255000000000000000222559600000000033714143609CENTRO-DE-ESTUDIOS-DIGESTIVOS-000000000180600000000000000000000000000000000000000000000000000000000000000000000000000000000000000000000000000000000000PES00010000001 00000000000000000000000
201512040060000100000000000000022256000000000000000222569600000000033714143609CENTRO-DE-ESTUDIOS-DIGESTIVOS-000000000037300000000000000000000000000000000000000000000000000000000000000000000000000000000000000000000000000000000000PES00010000001 00000000000000000000000
201512040060000100000000000000022257000000000000000222579600000000033714143609CENTRO-DE-ESTUDIOS-DIGESTIVOS-000000000038000000000000000000000000000000000000000000000000000000000000000000000000000000000000000000000000000000000000PES00010000001 00000000000000000000000
201512040060000100000000000000022258000000000000000222589600000000033714143609CENTRO-DE-ESTUDIOS-DIGESTIVOS-000000000076500000000000000000000000000000000000000000000000000000000000000000000000000000000000000000000000000000000000PES00010000001 00000000000000000000000
201512040060000100000000000000022259000000000000000222599600000000033714143609CENTRO-DE-ESTUDIOS-DIGESTIVOS-000000000088400000000000000000000000000000000000000000000000000000000000000000000000000000000000000000000000000000000000PES00010000001 00000000000000000000000
201512040060000100000000000000022260000000000000000222609600000000033714143609CENTRO-DE-ESTUDIOS-DIGESTIVOS-000000000156500000000000000000000000000000000000000000000000000000000000000000000000000000000000000000000000000000000000PES00010000001 00000000000000000000000
201512040060000100000000000000022261000000000000000222619600000000033714143609CENTRO-DE-ESTUDIOS-DIGESTIVOS-000000000027500000000000000000000000000000000000000000000000000000000000000000000000000000000000000000000000000000000000PES00010000001 00000000000000000000000
201512040060000100000000000000022262000000000000000222629600000000033714143609CENTRO-DE-ESTUDIOS-DIGESTIVOS-000000000037000000000000000000000000000000000000000000000000000000000000000000000000000000000000000000000000000000000000PES00010000001 00000000000000000000000
201512040060000100000000000000022263000000000000000222639600000000033714143609CENTRO-DE-ESTUDIOS-DIGESTIVOS-000000000187000000000000000000000000000000000000000000000000000000000000000000000000000000000000000000000000000000000000PES00010000001 00000000000000000000000
201512040060000100000000000000022264000000000000000222649600000000033714143609CENTRO-DE-ESTUDIOS-DIGESTIVOS-000000000192000000000000000000000000000000000000000000000000000000000000000000000000000000000000000000000000000000000000PES00010000001 00000000000000000000000
201512040060000100000000000000022265000000000000000222659600000000033714143609CENTRO-DE-ESTUDIOS-DIGESTIVOS-000000000021500000000000000000000000000000000000000000000000000000000000000000000000000000000000000000000000000000000000PES00010000001 00000000000000000000000
201512050060000100000000000000022266000000000000000222669600000000033714143609CENTRO-DE-ESTUDIOS-DIGESTIVOS-000000000020000000000000000000000000000000000000000000000000000000000000000000000000000000000000000000000000000000000000PES00010000001 00000000000000000000000
201512050060000100000000000000022267000000000000000222679600000000033714143609CENTRO-DE-ESTUDIOS-DIGESTIVOS-000000000022500000000000000000000000000000000000000000000000000000000000000000000000000000000000000000000000000000000000PES00010000001 00000000000000000000000
201512050060000100000000000000022268000000000000000222689600000000033714143609CENTRO-DE-ESTUDIOS-DIGESTIVOS-000000000042000000000000000000000000000000000000000000000000000000000000000000000000000000000000000000000000000000000000PES00010000001 00000000000000000000000
201512050060000100000000000000022269000000000000000222699600000000033714143609CENTRO-DE-ESTUDIOS-DIGESTIVOS-000000000078500000000000000000000000000000000000000000000000000000000000000000000000000000000000000000000000000000000000PES00010000001 00000000000000000000000
201512050060000100000000000000022270000000000000000222709600000000033714143609CENTRO-DE-ESTUDIOS-DIGESTIVOS-000000000036100000000000000000000000000000000000000000000000000000000000000000000000000000000000000000000000000000000000PES00010000001 00000000000000000000000
201512050060000100000000000000022271000000000000000222719600000000033714143609CENTRO-DE-ESTUDIOS-DIGESTIVOS-000000000096000000000000000000000000000000000000000000000000000000000000000000000000000000000000000000000000000000000000PES00010000001 00000000000000000000000
201512050060000100000000000000022272000000000000000222729600000000033714143609CENTRO-DE-ESTUDIOS-DIGESTIVOS-000000000057500000000000000000000000000000000000000000000000000000000000000000000000000000000000000000000000000000000000PES00010000001 00000000000000000000000
201512050060000100000000000000022273000000000000000222739600000000033714143609CENTRO-DE-ESTUDIOS-DIGESTIVOS-000000000045000000000000000000000000000000000000000000000000000000000000000000000000000000000000000000000000000000000000PES00010000001 00000000000000000000000
201512050060000100000000000000022274000000000000000222749600000000033714143609CENTRO-DE-ESTUDIOS-DIGESTIVOS-000000000070900000000000000000000000000000000000000000000000000000000000000000000000000000000000000000000000000000000000PES00010000001 00000000000000000000000
201512050060000100000000000000022275000000000000000222759600000000033714143609CENTRO-DE-ESTUDIOS-DIGESTIVOS-000000000058500000000000000000000000000000000000000000000000000000000000000000000000000000000000000000000000000000000000PES00010000001 00000000000000000000000
201512050060000100000000000000022276000000000000000222769600000000033714143609CENTRO-DE-ESTUDIOS-DIGESTIVOS-000000000052500000000000000000000000000000000000000000000000000000000000000000000000000000000000000000000000000000000000PES00010000001 00000000000000000000000
201512050060000100000000000000022277000000000000000222779600000000033714143609CENTRO-DE-ESTUDIOS-DIGESTIVOS-000000000015000000000000000000000000000000000000000000000000000000000000000000000000000000000000000000000000000000000000PES00010000001 00000000000000000000000
201512050060000100000000000000022278000000000000000222789600000000033714143609CENTRO-DE-ESTUDIOS-DIGESTIVOS-000000000048000000000000000000000000000000000000000000000000000000000000000000000000000000000000000000000000000000000000PES00010000001 00000000000000000000000
201512050060000100000000000000022279000000000000000222799600000000033714143609CENTRO-DE-ESTUDIOS-DIGESTIVOS-000000000016300000000000000000000000000000000000000000000000000000000000000000000000000000000000000000000000000000000000PES00010000001 00000000000000000000000
201512050060000100000000000000022280000000000000000222809600000000033714143609CENTRO-DE-ESTUDIOS-DIGESTIVOS-000000000025300000000000000000000000000000000000000000000000000000000000000000000000000000000000000000000000000000000000PES00010000001 00000000000000000000000
201512050060000100000000000000022281000000000000000222819600000000033714143609CENTRO-DE-ESTUDIOS-DIGESTIVOS-000000000055000000000000000000000000000000000000000000000000000000000000000000000000000000000000000000000000000000000000PES00010000001 00000000000000000000000
201512050060000100000000000000022282000000000000000222829600000000033714143609CENTRO-DE-ESTUDIOS-DIGESTIVOS-000000000034500000000000000000000000000000000000000000000000000000000000000000000000000000000000000000000000000000000000PES00010000001 00000000000000000000000
201512050060000100000000000000022283000000000000000222839600000000033714143609CENTRO-DE-ESTUDIOS-DIGESTIVOS-000000000027500000000000000000000000000000000000000000000000000000000000000000000000000000000000000000000000000000000000PES00010000001 00000000000000000000000
201512050060000100000000000000022284000000000000000222849600000000033714143609CENTRO-DE-ESTUDIOS-DIGESTIVOS-000000000208400000000000000000000000000000000000000000000000000000000000000000000000000000000000000000000000000000000000PES00010000001 00000000000000000000000
201512050060000100000000000000022285000000000000000222859600000000033714143609CENTRO-DE-ESTUDIOS-DIGESTIVOS-000000000037000000000000000000000000000000000000000000000000000000000000000000000000000000000000000000000000000000000000PES00010000001 00000000000000000000000
201512070060000100000000000000022286000000000000000222869600000000033714143609CENTRO-DE-ESTUDIOS-DIGESTIVOS-000000000061500000000000000000000000000000000000000000000000000000000000000000000000000000000000000000000000000000000000PES00010000001 00000000000000000000000
201512070060000100000000000000022287000000000000000222879600000000033714143609CENTRO-DE-ESTUDIOS-DIGESTIVOS-000000000124800000000000000000000000000000000000000000000000000000000000000000000000000000000000000000000000000000000000PES00010000001 00000000000000000000000
201512070060000100000000000000022288000000000000000222889600000000033714143609CENTRO-DE-ESTUDIOS-DIGESTIVOS-000000000112500000000000000000000000000000000000000000000000000000000000000000000000000000000000000000000000000000000000PES00010000001 00000000000000000000000
201512070060000100000000000000022289000000000000000222899600000000033714143609CENTRO-DE-ESTUDIOS-DIGESTIVOS-000000000057500000000000000000000000000000000000000000000000000000000000000000000000000000000000000000000000000000000000PES00010000001 00000000000000000000000
201512070060000100000000000000022290000000000000000222909600000000033714143609CENTRO-DE-ESTUDIOS-DIGESTIVOS-000000000025000000000000000000000000000000000000000000000000000000000000000000000000000000000000000000000000000000000000PES00010000001 00000000000000000000000
201512070060000100000000000000022291000000000000000222919600000000033714143609CENTRO-DE-ESTUDIOS-DIGESTIVOS-000000000070000000000000000000000000000000000000000000000000000000000000000000000000000000000000000000000000000000000000PES00010000001 00000000000000000000000
201512070060000100000000000000022292000000000000000222929600000000033714143609CENTRO-DE-ESTUDIOS-DIGESTIVOS-000000000034000000000000000000000000000000000000000000000000000000000000000000000000000000000000000000000000000000000000PES00010000001 00000000000000000000000
201512070060000100000000000000022293000000000000000222939600000000033714143609CENTRO-DE-ESTUDIOS-DIGESTIVOS-000000000033500000000000000000000000000000000000000000000000000000000000000000000000000000000000000000000000000000000000PES00010000001 00000000000000000000000
201512070060000100000000000000022294000000000000000222949600000000033714143609CENTRO-DE-ESTUDIOS-DIGESTIVOS-000000000200500000000000000000000000000000000000000000000000000000000000000000000000000000000000000000000000000000000000PES00010000001 00000000000000000000000
201512070060000100000000000000022295000000000000000222959600000000033714143609CENTRO-DE-ESTUDIOS-DIGESTIVOS-000000000089000000000000000000000000000000000000000000000000000000000000000000000000000000000000000000000000000000000000PES00010000001 00000000000000000000000
201512070060000100000000000000022296000000000000000222969600000000033714143609CENTRO-DE-ESTUDIOS-DIGESTIVOS-000000000169500000000000000000000000000000000000000000000000000000000000000000000000000000000000000000000000000000000000PES00010000001 00000000000000000000000
201512070060000100000000000000022297000000000000000222979600000000033714143609CENTRO-DE-ESTUDIOS-DIGESTIVOS-000000000047300000000000000000000000000000000000000000000000000000000000000000000000000000000000000000000000000000000000PES00010000001 00000000000000000000000
201512070060000100000000000000022298000000000000000222989600000000033714143609CENTRO-DE-ESTUDIOS-DIGESTIVOS-000000000133500000000000000000000000000000000000000000000000000000000000000000000000000000000000000000000000000000000000PES00010000001 00000000000000000000000
201512070060000100000000000000022299000000000000000222999600000000033714143609CENTRO-DE-ESTUDIOS-DIGESTIVOS-000000000011500000000000000000000000000000000000000000000000000000000000000000000000000000000000000000000000000000000000PES00010000001 00000000000000000000000
201512070060000100000000000000022300000000000000000223009600000000033714143609CENTRO-DE-ESTUDIOS-DIGESTIVOS-000000000035000000000000000000000000000000000000000000000000000000000000000000000000000000000000000000000000000000000000PES00010000001 00000000000000000000000
201512070060000100000000000000022301000000000000000223019600000000033714143609CENTRO-DE-ESTUDIOS-DIGESTIVOS-000000000015000000000000000000000000000000000000000000000000000000000000000000000000000000000000000000000000000000000000PES00010000001 00000000000000000000000
201512070060000100000000000000022302000000000000000223029600000000033714143609CENTRO-DE-ESTUDIOS-DIGESTIVOS-000000000048000000000000000000000000000000000000000000000000000000000000000000000000000000000000000000000000000000000000PES00010000001 00000000000000000000000
201512080060000100000000000000022303000000000000000223039600000000033714143609CENTRO-DE-ESTUDIOS-DIGESTIVOS-000000000008000000000000000000000000000000000000000000000000000000000000000000000000000000000000000000000000000000000000PES00010000001 00000000000000000000000
201512080060000100000000000000022304000000000000000223049600000000033714143609CENTRO-DE-ESTUDIOS-DIGESTIVOS-000000000073000000000000000000000000000000000000000000000000000000000000000000000000000000000000000000000000000000000000PES00010000001 00000000000000000000000
201512080060000100000000000000022305000000000000000223059600000000033714143609CENTRO-DE-ESTUDIOS-DIGESTIVOS-000000000116000000000000000000000000000000000000000000000000000000000000000000000000000000000000000000000000000000000000PES00010000001 00000000000000000000000
201512080060000100000000000000022306000000000000000223069600000000033714143609CENTRO-DE-ESTUDIOS-DIGESTIVOS-000000000110700000000000000000000000000000000000000000000000000000000000000000000000000000000000000000000000000000000000PES00010000001 00000000000000000000000
201512080060000100000000000000022307000000000000000223079600000000033714143609CENTRO-DE-ESTUDIOS-DIGESTIVOS-000000000044500000000000000000000000000000000000000000000000000000000000000000000000000000000000000000000000000000000000PES00010000001 00000000000000000000000
201512080060000100000000000000022308000000000000000223089600000000033714143609CENTRO-DE-ESTUDIOS-DIGESTIVOS-000000000231700000000000000000000000000000000000000000000000000000000000000000000000000000000000000000000000000000000000PES00010000001 00000000000000000000000
201512080060000100000000000000022309000000000000000223099600000000033714143609CENTRO-DE-ESTUDIOS-DIGESTIVOS-000000000052500000000000000000000000000000000000000000000000000000000000000000000000000000000000000000000000000000000000PES00010000001 00000000000000000000000
201512080060000100000000000000022310000000000000000223109600000000033714143609CENTRO-DE-ESTUDIOS-DIGESTIVOS-000000000030000000000000000000000000000000000000000000000000000000000000000000000000000000000000000000000000000000000000PES00010000001 00000000000000000000000
201512080060000100000000000000022311000000000000000223119600000000033714143609CENTRO-DE-ESTUDIOS-DIGESTIVOS-000000000000100000000000000000000000000000000000000000000000000000000000000000000000000000000000000000000000000000000000PES00010000001 00000000000000000000000
201512080060000100000000000000022312000000000000000223129600000000033714143609CENTRO-DE-ESTUDIOS-DIGESTIVOS-000000000114500000000000000000000000000000000000000000000000000000000000000000000000000000000000000000000000000000000000PES00010000001 00000000000000000000000
201512080060000100000000000000022313000000000000000223139600000000033714143609CENTRO-DE-ESTUDIOS-DIGESTIVOS-000000000042500000000000000000000000000000000000000000000000000000000000000000000000000000000000000000000000000000000000PES00010000001 00000000000000000000000
201512080060000100000000000000022314000000000000000223149600000000033714143609CENTRO-DE-ESTUDIOS-DIGESTIVOS-000000000054900000000000000000000000000000000000000000000000000000000000000000000000000000000000000000000000000000000000PES00010000001 00000000000000000000000
201512080060000100000000000000022315000000000000000223159600000000033714143609CENTRO-DE-ESTUDIOS-DIGESTIVOS-000000000018000000000000000000000000000000000000000000000000000000000000000000000000000000000000000000000000000000000000PES00010000001 00000000000000000000000
201512080060000100000000000000022316000000000000000223169600000000033714143609CENTRO-DE-ESTUDIOS-DIGESTIVOS-000000000058000000000000000000000000000000000000000000000000000000000000000000000000000000000000000000000000000000000000PES00010000001 00000000000000000000000
201512080060000100000000000000022317000000000000000223179600000000033714143609CENTRO-DE-ESTUDIOS-DIGESTIVOS-000000000161000000000000000000000000000000000000000000000000000000000000000000000000000000000000000000000000000000000000PES00010000001 00000000000000000000000
201512080060000100000000000000022318000000000000000223189600000000033714143609CENTRO-DE-ESTUDIOS-DIGESTIVOS-000000000055000000000000000000000000000000000000000000000000000000000000000000000000000000000000000000000000000000000000PES00010000001 00000000000000000000000
201512080060000100000000000000022319000000000000000223199600000000033714143609CENTRO-DE-ESTUDIOS-DIGESTIVOS-000000000039000000000000000000000000000000000000000000000000000000000000000000000000000000000000000000000000000000000000PES00010000001 00000000000000000000000
201512080060000100000000000000022320000000000000000223209600000000033714143609CENTRO-DE-ESTUDIOS-DIGESTIVOS-000000000067000000000000000000000000000000000000000000000000000000000000000000000000000000000000000000000000000000000000PES00010000001 00000000000000000000000
201512080060000100000000000000022321000000000000000223219600000000033714143609CENTRO-DE-ESTUDIOS-DIGESTIVOS-000000000017500000000000000000000000000000000000000000000000000000000000000000000000000000000000000000000000000000000000PES00010000001 00000000000000000000000
201512080060000100000000000000022322000000000000000223229600000000033714143609CENTRO-DE-ESTUDIOS-DIGESTIVOS-000000000186000000000000000000000000000000000000000000000000000000000000000000000000000000000000000000000000000000000000PES00010000001 00000000000000000000000
201512080060000100000000000000022323000000000000000223239600000000033714143609CENTRO-DE-ESTUDIOS-DIGESTIVOS-000000000028000000000000000000000000000000000000000000000000000000000000000000000000000000000000000000000000000000000000PES00010000001 00000000000000000000000
201512080060000100000000000000022324000000000000000223249600000000033714143609CENTRO-DE-ESTUDIOS-DIGESTIVOS-000000000020000000000000000000000000000000000000000000000000000000000000000000000000000000000000000000000000000000000000PES00010000001 00000000000000000000000
201512080060000100000000000000022325000000000000000223259600000000033714143609CENTRO-DE-ESTUDIOS-DIGESTIVOS-000000000039500000000000000000000000000000000000000000000000000000000000000000000000000000000000000000000000000000000000PES00010000001 00000000000000000000000
201512080060000100000000000000022326000000000000000223269600000000033714143609CENTRO-DE-ESTUDIOS-DIGESTIVOS-000000000079000000000000000000000000000000000000000000000000000000000000000000000000000000000000000000000000000000000000PES00010000001 00000000000000000000000
201512080060000100000000000000022327000000000000000223279600000000033714143609CENTRO-DE-ESTUDIOS-DIGESTIVOS-000000000140000000000000000000000000000000000000000000000000000000000000000000000000000000000000000000000000000000000000PES00010000001 00000000000000000000000
201512080060000100000000000000022328000000000000000223289600000000033714143609CENTRO-DE-ESTUDIOS-DIGESTIVOS-000000000081000000000000000000000000000000000000000000000000000000000000000000000000000000000000000000000000000000000000PES00010000001 00000000000000000000000
201512080060000100000000000000022329000000000000000223299600000000033714143609CENTRO-DE-ESTUDIOS-DIGESTIVOS-000000000009000000000000000000000000000000000000000000000000000000000000000000000000000000000000000000000000000000000000PES00010000001 00000000000000000000000
201512080060000100000000000000022330000000000000000223309600000000033714143609CENTRO-DE-ESTUDIOS-DIGESTIVOS-000000000037500000000000000000000000000000000000000000000000000000000000000000000000000000000000000000000000000000000000PES00010000001 00000000000000000000000
201512080060000100000000000000022331000000000000000223319600000000033714143609CENTRO-DE-ESTUDIOS-DIGESTIVOS-000000000029500000000000000000000000000000000000000000000000000000000000000000000000000000000000000000000000000000000000PES00010000001 00000000000000000000000
201512080060000100000000000000022332000000000000000223329600000000033714143609CENTRO-DE-ESTUDIOS-DIGESTIVOS-000000000032500000000000000000000000000000000000000000000000000000000000000000000000000000000000000000000000000000000000PES00010000001 00000000000000000000000
201512080060000100000000000000022333000000000000000223339600000000033714143609CENTRO-DE-ESTUDIOS-DIGESTIVOS-000000000099800000000000000000000000000000000000000000000000000000000000000000000000000000000000000000000000000000000000PES00010000001 00000000000000000000000
201512080060000100000000000000022334000000000000000223349600000000033714143609CENTRO-DE-ESTUDIOS-DIGESTIVOS-000000000202500000000000000000000000000000000000000000000000000000000000000000000000000000000000000000000000000000000000PES00010000001 00000000000000000000000
201512080060000100000000000000022335000000000000000223359600000000033714143609CENTRO-DE-ESTUDIOS-DIGESTIVOS-000000000006500000000000000000000000000000000000000000000000000000000000000000000000000000000000000000000000000000000000PES00010000001 00000000000000000000000
201512080060000100000000000000022336000000000000000223369600000000033714143609CENTRO-DE-ESTUDIOS-DIGESTIVOS-000000000014000000000000000000000000000000000000000000000000000000000000000000000000000000000000000000000000000000000000PES00010000001 00000000000000000000000
201512080060000100000000000000022337000000000000000223379600000000033714143609CENTRO-DE-ESTUDIOS-DIGESTIVOS-000000000008000000000000000000000000000000000000000000000000000000000000000000000000000000000000000000000000000000000000PES00010000001 00000000000000000000000
201512090060000100000000000000022338000000000000000223389600000000033714143609CENTRO-DE-ESTUDIOS-DIGESTIVOS-000000000107800000000000000000000000000000000000000000000000000000000000000000000000000000000000000000000000000000000000PES00010000001 00000000000000000000000
201512090060000100000000000000022339000000000000000223399600000000033714143609CENTRO-DE-ESTUDIOS-DIGESTIVOS-000000000020000000000000000000000000000000000000000000000000000000000000000000000000000000000000000000000000000000000000PES00010000001 00000000000000000000000
201512090060000100000000000000022340000000000000000223409600000000033714143609CENTRO-DE-ESTUDIOS-DIGESTIVOS-000000000090000000000000000000000000000000000000000000000000000000000000000000000000000000000000000000000000000000000000PES00010000001 00000000000000000000000
201512090060000100000000000000022341000000000000000223419600000000033714143609CENTRO-DE-ESTUDIOS-DIGESTIVOS-000000000033900000000000000000000000000000000000000000000000000000000000000000000000000000000000000000000000000000000000PES00010000001 00000000000000000000000
201512090060000100000000000000022342000000000000000223429600000000033714143609CENTRO-DE-ESTUDIOS-DIGESTIVOS-000000000028500000000000000000000000000000000000000000000000000000000000000000000000000000000000000000000000000000000000PES00010000001 00000000000000000000000
201512090060000100000000000000022343000000000000000223439600000000033714143609CENTRO-DE-ESTUDIOS-DIGESTIVOS-000000000137000000000000000000000000000000000000000000000000000000000000000000000000000000000000000000000000000000000000PES00010000001 00000000000000000000000
201512090060000100000000000000022344000000000000000223449600000000033714143609CENTRO-DE-ESTUDIOS-DIGESTIVOS-000000000137500000000000000000000000000000000000000000000000000000000000000000000000000000000000000000000000000000000000PES00010000001 00000000000000000000000
201512090060000100000000000000022345000000000000000223459600000000033714143609CENTRO-DE-ESTUDIOS-DIGESTIVOS-000000000023500000000000000000000000000000000000000000000000000000000000000000000000000000000000000000000000000000000000PES00010000001 00000000000000000000000
201512090060000100000000000000022346000000000000000223469600000000033714143609CENTRO-DE-ESTUDIOS-DIGESTIVOS-000000000011500000000000000000000000000000000000000000000000000000000000000000000000000000000000000000000000000000000000PES00010000001 00000000000000000000000
201512090060000100000000000000022347000000000000000223479600000000033714143609CENTRO-DE-ESTUDIOS-DIGESTIVOS-000000000067000000000000000000000000000000000000000000000000000000000000000000000000000000000000000000000000000000000000PES00010000001 00000000000000000000000
201512090060000100000000000000022348000000000000000223489600000000033714143609CENTRO-DE-ESTUDIOS-DIGESTIVOS-000000000034500000000000000000000000000000000000000000000000000000000000000000000000000000000000000000000000000000000000PES00010000001 00000000000000000000000
201512090060000100000000000000022349000000000000000223499600000000033714143609CENTRO-DE-ESTUDIOS-DIGESTIVOS-000000000045500000000000000000000000000000000000000000000000000000000000000000000000000000000000000000000000000000000000PES00010000001 00000000000000000000000
201512090060000100000000000000022350000000000000000223509600000000033714143609CENTRO-DE-ESTUDIOS-DIGESTIVOS-000000000270000000000000000000000000000000000000000000000000000000000000000000000000000000000000000000000000000000000000PES00010000001 00000000000000000000000
201512090060000100000000000000022351000000000000000223519600000000033714143609CENTRO-DE-ESTUDIOS-DIGESTIVOS-000000000071400000000000000000000000000000000000000000000000000000000000000000000000000000000000000000000000000000000000PES00010000001 00000000000000000000000
201512090060000100000000000000022352000000000000000223529600000000033714143609CENTRO-DE-ESTUDIOS-DIGESTIVOS-000000000118300000000000000000000000000000000000000000000000000000000000000000000000000000000000000000000000000000000000PES00010000001 00000000000000000000000
201512090060000100000000000000022353000000000000000223539600000000033714143609CENTRO-DE-ESTUDIOS-DIGESTIVOS-000000000045500000000000000000000000000000000000000000000000000000000000000000000000000000000000000000000000000000000000PES00010000001 00000000000000000000000
201512090060000100000000000000022354000000000000000223549600000000033714143609CENTRO-DE-ESTUDIOS-DIGESTIVOS-000000000023000000000000000000000000000000000000000000000000000000000000000000000000000000000000000000000000000000000000PES00010000001 00000000000000000000000
201512090060000100000000000000022355000000000000000223559600000000033714143609CENTRO-DE-ESTUDIOS-DIGESTIVOS-000000000101800000000000000000000000000000000000000000000000000000000000000000000000000000000000000000000000000000000000PES00010000001 00000000000000000000000
201512090060000100000000000000022356000000000000000223569600000000033714143609CENTRO-DE-ESTUDIOS-DIGESTIVOS-000000000011000000000000000000000000000000000000000000000000000000000000000000000000000000000000000000000000000000000000PES00010000001 00000000000000000000000
201512090060000100000000000000022357000000000000000223579600000000033714143609CENTRO-DE-ESTUDIOS-DIGESTIVOS-000000000022500000000000000000000000000000000000000000000000000000000000000000000000000000000000000000000000000000000000PES00010000001 00000000000000000000000
201512090060000100000000000000022358000000000000000223589600000000033714143609CENTRO-DE-ESTUDIOS-DIGESTIVOS-000000000047500000000000000000000000000000000000000000000000000000000000000000000000000000000000000000000000000000000000PES00010000001 00000000000000000000000
201512090060000100000000000000022359000000000000000223599600000000033714143609CENTRO-DE-ESTUDIOS-DIGESTIVOS-000000000068800000000000000000000000000000000000000000000000000000000000000000000000000000000000000000000000000000000000PES00010000001 00000000000000000000000
201512090060000100000000000000022360000000000000000223609600000000033714143609CENTRO-DE-ESTUDIOS-DIGESTIVOS-000000000020300000000000000000000000000000000000000000000000000000000000000000000000000000000000000000000000000000000000PES00010000001 00000000000000000000000
201512090060000100000000000000022361000000000000000223619600000000033714143609CENTRO-DE-ESTUDIOS-DIGESTIVOS-000000000047000000000000000000000000000000000000000000000000000000000000000000000000000000000000000000000000000000000000PES00010000001 00000000000000000000000
201512090060000100000000000000022362000000000000000223629600000000033714143609CENTRO-DE-ESTUDIOS-DIGESTIVOS-000000000019500000000000000000000000000000000000000000000000000000000000000000000000000000000000000000000000000000000000PES00010000001 00000000000000000000000
201512090060000100000000000000022363000000000000000223639600000000033714143609CENTRO-DE-ESTUDIOS-DIGESTIVOS-000000000029000000000000000000000000000000000000000000000000000000000000000000000000000000000000000000000000000000000000PES00010000001 00000000000000000000000
201512090060000100000000000000022364000000000000000223649600000000033714143609CENTRO-DE-ESTUDIOS-DIGESTIVOS-000000000208500000000000000000000000000000000000000000000000000000000000000000000000000000000000000000000000000000000000PES00010000001 00000000000000000000000
201512090060000100000000000000022365000000000000000223659600000000033714143609CENTRO-DE-ESTUDIOS-DIGESTIVOS-000000000138500000000000000000000000000000000000000000000000000000000000000000000000000000000000000000000000000000000000PES00010000001 00000000000000000000000
201512100060000100000000000000022366000000000000000223669600000000033714143609CENTRO-DE-ESTUDIOS-DIGESTIVOS-000000000071800000000000000000000000000000000000000000000000000000000000000000000000000000000000000000000000000000000000PES00010000001 00000000000000000000000
201512100060000100000000000000022367000000000000000223679600000000033714143609CENTRO-DE-ESTUDIOS-DIGESTIVOS-000000000057500000000000000000000000000000000000000000000000000000000000000000000000000000000000000000000000000000000000PES00010000001 00000000000000000000000
201512100060000100000000000000022368000000000000000223689600000000033714143609CENTRO-DE-ESTUDIOS-DIGESTIVOS-000000000072500000000000000000000000000000000000000000000000000000000000000000000000000000000000000000000000000000000000PES00010000001 00000000000000000000000
201512100060000100000000000000022369000000000000000223699600000000033714143609CENTRO-DE-ESTUDIOS-DIGESTIVOS-000000000043000000000000000000000000000000000000000000000000000000000000000000000000000000000000000000000000000000000000PES00010000001 00000000000000000000000
201512100060000100000000000000022370000000000000000223709600000000033714143609CENTRO-DE-ESTUDIOS-DIGESTIVOS-000000000048000000000000000000000000000000000000000000000000000000000000000000000000000000000000000000000000000000000000PES00010000001 00000000000000000000000
201512100060000100000000000000022371000000000000000223719600000000033714143609CENTRO-DE-ESTUDIOS-DIGESTIVOS-000000000094700000000000000000000000000000000000000000000000000000000000000000000000000000000000000000000000000000000000PES00010000001 00000000000000000000000
201512100060000100000000000000022372000000000000000223729600000000033714143609CENTRO-DE-ESTUDIOS-DIGESTIVOS-000000000024000000000000000000000000000000000000000000000000000000000000000000000000000000000000000000000000000000000000PES00010000001 00000000000000000000000
201512100060000100000000000000022373000000000000000223739600000000033714143609CENTRO-DE-ESTUDIOS-DIGESTIVOS-000000000021000000000000000000000000000000000000000000000000000000000000000000000000000000000000000000000000000000000000PES00010000001 00000000000000000000000
201512100060000100000000000000022374000000000000000223749600000000033714143609CENTRO-DE-ESTUDIOS-DIGESTIVOS-000000000103000000000000000000000000000000000000000000000000000000000000000000000000000000000000000000000000000000000000PES00010000001 00000000000000000000000
201512100060000100000000000000022375000000000000000223759600000000033714143609CENTRO-DE-ESTUDIOS-DIGESTIVOS-000000000038500000000000000000000000000000000000000000000000000000000000000000000000000000000000000000000000000000000000PES00010000001 00000000000000000000000
201512100060000100000000000000022376000000000000000223769600000000033714143609CENTRO-DE-ESTUDIOS-DIGESTIVOS-000000000000100000000000000000000000000000000000000000000000000000000000000000000000000000000000000000000000000000000000PES00010000001 00000000000000000000000
201512100060000100000000000000022377000000000000000223779600000000033714143609CENTRO-DE-ESTUDIOS-DIGESTIVOS-000000000049800000000000000000000000000000000000000000000000000000000000000000000000000000000000000000000000000000000000PES00010000001 00000000000000000000000
201512100060000100000000000000022378000000000000000223789600000000033714143609CENTRO-DE-ESTUDIOS-DIGESTIVOS-000000000025500000000000000000000000000000000000000000000000000000000000000000000000000000000000000000000000000000000000PES00010000001 00000000000000000000000
201512100060000100000000000000022379000000000000000223799600000000033714143609CENTRO-DE-ESTUDIOS-DIGESTIVOS-000000000060000000000000000000000000000000000000000000000000000000000000000000000000000000000000000000000000000000000000PES00010000001 00000000000000000000000
201512100060000100000000000000022380000000000000000223809600000000033714143609CENTRO-DE-ESTUDIOS-DIGESTIVOS-000000000047500000000000000000000000000000000000000000000000000000000000000000000000000000000000000000000000000000000000PES00010000001 00000000000000000000000
201512100060000100000000000000022381000000000000000223819600000000033714143609CENTRO-DE-ESTUDIOS-DIGESTIVOS-000000000045500000000000000000000000000000000000000000000000000000000000000000000000000000000000000000000000000000000000PES00010000001 00000000000000000000000
201512100060000100000000000000022382000000000000000223829600000000033714143609CENTRO-DE-ESTUDIOS-DIGESTIVOS-000000000171400000000000000000000000000000000000000000000000000000000000000000000000000000000000000000000000000000000000PES00010000001 00000000000000000000000
201512100060000100000000000000022383000000000000000223839600000000033714143609CENTRO-DE-ESTUDIOS-DIGESTIVOS-000000000056000000000000000000000000000000000000000000000000000000000000000000000000000000000000000000000000000000000000PES00010000001 00000000000000000000000
201512100060000100000000000000022384000000000000000223849600000000033714143609CENTRO-DE-ESTUDIOS-DIGESTIVOS-000000000599300000000000000000000000000000000000000000000000000000000000000000000000000000000000000000000000000000000000PES00010000001 00000000000000000000000
201512100060000100000000000000022385000000000000000223859600000000033714143609CENTRO-DE-ESTUDIOS-DIGESTIVOS-000000000021800000000000000000000000000000000000000000000000000000000000000000000000000000000000000000000000000000000000PES00010000001 00000000000000000000000
201512100060000100000000000000022386000000000000000223869600000000033714143609CENTRO-DE-ESTUDIOS-DIGESTIVOS-000000000026000000000000000000000000000000000000000000000000000000000000000000000000000000000000000000000000000000000000PES00010000001 00000000000000000000000
201512100060000100000000000000022387000000000000000223879600000000033714143609CENTRO-DE-ESTUDIOS-DIGESTIVOS-000000000074300000000000000000000000000000000000000000000000000000000000000000000000000000000000000000000000000000000000PES00010000001 00000000000000000000000
201512100060000100000000000000022388000000000000000223889600000000033714143609CENTRO-DE-ESTUDIOS-DIGESTIVOS-000000000079500000000000000000000000000000000000000000000000000000000000000000000000000000000000000000000000000000000000PES00010000001 00000000000000000000000
201512100060000100000000000000022389000000000000000223899600000000033714143609CENTRO-DE-ESTUDIOS-DIGESTIVOS-000000000031000000000000000000000000000000000000000000000000000000000000000000000000000000000000000000000000000000000000PES00010000001 00000000000000000000000
201512100060000100000000000000022390000000000000000223909600000000033714143609CENTRO-DE-ESTUDIOS-DIGESTIVOS-000000000066000000000000000000000000000000000000000000000000000000000000000000000000000000000000000000000000000000000000PES00010000001 00000000000000000000000
201512100060000100000000000000022391000000000000000223919600000000033714143609CENTRO-DE-ESTUDIOS-DIGESTIVOS-000000000112300000000000000000000000000000000000000000000000000000000000000000000000000000000000000000000000000000000000PES00010000001 00000000000000000000000
201512100060000100000000000000022392000000000000000223929600000000033714143609CENTRO-DE-ESTUDIOS-DIGESTIVOS-000000000043800000000000000000000000000000000000000000000000000000000000000000000000000000000000000000000000000000000000PES00010000001 00000000000000000000000
201512100060000100000000000000022393000000000000000223939600000000033714143609CENTRO-DE-ESTUDIOS-DIGESTIVOS-000000000056500000000000000000000000000000000000000000000000000000000000000000000000000000000000000000000000000000000000PES00010000001 00000000000000000000000
201512100060000100000000000000022394000000000000000223949600000000033714143609CENTRO-DE-ESTUDIOS-DIGESTIVOS-000000000011000000000000000000000000000000000000000000000000000000000000000000000000000000000000000000000000000000000000PES00010000001 00000000000000000000000
201512100060000100000000000000022395000000000000000223959600000000033714143609CENTRO-DE-ESTUDIOS-DIGESTIVOS-000000000011000000000000000000000000000000000000000000000000000000000000000000000000000000000000000000000000000000000000PES00010000001 00000000000000000000000
201512100060000100000000000000022396000000000000000223969600000000033714143609CENTRO-DE-ESTUDIOS-DIGESTIVOS-000000000190500000000000000000000000000000000000000000000000000000000000000000000000000000000000000000000000000000000000PES00010000001 00000000000000000000000
201512110060000100000000000000022397000000000000000223979600000000033714143609CENTRO-DE-ESTUDIOS-DIGESTIVOS-000000000150800000000000000000000000000000000000000000000000000000000000000000000000000000000000000000000000000000000000PES00010000001 00000000000000000000000
201512110060000100000000000000022398000000000000000223989600000000033714143609CENTRO-DE-ESTUDIOS-DIGESTIVOS-000000000127800000000000000000000000000000000000000000000000000000000000000000000000000000000000000000000000000000000000PES00010000001 00000000000000000000000
201512110060000100000000000000022399000000000000000223999600000000033714143609CENTRO-DE-ESTUDIOS-DIGESTIVOS-000000000200000000000000000000000000000000000000000000000000000000000000000000000000000000000000000000000000000000000000PES00010000001 00000000000000000000000
201512110060000100000000000000022400000000000000000224009600000000033714143609CENTRO-DE-ESTUDIOS-DIGESTIVOS-000000000108000000000000000000000000000000000000000000000000000000000000000000000000000000000000000000000000000000000000PES00010000001 00000000000000000000000
201512110060000100000000000000022401000000000000000224019600000000033714143609CENTRO-DE-ESTUDIOS-DIGESTIVOS-000000000065000000000000000000000000000000000000000000000000000000000000000000000000000000000000000000000000000000000000PES00010000001 00000000000000000000000
201512110060000100000000000000022402000000000000000224029600000000033714143609CENTRO-DE-ESTUDIOS-DIGESTIVOS-000000000057500000000000000000000000000000000000000000000000000000000000000000000000000000000000000000000000000000000000PES00010000001 00000000000000000000000
201512110060000100000000000000022403000000000000000224039600000000033714143609CENTRO-DE-ESTUDIOS-DIGESTIVOS-000000000094000000000000000000000000000000000000000000000000000000000000000000000000000000000000000000000000000000000000PES00010000001 00000000000000000000000
201512110060000100000000000000022404000000000000000224049600000000033714143609CENTRO-DE-ESTUDIOS-DIGESTIVOS-000000000092000000000000000000000000000000000000000000000000000000000000000000000000000000000000000000000000000000000000PES00010000001 00000000000000000000000
201512110060000100000000000000022405000000000000000224059600000000033714143609CENTRO-DE-ESTUDIOS-DIGESTIVOS-000000000022500000000000000000000000000000000000000000000000000000000000000000000000000000000000000000000000000000000000PES00010000001 00000000000000000000000
201512110060000100000000000000022406000000000000000224069600000000033714143609CENTRO-DE-ESTUDIOS-DIGESTIVOS-000000000032500000000000000000000000000000000000000000000000000000000000000000000000000000000000000000000000000000000000PES00010000001 00000000000000000000000
201512110060000100000000000000022407000000000000000224079600000000033714143609CENTRO-DE-ESTUDIOS-DIGESTIVOS-000000000135400000000000000000000000000000000000000000000000000000000000000000000000000000000000000000000000000000000000PES00010000001 00000000000000000000000
201512110060000100000000000000022408000000000000000224089600000000033714143609CENTRO-DE-ESTUDIOS-DIGESTIVOS-000000000073500000000000000000000000000000000000000000000000000000000000000000000000000000000000000000000000000000000000PES00010000001 00000000000000000000000
201512110060000100000000000000022409000000000000000224099600000000033714143609CENTRO-DE-ESTUDIOS-DIGESTIVOS-000000000047500000000000000000000000000000000000000000000000000000000000000000000000000000000000000000000000000000000000PES00010000001 00000000000000000000000
201512110060000100000000000000022410000000000000000224109600000000033714143609CENTRO-DE-ESTUDIOS-DIGESTIVOS-000000000024500000000000000000000000000000000000000000000000000000000000000000000000000000000000000000000000000000000000PES00010000001 00000000000000000000000
201512110060000100000000000000022411000000000000000224119600000000033714143609CENTRO-DE-ESTUDIOS-DIGESTIVOS-000000000023500000000000000000000000000000000000000000000000000000000000000000000000000000000000000000000000000000000000PES00010000001 00000000000000000000000
201512110060000100000000000000022412000000000000000224129600000000033714143609CENTRO-DE-ESTUDIOS-DIGESTIVOS-000000000072000000000000000000000000000000000000000000000000000000000000000000000000000000000000000000000000000000000000PES00010000001 00000000000000000000000
201512110060000100000000000000022413000000000000000224139600000000033714143609CENTRO-DE-ESTUDIOS-DIGESTIVOS-000000000034000000000000000000000000000000000000000000000000000000000000000000000000000000000000000000000000000000000000PES00010000001 00000000000000000000000
201512110060000100000000000000022414000000000000000224149600000000033714143609CENTRO-DE-ESTUDIOS-DIGESTIVOS-000000000024400000000000000000000000000000000000000000000000000000000000000000000000000000000000000000000000000000000000PES00010000001 00000000000000000000000
201512110060000100000000000000022415000000000000000224159600000000033714143609CENTRO-DE-ESTUDIOS-DIGESTIVOS-000000000039000000000000000000000000000000000000000000000000000000000000000000000000000000000000000000000000000000000000PES00010000001 00000000000000000000000
201512110060000100000000000000022416000000000000000224169600000000033714143609CENTRO-DE-ESTUDIOS-DIGESTIVOS-000000000069500000000000000000000000000000000000000000000000000000000000000000000000000000000000000000000000000000000000PES00010000001 00000000000000000000000
201512110060000100000000000000022417000000000000000224179600000000033714143609CENTRO-DE-ESTUDIOS-DIGESTIVOS-000000000055000000000000000000000000000000000000000000000000000000000000000000000000000000000000000000000000000000000000PES00010000001 00000000000000000000000
201512110060000100000000000000022418000000000000000224189600000000033714143609CENTRO-DE-ESTUDIOS-DIGESTIVOS-000000000059000000000000000000000000000000000000000000000000000000000000000000000000000000000000000000000000000000000000PES00010000001 00000000000000000000000
201512110060000100000000000000022419000000000000000224199600000000033714143609CENTRO-DE-ESTUDIOS-DIGESTIVOS-000000000034500000000000000000000000000000000000000000000000000000000000000000000000000000000000000000000000000000000000PES00010000001 00000000000000000000000
201512110060000100000000000000022420000000000000000224209600000000033714143609CENTRO-DE-ESTUDIOS-DIGESTIVOS-000000000015400000000000000000000000000000000000000000000000000000000000000000000000000000000000000000000000000000000000PES00010000001 00000000000000000000000
201512110060000100000000000000022421000000000000000224219600000000033714143609CENTRO-DE-ESTUDIOS-DIGESTIVOS-000000000600000000000000000000000000000000000000000000000000000000000000000000000000000000000000000000000000000000000000PES00010000001 00000000000000000000000
201512110060000100000000000000022422000000000000000224229600000000033714143609CENTRO-DE-ESTUDIOS-DIGESTIVOS-000000000023000000000000000000000000000000000000000000000000000000000000000000000000000000000000000000000000000000000000PES00010000001 00000000000000000000000
201512110060000100000000000000022423000000000000000224239600000000033714143609CENTRO-DE-ESTUDIOS-DIGESTIVOS-000000000062500000000000000000000000000000000000000000000000000000000000000000000000000000000000000000000000000000000000PES00010000001 00000000000000000000000
201512110060000100000000000000022424000000000000000224249600000000033714143609CENTRO-DE-ESTUDIOS-DIGESTIVOS-000000000062000000000000000000000000000000000000000000000000000000000000000000000000000000000000000000000000000000000000PES00010000001 00000000000000000000000
201512110060000100000000000000022425000000000000000224259600000000033714143609CENTRO-DE-ESTUDIOS-DIGESTIVOS-000000000023500000000000000000000000000000000000000000000000000000000000000000000000000000000000000000000000000000000000PES00010000001 00000000000000000000000
201512110060000100000000000000022426000000000000000224269600000000033714143609CENTRO-DE-ESTUDIOS-DIGESTIVOS-000000000022500000000000000000000000000000000000000000000000000000000000000000000000000000000000000000000000000000000000PES00010000001 00000000000000000000000
201512110060000100000000000000022427000000000000000224279600000000033714143609CENTRO-DE-ESTUDIOS-DIGESTIVOS-000000000265100000000000000000000000000000000000000000000000000000000000000000000000000000000000000000000000000000000000PES00010000001 00000000000000000000000
201512110060000100000000000000022428000000000000000224289600000000033714143609CENTRO-DE-ESTUDIOS-DIGESTIVOS-000000000015000000000000000000000000000000000000000000000000000000000000000000000000000000000000000000000000000000000000PES00010000001 00000000000000000000000
201512110060000100000000000000022429000000000000000224299600000000033714143609CENTRO-DE-ESTUDIOS-DIGESTIVOS-000000000018800000000000000000000000000000000000000000000000000000000000000000000000000000000000000000000000000000000000PES00010000001 00000000000000000000000
201512110060000100000000000000022430000000000000000224309600000000033714143609CENTRO-DE-ESTUDIOS-DIGESTIVOS-000000000073500000000000000000000000000000000000000000000000000000000000000000000000000000000000000000000000000000000000PES00010000001 00000000000000000000000
201512110060000100000000000000022431000000000000000224319600000000033714143609CENTRO-DE-ESTUDIOS-DIGESTIVOS-000000000011000000000000000000000000000000000000000000000000000000000000000000000000000000000000000000000000000000000000PES00010000001 00000000000000000000000
201512120060000100000000000000022432000000000000000224329600000000033714143609CENTRO-DE-ESTUDIOS-DIGESTIVOS-000000000224500000000000000000000000000000000000000000000000000000000000000000000000000000000000000000000000000000000000PES00010000001 00000000000000000000000
201512120060000100000000000000022433000000000000000224339600000000033714143609CENTRO-DE-ESTUDIOS-DIGESTIVOS-000000000093600000000000000000000000000000000000000000000000000000000000000000000000000000000000000000000000000000000000PES00010000001 00000000000000000000000
201512120060000100000000000000022434000000000000000224349600000000033714143609CENTRO-DE-ESTUDIOS-DIGESTIVOS-000000000031000000000000000000000000000000000000000000000000000000000000000000000000000000000000000000000000000000000000PES00010000001 00000000000000000000000
201512120060000100000000000000022435000000000000000224359600000000033714143609CENTRO-DE-ESTUDIOS-DIGESTIVOS-000000000032000000000000000000000000000000000000000000000000000000000000000000000000000000000000000000000000000000000000PES00010000001 00000000000000000000000
201512120060000100000000000000022436000000000000000224369600000000033714143609CENTRO-DE-ESTUDIOS-DIGESTIVOS-000000000057500000000000000000000000000000000000000000000000000000000000000000000000000000000000000000000000000000000000PES00010000001 00000000000000000000000
201512120060000100000000000000022437000000000000000224379600000000033714143609CENTRO-DE-ESTUDIOS-DIGESTIVOS-000000000371000000000000000000000000000000000000000000000000000000000000000000000000000000000000000000000000000000000000PES00010000001 00000000000000000000000
201512120060000100000000000000022438000000000000000224389600000000033714143609CENTRO-DE-ESTUDIOS-DIGESTIVOS-000000000102200000000000000000000000000000000000000000000000000000000000000000000000000000000000000000000000000000000000PES00010000001 00000000000000000000000
201512120060000100000000000000022439000000000000000224399600000000033714143609CENTRO-DE-ESTUDIOS-DIGESTIVOS-000000000064000000000000000000000000000000000000000000000000000000000000000000000000000000000000000000000000000000000000PES00010000001 00000000000000000000000
201512120060000100000000000000022440000000000000000224409600000000033714143609CENTRO-DE-ESTUDIOS-DIGESTIVOS-000000000104000000000000000000000000000000000000000000000000000000000000000000000000000000000000000000000000000000000000PES00010000001 00000000000000000000000
201512120060000100000000000000022441000000000000000224419600000000033714143609CENTRO-DE-ESTUDIOS-DIGESTIVOS-000000000032500000000000000000000000000000000000000000000000000000000000000000000000000000000000000000000000000000000000PES00010000001 00000000000000000000000
201512120060000100000000000000022442000000000000000224429600000000033714143609CENTRO-DE-ESTUDIOS-DIGESTIVOS-000000000021000000000000000000000000000000000000000000000000000000000000000000000000000000000000000000000000000000000000PES00010000001 00000000000000000000000
201512120060000100000000000000022444000000000000000224449600000000033714143609CENTRO-DE-ESTUDIOS-DIGESTIVOS-000000000090200000000000000000000000000000000000000000000000000000000000000000000000000000000000000000000000000000000000PES00010000001 00000000000000000000000
201512120060000100000000000000022445000000000000000224459600000000033714143609CENTRO-DE-ESTUDIOS-DIGESTIVOS-000000000024000000000000000000000000000000000000000000000000000000000000000000000000000000000000000000000000000000000000PES00010000001 00000000000000000000000
201512120060000100000000000000022446000000000000000224469600000000033714143609CENTRO-DE-ESTUDIOS-DIGESTIVOS-000000000057000000000000000000000000000000000000000000000000000000000000000000000000000000000000000000000000000000000000PES00010000001 00000000000000000000000
201512120060000100000000000000022447000000000000000224479600000000033714143609CENTRO-DE-ESTUDIOS-DIGESTIVOS-000000000029500000000000000000000000000000000000000000000000000000000000000000000000000000000000000000000000000000000000PES00010000001 00000000000000000000000
201512120060000100000000000000022448000000000000000224489600000000033714143609CENTRO-DE-ESTUDIOS-DIGESTIVOS-000000000053000000000000000000000000000000000000000000000000000000000000000000000000000000000000000000000000000000000000PES00010000001 00000000000000000000000
201512120060000100000000000000022449000000000000000224499600000000033714143609CENTRO-DE-ESTUDIOS-DIGESTIVOS-000000000027500000000000000000000000000000000000000000000000000000000000000000000000000000000000000000000000000000000000PES00010000001 00000000000000000000000
201512120060000100000000000000022450000000000000000224509600000000033714143609CENTRO-DE-ESTUDIOS-DIGESTIVOS-000000000179000000000000000000000000000000000000000000000000000000000000000000000000000000000000000000000000000000000000PES00010000001 00000000000000000000000
201512120060000100000000000000022451000000000000000224519600000000033714143609CENTRO-DE-ESTUDIOS-DIGESTIVOS-000000000052100000000000000000000000000000000000000000000000000000000000000000000000000000000000000000000000000000000000PES00010000001 00000000000000000000000
201512120060000100000000000000022452000000000000000224529600000000033714143609CENTRO-DE-ESTUDIOS-DIGESTIVOS-000000000097500000000000000000000000000000000000000000000000000000000000000000000000000000000000000000000000000000000000PES00010000001 00000000000000000000000
201512120060000100000000000000022453000000000000000224539600000000033714143609CENTRO-DE-ESTUDIOS-DIGESTIVOS-000000000313000000000000000000000000000000000000000000000000000000000000000000000000000000000000000000000000000000000000PES00010000001 00000000000000000000000
201512120060000100000000000000022454000000000000000224549600000000033714143609CENTRO-DE-ESTUDIOS-DIGESTIVOS-000000000085000000000000000000000000000000000000000000000000000000000000000000000000000000000000000000000000000000000000PES00010000001 00000000000000000000000
201512120060000100000000000000022455000000000000000224559600000000033714143609CENTRO-DE-ESTUDIOS-DIGESTIVOS-000000000023500000000000000000000000000000000000000000000000000000000000000000000000000000000000000000000000000000000000PES00010000001 00000000000000000000000
201512120060000100000000000000022456000000000000000224569600000000033714143609CENTRO-DE-ESTUDIOS-DIGESTIVOS-000000000032000000000000000000000000000000000000000000000000000000000000000000000000000000000000000000000000000000000000PES00010000001 00000000000000000000000
201512120060000100000000000000022457000000000000000224579600000000033714143609CENTRO-DE-ESTUDIOS-DIGESTIVOS-000000000040000000000000000000000000000000000000000000000000000000000000000000000000000000000000000000000000000000000000PES00010000001 00000000000000000000000
201512120060000100000000000000022459000000000000000224599600000000033714143609CENTRO-DE-ESTUDIOS-DIGESTIVOS-000000000033500000000000000000000000000000000000000000000000000000000000000000000000000000000000000000000000000000000000PES00010000001 00000000000000000000000
201512120060000100000000000000022460000000000000000224609600000000033714143609CENTRO-DE-ESTUDIOS-DIGESTIVOS-000000000027700000000000000000000000000000000000000000000000000000000000000000000000000000000000000000000000000000000000PES00010000001 00000000000000000000000
201512120060000100000000000000022461000000000000000224619600000000033714143609CENTRO-DE-ESTUDIOS-DIGESTIVOS-000000000075000000000000000000000000000000000000000000000000000000000000000000000000000000000000000000000000000000000000PES00010000001 00000000000000000000000
201512120060000100000000000000022462000000000000000224629600000000033714143609CENTRO-DE-ESTUDIOS-DIGESTIVOS-000000000101000000000000000000000000000000000000000000000000000000000000000000000000000000000000000000000000000000000000PES00010000001 00000000000000000000000
201512120060000100000000000000022463000000000000000224639600000000033714143609CENTRO-DE-ESTUDIOS-DIGESTIVOS-000000000034500000000000000000000000000000000000000000000000000000000000000000000000000000000000000000000000000000000000PES00010000001 00000000000000000000000
201512120060000100000000000000022464000000000000000224649600000000033714143609CENTRO-DE-ESTUDIOS-DIGESTIVOS-000000000094000000000000000000000000000000000000000000000000000000000000000000000000000000000000000000000000000000000000PES00010000001 00000000000000000000000
201512120060000100000000000000022465000000000000000224659600000000033714143609CENTRO-DE-ESTUDIOS-DIGESTIVOS-000000000099500000000000000000000000000000000000000000000000000000000000000000000000000000000000000000000000000000000000PES00010000001 00000000000000000000000
201512120060000100000000000000022466000000000000000224669600000000033714143609CENTRO-DE-ESTUDIOS-DIGESTIVOS-000000000053600000000000000000000000000000000000000000000000000000000000000000000000000000000000000000000000000000000000PES00010000001 00000000000000000000000
201512120060000100000000000000022467000000000000000224679600000000033714143609CENTRO-DE-ESTUDIOS-DIGESTIVOS-000000000047300000000000000000000000000000000000000000000000000000000000000000000000000000000000000000000000000000000000PES00010000001 00000000000000000000000
201512120060000100000000000000022468000000000000000224689600000000033714143609CENTRO-DE-ESTUDIOS-DIGESTIVOS-000000000063500000000000000000000000000000000000000000000000000000000000000000000000000000000000000000000000000000000000PES00010000001 00000000000000000000000
201512120060000100000000000000022469000000000000000224699600000000033714143609CENTRO-DE-ESTUDIOS-DIGESTIVOS-000000000111300000000000000000000000000000000000000000000000000000000000000000000000000000000000000000000000000000000000PES00010000001 00000000000000000000000
201512120060000100000000000000022470000000000000000224709600000000033714143609CENTRO-DE-ESTUDIOS-DIGESTIVOS-000000000029500000000000000000000000000000000000000000000000000000000000000000000000000000000000000000000000000000000000PES00010000001 00000000000000000000000
201512120060000100000000000000022471000000000000000224719600000000033714143609CENTRO-DE-ESTUDIOS-DIGESTIVOS-000000000007500000000000000000000000000000000000000000000000000000000000000000000000000000000000000000000000000000000000PES00010000001 00000000000000000000000
201512120060000100000000000000022472000000000000000224729600000000033714143609CENTRO-DE-ESTUDIOS-DIGESTIVOS-000000000035000000000000000000000000000000000000000000000000000000000000000000000000000000000000000000000000000000000000PES00010000001 00000000000000000000000
201512120060000100000000000000022473000000000000000224739600000000033714143609CENTRO-DE-ESTUDIOS-DIGESTIVOS-000000000009000000000000000000000000000000000000000000000000000000000000000000000000000000000000000000000000000000000000PES00010000001 00000000000000000000000
201512120060000100000000000000022474000000000000000224749600000000033714143609CENTRO-DE-ESTUDIOS-DIGESTIVOS-000000000054500000000000000000000000000000000000000000000000000000000000000000000000000000000000000000000000000000000000PES00010000001 00000000000000000000000
201512120060000100000000000000022475000000000000000224759600000000033714143609CENTRO-DE-ESTUDIOS-DIGESTIVOS-000000000241800000000000000000000000000000000000000000000000000000000000000000000000000000000000000000000000000000000000PES00010000001 00000000000000000000000
201512120060000100000000000000022476000000000000000224769600000000033714143609CENTRO-DE-ESTUDIOS-DIGESTIVOS-000000000069500000000000000000000000000000000000000000000000000000000000000000000000000000000000000000000000000000000000PES00010000001 00000000000000000000000
201512120060000100000000000000022477000000000000000224779600000000033714143609CENTRO-DE-ESTUDIOS-DIGESTIVOS-000000000067000000000000000000000000000000000000000000000000000000000000000000000000000000000000000000000000000000000000PES00010000001 00000000000000000000000
201512120060000100000000000000022478000000000000000224789600000000033714143609CENTRO-DE-ESTUDIOS-DIGESTIVOS-000000000033500000000000000000000000000000000000000000000000000000000000000000000000000000000000000000000000000000000000PES00010000001 00000000000000000000000
201512120060000100000000000000022479000000000000000224799600000000033714143609CENTRO-DE-ESTUDIOS-DIGESTIVOS-000000000017800000000000000000000000000000000000000000000000000000000000000000000000000000000000000000000000000000000000PES00010000001 00000000000000000000000
201512120060000100000000000000022480000000000000000224809600000000033714143609CENTRO-DE-ESTUDIOS-DIGESTIVOS-000000000044000000000000000000000000000000000000000000000000000000000000000000000000000000000000000000000000000000000000PES00010000001 00000000000000000000000
201512120060000100000000000000022481000000000000000224819600000000033714143609CENTRO-DE-ESTUDIOS-DIGESTIVOS-000000000381000000000000000000000000000000000000000000000000000000000000000000000000000000000000000000000000000000000000PES00010000001 00000000000000000000000
201512120060000100000000000000022482000000000000000224829600000000033714143609CENTRO-DE-ESTUDIOS-DIGESTIVOS-000000000143800000000000000000000000000000000000000000000000000000000000000000000000000000000000000000000000000000000000PES00010000001 00000000000000000000000
201512120060000100000000000000022483000000000000000224839600000000033714143609CENTRO-DE-ESTUDIOS-DIGESTIVOS-000000000470500000000000000000000000000000000000000000000000000000000000000000000000000000000000000000000000000000000000PES00010000001 00000000000000000000000
201512120060000100000000000000022484000000000000000224849600000000033714143609CENTRO-DE-ESTUDIOS-DIGESTIVOS-000000000091000000000000000000000000000000000000000000000000000000000000000000000000000000000000000000000000000000000000PES00010000001 00000000000000000000000
201512140060000100000000000000022485000000000000000224859600000000033714143609CENTRO-DE-ESTUDIOS-DIGESTIVOS-000000000013500000000000000000000000000000000000000000000000000000000000000000000000000000000000000000000000000000000000PES00010000001 00000000000000000000000
201512140060000100000000000000022486000000000000000224869600000000033714143609CENTRO-DE-ESTUDIOS-DIGESTIVOS-000000000083000000000000000000000000000000000000000000000000000000000000000000000000000000000000000000000000000000000000PES00010000001 00000000000000000000000
201512140060000100000000000000022487000000000000000224879600000000033714143609CENTRO-DE-ESTUDIOS-DIGESTIVOS-000000000054300000000000000000000000000000000000000000000000000000000000000000000000000000000000000000000000000000000000PES00010000001 00000000000000000000000
201512140060000100000000000000022488000000000000000224889600000000033714143609CENTRO-DE-ESTUDIOS-DIGESTIVOS-000000000069800000000000000000000000000000000000000000000000000000000000000000000000000000000000000000000000000000000000PES00010000001 00000000000000000000000
201512140060000100000000000000022489000000000000000224899600000000033714143609CENTRO-DE-ESTUDIOS-DIGESTIVOS-000000000123000000000000000000000000000000000000000000000000000000000000000000000000000000000000000000000000000000000000PES00010000001 00000000000000000000000
201512140060000100000000000000022490000000000000000224909600000000033714143609CENTRO-DE-ESTUDIOS-DIGESTIVOS-000000000034500000000000000000000000000000000000000000000000000000000000000000000000000000000000000000000000000000000000PES00010000001 00000000000000000000000
201512140060000100000000000000022491000000000000000224919600000000033714143609CENTRO-DE-ESTUDIOS-DIGESTIVOS-000000000040000000000000000000000000000000000000000000000000000000000000000000000000000000000000000000000000000000000000PES00010000001 00000000000000000000000
201512140060000100000000000000022492000000000000000224929600000000033714143609CENTRO-DE-ESTUDIOS-DIGESTIVOS-000000000112000000000000000000000000000000000000000000000000000000000000000000000000000000000000000000000000000000000000PES00010000001 00000000000000000000000
201512140060000100000000000000022493000000000000000224939600000000033714143609CENTRO-DE-ESTUDIOS-DIGESTIVOS-000000000112500000000000000000000000000000000000000000000000000000000000000000000000000000000000000000000000000000000000PES00010000001 00000000000000000000000
201512140060000100000000000000022494000000000000000224949600000000033714143609CENTRO-DE-ESTUDIOS-DIGESTIVOS-000000000052500000000000000000000000000000000000000000000000000000000000000000000000000000000000000000000000000000000000PES00010000001 00000000000000000000000
201512140060000100000000000000022495000000000000000224959600000000033714143609CENTRO-DE-ESTUDIOS-DIGESTIVOS-000000000088800000000000000000000000000000000000000000000000000000000000000000000000000000000000000000000000000000000000PES00010000001 00000000000000000000000
201512140060000100000000000000022496000000000000000224969600000000033714143609CENTRO-DE-ESTUDIOS-DIGESTIVOS-000000000143600000000000000000000000000000000000000000000000000000000000000000000000000000000000000000000000000000000000PES00010000001 00000000000000000000000
201512140060000100000000000000022497000000000000000224979600000000033714143609CENTRO-DE-ESTUDIOS-DIGESTIVOS-000000000009000000000000000000000000000000000000000000000000000000000000000000000000000000000000000000000000000000000000PES00010000001 00000000000000000000000
201512140060000100000000000000022498000000000000000224989600000000033714143609CENTRO-DE-ESTUDIOS-DIGESTIVOS-000000000035000000000000000000000000000000000000000000000000000000000000000000000000000000000000000000000000000000000000PES00010000001 00000000000000000000000
201512140060000100000000000000022499000000000000000224999600000000033714143609CENTRO-DE-ESTUDIOS-DIGESTIVOS-000000000034000000000000000000000000000000000000000000000000000000000000000000000000000000000000000000000000000000000000PES00010000001 00000000000000000000000
201512140060000100000000000000022500000000000000000225009600000000033714143609CENTRO-DE-ESTUDIOS-DIGESTIVOS-000000000037500000000000000000000000000000000000000000000000000000000000000000000000000000000000000000000000000000000000PES00010000001 00000000000000000000000
201512140060000100000000000000022501000000000000000225019600000000033714143609CENTRO-DE-ESTUDIOS-DIGESTIVOS-000000000014500000000000000000000000000000000000000000000000000000000000000000000000000000000000000000000000000000000000PES00010000001 00000000000000000000000
201512140060000100000000000000022502000000000000000225029600000000033714143609CENTRO-DE-ESTUDIOS-DIGESTIVOS-000000000094000000000000000000000000000000000000000000000000000000000000000000000000000000000000000000000000000000000000PES00010000001 00000000000000000000000
201512140060000100000000000000022503000000000000000225039600000000033714143609CENTRO-DE-ESTUDIOS-DIGESTIVOS-000000000141200000000000000000000000000000000000000000000000000000000000000000000000000000000000000000000000000000000000PES00010000001 00000000000000000000000
201512140060000100000000000000022504000000000000000225049600000000033714143609CENTRO-DE-ESTUDIOS-DIGESTIVOS-000000000026500000000000000000000000000000000000000000000000000000000000000000000000000000000000000000000000000000000000PES00010000001 00000000000000000000000
201512140060000100000000000000022505000000000000000225059600000000033714143609CENTRO-DE-ESTUDIOS-DIGESTIVOS-000000000059900000000000000000000000000000000000000000000000000000000000000000000000000000000000000000000000000000000000PES00010000001 00000000000000000000000
