201508060010000800000000000000058700                8000000000030545726722SOCIEDAD-COOP-POPULAR-LIM-DE  000000000191894000000000000000000000000000000000000000000000000000000000000000000000000000000000000000000000000000000000PES00010000001000000000000000000000000000000000000000000                              000000000000000
201508100010000100000000000020150713                8000000000030639453975TELEFONICA-DE-ARG-SA          000000000094643000000000000000000000000000000000000000000000000000000000000000000000000000000000000000000000000000000000PES00010000001000000000000000000000000000000000000000000                              000000000000000
201508100010000400000000000007975532                8000000000030657864427CAMUZZI-GAS-DEL-SUR           000000000021511000000000000000000000000000000000000000000000000000000000000000000000000000000000000000000000000000000000PES00010000001000000000000000000000000000000000000000000                              000000000000000
201508030010000100000000000000004840                8000000000033710589149MARWALL-SA                    000000000161414000000000000000000000000000000000000000000000000000000000000000000000000000000000000000000000000000000000PES00010000001000000000000000000000000000000000000000000                              000000000000000
201508040010000400000000000000122300                8000000000030708926155TRANSPORTES-UNION-SA          000000000446044000000000000000000000000000000000000000000000000000000000000000000000000000000000000000000000000000000000PES00010000001000000000000000000000000000000000000000000                              000000000000000
201508040010100100000000000000000015                8000000000027137539700ALEJANDRA-PAULA-HAVILIO       000000001604460000000000000000000000000000000000000000000000000000000000000000000000000000000000000000000000000000000000PES00010000001000000000000000000000000000000000000000000                              000000000000000
201508050010002100000000000000006529                8000000000030707454640EL-ESTANCO-SA                 000000000020699000000000000000000000000000000000000000000000000000000000000000000000000000000000000000000000000000000000PES00010000001000000000000000000000000000000000000000000                              000000000000000
201508030010000700000000000000000084                8000000000030714370223ZURY-SRL                      000000000232030000000000000000000000000000000000000000000000000000000000000000000000000000000000000000000000000000000000PES00010000001000000000000000000000000000000000000000000                              000000000000000
201508050010000300000000000000005875                8000000000030710941854RUMAH-JAVA-SRL                000000000883905000000000000000000000000000000000000000000000000000000000000000000000000000000000000000000000000000000000PES00010000001000000000000000000000000000000000000000000                              000000000000000
201508060010001500000000000000000352                8000000000033708356609PATAGONIACANDLES-SRL          000000000756250000000000000000000000000000000000000000000000000000000000000000000000000000000000000000000000000000000000PES00010000001000000000000000000000000000000000000000000                              000000000000000
201508060010001500000000000000000353                8000000000033708356609PATAGONIACANDLES-SRL          000000001385692000000000000000000000000000000000000000000000000000000000000000000000000000000000000000000000000000000000PES00010000001000000000000000000000000000000000000000000                              000000000000000
201508060010001500000000000000000354                8000000000033708356609PATAGONIACANDLES-SRL          000000001835764000000000000000000000000000000000000000000000000000000000000000000000000000000000000000000000000000000000PES00010000001000000000000000000000000000000000000000000                              000000000000000
201508100010258600000000000000003232                8000000000030506730038SA-IMPORT-Y-EXPORT-DE-LA-PATAG000000000022020000000000000000000000000000000000000000000000000000000000000000000000000000000000000000000000000000000000PES00010000001000000000000000000000000000000000000000000                              000000000000000
201508110010000100000000000000000010                8000000000030714670618CONDOMINIO-DE-BERSAIS-CESAR-L 000000000026620000000000000000000000000000000000000000000000000000000000000000000000000000000000000000000000000000000000PES00010000001000000000000000000000000000000000000000000                              000000000000000
201508130010001100000000000000000993                8000000000030670288613DISTRIBUIDORA-LOA-SA          000000000080022000000000000000000000000000000000000000000000000000000000000000000000000000000000000000000000000000000000PES00010000001000000000000000000000000000000000000000000                              000000000000000
201508130010000300000000000000002502                8000000000030711190895AUSTRAL-ALARMAS-SRL           000000000030250000000000000000000000000000000000000000000000000000000000000000000000000000000000000000000000000000000000PES00010000001000000000000000000000000000000000000000000                              000000000000000
201508100010000300000000000000000040                8000000000030708525436JAVIER-R-BRAIDOT-Y-WALTER-G-  000000001223508000000000000000000000000000000000000000000000000000000000000000000000000000000000000000000000000000000000PES00010000001000000000000000000000000000000000000000000                              000000000000000
201508110010000100000000000000004611                8000000000030709387584CONCEPTOMAREA-DE-GAMARRA-SRL  000000000404140000000000000000000000000000000000000000000000000000000000000000000000000000000000000000000000000000000000PES00010000001000000000000000000000000000000000000000000                              000000000000000
201508120010001200000000000000003286                8000000000030708094931ARIFERNIC-INVARG-SRL          000000002358819000000000000000000000000000000000000000000000000000000000000000000000000000000000000000000000000000000000PES00010000001000000000000000000000000000000000000000000                              000000000000000
201508130010000100000000000000002092                8000000000023247772669JORGE-PAULOS-ANTUNES          000000000216000000000000000000000000000000000000000000000000000000000000000000000000000000000000000000000000000000000000PES00010000001000000000000000000000000000000000000000000                              000000000000000
201508140010000400000000000000122884                8000000000030708926155TRANSPORTES-UNION-SA          000000000572816000000000000000000000000000000000000000000000000000000000000000000000000000000000000000000000000000000000PES00010000001000000000000000000000000000000000000000000                              000000000000000
201508130010000500000000000000008218                8000000000030711778302MDK-SRL                       000000000409464000000000000000000000000000000000000000000000000000000000000000000000000000000000000000000000000000000000PES00010000001000000000000000000000000000000000000000000                              000000000000000
201508210010000300000000000000000215                8000000000020222552134GUSTAVO-A-GARCIA              000000000360000000000000000000000000000000000000000000000000000000000000000000000000000000000000000000000000000000000000PES00010000001000000000000000000000000000000000000000000                              000000000000000
201508100010000200000000000000028606                8000000000030710289375FASHION-COOK-SA               000000001511956000000000000000000000000000000000000000000000000000000000000000000000000000000000000000000000000000000000PES00010000001000000000000000000000000000000000000000000                              000000000000000
201508190010000100000000000000009272                8000000000030709545325GRUPO-MARINHO-SRL             000000000133584000000000000000000000000000000000000000000000000000000000000000000000000000000000000000000000000000000000PES00010000001000000000000000000000000000000000000000000                              000000000000000
201508180010000100000000000000009267                8000000000030709545325GRUPO-MARINHO-SRL             000000000725153000000000000000000000000000000000000000000000000000000000000000000000000000000000000000000000000000000000PES00010000001000000000000000000000000000000000000000000                              000000000000000
201508240010000100000000000000002108                8000000000023247772669JORGE-PAULOS-ANTUNES          000000000088001000000000000000000000000000000000000000000000000000000000000000000000000000000000000000000000000000000000PES00010000001000000000000000000000000000000000000000000                              000000000000000
201508250010001100000000000000001074                8000000000030670288613DISTRIBUIDORA-LOA-SA          000000000045156000000000000000000000000000000000000000000000000000000000000000000000000000000000000000000000000000000000PES00010000001000000000000000000000000000000000000000000                              000000000000000
201508310010000400000000000000123070                8000000000030708926155TRANSPORTES-UNION-SA          000000000499582000000000000000000000000000000000000000000000000000000000000000000000000000000000000000000000000000000000PES00010000001000000000000000000000000000000000000000000                              000000000000000
201508310010000300000000000000011992                8000000000030587479407CERRO-NEVADO-SA               000000000980100000000000000000000000000000000000000000000000000000000000000000000000000000000000000000000000000000000000PES00010000001000000000000000000000000000000000000000000                              000000000000000
201508310010000400000000000000000061                8000000000030708268468ZAIRE-REGALOS-SRL             000000000948727000000000000000000000000000000000000000000000000000000000000000000000000000000000000000000000000000000000PES00010000001000000000000000000000000000000000000000000                              000000000000000
