201501280060000100000000000000013679000000000000000136798000000000030686318865COMICION-NACIONAL-DE-COMUNICAC000000000016000000000000000000000000000000000000000000000000000000000000000000000000000000000000000000000000000000000000PES00010000001 00000000000000000000000
201501020060000100000000000000017788000000000000000177889611111111111111111111CONS-FINAL                    000000000026000000000000000000000000000000000000000000000000000000000000000000000000000000000000000000000000000000000000PES00010000001 00000000000000000000000
201501020060000100000000000000017789000000000000000177899611111111111111111111CONS-FINAL                    000000000031500000000000000000000000000000000000000000000000000000000000000000000000000000000000000000000000000000000000PES00010000001 00000000000000000000000
201501020060000100000000000000017790000000000000000177909611111111111111111111CONS-FINAL                    000000000029000000000000000000000000000000000000000000000000000000000000000000000000000000000000000000000000000000000000PES00010000001 00000000000000000000000
201501020060000100000000000000017791000000000000000177919611111111111111111111CONS-FINAL                    000000000092000000000000000000000000000000000000000000000000000000000000000000000000000000000000000000000000000000000000PES00010000001 00000000000000000000000
201501020060000100000000000000017792000000000000000177929611111111111111111111CONS-FINAL                    000000000031300000000000000000000000000000000000000000000000000000000000000000000000000000000000000000000000000000000000PES00010000001 00000000000000000000000
201501020060000100000000000000017793000000000000000177939611111111111111111111CONS-FINAL                    000000000014400000000000000000000000000000000000000000000000000000000000000000000000000000000000000000000000000000000000PES00010000001 00000000000000000000000
201501020060000100000000000000017794000000000000000177949611111111111111111111CONS-FINAL                    000000000024600000000000000000000000000000000000000000000000000000000000000000000000000000000000000000000000000000000000PES00010000001 00000000000000000000000
201501020060000100000000000000017795000000000000000177959611111111111111111111CONS-FINAL                    000000000128000000000000000000000000000000000000000000000000000000000000000000000000000000000000000000000000000000000000PES00010000001 00000000000000000000000
201501020060000100000000000000017796000000000000000177969611111111111111111111CONS-FINAL                    000000000117000000000000000000000000000000000000000000000000000000000000000000000000000000000000000000000000000000000000PES00010000001 00000000000000000000000
201501020060000100000000000000017797000000000000000177979611111111111111111111CONS-FINAL                    000000000021000000000000000000000000000000000000000000000000000000000000000000000000000000000000000000000000000000000000PES00010000001 00000000000000000000000
201501020060000100000000000000017798000000000000000177989611111111111111111111CONS-FINAL                    000000000077800000000000000000000000000000000000000000000000000000000000000000000000000000000000000000000000000000000000PES00010000001 00000000000000000000000
201501020060000100000000000000017799000000000000000177999611111111111111111111CONS-FINAL                    000000000060300000000000000000000000000000000000000000000000000000000000000000000000000000000000000000000000000000000000PES00010000001 00000000000000000000000
201501020060000100000000000000017800000000000000000178009611111111111111111111CONS-FINAL                    000000000064000000000000000000000000000000000000000000000000000000000000000000000000000000000000000000000000000000000000PES00010000001 00000000000000000000000
201501020060000100000000000000017801000000000000000178019611111111111111111111CONS-FINAL                    000000000032500000000000000000000000000000000000000000000000000000000000000000000000000000000000000000000000000000000000PES00010000001 00000000000000000000000
201501020060000100000000000000017802000000000000000178029611111111111111111111CONS-FINAL                    000000000017000000000000000000000000000000000000000000000000000000000000000000000000000000000000000000000000000000000000PES00010000001 00000000000000000000000
201501020060000100000000000000017803000000000000000178039611111111111111111111CONS-FINAL                    000000000015000000000000000000000000000000000000000000000000000000000000000000000000000000000000000000000000000000000000PES00010000001 00000000000000000000000
201501020060000100000000000000017804000000000000000178049611111111111111111111CONS-FINAL                    000000000015400000000000000000000000000000000000000000000000000000000000000000000000000000000000000000000000000000000000PES00010000001 00000000000000000000000
201501030060000100000000000000017805000000000000000178059611111111111111111111CONS-FINAL                    000000000181700000000000000000000000000000000000000000000000000000000000000000000000000000000000000000000000000000000000PES00010000001 00000000000000000000000
201501030060000100000000000000017806000000000000000178069611111111111111111111CONS-FINAL                    000000000102500000000000000000000000000000000000000000000000000000000000000000000000000000000000000000000000000000000000PES00010000001 00000000000000000000000
201501030060000100000000000000017807000000000000000178079611111111111111111111CONS-FINAL                    000000000023000000000000000000000000000000000000000000000000000000000000000000000000000000000000000000000000000000000000PES00010000001 00000000000000000000000
201501030060000100000000000000017808000000000000000178089611111111111111111111CONS-FINAL                    000000000023000000000000000000000000000000000000000000000000000000000000000000000000000000000000000000000000000000000000PES00010000001 00000000000000000000000
201501030060000100000000000000017809000000000000000178099611111111111111111111CONS-FINAL                    000000000040800000000000000000000000000000000000000000000000000000000000000000000000000000000000000000000000000000000000PES00010000001 00000000000000000000000
201501030060000100000000000000017810000000000000000178109611111111111111111111CONS-FINAL                    000000000009800000000000000000000000000000000000000000000000000000000000000000000000000000000000000000000000000000000000PES00010000001 00000000000000000000000
201501030060000100000000000000017811000000000000000178119611111111111111111111CONS-FINAL                    000000000040100000000000000000000000000000000000000000000000000000000000000000000000000000000000000000000000000000000000PES00010000001 00000000000000000000000
201501030060000100000000000000017812000000000000000178129611111111111111111111CONS-FINAL                    000000000037000000000000000000000000000000000000000000000000000000000000000000000000000000000000000000000000000000000000PES00010000001 00000000000000000000000
201501030060000100000000000000017813000000000000000178139611111111111111111111CONS-FINAL                    000000000067500000000000000000000000000000000000000000000000000000000000000000000000000000000000000000000000000000000000PES00010000001 00000000000000000000000
201501030060000100000000000000017814000000000000000178149611111111111111111111CONS-FINAL                    000000000046000000000000000000000000000000000000000000000000000000000000000000000000000000000000000000000000000000000000PES00010000001 00000000000000000000000
201501030060000100000000000000017815000000000000000178159611111111111111111111CONS-FINAL                    000000000025000000000000000000000000000000000000000000000000000000000000000000000000000000000000000000000000000000000000PES00010000001 00000000000000000000000
201501030060000100000000000000017816000000000000000178169611111111111111111111CONS-FINAL                    000000000051500000000000000000000000000000000000000000000000000000000000000000000000000000000000000000000000000000000000PES00010000001 00000000000000000000000
201501030060000100000000000000017817000000000000000178179611111111111111111111CONS-FINAL                    000000000030000000000000000000000000000000000000000000000000000000000000000000000000000000000000000000000000000000000000PES00010000001 00000000000000000000000
201501030060000100000000000000017818000000000000000178189611111111111111111111CONS-FINAL                    000000000083400000000000000000000000000000000000000000000000000000000000000000000000000000000000000000000000000000000000PES00010000001 00000000000000000000000
201501030060000100000000000000017819000000000000000178199611111111111111111111CONS-FINAL                    000000000015000000000000000000000000000000000000000000000000000000000000000000000000000000000000000000000000000000000000PES00010000001 00000000000000000000000
201501030060000100000000000000017820000000000000000178209611111111111111111111CONS-FINAL                    000000000275000000000000000000000000000000000000000000000000000000000000000000000000000000000000000000000000000000000000PES00010000001 00000000000000000000000
201501030060000100000000000000017821000000000000000178219611111111111111111111CONS-FINAL                    000000000018000000000000000000000000000000000000000000000000000000000000000000000000000000000000000000000000000000000000PES00010000001 00000000000000000000000
201501030060000100000000000000017822000000000000000178229611111111111111111111CONS-FINAL                    000000000179400000000000000000000000000000000000000000000000000000000000000000000000000000000000000000000000000000000000PES00010000001 00000000000000000000000
201501030060000100000000000000017823000000000000000178239611111111111111111111CONS-FINAL                    000000000060500000000000000000000000000000000000000000000000000000000000000000000000000000000000000000000000000000000000PES00010000001 00000000000000000000000
201501030060000100000000000000017824000000000000000178249611111111111111111111CONS-FINAL                    000000000030400000000000000000000000000000000000000000000000000000000000000000000000000000000000000000000000000000000000PES00010000001 00000000000000000000000
201501030060000100000000000000017825000000000000000178259611111111111111111111CONS-FINAL                    000000000031000000000000000000000000000000000000000000000000000000000000000000000000000000000000000000000000000000000000PES00010000001 00000000000000000000000
201501050060000100000000000000017826000000000000000178269611111111111111111111CONS-FINAL                    000000000016000000000000000000000000000000000000000000000000000000000000000000000000000000000000000000000000000000000000PES00010000001 00000000000000000000000
201501050060000100000000000000017827000000000000000178279611111111111111111111CONS-FINAL                    000000000032000000000000000000000000000000000000000000000000000000000000000000000000000000000000000000000000000000000000PES00010000001 00000000000000000000000
201501050060000100000000000000017828000000000000000178289611111111111111111111CONS-FINAL                    000000000026500000000000000000000000000000000000000000000000000000000000000000000000000000000000000000000000000000000000PES00010000001 00000000000000000000000
201501050060000100000000000000017829000000000000000178299611111111111111111111CONS-FINAL                    000000000050000000000000000000000000000000000000000000000000000000000000000000000000000000000000000000000000000000000000PES00010000001 00000000000000000000000
201501050060000100000000000000017830000000000000000178309611111111111111111111CONS-FINAL                    000000000031000000000000000000000000000000000000000000000000000000000000000000000000000000000000000000000000000000000000PES00010000001 00000000000000000000000
201501050060000100000000000000017831000000000000000178319611111111111111111111CONS-FINAL                    000000000038000000000000000000000000000000000000000000000000000000000000000000000000000000000000000000000000000000000000PES00010000001 00000000000000000000000
201501050060000100000000000000017832000000000000000178329611111111111111111111CONS-FINAL                    000000000193000000000000000000000000000000000000000000000000000000000000000000000000000000000000000000000000000000000000PES00010000001 00000000000000000000000
201501050060000100000000000000017833000000000000000178339611111111111111111111CONS-FINAL                    000000000059900000000000000000000000000000000000000000000000000000000000000000000000000000000000000000000000000000000000PES00010000001 00000000000000000000000
201501050060000100000000000000017834000000000000000178349611111111111111111111CONS-FINAL                    000000000034000000000000000000000000000000000000000000000000000000000000000000000000000000000000000000000000000000000000PES00010000001 00000000000000000000000
201501050060000100000000000000017835000000000000000178359611111111111111111111CONS-FINAL                    000000000050800000000000000000000000000000000000000000000000000000000000000000000000000000000000000000000000000000000000PES00010000001 00000000000000000000000
201501050060000100000000000000017836000000000000000178369611111111111111111111CONS-FINAL                    000000000031300000000000000000000000000000000000000000000000000000000000000000000000000000000000000000000000000000000000PES00010000001 00000000000000000000000
201501050060000100000000000000017837000000000000000178379611111111111111111111CONS-FINAL                    000000000033500000000000000000000000000000000000000000000000000000000000000000000000000000000000000000000000000000000000PES00010000001 00000000000000000000000
201501050060000100000000000000017838000000000000000178389611111111111111111111CONS-FINAL                    000000000261500000000000000000000000000000000000000000000000000000000000000000000000000000000000000000000000000000000000PES00010000001 00000000000000000000000
201501050060000100000000000000017839000000000000000178399611111111111111111111CONS-FINAL                    000000000054500000000000000000000000000000000000000000000000000000000000000000000000000000000000000000000000000000000000PES00010000001 00000000000000000000000
201501050060000100000000000000017840000000000000000178409611111111111111111111CONS-FINAL                    000000000019000000000000000000000000000000000000000000000000000000000000000000000000000000000000000000000000000000000000PES00010000001 00000000000000000000000
201501050060000100000000000000017841000000000000000178419611111111111111111111CONS-FINAL                    000000000013200000000000000000000000000000000000000000000000000000000000000000000000000000000000000000000000000000000000PES00010000001 00000000000000000000000
201501050060000100000000000000017842000000000000000178429611111111111111111111CONS-FINAL                    000000000078000000000000000000000000000000000000000000000000000000000000000000000000000000000000000000000000000000000000PES00010000001 00000000000000000000000
201501050060000100000000000000017843000000000000000178439611111111111111111111CONS-FINAL                    000000000022500000000000000000000000000000000000000000000000000000000000000000000000000000000000000000000000000000000000PES00010000001 00000000000000000000000
201501050060000100000000000000017844000000000000000178449611111111111111111111CONS-FINAL                    000000000073000000000000000000000000000000000000000000000000000000000000000000000000000000000000000000000000000000000000PES00010000001 00000000000000000000000
201501050060000100000000000000017845000000000000000178459611111111111111111111CONS-FINAL                    000000000031000000000000000000000000000000000000000000000000000000000000000000000000000000000000000000000000000000000000PES00010000001 00000000000000000000000
201501050060000100000000000000017846000000000000000178469611111111111111111111CONS-FINAL                    000000000093700000000000000000000000000000000000000000000000000000000000000000000000000000000000000000000000000000000000PES00010000001 00000000000000000000000
201501060060000100000000000000017847000000000000000178479611111111111111111111CONS-FINAL                    000000000097500000000000000000000000000000000000000000000000000000000000000000000000000000000000000000000000000000000000PES00010000001 00000000000000000000000
201501060060000100000000000000017848000000000000000178489611111111111111111111CONS-FINAL                    000000000035500000000000000000000000000000000000000000000000000000000000000000000000000000000000000000000000000000000000PES00010000001 00000000000000000000000
201501060060000100000000000000017849000000000000000178499611111111111111111111CONS-FINAL                    000000000018000000000000000000000000000000000000000000000000000000000000000000000000000000000000000000000000000000000000PES00010000001 00000000000000000000000
201501060060000100000000000000017850000000000000000178509611111111111111111111CONS-FINAL                    000000000061400000000000000000000000000000000000000000000000000000000000000000000000000000000000000000000000000000000000PES00010000001 00000000000000000000000
201501060060000100000000000000017851000000000000000178519611111111111111111111CONS-FINAL                    000000000027500000000000000000000000000000000000000000000000000000000000000000000000000000000000000000000000000000000000PES00010000001 00000000000000000000000
201501060060000100000000000000017852000000000000000178529611111111111111111111CONS-FINAL                    000000000022500000000000000000000000000000000000000000000000000000000000000000000000000000000000000000000000000000000000PES00010000001 00000000000000000000000
201501060060000100000000000000017853000000000000000178539611111111111111111111CONS-FINAL                    000000000027000000000000000000000000000000000000000000000000000000000000000000000000000000000000000000000000000000000000PES00010000001 00000000000000000000000
201501060060000100000000000000017854000000000000000178549611111111111111111111CONS-FINAL                    000000000036500000000000000000000000000000000000000000000000000000000000000000000000000000000000000000000000000000000000PES00010000001 00000000000000000000000
201501060060000100000000000000017855000000000000000178559611111111111111111111CONS-FINAL                    000000000082500000000000000000000000000000000000000000000000000000000000000000000000000000000000000000000000000000000000PES00010000001 00000000000000000000000
201501060060000100000000000000017856000000000000000178569611111111111111111111CONS-FINAL                    000000000034000000000000000000000000000000000000000000000000000000000000000000000000000000000000000000000000000000000000PES00010000001 00000000000000000000000
201501060060000100000000000000017857000000000000000178579611111111111111111111CONS-FINAL                    000000000067500000000000000000000000000000000000000000000000000000000000000000000000000000000000000000000000000000000000PES00010000001 00000000000000000000000
201501070060000100000000000000017858000000000000000178589611111111111111111111CONS-FINAL                    000000000031500000000000000000000000000000000000000000000000000000000000000000000000000000000000000000000000000000000000PES00010000001 00000000000000000000000
201501070060000100000000000000017859000000000000000178599611111111111111111111CONS-FINAL                    000000000035500000000000000000000000000000000000000000000000000000000000000000000000000000000000000000000000000000000000PES00010000001 00000000000000000000000
201501070060000100000000000000017860000000000000000178609611111111111111111111CONS-FINAL                    000000000224700000000000000000000000000000000000000000000000000000000000000000000000000000000000000000000000000000000000PES00010000001 00000000000000000000000
201501070060000100000000000000017861000000000000000178619611111111111111111111CONS-FINAL                    000000000034500000000000000000000000000000000000000000000000000000000000000000000000000000000000000000000000000000000000PES00010000001 00000000000000000000000
201501070060000100000000000000017862000000000000000178629611111111111111111111CONS-FINAL                    000000000163500000000000000000000000000000000000000000000000000000000000000000000000000000000000000000000000000000000000PES00010000001 00000000000000000000000
201501070060000100000000000000017863000000000000000178639611111111111111111111CONS-FINAL                    000000000035000000000000000000000000000000000000000000000000000000000000000000000000000000000000000000000000000000000000PES00010000001 00000000000000000000000
201501070060000100000000000000017864000000000000000178649611111111111111111111CONS-FINAL                    000000000091500000000000000000000000000000000000000000000000000000000000000000000000000000000000000000000000000000000000PES00010000001 00000000000000000000000
201501070060000100000000000000017865000000000000000178659611111111111111111111CONS-FINAL                    000000000042500000000000000000000000000000000000000000000000000000000000000000000000000000000000000000000000000000000000PES00010000001 00000000000000000000000
201501080060000100000000000000017866000000000000000178669611111111111111111111CONS-FINAL                    000000000008100000000000000000000000000000000000000000000000000000000000000000000000000000000000000000000000000000000000PES00010000001 00000000000000000000000
201501080060000100000000000000017867000000000000000178679611111111111111111111CONS-FINAL                    000000000216000000000000000000000000000000000000000000000000000000000000000000000000000000000000000000000000000000000000PES00010000001 00000000000000000000000
201501080060000100000000000000017868000000000000000178689611111111111111111111CONS-FINAL                    000000000197100000000000000000000000000000000000000000000000000000000000000000000000000000000000000000000000000000000000PES00010000001 00000000000000000000000
201501080060000100000000000000017869000000000000000178699611111111111111111111CONS-FINAL                    000000000089200000000000000000000000000000000000000000000000000000000000000000000000000000000000000000000000000000000000PES00010000001 00000000000000000000000
201501080060000100000000000000017870000000000000000178709611111111111111111111CONS-FINAL                    000000000033000000000000000000000000000000000000000000000000000000000000000000000000000000000000000000000000000000000000PES00010000001 00000000000000000000000
201501080060000100000000000000017871000000000000000178719611111111111111111111CONS-FINAL                    000000000023000000000000000000000000000000000000000000000000000000000000000000000000000000000000000000000000000000000000PES00010000001 00000000000000000000000
201501080060000100000000000000017872000000000000000178729611111111111111111111CONS-FINAL                    000000000014300000000000000000000000000000000000000000000000000000000000000000000000000000000000000000000000000000000000PES00010000001 00000000000000000000000
201501080060000100000000000000017873000000000000000178739611111111111111111111CONS-FINAL                    000000000250000000000000000000000000000000000000000000000000000000000000000000000000000000000000000000000000000000000000PES00010000001 00000000000000000000000
201501080060000100000000000000017874000000000000000178749611111111111111111111CONS-FINAL                    000000000020000000000000000000000000000000000000000000000000000000000000000000000000000000000000000000000000000000000000PES00010000001 00000000000000000000000
201501080060000100000000000000017875000000000000000178759611111111111111111111CONS-FINAL                    000000000043800000000000000000000000000000000000000000000000000000000000000000000000000000000000000000000000000000000000PES00010000001 00000000000000000000000
201501080060000100000000000000017876000000000000000178769611111111111111111111CONS-FINAL                    000000000144000000000000000000000000000000000000000000000000000000000000000000000000000000000000000000000000000000000000PES00010000001 00000000000000000000000
201501080060000100000000000000017877000000000000000178779611111111111111111111CONS-FINAL                    000000000012000000000000000000000000000000000000000000000000000000000000000000000000000000000000000000000000000000000000PES00010000001 00000000000000000000000
201501080060000100000000000000017878000000000000000178789611111111111111111111CONS-FINAL                    000000000012500000000000000000000000000000000000000000000000000000000000000000000000000000000000000000000000000000000000PES00010000001 00000000000000000000000
201501080060000100000000000000017879000000000000000178799611111111111111111111CONS-FINAL                    000000000041500000000000000000000000000000000000000000000000000000000000000000000000000000000000000000000000000000000000PES00010000001 00000000000000000000000
201501080060000100000000000000017880000000000000000178809611111111111111111111CONS-FINAL                    000000000099000000000000000000000000000000000000000000000000000000000000000000000000000000000000000000000000000000000000PES00010000001 00000000000000000000000
201501080060000100000000000000017881000000000000000178819611111111111111111111CONS-FINAL                    000000000023500000000000000000000000000000000000000000000000000000000000000000000000000000000000000000000000000000000000PES00010000001 00000000000000000000000
201501080060000100000000000000017882000000000000000178829611111111111111111111CONS-FINAL                    000000000018000000000000000000000000000000000000000000000000000000000000000000000000000000000000000000000000000000000000PES00010000001 00000000000000000000000
201501080060000100000000000000017883000000000000000178839611111111111111111111CONS-FINAL                    000000000030000000000000000000000000000000000000000000000000000000000000000000000000000000000000000000000000000000000000PES00010000001 00000000000000000000000
201501080060000100000000000000017884000000000000000178849611111111111111111111CONS-FINAL                    000000000039800000000000000000000000000000000000000000000000000000000000000000000000000000000000000000000000000000000000PES00010000001 00000000000000000000000
201501080060000100000000000000017885000000000000000178859611111111111111111111CONS-FINAL                    000000000070200000000000000000000000000000000000000000000000000000000000000000000000000000000000000000000000000000000000PES00010000001 00000000000000000000000
201501080060000100000000000000017886000000000000000178869611111111111111111111CONS-FINAL                    000000000021100000000000000000000000000000000000000000000000000000000000000000000000000000000000000000000000000000000000PES00010000001 00000000000000000000000
201501080060000100000000000000017887000000000000000178879611111111111111111111CONS-FINAL                    000000000048500000000000000000000000000000000000000000000000000000000000000000000000000000000000000000000000000000000000PES00010000001 00000000000000000000000
201501080060000100000000000000017888000000000000000178889611111111111111111111CONS-FINAL                    000000000016500000000000000000000000000000000000000000000000000000000000000000000000000000000000000000000000000000000000PES00010000001 00000000000000000000000
201501080060000100000000000000017889000000000000000178899611111111111111111111CONS-FINAL                    000000000086500000000000000000000000000000000000000000000000000000000000000000000000000000000000000000000000000000000000PES00010000001 00000000000000000000000
201501090060000100000000000000017890000000000000000178909611111111111111111111CONS-FINAL                    000000000039000000000000000000000000000000000000000000000000000000000000000000000000000000000000000000000000000000000000PES00010000001 00000000000000000000000
201501090060000100000000000000017891000000000000000178919611111111111111111111CONS-FINAL                    000000000078600000000000000000000000000000000000000000000000000000000000000000000000000000000000000000000000000000000000PES00010000001 00000000000000000000000
201501090060000100000000000000017892000000000000000178929611111111111111111111CONS-FINAL                    000000000008500000000000000000000000000000000000000000000000000000000000000000000000000000000000000000000000000000000000PES00010000001 00000000000000000000000
201501090060000100000000000000017893000000000000000178939611111111111111111111CONS-FINAL                    000000000016000000000000000000000000000000000000000000000000000000000000000000000000000000000000000000000000000000000000PES00010000001 00000000000000000000000
201501090060000100000000000000017894000000000000000178949611111111111111111111CONS-FINAL                    000000000032500000000000000000000000000000000000000000000000000000000000000000000000000000000000000000000000000000000000PES00010000001 00000000000000000000000
201501090060000100000000000000017895000000000000000178959611111111111111111111CONS-FINAL                    000000000018500000000000000000000000000000000000000000000000000000000000000000000000000000000000000000000000000000000000PES00010000001 00000000000000000000000
201501090060000100000000000000017896000000000000000178969611111111111111111111CONS-FINAL                    000000000012000000000000000000000000000000000000000000000000000000000000000000000000000000000000000000000000000000000000PES00010000001 00000000000000000000000
201501090060000100000000000000017897000000000000000178979611111111111111111111CONS-FINAL                    000000000052200000000000000000000000000000000000000000000000000000000000000000000000000000000000000000000000000000000000PES00010000001 00000000000000000000000
201501090060000100000000000000017898000000000000000178989611111111111111111111CONS-FINAL                    000000000295300000000000000000000000000000000000000000000000000000000000000000000000000000000000000000000000000000000000PES00010000001 00000000000000000000000
201501090060000100000000000000017899000000000000000178999611111111111111111111CONS-FINAL                    000000000057500000000000000000000000000000000000000000000000000000000000000000000000000000000000000000000000000000000000PES00010000001 00000000000000000000000
201501090060000100000000000000017900000000000000000179009611111111111111111111CONS-FINAL                    000000000146500000000000000000000000000000000000000000000000000000000000000000000000000000000000000000000000000000000000PES00010000001 00000000000000000000000
201501090060000100000000000000017901000000000000000179019611111111111111111111CONS-FINAL                    000000000006500000000000000000000000000000000000000000000000000000000000000000000000000000000000000000000000000000000000PES00010000001 00000000000000000000000
201501090060000100000000000000017902000000000000000179029611111111111111111111CONS-FINAL                    000000000130300000000000000000000000000000000000000000000000000000000000000000000000000000000000000000000000000000000000PES00010000001 00000000000000000000000
201501090060000100000000000000017903000000000000000179039611111111111111111111CONS-FINAL                    000000000037500000000000000000000000000000000000000000000000000000000000000000000000000000000000000000000000000000000000PES00010000001 00000000000000000000000
201501090060000100000000000000017904000000000000000179049611111111111111111111CONS-FINAL                    000000000065000000000000000000000000000000000000000000000000000000000000000000000000000000000000000000000000000000000000PES00010000001 00000000000000000000000
201501090060000100000000000000017905000000000000000179059611111111111111111111CONS-FINAL                    000000000037500000000000000000000000000000000000000000000000000000000000000000000000000000000000000000000000000000000000PES00010000001 00000000000000000000000
201501090060000100000000000000017906000000000000000179069611111111111111111111CONS-FINAL                    000000000096100000000000000000000000000000000000000000000000000000000000000000000000000000000000000000000000000000000000PES00010000001 00000000000000000000000
201501100060000100000000000000017907000000000000000179079611111111111111111111CONS-FINAL                    000000000113400000000000000000000000000000000000000000000000000000000000000000000000000000000000000000000000000000000000PES00010000001 00000000000000000000000
201501100060000100000000000000017908000000000000000179089611111111111111111111CONS-FINAL                    000000000012000000000000000000000000000000000000000000000000000000000000000000000000000000000000000000000000000000000000PES00010000001 00000000000000000000000
201501100060000100000000000000017909000000000000000179099611111111111111111111CONS-FINAL                    000000000457000000000000000000000000000000000000000000000000000000000000000000000000000000000000000000000000000000000000PES00010000001 00000000000000000000000
201501100060000100000000000000017910000000000000000179109611111111111111111111CONS-FINAL                    000000000077000000000000000000000000000000000000000000000000000000000000000000000000000000000000000000000000000000000000PES00010000001 00000000000000000000000
201501100060000100000000000000017911000000000000000179119611111111111111111111CONS-FINAL                    000000000200000000000000000000000000000000000000000000000000000000000000000000000000000000000000000000000000000000000000PES00010000001 00000000000000000000000
201501100060000100000000000000017912000000000000000179129611111111111111111111CONS-FINAL                    000000000179600000000000000000000000000000000000000000000000000000000000000000000000000000000000000000000000000000000000PES00010000001 00000000000000000000000
201501100060000100000000000000017913000000000000000179139611111111111111111111CONS-FINAL                    000000000166000000000000000000000000000000000000000000000000000000000000000000000000000000000000000000000000000000000000PES00010000001 00000000000000000000000
201501100060000100000000000000017914000000000000000179149611111111111111111111CONS-FINAL                    000000000021500000000000000000000000000000000000000000000000000000000000000000000000000000000000000000000000000000000000PES00010000001 00000000000000000000000
201501100060000100000000000000017915000000000000000179159611111111111111111111CONS-FINAL                    000000000044500000000000000000000000000000000000000000000000000000000000000000000000000000000000000000000000000000000000PES00010000001 00000000000000000000000
201501100060000100000000000000017916000000000000000179169611111111111111111111CONS-FINAL                    000000000030000000000000000000000000000000000000000000000000000000000000000000000000000000000000000000000000000000000000PES00010000001 00000000000000000000000
201501100060000100000000000000017917000000000000000179179611111111111111111111CONS-FINAL                    000000000049500000000000000000000000000000000000000000000000000000000000000000000000000000000000000000000000000000000000PES00010000001 00000000000000000000000
201501100060000100000000000000017918000000000000000179189611111111111111111111CONS-FINAL                    000000000026000000000000000000000000000000000000000000000000000000000000000000000000000000000000000000000000000000000000PES00010000001 00000000000000000000000
201501100060000100000000000000017919000000000000000179199611111111111111111111CONS-FINAL                    000000000036000000000000000000000000000000000000000000000000000000000000000000000000000000000000000000000000000000000000PES00010000001 00000000000000000000000
201501100060000100000000000000017920000000000000000179209611111111111111111111CONS-FINAL                    000000000026500000000000000000000000000000000000000000000000000000000000000000000000000000000000000000000000000000000000PES00010000001 00000000000000000000000
201501100060000100000000000000017921000000000000000179219611111111111111111111CONS-FINAL                    000000000029000000000000000000000000000000000000000000000000000000000000000000000000000000000000000000000000000000000000PES00010000001 00000000000000000000000
201501100060000100000000000000017922000000000000000179229611111111111111111111CONS-FINAL                    000000000014000000000000000000000000000000000000000000000000000000000000000000000000000000000000000000000000000000000000PES00010000001 00000000000000000000000
201501100060000100000000000000017923000000000000000179239611111111111111111111CONS-FINAL                    000000000041300000000000000000000000000000000000000000000000000000000000000000000000000000000000000000000000000000000000PES00010000001 00000000000000000000000
201501100060000100000000000000017924000000000000000179249611111111111111111111CONS-FINAL                    000000000070500000000000000000000000000000000000000000000000000000000000000000000000000000000000000000000000000000000000PES00010000001 00000000000000000000000
201501100060000100000000000000017925000000000000000179259611111111111111111111CONS-FINAL                    000000000051000000000000000000000000000000000000000000000000000000000000000000000000000000000000000000000000000000000000PES00010000001 00000000000000000000000
201501100060000100000000000000017926000000000000000179269611111111111111111111CONS-FINAL                    000000000081300000000000000000000000000000000000000000000000000000000000000000000000000000000000000000000000000000000000PES00010000001 00000000000000000000000
201501100060000100000000000000017927000000000000000179279611111111111111111111CONS-FINAL                    000000000057500000000000000000000000000000000000000000000000000000000000000000000000000000000000000000000000000000000000PES00010000001 00000000000000000000000
201501100060000100000000000000017928000000000000000179289611111111111111111111CONS-FINAL                    000000000075000000000000000000000000000000000000000000000000000000000000000000000000000000000000000000000000000000000000PES00010000001 00000000000000000000000
201501100060000100000000000000017929000000000000000179299611111111111111111111CONS-FINAL                    000000000030000000000000000000000000000000000000000000000000000000000000000000000000000000000000000000000000000000000000PES00010000001 00000000000000000000000
201501100060000100000000000000017930000000000000000179309611111111111111111111CONS-FINAL                    000000000060500000000000000000000000000000000000000000000000000000000000000000000000000000000000000000000000000000000000PES00010000001 00000000000000000000000
201501100060000100000000000000017931000000000000000179319611111111111111111111CONS-FINAL                    000000000050000000000000000000000000000000000000000000000000000000000000000000000000000000000000000000000000000000000000PES00010000001 00000000000000000000000
201501100060000100000000000000017932000000000000000179329611111111111111111111CONS-FINAL                    000000000032500000000000000000000000000000000000000000000000000000000000000000000000000000000000000000000000000000000000PES00010000001 00000000000000000000000
201501100060000100000000000000017933000000000000000179339611111111111111111111CONS-FINAL                    000000000028000000000000000000000000000000000000000000000000000000000000000000000000000000000000000000000000000000000000PES00010000001 00000000000000000000000
201501100060000100000000000000017934000000000000000179349611111111111111111111CONS-FINAL                    000000000032500000000000000000000000000000000000000000000000000000000000000000000000000000000000000000000000000000000000PES00010000001 00000000000000000000000
201501100060000100000000000000017935000000000000000179359611111111111111111111CONS-FINAL                    000000000026500000000000000000000000000000000000000000000000000000000000000000000000000000000000000000000000000000000000PES00010000001 00000000000000000000000
201501100060000100000000000000017936000000000000000179369611111111111111111111CONS-FINAL                    000000000015000000000000000000000000000000000000000000000000000000000000000000000000000000000000000000000000000000000000PES00010000001 00000000000000000000000
201501120060000100000000000000017937000000000000000179379611111111111111111111CONS-FINAL                    000000000027500000000000000000000000000000000000000000000000000000000000000000000000000000000000000000000000000000000000PES00010000001 00000000000000000000000
201501120060000100000000000000017938000000000000000179389611111111111111111111CONS-FINAL                    000000000097000000000000000000000000000000000000000000000000000000000000000000000000000000000000000000000000000000000000PES00010000001 00000000000000000000000
201501120060000100000000000000017939000000000000000179399611111111111111111111CONS-FINAL                    000000000072000000000000000000000000000000000000000000000000000000000000000000000000000000000000000000000000000000000000PES00010000001 00000000000000000000000
201501120060000100000000000000017940000000000000000179409611111111111111111111CONS-FINAL                    000000000019000000000000000000000000000000000000000000000000000000000000000000000000000000000000000000000000000000000000PES00010000001 00000000000000000000000
201501120060000100000000000000017941000000000000000179419611111111111111111111CONS-FINAL                    000000000040000000000000000000000000000000000000000000000000000000000000000000000000000000000000000000000000000000000000PES00010000001 00000000000000000000000
201501120060000100000000000000017942000000000000000179429611111111111111111111CONS-FINAL                    000000000029000000000000000000000000000000000000000000000000000000000000000000000000000000000000000000000000000000000000PES00010000001 00000000000000000000000
201501120060000100000000000000017943000000000000000179439611111111111111111111CONS-FINAL                    000000000021500000000000000000000000000000000000000000000000000000000000000000000000000000000000000000000000000000000000PES00010000001 00000000000000000000000
201501120060000100000000000000017944000000000000000179449611111111111111111111CONS-FINAL                    000000000065000000000000000000000000000000000000000000000000000000000000000000000000000000000000000000000000000000000000PES00010000001 00000000000000000000000
201501120060000100000000000000017945000000000000000179459611111111111111111111CONS-FINAL                    000000000009500000000000000000000000000000000000000000000000000000000000000000000000000000000000000000000000000000000000PES00010000001 00000000000000000000000
201501120060000100000000000000017946000000000000000179469611111111111111111111CONS-FINAL                    000000000038000000000000000000000000000000000000000000000000000000000000000000000000000000000000000000000000000000000000PES00010000001 00000000000000000000000
201501120060000100000000000000017947000000000000000179479611111111111111111111CONS-FINAL                    000000000008500000000000000000000000000000000000000000000000000000000000000000000000000000000000000000000000000000000000PES00010000001 00000000000000000000000
201501120060000100000000000000017948000000000000000179489611111111111111111111CONS-FINAL                    000000000023500000000000000000000000000000000000000000000000000000000000000000000000000000000000000000000000000000000000PES00010000001 00000000000000000000000
201501120060000100000000000000017949000000000000000179499611111111111111111111CONS-FINAL                    000000000037000000000000000000000000000000000000000000000000000000000000000000000000000000000000000000000000000000000000PES00010000001 00000000000000000000000
201501120060000100000000000000017950000000000000000179509611111111111111111111CONS-FINAL                    000000000086000000000000000000000000000000000000000000000000000000000000000000000000000000000000000000000000000000000000PES00010000001 00000000000000000000000
201501120060000100000000000000017951000000000000000179519611111111111111111111CONS-FINAL                    000000000073500000000000000000000000000000000000000000000000000000000000000000000000000000000000000000000000000000000000PES00010000001 00000000000000000000000
201501120060000100000000000000017952000000000000000179529611111111111111111111CONS-FINAL                    000000000036000000000000000000000000000000000000000000000000000000000000000000000000000000000000000000000000000000000000PES00010000001 00000000000000000000000
201501120060000100000000000000017953000000000000000179539611111111111111111111CONS-FINAL                    000000000026000000000000000000000000000000000000000000000000000000000000000000000000000000000000000000000000000000000000PES00010000001 00000000000000000000000
201501130060000100000000000000017954000000000000000179549611111111111111111111CONS-FINAL                    000000000087500000000000000000000000000000000000000000000000000000000000000000000000000000000000000000000000000000000000PES00010000001 00000000000000000000000
201501130060000100000000000000017955000000000000000179559611111111111111111111CONS-FINAL                    000000000223000000000000000000000000000000000000000000000000000000000000000000000000000000000000000000000000000000000000PES00010000001 00000000000000000000000
201501130060000100000000000000017956000000000000000179569611111111111111111111CONS-FINAL                    000000000097000000000000000000000000000000000000000000000000000000000000000000000000000000000000000000000000000000000000PES00010000001 00000000000000000000000
201501130060000100000000000000017957000000000000000179579611111111111111111111CONS-FINAL                    000000000036000000000000000000000000000000000000000000000000000000000000000000000000000000000000000000000000000000000000PES00010000001 00000000000000000000000
201501130060000100000000000000017958000000000000000179589611111111111111111111CONS-FINAL                    000000000032500000000000000000000000000000000000000000000000000000000000000000000000000000000000000000000000000000000000PES00010000001 00000000000000000000000
201501130060000100000000000000017959000000000000000179599611111111111111111111CONS-FINAL                    000000000017000000000000000000000000000000000000000000000000000000000000000000000000000000000000000000000000000000000000PES00010000001 00000000000000000000000
201501130060000100000000000000017960000000000000000179609611111111111111111111CONS-FINAL                    000000000077000000000000000000000000000000000000000000000000000000000000000000000000000000000000000000000000000000000000PES00010000001 00000000000000000000000
201501130060000100000000000000017961000000000000000179619611111111111111111111CONS-FINAL                    000000000068000000000000000000000000000000000000000000000000000000000000000000000000000000000000000000000000000000000000PES00010000001 00000000000000000000000
201501130060000100000000000000017962000000000000000179629611111111111111111111CONS-FINAL                    000000000107500000000000000000000000000000000000000000000000000000000000000000000000000000000000000000000000000000000000PES00010000001 00000000000000000000000
201501130060000100000000000000017963000000000000000179639611111111111111111111CONS-FINAL                    000000000092000000000000000000000000000000000000000000000000000000000000000000000000000000000000000000000000000000000000PES00010000001 00000000000000000000000
201501130060000100000000000000017964000000000000000179649611111111111111111111CONS-FINAL                    000000000049000000000000000000000000000000000000000000000000000000000000000000000000000000000000000000000000000000000000PES00010000001 00000000000000000000000
201501140060000100000000000000017965000000000000000179659611111111111111111111CONS-FINAL                    000000000027500000000000000000000000000000000000000000000000000000000000000000000000000000000000000000000000000000000000PES00010000001 00000000000000000000000
201501140060000100000000000000017966000000000000000179669611111111111111111111CONS-FINAL                    000000000006500000000000000000000000000000000000000000000000000000000000000000000000000000000000000000000000000000000000PES00010000001 00000000000000000000000
201501140060000100000000000000017967000000000000000179679611111111111111111111CONS-FINAL                    000000000038300000000000000000000000000000000000000000000000000000000000000000000000000000000000000000000000000000000000PES00010000001 00000000000000000000000
201501140060000100000000000000017968000000000000000179689611111111111111111111CONS-FINAL                    000000000019500000000000000000000000000000000000000000000000000000000000000000000000000000000000000000000000000000000000PES00010000001 00000000000000000000000
201501140060000100000000000000017969000000000000000179699611111111111111111111CONS-FINAL                    000000000018300000000000000000000000000000000000000000000000000000000000000000000000000000000000000000000000000000000000PES00010000001 00000000000000000000000
201501140060000100000000000000017970000000000000000179709611111111111111111111CONS-FINAL                    000000000118500000000000000000000000000000000000000000000000000000000000000000000000000000000000000000000000000000000000PES00010000001 00000000000000000000000
201501140060000100000000000000017971000000000000000179719611111111111111111111CONS-FINAL                    000000000025000000000000000000000000000000000000000000000000000000000000000000000000000000000000000000000000000000000000PES00010000001 00000000000000000000000
201501140060000100000000000000017972000000000000000179729611111111111111111111CONS-FINAL                    000000000058500000000000000000000000000000000000000000000000000000000000000000000000000000000000000000000000000000000000PES00010000001 00000000000000000000000
201501140060000100000000000000017973000000000000000179739611111111111111111111CONS-FINAL                    000000000036000000000000000000000000000000000000000000000000000000000000000000000000000000000000000000000000000000000000PES00010000001 00000000000000000000000
201501140060000100000000000000017974000000000000000179749611111111111111111111CONS-FINAL                    000000000014500000000000000000000000000000000000000000000000000000000000000000000000000000000000000000000000000000000000PES00010000001 00000000000000000000000
201501140060000100000000000000017975000000000000000179759611111111111111111111CONS-FINAL                    000000000040500000000000000000000000000000000000000000000000000000000000000000000000000000000000000000000000000000000000PES00010000001 00000000000000000000000
201501140060000100000000000000017976000000000000000179769611111111111111111111CONS-FINAL                    000000000045000000000000000000000000000000000000000000000000000000000000000000000000000000000000000000000000000000000000PES00010000001 00000000000000000000000
201501140060000100000000000000017977000000000000000179779611111111111111111111CONS-FINAL                    000000000024500000000000000000000000000000000000000000000000000000000000000000000000000000000000000000000000000000000000PES00010000001 00000000000000000000000
201501140060000100000000000000017978000000000000000179789611111111111111111111CONS-FINAL                    000000000058000000000000000000000000000000000000000000000000000000000000000000000000000000000000000000000000000000000000PES00010000001 00000000000000000000000
201501140060000100000000000000017979000000000000000179799611111111111111111111CONS-FINAL                    000000000015500000000000000000000000000000000000000000000000000000000000000000000000000000000000000000000000000000000000PES00010000001 00000000000000000000000
201501150060000100000000000000017980000000000000000179809611111111111111111111CONS-FINAL                    000000000037500000000000000000000000000000000000000000000000000000000000000000000000000000000000000000000000000000000000PES00010000001 00000000000000000000000
201501150060000100000000000000017981000000000000000179819611111111111111111111CONS-FINAL                    000000000041500000000000000000000000000000000000000000000000000000000000000000000000000000000000000000000000000000000000PES00010000001 00000000000000000000000
201501150060000100000000000000017982000000000000000179829611111111111111111111CONS-FINAL                    000000000043300000000000000000000000000000000000000000000000000000000000000000000000000000000000000000000000000000000000PES00010000001 00000000000000000000000
201501150060000100000000000000017983000000000000000179839611111111111111111111CONS-FINAL                    000000000042500000000000000000000000000000000000000000000000000000000000000000000000000000000000000000000000000000000000PES00010000001 00000000000000000000000
201501160060000100000000000000017984000000000000000179849611111111111111111111CONS-FINAL                    000000000039000000000000000000000000000000000000000000000000000000000000000000000000000000000000000000000000000000000000PES00010000001 00000000000000000000000
201501160060000100000000000000017985000000000000000179859611111111111111111111CONS-FINAL                    000000000019500000000000000000000000000000000000000000000000000000000000000000000000000000000000000000000000000000000000PES00010000001 00000000000000000000000
201501160060000100000000000000017986000000000000000179869611111111111111111111CONS-FINAL                    000000000249300000000000000000000000000000000000000000000000000000000000000000000000000000000000000000000000000000000000PES00010000001 00000000000000000000000
201501160060000100000000000000017987000000000000000179879611111111111111111111CONS-FINAL                    000000000042500000000000000000000000000000000000000000000000000000000000000000000000000000000000000000000000000000000000PES00010000001 00000000000000000000000
201501160060000100000000000000017988000000000000000179889611111111111111111111CONS-FINAL                    000000000216000000000000000000000000000000000000000000000000000000000000000000000000000000000000000000000000000000000000PES00010000001 00000000000000000000000
201501160060000100000000000000017989000000000000000179899611111111111111111111CONS-FINAL                    000000000059000000000000000000000000000000000000000000000000000000000000000000000000000000000000000000000000000000000000PES00010000001 00000000000000000000000
201501160060000100000000000000017990000000000000000179909611111111111111111111CONS-FINAL                    000000000013000000000000000000000000000000000000000000000000000000000000000000000000000000000000000000000000000000000000PES00010000001 00000000000000000000000
201501160060000100000000000000017991000000000000000179919611111111111111111111CONS-FINAL                    000000000021500000000000000000000000000000000000000000000000000000000000000000000000000000000000000000000000000000000000PES00010000001 00000000000000000000000
201501160060000100000000000000017992000000000000000179929611111111111111111111CONS-FINAL                    000000000037400000000000000000000000000000000000000000000000000000000000000000000000000000000000000000000000000000000000PES00010000001 00000000000000000000000
201501160060000100000000000000017993000000000000000179939611111111111111111111CONS-FINAL                    000000000081500000000000000000000000000000000000000000000000000000000000000000000000000000000000000000000000000000000000PES00010000001 00000000000000000000000
201501160060000100000000000000017994000000000000000179949611111111111111111111CONS-FINAL                    000000000202000000000000000000000000000000000000000000000000000000000000000000000000000000000000000000000000000000000000PES00010000001 00000000000000000000000
201501160060000100000000000000017995000000000000000179959611111111111111111111CONS-FINAL                    000000000045000000000000000000000000000000000000000000000000000000000000000000000000000000000000000000000000000000000000PES00010000001 00000000000000000000000
201501160060000100000000000000017996000000000000000179969611111111111111111111CONS-FINAL                    000000000021500000000000000000000000000000000000000000000000000000000000000000000000000000000000000000000000000000000000PES00010000001 00000000000000000000000
201501170060000100000000000000017997000000000000000179979611111111111111111111CONS-FINAL                    000000000009500000000000000000000000000000000000000000000000000000000000000000000000000000000000000000000000000000000000PES00010000001 00000000000000000000000
201501170060000100000000000000017998000000000000000179989611111111111111111111CONS-FINAL                    000000000014500000000000000000000000000000000000000000000000000000000000000000000000000000000000000000000000000000000000PES00010000001 00000000000000000000000
201501170060000100000000000000017999000000000000000179999611111111111111111111CONS-FINAL                    000000000047500000000000000000000000000000000000000000000000000000000000000000000000000000000000000000000000000000000000PES00010000001 00000000000000000000000
201501170060000100000000000000018000000000000000000180009611111111111111111111CONS-FINAL                    000000000414000000000000000000000000000000000000000000000000000000000000000000000000000000000000000000000000000000000000PES00010000001 00000000000000000000000
201501170060000100000000000000018001000000000000000180019611111111111111111111CONS-FINAL                    000000000031500000000000000000000000000000000000000000000000000000000000000000000000000000000000000000000000000000000000PES00010000001 00000000000000000000000
201501170060000100000000000000018002000000000000000180029611111111111111111111CONS-FINAL                    000000000012500000000000000000000000000000000000000000000000000000000000000000000000000000000000000000000000000000000000PES00010000001 00000000000000000000000
201501170060000100000000000000018003000000000000000180039611111111111111111111CONS-FINAL                    000000000013000000000000000000000000000000000000000000000000000000000000000000000000000000000000000000000000000000000000PES00010000001 00000000000000000000000
201501170060000100000000000000018004000000000000000180049611111111111111111111CONS-FINAL                    000000000049000000000000000000000000000000000000000000000000000000000000000000000000000000000000000000000000000000000000PES00010000001 00000000000000000000000
201501170060000100000000000000018005000000000000000180059611111111111111111111CONS-FINAL                    000000000078000000000000000000000000000000000000000000000000000000000000000000000000000000000000000000000000000000000000PES00010000001 00000000000000000000000
201501170060000100000000000000018006000000000000000180069611111111111111111111CONS-FINAL                    000000000080000000000000000000000000000000000000000000000000000000000000000000000000000000000000000000000000000000000000PES00010000001 00000000000000000000000
201501170060000100000000000000018007000000000000000180079611111111111111111111CONS-FINAL                    000000000042000000000000000000000000000000000000000000000000000000000000000000000000000000000000000000000000000000000000PES00010000001 00000000000000000000000
201501170060000100000000000000018008000000000000000180089611111111111111111111CONS-FINAL                    000000000057000000000000000000000000000000000000000000000000000000000000000000000000000000000000000000000000000000000000PES00010000001 00000000000000000000000
201501170060000100000000000000018009000000000000000180099611111111111111111111CONS-FINAL                    000000000019500000000000000000000000000000000000000000000000000000000000000000000000000000000000000000000000000000000000PES00010000001 00000000000000000000000
201501170060000100000000000000018010000000000000000180109611111111111111111111CONS-FINAL                    000000000063800000000000000000000000000000000000000000000000000000000000000000000000000000000000000000000000000000000000PES00010000001 00000000000000000000000
201501170060000100000000000000018011000000000000000180119611111111111111111111CONS-FINAL                    000000000055000000000000000000000000000000000000000000000000000000000000000000000000000000000000000000000000000000000000PES00010000001 00000000000000000000000
201501170060000100000000000000018012000000000000000180129611111111111111111111CONS-FINAL                    000000000171000000000000000000000000000000000000000000000000000000000000000000000000000000000000000000000000000000000000PES00010000001 00000000000000000000000
201501170060000100000000000000018013000000000000000180139611111111111111111111CONS-FINAL                    000000000073800000000000000000000000000000000000000000000000000000000000000000000000000000000000000000000000000000000000PES00010000001 00000000000000000000000
201501170060000100000000000000018014000000000000000180149611111111111111111111CONS-FINAL                    000000000220000000000000000000000000000000000000000000000000000000000000000000000000000000000000000000000000000000000000PES00010000001 00000000000000000000000
201501170060000100000000000000018015000000000000000180159611111111111111111111CONS-FINAL                    000000000087500000000000000000000000000000000000000000000000000000000000000000000000000000000000000000000000000000000000PES00010000001 00000000000000000000000
201501170060000100000000000000018016000000000000000180169611111111111111111111CONS-FINAL                    000000000032800000000000000000000000000000000000000000000000000000000000000000000000000000000000000000000000000000000000PES00010000001 00000000000000000000000
201501170060000100000000000000018017000000000000000180179611111111111111111111CONS-FINAL                    000000000156000000000000000000000000000000000000000000000000000000000000000000000000000000000000000000000000000000000000PES00010000001 00000000000000000000000
201501170060000100000000000000018018000000000000000180189611111111111111111111CONS-FINAL                    000000000029500000000000000000000000000000000000000000000000000000000000000000000000000000000000000000000000000000000000PES00010000001 00000000000000000000000
201501170060000100000000000000018019000000000000000180199611111111111111111111CONS-FINAL                    000000000062000000000000000000000000000000000000000000000000000000000000000000000000000000000000000000000000000000000000PES00010000001 00000000000000000000000
201501170060000100000000000000018020000000000000000180209611111111111111111111CONS-FINAL                    000000000065000000000000000000000000000000000000000000000000000000000000000000000000000000000000000000000000000000000000PES00010000001 00000000000000000000000
201501170060000100000000000000018021000000000000000180219611111111111111111111CONS-FINAL                    000000000022000000000000000000000000000000000000000000000000000000000000000000000000000000000000000000000000000000000000PES00010000001 00000000000000000000000
201501170060000100000000000000018022000000000000000180229611111111111111111111CONS-FINAL                    000000000064000000000000000000000000000000000000000000000000000000000000000000000000000000000000000000000000000000000000PES00010000001 00000000000000000000000
201501190060000100000000000000018023000000000000000180239611111111111111111111CONS-FINAL                    000000000011500000000000000000000000000000000000000000000000000000000000000000000000000000000000000000000000000000000000PES00010000001 00000000000000000000000
201501190060000100000000000000018024000000000000000180249611111111111111111111CONS-FINAL                    000000000089500000000000000000000000000000000000000000000000000000000000000000000000000000000000000000000000000000000000PES00010000001 00000000000000000000000
201501190060000100000000000000018025000000000000000180259611111111111111111111CONS-FINAL                    000000000017500000000000000000000000000000000000000000000000000000000000000000000000000000000000000000000000000000000000PES00010000001 00000000000000000000000
201501190060000100000000000000018026000000000000000180269611111111111111111111CONS-FINAL                    000000000129500000000000000000000000000000000000000000000000000000000000000000000000000000000000000000000000000000000000PES00010000001 00000000000000000000000
201501190060000100000000000000018027000000000000000180279611111111111111111111CONS-FINAL                    000000000018000000000000000000000000000000000000000000000000000000000000000000000000000000000000000000000000000000000000PES00010000001 00000000000000000000000
201501190060000100000000000000018028000000000000000180289611111111111111111111CONS-FINAL                    000000000035000000000000000000000000000000000000000000000000000000000000000000000000000000000000000000000000000000000000PES00010000001 00000000000000000000000
201501190060000100000000000000018029000000000000000180299611111111111111111111CONS-FINAL                    000000000088500000000000000000000000000000000000000000000000000000000000000000000000000000000000000000000000000000000000PES00010000001 00000000000000000000000
201501190060000100000000000000018030000000000000000180309611111111111111111111CONS-FINAL                    000000000126700000000000000000000000000000000000000000000000000000000000000000000000000000000000000000000000000000000000PES00010000001 00000000000000000000000
201501190060000100000000000000018031000000000000000180319611111111111111111111CONS-FINAL                    000000000078000000000000000000000000000000000000000000000000000000000000000000000000000000000000000000000000000000000000PES00010000001 00000000000000000000000
201501190060000100000000000000018032000000000000000180329611111111111111111111CONS-FINAL                    000000000087500000000000000000000000000000000000000000000000000000000000000000000000000000000000000000000000000000000000PES00010000001 00000000000000000000000
201501190060000100000000000000018033000000000000000180339611111111111111111111CONS-FINAL                    000000000015000000000000000000000000000000000000000000000000000000000000000000000000000000000000000000000000000000000000PES00010000001 00000000000000000000000
201501190060000100000000000000018034000000000000000180349611111111111111111111CONS-FINAL                    000000000135000000000000000000000000000000000000000000000000000000000000000000000000000000000000000000000000000000000000PES00010000001 00000000000000000000000
201501200060000100000000000000018035000000000000000180359611111111111111111111CONS-FINAL                    000000000066800000000000000000000000000000000000000000000000000000000000000000000000000000000000000000000000000000000000PES00010000001 00000000000000000000000
201501200060000100000000000000018036000000000000000180369611111111111111111111CONS-FINAL                    000000000030000000000000000000000000000000000000000000000000000000000000000000000000000000000000000000000000000000000000PES00010000001 00000000000000000000000
201501200060000100000000000000018037000000000000000180379611111111111111111111CONS-FINAL                    000000000045000000000000000000000000000000000000000000000000000000000000000000000000000000000000000000000000000000000000PES00010000001 00000000000000000000000
201501200060000100000000000000018038000000000000000180389611111111111111111111CONS-FINAL                    000000000006800000000000000000000000000000000000000000000000000000000000000000000000000000000000000000000000000000000000PES00010000001 00000000000000000000000
201501200060000100000000000000018039000000000000000180399611111111111111111111CONS-FINAL                    000000000043000000000000000000000000000000000000000000000000000000000000000000000000000000000000000000000000000000000000PES00010000001 00000000000000000000000
201501200060000100000000000000018040000000000000000180409611111111111111111111CONS-FINAL                    000000000044000000000000000000000000000000000000000000000000000000000000000000000000000000000000000000000000000000000000PES00010000001 00000000000000000000000
201501200060000100000000000000018041000000000000000180419611111111111111111111CONS-FINAL                    000000000015000000000000000000000000000000000000000000000000000000000000000000000000000000000000000000000000000000000000PES00010000001 00000000000000000000000
201501200060000100000000000000018042000000000000000180429611111111111111111111CONS-FINAL                    000000000207600000000000000000000000000000000000000000000000000000000000000000000000000000000000000000000000000000000000PES00010000001 00000000000000000000000
201501200060000100000000000000018043000000000000000180439611111111111111111111CONS-FINAL                    000000000012000000000000000000000000000000000000000000000000000000000000000000000000000000000000000000000000000000000000PES00010000001 00000000000000000000000
201501200060000100000000000000018044000000000000000180449611111111111111111111CONS-FINAL                    000000000017000000000000000000000000000000000000000000000000000000000000000000000000000000000000000000000000000000000000PES00010000001 00000000000000000000000
201501200060000100000000000000018045000000000000000180459611111111111111111111CONS-FINAL                    000000000016500000000000000000000000000000000000000000000000000000000000000000000000000000000000000000000000000000000000PES00010000001 00000000000000000000000
201501200060000100000000000000018046000000000000000180469611111111111111111111CONS-FINAL                    000000000077000000000000000000000000000000000000000000000000000000000000000000000000000000000000000000000000000000000000PES00010000001 00000000000000000000000
201501210060000100000000000000018047000000000000000180479611111111111111111111CONS-FINAL                    000000000033500000000000000000000000000000000000000000000000000000000000000000000000000000000000000000000000000000000000PES00010000001 00000000000000000000000
201501210060000100000000000000018048000000000000000180489611111111111111111111CONS-FINAL                    000000000037000000000000000000000000000000000000000000000000000000000000000000000000000000000000000000000000000000000000PES00010000001 00000000000000000000000
201501210060000100000000000000018049000000000000000180499611111111111111111111CONS-FINAL                    000000000017500000000000000000000000000000000000000000000000000000000000000000000000000000000000000000000000000000000000PES00010000001 00000000000000000000000
201501210060000100000000000000018050000000000000000180509611111111111111111111CONS-FINAL                    000000000009500000000000000000000000000000000000000000000000000000000000000000000000000000000000000000000000000000000000PES00010000001 00000000000000000000000
201501210060000100000000000000018051000000000000000180519611111111111111111111CONS-FINAL                    000000000023800000000000000000000000000000000000000000000000000000000000000000000000000000000000000000000000000000000000PES00010000001 00000000000000000000000
201501210060000100000000000000018052000000000000000180529611111111111111111111CONS-FINAL                    000000000026300000000000000000000000000000000000000000000000000000000000000000000000000000000000000000000000000000000000PES00010000001 00000000000000000000000
201501210060000100000000000000018053000000000000000180539611111111111111111111CONS-FINAL                    000000000018500000000000000000000000000000000000000000000000000000000000000000000000000000000000000000000000000000000000PES00010000001 00000000000000000000000
201501210060000100000000000000018054000000000000000180549611111111111111111111CONS-FINAL                    000000000045000000000000000000000000000000000000000000000000000000000000000000000000000000000000000000000000000000000000PES00010000001 00000000000000000000000
201501210060000100000000000000018055000000000000000180559611111111111111111111CONS-FINAL                    000000000015500000000000000000000000000000000000000000000000000000000000000000000000000000000000000000000000000000000000PES00010000001 00000000000000000000000
201501210060000100000000000000018056000000000000000180569611111111111111111111CONS-FINAL                    000000000081100000000000000000000000000000000000000000000000000000000000000000000000000000000000000000000000000000000000PES00010000001 00000000000000000000000
201501210060000100000000000000018057000000000000000180579611111111111111111111CONS-FINAL                    000000000062000000000000000000000000000000000000000000000000000000000000000000000000000000000000000000000000000000000000PES00010000001 00000000000000000000000
201501210060000100000000000000018058000000000000000180589611111111111111111111CONS-FINAL                    000000000042000000000000000000000000000000000000000000000000000000000000000000000000000000000000000000000000000000000000PES00010000001 00000000000000000000000
201501210060000100000000000000018059000000000000000180599611111111111111111111CONS-FINAL                    000000000039500000000000000000000000000000000000000000000000000000000000000000000000000000000000000000000000000000000000PES00010000001 00000000000000000000000
201501220060000100000000000000018060000000000000000180609611111111111111111111CONS-FINAL                    000000000069000000000000000000000000000000000000000000000000000000000000000000000000000000000000000000000000000000000000PES00010000001 00000000000000000000000
201501220060000100000000000000018061000000000000000180619611111111111111111111CONS-FINAL                    000000000038000000000000000000000000000000000000000000000000000000000000000000000000000000000000000000000000000000000000PES00010000001 00000000000000000000000
201501220060000100000000000000018062000000000000000180629611111111111111111111CONS-FINAL                    000000000062000000000000000000000000000000000000000000000000000000000000000000000000000000000000000000000000000000000000PES00010000001 00000000000000000000000
201501220060000100000000000000018063000000000000000180639611111111111111111111CONS-FINAL                    000000000055600000000000000000000000000000000000000000000000000000000000000000000000000000000000000000000000000000000000PES00010000001 00000000000000000000000
201501220060000100000000000000018064000000000000000180649611111111111111111111CONS-FINAL                    000000000044500000000000000000000000000000000000000000000000000000000000000000000000000000000000000000000000000000000000PES00010000001 00000000000000000000000
201501230060000100000000000000018065000000000000000180659611111111111111111111CONS-FINAL                    000000000017500000000000000000000000000000000000000000000000000000000000000000000000000000000000000000000000000000000000PES00010000001 00000000000000000000000
201501230060000100000000000000018066000000000000000180669611111111111111111111CONS-FINAL                    000000000094000000000000000000000000000000000000000000000000000000000000000000000000000000000000000000000000000000000000PES00010000001 00000000000000000000000
201501230060000100000000000000018067000000000000000180679611111111111111111111CONS-FINAL                    000000000012500000000000000000000000000000000000000000000000000000000000000000000000000000000000000000000000000000000000PES00010000001 00000000000000000000000
201501230060000100000000000000018068000000000000000180689611111111111111111111CONS-FINAL                    000000000015000000000000000000000000000000000000000000000000000000000000000000000000000000000000000000000000000000000000PES00010000001 00000000000000000000000
201501230060000100000000000000018069000000000000000180699611111111111111111111CONS-FINAL                    000000000061500000000000000000000000000000000000000000000000000000000000000000000000000000000000000000000000000000000000PES00010000001 00000000000000000000000
201501230060000100000000000000018070000000000000000180709611111111111111111111CONS-FINAL                    000000000036000000000000000000000000000000000000000000000000000000000000000000000000000000000000000000000000000000000000PES00010000001 00000000000000000000000
201501230060000100000000000000018071000000000000000180719611111111111111111111CONS-FINAL                    000000000035000000000000000000000000000000000000000000000000000000000000000000000000000000000000000000000000000000000000PES00010000001 00000000000000000000000
201501230060000100000000000000018072000000000000000180729611111111111111111111CONS-FINAL                    000000000037000000000000000000000000000000000000000000000000000000000000000000000000000000000000000000000000000000000000PES00010000001 00000000000000000000000
201501230060000100000000000000018073000000000000000180739611111111111111111111CONS-FINAL                    000000000030000000000000000000000000000000000000000000000000000000000000000000000000000000000000000000000000000000000000PES00010000001 00000000000000000000000
201501230060000100000000000000018074000000000000000180749611111111111111111111CONS-FINAL                    000000000015000000000000000000000000000000000000000000000000000000000000000000000000000000000000000000000000000000000000PES00010000001 00000000000000000000000
201501230060000100000000000000018075000000000000000180759611111111111111111111CONS-FINAL                    000000000024600000000000000000000000000000000000000000000000000000000000000000000000000000000000000000000000000000000000PES00010000001 00000000000000000000000
201501230060000100000000000000018076000000000000000180769611111111111111111111CONS-FINAL                    000000000310000000000000000000000000000000000000000000000000000000000000000000000000000000000000000000000000000000000000PES00010000001 00000000000000000000000
201501230060000100000000000000018077000000000000000180779611111111111111111111CONS-FINAL                    000000000042500000000000000000000000000000000000000000000000000000000000000000000000000000000000000000000000000000000000PES00010000001 00000000000000000000000
201501230060000100000000000000018078000000000000000180789611111111111111111111CONS-FINAL                    000000000218000000000000000000000000000000000000000000000000000000000000000000000000000000000000000000000000000000000000PES00010000001 00000000000000000000000
201501230060000100000000000000018079000000000000000180799611111111111111111111CONS-FINAL                    000000000131000000000000000000000000000000000000000000000000000000000000000000000000000000000000000000000000000000000000PES00010000001 00000000000000000000000
201501230060000100000000000000018080000000000000000180809611111111111111111111CONS-FINAL                    000000000005500000000000000000000000000000000000000000000000000000000000000000000000000000000000000000000000000000000000PES00010000001 00000000000000000000000
201501230060000100000000000000018081000000000000000180819611111111111111111111CONS-FINAL                    000000000111500000000000000000000000000000000000000000000000000000000000000000000000000000000000000000000000000000000000PES00010000001 00000000000000000000000
201501230060000100000000000000018082000000000000000180829611111111111111111111CONS-FINAL                    000000000079500000000000000000000000000000000000000000000000000000000000000000000000000000000000000000000000000000000000PES00010000001 00000000000000000000000
201501240060000100000000000000018083000000000000000180839611111111111111111111CONS-FINAL                    000000000153800000000000000000000000000000000000000000000000000000000000000000000000000000000000000000000000000000000000PES00010000001 00000000000000000000000
201501240060000100000000000000018084000000000000000180849611111111111111111111CONS-FINAL                    000000000120200000000000000000000000000000000000000000000000000000000000000000000000000000000000000000000000000000000000PES00010000001 00000000000000000000000
201501240060000100000000000000018085000000000000000180859611111111111111111111CONS-FINAL                    000000000114900000000000000000000000000000000000000000000000000000000000000000000000000000000000000000000000000000000000PES00010000001 00000000000000000000000
201501240060000100000000000000018086000000000000000180869611111111111111111111CONS-FINAL                    000000000025500000000000000000000000000000000000000000000000000000000000000000000000000000000000000000000000000000000000PES00010000001 00000000000000000000000
201501240060000100000000000000018087000000000000000180879611111111111111111111CONS-FINAL                    000000000100200000000000000000000000000000000000000000000000000000000000000000000000000000000000000000000000000000000000PES00010000001 00000000000000000000000
201501240060000100000000000000018088000000000000000180889611111111111111111111CONS-FINAL                    000000000064300000000000000000000000000000000000000000000000000000000000000000000000000000000000000000000000000000000000PES00010000001 00000000000000000000000
201501240060000100000000000000018089000000000000000180899611111111111111111111CONS-FINAL                    000000000024500000000000000000000000000000000000000000000000000000000000000000000000000000000000000000000000000000000000PES00010000001 00000000000000000000000
201501240060000100000000000000018090000000000000000180909611111111111111111111CONS-FINAL                    000000000033800000000000000000000000000000000000000000000000000000000000000000000000000000000000000000000000000000000000PES00010000001 00000000000000000000000
201501240060000100000000000000018091000000000000000180919611111111111111111111CONS-FINAL                    000000000147000000000000000000000000000000000000000000000000000000000000000000000000000000000000000000000000000000000000PES00010000001 00000000000000000000000
201501240060000100000000000000018092000000000000000180929611111111111111111111CONS-FINAL                    000000000199200000000000000000000000000000000000000000000000000000000000000000000000000000000000000000000000000000000000PES00010000001 00000000000000000000000
201501240060000100000000000000018093000000000000000180939611111111111111111111CONS-FINAL                    000000000219400000000000000000000000000000000000000000000000000000000000000000000000000000000000000000000000000000000000PES00010000001 00000000000000000000000
201501240060000100000000000000018094000000000000000180949611111111111111111111CONS-FINAL                    000000000092000000000000000000000000000000000000000000000000000000000000000000000000000000000000000000000000000000000000PES00010000001 00000000000000000000000
201501240060000100000000000000018095000000000000000180959611111111111111111111CONS-FINAL                    000000000031500000000000000000000000000000000000000000000000000000000000000000000000000000000000000000000000000000000000PES00010000001 00000000000000000000000
201501240060000100000000000000018096000000000000000180969611111111111111111111CONS-FINAL                    000000000176700000000000000000000000000000000000000000000000000000000000000000000000000000000000000000000000000000000000PES00010000001 00000000000000000000000
201501240060000100000000000000018097000000000000000180979611111111111111111111CONS-FINAL                    000000000101900000000000000000000000000000000000000000000000000000000000000000000000000000000000000000000000000000000000PES00010000001 00000000000000000000000
201501240060000100000000000000018098000000000000000180989611111111111111111111CONS-FINAL                    000000000036000000000000000000000000000000000000000000000000000000000000000000000000000000000000000000000000000000000000PES00010000001 00000000000000000000000
201501240060000100000000000000018099000000000000000180999611111111111111111111CONS-FINAL                    000000000059300000000000000000000000000000000000000000000000000000000000000000000000000000000000000000000000000000000000PES00010000001 00000000000000000000000
201501240060000100000000000000018100000000000000000181009611111111111111111111CONS-FINAL                    000000000115200000000000000000000000000000000000000000000000000000000000000000000000000000000000000000000000000000000000PES00010000001 00000000000000000000000
201501240060000100000000000000018101000000000000000181019611111111111111111111CONS-FINAL                    000000000020600000000000000000000000000000000000000000000000000000000000000000000000000000000000000000000000000000000000PES00010000001 00000000000000000000000
201501240060000100000000000000018102000000000000000181029611111111111111111111CONS-FINAL                    000000000034600000000000000000000000000000000000000000000000000000000000000000000000000000000000000000000000000000000000PES00010000001 00000000000000000000000
201501240060000100000000000000018103000000000000000181039611111111111111111111CONS-FINAL                    000000000072500000000000000000000000000000000000000000000000000000000000000000000000000000000000000000000000000000000000PES00010000001 00000000000000000000000
201501240060000100000000000000018104000000000000000181049611111111111111111111CONS-FINAL                    000000000036000000000000000000000000000000000000000000000000000000000000000000000000000000000000000000000000000000000000PES00010000001 00000000000000000000000
201501240060000100000000000000018105000000000000000181059611111111111111111111CONS-FINAL                    000000000026300000000000000000000000000000000000000000000000000000000000000000000000000000000000000000000000000000000000PES00010000001 00000000000000000000000
201501240060000100000000000000018106000000000000000181069611111111111111111111CONS-FINAL                    000000000034000000000000000000000000000000000000000000000000000000000000000000000000000000000000000000000000000000000000PES00010000001 00000000000000000000000
201501240060000100000000000000018107000000000000000181079611111111111111111111CONS-FINAL                    000000000042000000000000000000000000000000000000000000000000000000000000000000000000000000000000000000000000000000000000PES00010000001 00000000000000000000000
201501240060000100000000000000018108000000000000000181089611111111111111111111CONS-FINAL                    000000000029000000000000000000000000000000000000000000000000000000000000000000000000000000000000000000000000000000000000PES00010000001 00000000000000000000000
201501240060000100000000000000018109000000000000000181099611111111111111111111CONS-FINAL                    000000000029100000000000000000000000000000000000000000000000000000000000000000000000000000000000000000000000000000000000PES00010000001 00000000000000000000000
201501260060000100000000000000018110000000000000000181109611111111111111111111CONS-FINAL                    000000000044200000000000000000000000000000000000000000000000000000000000000000000000000000000000000000000000000000000000PES00010000001 00000000000000000000000
201501260060000100000000000000018111000000000000000181119611111111111111111111CONS-FINAL                    000000000021100000000000000000000000000000000000000000000000000000000000000000000000000000000000000000000000000000000000PES00010000001 00000000000000000000000
201501260060000100000000000000018112000000000000000181129611111111111111111111CONS-FINAL                    000000000026000000000000000000000000000000000000000000000000000000000000000000000000000000000000000000000000000000000000PES00010000001 00000000000000000000000
201501260060000100000000000000018113000000000000000181139611111111111111111111CONS-FINAL                    000000000032500000000000000000000000000000000000000000000000000000000000000000000000000000000000000000000000000000000000PES00010000001 00000000000000000000000
201501260060000100000000000000018114000000000000000181149611111111111111111111CONS-FINAL                    000000000030000000000000000000000000000000000000000000000000000000000000000000000000000000000000000000000000000000000000PES00010000001 00000000000000000000000
201501260060000100000000000000018115000000000000000181159611111111111111111111CONS-FINAL                    000000000015000000000000000000000000000000000000000000000000000000000000000000000000000000000000000000000000000000000000PES00010000001 00000000000000000000000
201501260060000100000000000000018116000000000000000181169611111111111111111111CONS-FINAL                    000000000120000000000000000000000000000000000000000000000000000000000000000000000000000000000000000000000000000000000000PES00010000001 00000000000000000000000
201501260060000100000000000000018117000000000000000181179611111111111111111111CONS-FINAL                    000000000112600000000000000000000000000000000000000000000000000000000000000000000000000000000000000000000000000000000000PES00010000001 00000000000000000000000
201501260060000100000000000000018118000000000000000181189611111111111111111111CONS-FINAL                    000000000148700000000000000000000000000000000000000000000000000000000000000000000000000000000000000000000000000000000000PES00010000001 00000000000000000000000
201501260060000100000000000000018119000000000000000181199611111111111111111111CONS-FINAL                    000000000079000000000000000000000000000000000000000000000000000000000000000000000000000000000000000000000000000000000000PES00010000001 00000000000000000000000
201501260060000100000000000000018120000000000000000181209611111111111111111111CONS-FINAL                    000000000240000000000000000000000000000000000000000000000000000000000000000000000000000000000000000000000000000000000000PES00010000001 00000000000000000000000
201501260060000100000000000000018121000000000000000181219611111111111111111111CONS-FINAL                    000000000044000000000000000000000000000000000000000000000000000000000000000000000000000000000000000000000000000000000000PES00010000001 00000000000000000000000
201501260060000100000000000000018122000000000000000181229611111111111111111111CONS-FINAL                    000000000027500000000000000000000000000000000000000000000000000000000000000000000000000000000000000000000000000000000000PES00010000001 00000000000000000000000
201501260060000100000000000000018123000000000000000181239611111111111111111111CONS-FINAL                    000000000030000000000000000000000000000000000000000000000000000000000000000000000000000000000000000000000000000000000000PES00010000001 00000000000000000000000
201501260060000100000000000000018124000000000000000181249611111111111111111111CONS-FINAL                    000000000159800000000000000000000000000000000000000000000000000000000000000000000000000000000000000000000000000000000000PES00010000001 00000000000000000000000
201501260060000100000000000000018125000000000000000181259611111111111111111111CONS-FINAL                    000000000025000000000000000000000000000000000000000000000000000000000000000000000000000000000000000000000000000000000000PES00010000001 00000000000000000000000
201501270060000100000000000000018126000000000000000181269611111111111111111111CONS-FINAL                    000000000015000000000000000000000000000000000000000000000000000000000000000000000000000000000000000000000000000000000000PES00010000001 00000000000000000000000
201501270060000100000000000000018127000000000000000181279611111111111111111111CONS-FINAL                    000000000000100000000000000000000000000000000000000000000000000000000000000000000000000000000000000000000000000000000000PES00010000001 00000000000000000000000
201501270060000100000000000000018128000000000000000181289611111111111111111111CONS-FINAL                    000000000018000000000000000000000000000000000000000000000000000000000000000000000000000000000000000000000000000000000000PES00010000001 00000000000000000000000
201501270060000100000000000000018129000000000000000181299611111111111111111111CONS-FINAL                    000000000057200000000000000000000000000000000000000000000000000000000000000000000000000000000000000000000000000000000000PES00010000001 00000000000000000000000
201501270060000100000000000000018130000000000000000181309611111111111111111111CONS-FINAL                    000000000023500000000000000000000000000000000000000000000000000000000000000000000000000000000000000000000000000000000000PES00010000001 00000000000000000000000
201501270060000100000000000000018131000000000000000181319611111111111111111111CONS-FINAL                    000000000080000000000000000000000000000000000000000000000000000000000000000000000000000000000000000000000000000000000000PES00010000001 00000000000000000000000
201501270060000100000000000000018132000000000000000181329611111111111111111111CONS-FINAL                    000000000013300000000000000000000000000000000000000000000000000000000000000000000000000000000000000000000000000000000000PES00010000001 00000000000000000000000
201501270060000100000000000000018133000000000000000181339611111111111111111111CONS-FINAL                    000000000060000000000000000000000000000000000000000000000000000000000000000000000000000000000000000000000000000000000000PES00010000001 00000000000000000000000
201501270060000100000000000000018134000000000000000181349611111111111111111111CONS-FINAL                    000000000025300000000000000000000000000000000000000000000000000000000000000000000000000000000000000000000000000000000000PES00010000001 00000000000000000000000
201501270060000100000000000000018135000000000000000181359611111111111111111111CONS-FINAL                    000000000006000000000000000000000000000000000000000000000000000000000000000000000000000000000000000000000000000000000000PES00010000001 00000000000000000000000
201501270060000100000000000000018136000000000000000181369611111111111111111111CONS-FINAL                    000000000048800000000000000000000000000000000000000000000000000000000000000000000000000000000000000000000000000000000000PES00010000001 00000000000000000000000
201501270060000100000000000000018137000000000000000181379611111111111111111111CONS-FINAL                    000000000021500000000000000000000000000000000000000000000000000000000000000000000000000000000000000000000000000000000000PES00010000001 00000000000000000000000
201501280060000100000000000000018138000000000000000181389611111111111111111111CONS-FINAL                    000000000028800000000000000000000000000000000000000000000000000000000000000000000000000000000000000000000000000000000000PES00010000001 00000000000000000000000
201501280060000100000000000000018139000000000000000181399611111111111111111111CONS-FINAL                    000000000053500000000000000000000000000000000000000000000000000000000000000000000000000000000000000000000000000000000000PES00010000001 00000000000000000000000
201501280060000100000000000000018140000000000000000181409611111111111111111111CONS-FINAL                    000000000059500000000000000000000000000000000000000000000000000000000000000000000000000000000000000000000000000000000000PES00010000001 00000000000000000000000
201501280060000100000000000000018141000000000000000181419611111111111111111111CONS-FINAL                    000000000023800000000000000000000000000000000000000000000000000000000000000000000000000000000000000000000000000000000000PES00010000001 00000000000000000000000
201501280060000100000000000000018142000000000000000181429611111111111111111111CONS-FINAL                    000000000018000000000000000000000000000000000000000000000000000000000000000000000000000000000000000000000000000000000000PES00010000001 00000000000000000000000
201501280060000100000000000000018143000000000000000181439600000000030691961571-MERO-SA                      000000000041000000000000000000000000000000000000000000000000000000000000000000000000000000000000000000000000000000000000PES00010000001 00000000000000000000000
201501280060000100000000000000018144000000000000000181449611111111111111111111CONS-FINAL                    000000000064500000000000000000000000000000000000000000000000000000000000000000000000000000000000000000000000000000000000PES00010000001 00000000000000000000000
201501280060000100000000000000018145000000000000000181459611111111111111111111CONS-FINAL                    000000000030900000000000000000000000000000000000000000000000000000000000000000000000000000000000000000000000000000000000PES00010000001 00000000000000000000000
201501280060000100000000000000018146000000000000000181469611111111111111111111CONS-FINAL                    000000000078100000000000000000000000000000000000000000000000000000000000000000000000000000000000000000000000000000000000PES00010000001 00000000000000000000000
201501280060000100000000000000018147000000000000000181479611111111111111111111CONS-FINAL                    000000000069500000000000000000000000000000000000000000000000000000000000000000000000000000000000000000000000000000000000PES00010000001 00000000000000000000000
201501280060000100000000000000018148000000000000000181489611111111111111111111CONS-FINAL                    000000000041500000000000000000000000000000000000000000000000000000000000000000000000000000000000000000000000000000000000PES00010000001 00000000000000000000000
201501280060000100000000000000018149000000000000000181499611111111111111111111CONS-FINAL                    000000000023500000000000000000000000000000000000000000000000000000000000000000000000000000000000000000000000000000000000PES00010000001 00000000000000000000000
201501280060000100000000000000018150000000000000000181509611111111111111111111CONS-FINAL                    000000000057500000000000000000000000000000000000000000000000000000000000000000000000000000000000000000000000000000000000PES00010000001 00000000000000000000000
201501280060000100000000000000018151000000000000000181519611111111111111111111CONS-FINAL                    000000000024000000000000000000000000000000000000000000000000000000000000000000000000000000000000000000000000000000000000PES00010000001 00000000000000000000000
201501280060000100000000000000018152000000000000000181529611111111111111111111CONS-FINAL                    000000000107000000000000000000000000000000000000000000000000000000000000000000000000000000000000000000000000000000000000PES00010000001 00000000000000000000000
201501290060000100000000000000018153000000000000000181539611111111111111111111CONS-FINAL                    000000000113000000000000000000000000000000000000000000000000000000000000000000000000000000000000000000000000000000000000PES00010000001 00000000000000000000000
201501290060000100000000000000018154000000000000000181549611111111111111111111CONS-FINAL                    000000000027600000000000000000000000000000000000000000000000000000000000000000000000000000000000000000000000000000000000PES00010000001 00000000000000000000000
201501290060000100000000000000018155000000000000000181559611111111111111111111CONS-FINAL                    000000000086600000000000000000000000000000000000000000000000000000000000000000000000000000000000000000000000000000000000PES00010000001 00000000000000000000000
201501290060000100000000000000018156000000000000000181569611111111111111111111CONS-FINAL                    000000000042000000000000000000000000000000000000000000000000000000000000000000000000000000000000000000000000000000000000PES00010000001 00000000000000000000000
201501290060000100000000000000018157000000000000000181579611111111111111111111CONS-FINAL                    000000000007500000000000000000000000000000000000000000000000000000000000000000000000000000000000000000000000000000000000PES00010000001 00000000000000000000000
201501290060000100000000000000018158000000000000000181589611111111111111111111CONS-FINAL                    000000000309300000000000000000000000000000000000000000000000000000000000000000000000000000000000000000000000000000000000PES00010000001 00000000000000000000000
201501290060000100000000000000018159000000000000000181599611111111111111111111CONS-FINAL                    000000000007200000000000000000000000000000000000000000000000000000000000000000000000000000000000000000000000000000000000PES00010000001 00000000000000000000000
201501290060000100000000000000018160000000000000000181609611111111111111111111CONS-FINAL                    000000000117300000000000000000000000000000000000000000000000000000000000000000000000000000000000000000000000000000000000PES00010000001 00000000000000000000000
