201510010010000100000000000000001040000000000000000010408000000000030710942931JONES-SRL                     000000000108000000000000000000000000000000000000000000000000000000000000000000000000000000000000000000000000000000000000PES00010000001 00000000000000000000000
201510010010000100000000000000001041000000000000000010418000000000023012008724TEONIA-ZAIRES                 000000000571000000000000000000000000000000000000000000000000000000000000000000000000000000000000000000000000000000000000PES00010000001 00000000000000000000000
201510020010000100000000000000001042000000000000000010428000000000020125939687-GUSTAVO-DIE                  000000000275800000000000000000000000000000000000000000000000000000000000000000000000000000000000000000000000000000000000PES00010000001 00000000000000000000000
201510050010000100000000000000001043000000000000000010438000000000033691943289-SENDA-TEAM-SRL               000000000310000000000000000000000000000000000000000000000000000000000000000000000000000000000000000000000000000000000000PES00010000001 00000000000000000000000
201510060010000100000000000000001044000000000000000010448000000000033691943289-SENDA-TEAM-SRL               000000000077500000000000000000000000000000000000000000000000000000000000000000000000000000000000000000000000000000000000PES00010000001 00000000000000000000000
201510080010000100000000000000001045000000000000000010458000000000033691943289-SENDA-TEAM-SRL               000000001395000000000000000000000000000000000000000000000000000000000000000000000000000000000000000000000000000000000000PES00010000001 00000000000000000000000
201510090010000100000000000000001046000000000000000010468000000000033691943289-SENDA-TEAM-SRL               000000001395000000000000000000000000000000000000000000000000000000000000000000000000000000000000000000000000000000000000PES00010000001 00000000000000000000000
201510090010000100000000000000001047000000000000000010478000000000030709817023-FURLO-SRL                    000000000059400000000000000000000000000000000000000000000000000000000000000000000000000000000000000000000000000000000000PES00010000001 00000000000000000000000
201510090010000100000000000000001048000000000000000010488000000000030707822690-SPA-SER-SRL                  000000000183500000000000000000000000000000000000000000000000000000000000000000000000000000000000000000000000000000000000PES00010000001 00000000000000000000000
201510140010000100000000000000001049000000000000000010498000000000030707371540-TUTTI-PIACERE-SA             000000000187200000000000000000000000000000000000000000000000000000000000000000000000000000000000000000000000000000000000PES00010000001 00000000000000000000000
201510150010000100000000000000001050000000000000000010508000000000030711948860MANPETROL-SA                  000000000350000000000000000000000000000000000000000000000000000000000000000000000000000000000000000000000000000000000000PES00010000001 00000000000000000000000
201510160010000100000000000000001051000000000000000010518000000000020140752739ENRIQUE-EDUARDO-VERDE         000000000270000000000000000000000000000000000000000000000000000000000000000000000000000000000000000000000000000000000000PES00010000001 00000000000000000000000
201510160010000100000000000000001052000000000000000010528000000000033500009999ASOCIACION-BANCARIA           000000000090000000000000000000000000000000000000000000000000000000000000000000000000000000000000000000000000000000000000PES00010000001 00000000000000000000000
201510160010000100000000000000001053000000000000000010538000000000027135120516AGUILERA-ILIAN-SUSANA         000000000106800000000000000000000000000000000000000000000000000000000000000000000000000000000000000000000000000000000000PES00010000001 00000000000000000000000
201510160010000100000000000000001054000000000000000010548000000000030629248052RIGEL-SRL                     000000000218000000000000000000000000000000000000000000000000000000000000000000000000000000000000000000000000000000000000PES00010000001 00000000000000000000000
201510160010000100000000000000001055000000000000000010558000000000020278147453JIMENEZ-HORACIO               000000000142500000000000000000000000000000000000000000000000000000000000000000000000000000000000000000000000000000000000PES00010000001 00000000000000000000000
201510170010000100000000000000001056000000000000000010568000000000030709136026NEOMAT-SA                     000000000030700000000000000000000000000000000000000000000000000000000000000000000000000000000000000000000000000000000000PES00010000001 00000000000000000000000
201510170010000100000000000000001057000000000000000010578000000000020171297045RONDINI-PABLO                 000000000099800000000000000000000000000000000000000000000000000000000000000000000000000000000000000000000000000000000000PES00010000001 00000000000000000000000
201510190010000100000000000000001058000000000000000010588000000000027340321575SAAVEDRA-FLORENCIA-ELISABET   000000000349800000000000000000000000000000000000000000000000000000000000000000000000000000000000000000000000000000000000PES00010000001 00000000000000000000000
201510210010000100000000000000001059000000000000000010598000000000030708459220-TRANSPORTES-RADA-TILLY-SA    000000000078000000000000000000000000000000000000000000000000000000000000000000000000000000000000000000000000000000000000PES00010000001 00000000000000000000000
201510220010000100000000000000001060000000000000000010608000000000020125939687-GUSTAVO-DIE                  000000000563500000000000000000000000000000000000000000000000000000000000000000000000000000000000000000000000000000000000PES00010000001 00000000000000000000000
201510290010000100000000000000001061000000000000000010618000000000033707219519-WINDLAND-SA                  000000006165000000000000000000000000000000000000000000000000000000000000000000000000000000000000000000000000000000000000PES00010000001 00000000000000000000000
201510310010000100000000000000001062000000000000000010628000000000030670285339LAVADERO-ATILA                000000000099800000000000000000000000000000000000000000000000000000000000000000000000000000000000000000000000000000000000PES00010000001 00000000000000000000000
201510310010000100000000000000001063000000000000000010638000000000030648698743NUEZ-CARLOS-Y-NUEZ-ANTOIO     000000000019800000000000000000000000000000000000000000000000000000000000000000000000000000000000000000000000000000000000PES00010000001 00000000000000000000000
201510310010000100000000000000001064000000000000000010648000000000027140753713HAAG-MARIA-CRISTINA           000000000055500000000000000000000000000000000000000000000000000000000000000000000000000000000000000000000000000000000000PES00010000001 00000000000000000000000
201510090060000100000000000000013686000000000000000136868000000000033500009999ASOCIACION-BANCARIA           000000000280000000000000000000000000000000000000000000000000000000000000000000000000000000000000000000000000000000000000PES00010000001 00000000000000000000000
201510100060000100000000000000013687000000000000000136878000000000030711270473VOSES-SRL                     000000000022000000000000000000000000000000000000000000000000000000000000000000000000000000000000000000000000000000000000PES00010000001 00000000000000000000000
201510190060000100000000000000013688000000000000000136888000000000030643885642ASOCDE-EDUCADORESPAT          000000000073000000000000000000000000000000000000000000000000000000000000000000000000000000000000000000000000000000000000PES00010000001 00000000000000000000000
201510190060000100000000000000013689000000000000000136898000000000033500009999ASOCIACION-BANCARIA           000000000093000000000000000000000000000000000000000000000000000000000000000000000000000000000000000000000000000000000000PES00010000001 00000000000000000000000
201510190060000100000000000000013690000000000000000136908000000000033500009999ASOCIACION-BANCARIA           000000000090000000000000000000000000000000000000000000000000000000000000000000000000000000000000000000000000000000000000PES00010000001 00000000000000000000000
201510190030000100000000000000000018000000000000000000188000000000033500009999ASOCIACION-BANCARIA           000000000090000000000000000000000000000000000000000000000000000000000000000000000000000000000000000000000000000000000000PES00010000001 00000000000000000000000
201510010060000100000000000000021402000000000000000214029611111111111111111111CONS-FINAL                    000000000021300000000000000000000000000000000000000000000000000000000000000000000000000000000000000000000000000000000000PES00010000001 00000000000000000000000
201510010060000100000000000000021403000000000000000214039611111111111111111111CONS-FINAL                    000000000030000000000000000000000000000000000000000000000000000000000000000000000000000000000000000000000000000000000000PES00010000001 00000000000000000000000
201510010060000100000000000000021404000000000000000214049611111111111111111111CONS-FINAL                    000000000016500000000000000000000000000000000000000000000000000000000000000000000000000000000000000000000000000000000000PES00010000001 00000000000000000000000
201510010060000100000000000000021405000000000000000214059611111111111111111111CONS-FINAL                    000000000059500000000000000000000000000000000000000000000000000000000000000000000000000000000000000000000000000000000000PES00010000001 00000000000000000000000
201510010060000100000000000000021406000000000000000214069611111111111111111111CONS-FINAL                    000000000057500000000000000000000000000000000000000000000000000000000000000000000000000000000000000000000000000000000000PES00010000001 00000000000000000000000
201510010060000100000000000000021407000000000000000214079611111111111111111111CONS-FINAL                    000000000044800000000000000000000000000000000000000000000000000000000000000000000000000000000000000000000000000000000000PES00010000001 00000000000000000000000
201510010060000100000000000000021408000000000000000214089611111111111111111111CONS-FINAL                    000000000096500000000000000000000000000000000000000000000000000000000000000000000000000000000000000000000000000000000000PES00010000001 00000000000000000000000
201510010060000100000000000000021409000000000000000214099611111111111111111111CONS-FINAL                    000000000027500000000000000000000000000000000000000000000000000000000000000000000000000000000000000000000000000000000000PES00010000001 00000000000000000000000
201510010060000100000000000000021410000000000000000214109611111111111111111111CONS-FINAL                    000000000073500000000000000000000000000000000000000000000000000000000000000000000000000000000000000000000000000000000000PES00010000001 00000000000000000000000
201510010060000100000000000000021411000000000000000214119611111111111111111111CONS-FINAL                    000000000053500000000000000000000000000000000000000000000000000000000000000000000000000000000000000000000000000000000000PES00010000001 00000000000000000000000
201510020060000100000000000000021412000000000000000214129611111111111111111111CONS-FINAL                    000000000046500000000000000000000000000000000000000000000000000000000000000000000000000000000000000000000000000000000000PES00010000001 00000000000000000000000
201510020060000100000000000000021413000000000000000214139611111111111111111111CONS-FINAL                    000000000018000000000000000000000000000000000000000000000000000000000000000000000000000000000000000000000000000000000000PES00010000001 00000000000000000000000
201510020060000100000000000000021414000000000000000214149611111111111111111111CONS-FINAL                    000000000054300000000000000000000000000000000000000000000000000000000000000000000000000000000000000000000000000000000000PES00010000001 00000000000000000000000
201510020060000100000000000000021415000000000000000214159611111111111111111111CONS-FINAL                    000000000027000000000000000000000000000000000000000000000000000000000000000000000000000000000000000000000000000000000000PES00010000001 00000000000000000000000
201510020060000100000000000000021416000000000000000214169611111111111111111111CONS-FINAL                    000000000066200000000000000000000000000000000000000000000000000000000000000000000000000000000000000000000000000000000000PES00010000001 00000000000000000000000
201510020060000100000000000000021417000000000000000214179611111111111111111111CONS-FINAL                    000000000030000000000000000000000000000000000000000000000000000000000000000000000000000000000000000000000000000000000000PES00010000001 00000000000000000000000
201510020060000100000000000000021418000000000000000214189611111111111111111111CONS-FINAL                    000000000042500000000000000000000000000000000000000000000000000000000000000000000000000000000000000000000000000000000000PES00010000001 00000000000000000000000
201510020060000100000000000000021419000000000000000214199611111111111111111111CONS-FINAL                    000000000027500000000000000000000000000000000000000000000000000000000000000000000000000000000000000000000000000000000000PES00010000001 00000000000000000000000
201510030060000100000000000000021420000000000000000214209611111111111111111111CONS-FINAL                    000000000099300000000000000000000000000000000000000000000000000000000000000000000000000000000000000000000000000000000000PES00010000001 00000000000000000000000
201510030060000100000000000000021421000000000000000214219611111111111111111111CONS-FINAL                    000000000010500000000000000000000000000000000000000000000000000000000000000000000000000000000000000000000000000000000000PES00010000001 00000000000000000000000
201510030060000100000000000000021422000000000000000214229611111111111111111111CONS-FINAL                    000000000069500000000000000000000000000000000000000000000000000000000000000000000000000000000000000000000000000000000000PES00010000001 00000000000000000000000
201510030060000100000000000000021423000000000000000214239611111111111111111111CONS-FINAL                    000000000028000000000000000000000000000000000000000000000000000000000000000000000000000000000000000000000000000000000000PES00010000001 00000000000000000000000
201510030060000100000000000000021424000000000000000214249611111111111111111111CONS-FINAL                    000000000002500000000000000000000000000000000000000000000000000000000000000000000000000000000000000000000000000000000000PES00010000001 00000000000000000000000
201510030060000100000000000000021425000000000000000214259611111111111111111111CONS-FINAL                    000000000052500000000000000000000000000000000000000000000000000000000000000000000000000000000000000000000000000000000000PES00010000001 00000000000000000000000
201510030060000100000000000000021426000000000000000214269611111111111111111111CONS-FINAL                    000000000081400000000000000000000000000000000000000000000000000000000000000000000000000000000000000000000000000000000000PES00010000001 00000000000000000000000
201510030060000100000000000000021427000000000000000214279611111111111111111111CONS-FINAL                    000000000148300000000000000000000000000000000000000000000000000000000000000000000000000000000000000000000000000000000000PES00010000001 00000000000000000000000
201510030060000100000000000000021428000000000000000214289611111111111111111111CONS-FINAL                    000000000014700000000000000000000000000000000000000000000000000000000000000000000000000000000000000000000000000000000000PES00010000001 00000000000000000000000
201510030060000100000000000000021429000000000000000214299611111111111111111111CONS-FINAL                    000000000110000000000000000000000000000000000000000000000000000000000000000000000000000000000000000000000000000000000000PES00010000001 00000000000000000000000
201510030060000100000000000000021430000000000000000214309611111111111111111111CONS-FINAL                    000000000027500000000000000000000000000000000000000000000000000000000000000000000000000000000000000000000000000000000000PES00010000001 00000000000000000000000
201510030060000100000000000000021431000000000000000214319611111111111111111111CONS-FINAL                    000000000074400000000000000000000000000000000000000000000000000000000000000000000000000000000000000000000000000000000000PES00010000001 00000000000000000000000
201510030060000100000000000000021432000000000000000214329611111111111111111111CONS-FINAL                    000000000029000000000000000000000000000000000000000000000000000000000000000000000000000000000000000000000000000000000000PES00010000001 00000000000000000000000
201510030060000100000000000000021433000000000000000214339611111111111111111111CONS-FINAL                    000000000399700000000000000000000000000000000000000000000000000000000000000000000000000000000000000000000000000000000000PES00010000001 00000000000000000000000
201510030060000100000000000000021435000000000000000214359611111111111111111111CONS-FINAL                    000000000023000000000000000000000000000000000000000000000000000000000000000000000000000000000000000000000000000000000000PES00010000001 00000000000000000000000
201510030060000100000000000000021436000000000000000214369611111111111111111111CONS-FINAL                    000000000061500000000000000000000000000000000000000000000000000000000000000000000000000000000000000000000000000000000000PES00010000001 00000000000000000000000
201510030060000100000000000000021437000000000000000214379611111111111111111111CONS-FINAL                    000000000083000000000000000000000000000000000000000000000000000000000000000000000000000000000000000000000000000000000000PES00010000001 00000000000000000000000
201510030060000100000000000000021438000000000000000214389611111111111111111111CONS-FINAL                    000000000277600000000000000000000000000000000000000000000000000000000000000000000000000000000000000000000000000000000000PES00010000001 00000000000000000000000
201510030060000100000000000000021439000000000000000214399611111111111111111111CONS-FINAL                    000000000036500000000000000000000000000000000000000000000000000000000000000000000000000000000000000000000000000000000000PES00010000001 00000000000000000000000
201510030060000100000000000000021440000000000000000214409611111111111111111111CONS-FINAL                    000000000045000000000000000000000000000000000000000000000000000000000000000000000000000000000000000000000000000000000000PES00010000001 00000000000000000000000
201510030060000100000000000000021441000000000000000214419611111111111111111111CONS-FINAL                    000000000044100000000000000000000000000000000000000000000000000000000000000000000000000000000000000000000000000000000000PES00010000001 00000000000000000000000
201510030060000100000000000000021442000000000000000214429611111111111111111111CONS-FINAL                    000000000023500000000000000000000000000000000000000000000000000000000000000000000000000000000000000000000000000000000000PES00010000001 00000000000000000000000
201510030060000100000000000000021443000000000000000214439611111111111111111111CONS-FINAL                    000000000183500000000000000000000000000000000000000000000000000000000000000000000000000000000000000000000000000000000000PES00010000001 00000000000000000000000
201510030060000100000000000000021444000000000000000214449611111111111111111111CONS-FINAL                    000000000014500000000000000000000000000000000000000000000000000000000000000000000000000000000000000000000000000000000000PES00010000001 00000000000000000000000
201510030060000100000000000000021445000000000000000214459611111111111111111111CONS-FINAL                    000000000079500000000000000000000000000000000000000000000000000000000000000000000000000000000000000000000000000000000000PES00010000001 00000000000000000000000
201510030060000100000000000000021446000000000000000214469611111111111111111111CONS-FINAL                    000000000071700000000000000000000000000000000000000000000000000000000000000000000000000000000000000000000000000000000000PES00010000001 00000000000000000000000
201510050060000100000000000000021447000000000000000214479611111111111111111111CONS-FINAL                    000000000043000000000000000000000000000000000000000000000000000000000000000000000000000000000000000000000000000000000000PES00010000001 00000000000000000000000
201510050060000100000000000000021448000000000000000214489611111111111111111111CONS-FINAL                    000000000035000000000000000000000000000000000000000000000000000000000000000000000000000000000000000000000000000000000000PES00010000001 00000000000000000000000
201510050060000100000000000000021449000000000000000214499611111111111111111111CONS-FINAL                    000000000023000000000000000000000000000000000000000000000000000000000000000000000000000000000000000000000000000000000000PES00010000001 00000000000000000000000
201510050060000100000000000000021450000000000000000214509611111111111111111111CONS-FINAL                    000000000044500000000000000000000000000000000000000000000000000000000000000000000000000000000000000000000000000000000000PES00010000001 00000000000000000000000
201510050060000100000000000000021451000000000000000214519611111111111111111111CONS-FINAL                    000000000095500000000000000000000000000000000000000000000000000000000000000000000000000000000000000000000000000000000000PES00010000001 00000000000000000000000
201510050060000100000000000000021452000000000000000214529611111111111111111111CONS-FINAL                    000000000045000000000000000000000000000000000000000000000000000000000000000000000000000000000000000000000000000000000000PES00010000001 00000000000000000000000
201510050060000100000000000000021453000000000000000214539611111111111111111111CONS-FINAL                    000000000028500000000000000000000000000000000000000000000000000000000000000000000000000000000000000000000000000000000000PES00010000001 00000000000000000000000
201510050060000100000000000000021454000000000000000214549611111111111111111111CONS-FINAL                    000000000022500000000000000000000000000000000000000000000000000000000000000000000000000000000000000000000000000000000000PES00010000001 00000000000000000000000
201510060060000100000000000000021455000000000000000214559611111111111111111111CONS-FINAL                    000000000047500000000000000000000000000000000000000000000000000000000000000000000000000000000000000000000000000000000000PES00010000001 00000000000000000000000
201510060060000100000000000000021456000000000000000214569611111111111111111111CONS-FINAL                    000000000014500000000000000000000000000000000000000000000000000000000000000000000000000000000000000000000000000000000000PES00010000001 00000000000000000000000
201510060060000100000000000000021457000000000000000214579611111111111111111111CONS-FINAL                    000000000042500000000000000000000000000000000000000000000000000000000000000000000000000000000000000000000000000000000000PES00010000001 00000000000000000000000
201510060060000100000000000000021458000000000000000214589611111111111111111111CONS-FINAL                    000000000010500000000000000000000000000000000000000000000000000000000000000000000000000000000000000000000000000000000000PES00010000001 00000000000000000000000
201510060060000100000000000000021459000000000000000214599611111111111111111111CONS-FINAL                    000000000034500000000000000000000000000000000000000000000000000000000000000000000000000000000000000000000000000000000000PES00010000001 00000000000000000000000
201510060060000100000000000000021460000000000000000214609611111111111111111111CONS-FINAL                    000000000061000000000000000000000000000000000000000000000000000000000000000000000000000000000000000000000000000000000000PES00010000001 00000000000000000000000
201510060060000100000000000000021461000000000000000214619611111111111111111111CONS-FINAL                    000000000007500000000000000000000000000000000000000000000000000000000000000000000000000000000000000000000000000000000000PES00010000001 00000000000000000000000
201510060060000100000000000000021462000000000000000214629611111111111111111111CONS-FINAL                    000000000073000000000000000000000000000000000000000000000000000000000000000000000000000000000000000000000000000000000000PES00010000001 00000000000000000000000
201510060060000100000000000000021463000000000000000214639611111111111111111111CONS-FINAL                    000000000056500000000000000000000000000000000000000000000000000000000000000000000000000000000000000000000000000000000000PES00010000001 00000000000000000000000
201510060060000100000000000000021464000000000000000214649611111111111111111111CONS-FINAL                    000000000062000000000000000000000000000000000000000000000000000000000000000000000000000000000000000000000000000000000000PES00010000001 00000000000000000000000
201510060060000100000000000000021465000000000000000214659611111111111111111111CONS-FINAL                    000000000043700000000000000000000000000000000000000000000000000000000000000000000000000000000000000000000000000000000000PES00010000001 00000000000000000000000
201510060060000100000000000000021466000000000000000214669611111111111111111111CONS-FINAL                    000000000015500000000000000000000000000000000000000000000000000000000000000000000000000000000000000000000000000000000000PES00010000001 00000000000000000000000
201510070060000100000000000000021467000000000000000214679611111111111111111111CONS-FINAL                    000000000037500000000000000000000000000000000000000000000000000000000000000000000000000000000000000000000000000000000000PES00010000001 00000000000000000000000
201510070060000100000000000000021468000000000000000214689611111111111111111111CONS-FINAL                    000000000060400000000000000000000000000000000000000000000000000000000000000000000000000000000000000000000000000000000000PES00010000001 00000000000000000000000
201510070060000100000000000000021469000000000000000214699611111111111111111111CONS-FINAL                    000000000035500000000000000000000000000000000000000000000000000000000000000000000000000000000000000000000000000000000000PES00010000001 00000000000000000000000
201510070060000100000000000000021470000000000000000214709611111111111111111111CONS-FINAL                    000000000031000000000000000000000000000000000000000000000000000000000000000000000000000000000000000000000000000000000000PES00010000001 00000000000000000000000
201510070060000100000000000000021471000000000000000214719611111111111111111111CONS-FINAL                    000000000023500000000000000000000000000000000000000000000000000000000000000000000000000000000000000000000000000000000000PES00010000001 00000000000000000000000
201510070060000100000000000000021472000000000000000214729611111111111111111111CONS-FINAL                    000000000100000000000000000000000000000000000000000000000000000000000000000000000000000000000000000000000000000000000000PES00010000001 00000000000000000000000
201510070060000100000000000000021473000000000000000214739611111111111111111111CONS-FINAL                    000000000062000000000000000000000000000000000000000000000000000000000000000000000000000000000000000000000000000000000000PES00010000001 00000000000000000000000
201510070060000100000000000000021474000000000000000214749611111111111111111111CONS-FINAL                    000000000034500000000000000000000000000000000000000000000000000000000000000000000000000000000000000000000000000000000000PES00010000001 00000000000000000000000
201510070060000100000000000000021475000000000000000214759611111111111111111111CONS-FINAL                    000000000025500000000000000000000000000000000000000000000000000000000000000000000000000000000000000000000000000000000000PES00010000001 00000000000000000000000
201510070060000100000000000000021476000000000000000214769611111111111111111111CONS-FINAL                    000000000303600000000000000000000000000000000000000000000000000000000000000000000000000000000000000000000000000000000000PES00010000001 00000000000000000000000
201510070060000100000000000000021477000000000000000214779611111111111111111111CONS-FINAL                    000000000053600000000000000000000000000000000000000000000000000000000000000000000000000000000000000000000000000000000000PES00010000001 00000000000000000000000
201510070060000100000000000000021478000000000000000214789611111111111111111111CONS-FINAL                    000000000070500000000000000000000000000000000000000000000000000000000000000000000000000000000000000000000000000000000000PES00010000001 00000000000000000000000
201510070060000100000000000000021479000000000000000214799611111111111111111111CONS-FINAL                    000000000055600000000000000000000000000000000000000000000000000000000000000000000000000000000000000000000000000000000000PES00010000001 00000000000000000000000
201510070060000100000000000000021480000000000000000214809611111111111111111111CONS-FINAL                    000000000052800000000000000000000000000000000000000000000000000000000000000000000000000000000000000000000000000000000000PES00010000001 00000000000000000000000
201510070060000100000000000000021481000000000000000214819611111111111111111111CONS-FINAL                    000000000051000000000000000000000000000000000000000000000000000000000000000000000000000000000000000000000000000000000000PES00010000001 00000000000000000000000
201510070060000100000000000000021482000000000000000214829611111111111111111111CONS-FINAL                    000000000164500000000000000000000000000000000000000000000000000000000000000000000000000000000000000000000000000000000000PES00010000001 00000000000000000000000
201510080060000100000000000000021483000000000000000214839611111111111111111111CONS-FINAL                    000000000094500000000000000000000000000000000000000000000000000000000000000000000000000000000000000000000000000000000000PES00010000001 00000000000000000000000
201510080060000100000000000000021484000000000000000214849611111111111111111111CONS-FINAL                    000000000123000000000000000000000000000000000000000000000000000000000000000000000000000000000000000000000000000000000000PES00010000001 00000000000000000000000
201510080060000100000000000000021485000000000000000214859611111111111111111111CONS-FINAL                    000000000028000000000000000000000000000000000000000000000000000000000000000000000000000000000000000000000000000000000000PES00010000001 00000000000000000000000
201510080060000100000000000000021486000000000000000214869611111111111111111111CONS-FINAL                    000000000029500000000000000000000000000000000000000000000000000000000000000000000000000000000000000000000000000000000000PES00010000001 00000000000000000000000
201510080060000100000000000000021487000000000000000214879611111111111111111111CONS-FINAL                    000000000041000000000000000000000000000000000000000000000000000000000000000000000000000000000000000000000000000000000000PES00010000001 00000000000000000000000
201510080060000100000000000000021488000000000000000214889611111111111111111111CONS-FINAL                    000000000038000000000000000000000000000000000000000000000000000000000000000000000000000000000000000000000000000000000000PES00010000001 00000000000000000000000
201510080060000100000000000000021489000000000000000214899611111111111111111111CONS-FINAL                    000000000026000000000000000000000000000000000000000000000000000000000000000000000000000000000000000000000000000000000000PES00010000001 00000000000000000000000
201510080060000100000000000000021490000000000000000214909611111111111111111111CONS-FINAL                    000000000225200000000000000000000000000000000000000000000000000000000000000000000000000000000000000000000000000000000000PES00010000001 00000000000000000000000
201510080060000100000000000000021491000000000000000214919611111111111111111111CONS-FINAL                    000000000042500000000000000000000000000000000000000000000000000000000000000000000000000000000000000000000000000000000000PES00010000001 00000000000000000000000
201510080060000100000000000000021492000000000000000214929611111111111111111111CONS-FINAL                    000000001073500000000000000000000000000000000000000000000000000000000000000000000000000000000000000000000000000000000000PES00010000001 00000000000000000000000
201510080060000100000000000000021493000000000000000214939611111111111111111111CONS-FINAL                    000000000038600000000000000000000000000000000000000000000000000000000000000000000000000000000000000000000000000000000000PES00010000001 00000000000000000000000
201510080060000100000000000000021494000000000000000214949611111111111111111111CONS-FINAL                    000000000035200000000000000000000000000000000000000000000000000000000000000000000000000000000000000000000000000000000000PES00010000001 00000000000000000000000
201510080060000100000000000000021495000000000000000214959611111111111111111111CONS-FINAL                    000000000038500000000000000000000000000000000000000000000000000000000000000000000000000000000000000000000000000000000000PES00010000001 00000000000000000000000
201510090060000100000000000000021496000000000000000214969611111111111111111111CONS-FINAL                    000000000024000000000000000000000000000000000000000000000000000000000000000000000000000000000000000000000000000000000000PES00010000001 00000000000000000000000
201510090060000100000000000000021497000000000000000214979611111111111111111111CONS-FINAL                    000000000053500000000000000000000000000000000000000000000000000000000000000000000000000000000000000000000000000000000000PES00010000001 00000000000000000000000
201510090060000100000000000000021498000000000000000214989611111111111111111111CONS-FINAL                    000000000047500000000000000000000000000000000000000000000000000000000000000000000000000000000000000000000000000000000000PES00010000001 00000000000000000000000
201510090060000100000000000000021499000000000000000214999611111111111111111111CONS-FINAL                    000000000050400000000000000000000000000000000000000000000000000000000000000000000000000000000000000000000000000000000000PES00010000001 00000000000000000000000
201510090060000100000000000000021500000000000000000215009611111111111111111111CONS-FINAL                    000000000029000000000000000000000000000000000000000000000000000000000000000000000000000000000000000000000000000000000000PES00010000001 00000000000000000000000
201510090060000100000000000000021501000000000000000215019611111111111111111111CONS-FINAL                    000000000033000000000000000000000000000000000000000000000000000000000000000000000000000000000000000000000000000000000000PES00010000001 00000000000000000000000
201510090060000100000000000000021502000000000000000215029611111111111111111111CONS-FINAL                    000000000015500000000000000000000000000000000000000000000000000000000000000000000000000000000000000000000000000000000000PES00010000001 00000000000000000000000
201510090060000100000000000000021503000000000000000215039611111111111111111111CONS-FINAL                    000000000032000000000000000000000000000000000000000000000000000000000000000000000000000000000000000000000000000000000000PES00010000001 00000000000000000000000
201510090060000100000000000000021504000000000000000215049611111111111111111111CONS-FINAL                    000000000037500000000000000000000000000000000000000000000000000000000000000000000000000000000000000000000000000000000000PES00010000001 00000000000000000000000
201510090060000100000000000000021505000000000000000215059611111111111111111111CONS-FINAL                    000000000054700000000000000000000000000000000000000000000000000000000000000000000000000000000000000000000000000000000000PES00010000001 00000000000000000000000
201510100060000100000000000000021506000000000000000215069611111111111111111111CONS-FINAL                    000000000017500000000000000000000000000000000000000000000000000000000000000000000000000000000000000000000000000000000000PES00010000001 00000000000000000000000
201510100060000100000000000000021507000000000000000215079611111111111111111111CONS-FINAL                    000000000129000000000000000000000000000000000000000000000000000000000000000000000000000000000000000000000000000000000000PES00010000001 00000000000000000000000
201510100060000100000000000000021508000000000000000215089611111111111111111111CONS-FINAL                    000000000037500000000000000000000000000000000000000000000000000000000000000000000000000000000000000000000000000000000000PES00010000001 00000000000000000000000
201510100060000100000000000000021509000000000000000215099611111111111111111111CONS-FINAL                    000000000011500000000000000000000000000000000000000000000000000000000000000000000000000000000000000000000000000000000000PES00010000001 00000000000000000000000
201510100060000100000000000000021510000000000000000215109611111111111111111111CONS-FINAL                    000000000019400000000000000000000000000000000000000000000000000000000000000000000000000000000000000000000000000000000000PES00010000001 00000000000000000000000
201510100060000100000000000000021511000000000000000215119611111111111111111111CONS-FINAL                    000000000008000000000000000000000000000000000000000000000000000000000000000000000000000000000000000000000000000000000000PES00010000001 00000000000000000000000
201510100060000100000000000000021512000000000000000215129611111111111111111111CONS-FINAL                    000000000062000000000000000000000000000000000000000000000000000000000000000000000000000000000000000000000000000000000000PES00010000001 00000000000000000000000
201510100060000100000000000000021513000000000000000215139611111111111111111111CONS-FINAL                    000000000030000000000000000000000000000000000000000000000000000000000000000000000000000000000000000000000000000000000000PES00010000001 00000000000000000000000
201510100060000100000000000000021514000000000000000215149611111111111111111111CONS-FINAL                    000000000039000000000000000000000000000000000000000000000000000000000000000000000000000000000000000000000000000000000000PES00010000001 00000000000000000000000
201510100060000100000000000000021515000000000000000215159611111111111111111111CONS-FINAL                    000000000019800000000000000000000000000000000000000000000000000000000000000000000000000000000000000000000000000000000000PES00010000001 00000000000000000000000
201510100060000100000000000000021516000000000000000215169611111111111111111111CONS-FINAL                    000000000049500000000000000000000000000000000000000000000000000000000000000000000000000000000000000000000000000000000000PES00010000001 00000000000000000000000
201510100060000100000000000000021517000000000000000215179611111111111111111111CONS-FINAL                    000000000063300000000000000000000000000000000000000000000000000000000000000000000000000000000000000000000000000000000000PES00010000001 00000000000000000000000
201510100060000100000000000000021518000000000000000215189611111111111111111111CONS-FINAL                    000000000051800000000000000000000000000000000000000000000000000000000000000000000000000000000000000000000000000000000000PES00010000001 00000000000000000000000
201510100060000100000000000000021519000000000000000215199611111111111111111111CONS-FINAL                    000000000017000000000000000000000000000000000000000000000000000000000000000000000000000000000000000000000000000000000000PES00010000001 00000000000000000000000
201510100060000100000000000000021520000000000000000215209611111111111111111111CONS-FINAL                    000000000015000000000000000000000000000000000000000000000000000000000000000000000000000000000000000000000000000000000000PES00010000001 00000000000000000000000
201510100060000100000000000000021521000000000000000215219611111111111111111111CONS-FINAL                    000000000047000000000000000000000000000000000000000000000000000000000000000000000000000000000000000000000000000000000000PES00010000001 00000000000000000000000
201510100060000100000000000000021522000000000000000215229611111111111111111111CONS-FINAL                    000000000087000000000000000000000000000000000000000000000000000000000000000000000000000000000000000000000000000000000000PES00010000001 00000000000000000000000
201510100060000100000000000000021523000000000000000215239611111111111111111111CONS-FINAL                    000000000035000000000000000000000000000000000000000000000000000000000000000000000000000000000000000000000000000000000000PES00010000001 00000000000000000000000
201510100060000100000000000000021524000000000000000215249611111111111111111111CONS-FINAL                    000000000032000000000000000000000000000000000000000000000000000000000000000000000000000000000000000000000000000000000000PES00010000001 00000000000000000000000
201510100060000100000000000000021525000000000000000215259611111111111111111111CONS-FINAL                    000000000014500000000000000000000000000000000000000000000000000000000000000000000000000000000000000000000000000000000000PES00010000001 00000000000000000000000
201510100060000100000000000000021526000000000000000215269611111111111111111111CONS-FINAL                    000000000063000000000000000000000000000000000000000000000000000000000000000000000000000000000000000000000000000000000000PES00010000001 00000000000000000000000
201510100060000100000000000000021527000000000000000215279611111111111111111111CONS-FINAL                    000000000125000000000000000000000000000000000000000000000000000000000000000000000000000000000000000000000000000000000000PES00010000001 00000000000000000000000
201510100060000100000000000000021528000000000000000215289611111111111111111111CONS-FINAL                    000000000198000000000000000000000000000000000000000000000000000000000000000000000000000000000000000000000000000000000000PES00010000001 00000000000000000000000
201510100060000100000000000000021529000000000000000215299611111111111111111111CONS-FINAL                    000000000058500000000000000000000000000000000000000000000000000000000000000000000000000000000000000000000000000000000000PES00010000001 00000000000000000000000
201510100060000100000000000000021530000000000000000215309611111111111111111111CONS-FINAL                    000000000060000000000000000000000000000000000000000000000000000000000000000000000000000000000000000000000000000000000000PES00010000001 00000000000000000000000
201510100060000100000000000000021531000000000000000215319611111111111111111111CONS-FINAL                    000000000109300000000000000000000000000000000000000000000000000000000000000000000000000000000000000000000000000000000000PES00010000001 00000000000000000000000
201510100060000100000000000000021532000000000000000215329611111111111111111111CONS-FINAL                    000000000049000000000000000000000000000000000000000000000000000000000000000000000000000000000000000000000000000000000000PES00010000001 00000000000000000000000
201510130060000100000000000000021533000000000000000215339611111111111111111111CONS-FINAL                    000000000068000000000000000000000000000000000000000000000000000000000000000000000000000000000000000000000000000000000000PES00010000001 00000000000000000000000
201510130060000100000000000000021534000000000000000215349611111111111111111111CONS-FINAL                    000000000025000000000000000000000000000000000000000000000000000000000000000000000000000000000000000000000000000000000000PES00010000001 00000000000000000000000
201510130060000100000000000000021535000000000000000215359611111111111111111111CONS-FINAL                    000000000015000000000000000000000000000000000000000000000000000000000000000000000000000000000000000000000000000000000000PES00010000001 00000000000000000000000
201510130060000100000000000000021536000000000000000215369611111111111111111111CONS-FINAL                    000000000052000000000000000000000000000000000000000000000000000000000000000000000000000000000000000000000000000000000000PES00010000001 00000000000000000000000
201510130060000100000000000000021537000000000000000215379611111111111111111111CONS-FINAL                    000000000018500000000000000000000000000000000000000000000000000000000000000000000000000000000000000000000000000000000000PES00010000001 00000000000000000000000
201510130060000100000000000000021538000000000000000215389611111111111111111111CONS-FINAL                    000000000067500000000000000000000000000000000000000000000000000000000000000000000000000000000000000000000000000000000000PES00010000001 00000000000000000000000
201510130060000100000000000000021539000000000000000215399611111111111111111111CONS-FINAL                    000000000024000000000000000000000000000000000000000000000000000000000000000000000000000000000000000000000000000000000000PES00010000001 00000000000000000000000
201510130060000100000000000000021540000000000000000215409611111111111111111111CONS-FINAL                    000000000021500000000000000000000000000000000000000000000000000000000000000000000000000000000000000000000000000000000000PES00010000001 00000000000000000000000
201510130060000100000000000000021541000000000000000215419611111111111111111111CONS-FINAL                    000000000037500000000000000000000000000000000000000000000000000000000000000000000000000000000000000000000000000000000000PES00010000001 00000000000000000000000
201510140060000100000000000000021542000000000000000215429611111111111111111111CONS-FINAL                    000000000087500000000000000000000000000000000000000000000000000000000000000000000000000000000000000000000000000000000000PES00010000001 00000000000000000000000
201510140060000100000000000000021543000000000000000215439611111111111111111111CONS-FINAL                    000000000026500000000000000000000000000000000000000000000000000000000000000000000000000000000000000000000000000000000000PES00010000001 00000000000000000000000
201510140060000100000000000000021544000000000000000215449611111111111111111111CONS-FINAL                    000000000030000000000000000000000000000000000000000000000000000000000000000000000000000000000000000000000000000000000000PES00010000001 00000000000000000000000
201510140060000100000000000000021545000000000000000215459611111111111111111111CONS-FINAL                    000000000055500000000000000000000000000000000000000000000000000000000000000000000000000000000000000000000000000000000000PES00010000001 00000000000000000000000
201510140060000100000000000000021546000000000000000215469611111111111111111111CONS-FINAL                    000000000028200000000000000000000000000000000000000000000000000000000000000000000000000000000000000000000000000000000000PES00010000001 00000000000000000000000
201510140060000100000000000000021547000000000000000215479611111111111111111111CONS-FINAL                    000000000032500000000000000000000000000000000000000000000000000000000000000000000000000000000000000000000000000000000000PES00010000001 00000000000000000000000
201510140060000100000000000000021548000000000000000215489611111111111111111111CONS-FINAL                    000000000031500000000000000000000000000000000000000000000000000000000000000000000000000000000000000000000000000000000000PES00010000001 00000000000000000000000
201510140060000100000000000000021549000000000000000215499611111111111111111111CONS-FINAL                    000000000050900000000000000000000000000000000000000000000000000000000000000000000000000000000000000000000000000000000000PES00010000001 00000000000000000000000
201510140060000100000000000000021550000000000000000215509611111111111111111111CONS-FINAL                    000000000028500000000000000000000000000000000000000000000000000000000000000000000000000000000000000000000000000000000000PES00010000001 00000000000000000000000
201510140060000100000000000000021551000000000000000215519611111111111111111111CONS-FINAL                    000000000026000000000000000000000000000000000000000000000000000000000000000000000000000000000000000000000000000000000000PES00010000001 00000000000000000000000
201510140060000100000000000000021552000000000000000215529611111111111111111111CONS-FINAL                    000000000024000000000000000000000000000000000000000000000000000000000000000000000000000000000000000000000000000000000000PES00010000001 00000000000000000000000
201510140060000100000000000000021553000000000000000215539611111111111111111111CONS-FINAL                    000000000079500000000000000000000000000000000000000000000000000000000000000000000000000000000000000000000000000000000000PES00010000001 00000000000000000000000
201510140060000100000000000000021554000000000000000215549611111111111111111111CONS-FINAL                    000000000021000000000000000000000000000000000000000000000000000000000000000000000000000000000000000000000000000000000000PES00010000001 00000000000000000000000
201510140060000100000000000000021555000000000000000215559611111111111111111111CONS-FINAL                    000000000028500000000000000000000000000000000000000000000000000000000000000000000000000000000000000000000000000000000000PES00010000001 00000000000000000000000
201510150060000100000000000000021556000000000000000215569611111111111111111111CONS-FINAL                    000000000033800000000000000000000000000000000000000000000000000000000000000000000000000000000000000000000000000000000000PES00010000001 00000000000000000000000
201510150060000100000000000000021557000000000000000215579611111111111111111111CONS-FINAL                    000000000066000000000000000000000000000000000000000000000000000000000000000000000000000000000000000000000000000000000000PES00010000001 00000000000000000000000
201510150060000100000000000000021558000000000000000215589611111111111111111111CONS-FINAL                    000000000026500000000000000000000000000000000000000000000000000000000000000000000000000000000000000000000000000000000000PES00010000001 00000000000000000000000
201510150060000100000000000000021559000000000000000215599611111111111111111111CONS-FINAL                    000000000009800000000000000000000000000000000000000000000000000000000000000000000000000000000000000000000000000000000000PES00010000001 00000000000000000000000
201510150060000100000000000000021560000000000000000215609611111111111111111111CONS-FINAL                    000000000031000000000000000000000000000000000000000000000000000000000000000000000000000000000000000000000000000000000000PES00010000001 00000000000000000000000
201510150060000100000000000000021561000000000000000215619611111111111111111111CONS-FINAL                    000000000055500000000000000000000000000000000000000000000000000000000000000000000000000000000000000000000000000000000000PES00010000001 00000000000000000000000
201510150060000100000000000000021562000000000000000215629611111111111111111111CONS-FINAL                    000000000031000000000000000000000000000000000000000000000000000000000000000000000000000000000000000000000000000000000000PES00010000001 00000000000000000000000
201510150060000100000000000000021563000000000000000215639611111111111111111111CONS-FINAL                    000000000039000000000000000000000000000000000000000000000000000000000000000000000000000000000000000000000000000000000000PES00010000001 00000000000000000000000
201510150060000100000000000000021564000000000000000215649611111111111111111111CONS-FINAL                    000000000039500000000000000000000000000000000000000000000000000000000000000000000000000000000000000000000000000000000000PES00010000001 00000000000000000000000
201510150060000100000000000000021565000000000000000215659611111111111111111111CONS-FINAL                    000000000042600000000000000000000000000000000000000000000000000000000000000000000000000000000000000000000000000000000000PES00010000001 00000000000000000000000
201510150060000100000000000000021566000000000000000215669611111111111111111111CONS-FINAL                    000000000126300000000000000000000000000000000000000000000000000000000000000000000000000000000000000000000000000000000000PES00010000001 00000000000000000000000
201510150060000100000000000000021567000000000000000215679611111111111111111111CONS-FINAL                    000000000021500000000000000000000000000000000000000000000000000000000000000000000000000000000000000000000000000000000000PES00010000001 00000000000000000000000
201510150060000100000000000000021568000000000000000215689611111111111111111111CONS-FINAL                    000000000023500000000000000000000000000000000000000000000000000000000000000000000000000000000000000000000000000000000000PES00010000001 00000000000000000000000
201510150060000100000000000000021569000000000000000215699611111111111111111111CONS-FINAL                    000000000131500000000000000000000000000000000000000000000000000000000000000000000000000000000000000000000000000000000000PES00010000001 00000000000000000000000
201510150060000100000000000000021570000000000000000215709611111111111111111111CONS-FINAL                    000000000034500000000000000000000000000000000000000000000000000000000000000000000000000000000000000000000000000000000000PES00010000001 00000000000000000000000
201510150060000100000000000000021571000000000000000215719611111111111111111111CONS-FINAL                    000000000032000000000000000000000000000000000000000000000000000000000000000000000000000000000000000000000000000000000000PES00010000001 00000000000000000000000
201510150060000100000000000000021572000000000000000215729611111111111111111111CONS-FINAL                    000000000097000000000000000000000000000000000000000000000000000000000000000000000000000000000000000000000000000000000000PES00010000001 00000000000000000000000
201510150060000100000000000000021573000000000000000215739611111111111111111111CONS-FINAL                    000000000065000000000000000000000000000000000000000000000000000000000000000000000000000000000000000000000000000000000000PES00010000001 00000000000000000000000
201510150060000100000000000000021574000000000000000215749611111111111111111111CONS-FINAL                    000000000048800000000000000000000000000000000000000000000000000000000000000000000000000000000000000000000000000000000000PES00010000001 00000000000000000000000
201510150060000100000000000000021575000000000000000215759611111111111111111111CONS-FINAL                    000000000035000000000000000000000000000000000000000000000000000000000000000000000000000000000000000000000000000000000000PES00010000001 00000000000000000000000
201510150060000100000000000000021576000000000000000215769611111111111111111111CONS-FINAL                    000000000083000000000000000000000000000000000000000000000000000000000000000000000000000000000000000000000000000000000000PES00010000001 00000000000000000000000
201510150060000100000000000000021577000000000000000215779611111111111111111111CONS-FINAL                    000000000023000000000000000000000000000000000000000000000000000000000000000000000000000000000000000000000000000000000000PES00010000001 00000000000000000000000
201510150060000100000000000000021578000000000000000215789611111111111111111111CONS-FINAL                    000000000029800000000000000000000000000000000000000000000000000000000000000000000000000000000000000000000000000000000000PES00010000001 00000000000000000000000
201510150060000100000000000000021579000000000000000215799611111111111111111111CONS-FINAL                    000000000015000000000000000000000000000000000000000000000000000000000000000000000000000000000000000000000000000000000000PES00010000001 00000000000000000000000
201510150060000100000000000000021580000000000000000215809611111111111111111111CONS-FINAL                    000000000016500000000000000000000000000000000000000000000000000000000000000000000000000000000000000000000000000000000000PES00010000001 00000000000000000000000
201510150060000100000000000000021581000000000000000215819611111111111111111111CONS-FINAL                    000000000017500000000000000000000000000000000000000000000000000000000000000000000000000000000000000000000000000000000000PES00010000001 00000000000000000000000
201510150060000100000000000000021582000000000000000215829611111111111111111111CONS-FINAL                    000000000079300000000000000000000000000000000000000000000000000000000000000000000000000000000000000000000000000000000000PES00010000001 00000000000000000000000
201510160060000100000000000000021583000000000000000215839611111111111111111111CONS-FINAL                    000000000026500000000000000000000000000000000000000000000000000000000000000000000000000000000000000000000000000000000000PES00010000001 00000000000000000000000
201510160060000100000000000000021584000000000000000215849611111111111111111111CONS-FINAL                    000000000009800000000000000000000000000000000000000000000000000000000000000000000000000000000000000000000000000000000000PES00010000001 00000000000000000000000
201510160060000100000000000000021585000000000000000215859611111111111111111111CONS-FINAL                    000000000039800000000000000000000000000000000000000000000000000000000000000000000000000000000000000000000000000000000000PES00010000001 00000000000000000000000
201510160060000100000000000000021586000000000000000215869611111111111111111111CONS-FINAL                    000000000032000000000000000000000000000000000000000000000000000000000000000000000000000000000000000000000000000000000000PES00010000001 00000000000000000000000
201510160060000100000000000000021587000000000000000215879611111111111111111111CONS-FINAL                    000000000032500000000000000000000000000000000000000000000000000000000000000000000000000000000000000000000000000000000000PES00010000001 00000000000000000000000
201510160060000100000000000000021588000000000000000215889611111111111111111111CONS-FINAL                    000000000044500000000000000000000000000000000000000000000000000000000000000000000000000000000000000000000000000000000000PES00010000001 00000000000000000000000
201510160060000100000000000000021589000000000000000215899611111111111111111111CONS-FINAL                    000000000098000000000000000000000000000000000000000000000000000000000000000000000000000000000000000000000000000000000000PES00010000001 00000000000000000000000
201510160060000100000000000000021590000000000000000215909611111111111111111111CONS-FINAL                    000000000200100000000000000000000000000000000000000000000000000000000000000000000000000000000000000000000000000000000000PES00010000001 00000000000000000000000
201510160060000100000000000000021591000000000000000215919611111111111111111111CONS-FINAL                    000000000011000000000000000000000000000000000000000000000000000000000000000000000000000000000000000000000000000000000000PES00010000001 00000000000000000000000
201510160060000100000000000000021592000000000000000215929611111111111111111111CONS-FINAL                    000000000036000000000000000000000000000000000000000000000000000000000000000000000000000000000000000000000000000000000000PES00010000001 00000000000000000000000
201510160060000100000000000000021593000000000000000215939611111111111111111111CONS-FINAL                    000000000015500000000000000000000000000000000000000000000000000000000000000000000000000000000000000000000000000000000000PES00010000001 00000000000000000000000
201510160060000100000000000000021594000000000000000215949600000000020171295425JORGE-SAAVEDRA                000000000081000000000000000000000000000000000000000000000000000000000000000000000000000000000000000000000000000000000000PES00010000001 00000000000000000000000
201510160060000100000000000000021595000000000000000215959611111111111111111111CONS-FINAL                    000000000211600000000000000000000000000000000000000000000000000000000000000000000000000000000000000000000000000000000000PES00010000001 00000000000000000000000
201510160060000100000000000000021596000000000000000215969611111111111111111111CONS-FINAL                    000000000181300000000000000000000000000000000000000000000000000000000000000000000000000000000000000000000000000000000000PES00010000001 00000000000000000000000
201510160060000100000000000000021597000000000000000215979611111111111111111111CONS-FINAL                    000000000029800000000000000000000000000000000000000000000000000000000000000000000000000000000000000000000000000000000000PES00010000001 00000000000000000000000
201510160060000100000000000000021598000000000000000215989611111111111111111111CONS-FINAL                    000000000118200000000000000000000000000000000000000000000000000000000000000000000000000000000000000000000000000000000000PES00010000001 00000000000000000000000
201510160060000100000000000000021599000000000000000215999611111111111111111111CONS-FINAL                    000000000029500000000000000000000000000000000000000000000000000000000000000000000000000000000000000000000000000000000000PES00010000001 00000000000000000000000
201510160060000100000000000000021600000000000000000216009611111111111111111111CONS-FINAL                    000000000028500000000000000000000000000000000000000000000000000000000000000000000000000000000000000000000000000000000000PES00010000001 00000000000000000000000
201510160060000100000000000000021601000000000000000216019611111111111111111111CONS-FINAL                    000000000088500000000000000000000000000000000000000000000000000000000000000000000000000000000000000000000000000000000000PES00010000001 00000000000000000000000
201510160060000100000000000000021602000000000000000216029611111111111111111111CONS-FINAL                    000000000069800000000000000000000000000000000000000000000000000000000000000000000000000000000000000000000000000000000000PES00010000001 00000000000000000000000
201510160060000100000000000000021603000000000000000216039611111111111111111111CONS-FINAL                    000000000017000000000000000000000000000000000000000000000000000000000000000000000000000000000000000000000000000000000000PES00010000001 00000000000000000000000
201510160060000100000000000000021604000000000000000216049611111111111111111111CONS-FINAL                    000000000043500000000000000000000000000000000000000000000000000000000000000000000000000000000000000000000000000000000000PES00010000001 00000000000000000000000
201510160060000100000000000000021605000000000000000216059611111111111111111111CONS-FINAL                    000000000040300000000000000000000000000000000000000000000000000000000000000000000000000000000000000000000000000000000000PES00010000001 00000000000000000000000
201510160060000100000000000000021606000000000000000216069611111111111111111111CONS-FINAL                    000000000026500000000000000000000000000000000000000000000000000000000000000000000000000000000000000000000000000000000000PES00010000001 00000000000000000000000
201510160060000100000000000000021607000000000000000216079611111111111111111111CONS-FINAL                    000000000057500000000000000000000000000000000000000000000000000000000000000000000000000000000000000000000000000000000000PES00010000001 00000000000000000000000
201510160060000100000000000000021608000000000000000216089611111111111111111111CONS-FINAL                    000000000017500000000000000000000000000000000000000000000000000000000000000000000000000000000000000000000000000000000000PES00010000001 00000000000000000000000
201510160060000100000000000000021609000000000000000216099611111111111111111111CONS-FINAL                    000000000062500000000000000000000000000000000000000000000000000000000000000000000000000000000000000000000000000000000000PES00010000001 00000000000000000000000
201510160060000100000000000000021610000000000000000216109611111111111111111111CONS-FINAL                    000000000036000000000000000000000000000000000000000000000000000000000000000000000000000000000000000000000000000000000000PES00010000001 00000000000000000000000
201510160060000100000000000000021611000000000000000216119611111111111111111111CONS-FINAL                    000000000026500000000000000000000000000000000000000000000000000000000000000000000000000000000000000000000000000000000000PES00010000001 00000000000000000000000
201510160060000100000000000000021612000000000000000216129611111111111111111111CONS-FINAL                    000000000053000000000000000000000000000000000000000000000000000000000000000000000000000000000000000000000000000000000000PES00010000001 00000000000000000000000
201510160060000100000000000000021613000000000000000216139611111111111111111111CONS-FINAL                    000000000057500000000000000000000000000000000000000000000000000000000000000000000000000000000000000000000000000000000000PES00010000001 00000000000000000000000
201510160060000100000000000000021614000000000000000216149611111111111111111111CONS-FINAL                    000000000049000000000000000000000000000000000000000000000000000000000000000000000000000000000000000000000000000000000000PES00010000001 00000000000000000000000
201510160060000100000000000000021615000000000000000216159611111111111111111111CONS-FINAL                    000000000027500000000000000000000000000000000000000000000000000000000000000000000000000000000000000000000000000000000000PES00010000001 00000000000000000000000
201510160060000100000000000000021616000000000000000216169611111111111111111111CONS-FINAL                    000000000213500000000000000000000000000000000000000000000000000000000000000000000000000000000000000000000000000000000000PES00010000001 00000000000000000000000
201510160060000100000000000000021617000000000000000216179611111111111111111111CONS-FINAL                    000000000143800000000000000000000000000000000000000000000000000000000000000000000000000000000000000000000000000000000000PES00010000001 00000000000000000000000
201510160060000100000000000000021618000000000000000216189611111111111111111111CONS-FINAL                    000000000037300000000000000000000000000000000000000000000000000000000000000000000000000000000000000000000000000000000000PES00010000001 00000000000000000000000
201510160060000100000000000000021619000000000000000216199611111111111111111111CONS-FINAL                    000000000080300000000000000000000000000000000000000000000000000000000000000000000000000000000000000000000000000000000000PES00010000001 00000000000000000000000
201510160060000100000000000000021620000000000000000216209611111111111111111111CONS-FINAL                    000000000173800000000000000000000000000000000000000000000000000000000000000000000000000000000000000000000000000000000000PES00010000001 00000000000000000000000
201510160060000100000000000000021621000000000000000216219611111111111111111111CONS-FINAL                    000000000052500000000000000000000000000000000000000000000000000000000000000000000000000000000000000000000000000000000000PES00010000001 00000000000000000000000
201510160060000100000000000000021622000000000000000216229611111111111111111111CONS-FINAL                    000000000018000000000000000000000000000000000000000000000000000000000000000000000000000000000000000000000000000000000000PES00010000001 00000000000000000000000
201510160060000100000000000000021623000000000000000216239611111111111111111111CONS-FINAL                    000000000036200000000000000000000000000000000000000000000000000000000000000000000000000000000000000000000000000000000000PES00010000001 00000000000000000000000
201510160060000100000000000000021624000000000000000216249611111111111111111111CONS-FINAL                    000000000069000000000000000000000000000000000000000000000000000000000000000000000000000000000000000000000000000000000000PES00010000001 00000000000000000000000
201510160060000100000000000000021625000000000000000216259611111111111111111111CONS-FINAL                    000000000047500000000000000000000000000000000000000000000000000000000000000000000000000000000000000000000000000000000000PES00010000001 00000000000000000000000
201510160060000100000000000000021626000000000000000216269611111111111111111111CONS-FINAL                    000000000108000000000000000000000000000000000000000000000000000000000000000000000000000000000000000000000000000000000000PES00010000001 00000000000000000000000
201510160060000100000000000000021627000000000000000216279611111111111111111111CONS-FINAL                    000000000033800000000000000000000000000000000000000000000000000000000000000000000000000000000000000000000000000000000000PES00010000001 00000000000000000000000
201510160060000100000000000000021628000000000000000216289611111111111111111111CONS-FINAL                    000000000038000000000000000000000000000000000000000000000000000000000000000000000000000000000000000000000000000000000000PES00010000001 00000000000000000000000
201510160060000100000000000000021629000000000000000216299611111111111111111111CONS-FINAL                    000000000061000000000000000000000000000000000000000000000000000000000000000000000000000000000000000000000000000000000000PES00010000001 00000000000000000000000
201510160060000100000000000000021630000000000000000216309611111111111111111111CONS-FINAL                    000000000118100000000000000000000000000000000000000000000000000000000000000000000000000000000000000000000000000000000000PES00010000001 00000000000000000000000
201510160060000100000000000000021631000000000000000216319611111111111111111111CONS-FINAL                    000000000054000000000000000000000000000000000000000000000000000000000000000000000000000000000000000000000000000000000000PES00010000001 00000000000000000000000
201510170060000100000000000000021632000000000000000216329611111111111111111111CONS-FINAL                    000000000075000000000000000000000000000000000000000000000000000000000000000000000000000000000000000000000000000000000000PES00010000001 00000000000000000000000
201510170060000100000000000000021633000000000000000216339611111111111111111111CONS-FINAL                    000000000062500000000000000000000000000000000000000000000000000000000000000000000000000000000000000000000000000000000000PES00010000001 00000000000000000000000
201510170060000100000000000000021634000000000000000216349611111111111111111111CONS-FINAL                    000000000052500000000000000000000000000000000000000000000000000000000000000000000000000000000000000000000000000000000000PES00010000001 00000000000000000000000
201510170060000100000000000000021635000000000000000216359611111111111111111111CONS-FINAL                    000000000040000000000000000000000000000000000000000000000000000000000000000000000000000000000000000000000000000000000000PES00010000001 00000000000000000000000
201510170060000100000000000000021636000000000000000216369611111111111111111111CONS-FINAL                    000000000120000000000000000000000000000000000000000000000000000000000000000000000000000000000000000000000000000000000000PES00010000001 00000000000000000000000
201510170060000100000000000000021637000000000000000216379611111111111111111111CONS-FINAL                    000000000021500000000000000000000000000000000000000000000000000000000000000000000000000000000000000000000000000000000000PES00010000001 00000000000000000000000
201510170060000100000000000000021638000000000000000216389611111111111111111111CONS-FINAL                    000000000114000000000000000000000000000000000000000000000000000000000000000000000000000000000000000000000000000000000000PES00010000001 00000000000000000000000
201510170060000100000000000000021639000000000000000216399611111111111111111111CONS-FINAL                    000000000067000000000000000000000000000000000000000000000000000000000000000000000000000000000000000000000000000000000000PES00010000001 00000000000000000000000
201510170060000100000000000000021640000000000000000216409611111111111111111111CONS-FINAL                    000000000049500000000000000000000000000000000000000000000000000000000000000000000000000000000000000000000000000000000000PES00010000001 00000000000000000000000
201510170060000100000000000000021641000000000000000216419611111111111111111111CONS-FINAL                    000000000210000000000000000000000000000000000000000000000000000000000000000000000000000000000000000000000000000000000000PES00010000001 00000000000000000000000
201510170060000100000000000000021642000000000000000216429611111111111111111111CONS-FINAL                    000000000126000000000000000000000000000000000000000000000000000000000000000000000000000000000000000000000000000000000000PES00010000001 00000000000000000000000
201510170060000100000000000000021643000000000000000216439611111111111111111111CONS-FINAL                    000000000081600000000000000000000000000000000000000000000000000000000000000000000000000000000000000000000000000000000000PES00010000001 00000000000000000000000
201510170060000100000000000000021644000000000000000216449611111111111111111111CONS-FINAL                    000000000108000000000000000000000000000000000000000000000000000000000000000000000000000000000000000000000000000000000000PES00010000001 00000000000000000000000
201510170060000100000000000000021645000000000000000216459611111111111111111111CONS-FINAL                    000000000199500000000000000000000000000000000000000000000000000000000000000000000000000000000000000000000000000000000000PES00010000001 00000000000000000000000
201510170060000100000000000000021646000000000000000216469611111111111111111111CONS-FINAL                    000000000073000000000000000000000000000000000000000000000000000000000000000000000000000000000000000000000000000000000000PES00010000001 00000000000000000000000
201510170060000100000000000000021647000000000000000216479611111111111111111111CONS-FINAL                    000000000056500000000000000000000000000000000000000000000000000000000000000000000000000000000000000000000000000000000000PES00010000001 00000000000000000000000
201510170060000100000000000000021648000000000000000216489611111111111111111111CONS-FINAL                    000000000059500000000000000000000000000000000000000000000000000000000000000000000000000000000000000000000000000000000000PES00010000001 00000000000000000000000
201510170060000100000000000000021649000000000000000216499611111111111111111111CONS-FINAL                    000000000161000000000000000000000000000000000000000000000000000000000000000000000000000000000000000000000000000000000000PES00010000001 00000000000000000000000
201510170060000100000000000000021650000000000000000216509611111111111111111111CONS-FINAL                    000000000186000000000000000000000000000000000000000000000000000000000000000000000000000000000000000000000000000000000000PES00010000001 00000000000000000000000
201510170060000100000000000000021651000000000000000216519611111111111111111111CONS-FINAL                    000000000142500000000000000000000000000000000000000000000000000000000000000000000000000000000000000000000000000000000000PES00010000001 00000000000000000000000
201510170060000100000000000000021652000000000000000216529611111111111111111111CONS-FINAL                    000000000206000000000000000000000000000000000000000000000000000000000000000000000000000000000000000000000000000000000000PES00010000001 00000000000000000000000
201510170060000100000000000000021653000000000000000216539611111111111111111111CONS-FINAL                    000000000209200000000000000000000000000000000000000000000000000000000000000000000000000000000000000000000000000000000000PES00010000001 00000000000000000000000
201510170060000100000000000000021654000000000000000216549611111111111111111111CONS-FINAL                    000000000064800000000000000000000000000000000000000000000000000000000000000000000000000000000000000000000000000000000000PES00010000001 00000000000000000000000
201510170060000100000000000000021655000000000000000216559611111111111111111111CONS-FINAL                    000000000067500000000000000000000000000000000000000000000000000000000000000000000000000000000000000000000000000000000000PES00010000001 00000000000000000000000
201510170060000100000000000000021656000000000000000216569611111111111111111111CONS-FINAL                    000000000032000000000000000000000000000000000000000000000000000000000000000000000000000000000000000000000000000000000000PES00010000001 00000000000000000000000
201510170060000100000000000000021657000000000000000216579611111111111111111111CONS-FINAL                    000000000208700000000000000000000000000000000000000000000000000000000000000000000000000000000000000000000000000000000000PES00010000001 00000000000000000000000
201510170060000100000000000000021658000000000000000216589611111111111111111111CONS-FINAL                    000000000014000000000000000000000000000000000000000000000000000000000000000000000000000000000000000000000000000000000000PES00010000001 00000000000000000000000
201510170060000100000000000000021659000000000000000216599611111111111111111111CONS-FINAL                    000000000019500000000000000000000000000000000000000000000000000000000000000000000000000000000000000000000000000000000000PES00010000001 00000000000000000000000
201510170060000100000000000000021660000000000000000216609611111111111111111111CONS-FINAL                    000000000010500000000000000000000000000000000000000000000000000000000000000000000000000000000000000000000000000000000000PES00010000001 00000000000000000000000
201510170060000100000000000000021661000000000000000216619611111111111111111111CONS-FINAL                    000000000037000000000000000000000000000000000000000000000000000000000000000000000000000000000000000000000000000000000000PES00010000001 00000000000000000000000
201510170060000100000000000000021662000000000000000216629611111111111111111111CONS-FINAL                    000000000032000000000000000000000000000000000000000000000000000000000000000000000000000000000000000000000000000000000000PES00010000001 00000000000000000000000
201510170060000100000000000000021663000000000000000216639611111111111111111111CONS-FINAL                    000000000145500000000000000000000000000000000000000000000000000000000000000000000000000000000000000000000000000000000000PES00010000001 00000000000000000000000
201510170060000100000000000000021664000000000000000216649611111111111111111111CONS-FINAL                    000000000042500000000000000000000000000000000000000000000000000000000000000000000000000000000000000000000000000000000000PES00010000001 00000000000000000000000
201510170060000100000000000000021665000000000000000216659611111111111111111111CONS-FINAL                    000000000081900000000000000000000000000000000000000000000000000000000000000000000000000000000000000000000000000000000000PES00010000001 00000000000000000000000
201510170060000100000000000000021666000000000000000216669611111111111111111111CONS-FINAL                    000000000017000000000000000000000000000000000000000000000000000000000000000000000000000000000000000000000000000000000000PES00010000001 00000000000000000000000
201510170060000100000000000000021667000000000000000216679611111111111111111111CONS-FINAL                    000000000102200000000000000000000000000000000000000000000000000000000000000000000000000000000000000000000000000000000000PES00010000001 00000000000000000000000
201510170060000100000000000000021668000000000000000216689611111111111111111111CONS-FINAL                    000000000029500000000000000000000000000000000000000000000000000000000000000000000000000000000000000000000000000000000000PES00010000001 00000000000000000000000
201510170060000100000000000000021669000000000000000216699611111111111111111111CONS-FINAL                    000000000083500000000000000000000000000000000000000000000000000000000000000000000000000000000000000000000000000000000000PES00010000001 00000000000000000000000
201510170060000100000000000000021670000000000000000216709611111111111111111111CONS-FINAL                    000000000039000000000000000000000000000000000000000000000000000000000000000000000000000000000000000000000000000000000000PES00010000001 00000000000000000000000
201510170060000100000000000000021671000000000000000216719611111111111111111111CONS-FINAL                    000000000282800000000000000000000000000000000000000000000000000000000000000000000000000000000000000000000000000000000000PES00010000001 00000000000000000000000
201510170060000100000000000000021672000000000000000216729611111111111111111111CONS-FINAL                    000000000039500000000000000000000000000000000000000000000000000000000000000000000000000000000000000000000000000000000000PES00010000001 00000000000000000000000
201510170060000100000000000000021673000000000000000216739611111111111111111111CONS-FINAL                    000000000032500000000000000000000000000000000000000000000000000000000000000000000000000000000000000000000000000000000000PES00010000001 00000000000000000000000
201510170060000100000000000000021674000000000000000216749611111111111111111111CONS-FINAL                    000000000026000000000000000000000000000000000000000000000000000000000000000000000000000000000000000000000000000000000000PES00010000001 00000000000000000000000
201510170060000100000000000000021675000000000000000216759611111111111111111111CONS-FINAL                    000000000027500000000000000000000000000000000000000000000000000000000000000000000000000000000000000000000000000000000000PES00010000001 00000000000000000000000
201510170060000100000000000000021676000000000000000216769611111111111111111111CONS-FINAL                    000000000096300000000000000000000000000000000000000000000000000000000000000000000000000000000000000000000000000000000000PES00010000001 00000000000000000000000
201510170060000100000000000000021677000000000000000216779611111111111111111111CONS-FINAL                    000000000039900000000000000000000000000000000000000000000000000000000000000000000000000000000000000000000000000000000000PES00010000001 00000000000000000000000
201510170060000100000000000000021678000000000000000216789611111111111111111111CONS-FINAL                    000000000015000000000000000000000000000000000000000000000000000000000000000000000000000000000000000000000000000000000000PES00010000001 00000000000000000000000
201510170060000100000000000000021679000000000000000216799611111111111111111111CONS-FINAL                    000000000021500000000000000000000000000000000000000000000000000000000000000000000000000000000000000000000000000000000000PES00010000001 00000000000000000000000
201510170060000100000000000000021680000000000000000216809611111111111111111111CONS-FINAL                    000000000035000000000000000000000000000000000000000000000000000000000000000000000000000000000000000000000000000000000000PES00010000001 00000000000000000000000
201510170060000100000000000000021681000000000000000216819611111111111111111111CONS-FINAL                    000000000152000000000000000000000000000000000000000000000000000000000000000000000000000000000000000000000000000000000000PES00010000001 00000000000000000000000
201510170060000100000000000000021682000000000000000216829611111111111111111111CONS-FINAL                    000000000125000000000000000000000000000000000000000000000000000000000000000000000000000000000000000000000000000000000000PES00010000001 00000000000000000000000
201510170060000100000000000000021683000000000000000216839611111111111111111111CONS-FINAL                    000000000183000000000000000000000000000000000000000000000000000000000000000000000000000000000000000000000000000000000000PES00010000001 00000000000000000000000
201510170060000100000000000000021684000000000000000216849611111111111111111111CONS-FINAL                    000000000085500000000000000000000000000000000000000000000000000000000000000000000000000000000000000000000000000000000000PES00010000001 00000000000000000000000
201510170060000100000000000000021685000000000000000216859611111111111111111111CONS-FINAL                    000000000022500000000000000000000000000000000000000000000000000000000000000000000000000000000000000000000000000000000000PES00010000001 00000000000000000000000
201510170060000100000000000000021686000000000000000216869611111111111111111111CONS-FINAL                    000000000038500000000000000000000000000000000000000000000000000000000000000000000000000000000000000000000000000000000000PES00010000001 00000000000000000000000
201510170060000100000000000000021687000000000000000216879611111111111111111111CONS-FINAL                    000000000095500000000000000000000000000000000000000000000000000000000000000000000000000000000000000000000000000000000000PES00010000001 00000000000000000000000
201510170060000100000000000000021688000000000000000216889611111111111111111111CONS-FINAL                    000000000055500000000000000000000000000000000000000000000000000000000000000000000000000000000000000000000000000000000000PES00010000001 00000000000000000000000
201510170060000100000000000000021689000000000000000216899611111111111111111111CONS-FINAL                    000000000019500000000000000000000000000000000000000000000000000000000000000000000000000000000000000000000000000000000000PES00010000001 00000000000000000000000
201510170060000100000000000000021690000000000000000216909611111111111111111111CONS-FINAL                    000000000038500000000000000000000000000000000000000000000000000000000000000000000000000000000000000000000000000000000000PES00010000001 00000000000000000000000
201510170060000100000000000000021691000000000000000216919611111111111111111111CONS-FINAL                    000000000019500000000000000000000000000000000000000000000000000000000000000000000000000000000000000000000000000000000000PES00010000001 00000000000000000000000
201510170060000100000000000000021692000000000000000216929611111111111111111111CONS-FINAL                    000000000043500000000000000000000000000000000000000000000000000000000000000000000000000000000000000000000000000000000000PES00010000001 00000000000000000000000
201510170060000100000000000000021693000000000000000216939611111111111111111111CONS-FINAL                    000000000039800000000000000000000000000000000000000000000000000000000000000000000000000000000000000000000000000000000000PES00010000001 00000000000000000000000
201510170060000100000000000000021694000000000000000216949611111111111111111111CONS-FINAL                    000000000052500000000000000000000000000000000000000000000000000000000000000000000000000000000000000000000000000000000000PES00010000001 00000000000000000000000
201510170060000100000000000000021695000000000000000216959611111111111111111111CONS-FINAL                    000000000010500000000000000000000000000000000000000000000000000000000000000000000000000000000000000000000000000000000000PES00010000001 00000000000000000000000
201510170060000100000000000000021696000000000000000216969611111111111111111111CONS-FINAL                    000000000076100000000000000000000000000000000000000000000000000000000000000000000000000000000000000000000000000000000000PES00010000001 00000000000000000000000
201510170060000100000000000000021697000000000000000216979611111111111111111111CONS-FINAL                    000000000118100000000000000000000000000000000000000000000000000000000000000000000000000000000000000000000000000000000000PES00010000001 00000000000000000000000
201510170060000100000000000000021698000000000000000216989611111111111111111111CONS-FINAL                    000000000072000000000000000000000000000000000000000000000000000000000000000000000000000000000000000000000000000000000000PES00010000001 00000000000000000000000
201510170060000100000000000000021699000000000000000216999611111111111111111111CONS-FINAL                    000000000059900000000000000000000000000000000000000000000000000000000000000000000000000000000000000000000000000000000000PES00010000001 00000000000000000000000
201510170060000100000000000000021700000000000000000217009611111111111111111111CONS-FINAL                    000000000029800000000000000000000000000000000000000000000000000000000000000000000000000000000000000000000000000000000000PES00010000001 00000000000000000000000
201510170060000100000000000000021701000000000000000217019611111111111111111111CONS-FINAL                    000000000244700000000000000000000000000000000000000000000000000000000000000000000000000000000000000000000000000000000000PES00010000001 00000000000000000000000
201510170060000100000000000000021702000000000000000217029611111111111111111111CONS-FINAL                    000000000009000000000000000000000000000000000000000000000000000000000000000000000000000000000000000000000000000000000000PES00010000001 00000000000000000000000
201510170060000100000000000000021703000000000000000217039611111111111111111111CONS-FINAL                    000000000034200000000000000000000000000000000000000000000000000000000000000000000000000000000000000000000000000000000000PES00010000001 00000000000000000000000
201510170060000100000000000000021704000000000000000217049611111111111111111111CONS-FINAL                    000000000156000000000000000000000000000000000000000000000000000000000000000000000000000000000000000000000000000000000000PES00010000001 00000000000000000000000
201510170060000100000000000000021705000000000000000217059611111111111111111111CONS-FINAL                    000000000015500000000000000000000000000000000000000000000000000000000000000000000000000000000000000000000000000000000000PES00010000001 00000000000000000000000
201510170060000100000000000000021706000000000000000217069611111111111111111111CONS-FINAL                    000000000134300000000000000000000000000000000000000000000000000000000000000000000000000000000000000000000000000000000000PES00010000001 00000000000000000000000
201510170060000100000000000000021707000000000000000217079611111111111111111111CONS-FINAL                    000000000131000000000000000000000000000000000000000000000000000000000000000000000000000000000000000000000000000000000000PES00010000001 00000000000000000000000
201510170060000100000000000000021708000000000000000217089611111111111111111111CONS-FINAL                    000000000037500000000000000000000000000000000000000000000000000000000000000000000000000000000000000000000000000000000000PES00010000001 00000000000000000000000
201510170060000100000000000000021709000000000000000217099611111111111111111111CONS-FINAL                    000000000142500000000000000000000000000000000000000000000000000000000000000000000000000000000000000000000000000000000000PES00010000001 00000000000000000000000
201510170060000100000000000000021710000000000000000217109611111111111111111111CONS-FINAL                    000000000042000000000000000000000000000000000000000000000000000000000000000000000000000000000000000000000000000000000000PES00010000001 00000000000000000000000
201510170060000100000000000000021711000000000000000217119611111111111111111111CONS-FINAL                    000000000039600000000000000000000000000000000000000000000000000000000000000000000000000000000000000000000000000000000000PES00010000001 00000000000000000000000
201510170060000100000000000000021712000000000000000217129611111111111111111111CONS-FINAL                    000000000098500000000000000000000000000000000000000000000000000000000000000000000000000000000000000000000000000000000000PES00010000001 00000000000000000000000
201510170060000100000000000000021713000000000000000217139611111111111111111111CONS-FINAL                    000000000122500000000000000000000000000000000000000000000000000000000000000000000000000000000000000000000000000000000000PES00010000001 00000000000000000000000
201510170060000100000000000000021714000000000000000217149611111111111111111111CONS-FINAL                    000000000029000000000000000000000000000000000000000000000000000000000000000000000000000000000000000000000000000000000000PES00010000001 00000000000000000000000
201510170060000100000000000000021715000000000000000217159611111111111111111111CONS-FINAL                    000000000023000000000000000000000000000000000000000000000000000000000000000000000000000000000000000000000000000000000000PES00010000001 00000000000000000000000
201510170060000100000000000000021716000000000000000217169611111111111111111111CONS-FINAL                    000000000029500000000000000000000000000000000000000000000000000000000000000000000000000000000000000000000000000000000000PES00010000001 00000000000000000000000
201510170060000100000000000000021717000000000000000217179611111111111111111111CONS-FINAL                    000000000136000000000000000000000000000000000000000000000000000000000000000000000000000000000000000000000000000000000000PES00010000001 00000000000000000000000
201510170060000100000000000000021718000000000000000217189611111111111111111111CONS-FINAL                    000000000024500000000000000000000000000000000000000000000000000000000000000000000000000000000000000000000000000000000000PES00010000001 00000000000000000000000
201510170060000100000000000000021719000000000000000217199611111111111111111111CONS-FINAL                    000000000055000000000000000000000000000000000000000000000000000000000000000000000000000000000000000000000000000000000000PES00010000001 00000000000000000000000
201510170060000100000000000000021720000000000000000217209611111111111111111111CONS-FINAL                    000000000079500000000000000000000000000000000000000000000000000000000000000000000000000000000000000000000000000000000000PES00010000001 00000000000000000000000
201510170060000100000000000000021721000000000000000217219611111111111111111111CONS-FINAL                    000000000245000000000000000000000000000000000000000000000000000000000000000000000000000000000000000000000000000000000000PES00010000001 00000000000000000000000
201510190060000100000000000000021722000000000000000217229611111111111111111111CONS-FINAL                    000000000043000000000000000000000000000000000000000000000000000000000000000000000000000000000000000000000000000000000000PES00010000001 00000000000000000000000
201510190060000100000000000000021723000000000000000217239611111111111111111111CONS-FINAL                    000000000033000000000000000000000000000000000000000000000000000000000000000000000000000000000000000000000000000000000000PES00010000001 00000000000000000000000
201510190060000100000000000000021724000000000000000217249611111111111111111111CONS-FINAL                    000000000006000000000000000000000000000000000000000000000000000000000000000000000000000000000000000000000000000000000000PES00010000001 00000000000000000000000
201510190060000100000000000000021725000000000000000217259611111111111111111111CONS-FINAL                    000000000053500000000000000000000000000000000000000000000000000000000000000000000000000000000000000000000000000000000000PES00010000001 00000000000000000000000
201510190060000100000000000000021726000000000000000217269611111111111111111111CONS-FINAL                    000000000065000000000000000000000000000000000000000000000000000000000000000000000000000000000000000000000000000000000000PES00010000001 00000000000000000000000
201510190060000100000000000000021727000000000000000217279611111111111111111111CONS-FINAL                    000000000024000000000000000000000000000000000000000000000000000000000000000000000000000000000000000000000000000000000000PES00010000001 00000000000000000000000
201510190060000100000000000000021728000000000000000217289611111111111111111111CONS-FINAL                    000000000102000000000000000000000000000000000000000000000000000000000000000000000000000000000000000000000000000000000000PES00010000001 00000000000000000000000
201510190060000100000000000000021729000000000000000217299611111111111111111111CONS-FINAL                    000000000015000000000000000000000000000000000000000000000000000000000000000000000000000000000000000000000000000000000000PES00010000001 00000000000000000000000
201510190060000100000000000000021730000000000000000217309611111111111111111111CONS-FINAL                    000000000028500000000000000000000000000000000000000000000000000000000000000000000000000000000000000000000000000000000000PES00010000001 00000000000000000000000
201510200060000100000000000000021731000000000000000217319611111111111111111111CONS-FINAL                    000000000036500000000000000000000000000000000000000000000000000000000000000000000000000000000000000000000000000000000000PES00010000001 00000000000000000000000
201510200060000100000000000000021732000000000000000217329611111111111111111111CONS-FINAL                    000000000058500000000000000000000000000000000000000000000000000000000000000000000000000000000000000000000000000000000000PES00010000001 00000000000000000000000
201510200060000100000000000000021733000000000000000217339611111111111111111111CONS-FINAL                    000000000022500000000000000000000000000000000000000000000000000000000000000000000000000000000000000000000000000000000000PES00010000001 00000000000000000000000
201510200060000100000000000000021734000000000000000217349611111111111111111111CONS-FINAL                    000000000016000000000000000000000000000000000000000000000000000000000000000000000000000000000000000000000000000000000000PES00010000001 00000000000000000000000
201510210060000100000000000000021735000000000000000217359611111111111111111111CONS-FINAL                    000000000098500000000000000000000000000000000000000000000000000000000000000000000000000000000000000000000000000000000000PES00010000001 00000000000000000000000
201510210060000100000000000000021736000000000000000217369611111111111111111111CONS-FINAL                    000000000007500000000000000000000000000000000000000000000000000000000000000000000000000000000000000000000000000000000000PES00010000001 00000000000000000000000
201510210060000100000000000000021737000000000000000217379611111111111111111111CONS-FINAL                    000000000063400000000000000000000000000000000000000000000000000000000000000000000000000000000000000000000000000000000000PES00010000001 00000000000000000000000
201510210060000100000000000000021738000000000000000217389611111111111111111111CONS-FINAL                    000000000034000000000000000000000000000000000000000000000000000000000000000000000000000000000000000000000000000000000000PES00010000001 00000000000000000000000
201510210060000100000000000000021739000000000000000217399611111111111111111111CONS-FINAL                    000000000017800000000000000000000000000000000000000000000000000000000000000000000000000000000000000000000000000000000000PES00010000001 00000000000000000000000
201510210060000100000000000000021740000000000000000217409611111111111111111111CONS-FINAL                    000000000114000000000000000000000000000000000000000000000000000000000000000000000000000000000000000000000000000000000000PES00010000001 00000000000000000000000
201510210060000100000000000000021741000000000000000217419611111111111111111111CONS-FINAL                    000000000591200000000000000000000000000000000000000000000000000000000000000000000000000000000000000000000000000000000000PES00010000001 00000000000000000000000
201510210060000100000000000000021742000000000000000217429611111111111111111111CONS-FINAL                    000000000098500000000000000000000000000000000000000000000000000000000000000000000000000000000000000000000000000000000000PES00010000001 00000000000000000000000
201510210060000100000000000000021743000000000000000217439611111111111111111111CONS-FINAL                    000000000013000000000000000000000000000000000000000000000000000000000000000000000000000000000000000000000000000000000000PES00010000001 00000000000000000000000
201510210060000100000000000000021744000000000000000217449611111111111111111111CONS-FINAL                    000000000226000000000000000000000000000000000000000000000000000000000000000000000000000000000000000000000000000000000000PES00010000001 00000000000000000000000
201510210060000100000000000000021745000000000000000217459611111111111111111111CONS-FINAL                    000000000024000000000000000000000000000000000000000000000000000000000000000000000000000000000000000000000000000000000000PES00010000001 00000000000000000000000
