201605030010000100000000000000001195000000000000000011958000000000027163632808FREILE-SANDRA                 000000000039000000000000000000000000000000000000000000000000000000000000000000000000000000000000000000000000000000000000PES00010000001 00000000000000000000000
201605070010000100000000000000001196000000000000000011968000000000030710396899-ESCAPES-NICO-SRL             000000000075000000000000000000000000000000000000000000000000000000000000000000000000000000000000000000000000000000000000PES00010000001 00000000000000000000000
201605070010000100000000000000001197000000000000000011978000000000027253978940-DAMBOREARENA-MARIA-LAURA     000000000058000000000000000000000000000000000000000000000000000000000000000000000000000000000000000000000000000000000000PES00010000001 00000000000000000000000
201605070010000100000000000000001198000000000000000011988000000000027266172945-MARIANA-BARILLA              000000000052400000000000000000000000000000000000000000000000000000000000000000000000000000000000000000000000000000000000PES00010000001 00000000000000000000000
201605130010000100000000000000001199000000000000000011998011111111111111111111SN                            000000000069500000000000000000000000000000000000000000000000000000000000000000000000000000000000000000000000000000000000PES00010000001 00000000000000000000000
201605140010000100000000000000001200000000000000000012008000000000030710580460-ULLOA-ENDRINAL-SH            000000000155000000000000000000000000000000000000000000000000000000000000000000000000000000000000000000000000000000000000PES00010000001 00000000000000000000000
201605230010000100000000000000001201000000000000000012018000000000030712167617ALCALDE-DANIELA-Y-RICARDO-SH  000000000148000000000000000000000000000000000000000000000000000000000000000000000000000000000000000000000000000000000000PES00010000001 00000000000000000000000
201605240010000100000000000000001202000000000000000012028000000000030711592543LODOS-DEL-SUR-SRL             000000000723500000000000000000000000000000000000000000000000000000000000000000000000000000000000000000000000000000000000PES00010000001 00000000000000000000000
201605270010000100000000000000001203000000000000000012038011111111111111111111SN                            000000000045500000000000000000000000000000000000000000000000000000000000000000000000000000000000000000000000000000000000PES00010000001 00000000000000000000000
201605020060000100000000000000024463000000000000000244639611111111111111111111CONS-FINAL                    000000000254500000000000000000000000000000000000000000000000000000000000000000000000000000000000000000000000000000000000PES00010000001 00000000000000000000000
201605020060000100000000000000024464000000000000000244649611111111111111111111CONS-FINAL                    000000000045500000000000000000000000000000000000000000000000000000000000000000000000000000000000000000000000000000000000PES00010000001 00000000000000000000000
201605020060000100000000000000024465000000000000000244659611111111111111111111CONS-FINAL                    000000000090500000000000000000000000000000000000000000000000000000000000000000000000000000000000000000000000000000000000PES00010000001 00000000000000000000000
201605020060000100000000000000024466000000000000000244669611111111111111111111CONS-FINAL                    000000000184800000000000000000000000000000000000000000000000000000000000000000000000000000000000000000000000000000000000PES00010000001 00000000000000000000000
201605020060000100000000000000024467000000000000000244679611111111111111111111CONS-FINAL                    000000000027500000000000000000000000000000000000000000000000000000000000000000000000000000000000000000000000000000000000PES00010000001 00000000000000000000000
201605020060000100000000000000024468000000000000000244689611111111111111111111CONS-FINAL                    000000000087800000000000000000000000000000000000000000000000000000000000000000000000000000000000000000000000000000000000PES00010000001 00000000000000000000000
201605030060000100000000000000024470000000000000000244709611111111111111111111CONS-FINAL                    000000000024000000000000000000000000000000000000000000000000000000000000000000000000000000000000000000000000000000000000PES00010000001 00000000000000000000000
201605030060000100000000000000024471000000000000000244719611111111111111111111CONS-FINAL                    000000000069500000000000000000000000000000000000000000000000000000000000000000000000000000000000000000000000000000000000PES00010000001 00000000000000000000000
201605030060000100000000000000024472000000000000000244729611111111111111111111CONS-FINAL                    000000000081000000000000000000000000000000000000000000000000000000000000000000000000000000000000000000000000000000000000PES00010000001 00000000000000000000000
201605030060000100000000000000024473000000000000000244739611111111111111111111CONS-FINAL                    000000000035000000000000000000000000000000000000000000000000000000000000000000000000000000000000000000000000000000000000PES00010000001 00000000000000000000000
201605040060000100000000000000024474000000000000000244749611111111111111111111CONS-FINAL                    000000000085800000000000000000000000000000000000000000000000000000000000000000000000000000000000000000000000000000000000PES00010000001 00000000000000000000000
201605040060000100000000000000024475000000000000000244759611111111111111111111CONS-FINAL                    000000000069800000000000000000000000000000000000000000000000000000000000000000000000000000000000000000000000000000000000PES00010000001 00000000000000000000000
201605040060000100000000000000024476000000000000000244769611111111111111111111CONS-FINAL                    000000000058500000000000000000000000000000000000000000000000000000000000000000000000000000000000000000000000000000000000PES00010000001 00000000000000000000000
201605040060000100000000000000024477000000000000000244779611111111111111111111CONS-FINAL                    000000000036500000000000000000000000000000000000000000000000000000000000000000000000000000000000000000000000000000000000PES00010000001 00000000000000000000000
201605040060000100000000000000024478000000000000000244789611111111111111111111CONS-FINAL                    000000000052500000000000000000000000000000000000000000000000000000000000000000000000000000000000000000000000000000000000PES00010000001 00000000000000000000000
201605040060000100000000000000024479000000000000000244799611111111111111111111CONS-FINAL                    000000000195000000000000000000000000000000000000000000000000000000000000000000000000000000000000000000000000000000000000PES00010000001 00000000000000000000000
201605050060000100000000000000024481000000000000000244819611111111111111111111CONS-FINAL                    000000000009500000000000000000000000000000000000000000000000000000000000000000000000000000000000000000000000000000000000PES00010000001 00000000000000000000000
201605050060000100000000000000024482000000000000000244829611111111111111111111CONS-FINAL                    000000000039500000000000000000000000000000000000000000000000000000000000000000000000000000000000000000000000000000000000PES00010000001 00000000000000000000000
201605050060000100000000000000024483000000000000000244839611111111111111111111CONS-FINAL                    000000000076000000000000000000000000000000000000000000000000000000000000000000000000000000000000000000000000000000000000PES00010000001 00000000000000000000000
201605050060000100000000000000024484000000000000000244849611111111111111111111CONS-FINAL                    000000000012000000000000000000000000000000000000000000000000000000000000000000000000000000000000000000000000000000000000PES00010000001 00000000000000000000000
201605050060000100000000000000024485000000000000000244859611111111111111111111CONS-FINAL                    000000000049800000000000000000000000000000000000000000000000000000000000000000000000000000000000000000000000000000000000PES00010000001 00000000000000000000000
201605050060000100000000000000024486000000000000000244869611111111111111111111CONS-FINAL                    000000000187500000000000000000000000000000000000000000000000000000000000000000000000000000000000000000000000000000000000PES00010000001 00000000000000000000000
201605050060000100000000000000024487000000000000000244879611111111111111111111CONS-FINAL                    000000000048500000000000000000000000000000000000000000000000000000000000000000000000000000000000000000000000000000000000PES00010000001 00000000000000000000000
201605050060000100000000000000024488000000000000000244889611111111111111111111CONS-FINAL                    000000000013000000000000000000000000000000000000000000000000000000000000000000000000000000000000000000000000000000000000PES00010000001 00000000000000000000000
201605050060000100000000000000024489000000000000000244899611111111111111111111CONS-FINAL                    000000000089500000000000000000000000000000000000000000000000000000000000000000000000000000000000000000000000000000000000PES00010000001 00000000000000000000000
201605050060000100000000000000024490000000000000000244909611111111111111111111CONS-FINAL                    000000000027500000000000000000000000000000000000000000000000000000000000000000000000000000000000000000000000000000000000PES00010000001 00000000000000000000000
201605050060000100000000000000024491000000000000000244919611111111111111111111CONS-FINAL                    000000000100000000000000000000000000000000000000000000000000000000000000000000000000000000000000000000000000000000000000PES00010000001 00000000000000000000000
201605050060000100000000000000024492000000000000000244929611111111111111111111CONS-FINAL                    000000000006000000000000000000000000000000000000000000000000000000000000000000000000000000000000000000000000000000000000PES00010000001 00000000000000000000000
201605060060000100000000000000024493000000000000000244939611111111111111111111CONS-FINAL                    000000000047500000000000000000000000000000000000000000000000000000000000000000000000000000000000000000000000000000000000PES00010000001 00000000000000000000000
201605060060000100000000000000024494000000000000000244949611111111111111111111CONS-FINAL                    000000000056500000000000000000000000000000000000000000000000000000000000000000000000000000000000000000000000000000000000PES00010000001 00000000000000000000000
201605060060000100000000000000024495000000000000000244959611111111111111111111CONS-FINAL                    000000000046000000000000000000000000000000000000000000000000000000000000000000000000000000000000000000000000000000000000PES00010000001 00000000000000000000000
201605060060000100000000000000024496000000000000000244969611111111111111111111CONS-FINAL                    000000000042900000000000000000000000000000000000000000000000000000000000000000000000000000000000000000000000000000000000PES00010000001 00000000000000000000000
201605060060000100000000000000024497000000000000000244979611111111111111111111CONS-FINAL                    000000000049000000000000000000000000000000000000000000000000000000000000000000000000000000000000000000000000000000000000PES00010000001 00000000000000000000000
201605060060000100000000000000024498000000000000000244989611111111111111111111CONS-FINAL                    000000000018000000000000000000000000000000000000000000000000000000000000000000000000000000000000000000000000000000000000PES00010000001 00000000000000000000000
201605060060000100000000000000024499000000000000000244999611111111111111111111CONS-FINAL                    000000000068000000000000000000000000000000000000000000000000000000000000000000000000000000000000000000000000000000000000PES00010000001 00000000000000000000000
201605060060000100000000000000024500000000000000000245009611111111111111111111CONS-FINAL                    000000000079800000000000000000000000000000000000000000000000000000000000000000000000000000000000000000000000000000000000PES00010000001 00000000000000000000000
201605060060000100000000000000024501000000000000000245019611111111111111111111CONS-FINAL                    000000000182700000000000000000000000000000000000000000000000000000000000000000000000000000000000000000000000000000000000PES00010000001 00000000000000000000000
201605060060000100000000000000024502000000000000000245029611111111111111111111CONS-FINAL                    000000000085000000000000000000000000000000000000000000000000000000000000000000000000000000000000000000000000000000000000PES00010000001 00000000000000000000000
201605060060000100000000000000024503000000000000000245039611111111111111111111CONS-FINAL                    000000000104500000000000000000000000000000000000000000000000000000000000000000000000000000000000000000000000000000000000PES00010000001 00000000000000000000000
201605060060000100000000000000024504000000000000000245049611111111111111111111CONS-FINAL                    000000000254500000000000000000000000000000000000000000000000000000000000000000000000000000000000000000000000000000000000PES00010000001 00000000000000000000000
201605060060000100000000000000024505000000000000000245059611111111111111111111CONS-FINAL                    000000000130000000000000000000000000000000000000000000000000000000000000000000000000000000000000000000000000000000000000PES00010000001 00000000000000000000000
201605060060000100000000000000024506000000000000000245069611111111111111111111CONS-FINAL                    000000000152000000000000000000000000000000000000000000000000000000000000000000000000000000000000000000000000000000000000PES00010000001 00000000000000000000000
201605060060000100000000000000024507000000000000000245079611111111111111111111CONS-FINAL                    000000000039500000000000000000000000000000000000000000000000000000000000000000000000000000000000000000000000000000000000PES00010000001 00000000000000000000000
201605060060000100000000000000024508000000000000000245089611111111111111111111CONS-FINAL                    000000000059000000000000000000000000000000000000000000000000000000000000000000000000000000000000000000000000000000000000PES00010000001 00000000000000000000000
201605060060000100000000000000024509000000000000000245099611111111111111111111CONS-FINAL                    000000000035000000000000000000000000000000000000000000000000000000000000000000000000000000000000000000000000000000000000PES00010000001 00000000000000000000000
201605060060000100000000000000024510000000000000000245109611111111111111111111CONS-FINAL                    000000000115000000000000000000000000000000000000000000000000000000000000000000000000000000000000000000000000000000000000PES00010000001 00000000000000000000000
201605060060000100000000000000024512000000000000000245129611111111111111111111CONS-FINAL                    000000000192500000000000000000000000000000000000000000000000000000000000000000000000000000000000000000000000000000000000PES00010000001 00000000000000000000000
201605060060000100000000000000024513000000000000000245139611111111111111111111CONS-FINAL                    000000000077000000000000000000000000000000000000000000000000000000000000000000000000000000000000000000000000000000000000PES00010000001 00000000000000000000000
201605060060000100000000000000024514000000000000000245149611111111111111111111CONS-FINAL                    000000000127500000000000000000000000000000000000000000000000000000000000000000000000000000000000000000000000000000000000PES00010000001 00000000000000000000000
201605070060000100000000000000024515000000000000000245159611111111111111111111CONS-FINAL                    000000000054000000000000000000000000000000000000000000000000000000000000000000000000000000000000000000000000000000000000PES00010000001 00000000000000000000000
201605070060000100000000000000024516000000000000000245169611111111111111111111CONS-FINAL                    000000000092000000000000000000000000000000000000000000000000000000000000000000000000000000000000000000000000000000000000PES00010000001 00000000000000000000000
201605070060000100000000000000024517000000000000000245179611111111111111111111CONS-FINAL                    000000000140500000000000000000000000000000000000000000000000000000000000000000000000000000000000000000000000000000000000PES00010000001 00000000000000000000000
201605070060000100000000000000024518000000000000000245189611111111111111111111CONS-FINAL                    000000000079800000000000000000000000000000000000000000000000000000000000000000000000000000000000000000000000000000000000PES00010000001 00000000000000000000000
201605070060000100000000000000024519000000000000000245199611111111111111111111CONS-FINAL                    000000000007500000000000000000000000000000000000000000000000000000000000000000000000000000000000000000000000000000000000PES00010000001 00000000000000000000000
201605070060000100000000000000024520000000000000000245209611111111111111111111CONS-FINAL                    000000000013500000000000000000000000000000000000000000000000000000000000000000000000000000000000000000000000000000000000PES00010000001 00000000000000000000000
201605070060000100000000000000024521000000000000000245219611111111111111111111CONS-FINAL                    000000000055500000000000000000000000000000000000000000000000000000000000000000000000000000000000000000000000000000000000PES00010000001 00000000000000000000000
201605070060000100000000000000024522000000000000000245229611111111111111111111CONS-FINAL                    000000000051000000000000000000000000000000000000000000000000000000000000000000000000000000000000000000000000000000000000PES00010000001 00000000000000000000000
201605070060000100000000000000024523000000000000000245239611111111111111111111CONS-FINAL                    000000000023000000000000000000000000000000000000000000000000000000000000000000000000000000000000000000000000000000000000PES00010000001 00000000000000000000000
201605070060000100000000000000024524000000000000000245249611111111111111111111CONS-FINAL                    000000000024500000000000000000000000000000000000000000000000000000000000000000000000000000000000000000000000000000000000PES00010000001 00000000000000000000000
201605070060000100000000000000024525000000000000000245259611111111111111111111CONS-FINAL                    000000000037000000000000000000000000000000000000000000000000000000000000000000000000000000000000000000000000000000000000PES00010000001 00000000000000000000000
201605070060000100000000000000024526000000000000000245269611111111111111111111CONS-FINAL                    000000000065500000000000000000000000000000000000000000000000000000000000000000000000000000000000000000000000000000000000PES00010000001 00000000000000000000000
201605070060000100000000000000024527000000000000000245279611111111111111111111CONS-FINAL                    000000000035500000000000000000000000000000000000000000000000000000000000000000000000000000000000000000000000000000000000PES00010000001 00000000000000000000000
201605070060000100000000000000024528000000000000000245289611111111111111111111CONS-FINAL                    000000000090200000000000000000000000000000000000000000000000000000000000000000000000000000000000000000000000000000000000PES00010000001 00000000000000000000000
201605070060000100000000000000024529000000000000000245299611111111111111111111CONS-FINAL                    000000000037000000000000000000000000000000000000000000000000000000000000000000000000000000000000000000000000000000000000PES00010000001 00000000000000000000000
201605070060000100000000000000024530000000000000000245309611111111111111111111CONS-FINAL                    000000000076000000000000000000000000000000000000000000000000000000000000000000000000000000000000000000000000000000000000PES00010000001 00000000000000000000000
201605070060000100000000000000024531000000000000000245319611111111111111111111CONS-FINAL                    000000000093500000000000000000000000000000000000000000000000000000000000000000000000000000000000000000000000000000000000PES00010000001 00000000000000000000000
201605070060000100000000000000024532000000000000000245329611111111111111111111CONS-FINAL                    000000000035000000000000000000000000000000000000000000000000000000000000000000000000000000000000000000000000000000000000PES00010000001 00000000000000000000000
201605070060000100000000000000024533000000000000000245339611111111111111111111CONS-FINAL                    000000000056800000000000000000000000000000000000000000000000000000000000000000000000000000000000000000000000000000000000PES00010000001 00000000000000000000000
201605070060000100000000000000024534000000000000000245349611111111111111111111CONS-FINAL                    000000000032000000000000000000000000000000000000000000000000000000000000000000000000000000000000000000000000000000000000PES00010000001 00000000000000000000000
201605090060000100000000000000024535000000000000000245359611111111111111111111CONS-FINAL                    000000000023000000000000000000000000000000000000000000000000000000000000000000000000000000000000000000000000000000000000PES00010000001 00000000000000000000000
201605090060000100000000000000024536000000000000000245369611111111111111111111CONS-FINAL                    000000000070900000000000000000000000000000000000000000000000000000000000000000000000000000000000000000000000000000000000PES00010000001 00000000000000000000000
201605090060000100000000000000024537000000000000000245379611111111111111111111CONS-FINAL                    000000000076000000000000000000000000000000000000000000000000000000000000000000000000000000000000000000000000000000000000PES00010000001 00000000000000000000000
201605090060000100000000000000024538000000000000000245389611111111111111111111CONS-FINAL                    000000000173300000000000000000000000000000000000000000000000000000000000000000000000000000000000000000000000000000000000PES00010000001 00000000000000000000000
201605090060000100000000000000024539000000000000000245399611111111111111111111CONS-FINAL                    000000000071000000000000000000000000000000000000000000000000000000000000000000000000000000000000000000000000000000000000PES00010000001 00000000000000000000000
201605090060000100000000000000024540000000000000000245409611111111111111111111CONS-FINAL                    000000000071500000000000000000000000000000000000000000000000000000000000000000000000000000000000000000000000000000000000PES00010000001 00000000000000000000000
201605090060000100000000000000024541000000000000000245419611111111111111111111CONS-FINAL                    000000000138300000000000000000000000000000000000000000000000000000000000000000000000000000000000000000000000000000000000PES00010000001 00000000000000000000000
201605090060000100000000000000024542000000000000000245429611111111111111111111CONS-FINAL                    000000000086500000000000000000000000000000000000000000000000000000000000000000000000000000000000000000000000000000000000PES00010000001 00000000000000000000000
201605100060000100000000000000024543000000000000000245439611111111111111111111CONS-FINAL                    000000000026000000000000000000000000000000000000000000000000000000000000000000000000000000000000000000000000000000000000PES00010000001 00000000000000000000000
201605100060000100000000000000024544000000000000000245449611111111111111111111CONS-FINAL                    000000000022500000000000000000000000000000000000000000000000000000000000000000000000000000000000000000000000000000000000PES00010000001 00000000000000000000000
201605100060000100000000000000024545000000000000000245459611111111111111111111CONS-FINAL                    000000000059100000000000000000000000000000000000000000000000000000000000000000000000000000000000000000000000000000000000PES00010000001 00000000000000000000000
201605100060000100000000000000024546000000000000000245469611111111111111111111CONS-FINAL                    000000000227000000000000000000000000000000000000000000000000000000000000000000000000000000000000000000000000000000000000PES00010000001 00000000000000000000000
201605100060000100000000000000024547000000000000000245479611111111111111111111CONS-FINAL                    000000000047300000000000000000000000000000000000000000000000000000000000000000000000000000000000000000000000000000000000PES00010000001 00000000000000000000000
201605100060000100000000000000024548000000000000000245489611111111111111111111CONS-FINAL                    000000000015000000000000000000000000000000000000000000000000000000000000000000000000000000000000000000000000000000000000PES00010000001 00000000000000000000000
201605100060000100000000000000024549000000000000000245499611111111111111111111CONS-FINAL                    000000000041000000000000000000000000000000000000000000000000000000000000000000000000000000000000000000000000000000000000PES00010000001 00000000000000000000000
201605100060000100000000000000024550000000000000000245509611111111111111111111CONS-FINAL                    000000000017500000000000000000000000000000000000000000000000000000000000000000000000000000000000000000000000000000000000PES00010000001 00000000000000000000000
201605100060000100000000000000024551000000000000000245519611111111111111111111CONS-FINAL                    000000000061300000000000000000000000000000000000000000000000000000000000000000000000000000000000000000000000000000000000PES00010000001 00000000000000000000000
201605100060000100000000000000024552000000000000000245529611111111111111111111CONS-FINAL                    000000000853000000000000000000000000000000000000000000000000000000000000000000000000000000000000000000000000000000000000PES00010000001 00000000000000000000000
201605100060000100000000000000024553000000000000000245539611111111111111111111CONS-FINAL                    000000000045000000000000000000000000000000000000000000000000000000000000000000000000000000000000000000000000000000000000PES00010000001 00000000000000000000000
201605100060000100000000000000024554000000000000000245549611111111111111111111CONS-FINAL                    000000000027000000000000000000000000000000000000000000000000000000000000000000000000000000000000000000000000000000000000PES00010000001 00000000000000000000000
201605100060000100000000000000024555000000000000000245559611111111111111111111CONS-FINAL                    000000000097500000000000000000000000000000000000000000000000000000000000000000000000000000000000000000000000000000000000PES00010000001 00000000000000000000000
201605100060000100000000000000024556000000000000000245569611111111111111111111CONS-FINAL                    000000000042000000000000000000000000000000000000000000000000000000000000000000000000000000000000000000000000000000000000PES00010000001 00000000000000000000000
201605110060000100000000000000024557000000000000000245579611111111111111111111CONS-FINAL                    000000000070800000000000000000000000000000000000000000000000000000000000000000000000000000000000000000000000000000000000PES00010000001 00000000000000000000000
201605110060000100000000000000024558000000000000000245589611111111111111111111CONS-FINAL                    000000000016000000000000000000000000000000000000000000000000000000000000000000000000000000000000000000000000000000000000PES00010000001 00000000000000000000000
201605110060000100000000000000024559000000000000000245599611111111111111111111CONS-FINAL                    000000000535000000000000000000000000000000000000000000000000000000000000000000000000000000000000000000000000000000000000PES00010000001 00000000000000000000000
201605110060000100000000000000024560000000000000000245609611111111111111111111CONS-FINAL                    000000000210300000000000000000000000000000000000000000000000000000000000000000000000000000000000000000000000000000000000PES00010000001 00000000000000000000000
201605110060000100000000000000024561000000000000000245619611111111111111111111CONS-FINAL                    000000000024500000000000000000000000000000000000000000000000000000000000000000000000000000000000000000000000000000000000PES00010000001 00000000000000000000000
201605110060000100000000000000024562000000000000000245629611111111111111111111CONS-FINAL                    000000000047500000000000000000000000000000000000000000000000000000000000000000000000000000000000000000000000000000000000PES00010000001 00000000000000000000000
201605120060000100000000000000024563000000000000000245639611111111111111111111CONS-FINAL                    000000000098000000000000000000000000000000000000000000000000000000000000000000000000000000000000000000000000000000000000PES00010000001 00000000000000000000000
201605120060000100000000000000024564000000000000000245649611111111111111111111CONS-FINAL                    000000000038300000000000000000000000000000000000000000000000000000000000000000000000000000000000000000000000000000000000PES00010000001 00000000000000000000000
201605120060000100000000000000024565000000000000000245659611111111111111111111CONS-FINAL                    000000000243400000000000000000000000000000000000000000000000000000000000000000000000000000000000000000000000000000000000PES00010000001 00000000000000000000000
201605120060000100000000000000024566000000000000000245669611111111111111111111CONS-FINAL                    000000000312500000000000000000000000000000000000000000000000000000000000000000000000000000000000000000000000000000000000PES00010000001 00000000000000000000000
201605120060000100000000000000024567000000000000000245679611111111111111111111CONS-FINAL                    000000000036000000000000000000000000000000000000000000000000000000000000000000000000000000000000000000000000000000000000PES00010000001 00000000000000000000000
201605120060000100000000000000024568000000000000000245689611111111111111111111CONS-FINAL                    000000000023700000000000000000000000000000000000000000000000000000000000000000000000000000000000000000000000000000000000PES00010000001 00000000000000000000000
201605130060000100000000000000024569000000000000000245699611111111111111111111CONS-FINAL                    000000000058300000000000000000000000000000000000000000000000000000000000000000000000000000000000000000000000000000000000PES00010000001 00000000000000000000000
201605130060000100000000000000024570000000000000000245709611111111111111111111CONS-FINAL                    000000000018500000000000000000000000000000000000000000000000000000000000000000000000000000000000000000000000000000000000PES00010000001 00000000000000000000000
201605130060000100000000000000024571000000000000000245719611111111111111111111CONS-FINAL                    000000000039000000000000000000000000000000000000000000000000000000000000000000000000000000000000000000000000000000000000PES00010000001 00000000000000000000000
201605130060000100000000000000024572000000000000000245729611111111111111111111CONS-FINAL                    000000000088000000000000000000000000000000000000000000000000000000000000000000000000000000000000000000000000000000000000PES00010000001 00000000000000000000000
201605130060000100000000000000024573000000000000000245739611111111111111111111CONS-FINAL                    000000000053000000000000000000000000000000000000000000000000000000000000000000000000000000000000000000000000000000000000PES00010000001 00000000000000000000000
201605130060000100000000000000024574000000000000000245749611111111111111111111CONS-FINAL                    000000000043300000000000000000000000000000000000000000000000000000000000000000000000000000000000000000000000000000000000PES00010000001 00000000000000000000000
201605130060000100000000000000024575000000000000000245759611111111111111111111CONS-FINAL                    000000000331000000000000000000000000000000000000000000000000000000000000000000000000000000000000000000000000000000000000PES00010000001 00000000000000000000000
201605130060000100000000000000024576000000000000000245769611111111111111111111CONS-FINAL                    000000000073500000000000000000000000000000000000000000000000000000000000000000000000000000000000000000000000000000000000PES00010000001 00000000000000000000000
201605130060000100000000000000024577000000000000000245779611111111111111111111CONS-FINAL                    000000000059500000000000000000000000000000000000000000000000000000000000000000000000000000000000000000000000000000000000PES00010000001 00000000000000000000000
201605130060000100000000000000024578000000000000000245789611111111111111111111CONS-FINAL                    000000000069500000000000000000000000000000000000000000000000000000000000000000000000000000000000000000000000000000000000PES00010000001 00000000000000000000000
201605130060000100000000000000024579000000000000000245799611111111111111111111CONS-FINAL                    000000000053500000000000000000000000000000000000000000000000000000000000000000000000000000000000000000000000000000000000PES00010000001 00000000000000000000000
201605130060000100000000000000024580000000000000000245809611111111111111111111CONS-FINAL                    000000000023000000000000000000000000000000000000000000000000000000000000000000000000000000000000000000000000000000000000PES00010000001 00000000000000000000000
201605140060000100000000000000024581000000000000000245819611111111111111111111CONS-FINAL                    000000000016000000000000000000000000000000000000000000000000000000000000000000000000000000000000000000000000000000000000PES00010000001 00000000000000000000000
201605140060000100000000000000024582000000000000000245829611111111111111111111CONS-FINAL                    000000000065000000000000000000000000000000000000000000000000000000000000000000000000000000000000000000000000000000000000PES00010000001 00000000000000000000000
201605140060000100000000000000024583000000000000000245839611111111111111111111CONS-FINAL                    000000000068000000000000000000000000000000000000000000000000000000000000000000000000000000000000000000000000000000000000PES00010000001 00000000000000000000000
201605140060000100000000000000024584000000000000000245849611111111111111111111CONS-FINAL                    000000000043500000000000000000000000000000000000000000000000000000000000000000000000000000000000000000000000000000000000PES00010000001 00000000000000000000000
201605140060000100000000000000024585000000000000000245859611111111111111111111CONS-FINAL                    000000000021000000000000000000000000000000000000000000000000000000000000000000000000000000000000000000000000000000000000PES00010000001 00000000000000000000000
201605140060000100000000000000024586000000000000000245869611111111111111111111CONS-FINAL                    000000000204000000000000000000000000000000000000000000000000000000000000000000000000000000000000000000000000000000000000PES00010000001 00000000000000000000000
201605140060000100000000000000024587000000000000000245879611111111111111111111CONS-FINAL                    000000000039800000000000000000000000000000000000000000000000000000000000000000000000000000000000000000000000000000000000PES00010000001 00000000000000000000000
201605140060000100000000000000024588000000000000000245889611111111111111111111CONS-FINAL                    000000000047500000000000000000000000000000000000000000000000000000000000000000000000000000000000000000000000000000000000PES00010000001 00000000000000000000000
201605140060000100000000000000024589000000000000000245899611111111111111111111CONS-FINAL                    000000000012000000000000000000000000000000000000000000000000000000000000000000000000000000000000000000000000000000000000PES00010000001 00000000000000000000000
201605140060000100000000000000024590000000000000000245909611111111111111111111CONS-FINAL                    000000000099800000000000000000000000000000000000000000000000000000000000000000000000000000000000000000000000000000000000PES00010000001 00000000000000000000000
201605140060000100000000000000024591000000000000000245919611111111111111111111CONS-FINAL                    000000000038000000000000000000000000000000000000000000000000000000000000000000000000000000000000000000000000000000000000PES00010000001 00000000000000000000000
201605140060000100000000000000024592000000000000000245929611111111111111111111CONS-FINAL                    000000000074000000000000000000000000000000000000000000000000000000000000000000000000000000000000000000000000000000000000PES00010000001 00000000000000000000000
201605140060000100000000000000024593000000000000000245939611111111111111111111CONS-FINAL                    000000000130000000000000000000000000000000000000000000000000000000000000000000000000000000000000000000000000000000000000PES00010000001 00000000000000000000000
201605140060000100000000000000024594000000000000000245949611111111111111111111CONS-FINAL                    000000000039500000000000000000000000000000000000000000000000000000000000000000000000000000000000000000000000000000000000PES00010000001 00000000000000000000000
201605140060000100000000000000024595000000000000000245959611111111111111111111CONS-FINAL                    000000000079800000000000000000000000000000000000000000000000000000000000000000000000000000000000000000000000000000000000PES00010000001 00000000000000000000000
201605140060000100000000000000024596000000000000000245969611111111111111111111CONS-FINAL                    000000000137500000000000000000000000000000000000000000000000000000000000000000000000000000000000000000000000000000000000PES00010000001 00000000000000000000000
201605140060000100000000000000024597000000000000000245979611111111111111111111CONS-FINAL                    000000000084000000000000000000000000000000000000000000000000000000000000000000000000000000000000000000000000000000000000PES00010000001 00000000000000000000000
201605140060000100000000000000024598000000000000000245989611111111111111111111CONS-FINAL                    000000000032000000000000000000000000000000000000000000000000000000000000000000000000000000000000000000000000000000000000PES00010000001 00000000000000000000000
201605140060000100000000000000024599000000000000000245999611111111111111111111CONS-FINAL                    000000000115000000000000000000000000000000000000000000000000000000000000000000000000000000000000000000000000000000000000PES00010000001 00000000000000000000000
201605140060000100000000000000024600000000000000000246009611111111111111111111CONS-FINAL                    000000000033000000000000000000000000000000000000000000000000000000000000000000000000000000000000000000000000000000000000PES00010000001 00000000000000000000000
201605140060000100000000000000024601000000000000000246019611111111111111111111CONS-FINAL                    000000000050000000000000000000000000000000000000000000000000000000000000000000000000000000000000000000000000000000000000PES00010000001 00000000000000000000000
201605140060000100000000000000024602000000000000000246029611111111111111111111CONS-FINAL                    000000000082500000000000000000000000000000000000000000000000000000000000000000000000000000000000000000000000000000000000PES00010000001 00000000000000000000000
201605140060000100000000000000024603000000000000000246039611111111111111111111CONS-FINAL                    000000000017000000000000000000000000000000000000000000000000000000000000000000000000000000000000000000000000000000000000PES00010000001 00000000000000000000000
201605140060000100000000000000024604000000000000000246049611111111111111111111CONS-FINAL                    000000000078500000000000000000000000000000000000000000000000000000000000000000000000000000000000000000000000000000000000PES00010000001 00000000000000000000000
201605140060000100000000000000024605000000000000000246059611111111111111111111CONS-FINAL                    000000000041300000000000000000000000000000000000000000000000000000000000000000000000000000000000000000000000000000000000PES00010000001 00000000000000000000000
201605140060000100000000000000024606000000000000000246069611111111111111111111CONS-FINAL                    000000000024000000000000000000000000000000000000000000000000000000000000000000000000000000000000000000000000000000000000PES00010000001 00000000000000000000000
201605160060000100000000000000024607000000000000000246079611111111111111111111CONS-FINAL                    000000000096000000000000000000000000000000000000000000000000000000000000000000000000000000000000000000000000000000000000PES00010000001 00000000000000000000000
201605160060000100000000000000024608000000000000000246089611111111111111111111CONS-FINAL                    000000000048000000000000000000000000000000000000000000000000000000000000000000000000000000000000000000000000000000000000PES00010000001 00000000000000000000000
201605160060000100000000000000024609000000000000000246099611111111111111111111CONS-FINAL                    000000000050400000000000000000000000000000000000000000000000000000000000000000000000000000000000000000000000000000000000PES00010000001 00000000000000000000000
201605160060000100000000000000024610000000000000000246109611111111111111111111CONS-FINAL                    000000000187800000000000000000000000000000000000000000000000000000000000000000000000000000000000000000000000000000000000PES00010000001 00000000000000000000000
201605160060000100000000000000024611000000000000000246119611111111111111111111CONS-FINAL                    000000000027000000000000000000000000000000000000000000000000000000000000000000000000000000000000000000000000000000000000PES00010000001 00000000000000000000000
201605160060000100000000000000024612000000000000000246129611111111111111111111CONS-FINAL                    000000000055000000000000000000000000000000000000000000000000000000000000000000000000000000000000000000000000000000000000PES00010000001 00000000000000000000000
201605160060000100000000000000024613000000000000000246139611111111111111111111CONS-FINAL                    000000000026000000000000000000000000000000000000000000000000000000000000000000000000000000000000000000000000000000000000PES00010000001 00000000000000000000000
201605170060000100000000000000024614000000000000000246149611111111111111111111CONS-FINAL                    000000000007800000000000000000000000000000000000000000000000000000000000000000000000000000000000000000000000000000000000PES00010000001 00000000000000000000000
201605170060000100000000000000024615000000000000000246159611111111111111111111CONS-FINAL                    000000000018500000000000000000000000000000000000000000000000000000000000000000000000000000000000000000000000000000000000PES00010000001 00000000000000000000000
201605170060000100000000000000024616000000000000000246169611111111111111111111CONS-FINAL                    000000000162500000000000000000000000000000000000000000000000000000000000000000000000000000000000000000000000000000000000PES00010000001 00000000000000000000000
201605180060000100000000000000024617000000000000000246179611111111111111111111CONS-FINAL                    000000000094800000000000000000000000000000000000000000000000000000000000000000000000000000000000000000000000000000000000PES00010000001 00000000000000000000000
201605180060000100000000000000024618000000000000000246189611111111111111111111CONS-FINAL                    000000000018500000000000000000000000000000000000000000000000000000000000000000000000000000000000000000000000000000000000PES00010000001 00000000000000000000000
201605180060000100000000000000024619000000000000000246199611111111111111111111CONS-FINAL                    000000000028000000000000000000000000000000000000000000000000000000000000000000000000000000000000000000000000000000000000PES00010000001 00000000000000000000000
201605180060000100000000000000024620000000000000000246209611111111111111111111CONS-FINAL                    000000000045500000000000000000000000000000000000000000000000000000000000000000000000000000000000000000000000000000000000PES00010000001 00000000000000000000000
201605180060000100000000000000024621000000000000000246219611111111111111111111CONS-FINAL                    000000000025000000000000000000000000000000000000000000000000000000000000000000000000000000000000000000000000000000000000PES00010000001 00000000000000000000000
201605180060000100000000000000024622000000000000000246229611111111111111111111CONS-FINAL                    000000000893000000000000000000000000000000000000000000000000000000000000000000000000000000000000000000000000000000000000PES00010000001 00000000000000000000000
201605180060000100000000000000024623000000000000000246239611111111111111111111CONS-FINAL                    000000000034500000000000000000000000000000000000000000000000000000000000000000000000000000000000000000000000000000000000PES00010000001 00000000000000000000000
201605190060000100000000000000024624000000000000000246249611111111111111111111CONS-FINAL                    000000000007800000000000000000000000000000000000000000000000000000000000000000000000000000000000000000000000000000000000PES00010000001 00000000000000000000000
201605190060000100000000000000024625000000000000000246259611111111111111111111CONS-FINAL                    000000000039500000000000000000000000000000000000000000000000000000000000000000000000000000000000000000000000000000000000PES00010000001 00000000000000000000000
201605190060000100000000000000024626000000000000000246269611111111111111111111CONS-FINAL                    000000000033500000000000000000000000000000000000000000000000000000000000000000000000000000000000000000000000000000000000PES00010000001 00000000000000000000000
201605200060000100000000000000024628000000000000000246289611111111111111111111CONS-FINAL                    000000000023500000000000000000000000000000000000000000000000000000000000000000000000000000000000000000000000000000000000PES00010000001 00000000000000000000000
201605200060000100000000000000024629000000000000000246299611111111111111111111CONS-FINAL                    000000000007000000000000000000000000000000000000000000000000000000000000000000000000000000000000000000000000000000000000PES00010000001 00000000000000000000000
201605200060000100000000000000024630000000000000000246309611111111111111111111CONS-FINAL                    000000000089000000000000000000000000000000000000000000000000000000000000000000000000000000000000000000000000000000000000PES00010000001 00000000000000000000000
201605200060000100000000000000024631000000000000000246319611111111111111111111CONS-FINAL                    000000000031100000000000000000000000000000000000000000000000000000000000000000000000000000000000000000000000000000000000PES00010000001 00000000000000000000000
201605200060000100000000000000024632000000000000000246329611111111111111111111CONS-FINAL                    000000000102000000000000000000000000000000000000000000000000000000000000000000000000000000000000000000000000000000000000PES00010000001 00000000000000000000000
201605200060000100000000000000024633000000000000000246339611111111111111111111CONS-FINAL                    000000000069300000000000000000000000000000000000000000000000000000000000000000000000000000000000000000000000000000000000PES00010000001 00000000000000000000000
201605200060000100000000000000024634000000000000000246349611111111111111111111CONS-FINAL                    000000000025000000000000000000000000000000000000000000000000000000000000000000000000000000000000000000000000000000000000PES00010000001 00000000000000000000000
201605200060000100000000000000024635000000000000000246359611111111111111111111CONS-FINAL                    000000000056000000000000000000000000000000000000000000000000000000000000000000000000000000000000000000000000000000000000PES00010000001 00000000000000000000000
201605200060000100000000000000024636000000000000000246369611111111111111111111CONS-FINAL                    000000000015000000000000000000000000000000000000000000000000000000000000000000000000000000000000000000000000000000000000PES00010000001 00000000000000000000000
201605200060000100000000000000024637000000000000000246379611111111111111111111CONS-FINAL                    000000000160500000000000000000000000000000000000000000000000000000000000000000000000000000000000000000000000000000000000PES00010000001 00000000000000000000000
201605200060000100000000000000024638000000000000000246389611111111111111111111CONS-FINAL                    000000000045000000000000000000000000000000000000000000000000000000000000000000000000000000000000000000000000000000000000PES00010000001 00000000000000000000000
201605200060000100000000000000024639000000000000000246399611111111111111111111CONS-FINAL                    000000000095500000000000000000000000000000000000000000000000000000000000000000000000000000000000000000000000000000000000PES00010000001 00000000000000000000000
201605200060000100000000000000024640000000000000000246409611111111111111111111CONS-FINAL                    000000000017500000000000000000000000000000000000000000000000000000000000000000000000000000000000000000000000000000000000PES00010000001 00000000000000000000000
201605200060000100000000000000024641000000000000000246419611111111111111111111CONS-FINAL                    000000000018800000000000000000000000000000000000000000000000000000000000000000000000000000000000000000000000000000000000PES00010000001 00000000000000000000000
201605210060000100000000000000024642000000000000000246429611111111111111111111CONS-FINAL                    000000000064500000000000000000000000000000000000000000000000000000000000000000000000000000000000000000000000000000000000PES00010000001 00000000000000000000000
201605210060000100000000000000024643000000000000000246439611111111111111111111CONS-FINAL                    000000000057000000000000000000000000000000000000000000000000000000000000000000000000000000000000000000000000000000000000PES00010000001 00000000000000000000000
201605210060000100000000000000024644000000000000000246449611111111111111111111CONS-FINAL                    000000000071800000000000000000000000000000000000000000000000000000000000000000000000000000000000000000000000000000000000PES00010000001 00000000000000000000000
201605210060000100000000000000024645000000000000000246459611111111111111111111CONS-FINAL                    000000000102500000000000000000000000000000000000000000000000000000000000000000000000000000000000000000000000000000000000PES00010000001 00000000000000000000000
201605210060000100000000000000024646000000000000000246469611111111111111111111CONS-FINAL                    000000000224500000000000000000000000000000000000000000000000000000000000000000000000000000000000000000000000000000000000PES00010000001 00000000000000000000000
201605210060000100000000000000024647000000000000000246479611111111111111111111CONS-FINAL                    000000000085400000000000000000000000000000000000000000000000000000000000000000000000000000000000000000000000000000000000PES00010000001 00000000000000000000000
201605210060000100000000000000024648000000000000000246489611111111111111111111CONS-FINAL                    000000000058500000000000000000000000000000000000000000000000000000000000000000000000000000000000000000000000000000000000PES00010000001 00000000000000000000000
201605210060000100000000000000024649000000000000000246499611111111111111111111CONS-FINAL                    000000000102500000000000000000000000000000000000000000000000000000000000000000000000000000000000000000000000000000000000PES00010000001 00000000000000000000000
201605210060000100000000000000024650000000000000000246509611111111111111111111CONS-FINAL                    000000000015500000000000000000000000000000000000000000000000000000000000000000000000000000000000000000000000000000000000PES00010000001 00000000000000000000000
201605210060000100000000000000024651000000000000000246519611111111111111111111CONS-FINAL                    000000000035000000000000000000000000000000000000000000000000000000000000000000000000000000000000000000000000000000000000PES00010000001 00000000000000000000000
201605210060000100000000000000024652000000000000000246529611111111111111111111CONS-FINAL                    000000000052500000000000000000000000000000000000000000000000000000000000000000000000000000000000000000000000000000000000PES00010000001 00000000000000000000000
201605210060000100000000000000024653000000000000000246539611111111111111111111CONS-FINAL                    000000000116200000000000000000000000000000000000000000000000000000000000000000000000000000000000000000000000000000000000PES00010000001 00000000000000000000000
201605210060000100000000000000024654000000000000000246549611111111111111111111CONS-FINAL                    000000000073300000000000000000000000000000000000000000000000000000000000000000000000000000000000000000000000000000000000PES00010000001 00000000000000000000000
201605210060000100000000000000024655000000000000000246559611111111111111111111CONS-FINAL                    000000000085000000000000000000000000000000000000000000000000000000000000000000000000000000000000000000000000000000000000PES00010000001 00000000000000000000000
201605210060000100000000000000024656000000000000000246569611111111111111111111CONS-FINAL                    000000000036000000000000000000000000000000000000000000000000000000000000000000000000000000000000000000000000000000000000PES00010000001 00000000000000000000000
201605210060000100000000000000024657000000000000000246579611111111111111111111CONS-FINAL                    000000000047500000000000000000000000000000000000000000000000000000000000000000000000000000000000000000000000000000000000PES00010000001 00000000000000000000000
201605210060000100000000000000024658000000000000000246589611111111111111111111CONS-FINAL                    000000000035000000000000000000000000000000000000000000000000000000000000000000000000000000000000000000000000000000000000PES00010000001 00000000000000000000000
201605210060000100000000000000024659000000000000000246599611111111111111111111CONS-FINAL                    000000000050500000000000000000000000000000000000000000000000000000000000000000000000000000000000000000000000000000000000PES00010000001 00000000000000000000000
201605210060000100000000000000024660000000000000000246609611111111111111111111CONS-FINAL                    000000000035000000000000000000000000000000000000000000000000000000000000000000000000000000000000000000000000000000000000PES00010000001 00000000000000000000000
201605210060000100000000000000024661000000000000000246619611111111111111111111CONS-FINAL                    000000000094000000000000000000000000000000000000000000000000000000000000000000000000000000000000000000000000000000000000PES00010000001 00000000000000000000000
201605230060000100000000000000024662000000000000000246629611111111111111111111CONS-FINAL                    000000000027500000000000000000000000000000000000000000000000000000000000000000000000000000000000000000000000000000000000PES00010000001 00000000000000000000000
201605230060000100000000000000024663000000000000000246639611111111111111111111CONS-FINAL                    000000000010500000000000000000000000000000000000000000000000000000000000000000000000000000000000000000000000000000000000PES00010000001 00000000000000000000000
201605230060000100000000000000024664000000000000000246649611111111111111111111CONS-FINAL                    000000000141000000000000000000000000000000000000000000000000000000000000000000000000000000000000000000000000000000000000PES00010000001 00000000000000000000000
201605230060000100000000000000024665000000000000000246659611111111111111111111CONS-FINAL                    000000000038500000000000000000000000000000000000000000000000000000000000000000000000000000000000000000000000000000000000PES00010000001 00000000000000000000000
201605230060000100000000000000024666000000000000000246669611111111111111111111CONS-FINAL                    000000000036000000000000000000000000000000000000000000000000000000000000000000000000000000000000000000000000000000000000PES00010000001 00000000000000000000000
201605240060000100000000000000024667000000000000000246679611111111111111111111CONS-FINAL                    000000000034300000000000000000000000000000000000000000000000000000000000000000000000000000000000000000000000000000000000PES00010000001 00000000000000000000000
201605240060000100000000000000024668000000000000000246689611111111111111111111CONS-FINAL                    000000000048300000000000000000000000000000000000000000000000000000000000000000000000000000000000000000000000000000000000PES00010000001 00000000000000000000000
201605240060000100000000000000024669000000000000000246699611111111111111111111CONS-FINAL                    000000000018000000000000000000000000000000000000000000000000000000000000000000000000000000000000000000000000000000000000PES00010000001 00000000000000000000000
201605240060000100000000000000024670000000000000000246709611111111111111111111CONS-FINAL                    000000000189000000000000000000000000000000000000000000000000000000000000000000000000000000000000000000000000000000000000PES00010000001 00000000000000000000000
201605240060000100000000000000024671000000000000000246719611111111111111111111CONS-FINAL                    000000000301900000000000000000000000000000000000000000000000000000000000000000000000000000000000000000000000000000000000PES00010000001 00000000000000000000000
201605240060000100000000000000024672000000000000000246729611111111111111111111CONS-FINAL                    000000000096000000000000000000000000000000000000000000000000000000000000000000000000000000000000000000000000000000000000PES00010000001 00000000000000000000000
201605240060000100000000000000024673000000000000000246739611111111111111111111CONS-FINAL                    000000000050000000000000000000000000000000000000000000000000000000000000000000000000000000000000000000000000000000000000PES00010000001 00000000000000000000000
201605240060000100000000000000024674000000000000000246749611111111111111111111CONS-FINAL                    000000000070900000000000000000000000000000000000000000000000000000000000000000000000000000000000000000000000000000000000PES00010000001 00000000000000000000000
201605240060000100000000000000024675000000000000000246759611111111111111111111CONS-FINAL                    000000000058500000000000000000000000000000000000000000000000000000000000000000000000000000000000000000000000000000000000PES00010000001 00000000000000000000000
201605240060000100000000000000024676000000000000000246769611111111111111111111CONS-FINAL                    000000000022500000000000000000000000000000000000000000000000000000000000000000000000000000000000000000000000000000000000PES00010000001 00000000000000000000000
201605240060000100000000000000024677000000000000000246779611111111111111111111CONS-FINAL                    000000000078500000000000000000000000000000000000000000000000000000000000000000000000000000000000000000000000000000000000PES00010000001 00000000000000000000000
201605240060000100000000000000024678000000000000000246789611111111111111111111CONS-FINAL                    000000000035000000000000000000000000000000000000000000000000000000000000000000000000000000000000000000000000000000000000PES00010000001 00000000000000000000000
201605240060000100000000000000024679000000000000000246799611111111111111111111CONS-FINAL                    000000000111800000000000000000000000000000000000000000000000000000000000000000000000000000000000000000000000000000000000PES00010000001 00000000000000000000000
201605240060000100000000000000024680000000000000000246809611111111111111111111CONS-FINAL                    000000000000100000000000000000000000000000000000000000000000000000000000000000000000000000000000000000000000000000000000PES00010000001 00000000000000000000000
201605260060000100000000000000024681000000000000000246819611111111111111111111CONS-FINAL                    000000000047000000000000000000000000000000000000000000000000000000000000000000000000000000000000000000000000000000000000PES00010000001 00000000000000000000000
201605260060000100000000000000024682000000000000000246829611111111111111111111CONS-FINAL                    000000000012000000000000000000000000000000000000000000000000000000000000000000000000000000000000000000000000000000000000PES00010000001 00000000000000000000000
201605260060000100000000000000024683000000000000000246839611111111111111111111CONS-FINAL                    000000000031500000000000000000000000000000000000000000000000000000000000000000000000000000000000000000000000000000000000PES00010000001 00000000000000000000000
201605260060000100000000000000024684000000000000000246849611111111111111111111CONS-FINAL                    000000000020000000000000000000000000000000000000000000000000000000000000000000000000000000000000000000000000000000000000PES00010000001 00000000000000000000000
201605260060000100000000000000024685000000000000000246859611111111111111111111CONS-FINAL                    000000000032000000000000000000000000000000000000000000000000000000000000000000000000000000000000000000000000000000000000PES00010000001 00000000000000000000000
201605260060000100000000000000024686000000000000000246869611111111111111111111CONS-FINAL                    000000000129500000000000000000000000000000000000000000000000000000000000000000000000000000000000000000000000000000000000PES00010000001 00000000000000000000000
201605260060000100000000000000024687000000000000000246879611111111111111111111CONS-FINAL                    000000000039500000000000000000000000000000000000000000000000000000000000000000000000000000000000000000000000000000000000PES00010000001 00000000000000000000000
201605260060000100000000000000024688000000000000000246889611111111111111111111CONS-FINAL                    000000000155000000000000000000000000000000000000000000000000000000000000000000000000000000000000000000000000000000000000PES00010000001 00000000000000000000000
201605260060000100000000000000024689000000000000000246899611111111111111111111CONS-FINAL                    000000000078500000000000000000000000000000000000000000000000000000000000000000000000000000000000000000000000000000000000PES00010000001 00000000000000000000000
201605260060000100000000000000024690000000000000000246909611111111111111111111CONS-FINAL                    000000000029500000000000000000000000000000000000000000000000000000000000000000000000000000000000000000000000000000000000PES00010000001 00000000000000000000000
201605270060000100000000000000024691000000000000000246919611111111111111111111CONS-FINAL                    000000000027000000000000000000000000000000000000000000000000000000000000000000000000000000000000000000000000000000000000PES00010000001 00000000000000000000000
201605270060000100000000000000024692000000000000000246929611111111111111111111CONS-FINAL                    000000000055000000000000000000000000000000000000000000000000000000000000000000000000000000000000000000000000000000000000PES00010000001 00000000000000000000000
201605270060000100000000000000024693000000000000000246939611111111111111111111CONS-FINAL                    000000000174000000000000000000000000000000000000000000000000000000000000000000000000000000000000000000000000000000000000PES00010000001 00000000000000000000000
201605270060000100000000000000024694000000000000000246949611111111111111111111CONS-FINAL                    000000000049800000000000000000000000000000000000000000000000000000000000000000000000000000000000000000000000000000000000PES00010000001 00000000000000000000000
201605270060000100000000000000024695000000000000000246959611111111111111111111CONS-FINAL                    000000000023500000000000000000000000000000000000000000000000000000000000000000000000000000000000000000000000000000000000PES00010000001 00000000000000000000000
201605270060000100000000000000024696000000000000000246969611111111111111111111CONS-FINAL                    000000000090300000000000000000000000000000000000000000000000000000000000000000000000000000000000000000000000000000000000PES00010000001 00000000000000000000000
201605270060000100000000000000024697000000000000000246979611111111111111111111CONS-FINAL                    000000000084000000000000000000000000000000000000000000000000000000000000000000000000000000000000000000000000000000000000PES00010000001 00000000000000000000000
201605270060000100000000000000024698000000000000000246989611111111111111111111CONS-FINAL                    000000000087700000000000000000000000000000000000000000000000000000000000000000000000000000000000000000000000000000000000PES00010000001 00000000000000000000000
201605270060000100000000000000024699000000000000000246999611111111111111111111CONS-FINAL                    000000000015500000000000000000000000000000000000000000000000000000000000000000000000000000000000000000000000000000000000PES00010000001 00000000000000000000000
201605270060000100000000000000024700000000000000000247009611111111111111111111CONS-FINAL                    000000000130000000000000000000000000000000000000000000000000000000000000000000000000000000000000000000000000000000000000PES00010000001 00000000000000000000000
201605270060000100000000000000024701000000000000000247019611111111111111111111CONS-FINAL                    000000000009500000000000000000000000000000000000000000000000000000000000000000000000000000000000000000000000000000000000PES00010000001 00000000000000000000000
201605270060000100000000000000024702000000000000000247029611111111111111111111CONS-FINAL                    000000000073000000000000000000000000000000000000000000000000000000000000000000000000000000000000000000000000000000000000PES00010000001 00000000000000000000000
201605270060000100000000000000024703000000000000000247039611111111111111111111CONS-FINAL                    000000000038500000000000000000000000000000000000000000000000000000000000000000000000000000000000000000000000000000000000PES00010000001 00000000000000000000000
201605280060000100000000000000024704000000000000000247049611111111111111111111CONS-FINAL                    000000000060400000000000000000000000000000000000000000000000000000000000000000000000000000000000000000000000000000000000PES00010000001 00000000000000000000000
201605280060000100000000000000024705000000000000000247059611111111111111111111CONS-FINAL                    000000000078000000000000000000000000000000000000000000000000000000000000000000000000000000000000000000000000000000000000PES00010000001 00000000000000000000000
201605280060000100000000000000024706000000000000000247069611111111111111111111CONS-FINAL                    000000000046500000000000000000000000000000000000000000000000000000000000000000000000000000000000000000000000000000000000PES00010000001 00000000000000000000000
201605280060000100000000000000024707000000000000000247079611111111111111111111CONS-FINAL                    000000000049600000000000000000000000000000000000000000000000000000000000000000000000000000000000000000000000000000000000PES00010000001 00000000000000000000000
201605280060000100000000000000024708000000000000000247089611111111111111111111CONS-FINAL                    000000000073500000000000000000000000000000000000000000000000000000000000000000000000000000000000000000000000000000000000PES00010000001 00000000000000000000000
201605280060000100000000000000024709000000000000000247099611111111111111111111CONS-FINAL                    000000000009200000000000000000000000000000000000000000000000000000000000000000000000000000000000000000000000000000000000PES00010000001 00000000000000000000000
201605280060000100000000000000024710000000000000000247109611111111111111111111CONS-FINAL                    000000000160000000000000000000000000000000000000000000000000000000000000000000000000000000000000000000000000000000000000PES00010000001 00000000000000000000000
201605280060000100000000000000024711000000000000000247119611111111111111111111CONS-FINAL                    000000000065500000000000000000000000000000000000000000000000000000000000000000000000000000000000000000000000000000000000PES00010000001 00000000000000000000000
201605280060000100000000000000024712000000000000000247129611111111111111111111CONS-FINAL                    000000000021500000000000000000000000000000000000000000000000000000000000000000000000000000000000000000000000000000000000PES00010000001 00000000000000000000000
201605280060000100000000000000024713000000000000000247139611111111111111111111CONS-FINAL                    000000000162100000000000000000000000000000000000000000000000000000000000000000000000000000000000000000000000000000000000PES00010000001 00000000000000000000000
201605280060000100000000000000024714000000000000000247149611111111111111111111CONS-FINAL                    000000000034500000000000000000000000000000000000000000000000000000000000000000000000000000000000000000000000000000000000PES00010000001 00000000000000000000000
201605280060000100000000000000024715000000000000000247159611111111111111111111CONS-FINAL                    000000000034000000000000000000000000000000000000000000000000000000000000000000000000000000000000000000000000000000000000PES00010000001 00000000000000000000000
201605280060000100000000000000024716000000000000000247169611111111111111111111CONS-FINAL                    000000000064000000000000000000000000000000000000000000000000000000000000000000000000000000000000000000000000000000000000PES00010000001 00000000000000000000000
201605280060000100000000000000024717000000000000000247179611111111111111111111CONS-FINAL                    000000000222300000000000000000000000000000000000000000000000000000000000000000000000000000000000000000000000000000000000PES00010000001 00000000000000000000000
201605280060000100000000000000024718000000000000000247189611111111111111111111CONS-FINAL                    000000000043000000000000000000000000000000000000000000000000000000000000000000000000000000000000000000000000000000000000PES00010000001 00000000000000000000000
201605300060000100000000000000024719000000000000000247199611111111111111111111CONS-FINAL                    000000000039000000000000000000000000000000000000000000000000000000000000000000000000000000000000000000000000000000000000PES00010000001 00000000000000000000000
201605300060000100000000000000024720000000000000000247209611111111111111111111CONS-FINAL                    000000000079800000000000000000000000000000000000000000000000000000000000000000000000000000000000000000000000000000000000PES00010000001 00000000000000000000000
201605300060000100000000000000024721000000000000000247219611111111111111111111CONS-FINAL                    000000000071400000000000000000000000000000000000000000000000000000000000000000000000000000000000000000000000000000000000PES00010000001 00000000000000000000000
201605300060000100000000000000024722000000000000000247229611111111111111111111CONS-FINAL                    000000000009000000000000000000000000000000000000000000000000000000000000000000000000000000000000000000000000000000000000PES00010000001 00000000000000000000000
201605300060000100000000000000024723000000000000000247239611111111111111111111CONS-FINAL                    000000000047500000000000000000000000000000000000000000000000000000000000000000000000000000000000000000000000000000000000PES00010000001 00000000000000000000000
201605300060000100000000000000024724000000000000000247249611111111111111111111CONS-FINAL                    000000000125000000000000000000000000000000000000000000000000000000000000000000000000000000000000000000000000000000000000PES00010000001 00000000000000000000000
201605300060000100000000000000024725000000000000000247259611111111111111111111CONS-FINAL                    000000000054800000000000000000000000000000000000000000000000000000000000000000000000000000000000000000000000000000000000PES00010000001 00000000000000000000000
201605300060000100000000000000024726000000000000000247269611111111111111111111CONS-FINAL                    000000000109000000000000000000000000000000000000000000000000000000000000000000000000000000000000000000000000000000000000PES00010000001 00000000000000000000000
201605300060000100000000000000024727000000000000000247279611111111111111111111CONS-FINAL                    000000000007500000000000000000000000000000000000000000000000000000000000000000000000000000000000000000000000000000000000PES00010000001 00000000000000000000000
201605300060000100000000000000024728000000000000000247289611111111111111111111CONS-FINAL                    000000000037300000000000000000000000000000000000000000000000000000000000000000000000000000000000000000000000000000000000PES00010000001 00000000000000000000000
201605310060000100000000000000024729000000000000000247299611111111111111111111CONS-FINAL                    000000000053000000000000000000000000000000000000000000000000000000000000000000000000000000000000000000000000000000000000PES00010000001 00000000000000000000000
201605310060000100000000000000024730000000000000000247309611111111111111111111CONS-FINAL                    000000000052500000000000000000000000000000000000000000000000000000000000000000000000000000000000000000000000000000000000PES00010000001 00000000000000000000000
201605310060000100000000000000024731000000000000000247319611111111111111111111CONS-FINAL                    000000000034000000000000000000000000000000000000000000000000000000000000000000000000000000000000000000000000000000000000PES00010000001 00000000000000000000000
201605310060000100000000000000024732000000000000000247329611111111111111111111CONS-FINAL                    000000000073000000000000000000000000000000000000000000000000000000000000000000000000000000000000000000000000000000000000PES00010000001 00000000000000000000000
201605310060000100000000000000024733000000000000000247339611111111111111111111CONS-FINAL                    000000000054800000000000000000000000000000000000000000000000000000000000000000000000000000000000000000000000000000000000PES00010000001 00000000000000000000000
201605310060000100000000000000024734000000000000000247349611111111111111111111CONS-FINAL                    000000000097500000000000000000000000000000000000000000000000000000000000000000000000000000000000000000000000000000000000PES00010000001 00000000000000000000000
201605310060000100000000000000024735000000000000000247359611111111111111111111CONS-FINAL                    000000000014500000000000000000000000000000000000000000000000000000000000000000000000000000000000000000000000000000000000PES00010000001 00000000000000000000000
201605310060000100000000000000024736000000000000000247369611111111111111111111CONS-FINAL                    000000000024500000000000000000000000000000000000000000000000000000000000000000000000000000000000000000000000000000000000PES00010000001 00000000000000000000000
201605310060000100000000000000024737000000000000000247379611111111111111111111CONS-FINAL                    000000000017500000000000000000000000000000000000000000000000000000000000000000000000000000000000000000000000000000000000PES00010000001 00000000000000000000000
201605310060000100000000000000024738000000000000000247389611111111111111111111CONS-FINAL                    000000000019500000000000000000000000000000000000000000000000000000000000000000000000000000000000000000000000000000000000PES00010000001 00000000000000000000000
201605060060000100000000000000000037000000000000000000379611111111111111111111CONS-FINAL                    000000000104500000000000000000000000000000000000000000000000000000000000000000000000000000000000000000000000000000000000PES00010000001 00000000000000000000000

