201512100010000800000000000000075949                8000000000030545726722SOCIEDAD-COOP-POPULAR-LIM-DE  000000000229756000000000000000000000000000000000000000000000000000000000000000000000000000000000000000000000000000000000PES00010000001000000000000000000000000000000000000000000                              000000000000000
201512030010000300000000000000000270                8000000000020222552134GUSTAVO-A-GARCIA              000000000450000000000000000000000000000000000000000000000000000000000000000000000000000000000000000000000000000000000000PES00010000001000000000000000000000000000000000000000000                              000000000000000
201512030010000400000000000000125483                8000000000030708926155TRANSPORTES-UNION-SA          000000000222869000000000000000000000000000000000000000000000000000000000000000000000000000000000000000000000000000000000PES00010000001000000000000000000000000000000000000000000                              000000000000000
201512030010000500000000000000002228                8000000000030707309659ALMAZEN-IMPORT-SRL            000000001410437000000000000000000000000000000000000000000000000000000000000000000000000000000000000000000000000000000000PES00010000001000000000000000000000000000000000000000000                              000000000000000
201512040010000300000000000000000166                8000000000023161812129GRUPO-ARTE-URBANO             000000000126218000000000000000000000000000000000000000000000000000000000000000000000000000000000000000000000000000000000PES00010000001000000000000000000000000000000000000000000                              000000000000000
201512050010000300000000000000000143                8000000000030708525436JAVIER-R-BRAIDOT-Y-WALTER-G-  000000003168349000000000000000000000000000000000000000000000000000000000000000000000000000000000000000000000000000000000PES00010000001000000000000000000000000000000000000000000                              000000000000000
201512090010000300000000000000002839                8000000000030711190895AUSTRAL-ALARMAS-SRL           000000000030250000000000000000000000000000000000000000000000000000000000000000000000000000000000000000000000000000000000PES00010000001000000000000000000000000000000000000000000                              000000000000000
201512090010000300000000000000035540                8000000000030708273453MISHKA-SA                     000000000347330000000000000000000000000000000000000000000000000000000000000000000000000000000000000000000000000000000000PES00010000001000000000000000000000000000000000000000000                              000000000000000
201512110010000100000000000000000014                8000000000030714670618CONDOMINIO-DE-BERSAIS-CESAR-L 000000002662000000000000000000000000000000000000000000000000000000000000000000000000000000000000000000000000000000000000PES00010000001000000000000000000000000000000000000000000                              000000000000000
201512110010000400000000000008118732                8000000000030657864427CAMUZZI-GAS-DEL-SUR           000000000010905000000000000000000000000000000000000000000000000000000000000000000000000000000000000000000000000000000000PES00010000001000000000000000000000000000000000000000000                              000000000000000
201512110010000100000000000020151113                8000000000030639453975TELEFONICA-DE-ARG-SA          000000000087878000000000000000000000000000000000000000000000000000000000000000000000000000000000000000000000000000000000PES00010000001000000000000000000000000000000000000000000                              000000000000000
201512140010000100000000000000009482                8000000000030709545325GRUPO-MARINHO-SRL             000000001128035000000000000000000000000000000000000000000000000000000000000000000000000000000000000000000000000000000000PES00010000001000000000000000000000000000000000000000000                              000000000000000
201512150010002400000000000000001397                8000000000030670288613DISTRIBUIDORA-LOA-SA          000000000079522000000000000000000000000000000000000000000000000000000000000000000000000000000000000000000000000000000000PES00010000001000000000000000000000000000000000000000000                              000000000000000
201512150010002100000000000000008553                8000000000030707454640EL-ESTANCO-SA                 000000000036900000000000000000000000000000000000000000000000000000000000000000000000000000000000000000000000000000000000PES00010000001000000000000000000000000000000000000000000                              000000000000000
201512170010000100000000000000002246                8000000000023247772669JORGE-PAULOS-ANTUNES          000000000124799000000000000000000000000000000000000000000000000000000000000000000000000000000000000000000000000000000000PES00010000001000000000000000000000000000000000000000000                              000000000000000
201512170010000400000000000000126101                8000000000030708926155TRANSPORTES-UNION-SA          000000000795364000000000000000000000000000000000000000000000000000000000000000000000000000000000000000000000000000000000PES00010000001000000000000000000000000000000000000000000                              000000000000000
201512170010000400000000000000000735                8000000000020126715111ALEJANDRO-LUIS-BUSTOS         000000000034410000000000000000000000000000000000000000000000000000000000000000000000000000000000000000000000000000000000PES00010000001000000000000000000000000000000000000000000                              000000000000000
201512170010000400000000000000000734                8000000000020126715111ALEJANDRO-LUIS-BUSTOS         000000000014520000000000000000000000000000000000000000000000000000000000000000000000000000000000000000000000000000000000PES00010000001000000000000000000000000000000000000000000                              000000000000000
201512190010000600000000000000000535                8000000000020165247389SUAREZ-MAURO-PAUL             000000000196001000000000000000000000000000000000000000000000000000000000000000000000000000000000000000000000000000000000PES00010000001000000000000000000000000000000000000000000                              000000000000000
201512190010001300000000000000000091                8000000000030714370223ZURY-SRL                      000000000592029000000000000000000000000000000000000000000000000000000000000000000000000000000000000000000000000000000000PES00010000001000000000000000000000000000000000000000000                              000000000000000
201512210010250600000000000000003937                8000000000030506730038SA-IMPORT-Y-EXPORT-DE-LA-PATAG000000000029205000000000000000000000000000000000000000000000000000000000000000000000000000000000000000000000000000000000PES00010000001000000000000000000000000000000000000000000                              000000000000000
201512210010000500000000000000009211                8000000000030711778302MDK-SRL                       000000001603976000000000000000000000000000000000000000000000000000000000000000000000000000000000000000000000000000000000PES00010000001000000000000000000000000000000000000000000                              000000000000000
201512230010002400000000000000001515                8000000000030670288613DISTRIBUIDORA-LOA-SA          000000000038906000000000000000000000000000000000000000000000000000000000000000000000000000000000000000000000000000000000PES00010000001000000000000000000000000000000000000000000                              000000000000000
201512300010023700000000000000011074                8000000000033504487119EL-TEHUELCHE-SACICI           000000000094251000000000000000000000000000000000000000000000000000000000000000000000000000000000000000000000000000000000PES00010000001000000000000000000000000000000000000000000                              000000000000000
