201511050010000300000000000000000745                8000000000020110064668NESTOR-JUAN-WILLUBER          000000000055600000000000000000000000000000000000000000000000000000000000000000000000000000000000000000000000000000000000PES00010000001000000000000000000000000000000000000000000                              000000000000000
201511050010000400000000000000001271                8000000000030701154556EUROTREE-SRL                  000000001878658000000000000000000000000000000000000000000000000000000000000000000000000000000000000000000000000000000000PES00010000001000000000000000000000000000000000000000000                              000000000000000
201511050010000300000000000000002260                8000000000030697774641SYLCON-SRL                    000000000857406000000000000000000000000000000000000000000000000000000000000000000000000000000000000000000000000000000000PES00010000001000000000000000000000000000000000000000000                              000000000000000
201511050010000100000000000000016847                8000000000030662217979GIANFRANCO-CONTRUCCI-SRL      000000000592029000000000000000000000000000000000000000000000000000000000000000000000000000000000000000000000000000000000PES00010000001000000000000000000000000000000000000000000                              000000000000000
201511090010000400000000000000000206                8000000000030708268468ZAIRE-REGALOS-SRL             000000001598677000000000000000000000000000000000000000000000000000000000000000000000000000000000000000000000000000000000PES00010000001000000000000000000000000000000000000000000                              000000000000000
201511100010000300000000000000002759                8000000000030711190895AUSTRAL-ALARMAS-SRL           000000000030250000000000000000000000000000000000000000000000000000000000000000000000000000000000000000000000000000000000PES00010000001000000000000000000000000000000000000000000                              000000000000000
201511100010000200000000000000063490                8000000000030707986324VELAS-DE-LOS-MILAGROS-SRL     000000000414459000000000000000000000000000000000000000000000000000000000000000000000000000000000000000000000000000000000PES00010000001000000000000000000000000000000000000000000                              000000000000000
201511110010000300000000000000006442                8000000000030710941854RUMAH-JAVA-SRL                000000000612260000000000000000000000000000000000000000000000000000000000000000000000000000000000000000000000000000000000PES00010000001000000000000000000000000000000000000000000                              000000000000000
201511120010000100000000000000000013                8000000000030714670618CONDOMINIO-DE-BERSAIS-CESAR-L 000000002662000000000000000000000000000000000000000000000000000000000000000000000000000000000000000000000000000000000000PES00010000001000000000000000000000000000000000000000000                              000000000000000
201511120010000100000000000020151013                8000000000030639453975TELEFONICA-DE-ARG-SA          000000000074870000000000000000000000000000000000000000000000000000000000000000000000000000000000000000000000000000000000PES00010000001000000000000000000000000000000000000000000                              000000000000000
201511120010000300000000000000000256                8000000000020222552134GUSTAVO-A-GARCIA              000000000450000000000000000000000000000000000000000000000000000000000000000000000000000000000000000000000000000000000000PES00010000001000000000000000000000000000000000000000000                              000000000000000
201511120010000800000000000000075948                8000000000030545726722SOCIEDAD-COOP-POPULAR-LIM-DE  000000000244668000000000000000000000000000000000000000000000000000000000000000000000000000000000000000000000000000000000PES00010000001000000000000000000000000000000000000000000                              000000000000000
201511130010001700000000000000019806                8000000000030670288613DISTRIBUIDORA-LOA-SA          000000000097832000000000000000000000000000000000000000000000000000000000000000000000000000000000000000000000000000000000PES00010000001000000000000000000000000000000000000000000                              000000000000000
201511160010000100000000000000002210                8000000000023247772669JORGE-PAULOS-ANTUNES          000000000056998000000000000000000000000000000000000000000000000000000000000000000000000000000000000000000000000000000000PES00010000001000000000000000000000000000000000000000000                              000000000000000
201511160010000400000000000000125300                8000000000030708926155TRANSPORTES-UNION-SA          000000000924568000000000000000000000000000000000000000000000000000000000000000000000000000000000000000000000000000000000PES00010000001000000000000000000000000000000000000000000                              000000000000000
201511160010000500000000000000002194                8000000000030711720975TOREANDCO-SRL                 000000000296087000000000000000000000000000000000000000000000000000000000000000000000000000000000000000000000000000000000PES00010000001000000000000000000000000000000000000000000                              000000000000000
201511230010000100000000000000002217                8000000000023247772669JORGE-PAULOS-ANTUNES          000000000108001000000000000000000000000000000000000000000000000000000000000000000000000000000000000000000000000000000000PES00010000001000000000000000000000000000000000000000000                              000000000000000
201511260010001100000000000000001889                8000000000030670288613DISTRIBUIDORA-LOA-SA          000000000036731000000000000000000000000000000000000000000000000000000000000000000000000000000000000000000000000000000000PES00010000001000000000000000000000000000000000000000000                              000000000000000
201511260010000300000000000000035195                8000000000030708273453MISHKA-SA                     000000001004736000000000000000000000000000000000000000000000000000000000000000000000000000000000000000000000000000000000PES00010000001000000000000000000000000000000000000000000                              000000000000000
