12013010206*000100000000000000006883000000000000000068839900000000000FINAL CONSUMIDOR FINAL        0000000000424980000000000351220000000000351222100000000000007376              *000000000000000***************************************************************************1**********************************************************************************************************00000000000000000000000
12013010206*000100000000000000006884000000000000000068849900000000000FINAL CONSUMIDOR FINAL        0000000000345000000000000285120000000000285122100000000000005988              *000000000000000***************************************************************************1**********************************************************************************************************00000000000000000000000
12013010206*000100000000000000006885000000000000000068859900000000000FINAL CONSUMIDOR FINAL        0000000000283960000000000234680000000000234682100000000000004928              *000000000000000***************************************************************************1**********************************************************************************************************00000000000000000000000
12013010206*000100000000000000006886000000000000000068869900000000000FINAL CONSUMIDOR FINAL        0000000000700000000000000578510000000000578512100000000000012149              *000000000000000***************************************************************************1**********************************************************************************************************00000000000000000000000
12013010206*000100000000000000006887000000000000000068879900000000000FINAL CONSUMIDOR FINAL        0000000000413000000000000341320000000000341322100000000000007168              *000000000000000***************************************************************************1**********************************************************************************************************00000000000000000000000
12013010206*000100000000000000006888000000000000000068889900000000000FINAL CONSUMIDOR FINAL        0000000000310000000000000256200000000000256202100000000000005380              *000000000000000***************************************************************************1**********************************************************************************************************00000000000000000000000
12013010206*000100000000000000006889000000000000000068899900000000000FINAL CONSUMIDOR FINAL        0000000000236000000000000195040000000000195042100000000000004096              *000000000000000***************************************************************************1**********************************************************************************************************00000000000000000000000
12013010206*000100000000000000006890000000000000000068909900000000000FINAL CONSUMIDOR FINAL        0000000000380000000000000314050000000000314052100000000000006595              *000000000000000***************************************************************************1**********************************************************************************************************00000000000000000000000
12013010206*000100000000000000006891000000000000000068919900000000000FINAL CONSUMIDOR FINAL        0000000000178000000000000147110000000000147112100000000000003089              *000000000000000***************************************************************************1**********************************************************************************************************00000000000000000000000
12013010206*000100000000000000006892000000000000000068929900000000000FINAL CONSUMIDOR FINAL        0000000000281000000000000232230000000000232232100000000000004877              *000000000000000***************************************************************************1**********************************************************************************************************00000000000000000000000
12013010206*000100000000000000006893000000000000000068939900000000000FINAL CONSUMIDOR FINAL        0000000000050000000000000041320000000000041322100000000000000868              *000000000000000***************************************************************************1**********************************************************************************************************00000000000000000000000
12013010206*000100000000000000006894000000000000000068949900000000000FINAL CONSUMIDOR FINAL        0000000000165000000000000136360000000000136362100000000000002864              *000000000000000***************************************************************************1**********************************************************************************************************00000000000000000000000
12013010206*000100000000000000006895000000000000000068959900000000000FINAL CONSUMIDOR FINAL        0000000000213000000000000176030000000000176032100000000000003697              *000000000000000***************************************************************************1**********************************************************************************************************00000000000000000000000
12013010306*000100000000000000006896000000000000000068969900000000000FINAL CONSUMIDOR FINAL        0000000000085000000000000070250000000000070252100000000000001475              *000000000000000***************************************************************************1**********************************************************************************************************00000000000000000000000
12013010306*000100000000000000006897000000000000000068979900000000000FINAL CONSUMIDOR FINAL        0000000000362030000000000299200000000000299202100000000000006283              *000000000000000***************************************************************************1**********************************************************************************************************00000000000000000000000
12013010306*000100000000000000006898000000000000000068989900000000000FINAL CONSUMIDOR FINAL        0000000000642000000000000530580000000000530582100000000000011142              *000000000000000***************************************************************************1**********************************************************************************************************00000000000000000000000
12013010306*000100000000000000006899000000000000000068999900000000000FINAL CONSUMIDOR FINAL        0000000000403000000000000333060000000000333062100000000000006994              *000000000000000***************************************************************************1**********************************************************************************************************00000000000000000000000
12013010306*000100000000000000006900000000000000000069009900000000000FINAL CONSUMIDOR FINAL        0000000000390000000000000322310000000000322312100000000000006769              *000000000000000***************************************************************************1**********************************************************************************************************00000000000000000000000
12013010306*000100000000000000006901000000000000000069019900000000000FINAL CONSUMIDOR FINAL        0000000000346990000000000286770000000000286772100000000000006022              *000000000000000***************************************************************************1**********************************************************************************************************00000000000000000000000
12013010306*000100000000000000006902000000000000000069029900000000000FINAL CONSUMIDOR FINAL        0000000000690000000000000570250000000000570252100000000000011975              *000000000000000***************************************************************************1**********************************************************************************************************00000000000000000000000
12013010306*000100000000000000006903000000000000000069039900000000000FINAL CONSUMIDOR FINAL        0000000000145010000000000119840000000000119842100000000000002517              *000000000000000***************************************************************************1**********************************************************************************************************00000000000000000000000
12013010306*000100000000000000006904000000000000000069049900000000000FINAL CONSUMIDOR FINAL        0000000000299000000000000247110000000000247112100000000000005189              *000000000000000***************************************************************************1**********************************************************************************************************00000000000000000000000
12013010306*000100000000000000006905000000000000000069059900000000000FINAL CONSUMIDOR FINAL        0000000000644990000000000533050000000000533052100000000000011194              *000000000000000***************************************************************************1**********************************************************************************************************00000000000000000000000
12013010306*000100000000000000006906000000000000000069069900000000000FINAL CONSUMIDOR FINAL        0000000000259990000000000214870000000000214872100000000000004512              *000000000000000***************************************************************************1**********************************************************************************************************00000000000000000000000
12013010306*000100000000000000006907000000000000000069079900000000000FINAL CONSUMIDOR FINAL        0000000000075000000000000061980000000000061982100000000000001302              *000000000000000***************************************************************************1**********************************************************************************************************00000000000000000000000
12013010306*000100000000000000006908000000000000000069089900000000000FINAL CONSUMIDOR FINAL        0000000000208970000000000172700000000000172702100000000000003627              *000000000000000***************************************************************************1**********************************************************************************************************00000000000000000000000
12013010306*000100000000000000006909000000000000000069099900000000000FINAL CONSUMIDOR FINAL        0000000000276030000000000228120000000000228122100000000000004791              *000000000000000***************************************************************************1**********************************************************************************************************00000000000000000000000
12013010306*000100000000000000006910000000000000000069109900000000000FINAL CONSUMIDOR FINAL        0000000000398010000000000328930000000000328932100000000000006908              *000000000000000***************************************************************************1**********************************************************************************************************00000000000000000000000
12013010406*000100000000000000006911000000000000000069119900000000000FINAL CONSUMIDOR FINAL        0000000000275980000000000228080000000000228082100000000000004790              *000000000000000***************************************************************************1**********************************************************************************************************00000000000000000000000
12013010406*000100000000000000006912000000000000000069129900000000000FINAL CONSUMIDOR FINAL        0000000000089000000000000073550000000000073552100000000000001545              *000000000000000***************************************************************************1**********************************************************************************************************00000000000000000000000
12013010406*000100000000000000006913000000000000000069139900000000000FINAL CONSUMIDOR FINAL        0000000000505010000000000417360000000000417362100000000000008765              *000000000000000***************************************************************************1**********************************************************************************************************00000000000000000000000
12013010406*000100000000000000006914000000000000000069149900000000000FINAL CONSUMIDOR FINAL        0000000000130990000000000108260000000000108262100000000000002273              *000000000000000***************************************************************************1**********************************************************************************************************00000000000000000000000
12013010406*000100000000000000006915000000000000000069159900000000000FINAL CONSUMIDOR FINAL        0000000000103000000000000085120000000000085122100000000000001788              *000000000000000***************************************************************************1**********************************************************************************************************00000000000000000000000
12013010406*000100000000000000006916000000000000000069169900000000000FINAL CONSUMIDOR FINAL        0000000000380990000000000314870000000000314872100000000000006612              *000000000000000***************************************************************************1**********************************************************************************************************00000000000000000000000
12013010406*000100000000000000006917000000000000000069179900000000000FINAL CONSUMIDOR FINAL        0000000000135000000000000111570000000000111572100000000000002343              *000000000000000***************************************************************************1**********************************************************************************************************00000000000000000000000
12013010406*000100000000000000006918000000000000000069189900000000000FINAL CONSUMIDOR FINAL        0000000000083990000000000069410000000000069412100000000000001458              *000000000000000***************************************************************************1**********************************************************************************************************00000000000000000000000
12013010406*000100000000000000006919000000000000000069199900000000000FINAL CONSUMIDOR FINAL        0000000000080010000000000066120000000000066122100000000000001389              *000000000000000***************************************************************************1**********************************************************************************************************00000000000000000000000
12013010406*000100000000000000006920000000000000000069209900000000000FINAL CONSUMIDOR FINAL        0000000000199990000000000165280000000000165282100000000000003471              *000000000000000***************************************************************************1**********************************************************************************************************00000000000000000000000
12013010406*000100000000000000006921000000000000000069219900000000000FINAL CONSUMIDOR FINAL        0000000000141990000000000117350000000000117352100000000000002464              *000000000000000***************************************************************************1**********************************************************************************************************00000000000000000000000
12013010406*000100000000000000006922000000000000000069229900000000000FINAL CONSUMIDOR FINAL        0000000000176010000000000145460000000000145462100000000000003055              *000000000000000***************************************************************************1**********************************************************************************************************00000000000000000000000
12013010406*000100000000000000006923000000000000000069239900000000000FINAL CONSUMIDOR FINAL        0000000000072000000000000059500000000000059502100000000000001250              *000000000000000***************************************************************************1**********************************************************************************************************00000000000000000000000
12013010406*000100000000000000006924000000000000000069249900000000000FINAL CONSUMIDOR FINAL        0000000000090000000000000074380000000000074382100000000000001562              *000000000000000***************************************************************************1**********************************************************************************************************00000000000000000000000
12013010406*000100000000000000006925000000000000000069259900000000000FINAL CONSUMIDOR FINAL        0000000000372980000000000308250000000000308252100000000000006473              *000000000000000***************************************************************************1**********************************************************************************************************00000000000000000000000
12013010506*000100000000000000006926000000000000000069269900000000000FINAL CONSUMIDOR FINAL        0000000000320010000000000264470000000000264472100000000000005554              *000000000000000***************************************************************************1**********************************************************************************************************00000000000000000000000
12013010506*000100000000000000006926000000000000000069269900000000000FINAL CONSUMIDOR FINAL        0000000000130000000000000107440000000000107442100000000000002256              *000000000000000***************************************************************************1**********************************************************************************************************00000000000000000000000
12013010506*000100000000000000006928000000000000000069289900000000000FINAL CONSUMIDOR FINAL        0000000000750010000000000619840000000000619842100000000000013017              *000000000000000***************************************************************************1**********************************************************************************************************00000000000000000000000
12013010506*000100000000000000006929000000000000000069299900000000000FINAL CONSUMIDOR FINAL        0000000000047000000000000038840000000000038842100000000000000816              *000000000000000***************************************************************************1**********************************************************************************************************00000000000000000000000
12013010506*000100000000000000006930000000000000000069309900000000000FINAL CONSUMIDOR FINAL        0000000000087000000000000071900000000000071902100000000000001510              *000000000000000***************************************************************************1**********************************************************************************************************00000000000000000000000
12013010506*000100000000000000006931000000000000000069319900000000000FINAL CONSUMIDOR FINAL        0000000000052010000000000042980000000000042982100000000000000903              *000000000000000***************************************************************************1**********************************************************************************************************00000000000000000000000
12013010506*000100000000000000006932000000000000000069329900000000000FINAL CONSUMIDOR FINAL        0000000000155000000000000128100000000000128102100000000000002690              *000000000000000***************************************************************************1**********************************************************************************************************00000000000000000000000
12013010506*000100000000000000006933000000000000000069339900000000000FINAL CONSUMIDOR FINAL        0000000000905010000000000747940000000000747942100000000000015707              *000000000000000***************************************************************************1**********************************************************************************************************00000000000000000000000
12013010506*000100000000000000006934000000000000000069349900000000000FINAL CONSUMIDOR FINAL        0000000000105000000000000086780000000000086782100000000000001822              *000000000000000***************************************************************************1**********************************************************************************************************00000000000000000000000
12013010506*000100000000000000006935000000000000000069359900000000000FINAL CONSUMIDOR FINAL        0000000000388000000000000320660000000000320662100000000000006734              *000000000000000***************************************************************************1**********************************************************************************************************00000000000000000000000
12013010506*000100000000000000006936000000000000000069369900000000000FINAL CONSUMIDOR FINAL        0000000000095000000000000078510000000000078512100000000000001649              *000000000000000***************************************************************************1**********************************************************************************************************00000000000000000000000
12013010506*000100000000000000006937000000000000000069379900000000000FINAL CONSUMIDOR FINAL        0000000000575960000000000476000000000000476002100000000000009996              *000000000000000***************************************************************************1**********************************************************************************************************00000000000000000000000
12013010506*000100000000000000006938000000000000000069389900000000000FINAL CONSUMIDOR FINAL        0000000000054000000000000044630000000000044632100000000000000937              *000000000000000***************************************************************************1**********************************************************************************************************00000000000000000000000
12013010506*000100000000000000006939000000000000000069399900000000000FINAL CONSUMIDOR FINAL        0000000000219990000000000181810000000000181812100000000000003818              *000000000000000***************************************************************************1**********************************************************************************************************00000000000000000000000
12013010506*000100000000000000006940000000000000000069409900000000000FINAL CONSUMIDOR FINAL        0000000000211980000000000175190000000000175192100000000000003679              *000000000000000***************************************************************************1**********************************************************************************************************00000000000000000000000
12013010506*000100000000000000006941000000000000000069419900000000000FINAL CONSUMIDOR FINAL        0000000001253920000000001036300000000001036302100000000000021762              *000000000000000***************************************************************************1**********************************************************************************************************00000000000000000000000
12013010506*000100000000000000006942000000000000000069429900000000000FINAL CONSUMIDOR FINAL        0000000000264000000000000218180000000000218182100000000000004582              *000000000000000***************************************************************************1**********************************************************************************************************00000000000000000000000
12013010506*000100000000000000006943000000000000000069439900000000000FINAL CONSUMIDOR FINAL        0000000000092000000000000076030000000000076032100000000000001597              *000000000000000***************************************************************************1**********************************************************************************************************00000000000000000000000
12013010506*000100000000000000006944000000000000000069449900000000000FINAL CONSUMIDOR FINAL        0000000000230000000000000190080000000000190082100000000000003992              *000000000000000***************************************************************************1**********************************************************************************************************00000000000000000000000
12013010506*000100000000000000006945000000000000000069459900000000000FINAL CONSUMIDOR FINAL        0000000000265000000000000219010000000000219012100000000000004599              *000000000000000***************************************************************************1**********************************************************************************************************00000000000000000000000
12013010506*000100000000000000006946000000000000000069469900000000000FINAL CONSUMIDOR FINAL        0000000000060000000000000049590000000000049592100000000000001041              *000000000000000***************************************************************************1**********************************************************************************************************00000000000000000000000
12013010506*000100000000000000006947000000000000000069479900000000000FINAL CONSUMIDOR FINAL        0000000000393010000000000324800000000000324802100000000000006821              *000000000000000***************************************************************************1**********************************************************************************************************00000000000000000000000
12013010506*000100000000000000006948000000000000000069489900000000000FINAL CONSUMIDOR FINAL        0000000000446040000000000368630000000000368632100000000000007741              *000000000000000***************************************************************************1**********************************************************************************************************00000000000000000000000
12013010506*000100000000000000006949000000000000000069499900000000000FINAL CONSUMIDOR FINAL        0000000001610000000000001330580000000001330582100000000000027942              *000000000000000***************************************************************************1**********************************************************************************************************00000000000000000000000
12013010506*000100000000000000006950000000000000000069509900000000000FINAL CONSUMIDOR FINAL        0000000000050000000000000041320000000000041322100000000000000868              *000000000000000***************************************************************************1**********************************************************************************************************00000000000000000000000
12013010506*000100000000000000006950000000000000000069509900000000000FINAL CONSUMIDOR FINAL        0000000000242000000000000200000000000000200002100000000000004200              *000000000000000***************************************************************************1**********************************************************************************************************00000000000000000000000
12013010506*000100000000000000006952000000000000000069529900000000000FINAL CONSUMIDOR FINAL        0000000000532010000000000439680000000000439682100000000000009233              *000000000000000***************************************************************************1**********************************************************************************************************00000000000000000000000
12013010501*000100000000000000000249000000000000000002498030710396899 ESCAPES NICO SRL             0000000000308010000000000254550000000000254552100000000000005346              *000000000000000***************************************************************************1**********************************************************************************************************00000000000000000000000
12013010506*000100000000000000006953000000000000000069539900000000000FINAL CONSUMIDOR FINAL        0000000000300000000000000247930000000000247932100000000000005207              *000000000000000***************************************************************************1**********************************************************************************************************00000000000000000000000
12013010506*000100000000000000006954000000000000000069549900000000000FINAL CONSUMIDOR FINAL        0000000000439000000000000362810000000000362812100000000000007619              *000000000000000***************************************************************************1**********************************************************************************************************00000000000000000000000
12013010506*000100000000000000006955000000000000000069559900000000000FINAL CONSUMIDOR FINAL        0000000000156010000000000128930000000000128932100000000000002708              *000000000000000***************************************************************************1**********************************************************************************************************00000000000000000000000
12013010506*000100000000000000006956000000000000000069569900000000000FINAL CONSUMIDOR FINAL        0000000000610990000000000504950000000000504952100000000000010604              *000000000000000***************************************************************************1**********************************************************************************************************00000000000000000000000
12013010506*000100000000000000006957000000000000000069579900000000000FINAL CONSUMIDOR FINAL        0000000000315000000000000260330000000000260332100000000000005467              *000000000000000***************************************************************************1**********************************************************************************************************00000000000000000000000
12013010506*000100000000000000006958000000000000000069589900000000000FINAL CONSUMIDOR FINAL        0000000000096000000000000079340000000000079342100000000000001666              *000000000000000***************************************************************************1**********************************************************************************************************00000000000000000000000
12013010506*000100000000000000006959000000000000000069599900000000000FINAL CONSUMIDOR FINAL        0000000000059990000000000049580000000000049582100000000000001041              *000000000000000***************************************************************************1**********************************************************************************************************00000000000000000000000
12013010506*000100000000000000006960000000000000000069609900000000000FINAL CONSUMIDOR FINAL        0000000000330000000000000272730000000000272732100000000000005727              *000000000000000***************************************************************************1**********************************************************************************************************00000000000000000000000
12013010706*000100000000000000006961000000000000000069619900000000000FINAL CONSUMIDOR FINAL        0000000000695000000000000574380000000000574382100000000000012062              *000000000000000***************************************************************************1**********************************************************************************************************00000000000000000000000
12013010706*000100000000000000006962000000000000000069629900000000000FINAL CONSUMIDOR FINAL        0000000000090020000000000074400000000000074402100000000000001562              *000000000000000***************************************************************************1**********************************************************************************************************00000000000000000000000
12013010706*000100000000000000006963000000000000000069639900000000000FINAL CONSUMIDOR FINAL        0000000000200000000000000165290000000000165292100000000000003471              *000000000000000***************************************************************************1**********************************************************************************************************00000000000000000000000
12013010706*000100000000000000006964000000000000000069649900000000000FINAL CONSUMIDOR FINAL        0000000000180000000000000148760000000000148762100000000000003124              *000000000000000***************************************************************************1**********************************************************************************************************00000000000000000000000
12013010701*000100000000000000000250000000000000000002508030708436344eprotec srl                   0000000000424020000000000350430000000000350432100000000000007359              *000000000000000***************************************************************************1**********************************************************************************************************00000000000000000000000
12013010706*000100000000000000006965000000000000000069659900000000000FINAL CONSUMIDOR FINAL        0000000000242980000000000200810000000000200812100000000000004217              *000000000000000***************************************************************************1**********************************************************************************************************00000000000000000000000
12013010706*000100000000000000006966000000000000000069669900000000000FINAL CONSUMIDOR FINAL        0000000000323990000000000267760000000000267762100000000000005623              *000000000000000***************************************************************************1**********************************************************************************************************00000000000000000000000
12013010706*000100000000000000006967000000000000000069679900000000000FINAL CONSUMIDOR FINAL        0000000000050000000000000041320000000000041322100000000000000868              *000000000000000***************************************************************************1**********************************************************************************************************00000000000000000000000
12013010706*000100000000000000006968000000000000000069689900000000000FINAL CONSUMIDOR FINAL        0000000000365000000000000301650000000000301652100000000000006335              *000000000000000***************************************************************************1**********************************************************************************************************00000000000000000000000
12013010706*000100000000000000006969000000000000000069699900000000000FINAL CONSUMIDOR FINAL        0000000000160010000000000132240000000000132242100000000000002777              *000000000000000***************************************************************************1**********************************************************************************************************00000000000000000000000
12013010706*000100000000000000006970000000000000000069709900000000000FINAL CONSUMIDOR FINAL        0000000000303010000000000250420000000000250422100000000000005259              *000000000000000***************************************************************************1**********************************************************************************************************00000000000000000000000
12013010806*000100000000000000006971000000000000000069719900000000000FINAL CONSUMIDOR FINAL        0000000000315000000000000260330000000000260332100000000000005467              *000000000000000***************************************************************************1**********************************************************************************************************00000000000000000000000
12013010806*000100000000000000006972000000000000000069729900000000000FINAL CONSUMIDOR FINAL        0000000000365030000000000301680000000000301682100000000000006335              *000000000000000***************************************************************************1**********************************************************************************************************00000000000000000000000
12013010806*000100000000000000006973000000000000000069739900000000000FINAL CONSUMIDOR FINAL        0000000000105020000000000086790000000000086792100000000000001823              *000000000000000***************************************************************************1**********************************************************************************************************00000000000000000000000
12013010806*000100000000000000006974000000000000000069749900000000000FINAL CONSUMIDOR FINAL        0000000000098000000000000080990000000000080992100000000000001701              *000000000000000***************************************************************************1**********************************************************************************************************00000000000000000000000
12013010806*000100000000000000006975000000000000000069759900000000000FINAL CONSUMIDOR FINAL        0000000000151000000000000124790000000000124792100000000000002621              *000000000000000***************************************************************************1**********************************************************************************************************00000000000000000000000
12013010806*000100000000000000006976000000000000000069769900000000000FINAL CONSUMIDOR FINAL        0000000000263010000000000217360000000000217362100000000000004565              *000000000000000***************************************************************************1**********************************************************************************************************00000000000000000000000
12013010806*000100000000000000006977000000000000000069779900000000000FINAL CONSUMIDOR FINAL        0000000000175000000000000144630000000000144632100000000000003037              *000000000000000***************************************************************************1**********************************************************************************************************00000000000000000000000
12013010806*000100000000000000006978000000000000000069789900000000000FINAL CONSUMIDOR FINAL        0000000000304000000000000251240000000000251242100000000000005276              *000000000000000***************************************************************************1**********************************************************************************************************00000000000000000000000
12013010806*000100000000000000006979000000000000000069799900000000000FINAL CONSUMIDOR FINAL        0000000000075000000000000061980000000000061982100000000000001302              *000000000000000***************************************************************************1**********************************************************************************************************00000000000000000000000
12013010806*000100000000000000006980000000000000000069809900000000000FINAL CONSUMIDOR FINAL        0000000000119000000000000098350000000000098352100000000000002065              *000000000000000***************************************************************************1**********************************************************************************************************00000000000000000000000
12013010806*000100000000000000006981000000000000000069819900000000000FINAL CONSUMIDOR FINAL        0000000000060000000000000049590000000000049592100000000000001041              *000000000000000***************************************************************************1**********************************************************************************************************00000000000000000000000
12013010806*000100000000000000006982000000000000000069829900000000000FINAL CONSUMIDOR FINAL        0000000000243000000000000200830000000000200832100000000000004217              *000000000000000***************************************************************************1**********************************************************************************************************00000000000000000000000
12013010801*000100000000000000000251000000000000000002518027101466189 arroyo mirta                 0000000000078000000000000064460000000000064462100000000000001354              *000000000000000***************************************************************************1**********************************************************************************************************00000000000000000000000
12013010806*000100000000000000006983000000000000000069839900000000000FINAL CONSUMIDOR FINAL        0000000000787000000000000650410000000000650412100000000000013659              *000000000000000***************************************************************************1**********************************************************************************************************00000000000000000000000
12013010806*000100000000000000006984000000000000000069849900000000000FINAL CONSUMIDOR FINAL        0000000000360990000000000298340000000000298342100000000000006265              *000000000000000***************************************************************************1**********************************************************************************************************00000000000000000000000
12013010806*000100000000000000006985000000000000000069859900000000000FINAL CONSUMIDOR FINAL        0000000000285000000000000235540000000000235542100000000000004946              *000000000000000***************************************************************************1**********************************************************************************************************00000000000000000000000
12013010906*000100000000000000006986000000000000000069869900000000000FINAL CONSUMIDOR FINAL        0000000000334000000000000276030000000000276032100000000000005797              *000000000000000***************************************************************************1**********************************************************************************************************00000000000000000000000
12013010906*000100000000000000006987000000000000000069879900000000000FINAL CONSUMIDOR FINAL        0000000000096000000000000079340000000000079342100000000000001666              *000000000000000***************************************************************************1**********************************************************************************************************00000000000000000000000
12013010906*000100000000000000006988000000000000000069889900000000000FINAL CONSUMIDOR FINAL        0000000000364000000000000300830000000000300832100000000000006317              *000000000000000***************************************************************************1**********************************************************************************************************00000000000000000000000
12013010906*000100000000000000006989000000000000000069899900000000000FINAL CONSUMIDOR FINAL        0000000000720000000000000595040000000000595042100000000000012496              *000000000000000***************************************************************************1**********************************************************************************************************00000000000000000000000
12013010906*000100000000000000006990000000000000000069909900000000000FINAL CONSUMIDOR FINAL        0000000000562000000000000464460000000000464462100000000000009754              *000000000000000***************************************************************************1**********************************************************************************************************00000000000000000000000
12013010906*000100000000000000006991000000000000000069919900000000000FINAL CONSUMIDOR FINAL        0000000000193010000000000159510000000000159512100000000000003350              *000000000000000***************************************************************************1**********************************************************************************************************00000000000000000000000
12013010906*000100000000000000006992000000000000000069929900000000000FINAL CONSUMIDOR FINAL        0000000000241990000000000199990000000000199992100000000000004200              *000000000000000***************************************************************************1**********************************************************************************************************00000000000000000000000
12013010906*000100000000000000006993000000000000000069939900000000000FINAL CONSUMIDOR FINAL        0000000000152990000000000126440000000000126442100000000000002655              *000000000000000***************************************************************************1**********************************************************************************************************00000000000000000000000
12013010906*000100000000000000006994000000000000000069949900000000000FINAL CONSUMIDOR FINAL        0000000000191000000000000157850000000000157852100000000000003315              *000000000000000***************************************************************************1**********************************************************************************************************00000000000000000000000
12013010906*000100000000000000006995000000000000000069959900000000000FINAL CONSUMIDOR FINAL        0000000000219990000000000181810000000000181812100000000000003818              *000000000000000***************************************************************************1**********************************************************************************************************00000000000000000000000
12013010906*000100000000000000006996000000000000000069969900000000000FINAL CONSUMIDOR FINAL        0000000000194990000000000161150000000000161152100000000000003384              *000000000000000***************************************************************************1**********************************************************************************************************00000000000000000000000
12013011006*000100000000000000006997000000000000000069979900000000000FINAL CONSUMIDOR FINAL        0000000000355000000000000293390000000000293392100000000000006161              *000000000000000***************************************************************************1**********************************************************************************************************00000000000000000000000
12013011006*000100000000000000006998000000000000000069989900000000000FINAL CONSUMIDOR FINAL        0000000000025000000000000020660000000000020662100000000000000434              *000000000000000***************************************************************************1**********************************************************************************************************00000000000000000000000
12013011006*000100000000000000006999000000000000000069999900000000000FINAL CONSUMIDOR FINAL        0000000000137010000000000113230000000000113232100000000000002378              *000000000000000***************************************************************************1**********************************************************************************************************00000000000000000000000
12013011006*000100000000000000007000000000000000000070009900000000000FINAL CONSUMIDOR FINAL        0000000000240000000000000198350000000000198352100000000000004165              *000000000000000***************************************************************************1**********************************************************************************************************00000000000000000000000
12013011006*000100000000000000007001000000000000000070019900000000000FINAL CONSUMIDOR FINAL        0000000000579010000000000478520000000000478522100000000000010049              *000000000000000***************************************************************************1**********************************************************************************************************00000000000000000000000
12013011006*000100000000000000007002000000000000000070029900000000000FINAL CONSUMIDOR FINAL        0000000000220000000000000181820000000000181822100000000000003818              *000000000000000***************************************************************************1**********************************************************************************************************00000000000000000000000
12013011006*000100000000000000007003000000000000000070039900000000000FINAL CONSUMIDOR FINAL        0000000000377000000000000311570000000000311572100000000000006543              *000000000000000***************************************************************************1**********************************************************************************************************00000000000000000000000
12013011106*000100000000000000007004000000000000000070049900000000000FINAL CONSUMIDOR FINAL        0000000000670000000000000553720000000000553722100000000000011628              *000000000000000***************************************************************************1**********************************************************************************************************00000000000000000000000
12013011106*000100000000000000007005000000000000000070059900000000000FINAL CONSUMIDOR FINAL        0000000000089000000000000073550000000000073552100000000000001545              *000000000000000***************************************************************************1**********************************************************************************************************00000000000000000000000
12013011106*000100000000000000007006000000000000000070069900000000000FINAL CONSUMIDOR FINAL        0000000000102000000000000084300000000000084302100000000000001770              *000000000000000***************************************************************************1**********************************************************************************************************00000000000000000000000
12013011106*000100000000000000007007000000000000000070079900000000000FINAL CONSUMIDOR FINAL        0000000000240000000000000198350000000000198352100000000000004165              *000000000000000***************************************************************************1**********************************************************************************************************00000000000000000000000
12013011101*000100000000000000000252000000000000000002528033708101899MAXICON SRL MAXICON SRL       0000000001306000000000001079340000000001079342100000000000022666              *000000000000000***************************************************************************1**********************************************************************************************************00000000000000000000000
12013011106*000100000000000000007008000000000000000070089900000000000FINAL CONSUMIDOR FINAL        0000000000068000000000000056200000000000056202100000000000001180              *000000000000000***************************************************************************1**********************************************************************************************************00000000000000000000000
12013011106*000100000000000000007009000000000000000070099900000000000FINAL CONSUMIDOR FINAL        0000000000138000000000000114050000000000114052100000000000002395              *000000000000000***************************************************************************1**********************************************************************************************************00000000000000000000000
12013011106*000100000000000000007010000000000000000070109900000000000FINAL CONSUMIDOR FINAL        0000000000609990000000000504120000000000504122100000000000010587              *000000000000000***************************************************************************1**********************************************************************************************************00000000000000000000000
12013011106*000100000000000000007011000000000000000070119900000000000FINAL CONSUMIDOR FINAL        0000000000178000000000000147110000000000147112100000000000003089              *000000000000000***************************************************************************1**********************************************************************************************************00000000000000000000000
12013011101*000100000000000000000253000000000000000002538033711291879servicios hidraulicos int. srl0000000000872990000000000721480000000000721482100000000000015151              *000000000000000***************************************************************************1**********************************************************************************************************00000000000000000000000
12013011106*000100000000000000007012000000000000000070129900000000000FINAL CONSUMIDOR FINAL        0000000000118000000000000097520000000000097522100000000000002048              *000000000000000***************************************************************************1**********************************************************************************************************00000000000000000000000
12013011106*000100000000000000007013000000000000000070139900000000000FINAL CONSUMIDOR FINAL        0000000000265000000000000219010000000000219012100000000000004599              *000000000000000***************************************************************************1**********************************************************************************************************00000000000000000000000
12013011106*000100000000000000007014000000000000000070149900000000000FINAL CONSUMIDOR FINAL        0000000001309990000000001082640000000001082642100000000000022735              *000000000000000***************************************************************************1**********************************************************************************************************00000000000000000000000
12013011106*000100000000000000007015000000000000000070159900000000000FINAL CONSUMIDOR FINAL        0000000000188990000000000156190000000000156192100000000000003280              *000000000000000***************************************************************************1**********************************************************************************************************00000000000000000000000
12013011106*000100000000000000007016000000000000000070169900000000000FINAL CONSUMIDOR FINAL        0000000000125010000000000103310000000000103312100000000000002170              *000000000000000***************************************************************************1**********************************************************************************************************00000000000000000000000
12013011106*000100000000000000007017000000000000000070179900000000000FINAL CONSUMIDOR FINAL        0000000000192000000000000158680000000000158682100000000000003332              *000000000000000***************************************************************************1**********************************************************************************************************00000000000000000000000
12013011106*000100000000000000007018000000000000000070189900000000000FINAL CONSUMIDOR FINAL        0000000000632000000000000522310000000000522312100000000000010969              *000000000000000***************************************************************************1**********************************************************************************************************00000000000000000000000
12013011106*000100000000000000007019000000000000000070199900000000000FINAL CONSUMIDOR FINAL        0000000000186000000000000153720000000000153722100000000000003228              *000000000000000***************************************************************************1**********************************************************************************************************00000000000000000000000
12013011106*000100000000000000007020000000000000000070209900000000000FINAL CONSUMIDOR FINAL        0000000000554000000000000457850000000000457852100000000000009615              *000000000000000***************************************************************************1**********************************************************************************************************00000000000000000000000
12013011106*000100000000000000007021000000000000000070219900000000000FINAL CONSUMIDOR FINAL        0000000000534000000000000441320000000000441322100000000000009268              *000000000000000***************************************************************************1**********************************************************************************************************00000000000000000000000
12013011206*000100000000000000007022000000000000000070229900000000000FINAL CONSUMIDOR FINAL        0000000000389020000000000321500000000000321502100000000000006752              *000000000000000***************************************************************************1**********************************************************************************************************00000000000000000000000
12013011206*000100000000000000007023000000000000000070239900000000000FINAL CONSUMIDOR FINAL        0000000000189990000000000157020000000000157022100000000000003297              *000000000000000***************************************************************************1**********************************************************************************************************00000000000000000000000
12013011206*000100000000000000007024000000000000000070249900000000000FINAL CONSUMIDOR FINAL        0000000000135000000000000111570000000000111572100000000000002343              *000000000000000***************************************************************************1**********************************************************************************************************00000000000000000000000
12013011206*000100000000000000007025000000000000000070259900000000000FINAL CONSUMIDOR FINAL        0000000000295000000000000243800000000000243802100000000000005120              *000000000000000***************************************************************************1**********************************************************************************************************00000000000000000000000
12013011206*000100000000000000007026000000000000000070269900000000000FINAL CONSUMIDOR FINAL        0000000000610010000000000504140000000000504142100000000000010587              *000000000000000***************************************************************************1**********************************************************************************************************00000000000000000000000
12013011206*000100000000000000007027000000000000000070279900000000000FINAL CONSUMIDOR FINAL        0000000000290000000000000239670000000000239672100000000000005033              *000000000000000***************************************************************************1**********************************************************************************************************00000000000000000000000
12013011206*000100000000000000007028000000000000000070289900000000000FINAL CONSUMIDOR FINAL        0000000000500010000000000413230000000000413232100000000000008678              *000000000000000***************************************************************************1**********************************************************************************************************00000000000000000000000
12013011206*000100000000000000007029000000000000000070299900000000000FINAL CONSUMIDOR FINAL        0000000000645000000000000533060000000000533062100000000000011194              *000000000000000***************************************************************************1**********************************************************************************************************00000000000000000000000
12013011206*000100000000000000007030000000000000000070309900000000000FINAL CONSUMIDOR FINAL        0000000000189990000000000157020000000000157022100000000000003297              *000000000000000***************************************************************************1**********************************************************************************************************00000000000000000000000
12013011201*000100000000000000000254000000000000000002548033711291879servicios hidraulicos int. srl0000000001082970000000000895020000000000895022100000000000018795              *000000000000000***************************************************************************1**********************************************************************************************************00000000000000000000000
12013011206*000100000000000000007031000000000000000070319900000000000FINAL CONSUMIDOR FINAL        0000000001100000000000000909090000000000909092100000000000019091              *000000000000000***************************************************************************1**********************************************************************************************************00000000000000000000000
12013011206*000100000000000000007032000000000000000070329900000000000FINAL CONSUMIDOR FINAL        0000000000177990000000000147100000000000147102100000000000003089              *000000000000000***************************************************************************1**********************************************************************************************************00000000000000000000000
12013011206*000100000000000000007033000000000000000070339900000000000FINAL CONSUMIDOR FINAL        0000000000205000000000000169420000000000169422100000000000003558              *000000000000000***************************************************************************1**********************************************************************************************************00000000000000000000000
12013011206*000100000000000000007034000000000000000070349900000000000FINAL CONSUMIDOR FINAL        0000000000435000000000000359500000000000359502100000000000007550              *000000000000000***************************************************************************1**********************************************************************************************************00000000000000000000000
12013011206*000100000000000000007035000000000000000070359900000000000FINAL CONSUMIDOR FINAL        0000000000288000000000000238020000000000238022100000000000004998              *000000000000000***************************************************************************1**********************************************************************************************************00000000000000000000000
12013011206*000100000000000000007036000000000000000070369900000000000FINAL CONSUMIDOR FINAL        0000000000475000000000000392560000000000392562100000000000008244              *000000000000000***************************************************************************1**********************************************************************************************************00000000000000000000000
12013011206*000100000000000000007037000000000000000070379900000000000FINAL CONSUMIDOR FINAL        0000000000053000000000000043800000000000043802100000000000000920              *000000000000000***************************************************************************1**********************************************************************************************************00000000000000000000000
12013011201*000100000000000000000255000000000000000002558027219732126 silvina alejandra garcia     0000000000830000000000000685950000000000685952100000000000014405              *000000000000000***************************************************************************1**********************************************************************************************************00000000000000000000000
12013011206*000100000000000000007038000000000000000070389900000000000FINAL CONSUMIDOR FINAL        0000000000179980000000000148740000000000148742100000000000003124              *000000000000000***************************************************************************1**********************************************************************************************************00000000000000000000000
12013011206*000100000000000000007039000000000000000070399900000000000FINAL CONSUMIDOR FINAL        0000000000425000000000000351240000000000351242100000000000007376              *000000000000000***************************************************************************1**********************************************************************************************************00000000000000000000000
12013011206*000100000000000000007040000000000000000070409900000000000FINAL CONSUMIDOR FINAL        0000000000865980000000000715690000000000715692100000000000015029              *000000000000000***************************************************************************1**********************************************************************************************************00000000000000000000000
12013011206*000100000000000000007041000000000000000070419900000000000FINAL CONSUMIDOR FINAL        0000000000092010000000000076040000000000076042100000000000001597              *000000000000000***************************************************************************1**********************************************************************************************************00000000000000000000000
12013011206*000100000000000000007042000000000000000070429900000000000FINAL CONSUMIDOR FINAL        0000000000253990000000000209910000000000209912100000000000004408              *000000000000000***************************************************************************1**********************************************************************************************************00000000000000000000000
12013011206*000100000000000000007043000000000000000070439900000000000FINAL CONSUMIDOR FINAL        0000000000484990000000000400820000000000400822100000000000008417              *000000000000000***************************************************************************1**********************************************************************************************************00000000000000000000000
12013011406*000100000000000000007044000000000000000070449900000000000FINAL CONSUMIDOR FINAL        0000000000211000000000000174380000000000174382100000000000003662              *000000000000000***************************************************************************1**********************************************************************************************************00000000000000000000000
12013011406*000100000000000000007045000000000000000070459900000000000FINAL CONSUMIDOR FINAL        0000000001586000000000001310740000000001310742100000000000027526              *000000000000000***************************************************************************1**********************************************************************************************************00000000000000000000000
12013011406*000100000000000000007046000000000000000070469900000000000FINAL CONSUMIDOR FINAL        0000000000300010000000000247940000000000247942100000000000005207              *000000000000000***************************************************************************1**********************************************************************************************************00000000000000000000000
12013011406*000100000000000000007047000000000000000070479900000000000FINAL CONSUMIDOR FINAL        0000000000181980000000000150400000000000150402100000000000003158              *000000000000000***************************************************************************1**********************************************************************************************************00000000000000000000000
12013011406*000100000000000000007048000000000000000070489900000000000FINAL CONSUMIDOR FINAL        0000000000500000000000000413220000000000413222100000000000008678              *000000000000000***************************************************************************1**********************************************************************************************************00000000000000000000000
12013011406*000100000000000000007049000000000000000070499900000000000FINAL CONSUMIDOR FINAL        0000000000562000000000000464460000000000464462100000000000009754              *000000000000000***************************************************************************1**********************************************************************************************************00000000000000000000000
12013011406*000100000000000000007050000000000000000070509900000000000FINAL CONSUMIDOR FINAL        0000000000398010000000000328930000000000328932100000000000006908              *000000000000000***************************************************************************1**********************************************************************************************************00000000000000000000000
12013011406*000100000000000000007051000000000000000070519900000000000FINAL CONSUMIDOR FINAL        0000000000426030000000000352090000000000352092100000000000007394              *000000000000000***************************************************************************1**********************************************************************************************************00000000000000000000000
12013011406*000100000000000000007052000000000000000070529900000000000FINAL CONSUMIDOR FINAL        0000000000225000000000000185950000000000185952100000000000003905              *000000000000000***************************************************************************1**********************************************************************************************************00000000000000000000000
12013011406*000100000000000000007053000000000000000070539900000000000FINAL CONSUMIDOR FINAL        0000000000150000000000000123970000000000123972100000000000002603              *000000000000000***************************************************************************1**********************************************************************************************************00000000000000000000000
12013011506*000100000000000000007054000000000000000070549900000000000FINAL CONSUMIDOR FINAL        0000000000335990000000000277680000000000277682100000000000005831              *000000000000000***************************************************************************1**********************************************************************************************************00000000000000000000000
12013011506*000100000000000000007055000000000000000070559900000000000FINAL CONSUMIDOR FINAL        0000000000335010000000000276870000000000276872100000000000005814              *000000000000000***************************************************************************1**********************************************************************************************************00000000000000000000000
12013011506*000100000000000000007056000000000000000070569900000000000FINAL CONSUMIDOR FINAL        0000000000574010000000000474390000000000474392100000000000009962              *000000000000000***************************************************************************1**********************************************************************************************************00000000000000000000000
12013011506*000100000000000000007057000000000000000070579900000000000FINAL CONSUMIDOR FINAL        0000000000161000000000000133060000000000133062100000000000002794              *000000000000000***************************************************************************1**********************************************************************************************************00000000000000000000000
12013011506*000100000000000000007058000000000000000070589900000000000FINAL CONSUMIDOR FINAL        0000000000315010000000000260340000000000260342100000000000005467              *000000000000000***************************************************************************1**********************************************************************************************************00000000000000000000000
12013011506*000100000000000000007059000000000000000070599900000000000FINAL CONSUMIDOR FINAL        0000000000130000000000000107440000000000107442100000000000002256              *000000000000000***************************************************************************1**********************************************************************************************************00000000000000000000000
12013011506*000100000000000000007060000000000000000070609900000000000FINAL CONSUMIDOR FINAL        0000000003220980000000002661970000000002661972100000000000055901              *000000000000000***************************************************************************1**********************************************************************************************************00000000000000000000000
12013011506*000100000000000000007061000000000000000070619900000000000FINAL CONSUMIDOR FINAL        0000000000144990000000000119830000000000119832100000000000002516              *000000000000000***************************************************************************1**********************************************************************************************************00000000000000000000000
12013011506*000100000000000000007062000000000000000070629900000000000FINAL CONSUMIDOR FINAL        0000000000198000000000000163640000000000163642100000000000003436              *000000000000000***************************************************************************1**********************************************************************************************************00000000000000000000000
12013011606*000100000000000000007063000000000000000070639900000000000FINAL CONSUMIDOR FINAL        0000000000370010000000000305790000000000305792100000000000006422              *000000000000000***************************************************************************1**********************************************************************************************************00000000000000000000000
12013011606*000100000000000000007064000000000000000070649900000000000FINAL CONSUMIDOR FINAL        0000000000130000000000000107440000000000107442100000000000002256              *000000000000000***************************************************************************1**********************************************************************************************************00000000000000000000000
12013011606*000100000000000000007065000000000000000070659900000000000FINAL CONSUMIDOR FINAL        0000000000316000000000000261160000000000261162100000000000005484              *000000000000000***************************************************************************1**********************************************************************************************************00000000000000000000000
12013011606*000100000000000000007066000000000000000070669900000000000FINAL CONSUMIDOR FINAL        0000000000415010000000000342980000000000342982100000000000007203              *000000000000000***************************************************************************1**********************************************************************************************************00000000000000000000000
12013011606*000100000000000000007067000000000000000070679900000000000FINAL CONSUMIDOR FINAL        0000000000355000000000000293390000000000293392100000000000006161              *000000000000000***************************************************************************1**********************************************************************************************************00000000000000000000000
12013011606*000100000000000000007068000000000000000070689900000000000FINAL CONSUMIDOR FINAL        0000000000745000000000000615700000000000615702100000000000012930              *000000000000000***************************************************************************1**********************************************************************************************************00000000000000000000000
12013011606*000100000000000000007069000000000000000070699900000000000FINAL CONSUMIDOR FINAL        0000000000196000000000000161980000000000161982100000000000003402              *000000000000000***************************************************************************1**********************************************************************************************************00000000000000000000000
12013011606*000100000000000000007070000000000000000070709900000000000FINAL CONSUMIDOR FINAL        0000000000320000000000000264460000000000264462100000000000005554              *000000000000000***************************************************************************1**********************************************************************************************************00000000000000000000000
12013011606*000100000000000000007071000000000000000070719900000000000FINAL CONSUMIDOR FINAL        0000000001523000000000001258680000000001258682100000000000026432              *000000000000000***************************************************************************1**********************************************************************************************************00000000000000000000000
12013011606*000100000000000000007072000000000000000070729900000000000FINAL CONSUMIDOR FINAL        0000000000720000000000000595040000000000595042100000000000012496              *000000000000000***************************************************************************1**********************************************************************************************************00000000000000000000000
12013011606*000100000000000000007073000000000000000070739900000000000FINAL CONSUMIDOR FINAL        0000000000610000000000000504130000000000504132100000000000010587              *000000000000000***************************************************************************1**********************************************************************************************************00000000000000000000000
12013011606*000100000000000000007074000000000000000070749900000000000FINAL CONSUMIDOR FINAL        0000000000198000000000000163640000000000163642100000000000003436              *000000000000000***************************************************************************1**********************************************************************************************************00000000000000000000000
12013011706*000100000000000000007075000000000000000070759900000000000FINAL CONSUMIDOR FINAL        0000000000196010000000000161990000000000161992100000000000003402              *000000000000000***************************************************************************1**********************************************************************************************************00000000000000000000000
12013011706*000100000000000000007076000000000000000070769900000000000FINAL CONSUMIDOR FINAL        0000000000112000000000000092560000000000092562100000000000001944              *000000000000000***************************************************************************1**********************************************************************************************************00000000000000000000000
12013011706*000100000000000000007077000000000000000070779900000000000FINAL CONSUMIDOR FINAL        0000000001369010000000001131410000000001131412100000000000023760              *000000000000000***************************************************************************1**********************************************************************************************************00000000000000000000000
12013011706*000100000000000000007078000000000000000070789900000000000FINAL CONSUMIDOR FINAL        0000000000403000000000000333060000000000333062100000000000006994              *000000000000000***************************************************************************1**********************************************************************************************************00000000000000000000000
12013011706*000100000000000000007079000000000000000070799900000000000FINAL CONSUMIDOR FINAL        0000000000635000000000000524790000000000524792100000000000011021              *000000000000000***************************************************************************1**********************************************************************************************************00000000000000000000000
12013011706*000100000000000000007080000000000000000070809900000000000FINAL CONSUMIDOR FINAL        0000000000050000000000000041320000000000041322100000000000000868              *000000000000000***************************************************************************1**********************************************************************************************************00000000000000000000000
12013011706*000100000000000000007081000000000000000070819900000000000FINAL CONSUMIDOR FINAL        0000000000135000000000000111570000000000111572100000000000002343              *000000000000000***************************************************************************1**********************************************************************************************************00000000000000000000000
12013011706*000100000000000000007082000000000000000070829900000000000FINAL CONSUMIDOR FINAL        0000000000103000000000000085120000000000085122100000000000001788              *000000000000000***************************************************************************1**********************************************************************************************************00000000000000000000000
12013011706*000100000000000000007083000000000000000070839900000000000FINAL CONSUMIDOR FINAL        0000000000733010000000000605790000000000605792100000000000012722              *000000000000000***************************************************************************1**********************************************************************************************************00000000000000000000000
12013011706*000100000000000000007084000000000000000070849900000000000FINAL CONSUMIDOR FINAL        0000000000390000000000000322310000000000322312100000000000006769              *000000000000000***************************************************************************1**********************************************************************************************************00000000000000000000000
12013011706*000100000000000000007085000000000000000070859900000000000FINAL CONSUMIDOR FINAL        0000000000377000000000000311570000000000311572100000000000006543              *000000000000000***************************************************************************1**********************************************************************************************************00000000000000000000000
12013011806*000100000000000000007086000000000000000070869900000000000FINAL CONSUMIDOR FINAL        0000000000251990000000000208260000000000208262100000000000004373              *000000000000000***************************************************************************1**********************************************************************************************************00000000000000000000000
12013011806*000100000000000000007087000000000000000070879900000000000FINAL CONSUMIDOR FINAL        0000000000089000000000000073550000000000073552100000000000001545              *000000000000000***************************************************************************1**********************************************************************************************************00000000000000000000000
12013011806*000100000000000000007088000000000000000070889900000000000FINAL CONSUMIDOR FINAL        0000000000205000000000000169420000000000169422100000000000003558              *000000000000000***************************************************************************1**********************************************************************************************************00000000000000000000000
12013011806*000100000000000000007089000000000000000070899900000000000FINAL CONSUMIDOR FINAL        0000000000194990000000000161150000000000161152100000000000003384              *000000000000000***************************************************************************1**********************************************************************************************************00000000000000000000000
12013011806*000100000000000000007090000000000000000070909900000000000FINAL CONSUMIDOR FINAL        0000000000230000000000000190080000000000190082100000000000003992              *000000000000000***************************************************************************1**********************************************************************************************************00000000000000000000000
12013011806*000100000000000000007091000000000000000070919900000000000FINAL CONSUMIDOR FINAL        0000000000175000000000000144630000000000144632100000000000003037              *000000000000000***************************************************************************1**********************************************************************************************************00000000000000000000000
12013011806*000100000000000000007092000000000000000070929900000000000FINAL CONSUMIDOR FINAL        0000000000675010000000000557860000000000557862100000000000011715              *000000000000000***************************************************************************1**********************************************************************************************************00000000000000000000000
12013011806*000100000000000000007093000000000000000070939900000000000FINAL CONSUMIDOR FINAL        0000000000065000000000000053720000000000053722100000000000001128              *000000000000000***************************************************************************1**********************************************************************************************************00000000000000000000000
12013011806*000100000000000000007094000000000000000070949900000000000FINAL CONSUMIDOR FINAL        0000000000330000000000000272730000000000272732100000000000005727              *000000000000000***************************************************************************1**********************************************************************************************************00000000000000000000000
12013011801*000100000000000000000256000000000000000002568020239056025 saldia raimundo              0000000000855090000000000706690000000000706692100000000000014840              *000000000000000***************************************************************************1**********************************************************************************************************00000000000000000000000
12013011806*000100000000000000007095000000000000000070959900000000000FINAL CONSUMIDOR FINAL        0000000000220000000000000181820000000000181822100000000000003818              *000000000000000***************************************************************************1**********************************************************************************************************00000000000000000000000
12013011906*000100000000000000007096000000000000000070969900000000000FINAL CONSUMIDOR FINAL        0000000000144990000000000119830000000000119832100000000000002516              *000000000000000***************************************************************************1**********************************************************************************************************00000000000000000000000
12013011906*000100000000000000007097000000000000000070979900000000000FINAL CONSUMIDOR FINAL        0000000000659930000000000545400000000000545402100000000000011453              *000000000000000***************************************************************************1**********************************************************************************************************00000000000000000000000
12013011906*000100000000000000007098000000000000000070989900000000000FINAL CONSUMIDOR FINAL        0000000000045000000000000037190000000000037192100000000000000781              *000000000000000***************************************************************************1**********************************************************************************************************00000000000000000000000
12013011906*000100000000000000007099000000000000000070999900000000000FINAL CONSUMIDOR FINAL        0000000000390990000000000323130000000000323132100000000000006786              *000000000000000***************************************************************************1**********************************************************************************************************00000000000000000000000
12013011906*000100000000000000007100000000000000000071009900000000000FINAL CONSUMIDOR FINAL        0000000000435000000000000359500000000000359502100000000000007550              *000000000000000***************************************************************************1**********************************************************************************************************00000000000000000000000
12013011906*000100000000000000007101000000000000000071019900000000000FINAL CONSUMIDOR FINAL        0000000000448990000000000371070000000000371072100000000000007792              *000000000000000***************************************************************************1**********************************************************************************************************00000000000000000000000
12013011906*000100000000000000007102000000000000000071029900000000000FINAL CONSUMIDOR FINAL        0000000000114020000000000094230000000000094232100000000000001979              *000000000000000***************************************************************************1**********************************************************************************************************00000000000000000000000
12013011906*000100000000000000007103000000000000000071039900000000000FINAL CONSUMIDOR FINAL        0000000000293000000000000242150000000000242152100000000000005085              *000000000000000***************************************************************************1**********************************************************************************************************00000000000000000000000
12013011906*000100000000000000007104000000000000000071049900000000000FINAL CONSUMIDOR FINAL        0000000000151010000000000124800000000000124802100000000000002621              *000000000000000***************************************************************************1**********************************************************************************************************00000000000000000000000
12013011906*000100000000000000007105000000000000000071059900000000000FINAL CONSUMIDOR FINAL        0000000001264990000000001045450000000001045452100000000000021954              *000000000000000***************************************************************************1**********************************************************************************************************00000000000000000000000
12013011906*000100000000000000007106000000000000000071069900000000000FINAL CONSUMIDOR FINAL        0000000000116990000000000096690000000000096692100000000000002030              *000000000000000***************************************************************************1**********************************************************************************************************00000000000000000000000
12013011906*000100000000000000007107000000000000000071079900000000000FINAL CONSUMIDOR FINAL        0000000000189990000000000157020000000000157022100000000000003297              *000000000000000***************************************************************************1**********************************************************************************************************00000000000000000000000
12013011906*000100000000000000007108000000000000000071089900000000000FINAL CONSUMIDOR FINAL        0000000000632980000000000523120000000000523122100000000000010986              *000000000000000***************************************************************************1**********************************************************************************************************00000000000000000000000
12013011906*000100000000000000007109000000000000000071099900000000000FINAL CONSUMIDOR FINAL        0000000000186000000000000153720000000000153722100000000000003228              *000000000000000***************************************************************************1**********************************************************************************************************00000000000000000000000
12013011906*000100000000000000007110000000000000000071109900000000000FINAL CONSUMIDOR FINAL        0000000000795010000000000657030000000000657032100000000000013798              *000000000000000***************************************************************************1**********************************************************************************************************00000000000000000000000
12013011906*000100000000000000007111000000000000000071119900000000000FINAL CONSUMIDOR FINAL        0000000000164000000000000135540000000000135542100000000000002846              *000000000000000***************************************************************************1**********************************************************************************************************00000000000000000000000
12013012101*000100000000000000000257000000000000000002578030707311718 LERIN RUBEN                  0000000000565000000000000466940000000000466942100000000000009806              *000000000000000***************************************************************************1**********************************************************************************************************00000000000000000000000
12013012106*000100000000000000007112000000000000000071129900000000000FINAL CONSUMIDOR FINAL        0000000000065000000000000053720000000000053722100000000000001128              *000000000000000***************************************************************************1**********************************************************************************************************00000000000000000000000
12013012106*000100000000000000007113000000000000000071139900000000000FINAL CONSUMIDOR FINAL        0000000000315990000000000261150000000000261152100000000000005484              *000000000000000***************************************************************************1**********************************************************************************************************00000000000000000000000
12013012106*000100000000000000007114000000000000000071149900000000000FINAL CONSUMIDOR FINAL        0000000000053000000000000043800000000000043802100000000000000920              *000000000000000***************************************************************************1**********************************************************************************************************00000000000000000000000
12013012101*000100000000000000000258000000000000000002588030709401862 MUNDON INFINITO SRL          0000000000234990000000000194210000000000194212100000000000004078              *000000000000000***************************************************************************1**********************************************************************************************************00000000000000000000000
12013012106*000100000000000000007115000000000000000071159900000000000FINAL CONSUMIDOR FINAL        0000000000297010000000000245460000000000245462100000000000005155              *000000000000000***************************************************************************1**********************************************************************************************************00000000000000000000000
12013012106*000100000000000000007116000000000000000071169900000000000FINAL CONSUMIDOR FINAL        0000000000132000000000000109090000000000109092100000000000002291              *000000000000000***************************************************************************1**********************************************************************************************************00000000000000000000000
12013012106*000100000000000000007117000000000000000071179900000000000FINAL CONSUMIDOR FINAL        0000000000098010000000000081000000000000081002100000000000001701              *000000000000000***************************************************************************1**********************************************************************************************************00000000000000000000000
12013012106*000100000000000000007118000000000000000071189900000000000FINAL CONSUMIDOR FINAL        0000000000308010000000000254550000000000254552100000000000005346              *000000000000000***************************************************************************1**********************************************************************************************************00000000000000000000000
12013012106*000100000000000000007119000000000000000071199900000000000FINAL CONSUMIDOR FINAL        0000000000030000000000000024790000000000024792100000000000000521              *000000000000000***************************************************************************1**********************************************************************************************************00000000000000000000000
12013012206*000100000000000000007120000000000000000071209900000000000FINAL CONSUMIDOR FINAL        0000000000111010000000000091740000000000091742100000000000001927              *000000000000000***************************************************************************1**********************************************************************************************************00000000000000000000000
12013012206*000100000000000000007121000000000000000071219900000000000FINAL CONSUMIDOR FINAL        0000000000440040000000000363670000000000363672100000000000007637              *000000000000000***************************************************************************1**********************************************************************************************************00000000000000000000000
12013012206*000100000000000000007122000000000000000071229900000000000FINAL CONSUMIDOR FINAL        0000000000073000000000000060330000000000060332100000000000001267              *000000000000000***************************************************************************1**********************************************************************************************************00000000000000000000000
