201603010010017700000000000000000830                8000000000030556565798TRANSPORTE-CRUZ-DEL-SUR-SA    000000000206310000000000000000000000000000000000000000000000000000000000000000000000000000000000000000000000000000000000PES00010000001000000000000000000000000000000000000000000                              000000000000000
201603010010000400000000000000003305                8000000000030709170127MOOVE-SRL                     000000000197654000000000000000000000000000000000000000000000000000000000000000000000000000000000000000000000000000000000PES00010000001000000000000000000000000000000000000000000                              000000000000000
201603020010000800000000000000092596                8000000000030545726722SOCIEDAD-COOP-POPULAR-LIM-DE  000000000228794000000000000000000000000000000000000000000000000000000000000000000000000000000000000000000000000000000000PES00010000001000000000000000000000000000000000000000000                              000000000000000
201603020010000100000000000020160213                8000000000030639453975TELEFONICA-DE-ARG-SA          000000000105660000000000000000000000000000000000000000000000000000000000000000000000000000000000000000000000000000000000PES00010000001000000000000000000000000000000000000000000                              000000000000000
201603030010000800000000000000084099                8000000000030545726722SOCIEDAD-COOP-POPULAR-LIM-DE  000000000243100000000000000000000000000000000000000000000000000000000000000000000000000000000000000000000000000000000000PES00010000001000000000000000000000000000000000000000000                              000000000000000
201603030010000800000000000000084100                8000000000030545726722SOCIEDAD-COOP-POPULAR-LIM-DE  000000000232778000000000000000000000000000000000000000000000000000000000000000000000000000000000000000000000000000000000PES00010000001000000000000000000000000000000000000000000                              000000000000000
201603030010000400000000000000000999                8000000000020126715111ALEJANDRO-LUIS-BUSTOS         000000000072417000000000000000000000000000000000000000000000000000000000000000000000000000000000000000000000000000000000PES00010000001000000000000000000000000000000000000000000                              000000000000000
201603050010000400000000000000002452                8000000000030710397283KALIBU-DECORATION-SA          000000000967698000000000000000000000000000000000000000000000000000000000000000000000000000000000000000000000000000000000PES00010000001000000000000000000000000000000000000000000                              000000000000000
201603050010000300000000000000010685                8000000000030710215096PELTRINA-SA                   000000001755110000000000000000000000000000000000000000000000000000000000000000000000000000000000000000000000000000000000PES00010000001000000000000000000000000000000000000000000                              000000000000000
201603070010002100000000000000009790                8000000000030707454640EL-ESTANCO-SA                 000000000043900000000000000000000000000000000000000000000000000000000000000000000000000000000000000000000000000000000000PES00010000001000000000000000000000000000000000000000000                              000000000000000
201603070010000500000000000000002473                8000000000030707309659ALMAZEN-IMPORT-SRL            000000000431527000000000000000000000000000000000000000000000000000000000000000000000000000000000000000000000000000000000PES00010000001000000000000000000000000000000000000000000                              000000000000000
201603070010000500000000000000002471                8000000000030707309659ALMAZEN-IMPORT-SRL            000000002723306000000000000000000000000000000000000000000000000000000000000000000000000000000000000000000000000000000000PES00010000001000000000000000000000000000000000000000000                              000000000000000
201603090010000500000000000000009588                8000000000030711778302MDK-SRL                       000000002010427000000000000000000000000000000000000000000000000000000000000000000000000000000000000000000000000000000000PES00010000001000000000000000000000000000000000000000000                              000000000000000
201603120010000300000000000000003086                8000000000030711190895AUSTRAL-ALARMAS-SRL           000000000036300000000000000000000000000000000000000000000000000000000000000000000000000000000000000000000000000000000000PES00010000001000000000000000000000000000000000000000000                              000000000000000
201603150010002400000000000000002181                8000000000030670288613DISTRIBUIDORA-LOA-SA          000000000049323000000000000000000000000000000000000000000000000000000000000000000000000000000000000000000000000000000000PES00010000001000000000000000000000000000000000000000000                              000000000000000
201603160010000200000000000000017244                8000000000020202375244DANIEL-OSCAR-MACIAS           000000000014900000000000000000000000000000000000000000000000000000000000000000000000000000000000000000000000000000000000PES00010000001000000000000000000000000000000000000000000                              000000000000000
201603170010000100000000000000000017                8000000000030714670618CONDOMINIO-DE-BERSAIS-CESAR-L 000000002662000000000000000000000000000000000000000000000000000000000000000000000000000000000000000000000000000000000000PES00010000001000000000000000000000000000000000000000000                              000000000000000
201603180010000400000000000000000110                8000000000020108041480JUAN-CARLOS-BACAY             000000000077922000000000000000000000000000000000000000000000000000000000000000000000000000000000000000000000000000000000PES00010000001000000000000000000000000000000000000000000                              000000000000000
201603190010000100000000000000000631                8000000000020281407180MARCELO-JULIAN-U-SAUTHIER     000000000115000000000000000000000000000000000000000000000000000000000000000000000000000000000000000000000000000000000000PES00010000001000000000000000000000000000000000000000000                              000000000000000
201603210010000400000000000000001048                8000000000020126715111ALEJANDRO-LUIS-BUSTOS         000000000033038000000000000000000000000000000000000000000000000000000000000000000000000000000000000000000000000000000000PES00010000001000000000000000000000000000000000000000000                              000000000000000
201603210010000200000000000000000070                8000000000023148184429CLAUDIO-OMAR-ALVAREZ          000000000809974000000000000000000000000000000000000000000000000000000000000000000000000000000000000000000000000000000000PES00010000001000000000000000000000000000000000000000000                              000000000000000
201603210010000400000000000000128334                8000000000030708926155TRANSPORTES-UNION-SA          000000001038533000000000000000000000000000000000000000000000000000000000000000000000000000000000000000000000000000000000PES00010000001000000000000000000000000000000000000000000                              000000000000000
201603210010041800000000000000009185                8000000000030546764040NESTLE-ARGENTINO-SA           000000000953602000000000000000000000000000000000000000000000000000000000000000000000000000000000000000000000000000000000PES00010000001000000000000000000000000000000000000000000                              000000000000000
201603210010003300000000000000000090                8000000000030711124507TRAVEL-CBA-SRL                000000000199000000000000000000000000000000000000000000000000000000000000000000000000000000000000000000000000000000000000PES00010000001000000000000000000000000000000000000000000                              000000000000000
201603280010000300000000000000000306                8000000000020222552134GUSTAVO-A-GARCIA              000000000450000000000000000000000000000000000000000000000000000000000000000000000000000000000000000000000000000000000000PES00010000001000000000000000000000000000000000000000000                              000000000000000
201603290010003100000000000000000537                8000000000030670253291TSUYOI-SA                     000000059740002000000000000000000000000000000000000000000000000000000000000000000000000000000000000000000000000000000000PES00010000001000000000000000000000000000000000000000000                              000000000000000
201603290010003100000000000000000556                8000000000030670253291TSUYOI-SA                     000000001194710000000000000000000000000000000000000000000000000000000000000000000000000000000000000000000000000000000000PES00010000001000000000000000000000000000000000000000000                              000000000000000
201603290010001500000000000000001684                8000000000033708356609PATAGONIACANDLES-SRL          000000002372931000000000000000000000000000000000000000000000000000000000000000000000000000000000000000000000000000000000PES00010000001000000000000000000000000000000000000000000                              000000000000000
201603300010000400000000000000000329                8000000000030708268468ZAIRE-REGALOS-SRL             000000001780508000000000000000000000000000000000000000000000000000000000000000000000000000000000000000000000000000000000PES00010000001000000000000000000000000000000000000000000                              000000000000000
201603310010000300000000000000000208                8000000000030708525436JAVIER-R-BRAIDOT-Y-WALTER-G-  000000002394825000000000000000000000000000000000000000000000000000000000000000000000000000000000000000000000000000000000PES00010000001000000000000000000000000000000000000000000                              000000000000000
