201606040010000100000000000000001205000000000000000012058000000000030691996375-BELVEDERE-SA                 000000000047500000000000000000000000000000000000000000000000000000000000000000000000000000000000000000000000000000000000PES00010000001 00000000000000000000000
201606040010000100000000000000001207000000000000000012078000000000027260187258-ANALIA-FALESCHINI            000000000317900000000000000000000000000000000000000000000000000000000000000000000000000000000000000000000000000000000000PES00010000001 00000000000000000000000
201606060010000100000000000000001220000000000000000012208000000000033511174169ANDRES-MIGUEL-VENTER-Y-OTROS  000000000115000000000000000000000000000000000000000000000000000000000000000000000000000000000000000000000000000000000000PES00010000001 00000000000000000000000
201606150010000100000000000000001221000000000000000012218000000000023245081189-ALEJANDRO-FRANCISCO-QUINTANA 000000000215000000000000000000000000000000000000000000000000000000000000000000000000000000000000000000000000000000000000PES00010000001 00000000000000000000000
201606160010000100000000000000001222000000000000000012228000000000020278416128OSCAR-RUBEN-CONCENTINO        000000000171500000000000000000000000000000000000000000000000000000000000000000000000000000000000000000000000000000000000PES00010000001 00000000000000000000000
201606180010000100000000000000001223000000000000000012238000000000020361818572MALDONADO-MATIAS              000000000049800000000000000000000000000000000000000000000000000000000000000000000000000000000000000000000000000000000000PES00010000001 00000000000000000000000
201606230010000100000000000000001224000000000000000012248000000000030711688672-CASA-FREILE-                 000000000099800000000000000000000000000000000000000000000000000000000000000000000000000000000000000000000000000000000000PES00010000001 00000000000000000000000
201606230010000100000000000000001225000000000000000012258000000000030709219509-HOLDING-SRL                  000000000045000000000000000000000000000000000000000000000000000000000000000000000000000000000000000000000000000000000000PES00010000001 00000000000000000000000
201606250010000100000000000000001226000000000000000012268000000000027260187258-ANALIA-FALESCHINI            000000000291300000000000000000000000000000000000000000000000000000000000000000000000000000000000000000000000000000000000PES00010000001 00000000000000000000000
201606220060000100000000000000013704000000000000000137048000000000030531025799-SMATA                        000000000283500000000000000000000000000000000000000000000000000000000000000000000000000000000000000000000000000000000000PES00010000001 00000000000000000000000
201606010060000100000000000000024739000000000000000247399600000000033714143609CENTRO-DE-ESTUDIOS-DIGESTIVOS-000000000019500000000000000000000000000000000000000000000000000000000000000000000000000000000000000000000000000000000000PES00010000001 00000000000000000000000
201606010060000100000000000000024740000000000000000247409600000000033714143609CENTRO-DE-ESTUDIOS-DIGESTIVOS-000000000070900000000000000000000000000000000000000000000000000000000000000000000000000000000000000000000000000000000000PES00010000001 00000000000000000000000
201606010060000100000000000000024741000000000000000247419600000000033714143609CENTRO-DE-ESTUDIOS-DIGESTIVOS-000000000069000000000000000000000000000000000000000000000000000000000000000000000000000000000000000000000000000000000000PES00010000001 00000000000000000000000
201606010060000100000000000000024742000000000000000247429600000000033714143609CENTRO-DE-ESTUDIOS-DIGESTIVOS-000000000017500000000000000000000000000000000000000000000000000000000000000000000000000000000000000000000000000000000000PES00010000001 00000000000000000000000
201606010060000100000000000000024743000000000000000247439600000000033714143609CENTRO-DE-ESTUDIOS-DIGESTIVOS-000000000130800000000000000000000000000000000000000000000000000000000000000000000000000000000000000000000000000000000000PES00010000001 00000000000000000000000
201606010060000100000000000000024744000000000000000247449600000000033714143609CENTRO-DE-ESTUDIOS-DIGESTIVOS-000000000034500000000000000000000000000000000000000000000000000000000000000000000000000000000000000000000000000000000000PES00010000001 00000000000000000000000
201606010060000100000000000000024745000000000000000247459600000000033714143609CENTRO-DE-ESTUDIOS-DIGESTIVOS-000000000070100000000000000000000000000000000000000000000000000000000000000000000000000000000000000000000000000000000000PES00010000001 00000000000000000000000
201606010060000100000000000000024746000000000000000247469600000000033714143609CENTRO-DE-ESTUDIOS-DIGESTIVOS-000000000272300000000000000000000000000000000000000000000000000000000000000000000000000000000000000000000000000000000000PES00010000001 00000000000000000000000
201606010060000100000000000000024747000000000000000247479600000000033714143609CENTRO-DE-ESTUDIOS-DIGESTIVOS-000000000102000000000000000000000000000000000000000000000000000000000000000000000000000000000000000000000000000000000000PES00010000001 00000000000000000000000
201606010060000100000000000000024748000000000000000247489600000000033714143609CENTRO-DE-ESTUDIOS-DIGESTIVOS-000000000076000000000000000000000000000000000000000000000000000000000000000000000000000000000000000000000000000000000000PES00010000001 00000000000000000000000
201606010060000100000000000000024749000000000000000247499600000000033714143609CENTRO-DE-ESTUDIOS-DIGESTIVOS-000000000060000000000000000000000000000000000000000000000000000000000000000000000000000000000000000000000000000000000000PES00010000001 00000000000000000000000
201606020060000100000000000000024750000000000000000247509600000000033714143609CENTRO-DE-ESTUDIOS-DIGESTIVOS-000000000014000000000000000000000000000000000000000000000000000000000000000000000000000000000000000000000000000000000000PES00010000001 00000000000000000000000
201606020060000100000000000000024751000000000000000247519600000000033714143609CENTRO-DE-ESTUDIOS-DIGESTIVOS-000000000082000000000000000000000000000000000000000000000000000000000000000000000000000000000000000000000000000000000000PES00010000001 00000000000000000000000
201606020060000100000000000000024752000000000000000247529600000000033714143609CENTRO-DE-ESTUDIOS-DIGESTIVOS-000000000099800000000000000000000000000000000000000000000000000000000000000000000000000000000000000000000000000000000000PES00010000001 00000000000000000000000
201606020060000100000000000000024753000000000000000247539600000000033714143609CENTRO-DE-ESTUDIOS-DIGESTIVOS-000000000046500000000000000000000000000000000000000000000000000000000000000000000000000000000000000000000000000000000000PES00010000001 00000000000000000000000
201606020060000100000000000000024754000000000000000247549600000000033714143609CENTRO-DE-ESTUDIOS-DIGESTIVOS-000000000062500000000000000000000000000000000000000000000000000000000000000000000000000000000000000000000000000000000000PES00010000001 00000000000000000000000
201606020060000100000000000000024755000000000000000247559600000000033714143609CENTRO-DE-ESTUDIOS-DIGESTIVOS-000000000084600000000000000000000000000000000000000000000000000000000000000000000000000000000000000000000000000000000000PES00010000001 00000000000000000000000
201606020060000100000000000000024756000000000000000247569600000000033714143609CENTRO-DE-ESTUDIOS-DIGESTIVOS-000000000035000000000000000000000000000000000000000000000000000000000000000000000000000000000000000000000000000000000000PES00010000001 00000000000000000000000
201606020060000100000000000000024757000000000000000247579600000000033714143609CENTRO-DE-ESTUDIOS-DIGESTIVOS-000000000181500000000000000000000000000000000000000000000000000000000000000000000000000000000000000000000000000000000000PES00010000001 00000000000000000000000
201606030060000100000000000000024758000000000000000247589600000000033714143609CENTRO-DE-ESTUDIOS-DIGESTIVOS-000000000067500000000000000000000000000000000000000000000000000000000000000000000000000000000000000000000000000000000000PES00010000001 00000000000000000000000
201606030060000100000000000000024759000000000000000247599600000000033714143609CENTRO-DE-ESTUDIOS-DIGESTIVOS-000000000057500000000000000000000000000000000000000000000000000000000000000000000000000000000000000000000000000000000000PES00010000001 00000000000000000000000
201606030060000100000000000000024760000000000000000247609600000000033714143609CENTRO-DE-ESTUDIOS-DIGESTIVOS-000000000198300000000000000000000000000000000000000000000000000000000000000000000000000000000000000000000000000000000000PES00010000001 00000000000000000000000
201606030060000100000000000000024761000000000000000247619600000000033714143609CENTRO-DE-ESTUDIOS-DIGESTIVOS-000000000026800000000000000000000000000000000000000000000000000000000000000000000000000000000000000000000000000000000000PES00010000001 00000000000000000000000
201606030060000100000000000000024762000000000000000247629600000000033714143609CENTRO-DE-ESTUDIOS-DIGESTIVOS-000000000145200000000000000000000000000000000000000000000000000000000000000000000000000000000000000000000000000000000000PES00010000001 00000000000000000000000
201606030060000100000000000000024763000000000000000247639600000000033714143609CENTRO-DE-ESTUDIOS-DIGESTIVOS-000000000053000000000000000000000000000000000000000000000000000000000000000000000000000000000000000000000000000000000000PES00010000001 00000000000000000000000
201606030060000100000000000000024764000000000000000247649600000000033714143609CENTRO-DE-ESTUDIOS-DIGESTIVOS-000000000050000000000000000000000000000000000000000000000000000000000000000000000000000000000000000000000000000000000000PES00010000001 00000000000000000000000
201606030060000100000000000000024765000000000000000247659600000000033714143609CENTRO-DE-ESTUDIOS-DIGESTIVOS-000000000278100000000000000000000000000000000000000000000000000000000000000000000000000000000000000000000000000000000000PES00010000001 00000000000000000000000
201606030060000100000000000000024766000000000000000247669600000000033714143609CENTRO-DE-ESTUDIOS-DIGESTIVOS-000000000044500000000000000000000000000000000000000000000000000000000000000000000000000000000000000000000000000000000000PES00010000001 00000000000000000000000
201606030060000100000000000000024767000000000000000247679600000000033714143609CENTRO-DE-ESTUDIOS-DIGESTIVOS-000000000018500000000000000000000000000000000000000000000000000000000000000000000000000000000000000000000000000000000000PES00010000001 00000000000000000000000
201606040060000100000000000000024768000000000000000247689600000000033714143609CENTRO-DE-ESTUDIOS-DIGESTIVOS-000000000068500000000000000000000000000000000000000000000000000000000000000000000000000000000000000000000000000000000000PES00010000001 00000000000000000000000
201606040060000100000000000000024769000000000000000247699600000000033714143609CENTRO-DE-ESTUDIOS-DIGESTIVOS-000000000076000000000000000000000000000000000000000000000000000000000000000000000000000000000000000000000000000000000000PES00010000001 00000000000000000000000
201606040060000100000000000000024770000000000000000247709600000000033714143609CENTRO-DE-ESTUDIOS-DIGESTIVOS-000000000040000000000000000000000000000000000000000000000000000000000000000000000000000000000000000000000000000000000000PES00010000001 00000000000000000000000
201606040060000100000000000000024771000000000000000247719600000000033714143609CENTRO-DE-ESTUDIOS-DIGESTIVOS-000000000067500000000000000000000000000000000000000000000000000000000000000000000000000000000000000000000000000000000000PES00010000001 00000000000000000000000
201606040060000100000000000000024772000000000000000247729600000000033714143609CENTRO-DE-ESTUDIOS-DIGESTIVOS-000000000146500000000000000000000000000000000000000000000000000000000000000000000000000000000000000000000000000000000000PES00010000001 00000000000000000000000
201606040060000100000000000000024773000000000000000247739600000000033714143609CENTRO-DE-ESTUDIOS-DIGESTIVOS-000000000091000000000000000000000000000000000000000000000000000000000000000000000000000000000000000000000000000000000000PES00010000001 00000000000000000000000
201606040060000100000000000000024774000000000000000247749600000000033714143609CENTRO-DE-ESTUDIOS-DIGESTIVOS-000000000048000000000000000000000000000000000000000000000000000000000000000000000000000000000000000000000000000000000000PES00010000001 00000000000000000000000
201606040060000100000000000000024775000000000000000247759600000000033714143609CENTRO-DE-ESTUDIOS-DIGESTIVOS-000000000334900000000000000000000000000000000000000000000000000000000000000000000000000000000000000000000000000000000000PES00010000001 00000000000000000000000
201606040060000100000000000000024776000000000000000247769600000000033714143609CENTRO-DE-ESTUDIOS-DIGESTIVOS-000000000071000000000000000000000000000000000000000000000000000000000000000000000000000000000000000000000000000000000000PES00010000001 00000000000000000000000
201606040060000100000000000000024777000000000000000247779600000000033714143609CENTRO-DE-ESTUDIOS-DIGESTIVOS-000000000042000000000000000000000000000000000000000000000000000000000000000000000000000000000000000000000000000000000000PES00010000001 00000000000000000000000
201606040060000100000000000000024778000000000000000247789600000000033714143609CENTRO-DE-ESTUDIOS-DIGESTIVOS-000000000149500000000000000000000000000000000000000000000000000000000000000000000000000000000000000000000000000000000000PES00010000001 00000000000000000000000
201606040060000100000000000000024779000000000000000247799600000000033714143609CENTRO-DE-ESTUDIOS-DIGESTIVOS-000000000021000000000000000000000000000000000000000000000000000000000000000000000000000000000000000000000000000000000000PES00010000001 00000000000000000000000
201606040060000100000000000000024780000000000000000247809600000000033714143609CENTRO-DE-ESTUDIOS-DIGESTIVOS-000000000106800000000000000000000000000000000000000000000000000000000000000000000000000000000000000000000000000000000000PES00010000001 00000000000000000000000
201606040060000100000000000000024781000000000000000247819600000000033714143609CENTRO-DE-ESTUDIOS-DIGESTIVOS-000000000096000000000000000000000000000000000000000000000000000000000000000000000000000000000000000000000000000000000000PES00010000001 00000000000000000000000
201606040060000100000000000000024782000000000000000247829600000000033714143609CENTRO-DE-ESTUDIOS-DIGESTIVOS-000000000106000000000000000000000000000000000000000000000000000000000000000000000000000000000000000000000000000000000000PES00010000001 00000000000000000000000
201606060060000100000000000000024783000000000000000247839600000000033714143609CENTRO-DE-ESTUDIOS-DIGESTIVOS-000000000027500000000000000000000000000000000000000000000000000000000000000000000000000000000000000000000000000000000000PES00010000001 00000000000000000000000
201606060060000100000000000000024784000000000000000247849600000000033714143609CENTRO-DE-ESTUDIOS-DIGESTIVOS-000000000048000000000000000000000000000000000000000000000000000000000000000000000000000000000000000000000000000000000000PES00010000001 00000000000000000000000
201606060060000100000000000000024785000000000000000247859600000000033714143609CENTRO-DE-ESTUDIOS-DIGESTIVOS-000000000077500000000000000000000000000000000000000000000000000000000000000000000000000000000000000000000000000000000000PES00010000001 00000000000000000000000
201606060060000100000000000000024786000000000000000247869600000000033714143609CENTRO-DE-ESTUDIOS-DIGESTIVOS-000000000066900000000000000000000000000000000000000000000000000000000000000000000000000000000000000000000000000000000000PES00010000001 00000000000000000000000
201606060060000100000000000000024787000000000000000247879600000000033714143609CENTRO-DE-ESTUDIOS-DIGESTIVOS-000000000032500000000000000000000000000000000000000000000000000000000000000000000000000000000000000000000000000000000000PES00010000001 00000000000000000000000
201606060060000100000000000000024788000000000000000247889600000000033714143609CENTRO-DE-ESTUDIOS-DIGESTIVOS-000000000050000000000000000000000000000000000000000000000000000000000000000000000000000000000000000000000000000000000000PES00010000001 00000000000000000000000
201606070060000100000000000000024790000000000000000247909600000000033714143609CENTRO-DE-ESTUDIOS-DIGESTIVOS-000000000183500000000000000000000000000000000000000000000000000000000000000000000000000000000000000000000000000000000000PES00010000001 00000000000000000000000
201606070060000100000000000000024791000000000000000247919600000000033714143609CENTRO-DE-ESTUDIOS-DIGESTIVOS-000000000026000000000000000000000000000000000000000000000000000000000000000000000000000000000000000000000000000000000000PES00010000001 00000000000000000000000
201606070060000100000000000000024792000000000000000247929600000000033714143609CENTRO-DE-ESTUDIOS-DIGESTIVOS-000000000101800000000000000000000000000000000000000000000000000000000000000000000000000000000000000000000000000000000000PES00010000001 00000000000000000000000
201606070060000100000000000000024793000000000000000247939600000000033714143609CENTRO-DE-ESTUDIOS-DIGESTIVOS-000000000144500000000000000000000000000000000000000000000000000000000000000000000000000000000000000000000000000000000000PES00010000001 00000000000000000000000
201606070060000100000000000000024794000000000000000247949600000000033714143609CENTRO-DE-ESTUDIOS-DIGESTIVOS-000000000039000000000000000000000000000000000000000000000000000000000000000000000000000000000000000000000000000000000000PES00010000001 00000000000000000000000
201606070060000100000000000000024795000000000000000247959600000000033714143609CENTRO-DE-ESTUDIOS-DIGESTIVOS-000000000159000000000000000000000000000000000000000000000000000000000000000000000000000000000000000000000000000000000000PES00010000001 00000000000000000000000
201606070060000100000000000000024796000000000000000247969600000000033714143609CENTRO-DE-ESTUDIOS-DIGESTIVOS-000000000027500000000000000000000000000000000000000000000000000000000000000000000000000000000000000000000000000000000000PES00010000001 00000000000000000000000
201606070060000100000000000000024797000000000000000247979600000000033714143609CENTRO-DE-ESTUDIOS-DIGESTIVOS-000000000016500000000000000000000000000000000000000000000000000000000000000000000000000000000000000000000000000000000000PES00010000001 00000000000000000000000
201606070060000100000000000000024798000000000000000247989600000000033714143609CENTRO-DE-ESTUDIOS-DIGESTIVOS-000000000050000000000000000000000000000000000000000000000000000000000000000000000000000000000000000000000000000000000000PES00010000001 00000000000000000000000
201606080060000100000000000000024799000000000000000247999600000000033714143609CENTRO-DE-ESTUDIOS-DIGESTIVOS-000000000189000000000000000000000000000000000000000000000000000000000000000000000000000000000000000000000000000000000000PES00010000001 00000000000000000000000
201606080060000100000000000000024800000000000000000248009600000000033714143609CENTRO-DE-ESTUDIOS-DIGESTIVOS-000000000018500000000000000000000000000000000000000000000000000000000000000000000000000000000000000000000000000000000000PES00010000001 00000000000000000000000
201606080060000100000000000000024801000000000000000248019600000000033714143609CENTRO-DE-ESTUDIOS-DIGESTIVOS-000000000097500000000000000000000000000000000000000000000000000000000000000000000000000000000000000000000000000000000000PES00010000001 00000000000000000000000
201606080060000100000000000000024802000000000000000248029600000000033714143609CENTRO-DE-ESTUDIOS-DIGESTIVOS-000000000095500000000000000000000000000000000000000000000000000000000000000000000000000000000000000000000000000000000000PES00010000001 00000000000000000000000
201606080060000100000000000000024803000000000000000248039600000000033714143609CENTRO-DE-ESTUDIOS-DIGESTIVOS-000000000069100000000000000000000000000000000000000000000000000000000000000000000000000000000000000000000000000000000000PES00010000001 00000000000000000000000
201606080060000100000000000000024804000000000000000248049600000000033714143609CENTRO-DE-ESTUDIOS-DIGESTIVOS-000000000090700000000000000000000000000000000000000000000000000000000000000000000000000000000000000000000000000000000000PES00010000001 00000000000000000000000
201606080060000100000000000000024805000000000000000248059600000000033714143609CENTRO-DE-ESTUDIOS-DIGESTIVOS-000000000029000000000000000000000000000000000000000000000000000000000000000000000000000000000000000000000000000000000000PES00010000001 00000000000000000000000
201606080060000100000000000000024806000000000000000248069600000000033714143609CENTRO-DE-ESTUDIOS-DIGESTIVOS-000000000022500000000000000000000000000000000000000000000000000000000000000000000000000000000000000000000000000000000000PES00010000001 00000000000000000000000
201606080060000100000000000000024807000000000000000248079600000000033714143609CENTRO-DE-ESTUDIOS-DIGESTIVOS-000000000023500000000000000000000000000000000000000000000000000000000000000000000000000000000000000000000000000000000000PES00010000001 00000000000000000000000
201606080060000100000000000000024808000000000000000248089600000000033714143609CENTRO-DE-ESTUDIOS-DIGESTIVOS-000000000030500000000000000000000000000000000000000000000000000000000000000000000000000000000000000000000000000000000000PES00010000001 00000000000000000000000
201606090060000100000000000000024809000000000000000248099600000000033714143609CENTRO-DE-ESTUDIOS-DIGESTIVOS-000000000047000000000000000000000000000000000000000000000000000000000000000000000000000000000000000000000000000000000000PES00010000001 00000000000000000000000
201606090060000100000000000000024810000000000000000248109600000000033714143609CENTRO-DE-ESTUDIOS-DIGESTIVOS-000000000030000000000000000000000000000000000000000000000000000000000000000000000000000000000000000000000000000000000000PES00010000001 00000000000000000000000
201606090060000100000000000000024811000000000000000248119600000000033714143609CENTRO-DE-ESTUDIOS-DIGESTIVOS-000000000317200000000000000000000000000000000000000000000000000000000000000000000000000000000000000000000000000000000000PES00010000001 00000000000000000000000
201606090060000100000000000000024812000000000000000248129600000000033714143609CENTRO-DE-ESTUDIOS-DIGESTIVOS-000000000209000000000000000000000000000000000000000000000000000000000000000000000000000000000000000000000000000000000000PES00010000001 00000000000000000000000
201606090060000100000000000000024813000000000000000248139600000000033714143609CENTRO-DE-ESTUDIOS-DIGESTIVOS-000000000090500000000000000000000000000000000000000000000000000000000000000000000000000000000000000000000000000000000000PES00010000001 00000000000000000000000
201606090060000100000000000000024814000000000000000248149600000000033714143609CENTRO-DE-ESTUDIOS-DIGESTIVOS-000000000040500000000000000000000000000000000000000000000000000000000000000000000000000000000000000000000000000000000000PES00010000001 00000000000000000000000
201606090060000100000000000000024815000000000000000248159600000000033714143609CENTRO-DE-ESTUDIOS-DIGESTIVOS-000000000040500000000000000000000000000000000000000000000000000000000000000000000000000000000000000000000000000000000000PES00010000001 00000000000000000000000
201606090060000100000000000000024816000000000000000248169600000000033714143609CENTRO-DE-ESTUDIOS-DIGESTIVOS-000000000025300000000000000000000000000000000000000000000000000000000000000000000000000000000000000000000000000000000000PES00010000001 00000000000000000000000
201606090060000100000000000000024817000000000000000248179600000000033714143609CENTRO-DE-ESTUDIOS-DIGESTIVOS-000000000025000000000000000000000000000000000000000000000000000000000000000000000000000000000000000000000000000000000000PES00010000001 00000000000000000000000
201606100060000100000000000000024818000000000000000248189600000000033714143609CENTRO-DE-ESTUDIOS-DIGESTIVOS-000000000099500000000000000000000000000000000000000000000000000000000000000000000000000000000000000000000000000000000000PES00010000001 00000000000000000000000
201606100060000100000000000000024819000000000000000248199600000000033714143609CENTRO-DE-ESTUDIOS-DIGESTIVOS-000000000124800000000000000000000000000000000000000000000000000000000000000000000000000000000000000000000000000000000000PES00010000001 00000000000000000000000
201606100060000100000000000000024820000000000000000248209600000000033714143609CENTRO-DE-ESTUDIOS-DIGESTIVOS-000000000129000000000000000000000000000000000000000000000000000000000000000000000000000000000000000000000000000000000000PES00010000001 00000000000000000000000
201606100060000100000000000000024821000000000000000248219600000000033714143609CENTRO-DE-ESTUDIOS-DIGESTIVOS-000000000121800000000000000000000000000000000000000000000000000000000000000000000000000000000000000000000000000000000000PES00010000001 00000000000000000000000
201606100060000100000000000000024822000000000000000248229600000000033714143609CENTRO-DE-ESTUDIOS-DIGESTIVOS-000000000024500000000000000000000000000000000000000000000000000000000000000000000000000000000000000000000000000000000000PES00010000001 00000000000000000000000
201606100060000100000000000000024823000000000000000248239600000000033714143609CENTRO-DE-ESTUDIOS-DIGESTIVOS-000000000012000000000000000000000000000000000000000000000000000000000000000000000000000000000000000000000000000000000000PES00010000001 00000000000000000000000
201606100060000100000000000000024824000000000000000248249600000000033714143609CENTRO-DE-ESTUDIOS-DIGESTIVOS-000000000071000000000000000000000000000000000000000000000000000000000000000000000000000000000000000000000000000000000000PES00010000001 00000000000000000000000
201606100060000100000000000000024825000000000000000248259600000000033714143609CENTRO-DE-ESTUDIOS-DIGESTIVOS-000000000400000000000000000000000000000000000000000000000000000000000000000000000000000000000000000000000000000000000000PES00010000001 00000000000000000000000
201606100060000100000000000000024826000000000000000248269600000000033714143609CENTRO-DE-ESTUDIOS-DIGESTIVOS-000000000107000000000000000000000000000000000000000000000000000000000000000000000000000000000000000000000000000000000000PES00010000001 00000000000000000000000
201606100060000100000000000000024827000000000000000248279600000000033714143609CENTRO-DE-ESTUDIOS-DIGESTIVOS-000000000122000000000000000000000000000000000000000000000000000000000000000000000000000000000000000000000000000000000000PES00010000001 00000000000000000000000
201606100060000100000000000000024828000000000000000248289600000000033714143609CENTRO-DE-ESTUDIOS-DIGESTIVOS-000000000126000000000000000000000000000000000000000000000000000000000000000000000000000000000000000000000000000000000000PES00010000001 00000000000000000000000
201606100060000100000000000000024829000000000000000248299600000000033714143609CENTRO-DE-ESTUDIOS-DIGESTIVOS-000000000026000000000000000000000000000000000000000000000000000000000000000000000000000000000000000000000000000000000000PES00010000001 00000000000000000000000
201606100060000100000000000000024830000000000000000248309600000000033714143609CENTRO-DE-ESTUDIOS-DIGESTIVOS-000000000076100000000000000000000000000000000000000000000000000000000000000000000000000000000000000000000000000000000000PES00010000001 00000000000000000000000
201606110060000100000000000000024831000000000000000248319600000000033714143609CENTRO-DE-ESTUDIOS-DIGESTIVOS-000000000024500000000000000000000000000000000000000000000000000000000000000000000000000000000000000000000000000000000000PES00010000001 00000000000000000000000
201606110060000100000000000000024832000000000000000248329600000000033714143609CENTRO-DE-ESTUDIOS-DIGESTIVOS-000000000028000000000000000000000000000000000000000000000000000000000000000000000000000000000000000000000000000000000000PES00010000001 00000000000000000000000
201606110060000100000000000000024833000000000000000248339600000000033714143609CENTRO-DE-ESTUDIOS-DIGESTIVOS-000000000229800000000000000000000000000000000000000000000000000000000000000000000000000000000000000000000000000000000000PES00010000001 00000000000000000000000
201606110060000100000000000000024834000000000000000248349600000000033714143609CENTRO-DE-ESTUDIOS-DIGESTIVOS-000000000049500000000000000000000000000000000000000000000000000000000000000000000000000000000000000000000000000000000000PES00010000001 00000000000000000000000
201606110060000100000000000000024835000000000000000248359600000000033714143609CENTRO-DE-ESTUDIOS-DIGESTIVOS-000000000105900000000000000000000000000000000000000000000000000000000000000000000000000000000000000000000000000000000000PES00010000001 00000000000000000000000
201606110060000100000000000000024836000000000000000248369600000000033714143609CENTRO-DE-ESTUDIOS-DIGESTIVOS-000000000067000000000000000000000000000000000000000000000000000000000000000000000000000000000000000000000000000000000000PES00010000001 00000000000000000000000
201606110060000100000000000000024837000000000000000248379600000000033714143609CENTRO-DE-ESTUDIOS-DIGESTIVOS-000000000065000000000000000000000000000000000000000000000000000000000000000000000000000000000000000000000000000000000000PES00010000001 00000000000000000000000
201606110060000100000000000000024838000000000000000248389600000000033714143609CENTRO-DE-ESTUDIOS-DIGESTIVOS-000000000059000000000000000000000000000000000000000000000000000000000000000000000000000000000000000000000000000000000000PES00010000001 00000000000000000000000
201606110060000100000000000000024839000000000000000248399600000000033714143609CENTRO-DE-ESTUDIOS-DIGESTIVOS-000000000096700000000000000000000000000000000000000000000000000000000000000000000000000000000000000000000000000000000000PES00010000001 00000000000000000000000
201606110060000100000000000000024840000000000000000248409600000000033714143609CENTRO-DE-ESTUDIOS-DIGESTIVOS-000000000066000000000000000000000000000000000000000000000000000000000000000000000000000000000000000000000000000000000000PES00010000001 00000000000000000000000
201606110060000100000000000000024841000000000000000248419600000000033714143609CENTRO-DE-ESTUDIOS-DIGESTIVOS-000000000030000000000000000000000000000000000000000000000000000000000000000000000000000000000000000000000000000000000000PES00010000001 00000000000000000000000
201606110060000100000000000000024842000000000000000248429600000000033714143609CENTRO-DE-ESTUDIOS-DIGESTIVOS-000000000007500000000000000000000000000000000000000000000000000000000000000000000000000000000000000000000000000000000000PES00010000001 00000000000000000000000
201606110060000100000000000000024843000000000000000248439600000000033714143609CENTRO-DE-ESTUDIOS-DIGESTIVOS-000000000100000000000000000000000000000000000000000000000000000000000000000000000000000000000000000000000000000000000000PES00010000001 00000000000000000000000
201606110060000100000000000000024844000000000000000248449600000000033714143609CENTRO-DE-ESTUDIOS-DIGESTIVOS-000000000455700000000000000000000000000000000000000000000000000000000000000000000000000000000000000000000000000000000000PES00010000001 00000000000000000000000
201606110060000100000000000000024845000000000000000248459600000000033714143609CENTRO-DE-ESTUDIOS-DIGESTIVOS-000000000038500000000000000000000000000000000000000000000000000000000000000000000000000000000000000000000000000000000000PES00010000001 00000000000000000000000
201606110060000100000000000000024846000000000000000248469600000000033714143609CENTRO-DE-ESTUDIOS-DIGESTIVOS-000000000024500000000000000000000000000000000000000000000000000000000000000000000000000000000000000000000000000000000000PES00010000001 00000000000000000000000
201606110060000100000000000000024847000000000000000248479600000000033714143609CENTRO-DE-ESTUDIOS-DIGESTIVOS-000000000049000000000000000000000000000000000000000000000000000000000000000000000000000000000000000000000000000000000000PES00010000001 00000000000000000000000
201606110060000100000000000000024848000000000000000248489600000000033714143609CENTRO-DE-ESTUDIOS-DIGESTIVOS-000000000019600000000000000000000000000000000000000000000000000000000000000000000000000000000000000000000000000000000000PES00010000001 00000000000000000000000
201606110060000100000000000000024849000000000000000248499600000000033714143609CENTRO-DE-ESTUDIOS-DIGESTIVOS-000000000027000000000000000000000000000000000000000000000000000000000000000000000000000000000000000000000000000000000000PES00010000001 00000000000000000000000
201606110060000100000000000000024850000000000000000248509600000000033714143609CENTRO-DE-ESTUDIOS-DIGESTIVOS-000000000057500000000000000000000000000000000000000000000000000000000000000000000000000000000000000000000000000000000000PES00010000001 00000000000000000000000
201606110060000100000000000000024851000000000000000248519600000000033714143609CENTRO-DE-ESTUDIOS-DIGESTIVOS-000000000032500000000000000000000000000000000000000000000000000000000000000000000000000000000000000000000000000000000000PES00010000001 00000000000000000000000
201606110060000100000000000000024852000000000000000248529600000000033714143609CENTRO-DE-ESTUDIOS-DIGESTIVOS-000000000176000000000000000000000000000000000000000000000000000000000000000000000000000000000000000000000000000000000000PES00010000001 00000000000000000000000
201606110060000100000000000000024853000000000000000248539600000000033714143609CENTRO-DE-ESTUDIOS-DIGESTIVOS-000000000006500000000000000000000000000000000000000000000000000000000000000000000000000000000000000000000000000000000000PES00010000001 00000000000000000000000
201606110060000100000000000000024854000000000000000248549600000000033714143609CENTRO-DE-ESTUDIOS-DIGESTIVOS-000000000034000000000000000000000000000000000000000000000000000000000000000000000000000000000000000000000000000000000000PES00010000001 00000000000000000000000
201606110060000100000000000000024855000000000000000248559600000000033714143609CENTRO-DE-ESTUDIOS-DIGESTIVOS-000000000037600000000000000000000000000000000000000000000000000000000000000000000000000000000000000000000000000000000000PES00010000001 00000000000000000000000
201606110060000100000000000000024856000000000000000248569600000000033714143609CENTRO-DE-ESTUDIOS-DIGESTIVOS-000000000017500000000000000000000000000000000000000000000000000000000000000000000000000000000000000000000000000000000000PES00010000001 00000000000000000000000
201606110060000100000000000000024857000000000000000248579600000000033714143609CENTRO-DE-ESTUDIOS-DIGESTIVOS-000000000040000000000000000000000000000000000000000000000000000000000000000000000000000000000000000000000000000000000000PES00010000001 00000000000000000000000
201606110060000100000000000000024858000000000000000248589600000000033714143609CENTRO-DE-ESTUDIOS-DIGESTIVOS-000000000020000000000000000000000000000000000000000000000000000000000000000000000000000000000000000000000000000000000000PES00010000001 00000000000000000000000
201606110060000100000000000000024859000000000000000248599600000000033714143609CENTRO-DE-ESTUDIOS-DIGESTIVOS-000000000117500000000000000000000000000000000000000000000000000000000000000000000000000000000000000000000000000000000000PES00010000001 00000000000000000000000
201606110060000100000000000000024860000000000000000248609600000000033714143609CENTRO-DE-ESTUDIOS-DIGESTIVOS-000000000090100000000000000000000000000000000000000000000000000000000000000000000000000000000000000000000000000000000000PES00010000001 00000000000000000000000
201606110060000100000000000000024861000000000000000248619600000000033714143609CENTRO-DE-ESTUDIOS-DIGESTIVOS-000000000075000000000000000000000000000000000000000000000000000000000000000000000000000000000000000000000000000000000000PES00010000001 00000000000000000000000
201606110060000100000000000000024862000000000000000248629600000000033714143609CENTRO-DE-ESTUDIOS-DIGESTIVOS-000000000126000000000000000000000000000000000000000000000000000000000000000000000000000000000000000000000000000000000000PES00010000001 00000000000000000000000
201606110060000100000000000000024863000000000000000248639600000000033714143609CENTRO-DE-ESTUDIOS-DIGESTIVOS-000000000192200000000000000000000000000000000000000000000000000000000000000000000000000000000000000000000000000000000000PES00010000001 00000000000000000000000
201606110060000100000000000000024864000000000000000248649600000000033714143609CENTRO-DE-ESTUDIOS-DIGESTIVOS-000000000051000000000000000000000000000000000000000000000000000000000000000000000000000000000000000000000000000000000000PES00010000001 00000000000000000000000
201606110060000100000000000000024865000000000000000248659600000000033714143609CENTRO-DE-ESTUDIOS-DIGESTIVOS-000000000104000000000000000000000000000000000000000000000000000000000000000000000000000000000000000000000000000000000000PES00010000001 00000000000000000000000
201606110060000100000000000000024866000000000000000248669600000000033714143609CENTRO-DE-ESTUDIOS-DIGESTIVOS-000000000114500000000000000000000000000000000000000000000000000000000000000000000000000000000000000000000000000000000000PES00010000001 00000000000000000000000
201606110060000100000000000000024867000000000000000248679600000000033714143609CENTRO-DE-ESTUDIOS-DIGESTIVOS-000000000037500000000000000000000000000000000000000000000000000000000000000000000000000000000000000000000000000000000000PES00010000001 00000000000000000000000
201606110060000100000000000000024868000000000000000248689600000000033714143609CENTRO-DE-ESTUDIOS-DIGESTIVOS-000000000145500000000000000000000000000000000000000000000000000000000000000000000000000000000000000000000000000000000000PES00010000001 00000000000000000000000
201606130060000100000000000000024869000000000000000248699600000000033714143609CENTRO-DE-ESTUDIOS-DIGESTIVOS-000000000137600000000000000000000000000000000000000000000000000000000000000000000000000000000000000000000000000000000000PES00010000001 00000000000000000000000
201606130060000100000000000000024870000000000000000248709600000000033714143609CENTRO-DE-ESTUDIOS-DIGESTIVOS-000000000097500000000000000000000000000000000000000000000000000000000000000000000000000000000000000000000000000000000000PES00010000001 00000000000000000000000
201606130060000100000000000000024871000000000000000248719600000000033714143609CENTRO-DE-ESTUDIOS-DIGESTIVOS-000000000100100000000000000000000000000000000000000000000000000000000000000000000000000000000000000000000000000000000000PES00010000001 00000000000000000000000
201606130060000100000000000000024872000000000000000248729600000000033714143609CENTRO-DE-ESTUDIOS-DIGESTIVOS-000000000129500000000000000000000000000000000000000000000000000000000000000000000000000000000000000000000000000000000000PES00010000001 00000000000000000000000
201606130060000100000000000000024873000000000000000248739600000000033714143609CENTRO-DE-ESTUDIOS-DIGESTIVOS-000000000048000000000000000000000000000000000000000000000000000000000000000000000000000000000000000000000000000000000000PES00010000001 00000000000000000000000
201606130060000100000000000000024874000000000000000248749600000000033714143609CENTRO-DE-ESTUDIOS-DIGESTIVOS-000000000034000000000000000000000000000000000000000000000000000000000000000000000000000000000000000000000000000000000000PES00010000001 00000000000000000000000
201606130060000100000000000000024875000000000000000248759600000000033714143609CENTRO-DE-ESTUDIOS-DIGESTIVOS-000000000039500000000000000000000000000000000000000000000000000000000000000000000000000000000000000000000000000000000000PES00010000001 00000000000000000000000
201606130060000100000000000000024876000000000000000248769600000000033714143609CENTRO-DE-ESTUDIOS-DIGESTIVOS-000000000049000000000000000000000000000000000000000000000000000000000000000000000000000000000000000000000000000000000000PES00010000001 00000000000000000000000
201606130060000100000000000000024878000000000000000248789600000000033714143609CENTRO-DE-ESTUDIOS-DIGESTIVOS-000000000138800000000000000000000000000000000000000000000000000000000000000000000000000000000000000000000000000000000000PES00010000001 00000000000000000000000
201606140060000100000000000000024879000000000000000248799600000000033714143609CENTRO-DE-ESTUDIOS-DIGESTIVOS-000000000037500000000000000000000000000000000000000000000000000000000000000000000000000000000000000000000000000000000000PES00010000001 00000000000000000000000
201606140060000100000000000000024880000000000000000248809600000000033714143609CENTRO-DE-ESTUDIOS-DIGESTIVOS-000000000087000000000000000000000000000000000000000000000000000000000000000000000000000000000000000000000000000000000000PES00010000001 00000000000000000000000
201606140060000100000000000000024881000000000000000248819600000000033714143609CENTRO-DE-ESTUDIOS-DIGESTIVOS-000000000037500000000000000000000000000000000000000000000000000000000000000000000000000000000000000000000000000000000000PES00010000001 00000000000000000000000
201606140060000100000000000000024882000000000000000248829600000000033714143609CENTRO-DE-ESTUDIOS-DIGESTIVOS-000000000376800000000000000000000000000000000000000000000000000000000000000000000000000000000000000000000000000000000000PES00010000001 00000000000000000000000
201606140060000100000000000000024883000000000000000248839600000000033714143609CENTRO-DE-ESTUDIOS-DIGESTIVOS-000000000087500000000000000000000000000000000000000000000000000000000000000000000000000000000000000000000000000000000000PES00010000001 00000000000000000000000
201606140060000100000000000000024884000000000000000248849600000000033714143609CENTRO-DE-ESTUDIOS-DIGESTIVOS-000000000037500000000000000000000000000000000000000000000000000000000000000000000000000000000000000000000000000000000000PES00010000001 00000000000000000000000
201606140060000100000000000000024885000000000000000248859600000000033714143609CENTRO-DE-ESTUDIOS-DIGESTIVOS-000000000045000000000000000000000000000000000000000000000000000000000000000000000000000000000000000000000000000000000000PES00010000001 00000000000000000000000
201606140060000100000000000000024886000000000000000248869600000000033714143609CENTRO-DE-ESTUDIOS-DIGESTIVOS-000000000017500000000000000000000000000000000000000000000000000000000000000000000000000000000000000000000000000000000000PES00010000001 00000000000000000000000
201606140060000100000000000000024887000000000000000248879600000000033714143609CENTRO-DE-ESTUDIOS-DIGESTIVOS-000000000016000000000000000000000000000000000000000000000000000000000000000000000000000000000000000000000000000000000000PES00010000001 00000000000000000000000
201606140060000100000000000000024888000000000000000248889600000000033714143609CENTRO-DE-ESTUDIOS-DIGESTIVOS-000000000038500000000000000000000000000000000000000000000000000000000000000000000000000000000000000000000000000000000000PES00010000001 00000000000000000000000
201606140060000100000000000000024889000000000000000248899600000000033714143609CENTRO-DE-ESTUDIOS-DIGESTIVOS-000000000073500000000000000000000000000000000000000000000000000000000000000000000000000000000000000000000000000000000000PES00010000001 00000000000000000000000
201606140060000100000000000000024890000000000000000248909600000000033714143609CENTRO-DE-ESTUDIOS-DIGESTIVOS-000000000037500000000000000000000000000000000000000000000000000000000000000000000000000000000000000000000000000000000000PES00010000001 00000000000000000000000
201606150060000100000000000000024891000000000000000248919600000000033714143609CENTRO-DE-ESTUDIOS-DIGESTIVOS-000000000031500000000000000000000000000000000000000000000000000000000000000000000000000000000000000000000000000000000000PES00010000001 00000000000000000000000
201606150060000100000000000000024892000000000000000248929600000000033714143609CENTRO-DE-ESTUDIOS-DIGESTIVOS-000000000296300000000000000000000000000000000000000000000000000000000000000000000000000000000000000000000000000000000000PES00010000001 00000000000000000000000
201606150060000100000000000000024893000000000000000248939600000000033714143609CENTRO-DE-ESTUDIOS-DIGESTIVOS-000000000036000000000000000000000000000000000000000000000000000000000000000000000000000000000000000000000000000000000000PES00010000001 00000000000000000000000
201606150060000100000000000000024894000000000000000248949600000000033714143609CENTRO-DE-ESTUDIOS-DIGESTIVOS-000000000050800000000000000000000000000000000000000000000000000000000000000000000000000000000000000000000000000000000000PES00010000001 00000000000000000000000
201606150060000100000000000000024895000000000000000248959600000000033714143609CENTRO-DE-ESTUDIOS-DIGESTIVOS-000000000192200000000000000000000000000000000000000000000000000000000000000000000000000000000000000000000000000000000000PES00010000001 00000000000000000000000
201606150060000100000000000000024896000000000000000248969600000000033714143609CENTRO-DE-ESTUDIOS-DIGESTIVOS-000000000097500000000000000000000000000000000000000000000000000000000000000000000000000000000000000000000000000000000000PES00010000001 00000000000000000000000
201606150060000100000000000000024897000000000000000248979600000000033714143609CENTRO-DE-ESTUDIOS-DIGESTIVOS-000000000246000000000000000000000000000000000000000000000000000000000000000000000000000000000000000000000000000000000000PES00010000001 00000000000000000000000
201606150060000100000000000000024898000000000000000248989600000000033714143609CENTRO-DE-ESTUDIOS-DIGESTIVOS-000000000032500000000000000000000000000000000000000000000000000000000000000000000000000000000000000000000000000000000000PES00010000001 00000000000000000000000
201606150060000100000000000000024899000000000000000248999600000000033714143609CENTRO-DE-ESTUDIOS-DIGESTIVOS-000000000072500000000000000000000000000000000000000000000000000000000000000000000000000000000000000000000000000000000000PES00010000001 00000000000000000000000
201606150060000100000000000000024900000000000000000249009600000000033714143609CENTRO-DE-ESTUDIOS-DIGESTIVOS-000000000069000000000000000000000000000000000000000000000000000000000000000000000000000000000000000000000000000000000000PES00010000001 00000000000000000000000
201606150060000100000000000000024901000000000000000249019600000000033714143609CENTRO-DE-ESTUDIOS-DIGESTIVOS-000000000018500000000000000000000000000000000000000000000000000000000000000000000000000000000000000000000000000000000000PES00010000001 00000000000000000000000
201606150060000100000000000000024902000000000000000249029600000000033714143609CENTRO-DE-ESTUDIOS-DIGESTIVOS-000000000181500000000000000000000000000000000000000000000000000000000000000000000000000000000000000000000000000000000000PES00010000001 00000000000000000000000
201606150060000100000000000000024903000000000000000249039600000000033714143609CENTRO-DE-ESTUDIOS-DIGESTIVOS-000000000068900000000000000000000000000000000000000000000000000000000000000000000000000000000000000000000000000000000000PES00010000001 00000000000000000000000
201606150060000100000000000000024904000000000000000249049600000000033714143609CENTRO-DE-ESTUDIOS-DIGESTIVOS-000000000025000000000000000000000000000000000000000000000000000000000000000000000000000000000000000000000000000000000000PES00010000001 00000000000000000000000
201606160060000100000000000000024905000000000000000249059600000000033714143609CENTRO-DE-ESTUDIOS-DIGESTIVOS-000000000077000000000000000000000000000000000000000000000000000000000000000000000000000000000000000000000000000000000000PES00010000001 00000000000000000000000
201606160060000100000000000000024906000000000000000249069600000000033714143609CENTRO-DE-ESTUDIOS-DIGESTIVOS-000000000061000000000000000000000000000000000000000000000000000000000000000000000000000000000000000000000000000000000000PES00010000001 00000000000000000000000
201606160060000100000000000000024907000000000000000249079600000000033714143609CENTRO-DE-ESTUDIOS-DIGESTIVOS-000000000022500000000000000000000000000000000000000000000000000000000000000000000000000000000000000000000000000000000000PES00010000001 00000000000000000000000
201606160060000100000000000000024908000000000000000249089600000000033714143609CENTRO-DE-ESTUDIOS-DIGESTIVOS-000000000076800000000000000000000000000000000000000000000000000000000000000000000000000000000000000000000000000000000000PES00010000001 00000000000000000000000
201606160060000100000000000000024909000000000000000249099600000000033714143609CENTRO-DE-ESTUDIOS-DIGESTIVOS-000000000032500000000000000000000000000000000000000000000000000000000000000000000000000000000000000000000000000000000000PES00010000001 00000000000000000000000
201606160060000100000000000000024910000000000000000249109600000000033714143609CENTRO-DE-ESTUDIOS-DIGESTIVOS-000000000187800000000000000000000000000000000000000000000000000000000000000000000000000000000000000000000000000000000000PES00010000001 00000000000000000000000
201606160060000100000000000000024911000000000000000249119600000000033714143609CENTRO-DE-ESTUDIOS-DIGESTIVOS-000000000069000000000000000000000000000000000000000000000000000000000000000000000000000000000000000000000000000000000000PES00010000001 00000000000000000000000
201606160060000100000000000000024912000000000000000249129600000000033714143609CENTRO-DE-ESTUDIOS-DIGESTIVOS-000000000357000000000000000000000000000000000000000000000000000000000000000000000000000000000000000000000000000000000000PES00010000001 00000000000000000000000
201606160060000100000000000000024913000000000000000249139600000000033714143609CENTRO-DE-ESTUDIOS-DIGESTIVOS-000000000055300000000000000000000000000000000000000000000000000000000000000000000000000000000000000000000000000000000000PES00010000001 00000000000000000000000
201606160060000100000000000000024914000000000000000249149600000000033714143609CENTRO-DE-ESTUDIOS-DIGESTIVOS-000000000101800000000000000000000000000000000000000000000000000000000000000000000000000000000000000000000000000000000000PES00010000001 00000000000000000000000
201606160060000100000000000000024915000000000000000249159600000000033714143609CENTRO-DE-ESTUDIOS-DIGESTIVOS-000000000013000000000000000000000000000000000000000000000000000000000000000000000000000000000000000000000000000000000000PES00010000001 00000000000000000000000
201606160060000100000000000000024916000000000000000249169600000000033714143609CENTRO-DE-ESTUDIOS-DIGESTIVOS-000000000144000000000000000000000000000000000000000000000000000000000000000000000000000000000000000000000000000000000000PES00010000001 00000000000000000000000
201606160060000100000000000000024917000000000000000249179600000000033714143609CENTRO-DE-ESTUDIOS-DIGESTIVOS-000000000147000000000000000000000000000000000000000000000000000000000000000000000000000000000000000000000000000000000000PES00010000001 00000000000000000000000
201606160060000100000000000000024918000000000000000249189600000000033714143609CENTRO-DE-ESTUDIOS-DIGESTIVOS-000000000049000000000000000000000000000000000000000000000000000000000000000000000000000000000000000000000000000000000000PES00010000001 00000000000000000000000
201606160060000100000000000000024919000000000000000249199600000000033714143609CENTRO-DE-ESTUDIOS-DIGESTIVOS-000000000099500000000000000000000000000000000000000000000000000000000000000000000000000000000000000000000000000000000000PES00010000001 00000000000000000000000
201606160060000100000000000000024920000000000000000249209600000000033714143609CENTRO-DE-ESTUDIOS-DIGESTIVOS-000000000053500000000000000000000000000000000000000000000000000000000000000000000000000000000000000000000000000000000000PES00010000001 00000000000000000000000
201606160060000100000000000000024921000000000000000249219600000000033714143609CENTRO-DE-ESTUDIOS-DIGESTIVOS-000000000160500000000000000000000000000000000000000000000000000000000000000000000000000000000000000000000000000000000000PES00010000001 00000000000000000000000
201606160060000100000000000000024922000000000000000249229600000000033714143609CENTRO-DE-ESTUDIOS-DIGESTIVOS-000000000147500000000000000000000000000000000000000000000000000000000000000000000000000000000000000000000000000000000000PES00010000001 00000000000000000000000
201606160060000100000000000000024923000000000000000249239600000000033714143609CENTRO-DE-ESTUDIOS-DIGESTIVOS-000000000073300000000000000000000000000000000000000000000000000000000000000000000000000000000000000000000000000000000000PES00010000001 00000000000000000000000
201606160060000100000000000000024924000000000000000249249600000000033714143609CENTRO-DE-ESTUDIOS-DIGESTIVOS-000000000045000000000000000000000000000000000000000000000000000000000000000000000000000000000000000000000000000000000000PES00010000001 00000000000000000000000
201606160060000100000000000000024925000000000000000249259600000000033714143609CENTRO-DE-ESTUDIOS-DIGESTIVOS-000000000249500000000000000000000000000000000000000000000000000000000000000000000000000000000000000000000000000000000000PES00010000001 00000000000000000000000
201606160060000100000000000000024926000000000000000249269600000000033714143609CENTRO-DE-ESTUDIOS-DIGESTIVOS-000000000085000000000000000000000000000000000000000000000000000000000000000000000000000000000000000000000000000000000000PES00010000001 00000000000000000000000
201606160060000100000000000000024927000000000000000249279600000000033714143609CENTRO-DE-ESTUDIOS-DIGESTIVOS-000000000070000000000000000000000000000000000000000000000000000000000000000000000000000000000000000000000000000000000000PES00010000001 00000000000000000000000
201606160060000100000000000000024928000000000000000249289600000000033714143609CENTRO-DE-ESTUDIOS-DIGESTIVOS-000000000030000000000000000000000000000000000000000000000000000000000000000000000000000000000000000000000000000000000000PES00010000001 00000000000000000000000
201606160060000100000000000000024929000000000000000249299600000000033714143609CENTRO-DE-ESTUDIOS-DIGESTIVOS-000000000022500000000000000000000000000000000000000000000000000000000000000000000000000000000000000000000000000000000000PES00010000001 00000000000000000000000
201606160060000100000000000000024930000000000000000249309600000000033714143609CENTRO-DE-ESTUDIOS-DIGESTIVOS-000000000210400000000000000000000000000000000000000000000000000000000000000000000000000000000000000000000000000000000000PES00010000001 00000000000000000000000
201606160060000100000000000000024931000000000000000249319600000000033714143609CENTRO-DE-ESTUDIOS-DIGESTIVOS-000000000063400000000000000000000000000000000000000000000000000000000000000000000000000000000000000000000000000000000000PES00010000001 00000000000000000000000
201606160060000100000000000000024932000000000000000249329600000000033714143609CENTRO-DE-ESTUDIOS-DIGESTIVOS-000000000019800000000000000000000000000000000000000000000000000000000000000000000000000000000000000000000000000000000000PES00010000001 00000000000000000000000
201606160060000100000000000000024933000000000000000249339600000000033714143609CENTRO-DE-ESTUDIOS-DIGESTIVOS-000000000220800000000000000000000000000000000000000000000000000000000000000000000000000000000000000000000000000000000000PES00010000001 00000000000000000000000
201606160060000100000000000000024934000000000000000249349600000000033714143609CENTRO-DE-ESTUDIOS-DIGESTIVOS-000000000042500000000000000000000000000000000000000000000000000000000000000000000000000000000000000000000000000000000000PES00010000001 00000000000000000000000
201606160060000100000000000000024935000000000000000249359600000000033714143609CENTRO-DE-ESTUDIOS-DIGESTIVOS-000000000024000000000000000000000000000000000000000000000000000000000000000000000000000000000000000000000000000000000000PES00010000001 00000000000000000000000
201606160060000100000000000000024936000000000000000249369600000000033714143609CENTRO-DE-ESTUDIOS-DIGESTIVOS-000000000125800000000000000000000000000000000000000000000000000000000000000000000000000000000000000000000000000000000000PES00010000001 00000000000000000000000
201606160060000100000000000000024937000000000000000249379600000000033714143609CENTRO-DE-ESTUDIOS-DIGESTIVOS-000000000053500000000000000000000000000000000000000000000000000000000000000000000000000000000000000000000000000000000000PES00010000001 00000000000000000000000
201606160060000100000000000000024938000000000000000249389600000000033714143609CENTRO-DE-ESTUDIOS-DIGESTIVOS-000000000229800000000000000000000000000000000000000000000000000000000000000000000000000000000000000000000000000000000000PES00010000001 00000000000000000000000
201606160060000100000000000000024939000000000000000249399600000000033714143609CENTRO-DE-ESTUDIOS-DIGESTIVOS-000000000135000000000000000000000000000000000000000000000000000000000000000000000000000000000000000000000000000000000000PES00010000001 00000000000000000000000
201606170060000100000000000000024940000000000000000249409600000000033714143609CENTRO-DE-ESTUDIOS-DIGESTIVOS-000000000051500000000000000000000000000000000000000000000000000000000000000000000000000000000000000000000000000000000000PES00010000001 00000000000000000000000
201606170060000100000000000000024941000000000000000249419600000000033714143609CENTRO-DE-ESTUDIOS-DIGESTIVOS-000000000052800000000000000000000000000000000000000000000000000000000000000000000000000000000000000000000000000000000000PES00010000001 00000000000000000000000
201606170060000100000000000000024942000000000000000249429600000000033714143609CENTRO-DE-ESTUDIOS-DIGESTIVOS-000000000080000000000000000000000000000000000000000000000000000000000000000000000000000000000000000000000000000000000000PES00010000001 00000000000000000000000
201606170060000100000000000000024943000000000000000249439600000000033714143609CENTRO-DE-ESTUDIOS-DIGESTIVOS-000000000059500000000000000000000000000000000000000000000000000000000000000000000000000000000000000000000000000000000000PES00010000001 00000000000000000000000
201606170060000100000000000000024944000000000000000249449600000000033714143609CENTRO-DE-ESTUDIOS-DIGESTIVOS-000000000275200000000000000000000000000000000000000000000000000000000000000000000000000000000000000000000000000000000000PES00010000001 00000000000000000000000
201606170060000100000000000000024945000000000000000249459600000000033714143609CENTRO-DE-ESTUDIOS-DIGESTIVOS-000000000235000000000000000000000000000000000000000000000000000000000000000000000000000000000000000000000000000000000000PES00010000001 00000000000000000000000
201606170060000100000000000000024946000000000000000249469600000000033714143609CENTRO-DE-ESTUDIOS-DIGESTIVOS-000000000035000000000000000000000000000000000000000000000000000000000000000000000000000000000000000000000000000000000000PES00010000001 00000000000000000000000
201606170060000100000000000000024947000000000000000249479600000000033714143609CENTRO-DE-ESTUDIOS-DIGESTIVOS-000000000028000000000000000000000000000000000000000000000000000000000000000000000000000000000000000000000000000000000000PES00010000001 00000000000000000000000
201606170060000100000000000000024948000000000000000249489600000000033714143609CENTRO-DE-ESTUDIOS-DIGESTIVOS-000000000036500000000000000000000000000000000000000000000000000000000000000000000000000000000000000000000000000000000000PES00010000001 00000000000000000000000
201606170060000100000000000000024949000000000000000249499600000000033714143609CENTRO-DE-ESTUDIOS-DIGESTIVOS-000000000026500000000000000000000000000000000000000000000000000000000000000000000000000000000000000000000000000000000000PES00010000001 00000000000000000000000
201606170060000100000000000000024950000000000000000249509600000000033714143609CENTRO-DE-ESTUDIOS-DIGESTIVOS-000000000085500000000000000000000000000000000000000000000000000000000000000000000000000000000000000000000000000000000000PES00010000001 00000000000000000000000
201606170060000100000000000000024951000000000000000249519600000000033714143609CENTRO-DE-ESTUDIOS-DIGESTIVOS-000000000106000000000000000000000000000000000000000000000000000000000000000000000000000000000000000000000000000000000000PES00010000001 00000000000000000000000
201606170060000100000000000000024952000000000000000249529600000000033714143609CENTRO-DE-ESTUDIOS-DIGESTIVOS-000000000207300000000000000000000000000000000000000000000000000000000000000000000000000000000000000000000000000000000000PES00010000001 00000000000000000000000
201606170060000100000000000000024953000000000000000249539600000000033714143609CENTRO-DE-ESTUDIOS-DIGESTIVOS-000000000106000000000000000000000000000000000000000000000000000000000000000000000000000000000000000000000000000000000000PES00010000001 00000000000000000000000
201606170060000100000000000000024954000000000000000249549600000000033714143609CENTRO-DE-ESTUDIOS-DIGESTIVOS-000000000093500000000000000000000000000000000000000000000000000000000000000000000000000000000000000000000000000000000000PES00010000001 00000000000000000000000
201606170060000100000000000000024955000000000000000249559600000000033714143609CENTRO-DE-ESTUDIOS-DIGESTIVOS-000000000022800000000000000000000000000000000000000000000000000000000000000000000000000000000000000000000000000000000000PES00010000001 00000000000000000000000
201606170060000100000000000000024956000000000000000249569600000000033714143609CENTRO-DE-ESTUDIOS-DIGESTIVOS-000000000044000000000000000000000000000000000000000000000000000000000000000000000000000000000000000000000000000000000000PES00010000001 00000000000000000000000
201606170060000100000000000000024957000000000000000249579600000000033714143609CENTRO-DE-ESTUDIOS-DIGESTIVOS-000000000253300000000000000000000000000000000000000000000000000000000000000000000000000000000000000000000000000000000000PES00010000001 00000000000000000000000
201606170060000100000000000000024958000000000000000249589600000000033714143609CENTRO-DE-ESTUDIOS-DIGESTIVOS-000000000483000000000000000000000000000000000000000000000000000000000000000000000000000000000000000000000000000000000000PES00010000001 00000000000000000000000
201606170060000100000000000000024959000000000000000249599600000000033714143609CENTRO-DE-ESTUDIOS-DIGESTIVOS-000000000062500000000000000000000000000000000000000000000000000000000000000000000000000000000000000000000000000000000000PES00010000001 00000000000000000000000
201606170060000100000000000000024960000000000000000249609600000000033714143609CENTRO-DE-ESTUDIOS-DIGESTIVOS-000000000029500000000000000000000000000000000000000000000000000000000000000000000000000000000000000000000000000000000000PES00010000001 00000000000000000000000
201606180060000100000000000000024961000000000000000249619600000000033714143609CENTRO-DE-ESTUDIOS-DIGESTIVOS-000000000046000000000000000000000000000000000000000000000000000000000000000000000000000000000000000000000000000000000000PES00010000001 00000000000000000000000
201606180060000100000000000000024962000000000000000249629600000000033714143609CENTRO-DE-ESTUDIOS-DIGESTIVOS-000000000069800000000000000000000000000000000000000000000000000000000000000000000000000000000000000000000000000000000000PES00010000001 00000000000000000000000
201606180060000100000000000000024963000000000000000249639600000000033714143609CENTRO-DE-ESTUDIOS-DIGESTIVOS-000000000042500000000000000000000000000000000000000000000000000000000000000000000000000000000000000000000000000000000000PES00010000001 00000000000000000000000
201606180060000100000000000000024964000000000000000249649600000000033714143609CENTRO-DE-ESTUDIOS-DIGESTIVOS-000000000031000000000000000000000000000000000000000000000000000000000000000000000000000000000000000000000000000000000000PES00010000001 00000000000000000000000
201606180060000100000000000000024965000000000000000249659600000000033714143609CENTRO-DE-ESTUDIOS-DIGESTIVOS-000000000058000000000000000000000000000000000000000000000000000000000000000000000000000000000000000000000000000000000000PES00010000001 00000000000000000000000
201606180060000100000000000000024966000000000000000249669600000000033714143609CENTRO-DE-ESTUDIOS-DIGESTIVOS-000000000123500000000000000000000000000000000000000000000000000000000000000000000000000000000000000000000000000000000000PES00010000001 00000000000000000000000
201606180060000100000000000000024967000000000000000249679600000000033714143609CENTRO-DE-ESTUDIOS-DIGESTIVOS-000000000079800000000000000000000000000000000000000000000000000000000000000000000000000000000000000000000000000000000000PES00010000001 00000000000000000000000
201606180060000100000000000000024968000000000000000249689600000000033714143609CENTRO-DE-ESTUDIOS-DIGESTIVOS-000000000274800000000000000000000000000000000000000000000000000000000000000000000000000000000000000000000000000000000000PES00010000001 00000000000000000000000
201606180060000100000000000000024969000000000000000249699600000000033714143609CENTRO-DE-ESTUDIOS-DIGESTIVOS-000000000035000000000000000000000000000000000000000000000000000000000000000000000000000000000000000000000000000000000000PES00010000001 00000000000000000000000
201606180060000100000000000000024970000000000000000249709600000000033714143609CENTRO-DE-ESTUDIOS-DIGESTIVOS-000000000094000000000000000000000000000000000000000000000000000000000000000000000000000000000000000000000000000000000000PES00010000001 00000000000000000000000
201606180060000100000000000000024971000000000000000249719600000000033714143609CENTRO-DE-ESTUDIOS-DIGESTIVOS-000000000067500000000000000000000000000000000000000000000000000000000000000000000000000000000000000000000000000000000000PES00010000001 00000000000000000000000
201606180060000100000000000000024972000000000000000249729600000000033714143609CENTRO-DE-ESTUDIOS-DIGESTIVOS-000000000037500000000000000000000000000000000000000000000000000000000000000000000000000000000000000000000000000000000000PES00010000001 00000000000000000000000
201606180060000100000000000000024973000000000000000249739600000000033714143609CENTRO-DE-ESTUDIOS-DIGESTIVOS-000000000013500000000000000000000000000000000000000000000000000000000000000000000000000000000000000000000000000000000000PES00010000001 00000000000000000000000
201606180060000100000000000000024974000000000000000249749600000000033714143609CENTRO-DE-ESTUDIOS-DIGESTIVOS-000000000385600000000000000000000000000000000000000000000000000000000000000000000000000000000000000000000000000000000000PES00010000001 00000000000000000000000
201606180060000100000000000000024975000000000000000249759600000000033714143609CENTRO-DE-ESTUDIOS-DIGESTIVOS-000000000433500000000000000000000000000000000000000000000000000000000000000000000000000000000000000000000000000000000000PES00010000001 00000000000000000000000
201606180060000100000000000000024976000000000000000249769600000000033714143609CENTRO-DE-ESTUDIOS-DIGESTIVOS-000000000091500000000000000000000000000000000000000000000000000000000000000000000000000000000000000000000000000000000000PES00010000001 00000000000000000000000
201606180060000100000000000000024977000000000000000249779600000000033714143609CENTRO-DE-ESTUDIOS-DIGESTIVOS-000000000033000000000000000000000000000000000000000000000000000000000000000000000000000000000000000000000000000000000000PES00010000001 00000000000000000000000
201606180060000100000000000000024978000000000000000249789600000000033714143609CENTRO-DE-ESTUDIOS-DIGESTIVOS-000000000061000000000000000000000000000000000000000000000000000000000000000000000000000000000000000000000000000000000000PES00010000001 00000000000000000000000
201606180060000100000000000000024979000000000000000249799600000000033714143609CENTRO-DE-ESTUDIOS-DIGESTIVOS-000000000089000000000000000000000000000000000000000000000000000000000000000000000000000000000000000000000000000000000000PES00010000001 00000000000000000000000
201606180060000100000000000000024980000000000000000249809600000000033714143609CENTRO-DE-ESTUDIOS-DIGESTIVOS-000000000039800000000000000000000000000000000000000000000000000000000000000000000000000000000000000000000000000000000000PES00010000001 00000000000000000000000
201606180060000100000000000000024981000000000000000249819600000000033714143609CENTRO-DE-ESTUDIOS-DIGESTIVOS-000000000078500000000000000000000000000000000000000000000000000000000000000000000000000000000000000000000000000000000000PES00010000001 00000000000000000000000
201606180060000100000000000000024982000000000000000249829600000000033714143609CENTRO-DE-ESTUDIOS-DIGESTIVOS-000000000021000000000000000000000000000000000000000000000000000000000000000000000000000000000000000000000000000000000000PES00010000001 00000000000000000000000
201606180060000100000000000000024983000000000000000249839600000000033714143609CENTRO-DE-ESTUDIOS-DIGESTIVOS-000000000149500000000000000000000000000000000000000000000000000000000000000000000000000000000000000000000000000000000000PES00010000001 00000000000000000000000
201606180060000100000000000000024984000000000000000249849600000000033714143609CENTRO-DE-ESTUDIOS-DIGESTIVOS-000000000157500000000000000000000000000000000000000000000000000000000000000000000000000000000000000000000000000000000000PES00010000001 00000000000000000000000
201606180060000100000000000000024985000000000000000249859600000000033714143609CENTRO-DE-ESTUDIOS-DIGESTIVOS-000000000106100000000000000000000000000000000000000000000000000000000000000000000000000000000000000000000000000000000000PES00010000001 00000000000000000000000
201606180060000100000000000000024986000000000000000249869600000000033714143609CENTRO-DE-ESTUDIOS-DIGESTIVOS-000000000020000000000000000000000000000000000000000000000000000000000000000000000000000000000000000000000000000000000000PES00010000001 00000000000000000000000
201606180060000100000000000000024987000000000000000249879600000000033714143609CENTRO-DE-ESTUDIOS-DIGESTIVOS-000000000051000000000000000000000000000000000000000000000000000000000000000000000000000000000000000000000000000000000000PES00010000001 00000000000000000000000
201606180060000100000000000000024988000000000000000249889600000000033714143609CENTRO-DE-ESTUDIOS-DIGESTIVOS-000000000083500000000000000000000000000000000000000000000000000000000000000000000000000000000000000000000000000000000000PES00010000001 00000000000000000000000
201606180060000100000000000000024989000000000000000249899600000000033714143609CENTRO-DE-ESTUDIOS-DIGESTIVOS-000000000078500000000000000000000000000000000000000000000000000000000000000000000000000000000000000000000000000000000000PES00010000001 00000000000000000000000
201606180060000100000000000000024990000000000000000249909600000000033714143609CENTRO-DE-ESTUDIOS-DIGESTIVOS-000000000015000000000000000000000000000000000000000000000000000000000000000000000000000000000000000000000000000000000000PES00010000001 00000000000000000000000
201606180060000100000000000000024991000000000000000249919600000000033714143609CENTRO-DE-ESTUDIOS-DIGESTIVOS-000000000060500000000000000000000000000000000000000000000000000000000000000000000000000000000000000000000000000000000000PES00010000001 00000000000000000000000
201606180060000100000000000000024992000000000000000249929600000000033714143609CENTRO-DE-ESTUDIOS-DIGESTIVOS-000000000039800000000000000000000000000000000000000000000000000000000000000000000000000000000000000000000000000000000000PES00010000001 00000000000000000000000
201606180060000100000000000000024993000000000000000249939600000000033714143609CENTRO-DE-ESTUDIOS-DIGESTIVOS-000000000029300000000000000000000000000000000000000000000000000000000000000000000000000000000000000000000000000000000000PES00010000001 00000000000000000000000
201606180060000100000000000000024994000000000000000249949600000000033714143609CENTRO-DE-ESTUDIOS-DIGESTIVOS-000000000101800000000000000000000000000000000000000000000000000000000000000000000000000000000000000000000000000000000000PES00010000001 00000000000000000000000
201606180060000100000000000000024995000000000000000249959600000000033714143609CENTRO-DE-ESTUDIOS-DIGESTIVOS-000000000156000000000000000000000000000000000000000000000000000000000000000000000000000000000000000000000000000000000000PES00010000001 00000000000000000000000
201606180060000100000000000000024996000000000000000249969600000000033714143609CENTRO-DE-ESTUDIOS-DIGESTIVOS-000000000023500000000000000000000000000000000000000000000000000000000000000000000000000000000000000000000000000000000000PES00010000001 00000000000000000000000
201606180060000100000000000000024997000000000000000249979600000000033714143609CENTRO-DE-ESTUDIOS-DIGESTIVOS-000000000089100000000000000000000000000000000000000000000000000000000000000000000000000000000000000000000000000000000000PES00010000001 00000000000000000000000
201606180060000100000000000000024998000000000000000249989600000000033714143609CENTRO-DE-ESTUDIOS-DIGESTIVOS-000000000351300000000000000000000000000000000000000000000000000000000000000000000000000000000000000000000000000000000000PES00010000001 00000000000000000000000
201606180060000100000000000000024999000000000000000249999600000000033714143609CENTRO-DE-ESTUDIOS-DIGESTIVOS-000000000124800000000000000000000000000000000000000000000000000000000000000000000000000000000000000000000000000000000000PES00010000001 00000000000000000000000
201606180060000100000000000000025000000000000000000250009600000000033714143609CENTRO-DE-ESTUDIOS-DIGESTIVOS-000000000130000000000000000000000000000000000000000000000000000000000000000000000000000000000000000000000000000000000000PES00010000001 00000000000000000000000
201606180060000100000000000000025001000000000000000250019600000000033714143609CENTRO-DE-ESTUDIOS-DIGESTIVOS-000000000116100000000000000000000000000000000000000000000000000000000000000000000000000000000000000000000000000000000000PES00010000001 00000000000000000000000
201606180060000100000000000000025002000000000000000250029600000000033714143609CENTRO-DE-ESTUDIOS-DIGESTIVOS-000000000069000000000000000000000000000000000000000000000000000000000000000000000000000000000000000000000000000000000000PES00010000001 00000000000000000000000
201606180060000100000000000000025003000000000000000250039600000000033714143609CENTRO-DE-ESTUDIOS-DIGESTIVOS-000000000059500000000000000000000000000000000000000000000000000000000000000000000000000000000000000000000000000000000000PES00010000001 00000000000000000000000
201606180060000100000000000000025004000000000000000250049600000000033714143609CENTRO-DE-ESTUDIOS-DIGESTIVOS-000000000124500000000000000000000000000000000000000000000000000000000000000000000000000000000000000000000000000000000000PES00010000001 00000000000000000000000
201606180060000100000000000000025005000000000000000250059600000000033714143609CENTRO-DE-ESTUDIOS-DIGESTIVOS-000000000208800000000000000000000000000000000000000000000000000000000000000000000000000000000000000000000000000000000000PES00010000001 00000000000000000000000
201606180060000100000000000000025006000000000000000250069600000000033714143609CENTRO-DE-ESTUDIOS-DIGESTIVOS-000000000049000000000000000000000000000000000000000000000000000000000000000000000000000000000000000000000000000000000000PES00010000001 00000000000000000000000
201606180060000100000000000000025007000000000000000250079600000000033714143609CENTRO-DE-ESTUDIOS-DIGESTIVOS-000000000051000000000000000000000000000000000000000000000000000000000000000000000000000000000000000000000000000000000000PES00010000001 00000000000000000000000
201606180060000100000000000000025008000000000000000250089600000000033714143609CENTRO-DE-ESTUDIOS-DIGESTIVOS-000000000019800000000000000000000000000000000000000000000000000000000000000000000000000000000000000000000000000000000000PES00010000001 00000000000000000000000
201606180060000100000000000000025009000000000000000250099600000000033714143609CENTRO-DE-ESTUDIOS-DIGESTIVOS-000000000152000000000000000000000000000000000000000000000000000000000000000000000000000000000000000000000000000000000000PES00010000001 00000000000000000000000
201606180060000100000000000000025010000000000000000250109600000000033714143609CENTRO-DE-ESTUDIOS-DIGESTIVOS-000000000025000000000000000000000000000000000000000000000000000000000000000000000000000000000000000000000000000000000000PES00010000001 00000000000000000000000
201606180060000100000000000000025011000000000000000250119600000000033714143609CENTRO-DE-ESTUDIOS-DIGESTIVOS-000000000045500000000000000000000000000000000000000000000000000000000000000000000000000000000000000000000000000000000000PES00010000001 00000000000000000000000
201606180060000100000000000000025012000000000000000250129600000000033714143609CENTRO-DE-ESTUDIOS-DIGESTIVOS-000000000119800000000000000000000000000000000000000000000000000000000000000000000000000000000000000000000000000000000000PES00010000001 00000000000000000000000
201606180060000100000000000000025013000000000000000250139600000000033714143609CENTRO-DE-ESTUDIOS-DIGESTIVOS-000000000247500000000000000000000000000000000000000000000000000000000000000000000000000000000000000000000000000000000000PES00010000001 00000000000000000000000
201606180060000100000000000000025014000000000000000250149600000000033714143609CENTRO-DE-ESTUDIOS-DIGESTIVOS-000000000022000000000000000000000000000000000000000000000000000000000000000000000000000000000000000000000000000000000000PES00010000001 00000000000000000000000
201606180060000100000000000000025015000000000000000250159600000000033714143609CENTRO-DE-ESTUDIOS-DIGESTIVOS-000000000159000000000000000000000000000000000000000000000000000000000000000000000000000000000000000000000000000000000000PES00010000001 00000000000000000000000
201606180060000100000000000000025016000000000000000250169600000000033714143609CENTRO-DE-ESTUDIOS-DIGESTIVOS-000000000076900000000000000000000000000000000000000000000000000000000000000000000000000000000000000000000000000000000000PES00010000001 00000000000000000000000
201606180060000100000000000000025017000000000000000250179600000000033714143609CENTRO-DE-ESTUDIOS-DIGESTIVOS-000000000055000000000000000000000000000000000000000000000000000000000000000000000000000000000000000000000000000000000000PES00010000001 00000000000000000000000
201606180060000100000000000000025018000000000000000250189600000000033714143609CENTRO-DE-ESTUDIOS-DIGESTIVOS-000000000049800000000000000000000000000000000000000000000000000000000000000000000000000000000000000000000000000000000000PES00010000001 00000000000000000000000
201606180060000100000000000000025019000000000000000250199600000000033714143609CENTRO-DE-ESTUDIOS-DIGESTIVOS-000000000032500000000000000000000000000000000000000000000000000000000000000000000000000000000000000000000000000000000000PES00010000001 00000000000000000000000
201606180060000100000000000000025020000000000000000250209600000000033714143609CENTRO-DE-ESTUDIOS-DIGESTIVOS-000000000066000000000000000000000000000000000000000000000000000000000000000000000000000000000000000000000000000000000000PES00010000001 00000000000000000000000
201606180060000100000000000000025021000000000000000250219600000000033714143609CENTRO-DE-ESTUDIOS-DIGESTIVOS-000000000057500000000000000000000000000000000000000000000000000000000000000000000000000000000000000000000000000000000000PES00010000001 00000000000000000000000
201606180060000100000000000000025022000000000000000250229600000000033714143609CENTRO-DE-ESTUDIOS-DIGESTIVOS-000000000061000000000000000000000000000000000000000000000000000000000000000000000000000000000000000000000000000000000000PES00010000001 00000000000000000000000
201606180060000100000000000000025023000000000000000250239600000000033714143609CENTRO-DE-ESTUDIOS-DIGESTIVOS-000000000118800000000000000000000000000000000000000000000000000000000000000000000000000000000000000000000000000000000000PES00010000001 00000000000000000000000
201606180060000100000000000000025024000000000000000250249600000000033714143609CENTRO-DE-ESTUDIOS-DIGESTIVOS-000000000018800000000000000000000000000000000000000000000000000000000000000000000000000000000000000000000000000000000000PES00010000001 00000000000000000000000
201606210060000100000000000000025025000000000000000250259600000000033714143609CENTRO-DE-ESTUDIOS-DIGESTIVOS-000000000013500000000000000000000000000000000000000000000000000000000000000000000000000000000000000000000000000000000000PES00010000001 00000000000000000000000
201606210060000100000000000000025026000000000000000250269600000000033714143609CENTRO-DE-ESTUDIOS-DIGESTIVOS-000000000055000000000000000000000000000000000000000000000000000000000000000000000000000000000000000000000000000000000000PES00010000001 00000000000000000000000
201606210060000100000000000000025027000000000000000250279600000000033714143609CENTRO-DE-ESTUDIOS-DIGESTIVOS-000000000037500000000000000000000000000000000000000000000000000000000000000000000000000000000000000000000000000000000000PES00010000001 00000000000000000000000
201606210060000100000000000000025028000000000000000250289600000000033714143609CENTRO-DE-ESTUDIOS-DIGESTIVOS-000000000128300000000000000000000000000000000000000000000000000000000000000000000000000000000000000000000000000000000000PES00010000001 00000000000000000000000
201606210060000100000000000000025029000000000000000250299600000000033714143609CENTRO-DE-ESTUDIOS-DIGESTIVOS-000000000051000000000000000000000000000000000000000000000000000000000000000000000000000000000000000000000000000000000000PES00010000001 00000000000000000000000
201606210060000100000000000000025030000000000000000250309600000000033714143609CENTRO-DE-ESTUDIOS-DIGESTIVOS-000000000026000000000000000000000000000000000000000000000000000000000000000000000000000000000000000000000000000000000000PES00010000001 00000000000000000000000
201606210060000100000000000000025031000000000000000250319600000000033714143609CENTRO-DE-ESTUDIOS-DIGESTIVOS-000000000038500000000000000000000000000000000000000000000000000000000000000000000000000000000000000000000000000000000000PES00010000001 00000000000000000000000
201606210060000100000000000000025032000000000000000250329600000000033714143609CENTRO-DE-ESTUDIOS-DIGESTIVOS-000000000032000000000000000000000000000000000000000000000000000000000000000000000000000000000000000000000000000000000000PES00010000001 00000000000000000000000
201606210060000100000000000000025033000000000000000250339600000000033714143609CENTRO-DE-ESTUDIOS-DIGESTIVOS-000000000041500000000000000000000000000000000000000000000000000000000000000000000000000000000000000000000000000000000000PES00010000001 00000000000000000000000
201606210060000100000000000000025035000000000000000250359600000000033714143609CENTRO-DE-ESTUDIOS-DIGESTIVOS-000000000057500000000000000000000000000000000000000000000000000000000000000000000000000000000000000000000000000000000000PES00010000001 00000000000000000000000
201606210060000100000000000000025036000000000000000250369600000000033714143609CENTRO-DE-ESTUDIOS-DIGESTIVOS-000000000015000000000000000000000000000000000000000000000000000000000000000000000000000000000000000000000000000000000000PES00010000001 00000000000000000000000
201606210060000100000000000000025037000000000000000250379600000000033714143609CENTRO-DE-ESTUDIOS-DIGESTIVOS-000000000021500000000000000000000000000000000000000000000000000000000000000000000000000000000000000000000000000000000000PES00010000001 00000000000000000000000
201606220060000100000000000000025038000000000000000250389600000000033714143609CENTRO-DE-ESTUDIOS-DIGESTIVOS-000000000021000000000000000000000000000000000000000000000000000000000000000000000000000000000000000000000000000000000000PES00010000001 00000000000000000000000
201606220060000100000000000000025039000000000000000250399600000000033714143609CENTRO-DE-ESTUDIOS-DIGESTIVOS-000000000077200000000000000000000000000000000000000000000000000000000000000000000000000000000000000000000000000000000000PES00010000001 00000000000000000000000
201606220060000100000000000000025040000000000000000250409600000000033714143609CENTRO-DE-ESTUDIOS-DIGESTIVOS-000000000020000000000000000000000000000000000000000000000000000000000000000000000000000000000000000000000000000000000000PES00010000001 00000000000000000000000
201606220060000100000000000000025041000000000000000250419600000000033714143609CENTRO-DE-ESTUDIOS-DIGESTIVOS-000000000018000000000000000000000000000000000000000000000000000000000000000000000000000000000000000000000000000000000000PES00010000001 00000000000000000000000
201606220060000100000000000000025042000000000000000250429600000000033714143609CENTRO-DE-ESTUDIOS-DIGESTIVOS-000000000137300000000000000000000000000000000000000000000000000000000000000000000000000000000000000000000000000000000000PES00010000001 00000000000000000000000
201606220060000100000000000000025043000000000000000250439600000000033714143609CENTRO-DE-ESTUDIOS-DIGESTIVOS-000000000035000000000000000000000000000000000000000000000000000000000000000000000000000000000000000000000000000000000000PES00010000001 00000000000000000000000
201606220060000100000000000000025044000000000000000250449600000000033714143609CENTRO-DE-ESTUDIOS-DIGESTIVOS-000000000034000000000000000000000000000000000000000000000000000000000000000000000000000000000000000000000000000000000000PES00010000001 00000000000000000000000
201606220060000100000000000000025045000000000000000250459600000000033714143609CENTRO-DE-ESTUDIOS-DIGESTIVOS-000000000047500000000000000000000000000000000000000000000000000000000000000000000000000000000000000000000000000000000000PES00010000001 00000000000000000000000
201606220060000100000000000000025046000000000000000250469600000000033714143609CENTRO-DE-ESTUDIOS-DIGESTIVOS-000000000019300000000000000000000000000000000000000000000000000000000000000000000000000000000000000000000000000000000000PES00010000001 00000000000000000000000
201606230060000100000000000000025047000000000000000250479600000000033714143609CENTRO-DE-ESTUDIOS-DIGESTIVOS-000000000085000000000000000000000000000000000000000000000000000000000000000000000000000000000000000000000000000000000000PES00010000001 00000000000000000000000
201606230060000100000000000000025048000000000000000250489600000000033714143609CENTRO-DE-ESTUDIOS-DIGESTIVOS-000000000127000000000000000000000000000000000000000000000000000000000000000000000000000000000000000000000000000000000000PES00010000001 00000000000000000000000
201606230060000100000000000000025049000000000000000250499600000000033714143609CENTRO-DE-ESTUDIOS-DIGESTIVOS-000000000012000000000000000000000000000000000000000000000000000000000000000000000000000000000000000000000000000000000000PES00010000001 00000000000000000000000
201606230060000100000000000000025050000000000000000250509600000000033714143609CENTRO-DE-ESTUDIOS-DIGESTIVOS-000000000088000000000000000000000000000000000000000000000000000000000000000000000000000000000000000000000000000000000000PES00010000001 00000000000000000000000
201606230060000100000000000000025051000000000000000250519600000000033714143609CENTRO-DE-ESTUDIOS-DIGESTIVOS-000000000042000000000000000000000000000000000000000000000000000000000000000000000000000000000000000000000000000000000000PES00010000001 00000000000000000000000
201606230060000100000000000000025052000000000000000250529600000000033714143609CENTRO-DE-ESTUDIOS-DIGESTIVOS-000000000033500000000000000000000000000000000000000000000000000000000000000000000000000000000000000000000000000000000000PES00010000001 00000000000000000000000
201606240060000100000000000000025053000000000000000250539600000000033714143609CENTRO-DE-ESTUDIOS-DIGESTIVOS-000000000036000000000000000000000000000000000000000000000000000000000000000000000000000000000000000000000000000000000000PES00010000001 00000000000000000000000
201606240060000100000000000000025054000000000000000250549600000000033714143609CENTRO-DE-ESTUDIOS-DIGESTIVOS-000000000081000000000000000000000000000000000000000000000000000000000000000000000000000000000000000000000000000000000000PES00010000001 00000000000000000000000
201606240060000100000000000000025055000000000000000250559600000000033714143609CENTRO-DE-ESTUDIOS-DIGESTIVOS-000000000086000000000000000000000000000000000000000000000000000000000000000000000000000000000000000000000000000000000000PES00010000001 00000000000000000000000
201606240060000100000000000000025056000000000000000250569600000000033714143609CENTRO-DE-ESTUDIOS-DIGESTIVOS-000000000035000000000000000000000000000000000000000000000000000000000000000000000000000000000000000000000000000000000000PES00010000001 00000000000000000000000
201606240060000100000000000000025057000000000000000250579600000000033714143609CENTRO-DE-ESTUDIOS-DIGESTIVOS-000000000050300000000000000000000000000000000000000000000000000000000000000000000000000000000000000000000000000000000000PES00010000001 00000000000000000000000
201606240060000100000000000000025058000000000000000250589600000000033714143609CENTRO-DE-ESTUDIOS-DIGESTIVOS-000000000142500000000000000000000000000000000000000000000000000000000000000000000000000000000000000000000000000000000000PES00010000001 00000000000000000000000
201606240060000100000000000000025059000000000000000250599600000000033714143609CENTRO-DE-ESTUDIOS-DIGESTIVOS-000000000107500000000000000000000000000000000000000000000000000000000000000000000000000000000000000000000000000000000000PES00010000001 00000000000000000000000
201606240060000100000000000000025060000000000000000250609600000000033714143609CENTRO-DE-ESTUDIOS-DIGESTIVOS-000000000042500000000000000000000000000000000000000000000000000000000000000000000000000000000000000000000000000000000000PES00010000001 00000000000000000000000
201606240060000100000000000000025061000000000000000250619600000000033714143609CENTRO-DE-ESTUDIOS-DIGESTIVOS-000000000042500000000000000000000000000000000000000000000000000000000000000000000000000000000000000000000000000000000000PES00010000001 00000000000000000000000
201606250060000100000000000000025062000000000000000250629600000000033714143609CENTRO-DE-ESTUDIOS-DIGESTIVOS-000000000030800000000000000000000000000000000000000000000000000000000000000000000000000000000000000000000000000000000000PES00010000001 00000000000000000000000
201606250060000100000000000000025063000000000000000250639600000000033714143609CENTRO-DE-ESTUDIOS-DIGESTIVOS-000000000298500000000000000000000000000000000000000000000000000000000000000000000000000000000000000000000000000000000000PES00010000001 00000000000000000000000
201606250060000100000000000000025064000000000000000250649600000000033714143609CENTRO-DE-ESTUDIOS-DIGESTIVOS-000000000121500000000000000000000000000000000000000000000000000000000000000000000000000000000000000000000000000000000000PES00010000001 00000000000000000000000
201606250060000100000000000000025065000000000000000250659600000000033714143609CENTRO-DE-ESTUDIOS-DIGESTIVOS-000000000077500000000000000000000000000000000000000000000000000000000000000000000000000000000000000000000000000000000000PES00010000001 00000000000000000000000
201606250060000100000000000000025066000000000000000250669600000000033714143609CENTRO-DE-ESTUDIOS-DIGESTIVOS-000000000235500000000000000000000000000000000000000000000000000000000000000000000000000000000000000000000000000000000000PES00010000001 00000000000000000000000
201606250060000100000000000000025067000000000000000250679600000000033714143609CENTRO-DE-ESTUDIOS-DIGESTIVOS-000000000035000000000000000000000000000000000000000000000000000000000000000000000000000000000000000000000000000000000000PES00010000001 00000000000000000000000
201606250060000100000000000000025068000000000000000250689600000000033714143609CENTRO-DE-ESTUDIOS-DIGESTIVOS-000000000006000000000000000000000000000000000000000000000000000000000000000000000000000000000000000000000000000000000000PES00010000001 00000000000000000000000
201606250060000100000000000000025069000000000000000250699600000000033714143609CENTRO-DE-ESTUDIOS-DIGESTIVOS-000000000105900000000000000000000000000000000000000000000000000000000000000000000000000000000000000000000000000000000000PES00010000001 00000000000000000000000
201606250060000100000000000000025070000000000000000250709600000000033714143609CENTRO-DE-ESTUDIOS-DIGESTIVOS-000000000023500000000000000000000000000000000000000000000000000000000000000000000000000000000000000000000000000000000000PES00010000001 00000000000000000000000
201606250060000100000000000000025071000000000000000250719600000000033714143609CENTRO-DE-ESTUDIOS-DIGESTIVOS-000000000026500000000000000000000000000000000000000000000000000000000000000000000000000000000000000000000000000000000000PES00010000001 00000000000000000000000
201606250060000100000000000000025072000000000000000250729600000000033714143609CENTRO-DE-ESTUDIOS-DIGESTIVOS-000000000099500000000000000000000000000000000000000000000000000000000000000000000000000000000000000000000000000000000000PES00010000001 00000000000000000000000
201606250060000100000000000000025073000000000000000250739600000000033714143609CENTRO-DE-ESTUDIOS-DIGESTIVOS-000000000066000000000000000000000000000000000000000000000000000000000000000000000000000000000000000000000000000000000000PES00010000001 00000000000000000000000
201606250060000100000000000000025074000000000000000250749600000000033714143609CENTRO-DE-ESTUDIOS-DIGESTIVOS-000000000042700000000000000000000000000000000000000000000000000000000000000000000000000000000000000000000000000000000000PES00010000001 00000000000000000000000
201606250060000100000000000000025075000000000000000250759600000000033714143609CENTRO-DE-ESTUDIOS-DIGESTIVOS-000000000039800000000000000000000000000000000000000000000000000000000000000000000000000000000000000000000000000000000000PES00010000001 00000000000000000000000
201606250060000100000000000000025076000000000000000250769600000000033714143609CENTRO-DE-ESTUDIOS-DIGESTIVOS-000000000008500000000000000000000000000000000000000000000000000000000000000000000000000000000000000000000000000000000000PES00010000001 00000000000000000000000
201606250060000100000000000000025077000000000000000250779600000000033714143609CENTRO-DE-ESTUDIOS-DIGESTIVOS-000000000016500000000000000000000000000000000000000000000000000000000000000000000000000000000000000000000000000000000000PES00010000001 00000000000000000000000
201606270060000100000000000000025078000000000000000250789600000000033714143609CENTRO-DE-ESTUDIOS-DIGESTIVOS-000000000020000000000000000000000000000000000000000000000000000000000000000000000000000000000000000000000000000000000000PES00010000001 00000000000000000000000
201606270060000100000000000000025079000000000000000250799600000000033714143609CENTRO-DE-ESTUDIOS-DIGESTIVOS-000000000092500000000000000000000000000000000000000000000000000000000000000000000000000000000000000000000000000000000000PES00010000001 00000000000000000000000
201606270060000100000000000000025080000000000000000250809600000000033714143609CENTRO-DE-ESTUDIOS-DIGESTIVOS-000000000067000000000000000000000000000000000000000000000000000000000000000000000000000000000000000000000000000000000000PES00010000001 00000000000000000000000
201606270060000100000000000000025081000000000000000250819600000000033714143609CENTRO-DE-ESTUDIOS-DIGESTIVOS-000000000080000000000000000000000000000000000000000000000000000000000000000000000000000000000000000000000000000000000000PES00010000001 00000000000000000000000
201606270060000100000000000000025082000000000000000250829600000000033714143609CENTRO-DE-ESTUDIOS-DIGESTIVOS-000000000051500000000000000000000000000000000000000000000000000000000000000000000000000000000000000000000000000000000000PES00010000001 00000000000000000000000
201606270060000100000000000000025083000000000000000250839600000000033714143609CENTRO-DE-ESTUDIOS-DIGESTIVOS-000000000210000000000000000000000000000000000000000000000000000000000000000000000000000000000000000000000000000000000000PES00010000001 00000000000000000000000
201606270060000100000000000000025084000000000000000250849600000000033714143609CENTRO-DE-ESTUDIOS-DIGESTIVOS-000000000018500000000000000000000000000000000000000000000000000000000000000000000000000000000000000000000000000000000000PES00010000001 00000000000000000000000
201606270060000100000000000000025085000000000000000250859600000000033714143609CENTRO-DE-ESTUDIOS-DIGESTIVOS-000000000022500000000000000000000000000000000000000000000000000000000000000000000000000000000000000000000000000000000000PES00010000001 00000000000000000000000
201606270060000100000000000000025086000000000000000250869600000000033714143609CENTRO-DE-ESTUDIOS-DIGESTIVOS-000000000022500000000000000000000000000000000000000000000000000000000000000000000000000000000000000000000000000000000000PES00010000001 00000000000000000000000
201606270060000100000000000000025087000000000000000250879600000000033714143609CENTRO-DE-ESTUDIOS-DIGESTIVOS-000000000097800000000000000000000000000000000000000000000000000000000000000000000000000000000000000000000000000000000000PES00010000001 00000000000000000000000
201606270060000100000000000000025088000000000000000250889600000000033714143609CENTRO-DE-ESTUDIOS-DIGESTIVOS-000000000065000000000000000000000000000000000000000000000000000000000000000000000000000000000000000000000000000000000000PES00010000001 00000000000000000000000
201606270060000100000000000000025089000000000000000250899600000000033714143609CENTRO-DE-ESTUDIOS-DIGESTIVOS-000000000052000000000000000000000000000000000000000000000000000000000000000000000000000000000000000000000000000000000000PES00010000001 00000000000000000000000
201606270060000100000000000000025090000000000000000250909600000000033714143609CENTRO-DE-ESTUDIOS-DIGESTIVOS-000000000114000000000000000000000000000000000000000000000000000000000000000000000000000000000000000000000000000000000000PES00010000001 00000000000000000000000
201606270060000100000000000000025091000000000000000250919600000000033714143609CENTRO-DE-ESTUDIOS-DIGESTIVOS-000000000038500000000000000000000000000000000000000000000000000000000000000000000000000000000000000000000000000000000000PES00010000001 00000000000000000000000
201606280060000100000000000000025092000000000000000250929600000000033714143609CENTRO-DE-ESTUDIOS-DIGESTIVOS-000000000095500000000000000000000000000000000000000000000000000000000000000000000000000000000000000000000000000000000000PES00010000001 00000000000000000000000
201606280060000100000000000000025093000000000000000250939600000000033714143609CENTRO-DE-ESTUDIOS-DIGESTIVOS-000000000018500000000000000000000000000000000000000000000000000000000000000000000000000000000000000000000000000000000000PES00010000001 00000000000000000000000
201606280060000100000000000000025094000000000000000250949600000000033714143609CENTRO-DE-ESTUDIOS-DIGESTIVOS-000000000052500000000000000000000000000000000000000000000000000000000000000000000000000000000000000000000000000000000000PES00010000001 00000000000000000000000
201606280060000100000000000000025095000000000000000250959600000000033714143609CENTRO-DE-ESTUDIOS-DIGESTIVOS-000000000008500000000000000000000000000000000000000000000000000000000000000000000000000000000000000000000000000000000000PES00010000001 00000000000000000000000
201606280060000100000000000000025096000000000000000250969600000000033714143609CENTRO-DE-ESTUDIOS-DIGESTIVOS-000000000025000000000000000000000000000000000000000000000000000000000000000000000000000000000000000000000000000000000000PES00010000001 00000000000000000000000
201606280060000100000000000000025097000000000000000250979600000000033714143609CENTRO-DE-ESTUDIOS-DIGESTIVOS-000000000068500000000000000000000000000000000000000000000000000000000000000000000000000000000000000000000000000000000000PES00010000001 00000000000000000000000
201606280060000100000000000000025098000000000000000250989600000000033714143609CENTRO-DE-ESTUDIOS-DIGESTIVOS-000000000026000000000000000000000000000000000000000000000000000000000000000000000000000000000000000000000000000000000000PES00010000001 00000000000000000000000
201606280060000100000000000000025099000000000000000250999600000000033714143609CENTRO-DE-ESTUDIOS-DIGESTIVOS-000000000096500000000000000000000000000000000000000000000000000000000000000000000000000000000000000000000000000000000000PES00010000001 00000000000000000000000
201606280060000100000000000000025100000000000000000251009600000000033714143609CENTRO-DE-ESTUDIOS-DIGESTIVOS-000000000052000000000000000000000000000000000000000000000000000000000000000000000000000000000000000000000000000000000000PES00010000001 00000000000000000000000
201606280060000100000000000000025101000000000000000251019600000000033714143609CENTRO-DE-ESTUDIOS-DIGESTIVOS-000000000097500000000000000000000000000000000000000000000000000000000000000000000000000000000000000000000000000000000000PES00010000001 00000000000000000000000
201606290060000100000000000000025102000000000000000251029600000000033714143609CENTRO-DE-ESTUDIOS-DIGESTIVOS-000000000078800000000000000000000000000000000000000000000000000000000000000000000000000000000000000000000000000000000000PES00010000001 00000000000000000000000
201606290060000100000000000000025103000000000000000251039600000000033714143609CENTRO-DE-ESTUDIOS-DIGESTIVOS-000000000033500000000000000000000000000000000000000000000000000000000000000000000000000000000000000000000000000000000000PES00010000001 00000000000000000000000
201606290060000100000000000000025104000000000000000251049600000000033714143609CENTRO-DE-ESTUDIOS-DIGESTIVOS-000000000261500000000000000000000000000000000000000000000000000000000000000000000000000000000000000000000000000000000000PES00010000001 00000000000000000000000
201606300060000100000000000000025106000000000000000251069600000000033714143609CENTRO-DE-ESTUDIOS-DIGESTIVOS-000000000018000000000000000000000000000000000000000000000000000000000000000000000000000000000000000000000000000000000000PES00010000001 00000000000000000000000
