201506060010000800000000000000050594                8000000000030545726722SOCIEDAD-COOP-POPULAR-LIM-DE  000000000191158000000000000000000000000000000000000000000000000000000000000000000000000000000000000000000000000000000000PES00010000001000000000000000000000000000000000000000000                              000000000000000
201506010010000300000000000000002335                8000000000030711190895AUSTRAL-ALARMAS-SRL           000000000030250000000000000000000000000000000000000000000000000000000000000000000000000000000000000000000000000000000000PES00010000001000000000000000000000000000000000000000000                              000000000000000
201506020010000400000000000000000014                8000000000020126715111ALEJANDRO-LUIS-BUSTOS         000000000021175000000000000000000000000000000000000000000000000000000000000000000000000000000000000000000000000000000000PES00010000001000000000000000000000000000000000000000000                              000000000000000
201506020010000300000000000000000171                8000000000020222552134GUSTAVO-A-GARCIA              000000000360000000000000000000000000000000000000000000000000000000000000000000000000000000000000000000000000000000000000PES00010000001000000000000000000000000000000000000000000                              000000000000000
201506010010000100000000000000016747                8000000000030708873043ECON-CASA-SRL                 000000000123127000000000000000000000000000000000000000000000000000000000000000000000000000000000000000000000000000000000PES00010000001000000000000000000000000000000000000000000                              000000000000000
201506030010000100000000000000002091                8000000000027300361469PAULA-AGUSTINA-INGLESE        000000001899738000000000000000000000000000000000000000000000000000000000000000000000000000000000000000000000000000000000PES00010000001000000000000000000000000000000000000000000                              000000000000000
201506020010009800000000000000007595                8000000000030709007161AXEN-SRL                      000000000376249000000000000000000000000000000000000000000000000000000000000000000000000000000000000000000000000000000000PES00010000001000000000000000000000000000000000000000000                              000000000000000
201506080010000100000000000000001988                8000000000023247772669JORGE-PAULOS-ANTUNES          000000000082002000000000000000000000000000000000000000000000000000000000000000000000000000000000000000000000000000000000PES00010000001000000000000000000000000000000000000000000                              000000000000000
201506050010000100000000000000022221                8000000000030611800408GECE-SRL                      000000001208140000000000000000000000000000000000000000000000000000000000000000000000000000000000000000000000000000000000PES00010000001000000000000000000000000000000000000000000                              000000000000000
201506100010000100000000000000000085                8000000000030714643319MADROAL-Y-GROSHAUS-SH         000000000059999000000000000000000000000000000000000000000000000000000000000000000000000000000000000000000000000000000000PES00010000001000000000000000000000000000000000000000000                              000000000000000
201506050010000100000000000000007956                8000000000030709516864GENKO-SA                      000000000369766000000000000000000000000000000000000000000000000000000000000000000000000000000000000000000000000000000000PES00010000001000000000000000000000000000000000000000000                              000000000000000
201506110010000100000000000000000008                8000000000030714670618CONDOMINIO-DE-BERSAIS-CESAR-L 000000002662000000000000000000000000000000000000000000000000000000000000000000000000000000000000000000000000000000000000PES00010000001000000000000000000000000000000000000000000                              000000000000000
201506120010001100000000000000000463                8000000000030670288613DISTRIBUIDORA-LOA-SA          000000000053414000000000000000000000000000000000000000000000000000000000000000000000000000000000000000000000000000000000PES00010000001000000000000000000000000000000000000000000                              000000000000000
201506020010000100000000000000010023                8000000000020161974847FABIAN-GERONIMO               000000000498515000000000000000000000000000000000000000000000000000000000000000000000000000000000000000000000000000000000PES00010000001000000000000000000000000000000000000000000                              000000000000000
201506090010000100000000000000002099                8000000000027300361469PAULA-AGUSTINA-INGLESE        000000001110780000000000000000000000000000000000000000000000000000000000000000000000000000000000000000000000000000000000PES00010000001000000000000000000000000000000000000000000                              000000000000000
201506100010000100000000000020150513                8000000000030639453975TELEFONICA-DE-ARG-SA          000000000085997000000000000000000000000000000000000000000000000000000000000000000000000000000000000000000000000000000000PES00010000001000000000000000000000000000000000000000000                              000000000000000
201506110010000400000000000007904230                8000000000030657864427CAMUZZI-GAS-DEL-SUR           000000000011735000000000000000000000000000000000000000000000000000000000000000000000000000000000000000000000000000000000PES00010000001000000000000000000000000000000000000000000                              000000000000000
201506180010000400000000000000000095                8000000000020126715111ALEJANDRO-LUIS-BUSTOS         000000000027802000000000000000000000000000000000000000000000000000000000000000000000000000000000000000000000000000000000PES00010000001000000000000000000000000000000000000000000                              000000000000000
201506190010002400000000000000000404                8000000000030670288613DISTRIBUIDORA-LOA-SA          000000000032549000000000000000000000000000000000000000000000000000000000000000000000000000000000000000000000000000000000PES00010000001000000000000000000000000000000000000000000                              000000000000000
201506080010000400000000000000121264                8000000000030708926155TRANSPORTES-UNION-SA          000000000427263000000000000000000000000000000000000000000000000000000000000000000000000000000000000000000000000000000000PES00010000001000000000000000000000000000000000000000000                              000000000000000
201506230010000200000000000000001221                8000000000030521034129LOS-ANDES-SCPA                000000002999999000000000000000000000000000000000000000000000000000000000000000000000000000000000000000000000000000000000PES00010000001000000000000000000000000000000000000000000                              000000000000000
201506220010000100000000000000002114                8000000000027300361469PAULA-AGUSTINA-INGLESE        000000000519458000000000000000000000000000000000000000000000000000000000000000000000000000000000000000000000000000000000PES00010000001000000000000000000000000000000000000000000                              000000000000000
201506260010000100000000000000002026                8000000000023247772669JORGE-PAULOS-ANTUNES          000000000540000000000000000000000000000000000000000000000000000000000000000000000000000000000000000000000000000000000000PES00010000001000000000000000000000000000000000000000000                              000000000000000
201506270010000400000000000000000149                8000000000020126715111ALEJANDRO-LUIS-BUSTOS         000000000020410000000000000000000000000000000000000000000000000000000000000000000000000000000000000000000000000000000000PES00010000001000000000000000000000000000000000000000000                              000000000000000
201506290010000200000000000000056481                8000000000030707986324VELAS-DE-LOS-MILAGROS-SRL     000000000227637000000000000000000000000000000000000000000000000000000000000000000000000000000000000000000000000000000000PES00010000001000000000000000000000000000000000000000000                              000000000000000
201506290010000200000000000000056482                8000000000030707986324VELAS-DE-LOS-MILAGROS-SRL     000000000764040000000000000000000000000000000000000000000000000000000000000000000000000000000000000000000000000000000000PES00010000001000000000000000000000000000000000000000000                              000000000000000
201506260010005200000000000000028286                8000000000030583210276MERCATOR-SA                   000000001566389000000000000000000000000000000000000000000000000000000000000000000000000000000000000000000000000000000000PES00010000001000000000000000000000000000000000000000000                              000000000000000
201506300010000400000000000000121479                8000000000030708926155TRANSPORTES-UNION-SA          000000000508109000000000000000000000000000000000000000000000000000000000000000000000000000000000000000000000000000000000PES00010000001000000000000000000000000000000000000000000                              000000000000000
