201606040010000100000000000000002426                8000000000023247772669JORGE-PAULOS-ANTUNES          000000000128001000000000000000000000000000000000000000000000000000000000000000000000000000000000000000000000000000000000PES00010000001000000000000000000000000000000000000000000                              000000000000000
201606040010000600000000000000021154                8000000000030710719868PLASTISUR-SRL                 000000000058424000000000000000000000000000000000000000000000000000000000000000000000000000000000000000000000000000000000PES00010000001000000000000000000000000000000000000000000                              000000000000000
201606040010000600000000000000018624                8000000000030710719868PLASTISUR-SRL                 000000000026298000000000000000000000000000000000000000000000000000000000000000000000000000000000000000000000000000000000PES00010000001000000000000000000000000000000000000000000                              000000000000000
201606040010001400000000000000001112                8000000000030708926155TRANSPORTES-UNION-SA          000000000462065000000000000000000000000000000000000000000000000000000000000000000000000000000000000000000000000000000000PES00010000001000000000000000000000000000000000000000000                              000000000000000
201606060010000800000000000000101162                8000000000030545726722SOCIEDAD-COOP-POPULAR-LIM-DE  000000000270875000000000000000000000000000000000000000000000000000000000000000000000000000000000000000000000000000000000PES00010000001000000000000000000000000000000000000000000                              000000000000000
201606060010000100000000000020160513                8000000000030639453975TELEFONICA-DE-ARG-SA          000000000103908000000000000000000000000000000000000000000000000000000000000000000000000000000000000000000000000000000000PES00010000001000000000000000000000000000000000000000000                              000000000000000
201606060010001300000000000000000027                8000000000033711480779KABBALAH-DECO-SRL             000000000692967000000000000000000000000000000000000000000000000000000000000000000000000000000000000000000000000000000000PES00010000001000000000000000000000000000000000000000000                              000000000000000
201606070010002100000000000000011214                8000000000030707454640EL-ESTANCO-SA                 000000000036800000000000000000000000000000000000000000000000000000000000000000000000000000000000000000000000000000000000PES00010000001000000000000000000000000000000000000000000                              000000000000000
201606070010000300000000000000003288                8000000000030711190895AUSTRAL-ALARMAS-SRL           000000000043560000000000000000000000000000000000000000000000000000000000000000000000000000000000000000000000000000000000PES00010000001000000000000000000000000000000000000000000                              000000000000000
201606080010000500000000000000010210                8000000000030711778302MDK-SRL                       000000000792550000000000000000000000000000000000000000000000000000000000000000000000000000000000000000000000000000000000PES00010000001000000000000000000000000000000000000000000                              000000000000000
201606140010000400000000000000001302                8000000000020126715111ALEJANDRO-LUIS-BUSTOS         000000000035546000000000000000000000000000000000000000000000000000000000000000000000000000000000000000000000000000000000PES00010000001000000000000000000000000000000000000000000                              000000000000000
201606150010000300000000000000013493                8000000000030587479407CERRO-NEVADO-SA               000000001112837000000000000000000000000000000000000000000000000000000000000000000000000000000000000000000000000000000000PES00010000001000000000000000000000000000000000000000000                              000000000000000
201606220010000300000000000000000343                8000000000020222552134GUSTAVO-A-GARCIA              000000000450000000000000000000000000000000000000000000000000000000000000000000000000000000000000000000000000000000000000PES00010000001000000000000000000000000000000000000000000                              000000000000000
201606220010001400000000000000001753                8000000000030708926155TRANSPORTES-UNION-SA          000000000264195000000000000000000000000000000000000000000000000000000000000000000000000000000000000000000000000000000000PES00010000001000000000000000000000000000000000000000000                              000000000000000
201606220010005200000000000000038908                8000000000030583210276MERCATOR-SA                   000000001340834000000000000000000000000000000000000000000000000000000000000000000000000000000000000000000000000000000000PES00010000001000000000000000000000000000000000000000000                              000000000000000
201606230010000100000000000000000020                8000000000030714670618CONDOMINIO-DE-BERSAIS-CESAR-L 000000002662000000000000000000000000000000000000000000000000000000000000000000000000000000000000000000000000000000000000PES00010000001000000000000000000000000000000000000000000                              000000000000000
201606230010023600000000000000017545                8000000000033504487119EL-TEHUELCHE-SACICI           000000000061689000000000000000000000000000000000000000000000000000000000000000000000000000000000000000000000000000000000PES00010000001000000000000000000000000000000000000000000                              000000000000000
201606270010002100000000000000011503                8000000000030707454640EL-ESTANCO-SA                 000000000014600000000000000000000000000000000000000000000000000000000000000000000000000000000000000000000000000000000000PES00010000001000000000000000000000000000000000000000000                              000000000000000
201606270010258300000000000000004266                8000000000030506730038SA-IMPORT-Y-EXPORT-DE-LA-PATAG000000000026451000000000000000000000000000000000000000000000000000000000000000000000000000000000000000000000000000000000PES00010000001000000000000000000000000000000000000000000                              000000000000000
201606290010000200000000000000000355                8000000000020222551774SERGIO-EDUARDO-SOTO           000000000068970000000000000000000000000000000000000000000000000000000000000000000000000000000000000000000000000000000000PES00010000001000000000000000000000000000000000000000000                              000000000000000
201606290010000600000000000000016759                8000000000030605594634M-Y-F-DISTRIBUIDORA-SA        000000002584768000000000000000000000000000000000000000000000000000000000000000000000000000000000000000000000000000000000PES00010000001000000000000000000000000000000000000000000                              000000000000000
201606300010000200000000000000003401                8000000000030662444150CRISTAL-SAN-MARTIN-SRL        000000003110184000000000000000000000000000000000000000000000000000000000000000000000000000000000000000000000000000000000PES00010000001000000000000000000000000000000000000000000                              000000000000000
201606300010022100000000000000000203                8000000000030697299226INTERTURIS-SA                 000000001627192000000000000000000000000000000000000000000000000000000000000000000000000000000000000000000000000000000000PES00010000001000000000000000000000000000000000000000000                              000000000000000
