201509100010000100000000000020150813                8000000000030639453975TELEFONICA-DE-ARG-SA          000000000092464000000000000000000000000000000000000000000000000000000000000000000000000000000000000000000000000000000000PES00010000001000000000000000000000000000000000000000000                              000000000000000
201509030010000200000000000000006042                8000000000030710253052HOME-LAND-SRL                 000000000076499000000000000000000000000000000000000000000000000000000000000000000000000000000000000000000000000000000000PES00010000001000000000000000000000000000000000000000000                              000000000000000
201509010010000100000000000000009312                8000000000030709545325GRUPO-MARINHO-SRL             000000000549582000000000000000000000000000000000000000000000000000000000000000000000000000000000000000000000000000000000PES00010000001000000000000000000000000000000000000000000                              000000000000000
201509020010000300000000000000000026                8000000000033709300259MERIC-SRL                     000000001531497000000000000000000000000000000000000000000000000000000000000000000000000000000000000000000000000000000000PES00010000001000000000000000000000000000000000000000000                              000000000000000
201509010010000200000000000000002411                8000000000030708324716MAXI-CRISTAL-SRL              000000002052789000000000000000000000000000000000000000000000000000000000000000000000000000000000000000000000000000000000PES00010000001000000000000000000000000000000000000000000                              000000000000000
201509050010000200000000000000060027                8000000000030707986324VELAS-DE-LOS-MILAGROS-SRL     000000000133445000000000000000000000000000000000000000000000000000000000000000000000000000000000000000000000000000000000PES00010000001000000000000000000000000000000000000000000                              000000000000000
201509050010000200000000000000060026                8000000000030707986324VELAS-DE-LOS-MILAGROS-SRL     000000000080296000000000000000000000000000000000000000000000000000000000000000000000000000000000000000000000000000000000PES00010000001000000000000000000000000000000000000000000                              000000000000000
201509070010000600000000000000000075                8000000000030709170127MOOVE-SRL                     000000000575367000000000000000000000000000000000000000000000000000000000000000000000000000000000000000000000000000000000PES00010000001000000000000000000000000000000000000000000                              000000000000000
201509100010000800000000000000066931                8000000000030545726722SOCIEDAD-COOP-POPULAR-LIM-DE  000000000248222000000000000000000000000000000000000000000000000000000000000000000000000000000000000000000000000000000000PES00010000001000000000000000000000000000000000000000000                              000000000000000
201509100010000300000000000000000065                8000000000030708525436JAVIER-R-BRAIDOT-Y-WALTER-G-  000000000462087000000000000000000000000000000000000000000000000000000000000000000000000000000000000000000000000000000000PES00010000001000000000000000000000000000000000000000000                              000000000000000
201509100010000100000000000000000011                8000000000030714670618CONDOMINIO-DE-BERSAIS-CESAR-L 000000002662000000000000000000000000000000000000000000000000000000000000000000000000000000000000000000000000000000000000PES00010000001000000000000000000000000000000000000000000                              000000000000000
201509110010001000000000000000003359                8000000000030670288613DISTRIBUIDORA-LOA-SA          000000000127736000000000000000000000000000000000000000000000000000000000000000000000000000000000000000000000000000000000PES00010000001000000000000000000000000000000000000000000                              000000000000000
201509110010025100000000000000000882                8000000000033638398899MUEBLERIA-TORCA-SA            000000000105685000000000000000000000000000000000000000000000000000000000000000000000000000000000000000000000000000000000PES00010000001000000000000000000000000000000000000000000                              000000000000000
201509110010000300000000000000002581                8000000000030711190895AUSTRAL-ALARMAS-SRL           000000000030250000000000000000000000000000000000000000000000000000000000000000000000000000000000000000000000000000000000PES00010000001000000000000000000000000000000000000000000                              000000000000000
201509110010000300000000000000007066                8000000000030710601573JUNKO-SRL                     000000000615164000000000000000000000000000000000000000000000000000000000000000000000000000000000000000000000000000000000PES00010000001000000000000000000000000000000000000000000                              000000000000000
201509110010000200000000000000002856                8000000000030662444150CRISTAL-SAN-MARTIN-SRL        000000002557262000000000000000000000000000000000000000000000000000000000000000000000000000000000000000000000000000000000PES00010000001000000000000000000000000000000000000000000                              000000000000000
201509110010000500000000000000008391                8000000000030711778302MDK-SRL                       000000000734857000000000000000000000000000000000000000000000000000000000000000000000000000000000000000000000000000000000PES00010000001000000000000000000000000000000000000000000                              000000000000000
201509140010000200000000000000017494                8000000000033515641829SOIFER-HNOS-SA                000000001458505000000000000000000000000000000000000000000000000000000000000000000000000000000000000000000000000000000000PES00010000001000000000000000000000000000000000000000000                              000000000000000
201509140010000200000000000000017498                8000000000033515641829SOIFER-HNOS-SA                000000000487640000000000000000000000000000000000000000000000000000000000000000000000000000000000000000000000000000000000PES00010000001000000000000000000000000000000000000000000                              000000000000000
201509160010000100000000000000001153                8000000000030711359369MUEBLES-BOUTIQUE-SRL          000000000883300000000000000000000000000000000000000000000000000000000000000000000000000000000000000000000000000000000000PES00010000001000000000000000000000000000000000000000000                              000000000000000
201509160010000400000000000000000012                8000000000027108008259PUSCHEL-ELIZABET              000000000197111000000000000000000000000000000000000000000000000000000000000000000000000000000000000000000000000000000000PES00010000001000000000000000000000000000000000000000000                              000000000000000
201509180010000200000000000000000092                8000000000030714365467SOLBER-SRL                    000000000255915000000000000000000000000000000000000000000000000000000000000000000000000000000000000000000000000000000000PES00010000001000000000000000000000000000000000000000000                              000000000000000
201509180010000400000000000000000441                8000000000020126715111ALEJANDRO-LUIS-BUSTOS         000000000023409000000000000000000000000000000000000000000000000000000000000000000000000000000000000000000000000000000000PES00010000001000000000000000000000000000000000000000000                              000000000000000
201509190010000300000000000000006060                8000000000030710941854RUMAH-JAVA-SRL                000000000940170000000000000000000000000000000000000000000000000000000000000000000000000000000000000000000000000000000000PES00010000001000000000000000000000000000000000000000000                              000000000000000
201509190010000400000000000000123679                8000000000030708926155TRANSPORTES-UNION-SA          000000001664631000000000000000000000000000000000000000000000000000000000000000000000000000000000000000000000000000000000PES00010000001000000000000000000000000000000000000000000                              000000000000000
201509190010000400000000000000000290                8000000000030708075929PLATERIA-MARTIN-FIERRO-SRL    000000000741101000000000000000000000000000000000000000000000000000000000000000000000000000000000000000000000000000000000PES00010000001000000000000000000000000000000000000000000                              000000000000000
201509190010000400000000000000000291                8000000000030708075929PLATERIA-MARTIN-FIERRO-SRL    000000001115620000000000000000000000000000000000000000000000000000000000000000000000000000000000000000000000000000000000PES00010000001000000000000000000000000000000000000000000                              000000000000000
201509210010000200000000000000000455                8000000000020161974847FABIAN-GERONIMO               000000000661024000000000000000000000000000000000000000000000000000000000000000000000000000000000000000000000000000000000PES00010000001000000000000000000000000000000000000000000                              000000000000000
201509210010000200000000000000000451                8000000000020161974847FABIAN-GERONIMO               000000000409954000000000000000000000000000000000000000000000000000000000000000000000000000000000000000000000000000000000PES00010000001000000000000000000000000000000000000000000                              000000000000000
201509210010000200000000000000000444                8000000000020161974847FABIAN-GERONIMO               000000001148015000000000000000000000000000000000000000000000000000000000000000000000000000000000000000000000000000000000PES00010000001000000000000000000000000000000000000000000                              000000000000000
201509220010001000000000000000005778                8000000000030685888544GIFTS-Y-FRINTS-SA             000000004216245000000000000000000000000000000000000000000000000000000000000000000000000000000000000000000000000000000000PES00010000001000000000000000000000000000000000000000000                              000000000000000
201509230010000200000000000000017627                8000000000033515641829SOIFER-HNOS-SA                000000000439128000000000000000000000000000000000000000000000000000000000000000000000000000000000000000000000000000000000PES00010000001000000000000000000000000000000000000000000                              000000000000000
201509240010000700000000000000013389                8000000000030710920067SEBSADA-SA                    000000000264990000000000000000000000000000000000000000000000000000000000000000000000000000000000000000000000000000000000PES00010000001000000000000000000000000000000000000000000                              000000000000000
201509240010000700000000000000013390                8000000000030710920067SEBSADA-SA                    000000000090351000000000000000000000000000000000000000000000000000000000000000000000000000000000000000000000000000000000PES00010000001000000000000000000000000000000000000000000                              000000000000000
201509240010000700000000000000013391                8000000000030710920067SEBSADA-SA                    000000000374635000000000000000000000000000000000000000000000000000000000000000000000000000000000000000000000000000000000PES00010000001000000000000000000000000000000000000000000                              000000000000000
201509240010000300000000000000000229                8000000000020222552134GUSTAVO-A-GARCIA              000000000360000000000000000000000000000000000000000000000000000000000000000000000000000000000000000000000000000000000000PES00010000001000000000000000000000000000000000000000000                              000000000000000
201509290010000200000000000000000307                8000000000030707654984PEREL-ITECA-SA                000000001506064000000000000000000000000000000000000000000000000000000000000000000000000000000000000000000000000000000000PES00010000001000000000000000000000000000000000000000000                              000000000000000
201509300010000200000000000000000538                8000000000020161974847FABIAN-GERONIMO               000000000506939000000000000000000000000000000000000000000000000000000000000000000000000000000000000000000000000000000000PES00010000001000000000000000000000000000000000000000000                              000000000000000
201509300010000300000000000000000091                8000000000033710589149MARWALL-SA                    000000000488888000000000000000000000000000000000000000000000000000000000000000000000000000000000000000000000000000000000PES00010000001000000000000000000000000000000000000000000                              000000000000000
