201604010010000100000000000000001169000000000000000011698000000000030708568054CENTRO-CARDIO-BASCULAR-SRL    000000000656500000000000000000000000000000000000000000000000000000000000000000000000000000000000000000000000000000000000PES00010000001 00000000000000000000000
201604060010000100000000000000001170000000000000000011708000000000027101458585RITA-MEDINA                   000000000331000000000000000000000000000000000000000000000000000000000000000000000000000000000000000000000000000000000000PES00010000001 00000000000000000000000
201604070010000100000000000000001171000000000000000011718000000000020180423525-SPAGNOLI-ALFREDO             000000000054000000000000000000000000000000000000000000000000000000000000000000000000000000000000000000000000000000000000PES00010000001 00000000000000000000000
201604090010000100000000000000001172000000000000000011728000000000030691996375-BELVEDERE-SA                 000000000033000000000000000000000000000000000000000000000000000000000000000000000000000000000000000000000000000000000000PES00010000001 00000000000000000000000
201604090010000100000000000000001173000000000000000011738000000000020230320110-MARCOS-MALESICH              000000000093400000000000000000000000000000000000000000000000000000000000000000000000000000000000000000000000000000000000PES00010000001 00000000000000000000000
201604090010000100000000000000001174000000000000000011748000000000027167572982MONICA-VAZQUEZ-DOS-RAMOS      000000000062500000000000000000000000000000000000000000000000000000000000000000000000000000000000000000000000000000000000PES00010000001 00000000000000000000000
201604110010000100000000000000001175000000000000000011758000000000020269099322CLELAND-JORGE-ADRIAN          000000000000100000000000000000000000000000000000000000000000000000000000000000000000000000000000000000000000000000000000PES00010000001 00000000000000000000000
201604110010000100000000000000001176000000000000000011768000000000020361818572MALDONADO-MATIAS              000000000081500000000000000000000000000000000000000000000000000000000000000000000000000000000000000000000000000000000000PES00010000001 00000000000000000000000
201604120010000100000000000000001177000000000000000011778000000000020269099322CLELAND-JORGE-ADRIAN          000000000001500000000000000000000000000000000000000000000000000000000000000000000000000000000000000000000000000000000000PES00010000001 00000000000000000000000
201604140010000100000000000000001178000000000000000011788000000000020135642801-BARRIONUEVO-JULIO            000000000044500000000000000000000000000000000000000000000000000000000000000000000000000000000000000000000000000000000000PES00010000001 00000000000000000000000
201604150010000100000000000000001179000000000000000011798000000000030709219509-HOLDING-SRL                  000000000156000000000000000000000000000000000000000000000000000000000000000000000000000000000000000000000000000000000000PES00010000001 00000000000000000000000
201604160010000100000000000000001180000000000000000011808000000000030670285339LAVADERO-ATILA                000000000035000000000000000000000000000000000000000000000000000000000000000000000000000000000000000000000000000000000000PES00010000001 00000000000000000000000
201604160010000100000000000000001181000000000000000011818000000000023280752584-GABRIELA-SANDOVAL            000000000096800000000000000000000000000000000000000000000000000000000000000000000000000000000000000000000000000000000000PES00010000001 00000000000000000000000
201604180010000100000000000000001182000000000000000011828000000000030691996375-BELVEDERE-SA                 000000000030000000000000000000000000000000000000000000000000000000000000000000000000000000000000000000000000000000000000PES00010000001 00000000000000000000000
201604180010000100000000000000001183000000000000000011838000000000020269099322CLELAND-JORGE-ADRIAN          000000000000100000000000000000000000000000000000000000000000000000000000000000000000000000000000000000000000000000000000PES00010000001 00000000000000000000000
201604190010000100000000000000001184000000000000000011848000000000030713576707DAMAJO-SRL                    000000000115000000000000000000000000000000000000000000000000000000000000000000000000000000000000000000000000000000000000PES00010000001 00000000000000000000000
201604190010000100000000000000001185000000000000000011858000000000020108707004PEDRO-GASTON                  000000000399800000000000000000000000000000000000000000000000000000000000000000000000000000000000000000000000000000000000PES00010000001 00000000000000000000000
201604200010000100000000000000001186000000000000000011868000000000030707715339MEDIVEN-SA                    000000000150500000000000000000000000000000000000000000000000000000000000000000000000000000000000000000000000000000000000PES00010000001 00000000000000000000000
201604210010000100000000000000001187000000000000000011878000000000030711164614-ASOCIACION-COOP-ESC-N-766-PER000000000047500000000000000000000000000000000000000000000000000000000000000000000000000000000000000000000000000000000000PES00010000001 00000000000000000000000
201604210010000100000000000000001188000000000000000011888000000000023278418839JUAN-QUINTERO                 000000000065000000000000000000000000000000000000000000000000000000000000000000000000000000000000000000000000000000000000PES00010000001 00000000000000000000000
201604220010000100000000000000001189000000000000000011898000000000020135646572-FREILE-OSCAR-GERARDO         000000000036000000000000000000000000000000000000000000000000000000000000000000000000000000000000000000000000000000000000PES00010000001 00000000000000000000000
201604250010000100000000000000001190000000000000000011908000000000030711164614-ASOCIACION-COOP-ESC-N-766-PER000000000047500000000000000000000000000000000000000000000000000000000000000000000000000000000000000000000000000000000000PES00010000001 00000000000000000000000
201604250010000100000000000000001191000000000000000011918000000000027280211236-CHUQUE-ANDREA                000000000088200000000000000000000000000000000000000000000000000000000000000000000000000000000000000000000000000000000000PES00010000001 00000000000000000000000
201604290010000100000000000000001192000000000000000011928000000000020135642321-NIETO-JORGE-JOSE-            000000000057500000000000000000000000000000000000000000000000000000000000000000000000000000000000000000000000000000000000PES00010000001 00000000000000000000000
201604300010000100000000000000001193000000000000000011938000000000030641440902-URGENCIAS-SRL                000000000222500000000000000000000000000000000000000000000000000000000000000000000000000000000000000000000000000000000000PES00010000001 00000000000000000000000
201604300010000100000000000000001194000000000000000011948000000000027202380056-OJEDA-LILIANA                000000000053300000000000000000000000000000000000000000000000000000000000000000000000000000000000000000000000000000000000PES00010000001 00000000000000000000000
201604120060000100000000000000013701000000000000000137018000000000027163632808FREILE-SANDRA                 000000000106500000000000000000000000000000000000000000000000000000000000000000000000000000000000000000000000000000000000PES00010000001 00000000000000000000000
201604120060000100000000000000013702000000000000000137028000000000030999065593MUNICIPALIDAD-DE-COMODORO-RIVA000000000024000000000000000000000000000000000000000000000000000000000000000000000000000000000000000000000000000000000000PES00010000001 00000000000000000000000
201604180060000100000000000000013703000000000000000137038000000000030999065593MUNICIPALIDAD-DE-COMODORO-RIVA000000000000100000000000000000000000000000000000000000000000000000000000000000000000000000000000000000000000000000000000PES00010000001 00000000000000000000000
201604120030000100000000000000000020000000000000000000208000000000020269099322CLELAND-JORGE-ADRIAN          000000000001500000000000000000000000000000000000000000000000000000000000000000000000000000000000000000000000000000000000PES00010000001 00000000000000000000000
201604010060000100000000000000024136000000000000000241369600000000033714143609CENTRO-DE-ESTUDIOS-DIGESTIVOS-000000000057000000000000000000000000000000000000000000000000000000000000000000000000000000000000000000000000000000000000PES00010000001 00000000000000000000000
201604010060000100000000000000024137000000000000000241379600000000033714143609CENTRO-DE-ESTUDIOS-DIGESTIVOS-000000000132500000000000000000000000000000000000000000000000000000000000000000000000000000000000000000000000000000000000PES00010000001 00000000000000000000000
201604010060000100000000000000024138000000000000000241389600000000033714143609CENTRO-DE-ESTUDIOS-DIGESTIVOS-000000000085000000000000000000000000000000000000000000000000000000000000000000000000000000000000000000000000000000000000PES00010000001 00000000000000000000000
201604010060000100000000000000024139000000000000000241399600000000033714143609CENTRO-DE-ESTUDIOS-DIGESTIVOS-000000000329000000000000000000000000000000000000000000000000000000000000000000000000000000000000000000000000000000000000PES00010000001 00000000000000000000000
201604010060000100000000000000024140000000000000000241409600000000033714143609CENTRO-DE-ESTUDIOS-DIGESTIVOS-000000000059500000000000000000000000000000000000000000000000000000000000000000000000000000000000000000000000000000000000PES00010000001 00000000000000000000000
201604010060000100000000000000024141000000000000000241419600000000033714143609CENTRO-DE-ESTUDIOS-DIGESTIVOS-000000000058900000000000000000000000000000000000000000000000000000000000000000000000000000000000000000000000000000000000PES00010000001 00000000000000000000000
201604010060000100000000000000024142000000000000000241429600000000033714143609CENTRO-DE-ESTUDIOS-DIGESTIVOS-000000000000100000000000000000000000000000000000000000000000000000000000000000000000000000000000000000000000000000000000PES00010000001 00000000000000000000000
201604010060000100000000000000024143000000000000000241439600000000033714143609CENTRO-DE-ESTUDIOS-DIGESTIVOS-000000000149600000000000000000000000000000000000000000000000000000000000000000000000000000000000000000000000000000000000PES00010000001 00000000000000000000000
201604010060000100000000000000024144000000000000000241449600000000033714143609CENTRO-DE-ESTUDIOS-DIGESTIVOS-000000000184000000000000000000000000000000000000000000000000000000000000000000000000000000000000000000000000000000000000PES00010000001 00000000000000000000000
201604010060000100000000000000024145000000000000000241459600000000033714143609CENTRO-DE-ESTUDIOS-DIGESTIVOS-000000000031500000000000000000000000000000000000000000000000000000000000000000000000000000000000000000000000000000000000PES00010000001 00000000000000000000000
201604010060000100000000000000024146000000000000000241469600000000033714143609CENTRO-DE-ESTUDIOS-DIGESTIVOS-000000000019500000000000000000000000000000000000000000000000000000000000000000000000000000000000000000000000000000000000PES00010000001 00000000000000000000000
201604010060000100000000000000024147000000000000000241479600000000033714143609CENTRO-DE-ESTUDIOS-DIGESTIVOS-000000000013500000000000000000000000000000000000000000000000000000000000000000000000000000000000000000000000000000000000PES00010000001 00000000000000000000000
201604010060000100000000000000024148000000000000000241489600000000033714143609CENTRO-DE-ESTUDIOS-DIGESTIVOS-000000000089000000000000000000000000000000000000000000000000000000000000000000000000000000000000000000000000000000000000PES00010000001 00000000000000000000000
201604010060000100000000000000024149000000000000000241499600000000033714143609CENTRO-DE-ESTUDIOS-DIGESTIVOS-000000000112500000000000000000000000000000000000000000000000000000000000000000000000000000000000000000000000000000000000PES00010000001 00000000000000000000000
201604010060000100000000000000024150000000000000000241509600000000033714143609CENTRO-DE-ESTUDIOS-DIGESTIVOS-000000000030000000000000000000000000000000000000000000000000000000000000000000000000000000000000000000000000000000000000PES00010000001 00000000000000000000000
201604010060000100000000000000024151000000000000000241519600000000033714143609CENTRO-DE-ESTUDIOS-DIGESTIVOS-000000000062000000000000000000000000000000000000000000000000000000000000000000000000000000000000000000000000000000000000PES00010000001 00000000000000000000000
201604010060000100000000000000024152000000000000000241529600000000033714143609CENTRO-DE-ESTUDIOS-DIGESTIVOS-000000000035000000000000000000000000000000000000000000000000000000000000000000000000000000000000000000000000000000000000PES00010000001 00000000000000000000000
201604010060000100000000000000024153000000000000000241539600000000033714143609CENTRO-DE-ESTUDIOS-DIGESTIVOS-000000000057500000000000000000000000000000000000000000000000000000000000000000000000000000000000000000000000000000000000PES00010000001 00000000000000000000000
201604040060000100000000000000024154000000000000000241549600000000033714143609CENTRO-DE-ESTUDIOS-DIGESTIVOS-000000000020000000000000000000000000000000000000000000000000000000000000000000000000000000000000000000000000000000000000PES00010000001 00000000000000000000000
201604040060000100000000000000024155000000000000000241559600000000033714143609CENTRO-DE-ESTUDIOS-DIGESTIVOS-000000000025000000000000000000000000000000000000000000000000000000000000000000000000000000000000000000000000000000000000PES00010000001 00000000000000000000000
201604040060000100000000000000024156000000000000000241569600000000033714143609CENTRO-DE-ESTUDIOS-DIGESTIVOS-000000000023000000000000000000000000000000000000000000000000000000000000000000000000000000000000000000000000000000000000PES00010000001 00000000000000000000000
201604040060000100000000000000024157000000000000000241579600000000033714143609CENTRO-DE-ESTUDIOS-DIGESTIVOS-000000000046000000000000000000000000000000000000000000000000000000000000000000000000000000000000000000000000000000000000PES00010000001 00000000000000000000000
201604040060000100000000000000024158000000000000000241589600000000033714143609CENTRO-DE-ESTUDIOS-DIGESTIVOS-000000000121500000000000000000000000000000000000000000000000000000000000000000000000000000000000000000000000000000000000PES00010000001 00000000000000000000000
201604040060000100000000000000024159000000000000000241599600000000033714143609CENTRO-DE-ESTUDIOS-DIGESTIVOS-000000000097000000000000000000000000000000000000000000000000000000000000000000000000000000000000000000000000000000000000PES00010000001 00000000000000000000000
201604040060000100000000000000024160000000000000000241609600000000033714143609CENTRO-DE-ESTUDIOS-DIGESTIVOS-000000000030000000000000000000000000000000000000000000000000000000000000000000000000000000000000000000000000000000000000PES00010000001 00000000000000000000000
201604040060000100000000000000024161000000000000000241619600000000033714143609CENTRO-DE-ESTUDIOS-DIGESTIVOS-000000000075000000000000000000000000000000000000000000000000000000000000000000000000000000000000000000000000000000000000PES00010000001 00000000000000000000000
201604040060000100000000000000024162000000000000000241629600000000033714143609CENTRO-DE-ESTUDIOS-DIGESTIVOS-000000000019800000000000000000000000000000000000000000000000000000000000000000000000000000000000000000000000000000000000PES00010000001 00000000000000000000000
201604050060000100000000000000024164000000000000000241649600000000033714143609CENTRO-DE-ESTUDIOS-DIGESTIVOS-000000000077000000000000000000000000000000000000000000000000000000000000000000000000000000000000000000000000000000000000PES00010000001 00000000000000000000000
201604050060000100000000000000024165000000000000000241659600000000033714143609CENTRO-DE-ESTUDIOS-DIGESTIVOS-000000000083500000000000000000000000000000000000000000000000000000000000000000000000000000000000000000000000000000000000PES00010000001 00000000000000000000000
201604050060000100000000000000024166000000000000000241669600000000033714143609CENTRO-DE-ESTUDIOS-DIGESTIVOS-000000000090300000000000000000000000000000000000000000000000000000000000000000000000000000000000000000000000000000000000PES00010000001 00000000000000000000000
201604050060000100000000000000024167000000000000000241679600000000033714143609CENTRO-DE-ESTUDIOS-DIGESTIVOS-000000000060500000000000000000000000000000000000000000000000000000000000000000000000000000000000000000000000000000000000PES00010000001 00000000000000000000000
201604050060000100000000000000024168000000000000000241689600000000033714143609CENTRO-DE-ESTUDIOS-DIGESTIVOS-000000000064200000000000000000000000000000000000000000000000000000000000000000000000000000000000000000000000000000000000PES00010000001 00000000000000000000000
201604050060000100000000000000024169000000000000000241699600000000033714143609CENTRO-DE-ESTUDIOS-DIGESTIVOS-000000000027900000000000000000000000000000000000000000000000000000000000000000000000000000000000000000000000000000000000PES00010000001 00000000000000000000000
201604050060000100000000000000024170000000000000000241709600000000033714143609CENTRO-DE-ESTUDIOS-DIGESTIVOS-000000000053000000000000000000000000000000000000000000000000000000000000000000000000000000000000000000000000000000000000PES00010000001 00000000000000000000000
201604050060000100000000000000024171000000000000000241719600000000033714143609CENTRO-DE-ESTUDIOS-DIGESTIVOS-000000000079500000000000000000000000000000000000000000000000000000000000000000000000000000000000000000000000000000000000PES00010000001 00000000000000000000000
201604050060000100000000000000024172000000000000000241729600000000033714143609CENTRO-DE-ESTUDIOS-DIGESTIVOS-000000000047500000000000000000000000000000000000000000000000000000000000000000000000000000000000000000000000000000000000PES00010000001 00000000000000000000000
201604050060000100000000000000024173000000000000000241739600000000033714143609CENTRO-DE-ESTUDIOS-DIGESTIVOS-000000000019500000000000000000000000000000000000000000000000000000000000000000000000000000000000000000000000000000000000PES00010000001 00000000000000000000000
201604050060000100000000000000024174000000000000000241749600000000033714143609CENTRO-DE-ESTUDIOS-DIGESTIVOS-000000000099000000000000000000000000000000000000000000000000000000000000000000000000000000000000000000000000000000000000PES00010000001 00000000000000000000000
201604050060000100000000000000024175000000000000000241759600000000033714143609CENTRO-DE-ESTUDIOS-DIGESTIVOS-000000000039800000000000000000000000000000000000000000000000000000000000000000000000000000000000000000000000000000000000PES00010000001 00000000000000000000000
201604050060000100000000000000024176000000000000000241769600000000033714143609CENTRO-DE-ESTUDIOS-DIGESTIVOS-000000000060200000000000000000000000000000000000000000000000000000000000000000000000000000000000000000000000000000000000PES00010000001 00000000000000000000000
201604050060000100000000000000024177000000000000000241779600000000033714143609CENTRO-DE-ESTUDIOS-DIGESTIVOS-000000000034300000000000000000000000000000000000000000000000000000000000000000000000000000000000000000000000000000000000PES00010000001 00000000000000000000000
201604060060000100000000000000024178000000000000000241789600000000033714143609CENTRO-DE-ESTUDIOS-DIGESTIVOS-000000000025900000000000000000000000000000000000000000000000000000000000000000000000000000000000000000000000000000000000PES00010000001 00000000000000000000000
201604060060000100000000000000024179000000000000000241799600000000033714143609CENTRO-DE-ESTUDIOS-DIGESTIVOS-000000000114000000000000000000000000000000000000000000000000000000000000000000000000000000000000000000000000000000000000PES00010000001 00000000000000000000000
201604060060000100000000000000024180000000000000000241809600000000033714143609CENTRO-DE-ESTUDIOS-DIGESTIVOS-000000000143500000000000000000000000000000000000000000000000000000000000000000000000000000000000000000000000000000000000PES00010000001 00000000000000000000000
201604060060000100000000000000024181000000000000000241819600000000033714143609CENTRO-DE-ESTUDIOS-DIGESTIVOS-000000000045000000000000000000000000000000000000000000000000000000000000000000000000000000000000000000000000000000000000PES00010000001 00000000000000000000000
201604070060000100000000000000024182000000000000000241829600000000033714143609CENTRO-DE-ESTUDIOS-DIGESTIVOS-000000000024500000000000000000000000000000000000000000000000000000000000000000000000000000000000000000000000000000000000PES00010000001 00000000000000000000000
201604070060000100000000000000024183000000000000000241839600000000033714143609CENTRO-DE-ESTUDIOS-DIGESTIVOS-000000000031300000000000000000000000000000000000000000000000000000000000000000000000000000000000000000000000000000000000PES00010000001 00000000000000000000000
201604070060000100000000000000024184000000000000000241849600000000033714143609CENTRO-DE-ESTUDIOS-DIGESTIVOS-000000000133300000000000000000000000000000000000000000000000000000000000000000000000000000000000000000000000000000000000PES00010000001 00000000000000000000000
201604070060000100000000000000024185000000000000000241859600000000033714143609CENTRO-DE-ESTUDIOS-DIGESTIVOS-000000000019000000000000000000000000000000000000000000000000000000000000000000000000000000000000000000000000000000000000PES00010000001 00000000000000000000000
201604070060000100000000000000024187000000000000000241879600000000033714143609CENTRO-DE-ESTUDIOS-DIGESTIVOS-000000000004500000000000000000000000000000000000000000000000000000000000000000000000000000000000000000000000000000000000PES00010000001 00000000000000000000000
201604070060000100000000000000024188000000000000000241889600000000033714143609CENTRO-DE-ESTUDIOS-DIGESTIVOS-000000000033000000000000000000000000000000000000000000000000000000000000000000000000000000000000000000000000000000000000PES00010000001 00000000000000000000000
201604070060000100000000000000024189000000000000000241899600000000033714143609CENTRO-DE-ESTUDIOS-DIGESTIVOS-000000000084500000000000000000000000000000000000000000000000000000000000000000000000000000000000000000000000000000000000PES00010000001 00000000000000000000000
201604070060000100000000000000024190000000000000000241909600000000033714143609CENTRO-DE-ESTUDIOS-DIGESTIVOS-000000000043000000000000000000000000000000000000000000000000000000000000000000000000000000000000000000000000000000000000PES00010000001 00000000000000000000000
201604070060000100000000000000024191000000000000000241919600000000033714143609CENTRO-DE-ESTUDIOS-DIGESTIVOS-000000000058800000000000000000000000000000000000000000000000000000000000000000000000000000000000000000000000000000000000PES00010000001 00000000000000000000000
201604070060000100000000000000024192000000000000000241929600000000033714143609CENTRO-DE-ESTUDIOS-DIGESTIVOS-000000000034800000000000000000000000000000000000000000000000000000000000000000000000000000000000000000000000000000000000PES00010000001 00000000000000000000000
201604070060000100000000000000024193000000000000000241939600000000033714143609CENTRO-DE-ESTUDIOS-DIGESTIVOS-000000000024000000000000000000000000000000000000000000000000000000000000000000000000000000000000000000000000000000000000PES00010000001 00000000000000000000000
201604070060000100000000000000024194000000000000000241949600000000033714143609CENTRO-DE-ESTUDIOS-DIGESTIVOS-000000000045500000000000000000000000000000000000000000000000000000000000000000000000000000000000000000000000000000000000PES00010000001 00000000000000000000000
201604070060000100000000000000024195000000000000000241959600000000033714143609CENTRO-DE-ESTUDIOS-DIGESTIVOS-000000000036000000000000000000000000000000000000000000000000000000000000000000000000000000000000000000000000000000000000PES00010000001 00000000000000000000000
201604070060000100000000000000024196000000000000000241969600000000033714143609CENTRO-DE-ESTUDIOS-DIGESTIVOS-000000000027500000000000000000000000000000000000000000000000000000000000000000000000000000000000000000000000000000000000PES00010000001 00000000000000000000000
201604070060000100000000000000024197000000000000000241979600000000033714143609CENTRO-DE-ESTUDIOS-DIGESTIVOS-000000000025000000000000000000000000000000000000000000000000000000000000000000000000000000000000000000000000000000000000PES00010000001 00000000000000000000000
201604070060000100000000000000024198000000000000000241989600000000033714143609CENTRO-DE-ESTUDIOS-DIGESTIVOS-000000000088500000000000000000000000000000000000000000000000000000000000000000000000000000000000000000000000000000000000PES00010000001 00000000000000000000000
201604070060000100000000000000024199000000000000000241999600000000033714143609CENTRO-DE-ESTUDIOS-DIGESTIVOS-000000000099000000000000000000000000000000000000000000000000000000000000000000000000000000000000000000000000000000000000PES00010000001 00000000000000000000000
201604070060000100000000000000024200000000000000000242009600000000033714143609CENTRO-DE-ESTUDIOS-DIGESTIVOS-000000000067500000000000000000000000000000000000000000000000000000000000000000000000000000000000000000000000000000000000PES00010000001 00000000000000000000000
201604080060000100000000000000024201000000000000000242019600000000033714143609CENTRO-DE-ESTUDIOS-DIGESTIVOS-000000000007500000000000000000000000000000000000000000000000000000000000000000000000000000000000000000000000000000000000PES00010000001 00000000000000000000000
201604080060000100000000000000024202000000000000000242029600000000033714143609CENTRO-DE-ESTUDIOS-DIGESTIVOS-000000000048000000000000000000000000000000000000000000000000000000000000000000000000000000000000000000000000000000000000PES00010000001 00000000000000000000000
201604080060000100000000000000024203000000000000000242039600000000033714143609CENTRO-DE-ESTUDIOS-DIGESTIVOS-000000000080800000000000000000000000000000000000000000000000000000000000000000000000000000000000000000000000000000000000PES00010000001 00000000000000000000000
201604080060000100000000000000024204000000000000000242049600000000033714143609CENTRO-DE-ESTUDIOS-DIGESTIVOS-000000000150000000000000000000000000000000000000000000000000000000000000000000000000000000000000000000000000000000000000PES00010000001 00000000000000000000000
201604080060000100000000000000024205000000000000000242059600000000033714143609CENTRO-DE-ESTUDIOS-DIGESTIVOS-000000000040300000000000000000000000000000000000000000000000000000000000000000000000000000000000000000000000000000000000PES00010000001 00000000000000000000000
201604080060000100000000000000024206000000000000000242069600000000033714143609CENTRO-DE-ESTUDIOS-DIGESTIVOS-000000000040500000000000000000000000000000000000000000000000000000000000000000000000000000000000000000000000000000000000PES00010000001 00000000000000000000000
201604080060000100000000000000024207000000000000000242079600000000033714143609CENTRO-DE-ESTUDIOS-DIGESTIVOS-000000000017500000000000000000000000000000000000000000000000000000000000000000000000000000000000000000000000000000000000PES00010000001 00000000000000000000000
201604080060000100000000000000024209000000000000000242099600000000033714143609CENTRO-DE-ESTUDIOS-DIGESTIVOS-000000000029000000000000000000000000000000000000000000000000000000000000000000000000000000000000000000000000000000000000PES00010000001 00000000000000000000000
201604080060000100000000000000024210000000000000000242109600000000033714143609CENTRO-DE-ESTUDIOS-DIGESTIVOS-000000000197000000000000000000000000000000000000000000000000000000000000000000000000000000000000000000000000000000000000PES00010000001 00000000000000000000000
201604080060000100000000000000024211000000000000000242119600000000033714143609CENTRO-DE-ESTUDIOS-DIGESTIVOS-000000000156000000000000000000000000000000000000000000000000000000000000000000000000000000000000000000000000000000000000PES00010000001 00000000000000000000000
201604080060000100000000000000024212000000000000000242129600000000033714143609CENTRO-DE-ESTUDIOS-DIGESTIVOS-000000000011500000000000000000000000000000000000000000000000000000000000000000000000000000000000000000000000000000000000PES00010000001 00000000000000000000000
201604080060000100000000000000024213000000000000000242139600000000033714143609CENTRO-DE-ESTUDIOS-DIGESTIVOS-000000000176500000000000000000000000000000000000000000000000000000000000000000000000000000000000000000000000000000000000PES00010000001 00000000000000000000000
201604080060000100000000000000024214000000000000000242149600000000033714143609CENTRO-DE-ESTUDIOS-DIGESTIVOS-000000000057000000000000000000000000000000000000000000000000000000000000000000000000000000000000000000000000000000000000PES00010000001 00000000000000000000000
201604080060000100000000000000024215000000000000000242159600000000033714143609CENTRO-DE-ESTUDIOS-DIGESTIVOS-000000000049000000000000000000000000000000000000000000000000000000000000000000000000000000000000000000000000000000000000PES00010000001 00000000000000000000000
201604090060000100000000000000024217000000000000000242179600000000033714143609CENTRO-DE-ESTUDIOS-DIGESTIVOS-000000000114000000000000000000000000000000000000000000000000000000000000000000000000000000000000000000000000000000000000PES00010000001 00000000000000000000000
201604090060000100000000000000024218000000000000000242189600000000033714143609CENTRO-DE-ESTUDIOS-DIGESTIVOS-000000000011800000000000000000000000000000000000000000000000000000000000000000000000000000000000000000000000000000000000PES00010000001 00000000000000000000000
201604090060000100000000000000024219000000000000000242199600000000033714143609CENTRO-DE-ESTUDIOS-DIGESTIVOS-000000000275000000000000000000000000000000000000000000000000000000000000000000000000000000000000000000000000000000000000PES00010000001 00000000000000000000000
201604090060000100000000000000024220000000000000000242209600000000033714143609CENTRO-DE-ESTUDIOS-DIGESTIVOS-000000000070500000000000000000000000000000000000000000000000000000000000000000000000000000000000000000000000000000000000PES00010000001 00000000000000000000000
201604090060000100000000000000024221000000000000000242219600000000033714143609CENTRO-DE-ESTUDIOS-DIGESTIVOS-000000000046000000000000000000000000000000000000000000000000000000000000000000000000000000000000000000000000000000000000PES00010000001 00000000000000000000000
201604090060000100000000000000024222000000000000000242229600000000033714143609CENTRO-DE-ESTUDIOS-DIGESTIVOS-000000000075500000000000000000000000000000000000000000000000000000000000000000000000000000000000000000000000000000000000PES00010000001 00000000000000000000000
201604090060000100000000000000024223000000000000000242239600000000033714143609CENTRO-DE-ESTUDIOS-DIGESTIVOS-000000000029500000000000000000000000000000000000000000000000000000000000000000000000000000000000000000000000000000000000PES00010000001 00000000000000000000000
201604090060000100000000000000024225000000000000000242259600000000033714143609CENTRO-DE-ESTUDIOS-DIGESTIVOS-000000000039500000000000000000000000000000000000000000000000000000000000000000000000000000000000000000000000000000000000PES00010000001 00000000000000000000000
201604090060000100000000000000024226000000000000000242269600000000033714143609CENTRO-DE-ESTUDIOS-DIGESTIVOS-000000000245000000000000000000000000000000000000000000000000000000000000000000000000000000000000000000000000000000000000PES00010000001 00000000000000000000000
201604090060000100000000000000024227000000000000000242279600000000033714143609CENTRO-DE-ESTUDIOS-DIGESTIVOS-000000000039000000000000000000000000000000000000000000000000000000000000000000000000000000000000000000000000000000000000PES00010000001 00000000000000000000000
201604090060000100000000000000024228000000000000000242289600000000033714143609CENTRO-DE-ESTUDIOS-DIGESTIVOS-000000000052500000000000000000000000000000000000000000000000000000000000000000000000000000000000000000000000000000000000PES00010000001 00000000000000000000000
201604090060000100000000000000024229000000000000000242299600000000033714143609CENTRO-DE-ESTUDIOS-DIGESTIVOS-000000000041500000000000000000000000000000000000000000000000000000000000000000000000000000000000000000000000000000000000PES00010000001 00000000000000000000000
201604090060000100000000000000024230000000000000000242309600000000033714143609CENTRO-DE-ESTUDIOS-DIGESTIVOS-000000000039500000000000000000000000000000000000000000000000000000000000000000000000000000000000000000000000000000000000PES00010000001 00000000000000000000000
201604090060000100000000000000024231000000000000000242319600000000033714143609CENTRO-DE-ESTUDIOS-DIGESTIVOS-000000000065000000000000000000000000000000000000000000000000000000000000000000000000000000000000000000000000000000000000PES00010000001 00000000000000000000000
201604090060000100000000000000024232000000000000000242329600000000033714143609CENTRO-DE-ESTUDIOS-DIGESTIVOS-000000000081900000000000000000000000000000000000000000000000000000000000000000000000000000000000000000000000000000000000PES00010000001 00000000000000000000000
201604090060000100000000000000024233000000000000000242339600000000033714143609CENTRO-DE-ESTUDIOS-DIGESTIVOS-000000000120500000000000000000000000000000000000000000000000000000000000000000000000000000000000000000000000000000000000PES00010000001 00000000000000000000000
201604090060000100000000000000024234000000000000000242349600000000033714143609CENTRO-DE-ESTUDIOS-DIGESTIVOS-000000000155000000000000000000000000000000000000000000000000000000000000000000000000000000000000000000000000000000000000PES00010000001 00000000000000000000000
201604090060000100000000000000024235000000000000000242359600000000033714143609CENTRO-DE-ESTUDIOS-DIGESTIVOS-000000000069500000000000000000000000000000000000000000000000000000000000000000000000000000000000000000000000000000000000PES00010000001 00000000000000000000000
201604090060000100000000000000024236000000000000000242369600000000033714143609CENTRO-DE-ESTUDIOS-DIGESTIVOS-000000000017500000000000000000000000000000000000000000000000000000000000000000000000000000000000000000000000000000000000PES00010000001 00000000000000000000000
201604090060000100000000000000024237000000000000000242379600000000033714143609CENTRO-DE-ESTUDIOS-DIGESTIVOS-000000000100800000000000000000000000000000000000000000000000000000000000000000000000000000000000000000000000000000000000PES00010000001 00000000000000000000000
201604090060000100000000000000024238000000000000000242389600000000033714143609CENTRO-DE-ESTUDIOS-DIGESTIVOS-000000000063100000000000000000000000000000000000000000000000000000000000000000000000000000000000000000000000000000000000PES00010000001 00000000000000000000000
201604090060000100000000000000024239000000000000000242399600000000033714143609CENTRO-DE-ESTUDIOS-DIGESTIVOS-000000000063500000000000000000000000000000000000000000000000000000000000000000000000000000000000000000000000000000000000PES00010000001 00000000000000000000000
201604110060000100000000000000024240000000000000000242409600000000033714143609CENTRO-DE-ESTUDIOS-DIGESTIVOS-000000000068000000000000000000000000000000000000000000000000000000000000000000000000000000000000000000000000000000000000PES00010000001 00000000000000000000000
201604110060000100000000000000024241000000000000000242419600000000033714143609CENTRO-DE-ESTUDIOS-DIGESTIVOS-000000000103300000000000000000000000000000000000000000000000000000000000000000000000000000000000000000000000000000000000PES00010000001 00000000000000000000000
201604110060000100000000000000024242000000000000000242429600000000033714143609CENTRO-DE-ESTUDIOS-DIGESTIVOS-000000000028000000000000000000000000000000000000000000000000000000000000000000000000000000000000000000000000000000000000PES00010000001 00000000000000000000000
201604110060000100000000000000024243000000000000000242439600000000033714143609CENTRO-DE-ESTUDIOS-DIGESTIVOS-000000000079500000000000000000000000000000000000000000000000000000000000000000000000000000000000000000000000000000000000PES00010000001 00000000000000000000000
201604110060000100000000000000024244000000000000000242449600000000033714143609CENTRO-DE-ESTUDIOS-DIGESTIVOS-000000000173000000000000000000000000000000000000000000000000000000000000000000000000000000000000000000000000000000000000PES00010000001 00000000000000000000000
201604110060000100000000000000024245000000000000000242459600000000033714143609CENTRO-DE-ESTUDIOS-DIGESTIVOS-000000000082800000000000000000000000000000000000000000000000000000000000000000000000000000000000000000000000000000000000PES00010000001 00000000000000000000000
201604110060000100000000000000024246000000000000000242469600000000033714143609CENTRO-DE-ESTUDIOS-DIGESTIVOS-000000000037500000000000000000000000000000000000000000000000000000000000000000000000000000000000000000000000000000000000PES00010000001 00000000000000000000000
201604110060000100000000000000024247000000000000000242479600000000033714143609CENTRO-DE-ESTUDIOS-DIGESTIVOS-000000000056000000000000000000000000000000000000000000000000000000000000000000000000000000000000000000000000000000000000PES00010000001 00000000000000000000000
201604120060000100000000000000024248000000000000000242489600000000033714143609CENTRO-DE-ESTUDIOS-DIGESTIVOS-000000000099000000000000000000000000000000000000000000000000000000000000000000000000000000000000000000000000000000000000PES00010000001 00000000000000000000000
201604120060000100000000000000024249000000000000000242499600000000033714143609CENTRO-DE-ESTUDIOS-DIGESTIVOS-000000000015000000000000000000000000000000000000000000000000000000000000000000000000000000000000000000000000000000000000PES00010000001 00000000000000000000000
201604120060000100000000000000024250000000000000000242509600000000033714143609CENTRO-DE-ESTUDIOS-DIGESTIVOS-000000000125900000000000000000000000000000000000000000000000000000000000000000000000000000000000000000000000000000000000PES00010000001 00000000000000000000000
201604120060000100000000000000024251000000000000000242519600000000020269099322CLELAND-JORGE-ADRIAN          000000000000100000000000000000000000000000000000000000000000000000000000000000000000000000000000000000000000000000000000PES00010000001 00000000000000000000000
201604120060000100000000000000024252000000000000000242529600000000033714143609CENTRO-DE-ESTUDIOS-DIGESTIVOS-000000000025500000000000000000000000000000000000000000000000000000000000000000000000000000000000000000000000000000000000PES00010000001 00000000000000000000000
201604120060000100000000000000024253000000000000000242539600000000033714143609CENTRO-DE-ESTUDIOS-DIGESTIVOS-000000000026500000000000000000000000000000000000000000000000000000000000000000000000000000000000000000000000000000000000PES00010000001 00000000000000000000000
201604120060000100000000000000024254000000000000000242549600000000033714143609CENTRO-DE-ESTUDIOS-DIGESTIVOS-000000000033500000000000000000000000000000000000000000000000000000000000000000000000000000000000000000000000000000000000PES00010000001 00000000000000000000000
201604130060000100000000000000024255000000000000000242559600000000033714143609CENTRO-DE-ESTUDIOS-DIGESTIVOS-000000000033000000000000000000000000000000000000000000000000000000000000000000000000000000000000000000000000000000000000PES00010000001 00000000000000000000000
201604130060000100000000000000024256000000000000000242569600000000033714143609CENTRO-DE-ESTUDIOS-DIGESTIVOS-000000000027100000000000000000000000000000000000000000000000000000000000000000000000000000000000000000000000000000000000PES00010000001 00000000000000000000000
201604130060000100000000000000024257000000000000000242579600000000033714143609CENTRO-DE-ESTUDIOS-DIGESTIVOS-000000000069500000000000000000000000000000000000000000000000000000000000000000000000000000000000000000000000000000000000PES00010000001 00000000000000000000000
201604130060000100000000000000024258000000000000000242589600000000033714143609CENTRO-DE-ESTUDIOS-DIGESTIVOS-000000000035000000000000000000000000000000000000000000000000000000000000000000000000000000000000000000000000000000000000PES00010000001 00000000000000000000000
201604130060000100000000000000024259000000000000000242599600000000033714143609CENTRO-DE-ESTUDIOS-DIGESTIVOS-000000000029800000000000000000000000000000000000000000000000000000000000000000000000000000000000000000000000000000000000PES00010000001 00000000000000000000000
201604130060000100000000000000024260000000000000000242609600000000033714143609CENTRO-DE-ESTUDIOS-DIGESTIVOS-000000000245000000000000000000000000000000000000000000000000000000000000000000000000000000000000000000000000000000000000PES00010000001 00000000000000000000000
201604130060000100000000000000024261000000000000000242619600000000033714143609CENTRO-DE-ESTUDIOS-DIGESTIVOS-000000000124500000000000000000000000000000000000000000000000000000000000000000000000000000000000000000000000000000000000PES00010000001 00000000000000000000000
201604130060000100000000000000024262000000000000000242629600000000033714143609CENTRO-DE-ESTUDIOS-DIGESTIVOS-000000000016000000000000000000000000000000000000000000000000000000000000000000000000000000000000000000000000000000000000PES00010000001 00000000000000000000000
201604130060000100000000000000024263000000000000000242639600000000033714143609CENTRO-DE-ESTUDIOS-DIGESTIVOS-000000000047000000000000000000000000000000000000000000000000000000000000000000000000000000000000000000000000000000000000PES00010000001 00000000000000000000000
201604140060000100000000000000024264000000000000000242649600000000033714143609CENTRO-DE-ESTUDIOS-DIGESTIVOS-000000000103000000000000000000000000000000000000000000000000000000000000000000000000000000000000000000000000000000000000PES00010000001 00000000000000000000000
201604140060000100000000000000024265000000000000000242659600000000033714143609CENTRO-DE-ESTUDIOS-DIGESTIVOS-000000000027500000000000000000000000000000000000000000000000000000000000000000000000000000000000000000000000000000000000PES00010000001 00000000000000000000000
201604140060000100000000000000024266000000000000000242669600000000033714143609CENTRO-DE-ESTUDIOS-DIGESTIVOS-000000000006000000000000000000000000000000000000000000000000000000000000000000000000000000000000000000000000000000000000PES00010000001 00000000000000000000000
201604140060000100000000000000024267000000000000000242679600000000033714143609CENTRO-DE-ESTUDIOS-DIGESTIVOS-000000000035800000000000000000000000000000000000000000000000000000000000000000000000000000000000000000000000000000000000PES00010000001 00000000000000000000000
201604140060000100000000000000024268000000000000000242689600000000033714143609CENTRO-DE-ESTUDIOS-DIGESTIVOS-000000000095000000000000000000000000000000000000000000000000000000000000000000000000000000000000000000000000000000000000PES00010000001 00000000000000000000000
201604140060000100000000000000024269000000000000000242699600000000033714143609CENTRO-DE-ESTUDIOS-DIGESTIVOS-000000000015000000000000000000000000000000000000000000000000000000000000000000000000000000000000000000000000000000000000PES00010000001 00000000000000000000000
201604140060000100000000000000024270000000000000000242709600000000033714143609CENTRO-DE-ESTUDIOS-DIGESTIVOS-000000000096500000000000000000000000000000000000000000000000000000000000000000000000000000000000000000000000000000000000PES00010000001 00000000000000000000000
201604140060000100000000000000024271000000000000000242719600000000033714143609CENTRO-DE-ESTUDIOS-DIGESTIVOS-000000000024500000000000000000000000000000000000000000000000000000000000000000000000000000000000000000000000000000000000PES00010000001 00000000000000000000000
201604140060000100000000000000024272000000000000000242729600000000033714143609CENTRO-DE-ESTUDIOS-DIGESTIVOS-000000000019500000000000000000000000000000000000000000000000000000000000000000000000000000000000000000000000000000000000PES00010000001 00000000000000000000000
201604140060000100000000000000024273000000000000000242739600000000033714143609CENTRO-DE-ESTUDIOS-DIGESTIVOS-000000000008500000000000000000000000000000000000000000000000000000000000000000000000000000000000000000000000000000000000PES00010000001 00000000000000000000000
201604140060000100000000000000024274000000000000000242749600000000033714143609CENTRO-DE-ESTUDIOS-DIGESTIVOS-000000000089000000000000000000000000000000000000000000000000000000000000000000000000000000000000000000000000000000000000PES00010000001 00000000000000000000000
201604140060000100000000000000024275000000000000000242759600000000033714143609CENTRO-DE-ESTUDIOS-DIGESTIVOS-000000000166500000000000000000000000000000000000000000000000000000000000000000000000000000000000000000000000000000000000PES00010000001 00000000000000000000000
201604140060000100000000000000024276000000000000000242769600000000033714143609CENTRO-DE-ESTUDIOS-DIGESTIVOS-000000000106500000000000000000000000000000000000000000000000000000000000000000000000000000000000000000000000000000000000PES00010000001 00000000000000000000000
201604140060000100000000000000024277000000000000000242779600000000033714143609CENTRO-DE-ESTUDIOS-DIGESTIVOS-000000000112500000000000000000000000000000000000000000000000000000000000000000000000000000000000000000000000000000000000PES00010000001 00000000000000000000000
201604140060000100000000000000024278000000000000000242789600000000033714143609CENTRO-DE-ESTUDIOS-DIGESTIVOS-000000000039500000000000000000000000000000000000000000000000000000000000000000000000000000000000000000000000000000000000PES00010000001 00000000000000000000000
201604150060000100000000000000024279000000000000000242799600000000033714143609CENTRO-DE-ESTUDIOS-DIGESTIVOS-000000000014000000000000000000000000000000000000000000000000000000000000000000000000000000000000000000000000000000000000PES00010000001 00000000000000000000000
201604150060000100000000000000024280000000000000000242809600000000033714143609CENTRO-DE-ESTUDIOS-DIGESTIVOS-000000000044500000000000000000000000000000000000000000000000000000000000000000000000000000000000000000000000000000000000PES00010000001 00000000000000000000000
201604150060000100000000000000024281000000000000000242819600000000033714143609CENTRO-DE-ESTUDIOS-DIGESTIVOS-000000000127500000000000000000000000000000000000000000000000000000000000000000000000000000000000000000000000000000000000PES00010000001 00000000000000000000000
201604150060000100000000000000024282000000000000000242829600000000033714143609CENTRO-DE-ESTUDIOS-DIGESTIVOS-000000000109000000000000000000000000000000000000000000000000000000000000000000000000000000000000000000000000000000000000PES00010000001 00000000000000000000000
201604150060000100000000000000024283000000000000000242839600000000033714143609CENTRO-DE-ESTUDIOS-DIGESTIVOS-000000000039500000000000000000000000000000000000000000000000000000000000000000000000000000000000000000000000000000000000PES00010000001 00000000000000000000000
201604150060000100000000000000024284000000000000000242849600000000033714143609CENTRO-DE-ESTUDIOS-DIGESTIVOS-000000000235000000000000000000000000000000000000000000000000000000000000000000000000000000000000000000000000000000000000PES00010000001 00000000000000000000000
201604150060000100000000000000024285000000000000000242859600000000033714143609CENTRO-DE-ESTUDIOS-DIGESTIVOS-000000000038500000000000000000000000000000000000000000000000000000000000000000000000000000000000000000000000000000000000PES00010000001 00000000000000000000000
201604150060000100000000000000024286000000000000000242869600000000033714143609CENTRO-DE-ESTUDIOS-DIGESTIVOS-000000000103500000000000000000000000000000000000000000000000000000000000000000000000000000000000000000000000000000000000PES00010000001 00000000000000000000000
201604150060000100000000000000024287000000000000000242879600000000033714143609CENTRO-DE-ESTUDIOS-DIGESTIVOS-000000000028000000000000000000000000000000000000000000000000000000000000000000000000000000000000000000000000000000000000PES00010000001 00000000000000000000000
201604150060000100000000000000024288000000000000000242889600000000033714143609CENTRO-DE-ESTUDIOS-DIGESTIVOS-000000000118300000000000000000000000000000000000000000000000000000000000000000000000000000000000000000000000000000000000PES00010000001 00000000000000000000000
201604150060000100000000000000024289000000000000000242899600000000033714143609CENTRO-DE-ESTUDIOS-DIGESTIVOS-000000000057000000000000000000000000000000000000000000000000000000000000000000000000000000000000000000000000000000000000PES00010000001 00000000000000000000000
201604150060000100000000000000024290000000000000000242909600000000033714143609CENTRO-DE-ESTUDIOS-DIGESTIVOS-000000000044500000000000000000000000000000000000000000000000000000000000000000000000000000000000000000000000000000000000PES00010000001 00000000000000000000000
201604150060000100000000000000024291000000000000000242919600000000033714143609CENTRO-DE-ESTUDIOS-DIGESTIVOS-000000000021500000000000000000000000000000000000000000000000000000000000000000000000000000000000000000000000000000000000PES00010000001 00000000000000000000000
201604150060000100000000000000024292000000000000000242929600000000033714143609CENTRO-DE-ESTUDIOS-DIGESTIVOS-000000000099500000000000000000000000000000000000000000000000000000000000000000000000000000000000000000000000000000000000PES00010000001 00000000000000000000000
201604160060000100000000000000024293000000000000000242939600000000033714143609CENTRO-DE-ESTUDIOS-DIGESTIVOS-000000000049000000000000000000000000000000000000000000000000000000000000000000000000000000000000000000000000000000000000PES00010000001 00000000000000000000000
201604160060000100000000000000024294000000000000000242949600000000033714143609CENTRO-DE-ESTUDIOS-DIGESTIVOS-000000000044500000000000000000000000000000000000000000000000000000000000000000000000000000000000000000000000000000000000PES00010000001 00000000000000000000000
201604160060000100000000000000024295000000000000000242959600000000033714143609CENTRO-DE-ESTUDIOS-DIGESTIVOS-000000000163500000000000000000000000000000000000000000000000000000000000000000000000000000000000000000000000000000000000PES00010000001 00000000000000000000000
201604160060000100000000000000024296000000000000000242969600000000033714143609CENTRO-DE-ESTUDIOS-DIGESTIVOS-000000000066900000000000000000000000000000000000000000000000000000000000000000000000000000000000000000000000000000000000PES00010000001 00000000000000000000000
201604160060000100000000000000024297000000000000000242979600000000033714143609CENTRO-DE-ESTUDIOS-DIGESTIVOS-000000000103300000000000000000000000000000000000000000000000000000000000000000000000000000000000000000000000000000000000PES00010000001 00000000000000000000000
201604160060000100000000000000024298000000000000000242989600000000033714143609CENTRO-DE-ESTUDIOS-DIGESTIVOS-000000000049500000000000000000000000000000000000000000000000000000000000000000000000000000000000000000000000000000000000PES00010000001 00000000000000000000000
201604160060000100000000000000024299000000000000000242999600000000033714143609CENTRO-DE-ESTUDIOS-DIGESTIVOS-000000000057500000000000000000000000000000000000000000000000000000000000000000000000000000000000000000000000000000000000PES00010000001 00000000000000000000000
201604160060000100000000000000024300000000000000000243009600000000033714143609CENTRO-DE-ESTUDIOS-DIGESTIVOS-000000000047500000000000000000000000000000000000000000000000000000000000000000000000000000000000000000000000000000000000PES00010000001 00000000000000000000000
201604160060000100000000000000024301000000000000000243019600000000033714143609CENTRO-DE-ESTUDIOS-DIGESTIVOS-000000000116000000000000000000000000000000000000000000000000000000000000000000000000000000000000000000000000000000000000PES00010000001 00000000000000000000000
201604160060000100000000000000024302000000000000000243029600000000033714143609CENTRO-DE-ESTUDIOS-DIGESTIVOS-000000000047000000000000000000000000000000000000000000000000000000000000000000000000000000000000000000000000000000000000PES00010000001 00000000000000000000000
201604160060000100000000000000024303000000000000000243039600000000033714143609CENTRO-DE-ESTUDIOS-DIGESTIVOS-000000000064500000000000000000000000000000000000000000000000000000000000000000000000000000000000000000000000000000000000PES00010000001 00000000000000000000000
201604160060000100000000000000024304000000000000000243049600000000033714143609CENTRO-DE-ESTUDIOS-DIGESTIVOS-000000000028000000000000000000000000000000000000000000000000000000000000000000000000000000000000000000000000000000000000PES00010000001 00000000000000000000000
201604160060000100000000000000024305000000000000000243059600000000033714143609CENTRO-DE-ESTUDIOS-DIGESTIVOS-000000000046800000000000000000000000000000000000000000000000000000000000000000000000000000000000000000000000000000000000PES00010000001 00000000000000000000000
201604160060000100000000000000024306000000000000000243069600000000033714143609CENTRO-DE-ESTUDIOS-DIGESTIVOS-000000000044000000000000000000000000000000000000000000000000000000000000000000000000000000000000000000000000000000000000PES00010000001 00000000000000000000000
201604160060000100000000000000024307000000000000000243079600000000033714143609CENTRO-DE-ESTUDIOS-DIGESTIVOS-000000000027500000000000000000000000000000000000000000000000000000000000000000000000000000000000000000000000000000000000PES00010000001 00000000000000000000000
201604160060000100000000000000024308000000000000000243089600000000033714143609CENTRO-DE-ESTUDIOS-DIGESTIVOS-000000000029500000000000000000000000000000000000000000000000000000000000000000000000000000000000000000000000000000000000PES00010000001 00000000000000000000000
201604180060000100000000000000024309000000000000000243099600000000033714143609CENTRO-DE-ESTUDIOS-DIGESTIVOS-000000000076500000000000000000000000000000000000000000000000000000000000000000000000000000000000000000000000000000000000PES00010000001 00000000000000000000000
201604180060000100000000000000024310000000000000000243109600000000033714143609CENTRO-DE-ESTUDIOS-DIGESTIVOS-000000000053000000000000000000000000000000000000000000000000000000000000000000000000000000000000000000000000000000000000PES00010000001 00000000000000000000000
201604180060000100000000000000024311000000000000000243119600000000033714143609CENTRO-DE-ESTUDIOS-DIGESTIVOS-000000000051500000000000000000000000000000000000000000000000000000000000000000000000000000000000000000000000000000000000PES00010000001 00000000000000000000000
201604180060000100000000000000024312000000000000000243129600000000033714143609CENTRO-DE-ESTUDIOS-DIGESTIVOS-000000000015000000000000000000000000000000000000000000000000000000000000000000000000000000000000000000000000000000000000PES00010000001 00000000000000000000000
201604180060000100000000000000024313000000000000000243139600000000033714143609CENTRO-DE-ESTUDIOS-DIGESTIVOS-000000000085400000000000000000000000000000000000000000000000000000000000000000000000000000000000000000000000000000000000PES00010000001 00000000000000000000000
201604180060000100000000000000024314000000000000000243149600000000033714143609CENTRO-DE-ESTUDIOS-DIGESTIVOS-000000000019500000000000000000000000000000000000000000000000000000000000000000000000000000000000000000000000000000000000PES00010000001 00000000000000000000000
201604180060000100000000000000024315000000000000000243159600000000033714143609CENTRO-DE-ESTUDIOS-DIGESTIVOS-000000000038500000000000000000000000000000000000000000000000000000000000000000000000000000000000000000000000000000000000PES00010000001 00000000000000000000000
201604180060000100000000000000024316000000000000000243169600000000033714143609CENTRO-DE-ESTUDIOS-DIGESTIVOS-000000000058000000000000000000000000000000000000000000000000000000000000000000000000000000000000000000000000000000000000PES00010000001 00000000000000000000000
201604180060000100000000000000024317000000000000000243179600000000033714143609CENTRO-DE-ESTUDIOS-DIGESTIVOS-000000000014500000000000000000000000000000000000000000000000000000000000000000000000000000000000000000000000000000000000PES00010000001 00000000000000000000000
201604180060000100000000000000024318000000000000000243189600000000033714143609CENTRO-DE-ESTUDIOS-DIGESTIVOS-000000000073000000000000000000000000000000000000000000000000000000000000000000000000000000000000000000000000000000000000PES00010000001 00000000000000000000000
201604180060000100000000000000024319000000000000000243199600000000033714143609CENTRO-DE-ESTUDIOS-DIGESTIVOS-000000000058500000000000000000000000000000000000000000000000000000000000000000000000000000000000000000000000000000000000PES00010000001 00000000000000000000000
201604180060000100000000000000024320000000000000000243209600000000033714143609CENTRO-DE-ESTUDIOS-DIGESTIVOS-000000000033000000000000000000000000000000000000000000000000000000000000000000000000000000000000000000000000000000000000PES00010000001 00000000000000000000000
201604180060000100000000000000024321000000000000000243219600000000033714143609CENTRO-DE-ESTUDIOS-DIGESTIVOS-000000000091000000000000000000000000000000000000000000000000000000000000000000000000000000000000000000000000000000000000PES00010000001 00000000000000000000000
201604190060000100000000000000024322000000000000000243229600000000033714143609CENTRO-DE-ESTUDIOS-DIGESTIVOS-000000000125500000000000000000000000000000000000000000000000000000000000000000000000000000000000000000000000000000000000PES00010000001 00000000000000000000000
201604190060000100000000000000024323000000000000000243239600000000033714143609CENTRO-DE-ESTUDIOS-DIGESTIVOS-000000000032500000000000000000000000000000000000000000000000000000000000000000000000000000000000000000000000000000000000PES00010000001 00000000000000000000000
201604190060000100000000000000024324000000000000000243249600000000033714143609CENTRO-DE-ESTUDIOS-DIGESTIVOS-000000000115000000000000000000000000000000000000000000000000000000000000000000000000000000000000000000000000000000000000PES00010000001 00000000000000000000000
201604190060000100000000000000024325000000000000000243259600000000033714143609CENTRO-DE-ESTUDIOS-DIGESTIVOS-000000000043500000000000000000000000000000000000000000000000000000000000000000000000000000000000000000000000000000000000PES00010000001 00000000000000000000000
201604190060000100000000000000024326000000000000000243269600000000033714143609CENTRO-DE-ESTUDIOS-DIGESTIVOS-000000000060500000000000000000000000000000000000000000000000000000000000000000000000000000000000000000000000000000000000PES00010000001 00000000000000000000000
201604190060000100000000000000024327000000000000000243279600000000033714143609CENTRO-DE-ESTUDIOS-DIGESTIVOS-000000000097900000000000000000000000000000000000000000000000000000000000000000000000000000000000000000000000000000000000PES00010000001 00000000000000000000000
201604190060000100000000000000024328000000000000000243289600000000033714143609CENTRO-DE-ESTUDIOS-DIGESTIVOS-000000000100000000000000000000000000000000000000000000000000000000000000000000000000000000000000000000000000000000000000PES00010000001 00000000000000000000000
201604200060000100000000000000024329000000000000000243299600000000033714143609CENTRO-DE-ESTUDIOS-DIGESTIVOS-000000000037500000000000000000000000000000000000000000000000000000000000000000000000000000000000000000000000000000000000PES00010000001 00000000000000000000000
201604200060000100000000000000024330000000000000000243309600000000033714143609CENTRO-DE-ESTUDIOS-DIGESTIVOS-000000000016000000000000000000000000000000000000000000000000000000000000000000000000000000000000000000000000000000000000PES00010000001 00000000000000000000000
201604200060000100000000000000024331000000000000000243319600000000033714143609CENTRO-DE-ESTUDIOS-DIGESTIVOS-000000000008500000000000000000000000000000000000000000000000000000000000000000000000000000000000000000000000000000000000PES00010000001 00000000000000000000000
201604200060000100000000000000024332000000000000000243329600000000033714143609CENTRO-DE-ESTUDIOS-DIGESTIVOS-000000000008500000000000000000000000000000000000000000000000000000000000000000000000000000000000000000000000000000000000PES00010000001 00000000000000000000000
201604200060000100000000000000024333000000000000000243339600000000033714143609CENTRO-DE-ESTUDIOS-DIGESTIVOS-000000000235500000000000000000000000000000000000000000000000000000000000000000000000000000000000000000000000000000000000PES00010000001 00000000000000000000000
201604200060000100000000000000024334000000000000000243349600000000033714143609CENTRO-DE-ESTUDIOS-DIGESTIVOS-000000000344600000000000000000000000000000000000000000000000000000000000000000000000000000000000000000000000000000000000PES00010000001 00000000000000000000000
201604200060000100000000000000024335000000000000000243359600000000033714143609CENTRO-DE-ESTUDIOS-DIGESTIVOS-000000000096100000000000000000000000000000000000000000000000000000000000000000000000000000000000000000000000000000000000PES00010000001 00000000000000000000000
201604200060000100000000000000024336000000000000000243369600000000033714143609CENTRO-DE-ESTUDIOS-DIGESTIVOS-000000000037500000000000000000000000000000000000000000000000000000000000000000000000000000000000000000000000000000000000PES00010000001 00000000000000000000000
201604200060000100000000000000024337000000000000000243379600000000033714143609CENTRO-DE-ESTUDIOS-DIGESTIVOS-000000000038000000000000000000000000000000000000000000000000000000000000000000000000000000000000000000000000000000000000PES00010000001 00000000000000000000000
201604200060000100000000000000024338000000000000000243389600000000033714143609CENTRO-DE-ESTUDIOS-DIGESTIVOS-000000000044000000000000000000000000000000000000000000000000000000000000000000000000000000000000000000000000000000000000PES00010000001 00000000000000000000000
201604200060000100000000000000024339000000000000000243399600000000033714143609CENTRO-DE-ESTUDIOS-DIGESTIVOS-000000000119500000000000000000000000000000000000000000000000000000000000000000000000000000000000000000000000000000000000PES00010000001 00000000000000000000000
201604200060000100000000000000024340000000000000000243409600000000033714143609CENTRO-DE-ESTUDIOS-DIGESTIVOS-000000000038500000000000000000000000000000000000000000000000000000000000000000000000000000000000000000000000000000000000PES00010000001 00000000000000000000000
201604200060000100000000000000024341000000000000000243419600000000033714143609CENTRO-DE-ESTUDIOS-DIGESTIVOS-000000000136000000000000000000000000000000000000000000000000000000000000000000000000000000000000000000000000000000000000PES00010000001 00000000000000000000000
201604200060000100000000000000024342000000000000000243429600000000033714143609CENTRO-DE-ESTUDIOS-DIGESTIVOS-000000000107500000000000000000000000000000000000000000000000000000000000000000000000000000000000000000000000000000000000PES00010000001 00000000000000000000000
201604200060000100000000000000024343000000000000000243439600000000033714143609CENTRO-DE-ESTUDIOS-DIGESTIVOS-000000000021500000000000000000000000000000000000000000000000000000000000000000000000000000000000000000000000000000000000PES00010000001 00000000000000000000000
201604200060000100000000000000024344000000000000000243449600000000033714143609CENTRO-DE-ESTUDIOS-DIGESTIVOS-000000000039800000000000000000000000000000000000000000000000000000000000000000000000000000000000000000000000000000000000PES00010000001 00000000000000000000000
201604210060000100000000000000024345000000000000000243459600000000033714143609CENTRO-DE-ESTUDIOS-DIGESTIVOS-000000000053300000000000000000000000000000000000000000000000000000000000000000000000000000000000000000000000000000000000PES00010000001 00000000000000000000000
201604210060000100000000000000024346000000000000000243469600000000033714143609CENTRO-DE-ESTUDIOS-DIGESTIVOS-000000000023500000000000000000000000000000000000000000000000000000000000000000000000000000000000000000000000000000000000PES00010000001 00000000000000000000000
201604210060000100000000000000024347000000000000000243479600000000030711164614-ASOCIACION-COOP-ESC-N-766-PER000000000047500000000000000000000000000000000000000000000000000000000000000000000000000000000000000000000000000000000000PES00010000001 00000000000000000000000
201604210060000100000000000000024348000000000000000243489600000000033714143609CENTRO-DE-ESTUDIOS-DIGESTIVOS-000000000191300000000000000000000000000000000000000000000000000000000000000000000000000000000000000000000000000000000000PES00010000001 00000000000000000000000
201604210060000100000000000000024349000000000000000243499600000000033714143609CENTRO-DE-ESTUDIOS-DIGESTIVOS-000000000059000000000000000000000000000000000000000000000000000000000000000000000000000000000000000000000000000000000000PES00010000001 00000000000000000000000
201604210060000100000000000000024350000000000000000243509600000000033714143609CENTRO-DE-ESTUDIOS-DIGESTIVOS-000000000139200000000000000000000000000000000000000000000000000000000000000000000000000000000000000000000000000000000000PES00010000001 00000000000000000000000
201604210060000100000000000000024351000000000000000243519600000000033714143609CENTRO-DE-ESTUDIOS-DIGESTIVOS-000000000052000000000000000000000000000000000000000000000000000000000000000000000000000000000000000000000000000000000000PES00010000001 00000000000000000000000
201604210060000100000000000000024352000000000000000243529600000000033714143609CENTRO-DE-ESTUDIOS-DIGESTIVOS-000000000130000000000000000000000000000000000000000000000000000000000000000000000000000000000000000000000000000000000000PES00010000001 00000000000000000000000
201604210060000100000000000000024353000000000000000243539600000000033714143609CENTRO-DE-ESTUDIOS-DIGESTIVOS-000000000042000000000000000000000000000000000000000000000000000000000000000000000000000000000000000000000000000000000000PES00010000001 00000000000000000000000
201604210060000100000000000000024354000000000000000243549600000000033714143609CENTRO-DE-ESTUDIOS-DIGESTIVOS-000000000066500000000000000000000000000000000000000000000000000000000000000000000000000000000000000000000000000000000000PES00010000001 00000000000000000000000
201604210060000100000000000000024355000000000000000243559600000000033714143609CENTRO-DE-ESTUDIOS-DIGESTIVOS-000000000027500000000000000000000000000000000000000000000000000000000000000000000000000000000000000000000000000000000000PES00010000001 00000000000000000000000
201604220060000100000000000000024356000000000000000243569600000000033714143609CENTRO-DE-ESTUDIOS-DIGESTIVOS-000000000015000000000000000000000000000000000000000000000000000000000000000000000000000000000000000000000000000000000000PES00010000001 00000000000000000000000
201604220060000100000000000000024357000000000000000243579600000000033714143609CENTRO-DE-ESTUDIOS-DIGESTIVOS-000000000137500000000000000000000000000000000000000000000000000000000000000000000000000000000000000000000000000000000000PES00010000001 00000000000000000000000
201604220060000100000000000000024358000000000000000243589600000000033714143609CENTRO-DE-ESTUDIOS-DIGESTIVOS-000000000069800000000000000000000000000000000000000000000000000000000000000000000000000000000000000000000000000000000000PES00010000001 00000000000000000000000
201604220060000100000000000000024359000000000000000243599600000000033714143609CENTRO-DE-ESTUDIOS-DIGESTIVOS-000000000066000000000000000000000000000000000000000000000000000000000000000000000000000000000000000000000000000000000000PES00010000001 00000000000000000000000
201604220060000100000000000000024360000000000000000243609600000000033714143609CENTRO-DE-ESTUDIOS-DIGESTIVOS-000000000039200000000000000000000000000000000000000000000000000000000000000000000000000000000000000000000000000000000000PES00010000001 00000000000000000000000
201604220060000100000000000000024361000000000000000243619600000000033714143609CENTRO-DE-ESTUDIOS-DIGESTIVOS-000000000366300000000000000000000000000000000000000000000000000000000000000000000000000000000000000000000000000000000000PES00010000001 00000000000000000000000
201604220060000100000000000000024362000000000000000243629600000000033714143609CENTRO-DE-ESTUDIOS-DIGESTIVOS-000000000043000000000000000000000000000000000000000000000000000000000000000000000000000000000000000000000000000000000000PES00010000001 00000000000000000000000
201604220060000100000000000000024363000000000000000243639600000000033714143609CENTRO-DE-ESTUDIOS-DIGESTIVOS-000000000035000000000000000000000000000000000000000000000000000000000000000000000000000000000000000000000000000000000000PES00010000001 00000000000000000000000
201604220060000100000000000000024364000000000000000243649600000000033714143609CENTRO-DE-ESTUDIOS-DIGESTIVOS-000000000029800000000000000000000000000000000000000000000000000000000000000000000000000000000000000000000000000000000000PES00010000001 00000000000000000000000
201604220060000100000000000000024365000000000000000243659600000000033714143609CENTRO-DE-ESTUDIOS-DIGESTIVOS-000000000117500000000000000000000000000000000000000000000000000000000000000000000000000000000000000000000000000000000000PES00010000001 00000000000000000000000
201604220060000100000000000000024366000000000000000243669600000000033714143609CENTRO-DE-ESTUDIOS-DIGESTIVOS-000000000010500000000000000000000000000000000000000000000000000000000000000000000000000000000000000000000000000000000000PES00010000001 00000000000000000000000
201604220060000100000000000000024367000000000000000243679600000000033714143609CENTRO-DE-ESTUDIOS-DIGESTIVOS-000000000029800000000000000000000000000000000000000000000000000000000000000000000000000000000000000000000000000000000000PES00010000001 00000000000000000000000
201604220060000100000000000000024368000000000000000243689600000000033714143609CENTRO-DE-ESTUDIOS-DIGESTIVOS-000000000039500000000000000000000000000000000000000000000000000000000000000000000000000000000000000000000000000000000000PES00010000001 00000000000000000000000
201604220060000100000000000000024369000000000000000243699600000000033714143609CENTRO-DE-ESTUDIOS-DIGESTIVOS-000000000040500000000000000000000000000000000000000000000000000000000000000000000000000000000000000000000000000000000000PES00010000001 00000000000000000000000
201604230060000100000000000000024370000000000000000243709600000000033714143609CENTRO-DE-ESTUDIOS-DIGESTIVOS-000000000235000000000000000000000000000000000000000000000000000000000000000000000000000000000000000000000000000000000000PES00010000001 00000000000000000000000
201604230060000100000000000000024371000000000000000243719600000000033714143609CENTRO-DE-ESTUDIOS-DIGESTIVOS-000000000147500000000000000000000000000000000000000000000000000000000000000000000000000000000000000000000000000000000000PES00010000001 00000000000000000000000
201604230060000100000000000000024372000000000000000243729600000000033714143609CENTRO-DE-ESTUDIOS-DIGESTIVOS-000000000052000000000000000000000000000000000000000000000000000000000000000000000000000000000000000000000000000000000000PES00010000001 00000000000000000000000
201604230060000100000000000000024373000000000000000243739600000000033714143609CENTRO-DE-ESTUDIOS-DIGESTIVOS-000000000037500000000000000000000000000000000000000000000000000000000000000000000000000000000000000000000000000000000000PES00010000001 00000000000000000000000
201604230060000100000000000000024374000000000000000243749600000000033714143609CENTRO-DE-ESTUDIOS-DIGESTIVOS-000000000292000000000000000000000000000000000000000000000000000000000000000000000000000000000000000000000000000000000000PES00010000001 00000000000000000000000
201604230060000100000000000000024375000000000000000243759600000000033714143609CENTRO-DE-ESTUDIOS-DIGESTIVOS-000000000051000000000000000000000000000000000000000000000000000000000000000000000000000000000000000000000000000000000000PES00010000001 00000000000000000000000
201604230060000100000000000000024376000000000000000243769600000000033714143609CENTRO-DE-ESTUDIOS-DIGESTIVOS-000000000137500000000000000000000000000000000000000000000000000000000000000000000000000000000000000000000000000000000000PES00010000001 00000000000000000000000
201604230060000100000000000000024377000000000000000243779600000000033714143609CENTRO-DE-ESTUDIOS-DIGESTIVOS-000000000055000000000000000000000000000000000000000000000000000000000000000000000000000000000000000000000000000000000000PES00010000001 00000000000000000000000
201604230060000100000000000000024378000000000000000243789600000000033714143609CENTRO-DE-ESTUDIOS-DIGESTIVOS-000000000104800000000000000000000000000000000000000000000000000000000000000000000000000000000000000000000000000000000000PES00010000001 00000000000000000000000
201604230060000100000000000000024379000000000000000243799600000000033714143609CENTRO-DE-ESTUDIOS-DIGESTIVOS-000000000111500000000000000000000000000000000000000000000000000000000000000000000000000000000000000000000000000000000000PES00010000001 00000000000000000000000
201604230060000100000000000000024380000000000000000243809600000000033714143609CENTRO-DE-ESTUDIOS-DIGESTIVOS-000000000063000000000000000000000000000000000000000000000000000000000000000000000000000000000000000000000000000000000000PES00010000001 00000000000000000000000
201604230060000100000000000000024381000000000000000243819600000000033714143609CENTRO-DE-ESTUDIOS-DIGESTIVOS-000000000048000000000000000000000000000000000000000000000000000000000000000000000000000000000000000000000000000000000000PES00010000001 00000000000000000000000
201604230060000100000000000000024382000000000000000243829600000000033714143609CENTRO-DE-ESTUDIOS-DIGESTIVOS-000000000077500000000000000000000000000000000000000000000000000000000000000000000000000000000000000000000000000000000000PES00010000001 00000000000000000000000
201604230060000100000000000000024383000000000000000243839600000000033714143609CENTRO-DE-ESTUDIOS-DIGESTIVOS-000000000034800000000000000000000000000000000000000000000000000000000000000000000000000000000000000000000000000000000000PES00010000001 00000000000000000000000
201604230060000100000000000000024384000000000000000243849600000000033714143609CENTRO-DE-ESTUDIOS-DIGESTIVOS-000000000023000000000000000000000000000000000000000000000000000000000000000000000000000000000000000000000000000000000000PES00010000001 00000000000000000000000
201604250060000100000000000000024385000000000000000243859600000000033714143609CENTRO-DE-ESTUDIOS-DIGESTIVOS-000000000044500000000000000000000000000000000000000000000000000000000000000000000000000000000000000000000000000000000000PES00010000001 00000000000000000000000
201604250060000100000000000000024386000000000000000243869600000000033714143609CENTRO-DE-ESTUDIOS-DIGESTIVOS-000000000164900000000000000000000000000000000000000000000000000000000000000000000000000000000000000000000000000000000000PES00010000001 00000000000000000000000
201604250060000100000000000000024387000000000000000243879600000000033714143609CENTRO-DE-ESTUDIOS-DIGESTIVOS-000000000030000000000000000000000000000000000000000000000000000000000000000000000000000000000000000000000000000000000000PES00010000001 00000000000000000000000
201604250060000100000000000000024388000000000000000243889600000000033714143609CENTRO-DE-ESTUDIOS-DIGESTIVOS-000000000152700000000000000000000000000000000000000000000000000000000000000000000000000000000000000000000000000000000000PES00010000001 00000000000000000000000
201604250060000100000000000000024389000000000000000243899600000000033714143609CENTRO-DE-ESTUDIOS-DIGESTIVOS-000000000030000000000000000000000000000000000000000000000000000000000000000000000000000000000000000000000000000000000000PES00010000001 00000000000000000000000
201604250060000100000000000000024390000000000000000243909600000000033714143609CENTRO-DE-ESTUDIOS-DIGESTIVOS-000000000079800000000000000000000000000000000000000000000000000000000000000000000000000000000000000000000000000000000000PES00010000001 00000000000000000000000
201604250060000100000000000000024391000000000000000243919600000000033714143609CENTRO-DE-ESTUDIOS-DIGESTIVOS-000000000017000000000000000000000000000000000000000000000000000000000000000000000000000000000000000000000000000000000000PES00010000001 00000000000000000000000
201604250060000100000000000000024392000000000000000243929600000000033714143609CENTRO-DE-ESTUDIOS-DIGESTIVOS-000000000057500000000000000000000000000000000000000000000000000000000000000000000000000000000000000000000000000000000000PES00010000001 00000000000000000000000
201604250060000100000000000000024393000000000000000243939600000000033714143609CENTRO-DE-ESTUDIOS-DIGESTIVOS-000000000040000000000000000000000000000000000000000000000000000000000000000000000000000000000000000000000000000000000000PES00010000001 00000000000000000000000
201604250060000100000000000000024394000000000000000243949600000000033714143609CENTRO-DE-ESTUDIOS-DIGESTIVOS-000000000023500000000000000000000000000000000000000000000000000000000000000000000000000000000000000000000000000000000000PES00010000001 00000000000000000000000
201604250060000100000000000000024395000000000000000243959600000000033714143609CENTRO-DE-ESTUDIOS-DIGESTIVOS-000000000032000000000000000000000000000000000000000000000000000000000000000000000000000000000000000000000000000000000000PES00010000001 00000000000000000000000
201604250060000100000000000000024396000000000000000243969600000000033714143609CENTRO-DE-ESTUDIOS-DIGESTIVOS-000000000124800000000000000000000000000000000000000000000000000000000000000000000000000000000000000000000000000000000000PES00010000001 00000000000000000000000
201604250060000100000000000000024397000000000000000243979600000000033714143609CENTRO-DE-ESTUDIOS-DIGESTIVOS-000000000020000000000000000000000000000000000000000000000000000000000000000000000000000000000000000000000000000000000000PES00010000001 00000000000000000000000
201604260060000100000000000000024398000000000000000243989600000000033714143609CENTRO-DE-ESTUDIOS-DIGESTIVOS-000000000082000000000000000000000000000000000000000000000000000000000000000000000000000000000000000000000000000000000000PES00010000001 00000000000000000000000
201604260060000100000000000000024399000000000000000243999600000000033714143609CENTRO-DE-ESTUDIOS-DIGESTIVOS-000000000094500000000000000000000000000000000000000000000000000000000000000000000000000000000000000000000000000000000000PES00010000001 00000000000000000000000
201604260060000100000000000000024400000000000000000244009600000000033714143609CENTRO-DE-ESTUDIOS-DIGESTIVOS-000000000030500000000000000000000000000000000000000000000000000000000000000000000000000000000000000000000000000000000000PES00010000001 00000000000000000000000
201604260060000100000000000000024401000000000000000244019600000000033714143609CENTRO-DE-ESTUDIOS-DIGESTIVOS-000000000047500000000000000000000000000000000000000000000000000000000000000000000000000000000000000000000000000000000000PES00010000001 00000000000000000000000
201604260060000100000000000000024402000000000000000244029600000000033714143609CENTRO-DE-ESTUDIOS-DIGESTIVOS-000000000040000000000000000000000000000000000000000000000000000000000000000000000000000000000000000000000000000000000000PES00010000001 00000000000000000000000
201604260060000100000000000000024403000000000000000244039600000000033714143609CENTRO-DE-ESTUDIOS-DIGESTIVOS-000000000127500000000000000000000000000000000000000000000000000000000000000000000000000000000000000000000000000000000000PES00010000001 00000000000000000000000
201604260060000100000000000000024404000000000000000244049600000000033714143609CENTRO-DE-ESTUDIOS-DIGESTIVOS-000000000019000000000000000000000000000000000000000000000000000000000000000000000000000000000000000000000000000000000000PES00010000001 00000000000000000000000
201604260060000100000000000000024405000000000000000244059600000000033714143609CENTRO-DE-ESTUDIOS-DIGESTIVOS-000000000033000000000000000000000000000000000000000000000000000000000000000000000000000000000000000000000000000000000000PES00010000001 00000000000000000000000
201604260060000100000000000000024406000000000000000244069600000000033714143609CENTRO-DE-ESTUDIOS-DIGESTIVOS-000000000025000000000000000000000000000000000000000000000000000000000000000000000000000000000000000000000000000000000000PES00010000001 00000000000000000000000
201604270060000100000000000000024407000000000000000244079600000000033714143609CENTRO-DE-ESTUDIOS-DIGESTIVOS-000000000055000000000000000000000000000000000000000000000000000000000000000000000000000000000000000000000000000000000000PES00010000001 00000000000000000000000
201604270060000100000000000000024408000000000000000244089600000000033714143609CENTRO-DE-ESTUDIOS-DIGESTIVOS-000000000033000000000000000000000000000000000000000000000000000000000000000000000000000000000000000000000000000000000000PES00010000001 00000000000000000000000
201604270060000100000000000000024409000000000000000244099600000000033714143609CENTRO-DE-ESTUDIOS-DIGESTIVOS-000000000102000000000000000000000000000000000000000000000000000000000000000000000000000000000000000000000000000000000000PES00010000001 00000000000000000000000
201604270060000100000000000000024410000000000000000244109600000000033714143609CENTRO-DE-ESTUDIOS-DIGESTIVOS-000000000048000000000000000000000000000000000000000000000000000000000000000000000000000000000000000000000000000000000000PES00010000001 00000000000000000000000
201604270060000100000000000000024411000000000000000244119600000000033714143609CENTRO-DE-ESTUDIOS-DIGESTIVOS-000000000042700000000000000000000000000000000000000000000000000000000000000000000000000000000000000000000000000000000000PES00010000001 00000000000000000000000
201604270060000100000000000000024412000000000000000244129600000000033714143609CENTRO-DE-ESTUDIOS-DIGESTIVOS-000000000049000000000000000000000000000000000000000000000000000000000000000000000000000000000000000000000000000000000000PES00010000001 00000000000000000000000
201604270060000100000000000000024413000000000000000244139600000000033714143609CENTRO-DE-ESTUDIOS-DIGESTIVOS-000000000197500000000000000000000000000000000000000000000000000000000000000000000000000000000000000000000000000000000000PES00010000001 00000000000000000000000
201604270060000100000000000000024414000000000000000244149600000000033714143609CENTRO-DE-ESTUDIOS-DIGESTIVOS-000000000137500000000000000000000000000000000000000000000000000000000000000000000000000000000000000000000000000000000000PES00010000001 00000000000000000000000
201604270060000100000000000000024415000000000000000244159600000000033714143609CENTRO-DE-ESTUDIOS-DIGESTIVOS-000000000066000000000000000000000000000000000000000000000000000000000000000000000000000000000000000000000000000000000000PES00010000001 00000000000000000000000
201604270060000100000000000000024416000000000000000244169600000000033714143609CENTRO-DE-ESTUDIOS-DIGESTIVOS-000000000034500000000000000000000000000000000000000000000000000000000000000000000000000000000000000000000000000000000000PES00010000001 00000000000000000000000
201604270060000100000000000000024417000000000000000244179600000000033714143609CENTRO-DE-ESTUDIOS-DIGESTIVOS-000000000049000000000000000000000000000000000000000000000000000000000000000000000000000000000000000000000000000000000000PES00010000001 00000000000000000000000
201604280060000100000000000000024418000000000000000244189600000000033714143609CENTRO-DE-ESTUDIOS-DIGESTIVOS-000000000040000000000000000000000000000000000000000000000000000000000000000000000000000000000000000000000000000000000000PES00010000001 00000000000000000000000
201604280060000100000000000000024419000000000000000244199600000000033714143609CENTRO-DE-ESTUDIOS-DIGESTIVOS-000000000021000000000000000000000000000000000000000000000000000000000000000000000000000000000000000000000000000000000000PES00010000001 00000000000000000000000
201604280060000100000000000000024420000000000000000244209600000000033714143609CENTRO-DE-ESTUDIOS-DIGESTIVOS-000000000034000000000000000000000000000000000000000000000000000000000000000000000000000000000000000000000000000000000000PES00010000001 00000000000000000000000
201604280060000100000000000000024421000000000000000244219600000000033714143609CENTRO-DE-ESTUDIOS-DIGESTIVOS-000000000024000000000000000000000000000000000000000000000000000000000000000000000000000000000000000000000000000000000000PES00010000001 00000000000000000000000
201604280060000100000000000000024422000000000000000244229600000000033714143609CENTRO-DE-ESTUDIOS-DIGESTIVOS-000000000160000000000000000000000000000000000000000000000000000000000000000000000000000000000000000000000000000000000000PES00010000001 00000000000000000000000
201604280060000100000000000000024423000000000000000244239600000000033714143609CENTRO-DE-ESTUDIOS-DIGESTIVOS-000000000155000000000000000000000000000000000000000000000000000000000000000000000000000000000000000000000000000000000000PES00010000001 00000000000000000000000
201604280060000100000000000000024424000000000000000244249600000000033714143609CENTRO-DE-ESTUDIOS-DIGESTIVOS-000000000119500000000000000000000000000000000000000000000000000000000000000000000000000000000000000000000000000000000000PES00010000001 00000000000000000000000
201604280060000100000000000000024425000000000000000244259600000000033714143609CENTRO-DE-ESTUDIOS-DIGESTIVOS-000000000072800000000000000000000000000000000000000000000000000000000000000000000000000000000000000000000000000000000000PES00010000001 00000000000000000000000
201604280060000100000000000000024426000000000000000244269600000000033714143609CENTRO-DE-ESTUDIOS-DIGESTIVOS-000000000016000000000000000000000000000000000000000000000000000000000000000000000000000000000000000000000000000000000000PES00010000001 00000000000000000000000
201604290060000100000000000000024427000000000000000244279600000000033714143609CENTRO-DE-ESTUDIOS-DIGESTIVOS-000000000017500000000000000000000000000000000000000000000000000000000000000000000000000000000000000000000000000000000000PES00010000001 00000000000000000000000
201604290060000100000000000000024428000000000000000244289600000000033714143609CENTRO-DE-ESTUDIOS-DIGESTIVOS-000000000073500000000000000000000000000000000000000000000000000000000000000000000000000000000000000000000000000000000000PES00010000001 00000000000000000000000
201604290060000100000000000000024429000000000000000244299600000000033714143609CENTRO-DE-ESTUDIOS-DIGESTIVOS-000000000009000000000000000000000000000000000000000000000000000000000000000000000000000000000000000000000000000000000000PES00010000001 00000000000000000000000
201604290060000100000000000000024430000000000000000244309600000000033714143609CENTRO-DE-ESTUDIOS-DIGESTIVOS-000000000047000000000000000000000000000000000000000000000000000000000000000000000000000000000000000000000000000000000000PES00010000001 00000000000000000000000
201604290060000100000000000000024431000000000000000244319600000000033714143609CENTRO-DE-ESTUDIOS-DIGESTIVOS-000000000078000000000000000000000000000000000000000000000000000000000000000000000000000000000000000000000000000000000000PES00010000001 00000000000000000000000
201604290060000100000000000000024432000000000000000244329600000000033714143609CENTRO-DE-ESTUDIOS-DIGESTIVOS-000000000027500000000000000000000000000000000000000000000000000000000000000000000000000000000000000000000000000000000000PES00010000001 00000000000000000000000
201604290060000100000000000000024433000000000000000244339600000000033714143609CENTRO-DE-ESTUDIOS-DIGESTIVOS-000000000082500000000000000000000000000000000000000000000000000000000000000000000000000000000000000000000000000000000000PES00010000001 00000000000000000000000
201604290060000100000000000000024434000000000000000244349600000000033714143609CENTRO-DE-ESTUDIOS-DIGESTIVOS-000000000025000000000000000000000000000000000000000000000000000000000000000000000000000000000000000000000000000000000000PES00010000001 00000000000000000000000
201604290060000100000000000000024435000000000000000244359600000000033714143609CENTRO-DE-ESTUDIOS-DIGESTIVOS-000000000038500000000000000000000000000000000000000000000000000000000000000000000000000000000000000000000000000000000000PES00010000001 00000000000000000000000
201604290060000100000000000000024436000000000000000244369600000000033714143609CENTRO-DE-ESTUDIOS-DIGESTIVOS-000000000065000000000000000000000000000000000000000000000000000000000000000000000000000000000000000000000000000000000000PES00010000001 00000000000000000000000
201604290060000100000000000000024437000000000000000244379600000000033714143609CENTRO-DE-ESTUDIOS-DIGESTIVOS-000000000017500000000000000000000000000000000000000000000000000000000000000000000000000000000000000000000000000000000000PES00010000001 00000000000000000000000
201604290060000100000000000000024438000000000000000244389600000000033714143609CENTRO-DE-ESTUDIOS-DIGESTIVOS-000000000035000000000000000000000000000000000000000000000000000000000000000000000000000000000000000000000000000000000000PES00010000001 00000000000000000000000
201604290060000100000000000000024439000000000000000244399600000000033714143609CENTRO-DE-ESTUDIOS-DIGESTIVOS-000000000059300000000000000000000000000000000000000000000000000000000000000000000000000000000000000000000000000000000000PES00010000001 00000000000000000000000
201604290060000100000000000000024440000000000000000244409600000000033714143609CENTRO-DE-ESTUDIOS-DIGESTIVOS-000000000029500000000000000000000000000000000000000000000000000000000000000000000000000000000000000000000000000000000000PES00010000001 00000000000000000000000
201604300060000100000000000000024441000000000000000244419600000000033714143609CENTRO-DE-ESTUDIOS-DIGESTIVOS-000000000046800000000000000000000000000000000000000000000000000000000000000000000000000000000000000000000000000000000000PES00010000001 00000000000000000000000
201604300060000100000000000000024442000000000000000244429600000000033714143609CENTRO-DE-ESTUDIOS-DIGESTIVOS-000000000074000000000000000000000000000000000000000000000000000000000000000000000000000000000000000000000000000000000000PES00010000001 00000000000000000000000
201604300060000100000000000000024443000000000000000244439600000000033714143609CENTRO-DE-ESTUDIOS-DIGESTIVOS-000000000083500000000000000000000000000000000000000000000000000000000000000000000000000000000000000000000000000000000000PES00010000001 00000000000000000000000
201604300060000100000000000000024444000000000000000244449600000000033714143609CENTRO-DE-ESTUDIOS-DIGESTIVOS-000000000093300000000000000000000000000000000000000000000000000000000000000000000000000000000000000000000000000000000000PES00010000001 00000000000000000000000
201604300060000100000000000000024445000000000000000244459600000000033714143609CENTRO-DE-ESTUDIOS-DIGESTIVOS-000000000062500000000000000000000000000000000000000000000000000000000000000000000000000000000000000000000000000000000000PES00010000001 00000000000000000000000
201604300060000100000000000000024446000000000000000244469600000000033714143609CENTRO-DE-ESTUDIOS-DIGESTIVOS-000000000048000000000000000000000000000000000000000000000000000000000000000000000000000000000000000000000000000000000000PES00010000001 00000000000000000000000
201604300060000100000000000000024447000000000000000244479600000000033714143609CENTRO-DE-ESTUDIOS-DIGESTIVOS-000000000029800000000000000000000000000000000000000000000000000000000000000000000000000000000000000000000000000000000000PES00010000001 00000000000000000000000
201604300060000100000000000000024448000000000000000244489600000000033714143609CENTRO-DE-ESTUDIOS-DIGESTIVOS-000000000054600000000000000000000000000000000000000000000000000000000000000000000000000000000000000000000000000000000000PES00010000001 00000000000000000000000
201604300060000100000000000000024449000000000000000244499600000000030641440902-URGENCIAS-SRL                000000000008500000000000000000000000000000000000000000000000000000000000000000000000000000000000000000000000000000000000PES00010000001 00000000000000000000000
201604300060000100000000000000024450000000000000000244509600000000033714143609CENTRO-DE-ESTUDIOS-DIGESTIVOS-000000000018000000000000000000000000000000000000000000000000000000000000000000000000000000000000000000000000000000000000PES00010000001 00000000000000000000000
201604300060000100000000000000024451000000000000000244519600000000033714143609CENTRO-DE-ESTUDIOS-DIGESTIVOS-000000000123500000000000000000000000000000000000000000000000000000000000000000000000000000000000000000000000000000000000PES00010000001 00000000000000000000000
201604300060000100000000000000024452000000000000000244529600000000033714143609CENTRO-DE-ESTUDIOS-DIGESTIVOS-000000000081800000000000000000000000000000000000000000000000000000000000000000000000000000000000000000000000000000000000PES00010000001 00000000000000000000000
201604300060000100000000000000024453000000000000000244539600000000033714143609CENTRO-DE-ESTUDIOS-DIGESTIVOS-000000000055000000000000000000000000000000000000000000000000000000000000000000000000000000000000000000000000000000000000PES00010000001 00000000000000000000000
201604300060000100000000000000024454000000000000000244549600000000033714143609CENTRO-DE-ESTUDIOS-DIGESTIVOS-000000000066500000000000000000000000000000000000000000000000000000000000000000000000000000000000000000000000000000000000PES00010000001 00000000000000000000000
201604300060000100000000000000024455000000000000000244559600000000033714143609CENTRO-DE-ESTUDIOS-DIGESTIVOS-000000000241000000000000000000000000000000000000000000000000000000000000000000000000000000000000000000000000000000000000PES00010000001 00000000000000000000000
201604300060000100000000000000024456000000000000000244569600000000033714143609CENTRO-DE-ESTUDIOS-DIGESTIVOS-000000000025000000000000000000000000000000000000000000000000000000000000000000000000000000000000000000000000000000000000PES00010000001 00000000000000000000000
201604300060000100000000000000024457000000000000000244579600000000033714143609CENTRO-DE-ESTUDIOS-DIGESTIVOS-000000000046000000000000000000000000000000000000000000000000000000000000000000000000000000000000000000000000000000000000PES00010000001 00000000000000000000000
201604300060000100000000000000024458000000000000000244589600000000033714143609CENTRO-DE-ESTUDIOS-DIGESTIVOS-000000000035000000000000000000000000000000000000000000000000000000000000000000000000000000000000000000000000000000000000PES00010000001 00000000000000000000000
201604300060000100000000000000024459000000000000000244599600000000033714143609CENTRO-DE-ESTUDIOS-DIGESTIVOS-000000000027500000000000000000000000000000000000000000000000000000000000000000000000000000000000000000000000000000000000PES00010000001 00000000000000000000000
201604300060000100000000000000024460000000000000000244609600000000033714143609CENTRO-DE-ESTUDIOS-DIGESTIVOS-000000000035000000000000000000000000000000000000000000000000000000000000000000000000000000000000000000000000000000000000PES00010000001 00000000000000000000000
201604300060000100000000000000024461000000000000000244619600000000033714143609CENTRO-DE-ESTUDIOS-DIGESTIVOS-000000000035000000000000000000000000000000000000000000000000000000000000000000000000000000000000000000000000000000000000PES00010000001 00000000000000000000000
201604300060000100000000000000024462000000000000000244629600000000033714143609CENTRO-DE-ESTUDIOS-DIGESTIVOS-000000000142800000000000000000000000000000000000000000000000000000000000000000000000000000000000000000000000000000000000PES00010000001 00000000000000000000000
201604190060000100000000000000000034000000000000000000349600000000033714143609CENTRO-DE-ESTUDIOS-DIGESTIVOS-000000000115000000000000000000000000000000000000000000000000000000000000000000000000000000000000000000000000000000000000PES00010000001 00000000000000000000000
201604210060000100000000000000000035000000000000000000359600000000033714143609CENTRO-DE-ESTUDIOS-DIGESTIVOS-000000000047500000000000000000000000000000000000000000000000000000000000000000000000000000000000000000000000000000000000PES00010000001 00000000000000000000000
201604300060000100000000000000000036000000000000000000369600000000033714143609CENTRO-DE-ESTUDIOS-DIGESTIVOS-000000000241000000000000000000000000000000000000000000000000000000000000000000000000000000000000000000000000000000000000PES00010000001 00000000000000000000000
201604180080000100000000000000000073000000000000000000738000000000030686318865COMICION-NACIONAL-DE-COMUNICAC000000000000100000000000000000000000000000000000000000000000000000000000000000000000000000000000000000000000000000000000PES00010000001 00000000000000000000000

