201501170010000200000000000000002586                8000000000030708525436JAVIER-R-BRAIDOT-Y-WALTER-G-  000000001475648000000000000000000000000000000000000000000000000000000000000000000000000000000000000000000000000000000000PES00010000001000000000000000000000000000000000000000000                              000000000000000
201501080010000800000000000000034164                8000000000030545726722SOCIEDAD-COOP-POPULAR-LIM-DE  000000000202446000000000000000000000000000000000000000000000000000000000000000000000000000000000000000000000000000000000PES00010000001000000000000000000000000000000000000000000                              000000000000000
201501120010000100000000000020141213                8000000000030639453975TELEFONICA-DE-ARG-SA          000000000076560000000000000000000000000000000000000000000000000000000000000000000000000000000000000000000000000000000000PES00010000001000000000000000000000000000000000000000000                              000000000000000
201501010010000600000000000000003808                8000000000030500164243IMPRESORA-PATAGONICA-SACI     000000000361203000000000000000000000000000000000000000000000000000000000000000000000000000000000000000000000000000000000PES00010000001000000000000000000000000000000000000000000                              000000000000000
201501090010002100000000000000003424                8000000000030707454640EL-ESTANCO-SA                 000000000012480000000000000000000000000000000000000000000000000000000000000000000000000000000000000000000000000000000000PES00010000001000000000000000000000000000000000000000000                              000000000000000
201501090010000600000000000000032306                8000000000020055005339JUAN-CARLOS-GONZALEZ-ORONO    000000000014000000000000000000000000000000000000000000000000000000000000000000000000000000000000000000000000000000000000PES00010000001000000000000000000000000000000000000000000                              000000000000000
201501120010000200000000000000005621                8000000000020126715111ALEJANDRO-LUIS-BUSTOS         000000000036671000000000000000000000000000000000000000000000000000000000000000000000000000000000000000000000000000000000PES00010000001000000000000000000000000000000000000000000                              000000000000000
201501120010000200000000000000007479                8000000000027160014593GALLARDO-DANIEL               000000000050798000000000000000000000000000000000000000000000000000000000000000000000000000000000000000000000000000000000PES00010000001000000000000000000000000000000000000000000                              000000000000000
201501120010000100000000000000000003                8000000000030714670618CONDOMINIO-DE-BERSAIS-CESAR-L 000000002662000000000000000000000000000000000000000000000000000000000000000000000000000000000000000000000000000000000000PES00010000001000000000000000000000000000000000000000000                              000000000000000
201501140010000400000000000000111674                8000000000030708884770LA-URBANA-SRL                 000000000026000000000000000000000000000000000000000000000000000000000000000000000000000000000000000000000000000000000000PES00010000001000000000000000000000000000000000000000000                              000000000000000
201501140010002100000000000000003486                8000000000030707454640EL-ESTANCO-SA                 000000000007200000000000000000000000000000000000000000000000000000000000000000000000000000000000000000000000000000000000PES00010000001000000000000000000000000000000000000000000                              000000000000000
201501010010000100000000000000004645                8000000000027137539700ALEJANDRA-PAULA-HAVILIO       000000003368035000000000000000000000000000000000000000000000000000000000000000000000000000000000000000000000000000000000PES00010000001000000000000000000000000000000000000000000                              000000000000000
201501010010001200000000000000022066                8000000000030615902094NUEVO-SUR-SA                  000000000379682000000000000000000000000000000000000000000000000000000000000000000000000000000000000000000000000000000000PES00010000001000000000000000000000000000000000000000000                              000000000000000
201501160010000300000000000000000676                8000000000030711307911DESDE-EL-ESTE-SA              000000000778975000000000000000000000000000000000000000000000000000000000000000000000000000000000000000000000000000000000PES00010000001000000000000000000000000000000000000000000                              000000000000000
201501020010000300000000000000000108                8000000000020222552134GUSTAVO-A-GARCIA              000000000360000000000000000000000000000000000000000000000000000000000000000000000000000000000000000000000000000000000000PES00010000001000000000000000000000000000000000000000000                              000000000000000
201501120010000100000000000000001759                8000000000030711190895AUSTRAL-ALARMAS-SRL           000000000028556000000000000000000000000000000000000000000000000000000000000000000000000000000000000000000000000000000000PES00010000001000000000000000000000000000000000000000000                              000000000000000
201501190010000300000000000000005237                8000000000030710941854RUMAH-JAVA-SRL                000000000425920000000000000000000000000000000000000000000000000000000000000000000000000000000000000000000000000000000000PES00010000001000000000000000000000000000000000000000000                              000000000000000
201501220010000200000000000000005682                8000000000020126715111ALEJANDRO-LUIS-BUSTOS         000000000006800000000000000000000000000000000000000000000000000000000000000000000000000000000000000000000000000000000000PES00010000001000000000000000000000000000000000000000000                              000000000000000
201501220010000200000000000000005681                8000000000020126715111ALEJANDRO-LUIS-BUSTOS         000000000015944000000000000000000000000000000000000000000000000000000000000000000000000000000000000000000000000000000000PES00010000001000000000000000000000000000000000000000000                              000000000000000
201501270010000100000000000000000027                8000000000030714643319MADROAL-Y-GROSHAUS-SH         000000000087496000000000000000000000000000000000000000000000000000000000000000000000000000000000000000000000000000000000PES00010000001000000000000000000000000000000000000000000                              000000000000000
201501150010000400000000000000117166                8000000000030708926155TRANSPORTES-UNION-SA          000000000271393000000000000000000000000000000000000000000000000000000000000000000000000000000000000000000000000000000000PES00010000001000000000000000000000000000000000000000000                              000000000000000
201501300010001200000000000000006665                8000000000030670288613DISTRIBUIDORA-LOA-SA          000000000031234000000000000000000000000000000000000000000000000000000000000000000000000000000000000000000000000000000000PES00010000001000000000000000000000000000000000000000000                              000000000000000
201501290010000100000000000000000185                8000000000020108041480JUAN-CARLOS-BACAY             000000000327426000000000000000000000000000000000000000000000000000000000000000000000000000000000000000000000000000000000PES00010000001000000000000000000000000000000000000000000                              000000000000000
201501260010000300000000000000027409                8000000000030708273453MISHKA-SA                     000000000630495000000000000000000000000000000000000000000000000000000000000000000000000000000000000000000000000000000000PES00010000001000000000000000000000000000000000000000000                              000000000000000
201501290010000700000000000000010693                8000000000030710920067SEBSADA-SA                    000000001028149000000000000000000000000000000000000000000000000000000000000000000000000000000000000000000000000000000000PES00010000001000000000000000000000000000000000000000000                              000000000000000
201501280010000100000000000000009238                8000000000030708328304VELUFLON-PRODUCTOS-SH         000000000588302000000000000000000000000000000000000000000000000000000000000000000000000000000000000000000000000000000000PES00010000001000000000000000000000000000000000000000000                              000000000000000
201501280010000100000000000000009239                8000000000030708328304VELUFLON-PRODUCTOS-SH         000000001148593000000000000000000000000000000000000000000000000000000000000000000000000000000000000000000000000000000000PES00010000001000000000000000000000000000000000000000000                              000000000000000
