201601050010000100000000000000001131000000000000000011318000000000030711006792-30-DE-NOVIEMBRE-SRL          000000000513500000000000000000000000000000000000000000000000000000000000000000000000000000000000000000000000000000000000PES00010000001 00000000000000000000000
201601050010000100000000000000001132000000000000000011328000000000030710575548VETERINARIA-ROCA-SRL          000000000217700000000000000000000000000000000000000000000000000000000000000000000000000000000000000000000000000000000000PES00010000001 00000000000000000000000
201601070010000100000000000000001133000000000000000011338000000000020160017660DANIEL-FORCHIACCIN            000000000043000000000000000000000000000000000000000000000000000000000000000000000000000000000000000000000000000000000000PES00010000001 00000000000000000000000
201601070010000100000000000000001134000000000000000011348000000000027244360985ASTRADA-LILIANA               000000000099000000000000000000000000000000000000000000000000000000000000000000000000000000000000000000000000000000000000PES00010000001 00000000000000000000000
201601070010000100000000000000001135000000000000000011358000000000030710835248HIDRAULICA-MDK-SRL            000000000063000000000000000000000000000000000000000000000000000000000000000000000000000000000000000000000000000000000000PES00010000001 00000000000000000000000
201601080010000100000000000000001136000000000000000011368000000000030710805802-VICENTE-ALVAREZ-SA           000000000098500000000000000000000000000000000000000000000000000000000000000000000000000000000000000000000000000000000000PES00010000001 00000000000000000000000
201601080010000100000000000000001137000000000000000011378000000000020202382143DANIEL-OSCAR-GONGORA          000000000009000000000000000000000000000000000000000000000000000000000000000000000000000000000000000000000000000000000000PES00010000001 00000000000000000000000
201601130010000100000000000000001138000000000000000011388000000000023247773029-MATIAS-MARTIN-FEDERICO       000000000068500000000000000000000000000000000000000000000000000000000000000000000000000000000000000000000000000000000000PES00010000001 00000000000000000000000
201601130010000100000000000000001139000000000000000011398000000000027280759134IBARRA-MARIA-VICTORIA         000000000023600000000000000000000000000000000000000000000000000000000000000000000000000000000000000000000000000000000000PES00010000001 00000000000000000000000
201601150010000100000000000000001140000000000000000011408000000000020140752739ENRIQUE-EDUARDO-VERDE         000000000010000000000000000000000000000000000000000000000000000000000000000000000000000000000000000000000000000000000000PES00010000001 00000000000000000000000
201601150010000100000000000000001141000000000000000011418000000000020188277390SUCESION-DE-ENRIQUE-EZTEFEN   000000000096000000000000000000000000000000000000000000000000000000000000000000000000000000000000000000000000000000000000PES00010000001 00000000000000000000000
201601150010000100000000000000001142000000000000000011428000000000027190364181-AGUILAR-NANCI                000000000023500000000000000000000000000000000000000000000000000000000000000000000000000000000000000000000000000000000000PES00010000001 00000000000000000000000
201601180010000100000000000000001143000000000000000011438000000000030709890383ARIDOS-ESPECIALES             000000000065000000000000000000000000000000000000000000000000000000000000000000000000000000000000000000000000000000000000PES00010000001 00000000000000000000000
201601230010000100000000000000001144000000000000000011448000000000030711067368LOS-ANDES-DESIGN-SRL          000000000034500000000000000000000000000000000000000000000000000000000000000000000000000000000000000000000000000000000000PES00010000001 00000000000000000000000
201601260010000100000000000000001145000000000000000011458000000000027108008992MOLINA-GRACIELA               000000000098500000000000000000000000000000000000000000000000000000000000000000000000000000000000000000000000000000000000PES00010000001 00000000000000000000000
201601260010000100000000000000001146000000000000000011468000000000030691996375-BELVEDERE-SA                 000000000187000000000000000000000000000000000000000000000000000000000000000000000000000000000000000000000000000000000000PES00010000001 00000000000000000000000
201601260010000100000000000000001147000000000000000011478000000000030711067368LOS-ANDES-DESIGN-SRL          000000000033000000000000000000000000000000000000000000000000000000000000000000000000000000000000000000000000000000000000PES00010000001 00000000000000000000000
201601300010000100000000000000001148000000000000000011488000000000030710835248HIDRAULICA-MDK-SRL            000000000158000000000000000000000000000000000000000000000000000000000000000000000000000000000000000000000000000000000000PES00010000001 00000000000000000000000
201601190060000100000000000000013695000000000000000136958000000000030999065593MUNICIPALIDAD-DE-COMODORO-RIVA000000000034000000000000000000000000000000000000000000000000000000000000000000000000000000000000000000000000000000000000PES00010000001 00000000000000000000000
201601200060000100000000000000013696000000000000000136968000000000030999065593MUNICIPALIDAD-DE-COMODORO-RIVA000000000075000000000000000000000000000000000000000000000000000000000000000000000000000000000000000000000000000000000000PES00010000001 00000000000000000000000
201601300060000100000000000000013697000000000000000136978000000000030999065593MUNICIPALIDAD-DE-COMODORO-RIVA000000000033500000000000000000000000000000000000000000000000000000000000000000000000000000000000000000000000000000000000PES00010000001 00000000000000000000000
201601040060000100000000000000023178000000000000000231789611111111111111111111CONDUMIDOR-FINAL              000000000133000000000000000000000000000000000000000000000000000000000000000000000000000000000000000000000000000000000000PES00010000001 00000000000000000000000
201601040060000100000000000000023179000000000000000231799611111111111111111111CONDUMIDOR-FINAL              000000000186500000000000000000000000000000000000000000000000000000000000000000000000000000000000000000000000000000000000PES00010000001 00000000000000000000000
201601040060000100000000000000023180000000000000000231809611111111111111111111CONDUMIDOR-FINAL              000000000128000000000000000000000000000000000000000000000000000000000000000000000000000000000000000000000000000000000000PES00010000001 00000000000000000000000
201601040060000100000000000000023181000000000000000231819611111111111111111111CONDUMIDOR-FINAL              000000000045000000000000000000000000000000000000000000000000000000000000000000000000000000000000000000000000000000000000PES00010000001 00000000000000000000000
201601040060000100000000000000023182000000000000000231829611111111111111111111CONDUMIDOR-FINAL              000000000023000000000000000000000000000000000000000000000000000000000000000000000000000000000000000000000000000000000000PES00010000001 00000000000000000000000
201601040060000100000000000000023183000000000000000231839611111111111111111111CONDUMIDOR-FINAL              000000000087500000000000000000000000000000000000000000000000000000000000000000000000000000000000000000000000000000000000PES00010000001 00000000000000000000000
201601040060000100000000000000023184000000000000000231849611111111111111111111CONDUMIDOR-FINAL              000000000034000000000000000000000000000000000000000000000000000000000000000000000000000000000000000000000000000000000000PES00010000001 00000000000000000000000
201601050060000100000000000000023185000000000000000231859611111111111111111111CONDUMIDOR-FINAL              000000000156000000000000000000000000000000000000000000000000000000000000000000000000000000000000000000000000000000000000PES00010000001 00000000000000000000000
201601050060000100000000000000023186000000000000000231869611111111111111111111CONDUMIDOR-FINAL              000000000029800000000000000000000000000000000000000000000000000000000000000000000000000000000000000000000000000000000000PES00010000001 00000000000000000000000
201601050060000100000000000000023187000000000000000231879611111111111111111111CONDUMIDOR-FINAL              000000000031500000000000000000000000000000000000000000000000000000000000000000000000000000000000000000000000000000000000PES00010000001 00000000000000000000000
201601050060000100000000000000023188000000000000000231889611111111111111111111CONDUMIDOR-FINAL              000000000036000000000000000000000000000000000000000000000000000000000000000000000000000000000000000000000000000000000000PES00010000001 00000000000000000000000
201601050060000100000000000000023189000000000000000231899611111111111111111111CONDUMIDOR-FINAL              000000000010500000000000000000000000000000000000000000000000000000000000000000000000000000000000000000000000000000000000PES00010000001 00000000000000000000000
201601050060000100000000000000023190000000000000000231909611111111111111111111CONDUMIDOR-FINAL              000000000027500000000000000000000000000000000000000000000000000000000000000000000000000000000000000000000000000000000000PES00010000001 00000000000000000000000
201601050060000100000000000000023191000000000000000231919611111111111111111111CONDUMIDOR-FINAL              000000000058800000000000000000000000000000000000000000000000000000000000000000000000000000000000000000000000000000000000PES00010000001 00000000000000000000000
201601050060000100000000000000023192000000000000000231929611111111111111111111CONDUMIDOR-FINAL              000000000067700000000000000000000000000000000000000000000000000000000000000000000000000000000000000000000000000000000000PES00010000001 00000000000000000000000
201601050060000100000000000000023193000000000000000231939611111111111111111111CONDUMIDOR-FINAL              000000000042000000000000000000000000000000000000000000000000000000000000000000000000000000000000000000000000000000000000PES00010000001 00000000000000000000000
201601050060000100000000000000023194000000000000000231949611111111111111111111CONDUMIDOR-FINAL              000000000042500000000000000000000000000000000000000000000000000000000000000000000000000000000000000000000000000000000000PES00010000001 00000000000000000000000
201601050060000100000000000000023195000000000000000231959611111111111111111111CONDUMIDOR-FINAL              000000000277000000000000000000000000000000000000000000000000000000000000000000000000000000000000000000000000000000000000PES00010000001 00000000000000000000000
201601050060000100000000000000023196000000000000000231969611111111111111111111CONDUMIDOR-FINAL              000000000180000000000000000000000000000000000000000000000000000000000000000000000000000000000000000000000000000000000000PES00010000001 00000000000000000000000
201601050060000100000000000000023197000000000000000231979611111111111111111111CONDUMIDOR-FINAL              000000000043000000000000000000000000000000000000000000000000000000000000000000000000000000000000000000000000000000000000PES00010000001 00000000000000000000000
201601050060000100000000000000023198000000000000000231989611111111111111111111CONDUMIDOR-FINAL              000000000112900000000000000000000000000000000000000000000000000000000000000000000000000000000000000000000000000000000000PES00010000001 00000000000000000000000
201601050060000100000000000000023199000000000000000231999611111111111111111111CONDUMIDOR-FINAL              000000000048000000000000000000000000000000000000000000000000000000000000000000000000000000000000000000000000000000000000PES00010000001 00000000000000000000000
201601050060000100000000000000023200000000000000000232009611111111111111111111CONDUMIDOR-FINAL              000000000044500000000000000000000000000000000000000000000000000000000000000000000000000000000000000000000000000000000000PES00010000001 00000000000000000000000
201601050060000100000000000000023201000000000000000232019611111111111111111111CONDUMIDOR-FINAL              000000000390100000000000000000000000000000000000000000000000000000000000000000000000000000000000000000000000000000000000PES00010000001 00000000000000000000000
201601060060000100000000000000023202000000000000000232029611111111111111111111CONDUMIDOR-FINAL              000000000076000000000000000000000000000000000000000000000000000000000000000000000000000000000000000000000000000000000000PES00010000001 00000000000000000000000
201601060060000100000000000000023203000000000000000232039611111111111111111111CONDUMIDOR-FINAL              000000000041000000000000000000000000000000000000000000000000000000000000000000000000000000000000000000000000000000000000PES00010000001 00000000000000000000000
201601060060000100000000000000023204000000000000000232049611111111111111111111CONDUMIDOR-FINAL              000000000040500000000000000000000000000000000000000000000000000000000000000000000000000000000000000000000000000000000000PES00010000001 00000000000000000000000
201601060060000100000000000000023205000000000000000232059611111111111111111111CONDUMIDOR-FINAL              000000000049200000000000000000000000000000000000000000000000000000000000000000000000000000000000000000000000000000000000PES00010000001 00000000000000000000000
201601060060000100000000000000023206000000000000000232069611111111111111111111CONDUMIDOR-FINAL              000000000007800000000000000000000000000000000000000000000000000000000000000000000000000000000000000000000000000000000000PES00010000001 00000000000000000000000
201601060060000100000000000000023207000000000000000232079611111111111111111111CONDUMIDOR-FINAL              000000000006200000000000000000000000000000000000000000000000000000000000000000000000000000000000000000000000000000000000PES00010000001 00000000000000000000000
201601060060000100000000000000023208000000000000000232089611111111111111111111CONDUMIDOR-FINAL              000000000018500000000000000000000000000000000000000000000000000000000000000000000000000000000000000000000000000000000000PES00010000001 00000000000000000000000
201601060060000100000000000000023209000000000000000232099611111111111111111111CONDUMIDOR-FINAL              000000000037300000000000000000000000000000000000000000000000000000000000000000000000000000000000000000000000000000000000PES00010000001 00000000000000000000000
201601060060000100000000000000023210000000000000000232109611111111111111111111CONDUMIDOR-FINAL              000000000061200000000000000000000000000000000000000000000000000000000000000000000000000000000000000000000000000000000000PES00010000001 00000000000000000000000
201601070060000100000000000000023211000000000000000232119611111111111111111111CONDUMIDOR-FINAL              000000000199500000000000000000000000000000000000000000000000000000000000000000000000000000000000000000000000000000000000PES00010000001 00000000000000000000000
201601070060000100000000000000023212000000000000000232129611111111111111111111CONDUMIDOR-FINAL              000000000014000000000000000000000000000000000000000000000000000000000000000000000000000000000000000000000000000000000000PES00010000001 00000000000000000000000
201601070060000100000000000000023213000000000000000232139611111111111111111111CONDUMIDOR-FINAL              000000000113400000000000000000000000000000000000000000000000000000000000000000000000000000000000000000000000000000000000PES00010000001 00000000000000000000000
201601070060000100000000000000023214000000000000000232149611111111111111111111CONDUMIDOR-FINAL              000000000056000000000000000000000000000000000000000000000000000000000000000000000000000000000000000000000000000000000000PES00010000001 00000000000000000000000
201601070060000100000000000000023215000000000000000232159611111111111111111111CONDUMIDOR-FINAL              000000000195000000000000000000000000000000000000000000000000000000000000000000000000000000000000000000000000000000000000PES00010000001 00000000000000000000000
201601070060000100000000000000023216000000000000000232169611111111111111111111CONDUMIDOR-FINAL              000000000070200000000000000000000000000000000000000000000000000000000000000000000000000000000000000000000000000000000000PES00010000001 00000000000000000000000
201601070060000100000000000000023217000000000000000232179611111111111111111111CONDUMIDOR-FINAL              000000000096100000000000000000000000000000000000000000000000000000000000000000000000000000000000000000000000000000000000PES00010000001 00000000000000000000000
201601070060000100000000000000023218000000000000000232189611111111111111111111CONDUMIDOR-FINAL              000000000090000000000000000000000000000000000000000000000000000000000000000000000000000000000000000000000000000000000000PES00010000001 00000000000000000000000
201601070060000100000000000000023219000000000000000232199611111111111111111111CONDUMIDOR-FINAL              000000000083500000000000000000000000000000000000000000000000000000000000000000000000000000000000000000000000000000000000PES00010000001 00000000000000000000000
201601070060000100000000000000023220000000000000000232209611111111111111111111CONDUMIDOR-FINAL              000000000044500000000000000000000000000000000000000000000000000000000000000000000000000000000000000000000000000000000000PES00010000001 00000000000000000000000
201601070060000100000000000000023221000000000000000232219611111111111111111111CONDUMIDOR-FINAL              000000000049500000000000000000000000000000000000000000000000000000000000000000000000000000000000000000000000000000000000PES00010000001 00000000000000000000000
201601070060000100000000000000023222000000000000000232229611111111111111111111CONDUMIDOR-FINAL              000000000029500000000000000000000000000000000000000000000000000000000000000000000000000000000000000000000000000000000000PES00010000001 00000000000000000000000
201601070060000100000000000000023223000000000000000232239611111111111111111111CONDUMIDOR-FINAL              000000000052500000000000000000000000000000000000000000000000000000000000000000000000000000000000000000000000000000000000PES00010000001 00000000000000000000000
201601080060000100000000000000023224000000000000000232249611111111111111111111CONDUMIDOR-FINAL              000000000036000000000000000000000000000000000000000000000000000000000000000000000000000000000000000000000000000000000000PES00010000001 00000000000000000000000
201601080060000100000000000000023225000000000000000232259611111111111111111111CONDUMIDOR-FINAL              000000000056000000000000000000000000000000000000000000000000000000000000000000000000000000000000000000000000000000000000PES00010000001 00000000000000000000000
201601080060000100000000000000023226000000000000000232269611111111111111111111CONDUMIDOR-FINAL              000000000037800000000000000000000000000000000000000000000000000000000000000000000000000000000000000000000000000000000000PES00010000001 00000000000000000000000
201601080060000100000000000000023227000000000000000232279611111111111111111111CONDUMIDOR-FINAL              000000000016500000000000000000000000000000000000000000000000000000000000000000000000000000000000000000000000000000000000PES00010000001 00000000000000000000000
201601080060000100000000000000023228000000000000000232289611111111111111111111CONDUMIDOR-FINAL              000000000095000000000000000000000000000000000000000000000000000000000000000000000000000000000000000000000000000000000000PES00010000001 00000000000000000000000
201601080060000100000000000000023229000000000000000232299611111111111111111111CONDUMIDOR-FINAL              000000000052000000000000000000000000000000000000000000000000000000000000000000000000000000000000000000000000000000000000PES00010000001 00000000000000000000000
201601080060000100000000000000023230000000000000000232309611111111111111111111CONDUMIDOR-FINAL              000000000141500000000000000000000000000000000000000000000000000000000000000000000000000000000000000000000000000000000000PES00010000001 00000000000000000000000
201601080060000100000000000000023231000000000000000232319611111111111111111111CONDUMIDOR-FINAL              000000000029800000000000000000000000000000000000000000000000000000000000000000000000000000000000000000000000000000000000PES00010000001 00000000000000000000000
201601080060000100000000000000023232000000000000000232329611111111111111111111CONDUMIDOR-FINAL              000000000017500000000000000000000000000000000000000000000000000000000000000000000000000000000000000000000000000000000000PES00010000001 00000000000000000000000
201601080060000100000000000000023233000000000000000232339611111111111111111111CONDUMIDOR-FINAL              000000000044500000000000000000000000000000000000000000000000000000000000000000000000000000000000000000000000000000000000PES00010000001 00000000000000000000000
201601080060000100000000000000023234000000000000000232349611111111111111111111CONDUMIDOR-FINAL              000000000031000000000000000000000000000000000000000000000000000000000000000000000000000000000000000000000000000000000000PES00010000001 00000000000000000000000
201601080060000100000000000000023235000000000000000232359611111111111111111111CONDUMIDOR-FINAL              000000000027000000000000000000000000000000000000000000000000000000000000000000000000000000000000000000000000000000000000PES00010000001 00000000000000000000000
201601080060000100000000000000023236000000000000000232369611111111111111111111CONDUMIDOR-FINAL              000000000036000000000000000000000000000000000000000000000000000000000000000000000000000000000000000000000000000000000000PES00010000001 00000000000000000000000
201601080060000100000000000000023237000000000000000232379611111111111111111111CONDUMIDOR-FINAL              000000000094500000000000000000000000000000000000000000000000000000000000000000000000000000000000000000000000000000000000PES00010000001 00000000000000000000000
201601080060000100000000000000023238000000000000000232389611111111111111111111CONDUMIDOR-FINAL              000000000098500000000000000000000000000000000000000000000000000000000000000000000000000000000000000000000000000000000000PES00010000001 00000000000000000000000
201601080060000100000000000000023239000000000000000232399611111111111111111111CONDUMIDOR-FINAL              000000000045000000000000000000000000000000000000000000000000000000000000000000000000000000000000000000000000000000000000PES00010000001 00000000000000000000000
201601080060000100000000000000023240000000000000000232409611111111111111111111CONDUMIDOR-FINAL              000000000080000000000000000000000000000000000000000000000000000000000000000000000000000000000000000000000000000000000000PES00010000001 00000000000000000000000
201601080060000100000000000000023241000000000000000232419611111111111111111111CONDUMIDOR-FINAL              000000000076500000000000000000000000000000000000000000000000000000000000000000000000000000000000000000000000000000000000PES00010000001 00000000000000000000000
201601080060000100000000000000023242000000000000000232429611111111111111111111CONDUMIDOR-FINAL              000000000067000000000000000000000000000000000000000000000000000000000000000000000000000000000000000000000000000000000000PES00010000001 00000000000000000000000
201601080060000100000000000000023243000000000000000232439611111111111111111111CONDUMIDOR-FINAL              000000000063000000000000000000000000000000000000000000000000000000000000000000000000000000000000000000000000000000000000PES00010000001 00000000000000000000000
201601090060000100000000000000023245000000000000000232459611111111111111111111CONDUMIDOR-FINAL              000000000105000000000000000000000000000000000000000000000000000000000000000000000000000000000000000000000000000000000000PES00010000001 00000000000000000000000
201601090060000100000000000000023246000000000000000232469611111111111111111111CONDUMIDOR-FINAL              000000000037000000000000000000000000000000000000000000000000000000000000000000000000000000000000000000000000000000000000PES00010000001 00000000000000000000000
201601090060000100000000000000023247000000000000000232479611111111111111111111CONDUMIDOR-FINAL              000000000186000000000000000000000000000000000000000000000000000000000000000000000000000000000000000000000000000000000000PES00010000001 00000000000000000000000
201601090060000100000000000000023248000000000000000232489611111111111111111111CONDUMIDOR-FINAL              000000000076000000000000000000000000000000000000000000000000000000000000000000000000000000000000000000000000000000000000PES00010000001 00000000000000000000000
201601090060000100000000000000023249000000000000000232499611111111111111111111CONDUMIDOR-FINAL              000000000042000000000000000000000000000000000000000000000000000000000000000000000000000000000000000000000000000000000000PES00010000001 00000000000000000000000
201601090060000100000000000000023250000000000000000232509611111111111111111111CONDUMIDOR-FINAL              000000000063600000000000000000000000000000000000000000000000000000000000000000000000000000000000000000000000000000000000PES00010000001 00000000000000000000000
201601090060000100000000000000023251000000000000000232519611111111111111111111CONDUMIDOR-FINAL              000000000016000000000000000000000000000000000000000000000000000000000000000000000000000000000000000000000000000000000000PES00010000001 00000000000000000000000
201601090060000100000000000000023252000000000000000232529611111111111111111111CONDUMIDOR-FINAL              000000000110500000000000000000000000000000000000000000000000000000000000000000000000000000000000000000000000000000000000PES00010000001 00000000000000000000000
201601090060000100000000000000023253000000000000000232539611111111111111111111CONDUMIDOR-FINAL              000000000025000000000000000000000000000000000000000000000000000000000000000000000000000000000000000000000000000000000000PES00010000001 00000000000000000000000
201601090060000100000000000000023254000000000000000232549611111111111111111111CONDUMIDOR-FINAL              000000000105500000000000000000000000000000000000000000000000000000000000000000000000000000000000000000000000000000000000PES00010000001 00000000000000000000000
201601090060000100000000000000023255000000000000000232559611111111111111111111CONDUMIDOR-FINAL              000000000029800000000000000000000000000000000000000000000000000000000000000000000000000000000000000000000000000000000000PES00010000001 00000000000000000000000
201601090060000100000000000000023256000000000000000232569611111111111111111111CONDUMIDOR-FINAL              000000000105000000000000000000000000000000000000000000000000000000000000000000000000000000000000000000000000000000000000PES00010000001 00000000000000000000000
201601090060000100000000000000023257000000000000000232579611111111111111111111CONDUMIDOR-FINAL              000000000057800000000000000000000000000000000000000000000000000000000000000000000000000000000000000000000000000000000000PES00010000001 00000000000000000000000
201601090060000100000000000000023258000000000000000232589611111111111111111111CONDUMIDOR-FINAL              000000000164500000000000000000000000000000000000000000000000000000000000000000000000000000000000000000000000000000000000PES00010000001 00000000000000000000000
201601090060000100000000000000023259000000000000000232599611111111111111111111CONDUMIDOR-FINAL              000000000034500000000000000000000000000000000000000000000000000000000000000000000000000000000000000000000000000000000000PES00010000001 00000000000000000000000
201601090060000100000000000000023260000000000000000232609611111111111111111111CONDUMIDOR-FINAL              000000000022500000000000000000000000000000000000000000000000000000000000000000000000000000000000000000000000000000000000PES00010000001 00000000000000000000000
201601090060000100000000000000023261000000000000000232619611111111111111111111CONDUMIDOR-FINAL              000000000042000000000000000000000000000000000000000000000000000000000000000000000000000000000000000000000000000000000000PES00010000001 00000000000000000000000
201601090060000100000000000000023262000000000000000232629611111111111111111111CONDUMIDOR-FINAL              000000000026500000000000000000000000000000000000000000000000000000000000000000000000000000000000000000000000000000000000PES00010000001 00000000000000000000000
201601090060000100000000000000023263000000000000000232639611111111111111111111CONDUMIDOR-FINAL              000000000042500000000000000000000000000000000000000000000000000000000000000000000000000000000000000000000000000000000000PES00010000001 00000000000000000000000
201601090060000100000000000000023264000000000000000232649611111111111111111111CONDUMIDOR-FINAL              000000000070000000000000000000000000000000000000000000000000000000000000000000000000000000000000000000000000000000000000PES00010000001 00000000000000000000000
201601090060000100000000000000023265000000000000000232659611111111111111111111CONDUMIDOR-FINAL              000000000182800000000000000000000000000000000000000000000000000000000000000000000000000000000000000000000000000000000000PES00010000001 00000000000000000000000
201601090060000100000000000000023266000000000000000232669611111111111111111111CONDUMIDOR-FINAL              000000000029400000000000000000000000000000000000000000000000000000000000000000000000000000000000000000000000000000000000PES00010000001 00000000000000000000000
201601090060000100000000000000023267000000000000000232679611111111111111111111CONDUMIDOR-FINAL              000000000018800000000000000000000000000000000000000000000000000000000000000000000000000000000000000000000000000000000000PES00010000001 00000000000000000000000
201601090060000100000000000000023268000000000000000232689611111111111111111111CONDUMIDOR-FINAL              000000000046500000000000000000000000000000000000000000000000000000000000000000000000000000000000000000000000000000000000PES00010000001 00000000000000000000000
201601090060000100000000000000023269000000000000000232699611111111111111111111CONDUMIDOR-FINAL              000000000019500000000000000000000000000000000000000000000000000000000000000000000000000000000000000000000000000000000000PES00010000001 00000000000000000000000
201601110060000100000000000000023270000000000000000232709611111111111111111111CONDUMIDOR-FINAL              000000000014000000000000000000000000000000000000000000000000000000000000000000000000000000000000000000000000000000000000PES00010000001 00000000000000000000000
201601110060000100000000000000023271000000000000000232719611111111111111111111CONDUMIDOR-FINAL              000000000048000000000000000000000000000000000000000000000000000000000000000000000000000000000000000000000000000000000000PES00010000001 00000000000000000000000
201601110060000100000000000000023272000000000000000232729611111111111111111111CONDUMIDOR-FINAL              000000000018500000000000000000000000000000000000000000000000000000000000000000000000000000000000000000000000000000000000PES00010000001 00000000000000000000000
201601110060000100000000000000023273000000000000000232739611111111111111111111CONDUMIDOR-FINAL              000000000022500000000000000000000000000000000000000000000000000000000000000000000000000000000000000000000000000000000000PES00010000001 00000000000000000000000
201601110060000100000000000000023274000000000000000232749611111111111111111111CONDUMIDOR-FINAL              000000000053500000000000000000000000000000000000000000000000000000000000000000000000000000000000000000000000000000000000PES00010000001 00000000000000000000000
201601110060000100000000000000023275000000000000000232759611111111111111111111CONDUMIDOR-FINAL              000000000157500000000000000000000000000000000000000000000000000000000000000000000000000000000000000000000000000000000000PES00010000001 00000000000000000000000
201601110060000100000000000000023276000000000000000232769611111111111111111111CONDUMIDOR-FINAL              000000000060800000000000000000000000000000000000000000000000000000000000000000000000000000000000000000000000000000000000PES00010000001 00000000000000000000000
201601110060000100000000000000023277000000000000000232779611111111111111111111CONDUMIDOR-FINAL              000000000070000000000000000000000000000000000000000000000000000000000000000000000000000000000000000000000000000000000000PES00010000001 00000000000000000000000
201601110060000100000000000000023278000000000000000232789611111111111111111111CONDUMIDOR-FINAL              000000000027500000000000000000000000000000000000000000000000000000000000000000000000000000000000000000000000000000000000PES00010000001 00000000000000000000000
201601110060000100000000000000023279000000000000000232799611111111111111111111CONDUMIDOR-FINAL              000000000015000000000000000000000000000000000000000000000000000000000000000000000000000000000000000000000000000000000000PES00010000001 00000000000000000000000
201601110060000100000000000000023280000000000000000232809611111111111111111111CONDUMIDOR-FINAL              000000000031000000000000000000000000000000000000000000000000000000000000000000000000000000000000000000000000000000000000PES00010000001 00000000000000000000000
201601110060000100000000000000023281000000000000000232819611111111111111111111CONDUMIDOR-FINAL              000000000087500000000000000000000000000000000000000000000000000000000000000000000000000000000000000000000000000000000000PES00010000001 00000000000000000000000
201601110060000100000000000000023282000000000000000232829611111111111111111111CONDUMIDOR-FINAL              000000000069800000000000000000000000000000000000000000000000000000000000000000000000000000000000000000000000000000000000PES00010000001 00000000000000000000000
201601110060000100000000000000023283000000000000000232839611111111111111111111CONDUMIDOR-FINAL              000000000032500000000000000000000000000000000000000000000000000000000000000000000000000000000000000000000000000000000000PES00010000001 00000000000000000000000
201601120060000100000000000000023284000000000000000232849611111111111111111111CONDUMIDOR-FINAL              000000000022500000000000000000000000000000000000000000000000000000000000000000000000000000000000000000000000000000000000PES00010000001 00000000000000000000000
201601120060000100000000000000023285000000000000000232859611111111111111111111CONDUMIDOR-FINAL              000000000043500000000000000000000000000000000000000000000000000000000000000000000000000000000000000000000000000000000000PES00010000001 00000000000000000000000
201601120060000100000000000000023286000000000000000232869611111111111111111111CONDUMIDOR-FINAL              000000000107500000000000000000000000000000000000000000000000000000000000000000000000000000000000000000000000000000000000PES00010000001 00000000000000000000000
201601120060000100000000000000023287000000000000000232879611111111111111111111CONDUMIDOR-FINAL              000000000137300000000000000000000000000000000000000000000000000000000000000000000000000000000000000000000000000000000000PES00010000001 00000000000000000000000
201601120060000100000000000000023288000000000000000232889611111111111111111111CONDUMIDOR-FINAL              000000000044000000000000000000000000000000000000000000000000000000000000000000000000000000000000000000000000000000000000PES00010000001 00000000000000000000000
201601120060000100000000000000023289000000000000000232899611111111111111111111CONDUMIDOR-FINAL              000000000067000000000000000000000000000000000000000000000000000000000000000000000000000000000000000000000000000000000000PES00010000001 00000000000000000000000
201601120060000100000000000000023290000000000000000232909611111111111111111111CONDUMIDOR-FINAL              000000000020500000000000000000000000000000000000000000000000000000000000000000000000000000000000000000000000000000000000PES00010000001 00000000000000000000000
201601120060000100000000000000023291000000000000000232919611111111111111111111CONDUMIDOR-FINAL              000000000024000000000000000000000000000000000000000000000000000000000000000000000000000000000000000000000000000000000000PES00010000001 00000000000000000000000
201601130060000100000000000000023292000000000000000232929611111111111111111111CONDUMIDOR-FINAL              000000000182200000000000000000000000000000000000000000000000000000000000000000000000000000000000000000000000000000000000PES00010000001 00000000000000000000000
201601130060000100000000000000023293000000000000000232939611111111111111111111CONDUMIDOR-FINAL              000000000044500000000000000000000000000000000000000000000000000000000000000000000000000000000000000000000000000000000000PES00010000001 00000000000000000000000
201601130060000100000000000000023294000000000000000232949611111111111111111111CONDUMIDOR-FINAL              000000000021500000000000000000000000000000000000000000000000000000000000000000000000000000000000000000000000000000000000PES00010000001 00000000000000000000000
201601130060000100000000000000023295000000000000000232959611111111111111111111CONDUMIDOR-FINAL              000000000029500000000000000000000000000000000000000000000000000000000000000000000000000000000000000000000000000000000000PES00010000001 00000000000000000000000
201601130060000100000000000000023296000000000000000232969611111111111111111111CONDUMIDOR-FINAL              000000000041000000000000000000000000000000000000000000000000000000000000000000000000000000000000000000000000000000000000PES00010000001 00000000000000000000000
201601130060000100000000000000023297000000000000000232979611111111111111111111CONDUMIDOR-FINAL              000000000029800000000000000000000000000000000000000000000000000000000000000000000000000000000000000000000000000000000000PES00010000001 00000000000000000000000
201601130060000100000000000000023298000000000000000232989611111111111111111111CONDUMIDOR-FINAL              000000000095000000000000000000000000000000000000000000000000000000000000000000000000000000000000000000000000000000000000PES00010000001 00000000000000000000000
201601130060000100000000000000023299000000000000000232999611111111111111111111CONDUMIDOR-FINAL              000000000032000000000000000000000000000000000000000000000000000000000000000000000000000000000000000000000000000000000000PES00010000001 00000000000000000000000
201601130060000100000000000000023300000000000000000233009611111111111111111111CONDUMIDOR-FINAL              000000000064500000000000000000000000000000000000000000000000000000000000000000000000000000000000000000000000000000000000PES00010000001 00000000000000000000000
201601130060000100000000000000023301000000000000000233019611111111111111111111CONDUMIDOR-FINAL              000000000040800000000000000000000000000000000000000000000000000000000000000000000000000000000000000000000000000000000000PES00010000001 00000000000000000000000
201601130060000100000000000000023302000000000000000233029611111111111111111111CONDUMIDOR-FINAL              000000000018000000000000000000000000000000000000000000000000000000000000000000000000000000000000000000000000000000000000PES00010000001 00000000000000000000000
201601130060000100000000000000023303000000000000000233039611111111111111111111CONDUMIDOR-FINAL              000000000114000000000000000000000000000000000000000000000000000000000000000000000000000000000000000000000000000000000000PES00010000001 00000000000000000000000
201601140060000100000000000000023304000000000000000233049611111111111111111111CONDUMIDOR-FINAL              000000000061000000000000000000000000000000000000000000000000000000000000000000000000000000000000000000000000000000000000PES00010000001 00000000000000000000000
201601140060000100000000000000023305000000000000000233059611111111111111111111CONDUMIDOR-FINAL              000000000022500000000000000000000000000000000000000000000000000000000000000000000000000000000000000000000000000000000000PES00010000001 00000000000000000000000
201601140060000100000000000000023306000000000000000233069611111111111111111111CONDUMIDOR-FINAL              000000000027500000000000000000000000000000000000000000000000000000000000000000000000000000000000000000000000000000000000PES00010000001 00000000000000000000000
201601140060000100000000000000023307000000000000000233079611111111111111111111CONDUMIDOR-FINAL              000000000081000000000000000000000000000000000000000000000000000000000000000000000000000000000000000000000000000000000000PES00010000001 00000000000000000000000
201601140060000100000000000000023308000000000000000233089611111111111111111111CONDUMIDOR-FINAL              000000000195000000000000000000000000000000000000000000000000000000000000000000000000000000000000000000000000000000000000PES00010000001 00000000000000000000000
201601140060000100000000000000023309000000000000000233099611111111111111111111CONDUMIDOR-FINAL              000000000060500000000000000000000000000000000000000000000000000000000000000000000000000000000000000000000000000000000000PES00010000001 00000000000000000000000
201601140060000100000000000000023310000000000000000233109611111111111111111111CONDUMIDOR-FINAL              000000000043500000000000000000000000000000000000000000000000000000000000000000000000000000000000000000000000000000000000PES00010000001 00000000000000000000000
201601140060000100000000000000023311000000000000000233119611111111111111111111CONDUMIDOR-FINAL              000000000345000000000000000000000000000000000000000000000000000000000000000000000000000000000000000000000000000000000000PES00010000001 00000000000000000000000
201601140060000100000000000000023312000000000000000233129611111111111111111111CONDUMIDOR-FINAL              000000000025500000000000000000000000000000000000000000000000000000000000000000000000000000000000000000000000000000000000PES00010000001 00000000000000000000000
201601140060000100000000000000023313000000000000000233139611111111111111111111CONDUMIDOR-FINAL              000000000021500000000000000000000000000000000000000000000000000000000000000000000000000000000000000000000000000000000000PES00010000001 00000000000000000000000
201601140060000100000000000000023314000000000000000233149611111111111111111111CONDUMIDOR-FINAL              000000000035500000000000000000000000000000000000000000000000000000000000000000000000000000000000000000000000000000000000PES00010000001 00000000000000000000000
201601140060000100000000000000023315000000000000000233159611111111111111111111CONDUMIDOR-FINAL              000000000063500000000000000000000000000000000000000000000000000000000000000000000000000000000000000000000000000000000000PES00010000001 00000000000000000000000
201601140060000100000000000000023316000000000000000233169611111111111111111111CONDUMIDOR-FINAL              000000000086000000000000000000000000000000000000000000000000000000000000000000000000000000000000000000000000000000000000PES00010000001 00000000000000000000000
201601140060000100000000000000023317000000000000000233179611111111111111111111CONDUMIDOR-FINAL              000000000166400000000000000000000000000000000000000000000000000000000000000000000000000000000000000000000000000000000000PES00010000001 00000000000000000000000
201601140060000100000000000000023318000000000000000233189611111111111111111111CONDUMIDOR-FINAL              000000000110500000000000000000000000000000000000000000000000000000000000000000000000000000000000000000000000000000000000PES00010000001 00000000000000000000000
201601150060000100000000000000023319000000000000000233199611111111111111111111CONDUMIDOR-FINAL              000000000016400000000000000000000000000000000000000000000000000000000000000000000000000000000000000000000000000000000000PES00010000001 00000000000000000000000
201601150060000100000000000000023320000000000000000233209611111111111111111111CONDUMIDOR-FINAL              000000000077300000000000000000000000000000000000000000000000000000000000000000000000000000000000000000000000000000000000PES00010000001 00000000000000000000000
201601150060000100000000000000023321000000000000000233219611111111111111111111CONDUMIDOR-FINAL              000000000026000000000000000000000000000000000000000000000000000000000000000000000000000000000000000000000000000000000000PES00010000001 00000000000000000000000
201601150060000100000000000000023322000000000000000233229611111111111111111111CONDUMIDOR-FINAL              000000000057500000000000000000000000000000000000000000000000000000000000000000000000000000000000000000000000000000000000PES00010000001 00000000000000000000000
201601150060000100000000000000023323000000000000000233239611111111111111111111CONDUMIDOR-FINAL              000000000052500000000000000000000000000000000000000000000000000000000000000000000000000000000000000000000000000000000000PES00010000001 00000000000000000000000
201601150060000100000000000000023324000000000000000233249611111111111111111111CONDUMIDOR-FINAL              000000000038500000000000000000000000000000000000000000000000000000000000000000000000000000000000000000000000000000000000PES00010000001 00000000000000000000000
201601150060000100000000000000023325000000000000000233259611111111111111111111CONDUMIDOR-FINAL              000000000095000000000000000000000000000000000000000000000000000000000000000000000000000000000000000000000000000000000000PES00010000001 00000000000000000000000
201601150060000100000000000000023326000000000000000233269611111111111111111111CONDUMIDOR-FINAL              000000000061500000000000000000000000000000000000000000000000000000000000000000000000000000000000000000000000000000000000PES00010000001 00000000000000000000000
201601150060000100000000000000023327000000000000000233279611111111111111111111CONDUMIDOR-FINAL              000000000040400000000000000000000000000000000000000000000000000000000000000000000000000000000000000000000000000000000000PES00010000001 00000000000000000000000
201601150060000100000000000000023328000000000000000233289611111111111111111111CONDUMIDOR-FINAL              000000000126000000000000000000000000000000000000000000000000000000000000000000000000000000000000000000000000000000000000PES00010000001 00000000000000000000000
201601150060000100000000000000023329000000000000000233299611111111111111111111CONDUMIDOR-FINAL              000000000008000000000000000000000000000000000000000000000000000000000000000000000000000000000000000000000000000000000000PES00010000001 00000000000000000000000
201601150060000100000000000000023330000000000000000233309611111111111111111111CONDUMIDOR-FINAL              000000000175300000000000000000000000000000000000000000000000000000000000000000000000000000000000000000000000000000000000PES00010000001 00000000000000000000000
201601160060000100000000000000023331000000000000000233319611111111111111111111CONDUMIDOR-FINAL              000000000031000000000000000000000000000000000000000000000000000000000000000000000000000000000000000000000000000000000000PES00010000001 00000000000000000000000
201601160060000100000000000000023332000000000000000233329611111111111111111111CONDUMIDOR-FINAL              000000000077500000000000000000000000000000000000000000000000000000000000000000000000000000000000000000000000000000000000PES00010000001 00000000000000000000000
201601160060000100000000000000023333000000000000000233339611111111111111111111CONDUMIDOR-FINAL              000000000043500000000000000000000000000000000000000000000000000000000000000000000000000000000000000000000000000000000000PES00010000001 00000000000000000000000
201601160060000100000000000000023334000000000000000233349611111111111111111111CONDUMIDOR-FINAL              000000000073500000000000000000000000000000000000000000000000000000000000000000000000000000000000000000000000000000000000PES00010000001 00000000000000000000000
201601160060000100000000000000023335000000000000000233359611111111111111111111CONDUMIDOR-FINAL              000000000022500000000000000000000000000000000000000000000000000000000000000000000000000000000000000000000000000000000000PES00010000001 00000000000000000000000
201601160060000100000000000000023336000000000000000233369611111111111111111111CONDUMIDOR-FINAL              000000000032200000000000000000000000000000000000000000000000000000000000000000000000000000000000000000000000000000000000PES00010000001 00000000000000000000000
201601160060000100000000000000023337000000000000000233379611111111111111111111CONDUMIDOR-FINAL              000000000137000000000000000000000000000000000000000000000000000000000000000000000000000000000000000000000000000000000000PES00010000001 00000000000000000000000
201601160060000100000000000000023338000000000000000233389611111111111111111111CONDUMIDOR-FINAL              000000000064000000000000000000000000000000000000000000000000000000000000000000000000000000000000000000000000000000000000PES00010000001 00000000000000000000000
201601160060000100000000000000023339000000000000000233399611111111111111111111CONDUMIDOR-FINAL              000000000095200000000000000000000000000000000000000000000000000000000000000000000000000000000000000000000000000000000000PES00010000001 00000000000000000000000
201601160060000100000000000000023340000000000000000233409611111111111111111111CONDUMIDOR-FINAL              000000000086200000000000000000000000000000000000000000000000000000000000000000000000000000000000000000000000000000000000PES00010000001 00000000000000000000000
201601160060000100000000000000023341000000000000000233419611111111111111111111CONDUMIDOR-FINAL              000000000025000000000000000000000000000000000000000000000000000000000000000000000000000000000000000000000000000000000000PES00010000001 00000000000000000000000
201601160060000100000000000000023342000000000000000233429611111111111111111111CONDUMIDOR-FINAL              000000000216700000000000000000000000000000000000000000000000000000000000000000000000000000000000000000000000000000000000PES00010000001 00000000000000000000000
201601160060000100000000000000023343000000000000000233439611111111111111111111CONDUMIDOR-FINAL              000000000063800000000000000000000000000000000000000000000000000000000000000000000000000000000000000000000000000000000000PES00010000001 00000000000000000000000
201601160060000100000000000000023344000000000000000233449611111111111111111111CONDUMIDOR-FINAL              000000000145000000000000000000000000000000000000000000000000000000000000000000000000000000000000000000000000000000000000PES00010000001 00000000000000000000000
201601160060000100000000000000023345000000000000000233459611111111111111111111CONDUMIDOR-FINAL              000000000049000000000000000000000000000000000000000000000000000000000000000000000000000000000000000000000000000000000000PES00010000001 00000000000000000000000
201601160060000100000000000000023346000000000000000233469611111111111111111111CONDUMIDOR-FINAL              000000000026800000000000000000000000000000000000000000000000000000000000000000000000000000000000000000000000000000000000PES00010000001 00000000000000000000000
201601160060000100000000000000023347000000000000000233479611111111111111111111CONDUMIDOR-FINAL              000000000008500000000000000000000000000000000000000000000000000000000000000000000000000000000000000000000000000000000000PES00010000001 00000000000000000000000
201601160060000100000000000000023348000000000000000233489611111111111111111111CONDUMIDOR-FINAL              000000000048500000000000000000000000000000000000000000000000000000000000000000000000000000000000000000000000000000000000PES00010000001 00000000000000000000000
201601160060000100000000000000023349000000000000000233499611111111111111111111CONDUMIDOR-FINAL              000000000039500000000000000000000000000000000000000000000000000000000000000000000000000000000000000000000000000000000000PES00010000001 00000000000000000000000
201601160060000100000000000000023350000000000000000233509611111111111111111111CONDUMIDOR-FINAL              000000000012400000000000000000000000000000000000000000000000000000000000000000000000000000000000000000000000000000000000PES00010000001 00000000000000000000000
201601160060000100000000000000023351000000000000000233519611111111111111111111CONDUMIDOR-FINAL              000000000077500000000000000000000000000000000000000000000000000000000000000000000000000000000000000000000000000000000000PES00010000001 00000000000000000000000
201601160060000100000000000000023352000000000000000233529611111111111111111111CONDUMIDOR-FINAL              000000000030000000000000000000000000000000000000000000000000000000000000000000000000000000000000000000000000000000000000PES00010000001 00000000000000000000000
201601160060000100000000000000023353000000000000000233539611111111111111111111CONDUMIDOR-FINAL              000000000037000000000000000000000000000000000000000000000000000000000000000000000000000000000000000000000000000000000000PES00010000001 00000000000000000000000
201601180060000100000000000000023354000000000000000233549611111111111111111111CONDUMIDOR-FINAL              000000000071500000000000000000000000000000000000000000000000000000000000000000000000000000000000000000000000000000000000PES00010000001 00000000000000000000000
201601180060000100000000000000023355000000000000000233559611111111111111111111CONDUMIDOR-FINAL              000000000031300000000000000000000000000000000000000000000000000000000000000000000000000000000000000000000000000000000000PES00010000001 00000000000000000000000
201601180060000100000000000000023356000000000000000233569611111111111111111111CONDUMIDOR-FINAL              000000000029500000000000000000000000000000000000000000000000000000000000000000000000000000000000000000000000000000000000PES00010000001 00000000000000000000000
201601180060000100000000000000023357000000000000000233579611111111111111111111CONDUMIDOR-FINAL              000000000047500000000000000000000000000000000000000000000000000000000000000000000000000000000000000000000000000000000000PES00010000001 00000000000000000000000
201601180060000100000000000000023358000000000000000233589611111111111111111111CONDUMIDOR-FINAL              000000000037500000000000000000000000000000000000000000000000000000000000000000000000000000000000000000000000000000000000PES00010000001 00000000000000000000000
201601180060000100000000000000023359000000000000000233599611111111111111111111CONDUMIDOR-FINAL              000000000108500000000000000000000000000000000000000000000000000000000000000000000000000000000000000000000000000000000000PES00010000001 00000000000000000000000
201601180060000100000000000000023360000000000000000233609611111111111111111111CONDUMIDOR-FINAL              000000000104800000000000000000000000000000000000000000000000000000000000000000000000000000000000000000000000000000000000PES00010000001 00000000000000000000000
201601180060000100000000000000023361000000000000000233619611111111111111111111CONDUMIDOR-FINAL              000000000100600000000000000000000000000000000000000000000000000000000000000000000000000000000000000000000000000000000000PES00010000001 00000000000000000000000
201601190060000100000000000000023362000000000000000233629611111111111111111111CONDUMIDOR-FINAL              000000000016500000000000000000000000000000000000000000000000000000000000000000000000000000000000000000000000000000000000PES00010000001 00000000000000000000000
201601190060000100000000000000023363000000000000000233639611111111111111111111CONDUMIDOR-FINAL              000000000006500000000000000000000000000000000000000000000000000000000000000000000000000000000000000000000000000000000000PES00010000001 00000000000000000000000
201601190060000100000000000000023364000000000000000233649611111111111111111111CONDUMIDOR-FINAL              000000000057500000000000000000000000000000000000000000000000000000000000000000000000000000000000000000000000000000000000PES00010000001 00000000000000000000000
201601190060000100000000000000023365000000000000000233659611111111111111111111CONDUMIDOR-FINAL              000000000065800000000000000000000000000000000000000000000000000000000000000000000000000000000000000000000000000000000000PES00010000001 00000000000000000000000
201601190060000100000000000000023366000000000000000233669611111111111111111111CONDUMIDOR-FINAL              000000000039000000000000000000000000000000000000000000000000000000000000000000000000000000000000000000000000000000000000PES00010000001 00000000000000000000000
201601190060000100000000000000023367000000000000000233679611111111111111111111CONDUMIDOR-FINAL              000000000019500000000000000000000000000000000000000000000000000000000000000000000000000000000000000000000000000000000000PES00010000001 00000000000000000000000
201601190060000100000000000000023368000000000000000233689611111111111111111111CONDUMIDOR-FINAL              000000000028500000000000000000000000000000000000000000000000000000000000000000000000000000000000000000000000000000000000PES00010000001 00000000000000000000000
201601190060000100000000000000023369000000000000000233699611111111111111111111CONDUMIDOR-FINAL              000000000087700000000000000000000000000000000000000000000000000000000000000000000000000000000000000000000000000000000000PES00010000001 00000000000000000000000
201601190060000100000000000000023370000000000000000233709611111111111111111111CONDUMIDOR-FINAL              000000000046700000000000000000000000000000000000000000000000000000000000000000000000000000000000000000000000000000000000PES00010000001 00000000000000000000000
201601190060000100000000000000023371000000000000000233719611111111111111111111CONDUMIDOR-FINAL              000000000071000000000000000000000000000000000000000000000000000000000000000000000000000000000000000000000000000000000000PES00010000001 00000000000000000000000
201601190060000100000000000000023372000000000000000233729611111111111111111111CONDUMIDOR-FINAL              000000000025000000000000000000000000000000000000000000000000000000000000000000000000000000000000000000000000000000000000PES00010000001 00000000000000000000000
201601190060000100000000000000023373000000000000000233739611111111111111111111CONDUMIDOR-FINAL              000000000093000000000000000000000000000000000000000000000000000000000000000000000000000000000000000000000000000000000000PES00010000001 00000000000000000000000
201601190060000100000000000000023374000000000000000233749611111111111111111111CONDUMIDOR-FINAL              000000000041800000000000000000000000000000000000000000000000000000000000000000000000000000000000000000000000000000000000PES00010000001 00000000000000000000000
201601200060000100000000000000023375000000000000000233759611111111111111111111CONDUMIDOR-FINAL              000000000019000000000000000000000000000000000000000000000000000000000000000000000000000000000000000000000000000000000000PES00010000001 00000000000000000000000
201601200060000100000000000000023376000000000000000233769611111111111111111111CONDUMIDOR-FINAL              000000000106000000000000000000000000000000000000000000000000000000000000000000000000000000000000000000000000000000000000PES00010000001 00000000000000000000000
201601200060000100000000000000023377000000000000000233779611111111111111111111CONDUMIDOR-FINAL              000000000036200000000000000000000000000000000000000000000000000000000000000000000000000000000000000000000000000000000000PES00010000001 00000000000000000000000
201601200060000100000000000000023378000000000000000233789611111111111111111111CONDUMIDOR-FINAL              000000000057500000000000000000000000000000000000000000000000000000000000000000000000000000000000000000000000000000000000PES00010000001 00000000000000000000000
201601200060000100000000000000023379000000000000000233799611111111111111111111CONDUMIDOR-FINAL              000000000039500000000000000000000000000000000000000000000000000000000000000000000000000000000000000000000000000000000000PES00010000001 00000000000000000000000
201601200060000100000000000000023380000000000000000233809611111111111111111111CONDUMIDOR-FINAL              000000000021000000000000000000000000000000000000000000000000000000000000000000000000000000000000000000000000000000000000PES00010000001 00000000000000000000000
201601200060000100000000000000023381000000000000000233819611111111111111111111CONDUMIDOR-FINAL              000000000082500000000000000000000000000000000000000000000000000000000000000000000000000000000000000000000000000000000000PES00010000001 00000000000000000000000
201601200060000100000000000000023382000000000000000233829611111111111111111111CONDUMIDOR-FINAL              000000000043800000000000000000000000000000000000000000000000000000000000000000000000000000000000000000000000000000000000PES00010000001 00000000000000000000000
201601200060000100000000000000023383000000000000000233839611111111111111111111CONDUMIDOR-FINAL              000000000077500000000000000000000000000000000000000000000000000000000000000000000000000000000000000000000000000000000000PES00010000001 00000000000000000000000
201601200060000100000000000000023384000000000000000233849611111111111111111111CONDUMIDOR-FINAL              000000000125500000000000000000000000000000000000000000000000000000000000000000000000000000000000000000000000000000000000PES00010000001 00000000000000000000000
201601200060000100000000000000023385000000000000000233859611111111111111111111CONDUMIDOR-FINAL              000000000019800000000000000000000000000000000000000000000000000000000000000000000000000000000000000000000000000000000000PES00010000001 00000000000000000000000
201601200060000100000000000000023386000000000000000233869611111111111111111111CONDUMIDOR-FINAL              000000000048500000000000000000000000000000000000000000000000000000000000000000000000000000000000000000000000000000000000PES00010000001 00000000000000000000000
201601210060000100000000000000023387000000000000000233879611111111111111111111CONDUMIDOR-FINAL              000000000062500000000000000000000000000000000000000000000000000000000000000000000000000000000000000000000000000000000000PES00010000001 00000000000000000000000
201601210060000100000000000000023388000000000000000233889611111111111111111111CONDUMIDOR-FINAL              000000000057500000000000000000000000000000000000000000000000000000000000000000000000000000000000000000000000000000000000PES00010000001 00000000000000000000000
201601210060000100000000000000023389000000000000000233899611111111111111111111CONDUMIDOR-FINAL              000000000054500000000000000000000000000000000000000000000000000000000000000000000000000000000000000000000000000000000000PES00010000001 00000000000000000000000
201601210060000100000000000000023390000000000000000233909611111111111111111111CONDUMIDOR-FINAL              000000000063000000000000000000000000000000000000000000000000000000000000000000000000000000000000000000000000000000000000PES00010000001 00000000000000000000000
201601210060000100000000000000023391000000000000000233919611111111111111111111CONDUMIDOR-FINAL              000000000054000000000000000000000000000000000000000000000000000000000000000000000000000000000000000000000000000000000000PES00010000001 00000000000000000000000
201601210060000100000000000000023392000000000000000233929611111111111111111111CONDUMIDOR-FINAL              000000000090000000000000000000000000000000000000000000000000000000000000000000000000000000000000000000000000000000000000PES00010000001 00000000000000000000000
201601210060000100000000000000023393000000000000000233939611111111111111111111CONDUMIDOR-FINAL              000000000063600000000000000000000000000000000000000000000000000000000000000000000000000000000000000000000000000000000000PES00010000001 00000000000000000000000
201601210060000100000000000000023394000000000000000233949611111111111111111111CONDUMIDOR-FINAL              000000000097500000000000000000000000000000000000000000000000000000000000000000000000000000000000000000000000000000000000PES00010000001 00000000000000000000000
201601210060000100000000000000023395000000000000000233959611111111111111111111CONDUMIDOR-FINAL              000000000023500000000000000000000000000000000000000000000000000000000000000000000000000000000000000000000000000000000000PES00010000001 00000000000000000000000
201601210060000100000000000000023396000000000000000233969611111111111111111111CONDUMIDOR-FINAL              000000000024000000000000000000000000000000000000000000000000000000000000000000000000000000000000000000000000000000000000PES00010000001 00000000000000000000000
201601210060000100000000000000023397000000000000000233979611111111111111111111CONDUMIDOR-FINAL              000000000072000000000000000000000000000000000000000000000000000000000000000000000000000000000000000000000000000000000000PES00010000001 00000000000000000000000
201601220060000100000000000000023398000000000000000233989611111111111111111111CONDUMIDOR-FINAL              000000000018200000000000000000000000000000000000000000000000000000000000000000000000000000000000000000000000000000000000PES00010000001 00000000000000000000000
201601220060000100000000000000023399000000000000000233999611111111111111111111CONDUMIDOR-FINAL              000000000038500000000000000000000000000000000000000000000000000000000000000000000000000000000000000000000000000000000000PES00010000001 00000000000000000000000
201601220060000100000000000000023400000000000000000234009611111111111111111111CONDUMIDOR-FINAL              000000000088700000000000000000000000000000000000000000000000000000000000000000000000000000000000000000000000000000000000PES00010000001 00000000000000000000000
201601220060000100000000000000023401000000000000000234019611111111111111111111CONDUMIDOR-FINAL              000000000016500000000000000000000000000000000000000000000000000000000000000000000000000000000000000000000000000000000000PES00010000001 00000000000000000000000
201601220060000100000000000000023402000000000000000234029611111111111111111111CONDUMIDOR-FINAL              000000000024000000000000000000000000000000000000000000000000000000000000000000000000000000000000000000000000000000000000PES00010000001 00000000000000000000000
201601220060000100000000000000023403000000000000000234039611111111111111111111CONDUMIDOR-FINAL              000000000125000000000000000000000000000000000000000000000000000000000000000000000000000000000000000000000000000000000000PES00010000001 00000000000000000000000
201601220060000100000000000000023404000000000000000234049611111111111111111111CONDUMIDOR-FINAL              000000000075000000000000000000000000000000000000000000000000000000000000000000000000000000000000000000000000000000000000PES00010000001 00000000000000000000000
201601220060000100000000000000023405000000000000000234059611111111111111111111CONDUMIDOR-FINAL              000000000076500000000000000000000000000000000000000000000000000000000000000000000000000000000000000000000000000000000000PES00010000001 00000000000000000000000
201601220060000100000000000000023406000000000000000234069611111111111111111111CONDUMIDOR-FINAL              000000000003500000000000000000000000000000000000000000000000000000000000000000000000000000000000000000000000000000000000PES00010000001 00000000000000000000000
201601220060000100000000000000023407000000000000000234079611111111111111111111CONDUMIDOR-FINAL              000000000026000000000000000000000000000000000000000000000000000000000000000000000000000000000000000000000000000000000000PES00010000001 00000000000000000000000
201601220060000100000000000000023408000000000000000234089611111111111111111111CONDUMIDOR-FINAL              000000000033000000000000000000000000000000000000000000000000000000000000000000000000000000000000000000000000000000000000PES00010000001 00000000000000000000000
201601220060000100000000000000023409000000000000000234099611111111111111111111CONDUMIDOR-FINAL              000000000032500000000000000000000000000000000000000000000000000000000000000000000000000000000000000000000000000000000000PES00010000001 00000000000000000000000
201601230060000100000000000000023410000000000000000234109611111111111111111111CONDUMIDOR-FINAL              000000000280000000000000000000000000000000000000000000000000000000000000000000000000000000000000000000000000000000000000PES00010000001 00000000000000000000000
201601230060000100000000000000023411000000000000000234119611111111111111111111CONDUMIDOR-FINAL              000000000006000000000000000000000000000000000000000000000000000000000000000000000000000000000000000000000000000000000000PES00010000001 00000000000000000000000
201601230060000100000000000000023412000000000000000234129611111111111111111111CONDUMIDOR-FINAL              000000000037500000000000000000000000000000000000000000000000000000000000000000000000000000000000000000000000000000000000PES00010000001 00000000000000000000000
201601230060000100000000000000023413000000000000000234139611111111111111111111CONDUMIDOR-FINAL              000000000036000000000000000000000000000000000000000000000000000000000000000000000000000000000000000000000000000000000000PES00010000001 00000000000000000000000
201601230060000100000000000000023414000000000000000234149611111111111111111111CONDUMIDOR-FINAL              000000000094600000000000000000000000000000000000000000000000000000000000000000000000000000000000000000000000000000000000PES00010000001 00000000000000000000000
201601230060000100000000000000023415000000000000000234159611111111111111111111CONDUMIDOR-FINAL              000000000093600000000000000000000000000000000000000000000000000000000000000000000000000000000000000000000000000000000000PES00010000001 00000000000000000000000
201601230060000100000000000000023416000000000000000234169611111111111111111111CONDUMIDOR-FINAL              000000000060900000000000000000000000000000000000000000000000000000000000000000000000000000000000000000000000000000000000PES00010000001 00000000000000000000000
201601230060000100000000000000023417000000000000000234179611111111111111111111CONDUMIDOR-FINAL              000000000067500000000000000000000000000000000000000000000000000000000000000000000000000000000000000000000000000000000000PES00010000001 00000000000000000000000
201601230060000100000000000000023418000000000000000234189611111111111111111111CONDUMIDOR-FINAL              000000000077200000000000000000000000000000000000000000000000000000000000000000000000000000000000000000000000000000000000PES00010000001 00000000000000000000000
201601230060000100000000000000023419000000000000000234199611111111111111111111CONDUMIDOR-FINAL              000000000097000000000000000000000000000000000000000000000000000000000000000000000000000000000000000000000000000000000000PES00010000001 00000000000000000000000
201601230060000100000000000000023420000000000000000234209611111111111111111111CONDUMIDOR-FINAL              000000000078500000000000000000000000000000000000000000000000000000000000000000000000000000000000000000000000000000000000PES00010000001 00000000000000000000000
201601230060000100000000000000023421000000000000000234219611111111111111111111CONDUMIDOR-FINAL              000000000057000000000000000000000000000000000000000000000000000000000000000000000000000000000000000000000000000000000000PES00010000001 00000000000000000000000
201601230060000100000000000000023422000000000000000234229611111111111111111111CONDUMIDOR-FINAL              000000000021000000000000000000000000000000000000000000000000000000000000000000000000000000000000000000000000000000000000PES00010000001 00000000000000000000000
201601230060000100000000000000023423000000000000000234239611111111111111111111CONDUMIDOR-FINAL              000000000008500000000000000000000000000000000000000000000000000000000000000000000000000000000000000000000000000000000000PES00010000001 00000000000000000000000
201601230060000100000000000000023424000000000000000234249611111111111111111111CONDUMIDOR-FINAL              000000000035000000000000000000000000000000000000000000000000000000000000000000000000000000000000000000000000000000000000PES00010000001 00000000000000000000000
201601230060000100000000000000023425000000000000000234259611111111111111111111CONDUMIDOR-FINAL              000000000000100000000000000000000000000000000000000000000000000000000000000000000000000000000000000000000000000000000000PES00010000001 00000000000000000000000
201601250060000100000000000000023426000000000000000234269611111111111111111111CONDUMIDOR-FINAL              000000000046500000000000000000000000000000000000000000000000000000000000000000000000000000000000000000000000000000000000PES00010000001 00000000000000000000000
201601250060000100000000000000023427000000000000000234279611111111111111111111CONDUMIDOR-FINAL              000000000048500000000000000000000000000000000000000000000000000000000000000000000000000000000000000000000000000000000000PES00010000001 00000000000000000000000
201601250060000100000000000000023428000000000000000234289611111111111111111111CONDUMIDOR-FINAL              000000000018300000000000000000000000000000000000000000000000000000000000000000000000000000000000000000000000000000000000PES00010000001 00000000000000000000000
201601250060000100000000000000023429000000000000000234299611111111111111111111CONDUMIDOR-FINAL              000000000017500000000000000000000000000000000000000000000000000000000000000000000000000000000000000000000000000000000000PES00010000001 00000000000000000000000
201601250060000100000000000000023430000000000000000234309611111111111111111111CONDUMIDOR-FINAL              000000000101500000000000000000000000000000000000000000000000000000000000000000000000000000000000000000000000000000000000PES00010000001 00000000000000000000000
201601250060000100000000000000023431000000000000000234319611111111111111111111CONDUMIDOR-FINAL              000000000099800000000000000000000000000000000000000000000000000000000000000000000000000000000000000000000000000000000000PES00010000001 00000000000000000000000
201601250060000100000000000000023432000000000000000234329611111111111111111111CONDUMIDOR-FINAL              000000000037000000000000000000000000000000000000000000000000000000000000000000000000000000000000000000000000000000000000PES00010000001 00000000000000000000000
201601250060000100000000000000023433000000000000000234339611111111111111111111CONDUMIDOR-FINAL              000000000019000000000000000000000000000000000000000000000000000000000000000000000000000000000000000000000000000000000000PES00010000001 00000000000000000000000
201601250060000100000000000000023434000000000000000234349611111111111111111111CONDUMIDOR-FINAL              000000000147500000000000000000000000000000000000000000000000000000000000000000000000000000000000000000000000000000000000PES00010000001 00000000000000000000000
201601250060000100000000000000023435000000000000000234359611111111111111111111CONDUMIDOR-FINAL              000000000037500000000000000000000000000000000000000000000000000000000000000000000000000000000000000000000000000000000000PES00010000001 00000000000000000000000
201601250060000100000000000000023436000000000000000234369611111111111111111111CONDUMIDOR-FINAL              000000000062300000000000000000000000000000000000000000000000000000000000000000000000000000000000000000000000000000000000PES00010000001 00000000000000000000000
201601250060000100000000000000023437000000000000000234379611111111111111111111CONDUMIDOR-FINAL              000000000087000000000000000000000000000000000000000000000000000000000000000000000000000000000000000000000000000000000000PES00010000001 00000000000000000000000
201601250060000100000000000000023438000000000000000234389611111111111111111111CONDUMIDOR-FINAL              000000000268000000000000000000000000000000000000000000000000000000000000000000000000000000000000000000000000000000000000PES00010000001 00000000000000000000000
201601250060000100000000000000023439000000000000000234399611111111111111111111CONDUMIDOR-FINAL              000000000040500000000000000000000000000000000000000000000000000000000000000000000000000000000000000000000000000000000000PES00010000001 00000000000000000000000
201601250060000100000000000000023440000000000000000234409611111111111111111111CONDUMIDOR-FINAL              000000000024500000000000000000000000000000000000000000000000000000000000000000000000000000000000000000000000000000000000PES00010000001 00000000000000000000000
201601250060000100000000000000023441000000000000000234419611111111111111111111CONDUMIDOR-FINAL              000000000038000000000000000000000000000000000000000000000000000000000000000000000000000000000000000000000000000000000000PES00010000001 00000000000000000000000
201601250060000100000000000000023442000000000000000234429611111111111111111111CONDUMIDOR-FINAL              000000000052500000000000000000000000000000000000000000000000000000000000000000000000000000000000000000000000000000000000PES00010000001 00000000000000000000000
201601260060000100000000000000023443000000000000000234439611111111111111111111CONDUMIDOR-FINAL              000000000123300000000000000000000000000000000000000000000000000000000000000000000000000000000000000000000000000000000000PES00010000001 00000000000000000000000
201601260060000100000000000000023444000000000000000234449611111111111111111111CONDUMIDOR-FINAL              000000000101700000000000000000000000000000000000000000000000000000000000000000000000000000000000000000000000000000000000PES00010000001 00000000000000000000000
201601260060000100000000000000023445000000000000000234459611111111111111111111CONDUMIDOR-FINAL              000000000073500000000000000000000000000000000000000000000000000000000000000000000000000000000000000000000000000000000000PES00010000001 00000000000000000000000
201601260060000100000000000000023446000000000000000234469611111111111111111111CONDUMIDOR-FINAL              000000000050000000000000000000000000000000000000000000000000000000000000000000000000000000000000000000000000000000000000PES00010000001 00000000000000000000000
201601260060000100000000000000023447000000000000000234479611111111111111111111CONDUMIDOR-FINAL              000000000053000000000000000000000000000000000000000000000000000000000000000000000000000000000000000000000000000000000000PES00010000001 00000000000000000000000
201601260060000100000000000000023448000000000000000234489611111111111111111111CONDUMIDOR-FINAL              000000000007500000000000000000000000000000000000000000000000000000000000000000000000000000000000000000000000000000000000PES00010000001 00000000000000000000000
201601260060000100000000000000023449000000000000000234499611111111111111111111CONDUMIDOR-FINAL              000000000012000000000000000000000000000000000000000000000000000000000000000000000000000000000000000000000000000000000000PES00010000001 00000000000000000000000
201601260060000100000000000000023450000000000000000234509611111111111111111111CONDUMIDOR-FINAL              000000000017000000000000000000000000000000000000000000000000000000000000000000000000000000000000000000000000000000000000PES00010000001 00000000000000000000000
201601260060000100000000000000023451000000000000000234519611111111111111111111CONDUMIDOR-FINAL              000000000040000000000000000000000000000000000000000000000000000000000000000000000000000000000000000000000000000000000000PES00010000001 00000000000000000000000
201601260060000100000000000000023452000000000000000234529611111111111111111111CONDUMIDOR-FINAL              000000000052000000000000000000000000000000000000000000000000000000000000000000000000000000000000000000000000000000000000PES00010000001 00000000000000000000000
201601260060000100000000000000023453000000000000000234539611111111111111111111CONDUMIDOR-FINAL              000000000027300000000000000000000000000000000000000000000000000000000000000000000000000000000000000000000000000000000000PES00010000001 00000000000000000000000
201601260060000100000000000000023454000000000000000234549611111111111111111111CONDUMIDOR-FINAL              000000000009500000000000000000000000000000000000000000000000000000000000000000000000000000000000000000000000000000000000PES00010000001 00000000000000000000000
201601260060000100000000000000023455000000000000000234559611111111111111111111CONDUMIDOR-FINAL              000000000125000000000000000000000000000000000000000000000000000000000000000000000000000000000000000000000000000000000000PES00010000001 00000000000000000000000
201601260060000100000000000000023456000000000000000234569611111111111111111111CONDUMIDOR-FINAL              000000000034500000000000000000000000000000000000000000000000000000000000000000000000000000000000000000000000000000000000PES00010000001 00000000000000000000000
201601260060000100000000000000023457000000000000000234579611111111111111111111CONDUMIDOR-FINAL              000000000035000000000000000000000000000000000000000000000000000000000000000000000000000000000000000000000000000000000000PES00010000001 00000000000000000000000
201601260060000100000000000000023458000000000000000234589611111111111111111111CONDUMIDOR-FINAL              000000000021000000000000000000000000000000000000000000000000000000000000000000000000000000000000000000000000000000000000PES00010000001 00000000000000000000000
201601260060000100000000000000023459000000000000000234599611111111111111111111CONDUMIDOR-FINAL              000000000039000000000000000000000000000000000000000000000000000000000000000000000000000000000000000000000000000000000000PES00010000001 00000000000000000000000
201601260060000100000000000000023460000000000000000234609611111111111111111111CONDUMIDOR-FINAL              000000000002500000000000000000000000000000000000000000000000000000000000000000000000000000000000000000000000000000000000PES00010000001 00000000000000000000000
201601260060000100000000000000023461000000000000000234619611111111111111111111CONDUMIDOR-FINAL              000000000040000000000000000000000000000000000000000000000000000000000000000000000000000000000000000000000000000000000000PES00010000001 00000000000000000000000
201601270060000100000000000000023462000000000000000234629611111111111111111111CONDUMIDOR-FINAL              000000000195800000000000000000000000000000000000000000000000000000000000000000000000000000000000000000000000000000000000PES00010000001 00000000000000000000000
201601270060000100000000000000023463000000000000000234639611111111111111111111CONDUMIDOR-FINAL              000000000152500000000000000000000000000000000000000000000000000000000000000000000000000000000000000000000000000000000000PES00010000001 00000000000000000000000
201601270060000100000000000000023464000000000000000234649611111111111111111111CONDUMIDOR-FINAL              000000000042000000000000000000000000000000000000000000000000000000000000000000000000000000000000000000000000000000000000PES00010000001 00000000000000000000000
201601270060000100000000000000023465000000000000000234659611111111111111111111CONDUMIDOR-FINAL              000000000043000000000000000000000000000000000000000000000000000000000000000000000000000000000000000000000000000000000000PES00010000001 00000000000000000000000
201601270060000100000000000000023466000000000000000234669611111111111111111111CONDUMIDOR-FINAL              000000000034000000000000000000000000000000000000000000000000000000000000000000000000000000000000000000000000000000000000PES00010000001 00000000000000000000000
201601270060000100000000000000023467000000000000000234679611111111111111111111CONDUMIDOR-FINAL              000000000036000000000000000000000000000000000000000000000000000000000000000000000000000000000000000000000000000000000000PES00010000001 00000000000000000000000
201601270060000100000000000000023468000000000000000234689611111111111111111111CONDUMIDOR-FINAL              000000000065500000000000000000000000000000000000000000000000000000000000000000000000000000000000000000000000000000000000PES00010000001 00000000000000000000000
201601280060000100000000000000023469000000000000000234699611111111111111111111CONDUMIDOR-FINAL              000000000056500000000000000000000000000000000000000000000000000000000000000000000000000000000000000000000000000000000000PES00010000001 00000000000000000000000
201601280060000100000000000000023470000000000000000234709611111111111111111111CONDUMIDOR-FINAL              000000000012000000000000000000000000000000000000000000000000000000000000000000000000000000000000000000000000000000000000PES00010000001 00000000000000000000000
201601280060000100000000000000023471000000000000000234719611111111111111111111CONDUMIDOR-FINAL              000000000009500000000000000000000000000000000000000000000000000000000000000000000000000000000000000000000000000000000000PES00010000001 00000000000000000000000
201601280060000100000000000000023472000000000000000234729611111111111111111111CONDUMIDOR-FINAL              000000000017500000000000000000000000000000000000000000000000000000000000000000000000000000000000000000000000000000000000PES00010000001 00000000000000000000000
201601280060000100000000000000023473000000000000000234739611111111111111111111CONDUMIDOR-FINAL              000000000079800000000000000000000000000000000000000000000000000000000000000000000000000000000000000000000000000000000000PES00010000001 00000000000000000000000
201601280060000100000000000000023474000000000000000234749611111111111111111111CONDUMIDOR-FINAL              000000000237300000000000000000000000000000000000000000000000000000000000000000000000000000000000000000000000000000000000PES00010000001 00000000000000000000000
201601280060000100000000000000023475000000000000000234759611111111111111111111CONDUMIDOR-FINAL              000000000056200000000000000000000000000000000000000000000000000000000000000000000000000000000000000000000000000000000000PES00010000001 00000000000000000000000
201601280060000100000000000000023476000000000000000234769611111111111111111111CONDUMIDOR-FINAL              000000000037000000000000000000000000000000000000000000000000000000000000000000000000000000000000000000000000000000000000PES00010000001 00000000000000000000000
201601280060000100000000000000023477000000000000000234779611111111111111111111CONDUMIDOR-FINAL              000000000043300000000000000000000000000000000000000000000000000000000000000000000000000000000000000000000000000000000000PES00010000001 00000000000000000000000
201601280060000100000000000000023478000000000000000234789611111111111111111111CONDUMIDOR-FINAL              000000000027500000000000000000000000000000000000000000000000000000000000000000000000000000000000000000000000000000000000PES00010000001 00000000000000000000000
201601280060000100000000000000023479000000000000000234799611111111111111111111CONDUMIDOR-FINAL              000000000180000000000000000000000000000000000000000000000000000000000000000000000000000000000000000000000000000000000000PES00010000001 00000000000000000000000
201601280060000100000000000000023480000000000000000234809611111111111111111111CONDUMIDOR-FINAL              000000000049000000000000000000000000000000000000000000000000000000000000000000000000000000000000000000000000000000000000PES00010000001 00000000000000000000000
201601280060000100000000000000023481000000000000000234819611111111111111111111CONDUMIDOR-FINAL              000000000078500000000000000000000000000000000000000000000000000000000000000000000000000000000000000000000000000000000000PES00010000001 00000000000000000000000
201601290060000100000000000000023482000000000000000234829611111111111111111111CONDUMIDOR-FINAL              000000000075000000000000000000000000000000000000000000000000000000000000000000000000000000000000000000000000000000000000PES00010000001 00000000000000000000000
201601290060000100000000000000023483000000000000000234839611111111111111111111CONDUMIDOR-FINAL              000000000009000000000000000000000000000000000000000000000000000000000000000000000000000000000000000000000000000000000000PES00010000001 00000000000000000000000
201601290060000100000000000000023484000000000000000234849611111111111111111111CONDUMIDOR-FINAL              000000000017500000000000000000000000000000000000000000000000000000000000000000000000000000000000000000000000000000000000PES00010000001 00000000000000000000000
201601290060000100000000000000023485000000000000000234859611111111111111111111CONDUMIDOR-FINAL              000000000106500000000000000000000000000000000000000000000000000000000000000000000000000000000000000000000000000000000000PES00010000001 00000000000000000000000
201601290060000100000000000000023486000000000000000234869611111111111111111111CONDUMIDOR-FINAL              000000000006000000000000000000000000000000000000000000000000000000000000000000000000000000000000000000000000000000000000PES00010000001 00000000000000000000000
201601290060000100000000000000023487000000000000000234879611111111111111111111CONDUMIDOR-FINAL              000000000125000000000000000000000000000000000000000000000000000000000000000000000000000000000000000000000000000000000000PES00010000001 00000000000000000000000
201601290060000100000000000000023488000000000000000234889611111111111111111111CONDUMIDOR-FINAL              000000000074800000000000000000000000000000000000000000000000000000000000000000000000000000000000000000000000000000000000PES00010000001 00000000000000000000000
201601290060000100000000000000023489000000000000000234899611111111111111111111CONDUMIDOR-FINAL              000000000131100000000000000000000000000000000000000000000000000000000000000000000000000000000000000000000000000000000000PES00010000001 00000000000000000000000
201601290060000100000000000000023490000000000000000234909611111111111111111111CONDUMIDOR-FINAL              000000000111000000000000000000000000000000000000000000000000000000000000000000000000000000000000000000000000000000000000PES00010000001 00000000000000000000000
201601290060000100000000000000023491000000000000000234919611111111111111111111CONDUMIDOR-FINAL              000000000080000000000000000000000000000000000000000000000000000000000000000000000000000000000000000000000000000000000000PES00010000001 00000000000000000000000
201601290060000100000000000000023492000000000000000234929611111111111111111111CONDUMIDOR-FINAL              000000000047300000000000000000000000000000000000000000000000000000000000000000000000000000000000000000000000000000000000PES00010000001 00000000000000000000000
201601290060000100000000000000023493000000000000000234939611111111111111111111CONDUMIDOR-FINAL              000000000213000000000000000000000000000000000000000000000000000000000000000000000000000000000000000000000000000000000000PES00010000001 00000000000000000000000
201601290060000100000000000000023494000000000000000234949611111111111111111111CONDUMIDOR-FINAL              000000000085000000000000000000000000000000000000000000000000000000000000000000000000000000000000000000000000000000000000PES00010000001 00000000000000000000000
201601290060000100000000000000023495000000000000000234959611111111111111111111CONDUMIDOR-FINAL              000000000042000000000000000000000000000000000000000000000000000000000000000000000000000000000000000000000000000000000000PES00010000001 00000000000000000000000
201601290060000100000000000000023496000000000000000234969611111111111111111111CONDUMIDOR-FINAL              000000000053500000000000000000000000000000000000000000000000000000000000000000000000000000000000000000000000000000000000PES00010000001 00000000000000000000000
201601300060000100000000000000023497000000000000000234979611111111111111111111CONDUMIDOR-FINAL              000000000149000000000000000000000000000000000000000000000000000000000000000000000000000000000000000000000000000000000000PES00010000001 00000000000000000000000
201601300060000100000000000000023498000000000000000234989611111111111111111111CONDUMIDOR-FINAL              000000000017000000000000000000000000000000000000000000000000000000000000000000000000000000000000000000000000000000000000PES00010000001 00000000000000000000000
201601300060000100000000000000023499000000000000000234999611111111111111111111CONDUMIDOR-FINAL              000000000089000000000000000000000000000000000000000000000000000000000000000000000000000000000000000000000000000000000000PES00010000001 00000000000000000000000
201601300060000100000000000000023500000000000000000235009611111111111111111111CONDUMIDOR-FINAL              000000000082500000000000000000000000000000000000000000000000000000000000000000000000000000000000000000000000000000000000PES00010000001 00000000000000000000000
201601300060000100000000000000023501000000000000000235019611111111111111111111CONDUMIDOR-FINAL              000000000012000000000000000000000000000000000000000000000000000000000000000000000000000000000000000000000000000000000000PES00010000001 00000000000000000000000
201601300060000100000000000000023502000000000000000235029611111111111111111111CONDUMIDOR-FINAL              000000000179000000000000000000000000000000000000000000000000000000000000000000000000000000000000000000000000000000000000PES00010000001 00000000000000000000000
201601300060000100000000000000023503000000000000000235039611111111111111111111CONDUMIDOR-FINAL              000000000060455000000000000000000000000000000000000000000000000000000000000000000000000000000000000000000000000000000000PES00010000001 00000000000000000000000
201601300060000100000000000000023504000000000000000235049611111111111111111111CONDUMIDOR-FINAL              000000000026000000000000000000000000000000000000000000000000000000000000000000000000000000000000000000000000000000000000PES00010000001 00000000000000000000000
201601300060000100000000000000023505000000000000000235059611111111111111111111CONDUMIDOR-FINAL              000000000026000000000000000000000000000000000000000000000000000000000000000000000000000000000000000000000000000000000000PES00010000001 00000000000000000000000
201601300060000100000000000000023506000000000000000235069611111111111111111111CONDUMIDOR-FINAL              000000000040000000000000000000000000000000000000000000000000000000000000000000000000000000000000000000000000000000000000PES00010000001 00000000000000000000000
201601300060000100000000000000023507000000000000000235079611111111111111111111CONDUMIDOR-FINAL              000000000092500000000000000000000000000000000000000000000000000000000000000000000000000000000000000000000000000000000000PES00010000001 00000000000000000000000
201601300060000100000000000000023508000000000000000235089611111111111111111111CONDUMIDOR-FINAL              000000000022500000000000000000000000000000000000000000000000000000000000000000000000000000000000000000000000000000000000PES00010000001 00000000000000000000000
201601300060000100000000000000023509000000000000000235099611111111111111111111CONDUMIDOR-FINAL              000000000018500000000000000000000000000000000000000000000000000000000000000000000000000000000000000000000000000000000000PES00010000001 00000000000000000000000
201601300060000100000000000000023510000000000000000235109611111111111111111111CONDUMIDOR-FINAL              000000000092000000000000000000000000000000000000000000000000000000000000000000000000000000000000000000000000000000000000PES00010000001 00000000000000000000000
201601300060000100000000000000023511000000000000000235119611111111111111111111CONDUMIDOR-FINAL              000000000050400000000000000000000000000000000000000000000000000000000000000000000000000000000000000000000000000000000000PES00010000001 00000000000000000000000
201601300060000100000000000000023512000000000000000235129611111111111111111111CONDUMIDOR-FINAL              000000000007000000000000000000000000000000000000000000000000000000000000000000000000000000000000000000000000000000000000PES00010000001 00000000000000000000000
201601300060000100000000000000023513000000000000000235139611111111111111111111CONDUMIDOR-FINAL              000000000015000000000000000000000000000000000000000000000000000000000000000000000000000000000000000000000000000000000000PES00010000001 00000000000000000000000

