201510090010000800000000000000066932                8000000000030545726722SOCIEDAD-COOP-POPULAR-LIM-DE  000000000236347000000000000000000000000000000000000000000000000000000000000000000000000000000000000000000000000000000000PES00010000001000000000000000000000000000000000000000000                              000000000000000
201510130010000100000000000020150913                8000000000030639453975TELEFONICA-DE-ARG-SA          000000000086639000000000000000000000000000000000000000000000000000000000000000000000000000000000000000000000000000000000PES00010000001000000000000000000000000000000000000000000                              000000000000000
201510010010000200000000000000005236                8000000000030710405928CRISTAL-HOM-SRL               000000000564235000000000000000000000000000000000000000000000000000000000000000000000000000000000000000000000000000000000PES00010000001000000000000000000000000000000000000000000                              000000000000000
201510010010000500000000000000001924                8000000000030707309659ALMAZEN-IMPORT-SRL            000000001275649000000000000000000000000000000000000000000000000000000000000000000000000000000000000000000000000000000000PES00010000001000000000000000000000000000000000000000000                              000000000000000
201510010010000500000000000000001895                8000000000030707309659ALMAZEN-IMPORT-SRL            000000000000374000000000000000000000000000000000000000000000000000000000000000000000000000000000000000000000000000000000PES00010000001000000000000000000000000000000000000000000                              000000000000000
201510010010000500000000000000001879                8000000000030707309659ALMAZEN-IMPORT-SRL            000000000288803000000000000000000000000000000000000000000000000000000000000000000000000000000000000000000000000000000000PES00010000001000000000000000000000000000000000000000000                              000000000000000
201510010010000500000000000000001878                8000000000030707309659ALMAZEN-IMPORT-SRL            000000001548407000000000000000000000000000000000000000000000000000000000000000000000000000000000000000000000000000000000PES00010000001000000000000000000000000000000000000000000                              000000000000000
201510010010000500000000000000001877                8000000000030707309659ALMAZEN-IMPORT-SRL            000000001688591000000000000000000000000000000000000000000000000000000000000000000000000000000000000000000000000000000000PES00010000001000000000000000000000000000000000000000000                              000000000000000
201510030010000200000000000000000364                8000000000030709516864GENKO-SA                      000000000558759000000000000000000000000000000000000000000000000000000000000000000000000000000000000000000000000000000000PES00010000001000000000000000000000000000000000000000000                              000000000000000
201510030010000200000000000000002477                8000000000030708324716MAXI-CRISTAL-SRL              000000000644635000000000000000000000000000000000000000000000000000000000000000000000000000000000000000000000000000000000PES00010000001000000000000000000000000000000000000000000                              000000000000000
201510050010000100000000000000002152                8000000000023247772669JORGE-PAULOS-ANTUNES          000000000099005000000000000000000000000000000000000000000000000000000000000000000000000000000000000000000000000000000000PES00010000001000000000000000000000000000000000000000000                              000000000000000
201510050010000300000000000000002670                8000000000030711190895AUSTRAL-ALARMAS-SRL           000000000030250000000000000000000000000000000000000000000000000000000000000000000000000000000000000000000000000000000000PES00010000001000000000000000000000000000000000000000000                              000000000000000
201510050010000400000000000008049342                8000000000030657864427CAMUZZI-GAS-DEL-SUR           000000000018489000000000000000000000000000000000000000000000000000000000000000000000000000000000000000000000000000000000PES00010000001000000000000000000000000000000000000000000                              000000000000000
201510050010000400000000000000123853                8000000000030708926155TRANSPORTES-UNION-SA          000000000883292000000000000000000000000000000000000000000000000000000000000000000000000000000000000000000000000000000000PES00010000001000000000000000000000000000000000000000000                              000000000000000
201510050010000100000000000000002773                8000000000027342291517FLAVIA-ANNICCHIARICO          000000001055604000000000000000000000000000000000000000000000000000000000000000000000000000000000000000000000000000000000PES00010000001000000000000000000000000000000000000000000                              000000000000000
201510060010000200000000000000017757                8000000000033515641829SOIFER-HNOS-SA                000000000893459000000000000000000000000000000000000000000000000000000000000000000000000000000000000000000000000000000000PES00010000001000000000000000000000000000000000000000000                              000000000000000
201510060010000300000000000000000243                8000000000020222552134GUSTAVO-A-GARCIA              000000000450000000000000000000000000000000000000000000000000000000000000000000000000000000000000000000000000000000000000PES00010000001000000000000000000000000000000000000000000                              000000000000000
201510070010250600000000000008803543                8000000000030506730038SA-IMPORT-Y-EXPORT-DE-LA-PATAG000000000015265000000000000000000000000000000000000000000000000000000000000000000000000000000000000000000000000000000000PES00010000001000000000000000000000000000000000000000000                              000000000000000
201510080010002400000000000000001058                8000000000030670288613DISTRIBUIDORA-LOA-SA          000000000023631000000000000000000000000000000000000000000000000000000000000000000000000000000000000000000000000000000000PES00010000001000000000000000000000000000000000000000000                              000000000000000
201510080010000100000000000000005940                8000000000023148184429CLAUDIO-OMAR-ALVAREZ          000000000707124000000000000000000000000000000000000000000000000000000000000000000000000000000000000000000000000000000000PES00010000001000000000000000000000000000000000000000000                              000000000000000
201510080010000300000000000000012220                8000000000030587479407CERRO-NEVADO-SA               000000001246687000000000000000000000000000000000000000000000000000000000000000000000000000000000000000000000000000000000PES00010000001000000000000000000000000000000000000000000                              000000000000000
201510090010002100000000000000007617                8000000000030707454640EL-ESTANCO-SA                 000000000048250000000000000000000000000000000000000000000000000000000000000000000000000000000000000000000000000000000000PES00010000001000000000000000000000000000000000000000000                              000000000000000
201510150010000700000000000000013746                8000000000030710920067SEBSADA-SA                    000000004050112000000000000000000000000000000000000000000000000000000000000000000000000000000000000000000000000000000000PES00010000001000000000000000000000000000000000000000000                              000000000000000
201510160010000100000000000000000012                8000000000030714670618CONDOMINIO-DE-BERSAIS-CESAR-L 000000002662000000000000000000000000000000000000000000000000000000000000000000000000000000000000000000000000000000000000PES00010000001000000000000000000000000000000000000000000                              000000000000000
201510190010000400000000000000124476                8000000000030708926155TRANSPORTES-UNION-SA          000000001335679000000000000000000000000000000000000000000000000000000000000000000000000000000000000000000000000000000000PES00010000001000000000000000000000000000000000000000000                              000000000000000
201510190010000500000000000000008728                8000000000030711778302MDK-SRL                       000000001128785000000000000000000000000000000000000000000000000000000000000000000000000000000000000000000000000000000000PES00010000001000000000000000000000000000000000000000000                              000000000000000
201510190010000300000000000000006313                8000000000030710941854RUMAH-JAVA-SRL                000000001648988000000000000000000000000000000000000000000000000000000000000000000000000000000000000000000000000000000000PES00010000001000000000000000000000000000000000000000000                              000000000000000
201510190010002600000000000000156331                8000000000033707259839DESING-Y-STOLE-DE-LA-DOLCE-SRL000000000223976000000000000000000000000000000000000000000000000000000000000000000000000000000000000000000000000000000000PES00010000001000000000000000000000000000000000000000000                              000000000000000
201510190010002600000000000000156332                8000000000033707259839DESING-Y-STOLE-DE-LA-DOLCE-SRL000000000089424000000000000000000000000000000000000000000000000000000000000000000000000000000000000000000000000000000000PES00010000001000000000000000000000000000000000000000000                              000000000000000
201510190010002600000000000000156333                8000000000033707259839DESING-Y-STOLE-DE-LA-DOLCE-SRL000000000073491000000000000000000000000000000000000000000000000000000000000000000000000000000000000000000000000000000000PES00010000001000000000000000000000000000000000000000000                              000000000000000
201510190010002600000000000000156069                8000000000033707259839DESING-Y-STOLE-DE-LA-DOLCE-SRL000000000112017000000000000000000000000000000000000000000000000000000000000000000000000000000000000000000000000000000000PES00010000001000000000000000000000000000000000000000000                              000000000000000
201510190010002600000000000000156071                8000000000033707259839DESING-Y-STOLE-DE-LA-DOLCE-SRL000000000189709000000000000000000000000000000000000000000000000000000000000000000000000000000000000000000000000000000000PES00010000001000000000000000000000000000000000000000000                              000000000000000
201510200010002600000000000000156072                8000000000033707259839DESING-Y-STOLE-DE-LA-DOLCE-SRL000000000184796000000000000000000000000000000000000000000000000000000000000000000000000000000000000000000000000000000000PES00010000001000000000000000000000000000000000000000000                              000000000000000
201510200010002600000000000000156094                8000000000033707259839DESING-Y-STOLE-DE-LA-DOLCE-SRL000000000137831000000000000000000000000000000000000000000000000000000000000000000000000000000000000000000000000000000000PES00010000001000000000000000000000000000000000000000000                              000000000000000
201510220010000500000000000000008813                8000000000030711778302MDK-SRL                       000000000502392000000000000000000000000000000000000000000000000000000000000000000000000000000000000000000000000000000000PES00010000001000000000000000000000000000000000000000000                              000000000000000
201510220010000300000000000000001729                8000000000030707022465GONZALO-QUINTANILLA           000000000256556000000000000000000000000000000000000000000000000000000000000000000000000000000000000000000000000000000000PES00010000001000000000000000000000000000000000000000000                              000000000000000
201510220010000300000000000000001728                8000000000030707022465GONZALO-QUINTANILLA           000000001226312000000000000000000000000000000000000000000000000000000000000000000000000000000000000000000000000000000000PES00010000001000000000000000000000000000000000000000000                              000000000000000
201510230010009800000000000000008091                8000000000030709007161AXEN-SRL                      000000001378381000000000000000000000000000000000000000000000000000000000000000000000000000000000000000000000000000000000PES00010000001000000000000000000000000000000000000000000                              000000000000000
201510240010000100000000000000004680                8000000000030709387584CONCEPTOMAREA-DE-GAMARRA-SRL  000000000734107000000000000000000000000000000000000000000000000000000000000000000000000000000000000000000000000000000000PES00010000001000000000000000000000000000000000000000000                              000000000000000
201510240010000100000000000000004681                8000000000030709387584CONCEPTOMAREA-DE-GAMARRA-SRL  000000000321134000000000000000000000000000000000000000000000000000000000000000000000000000000000000000000000000000000000PES00010000001000000000000000000000000000000000000000000                              000000000000000
201510260010000300000000000000009983                8000000000030710215096PELTRINA-SA                   000000000738826000000000000000000000000000000000000000000000000000000000000000000000000000000000000000000000000000000000PES00010000001000000000000000000000000000000000000000000                              000000000000000
201510270010000200000000000000000660                8000000000020161974847FABIAN-GERONIMO               000000000239795000000000000000000000000000000000000000000000000000000000000000000000000000000000000000000000000000000000PES00010000001000000000000000000000000000000000000000000                              000000000000000
201510270010000400000000000000004118                8000000000030707597956COMPANIA-DE-PAPELES-SA        000000000932707000000000000000000000000000000000000000000000000000000000000000000000000000000000000000000000000000000000PES00010000001000000000000000000000000000000000000000000                              000000000000000
201510270010000400000000000000004119                8000000000030707597956COMPANIA-DE-PAPELES-SA        000000001318126000000000000000000000000000000000000000000000000000000000000000000000000000000000000000000000000000000000PES00010000001000000000000000000000000000000000000000000                              000000000000000
201510270010000400000000000000004120                8000000000030707597956COMPANIA-DE-PAPELES-SA        000000000198367000000000000000000000000000000000000000000000000000000000000000000000000000000000000000000000000000000000PES00010000001000000000000000000000000000000000000000000                              000000000000000
201510270010000400000000000000004121                8000000000030707597956COMPANIA-DE-PAPELES-SA        000000000793276000000000000000000000000000000000000000000000000000000000000000000000000000000000000000000000000000000000PES00010000001000000000000000000000000000000000000000000                              000000000000000
201510280110000100000000000000000010                8000000000027246007271MOREIRA-MARIANA               000000003450000000000000000000000000000000000000000000000000000000000000000000000000000000000000000000000000000000000000PES00010000000000000000000000000000000000000000000000000                              000000000000000
201510290010000300000000000000021130                8000000000030708138645DECORMESA-SA                  000000004731475000000000000000000000000000000000000000000000000000000000000000000000000000000000000000000000000000000000PES00010000001000000000000000000000000000000000000000000                              000000000000000
201510300010000400000000000000000589                8000000000020126715111ALEJANDRO-LUIS-BUSTOS         000000000063079000000000000000000000000000000000000000000000000000000000000000000000000000000000000000000000000000000000PES00010000001000000000000000000000000000000000000000000                              000000000000000
201510310010000400000000000000000015                8000000000027142827285ANA-BIBIANA-AGUILAR-GARCIA    000000000034000000000000000000000000000000000000000000000000000000000000000000000000000000000000000000000000000000000000PES00010000001000000000000000000000000000000000000000000                              000000000000000
201510310010000200000000000000005324                8000000000030710405928CRISTAL-HOM-SRL               000000000871841000000000000000000000000000000000000000000000000000000000000000000000000000000000000000000000000000000000PES00010000001000000000000000000000000000000000000000000                              000000000000000
201510300010000400000000000000124863                8000000000030708926155TRANSPORTES-UNION-SA          000000001533596000000000000000000000000000000000000000000000000000000000000000000000000000000000000000000000000000000000PES00010000001000000000000000000000000000000000000000000                              000000000000000
