201509020010000100000000000000001011000000000000000010118000000000020102723695ALTUNA-JORGE-FRANCISCO        000000000069500000000000000000000000000000000000000000000000000000000000000000000000000000000000000000000000000000000000PES00010000001 00000000000000000000000
201509030010000100000000000000001012000000000000000010128000000000033691943289-SENDA-TEAM-SRL               000000001380000000000000000000000000000000000000000000000000000000000000000000000000000000000000000000000000000000000000PES00010000001 00000000000000000000000
201509030010000100000000000000001013000000000000000010138000000000030629248052RIGEL-SRL                     000000000630000000000000000000000000000000000000000000000000000000000000000000000000000000000000000000000000000000000000PES00010000001 00000000000000000000000
201509030010000100000000000000001014000000000000000010148000000000030629248052RIGEL-SRL                     000000000029000000000000000000000000000000000000000000000000000000000000000000000000000000000000000000000000000000000000PES00010000001 00000000000000000000000
201509030010000100000000000000001015000000000000000010158000000000027340321575SAAVEDRA-FLORENCIA-ELISABET   000000000088300000000000000000000000000000000000000000000000000000000000000000000000000000000000000000000000000000000000PES00010000001 00000000000000000000000
201509030010000100000000000000001016000000000000000010168000000000020135642801-BARRIONUEVO-JULIO            000000000043500000000000000000000000000000000000000000000000000000000000000000000000000000000000000000000000000000000000PES00010000001 00000000000000000000000
201509040010000100000000000000001017000000000000000010178000000000027250110745-CRESPO-GABRIELA              000000000119500000000000000000000000000000000000000000000000000000000000000000000000000000000000000000000000000000000000PES00010000001 00000000000000000000000
201509040010000100000000000000001018000000000000000010188000000000030711006792-30-DE-NOVIEMBRE-SRL          000000000208000000000000000000000000000000000000000000000000000000000000000000000000000000000000000000000000000000000000PES00010000001 00000000000000000000000
201509070010000100000000000000001019000000000000000010198000000000020078884275-STEMPKOWSKI-LEONADO-JAVIER   000000000067500000000000000000000000000000000000000000000000000000000000000000000000000000000000000000000000000000000000PES00010000001 00000000000000000000000
201509080010000100000000000000001020000000000000000010208000000000030710805802-VICENTE-ALVAREZ-SA           000000000045500000000000000000000000000000000000000000000000000000000000000000000000000000000000000000000000000000000000PES00010000001 00000000000000000000000
201509100010000100000000000000001021000000000000000010218000000000023117308529SANCHES-OMAR                  000000000030000000000000000000000000000000000000000000000000000000000000000000000000000000000000000000000000000000000000PES00010000001 00000000000000000000000
201509100010000100000000000000001022000000000000000010228000000000020102723695ALTUNA-JORGE-FRANCISCO        000000000058500000000000000000000000000000000000000000000000000000000000000000000000000000000000000000000000000000000000PES00010000001 00000000000000000000000
201509110010000100000000000000001023000000000000000010238000000000027064387389YAPURA-MARIA-LUISA            000000000142100000000000000000000000000000000000000000000000000000000000000000000000000000000000000000000000000000000000PES00010000001 00000000000000000000000
201509110010000100000000000000001024000000000000000010248000000000030711225761NELSON-OLIVA-SRL              000000000310000000000000000000000000000000000000000000000000000000000000000000000000000000000000000000000000000000000000PES00010000001 00000000000000000000000
201509120010000100000000000000001025000000000000000010258000000000033708101899-MAXICON-SRL                  000000000125000000000000000000000000000000000000000000000000000000000000000000000000000000000000000000000000000000000000PES00010000001 00000000000000000000000
201509140010000100000000000000001026000000000000000010268000000000030710835248HIDRAULICA-MDK-SRL            000000000110300000000000000000000000000000000000000000000000000000000000000000000000000000000000000000000000000000000000PES00010000001 00000000000000000000000
201509170010000100000000000000001027000000000000000010278000000000030714643319MADROAL-MONICA-Y-GROSHAUS-VALE000000000125000000000000000000000000000000000000000000000000000000000000000000000000000000000000000000000000000000000000PES00010000001 00000000000000000000000
201509190010000100000000000000001028000000000000000010288000000000027178872449ALICIA-GONGORA                000000000524400000000000000000000000000000000000000000000000000000000000000000000000000000000000000000000000000000000000PES00010000001 00000000000000000000000
201509190010000100000000000000001029000000000000000010298000000000027250110745-CRESPO-GABRIELA              000000000042000000000000000000000000000000000000000000000000000000000000000000000000000000000000000000000000000000000000PES00010000001 00000000000000000000000
201509210010000100000000000000001030000000000000000010308000000000020202353577-LOZANO-JOSE                  000000000053500000000000000000000000000000000000000000000000000000000000000000000000000000000000000000000000000000000000PES00010000001 00000000000000000000000
201509210010000100000000000000001031000000000000000010318000000000020202353577-LOZANO-JOSE                  000000000016000000000000000000000000000000000000000000000000000000000000000000000000000000000000000000000000000000000000PES00010000001 00000000000000000000000
201509220010000100000000000000001032000000000000000010328000000000020270200649ROBERTSON-ALEJANDRO           000000000052000000000000000000000000000000000000000000000000000000000000000000000000000000000000000000000000000000000000PES00010000001 00000000000000000000000
201509220010000100000000000000001033000000000000000010338000000000027280759134IBARRA-MARIA-VICTORIA         000000000070500000000000000000000000000000000000000000000000000000000000000000000000000000000000000000000000000000000000PES00010000001 00000000000000000000000
201509240010000100000000000000001034000000000000000010348000000000030714643319MADROAL-MONICA-Y-GROSHAUS-VALE000000000126000000000000000000000000000000000000000000000000000000000000000000000000000000000000000000000000000000000000PES00010000001 00000000000000000000000
201509250010000100000000000000001035000000000000000010358000000000030521679391BERNARDO-DELGADO-E-HIJOS-SRL  000000000123000000000000000000000000000000000000000000000000000000000000000000000000000000000000000000000000000000000000PES00010000001 00000000000000000000000
201509260010000100000000000000001036000000000000000010368000000000020171295425JORGE-SAAVEDRA                000000000212000000000000000000000000000000000000000000000000000000000000000000000000000000000000000000000000000000000000PES00010000001 00000000000000000000000
201509260010000100000000000000001037000000000000000010378000000000020171295425JORGE-SAAVEDRA                000000000210000000000000000000000000000000000000000000000000000000000000000000000000000000000000000000000000000000000000PES00010000001 00000000000000000000000
201509290010000100000000000000001038000000000000000010388000000000030648698743NUEZ-CARLOS-Y-NUEZ-ANTOIO     000000000079000000000000000000000000000000000000000000000000000000000000000000000000000000000000000000000000000000000000PES00010000001 00000000000000000000000
201509300010000100000000000000001039000000000000000010398000000000030712027807-DIAGNOSTICO-DIGITAL-SRL      000000000046000000000000000000000000000000000000000000000000000000000000000000000000000000000000000000000000000000000000PES00010000001 00000000000000000000000
201509290060000100000000000000013685000000000000000136858000000000030709241008MINISTERIO-DE-HIDROCARBUROS   000000000540500000000000000000000000000000000000000000000000000000000000000000000000000000000000000000000000000000000000PES00010000001 00000000000000000000000
201509010060000100000000000000021004000000000000000210049611111111111111111111CONS-FINAL                    000000000011000000000000000000000000000000000000000000000000000000000000000000000000000000000000000000000000000000000000PES00010000001 00000000000000000000000
201509010060000100000000000000021005000000000000000210059611111111111111111111CONS-FINAL                    000000000048500000000000000000000000000000000000000000000000000000000000000000000000000000000000000000000000000000000000PES00010000001 00000000000000000000000
201509010060000100000000000000021006000000000000000210069611111111111111111111CONS-FINAL                    000000000042000000000000000000000000000000000000000000000000000000000000000000000000000000000000000000000000000000000000PES00010000001 00000000000000000000000
201509010060000100000000000000021007000000000000000210079611111111111111111111CONS-FINAL                    000000000034000000000000000000000000000000000000000000000000000000000000000000000000000000000000000000000000000000000000PES00010000001 00000000000000000000000
201509010060000100000000000000021008000000000000000210089611111111111111111111CONS-FINAL                    000000000021500000000000000000000000000000000000000000000000000000000000000000000000000000000000000000000000000000000000PES00010000001 00000000000000000000000
201509010060000100000000000000021009000000000000000210099611111111111111111111CONS-FINAL                    000000000014000000000000000000000000000000000000000000000000000000000000000000000000000000000000000000000000000000000000PES00010000001 00000000000000000000000
201509010060000100000000000000021010000000000000000210109611111111111111111111CONS-FINAL                    000000000067000000000000000000000000000000000000000000000000000000000000000000000000000000000000000000000000000000000000PES00010000001 00000000000000000000000
201509010060000100000000000000021011000000000000000210119611111111111111111111CONS-FINAL                    000000000046000000000000000000000000000000000000000000000000000000000000000000000000000000000000000000000000000000000000PES00010000001 00000000000000000000000
201509010060000100000000000000021012000000000000000210129611111111111111111111CONS-FINAL                    000000000065000000000000000000000000000000000000000000000000000000000000000000000000000000000000000000000000000000000000PES00010000001 00000000000000000000000
201509010060000100000000000000021013000000000000000210139611111111111111111111CONS-FINAL                    000000000049500000000000000000000000000000000000000000000000000000000000000000000000000000000000000000000000000000000000PES00010000001 00000000000000000000000
201509010060000100000000000000021014000000000000000210149611111111111111111111CONS-FINAL                    000000000055500000000000000000000000000000000000000000000000000000000000000000000000000000000000000000000000000000000000PES00010000001 00000000000000000000000
201509010060000100000000000000021015000000000000000210159611111111111111111111CONS-FINAL                    000000000063500000000000000000000000000000000000000000000000000000000000000000000000000000000000000000000000000000000000PES00010000001 00000000000000000000000
201509010060000100000000000000021016000000000000000210169611111111111111111111CONS-FINAL                    000000000038000000000000000000000000000000000000000000000000000000000000000000000000000000000000000000000000000000000000PES00010000001 00000000000000000000000
201509010060000100000000000000021017000000000000000210179611111111111111111111CONS-FINAL                    000000000039500000000000000000000000000000000000000000000000000000000000000000000000000000000000000000000000000000000000PES00010000001 00000000000000000000000
201509020060000100000000000000021018000000000000000210189611111111111111111111CONS-FINAL                    000000000012500000000000000000000000000000000000000000000000000000000000000000000000000000000000000000000000000000000000PES00010000001 00000000000000000000000
201509020060000100000000000000021019000000000000000210199611111111111111111111CONS-FINAL                    000000000101000000000000000000000000000000000000000000000000000000000000000000000000000000000000000000000000000000000000PES00010000001 00000000000000000000000
201509020060000100000000000000021020000000000000000210209611111111111111111111CONS-FINAL                    000000000029800000000000000000000000000000000000000000000000000000000000000000000000000000000000000000000000000000000000PES00010000001 00000000000000000000000
201509020060000100000000000000021021000000000000000210219611111111111111111111CONS-FINAL                    000000000012000000000000000000000000000000000000000000000000000000000000000000000000000000000000000000000000000000000000PES00010000001 00000000000000000000000
201509020060000100000000000000021022000000000000000210229611111111111111111111CONS-FINAL                    000000000077000000000000000000000000000000000000000000000000000000000000000000000000000000000000000000000000000000000000PES00010000001 00000000000000000000000
201509020060000100000000000000021023000000000000000210239611111111111111111111CONS-FINAL                    000000000062000000000000000000000000000000000000000000000000000000000000000000000000000000000000000000000000000000000000PES00010000001 00000000000000000000000
201509020060000100000000000000021024000000000000000210249611111111111111111111CONS-FINAL                    000000000056500000000000000000000000000000000000000000000000000000000000000000000000000000000000000000000000000000000000PES00010000001 00000000000000000000000
201509020060000100000000000000021025000000000000000210259611111111111111111111CONS-FINAL                    000000000014600000000000000000000000000000000000000000000000000000000000000000000000000000000000000000000000000000000000PES00010000001 00000000000000000000000
201509020060000100000000000000021026000000000000000210269611111111111111111111CONS-FINAL                    000000000043000000000000000000000000000000000000000000000000000000000000000000000000000000000000000000000000000000000000PES00010000001 00000000000000000000000
201509020060000100000000000000021027000000000000000210279611111111111111111111CONS-FINAL                    000000000147000000000000000000000000000000000000000000000000000000000000000000000000000000000000000000000000000000000000PES00010000001 00000000000000000000000
201509020060000100000000000000021028000000000000000210289611111111111111111111CONS-FINAL                    000000000076500000000000000000000000000000000000000000000000000000000000000000000000000000000000000000000000000000000000PES00010000001 00000000000000000000000
201509020060000100000000000000021029000000000000000210299611111111111111111111CONS-FINAL                    000000000008000000000000000000000000000000000000000000000000000000000000000000000000000000000000000000000000000000000000PES00010000001 00000000000000000000000
201509020060000100000000000000021030000000000000000210309611111111111111111111CONS-FINAL                    000000000159000000000000000000000000000000000000000000000000000000000000000000000000000000000000000000000000000000000000PES00010000001 00000000000000000000000
201509020060000100000000000000021031000000000000000210319611111111111111111111CONS-FINAL                    000000000021500000000000000000000000000000000000000000000000000000000000000000000000000000000000000000000000000000000000PES00010000001 00000000000000000000000
201509020060000100000000000000021032000000000000000210329611111111111111111111CONS-FINAL                    000000000076500000000000000000000000000000000000000000000000000000000000000000000000000000000000000000000000000000000000PES00010000001 00000000000000000000000
201509020060000100000000000000021033000000000000000210339611111111111111111111CONS-FINAL                    000000000018000000000000000000000000000000000000000000000000000000000000000000000000000000000000000000000000000000000000PES00010000001 00000000000000000000000
201509020060000100000000000000021034000000000000000210349611111111111111111111CONS-FINAL                    000000000046500000000000000000000000000000000000000000000000000000000000000000000000000000000000000000000000000000000000PES00010000001 00000000000000000000000
201509020060000100000000000000021035000000000000000210359611111111111111111111CONS-FINAL                    000000000023000000000000000000000000000000000000000000000000000000000000000000000000000000000000000000000000000000000000PES00010000001 00000000000000000000000
201509030060000100000000000000021036000000000000000210369611111111111111111111CONS-FINAL                    000000000062000000000000000000000000000000000000000000000000000000000000000000000000000000000000000000000000000000000000PES00010000001 00000000000000000000000
201509030060000100000000000000021037000000000000000210379611111111111111111111CONS-FINAL                    000000000072000000000000000000000000000000000000000000000000000000000000000000000000000000000000000000000000000000000000PES00010000001 00000000000000000000000
201509030060000100000000000000021038000000000000000210389611111111111111111111CONS-FINAL                    000000000031500000000000000000000000000000000000000000000000000000000000000000000000000000000000000000000000000000000000PES00010000001 00000000000000000000000
201509030060000100000000000000021039000000000000000210399611111111111111111111CONS-FINAL                    000000000066500000000000000000000000000000000000000000000000000000000000000000000000000000000000000000000000000000000000PES00010000001 00000000000000000000000
201509030060000100000000000000021040000000000000000210409611111111111111111111CONS-FINAL                    000000000062000000000000000000000000000000000000000000000000000000000000000000000000000000000000000000000000000000000000PES00010000001 00000000000000000000000
201509030060000100000000000000021041000000000000000210419611111111111111111111CONS-FINAL                    000000000037500000000000000000000000000000000000000000000000000000000000000000000000000000000000000000000000000000000000PES00010000001 00000000000000000000000
201509030060000100000000000000021042000000000000000210429611111111111111111111CONS-FINAL                    000000000014000000000000000000000000000000000000000000000000000000000000000000000000000000000000000000000000000000000000PES00010000001 00000000000000000000000
201509030060000100000000000000021043000000000000000210439611111111111111111111CONS-FINAL                    000000000030000000000000000000000000000000000000000000000000000000000000000000000000000000000000000000000000000000000000PES00010000001 00000000000000000000000
201509030060000100000000000000021044000000000000000210449611111111111111111111CONS-FINAL                    000000000036500000000000000000000000000000000000000000000000000000000000000000000000000000000000000000000000000000000000PES00010000001 00000000000000000000000
201509030060000100000000000000021045000000000000000210459611111111111111111111CONS-FINAL                    000000000073000000000000000000000000000000000000000000000000000000000000000000000000000000000000000000000000000000000000PES00010000001 00000000000000000000000
201509030060000100000000000000021046000000000000000210469611111111111111111111CONS-FINAL                    000000000006000000000000000000000000000000000000000000000000000000000000000000000000000000000000000000000000000000000000PES00010000001 00000000000000000000000
201509030060000100000000000000021047000000000000000210479611111111111111111111CONS-FINAL                    000000000082500000000000000000000000000000000000000000000000000000000000000000000000000000000000000000000000000000000000PES00010000001 00000000000000000000000
201509030060000100000000000000021048000000000000000210489611111111111111111111CONS-FINAL                    000000000042000000000000000000000000000000000000000000000000000000000000000000000000000000000000000000000000000000000000PES00010000001 00000000000000000000000
201509030060000100000000000000021049000000000000000210499611111111111111111111CONS-FINAL                    000000000056500000000000000000000000000000000000000000000000000000000000000000000000000000000000000000000000000000000000PES00010000001 00000000000000000000000
201509030060000100000000000000021050000000000000000210509611111111111111111111CONS-FINAL                    000000000099000000000000000000000000000000000000000000000000000000000000000000000000000000000000000000000000000000000000PES00010000001 00000000000000000000000
201509030060000100000000000000021051000000000000000210519611111111111111111111CONS-FINAL                    000000000036000000000000000000000000000000000000000000000000000000000000000000000000000000000000000000000000000000000000PES00010000001 00000000000000000000000
201509040060000100000000000000021052000000000000000210529611111111111111111111CONS-FINAL                    000000000033000000000000000000000000000000000000000000000000000000000000000000000000000000000000000000000000000000000000PES00010000001 00000000000000000000000
201509040060000100000000000000021053000000000000000210539611111111111111111111CONS-FINAL                    000000000078000000000000000000000000000000000000000000000000000000000000000000000000000000000000000000000000000000000000PES00010000001 00000000000000000000000
201509040060000100000000000000021054000000000000000210549611111111111111111111CONS-FINAL                    000000000109100000000000000000000000000000000000000000000000000000000000000000000000000000000000000000000000000000000000PES00010000001 00000000000000000000000
201509040060000100000000000000021055000000000000000210559611111111111111111111CONS-FINAL                    000000000078000000000000000000000000000000000000000000000000000000000000000000000000000000000000000000000000000000000000PES00010000001 00000000000000000000000
201509040060000100000000000000021056000000000000000210569611111111111111111111CONS-FINAL                    000000000054000000000000000000000000000000000000000000000000000000000000000000000000000000000000000000000000000000000000PES00010000001 00000000000000000000000
201509040060000100000000000000021057000000000000000210579611111111111111111111CONS-FINAL                    000000000037500000000000000000000000000000000000000000000000000000000000000000000000000000000000000000000000000000000000PES00010000001 00000000000000000000000
201509040060000100000000000000021058000000000000000210589611111111111111111111CONS-FINAL                    000000000021500000000000000000000000000000000000000000000000000000000000000000000000000000000000000000000000000000000000PES00010000001 00000000000000000000000
201509040060000100000000000000021059000000000000000210599611111111111111111111CONS-FINAL                    000000000091000000000000000000000000000000000000000000000000000000000000000000000000000000000000000000000000000000000000PES00010000001 00000000000000000000000
201509040060000100000000000000021060000000000000000210609611111111111111111111CONS-FINAL                    000000000038000000000000000000000000000000000000000000000000000000000000000000000000000000000000000000000000000000000000PES00010000001 00000000000000000000000
201509040060000100000000000000021061000000000000000210619611111111111111111111CONS-FINAL                    000000000057500000000000000000000000000000000000000000000000000000000000000000000000000000000000000000000000000000000000PES00010000001 00000000000000000000000
201509040060000100000000000000021063000000000000000210639611111111111111111111CONS-FINAL                    000000000009500000000000000000000000000000000000000000000000000000000000000000000000000000000000000000000000000000000000PES00010000001 00000000000000000000000
201509040060000100000000000000021064000000000000000210649611111111111111111111CONS-FINAL                    000000000020500000000000000000000000000000000000000000000000000000000000000000000000000000000000000000000000000000000000PES00010000001 00000000000000000000000
201509040060000100000000000000021065000000000000000210659611111111111111111111CONS-FINAL                    000000000035000000000000000000000000000000000000000000000000000000000000000000000000000000000000000000000000000000000000PES00010000001 00000000000000000000000
201509040060000100000000000000021066000000000000000210669611111111111111111111CONS-FINAL                    000000000073000000000000000000000000000000000000000000000000000000000000000000000000000000000000000000000000000000000000PES00010000001 00000000000000000000000
201509040060000100000000000000021067000000000000000210679611111111111111111111CONS-FINAL                    000000000066000000000000000000000000000000000000000000000000000000000000000000000000000000000000000000000000000000000000PES00010000001 00000000000000000000000
201509040060000100000000000000021068000000000000000210689611111111111111111111CONS-FINAL                    000000000015000000000000000000000000000000000000000000000000000000000000000000000000000000000000000000000000000000000000PES00010000001 00000000000000000000000
201509040060000100000000000000021069000000000000000210699611111111111111111111CONS-FINAL                    000000000027500000000000000000000000000000000000000000000000000000000000000000000000000000000000000000000000000000000000PES00010000001 00000000000000000000000
201509040060000100000000000000021070000000000000000210709611111111111111111111CONS-FINAL                    000000000576000000000000000000000000000000000000000000000000000000000000000000000000000000000000000000000000000000000000PES00010000001 00000000000000000000000
201509040060000100000000000000021071000000000000000210719611111111111111111111CONS-FINAL                    000000000031500000000000000000000000000000000000000000000000000000000000000000000000000000000000000000000000000000000000PES00010000001 00000000000000000000000
201509040060000100000000000000021072000000000000000210729611111111111111111111CONS-FINAL                    000000000121500000000000000000000000000000000000000000000000000000000000000000000000000000000000000000000000000000000000PES00010000001 00000000000000000000000
201509040060000100000000000000021073000000000000000210739611111111111111111111CONS-FINAL                    000000000023000000000000000000000000000000000000000000000000000000000000000000000000000000000000000000000000000000000000PES00010000001 00000000000000000000000
201509040060000100000000000000021074000000000000000210749611111111111111111111CONS-FINAL                    000000000083000000000000000000000000000000000000000000000000000000000000000000000000000000000000000000000000000000000000PES00010000001 00000000000000000000000
201509040060000100000000000000021075000000000000000210759611111111111111111111CONS-FINAL                    000000000019500000000000000000000000000000000000000000000000000000000000000000000000000000000000000000000000000000000000PES00010000001 00000000000000000000000
201509040060000100000000000000021076000000000000000210769611111111111111111111CONS-FINAL                    000000000032000000000000000000000000000000000000000000000000000000000000000000000000000000000000000000000000000000000000PES00010000001 00000000000000000000000
201509050060000100000000000000021077000000000000000210779611111111111111111111CONS-FINAL                    000000000017700000000000000000000000000000000000000000000000000000000000000000000000000000000000000000000000000000000000PES00010000001 00000000000000000000000
201509050060000100000000000000021078000000000000000210789611111111111111111111CONS-FINAL                    000000000015000000000000000000000000000000000000000000000000000000000000000000000000000000000000000000000000000000000000PES00010000001 00000000000000000000000
201509050060000100000000000000021079000000000000000210799611111111111111111111CONS-FINAL                    000000000075500000000000000000000000000000000000000000000000000000000000000000000000000000000000000000000000000000000000PES00010000001 00000000000000000000000
201509050060000100000000000000021080000000000000000210809611111111111111111111CONS-FINAL                    000000000030800000000000000000000000000000000000000000000000000000000000000000000000000000000000000000000000000000000000PES00010000001 00000000000000000000000
201509050060000100000000000000021081000000000000000210819611111111111111111111CONS-FINAL                    000000000022500000000000000000000000000000000000000000000000000000000000000000000000000000000000000000000000000000000000PES00010000001 00000000000000000000000
201509050060000100000000000000021082000000000000000210829611111111111111111111CONS-FINAL                    000000000030000000000000000000000000000000000000000000000000000000000000000000000000000000000000000000000000000000000000PES00010000001 00000000000000000000000
201509050060000100000000000000021083000000000000000210839611111111111111111111CONS-FINAL                    000000000083000000000000000000000000000000000000000000000000000000000000000000000000000000000000000000000000000000000000PES00010000001 00000000000000000000000
201509050060000100000000000000021084000000000000000210849611111111111111111111CONS-FINAL                    000000000039800000000000000000000000000000000000000000000000000000000000000000000000000000000000000000000000000000000000PES00010000001 00000000000000000000000
201509050060000100000000000000021085000000000000000210859611111111111111111111CONS-FINAL                    000000000023000000000000000000000000000000000000000000000000000000000000000000000000000000000000000000000000000000000000PES00010000001 00000000000000000000000
201509050060000100000000000000021086000000000000000210869611111111111111111111CONS-FINAL                    000000000037500000000000000000000000000000000000000000000000000000000000000000000000000000000000000000000000000000000000PES00010000001 00000000000000000000000
201509050060000100000000000000021087000000000000000210879611111111111111111111CONS-FINAL                    000000000024000000000000000000000000000000000000000000000000000000000000000000000000000000000000000000000000000000000000PES00010000001 00000000000000000000000
201509050060000100000000000000021088000000000000000210889611111111111111111111CONS-FINAL                    000000000018000000000000000000000000000000000000000000000000000000000000000000000000000000000000000000000000000000000000PES00010000001 00000000000000000000000
201509050060000100000000000000021089000000000000000210899611111111111111111111CONS-FINAL                    000000000112500000000000000000000000000000000000000000000000000000000000000000000000000000000000000000000000000000000000PES00010000001 00000000000000000000000
201509050060000100000000000000021090000000000000000210909611111111111111111111CONS-FINAL                    000000000068300000000000000000000000000000000000000000000000000000000000000000000000000000000000000000000000000000000000PES00010000001 00000000000000000000000
201509050060000100000000000000021091000000000000000210919611111111111111111111CONS-FINAL                    000000000049000000000000000000000000000000000000000000000000000000000000000000000000000000000000000000000000000000000000PES00010000001 00000000000000000000000
201509050060000100000000000000021092000000000000000210929611111111111111111111CONS-FINAL                    000000000143500000000000000000000000000000000000000000000000000000000000000000000000000000000000000000000000000000000000PES00010000001 00000000000000000000000
201509050060000100000000000000021093000000000000000210939611111111111111111111CONS-FINAL                    000000000085500000000000000000000000000000000000000000000000000000000000000000000000000000000000000000000000000000000000PES00010000001 00000000000000000000000
201509050060000100000000000000021094000000000000000210949611111111111111111111CONS-FINAL                    000000000039000000000000000000000000000000000000000000000000000000000000000000000000000000000000000000000000000000000000PES00010000001 00000000000000000000000
201509050060000100000000000000021095000000000000000210959611111111111111111111CONS-FINAL                    000000000049500000000000000000000000000000000000000000000000000000000000000000000000000000000000000000000000000000000000PES00010000001 00000000000000000000000
201509050060000100000000000000021096000000000000000210969611111111111111111111CONS-FINAL                    000000000025500000000000000000000000000000000000000000000000000000000000000000000000000000000000000000000000000000000000PES00010000001 00000000000000000000000
201509050060000100000000000000021097000000000000000210979611111111111111111111CONS-FINAL                    000000000034500000000000000000000000000000000000000000000000000000000000000000000000000000000000000000000000000000000000PES00010000001 00000000000000000000000
201509050060000100000000000000021098000000000000000210989611111111111111111111CONS-FINAL                    000000000013000000000000000000000000000000000000000000000000000000000000000000000000000000000000000000000000000000000000PES00010000001 00000000000000000000000
201509050060000100000000000000021100000000000000000211009611111111111111111111CONS-FINAL                    000000000064000000000000000000000000000000000000000000000000000000000000000000000000000000000000000000000000000000000000PES00010000001 00000000000000000000000
201509050060000100000000000000021101000000000000000211019611111111111111111111CONS-FINAL                    000000000017500000000000000000000000000000000000000000000000000000000000000000000000000000000000000000000000000000000000PES00010000001 00000000000000000000000
201509050060000100000000000000021102000000000000000211029611111111111111111111CONS-FINAL                    000000000045500000000000000000000000000000000000000000000000000000000000000000000000000000000000000000000000000000000000PES00010000001 00000000000000000000000
201509050060000100000000000000021103000000000000000211039611111111111111111111CONS-FINAL                    000000000038800000000000000000000000000000000000000000000000000000000000000000000000000000000000000000000000000000000000PES00010000001 00000000000000000000000
201509050060000100000000000000021104000000000000000211049611111111111111111111CONS-FINAL                    000000000018800000000000000000000000000000000000000000000000000000000000000000000000000000000000000000000000000000000000PES00010000001 00000000000000000000000
201509070060000100000000000000021106000000000000000211069611111111111111111111CONS-FINAL                    000000000107500000000000000000000000000000000000000000000000000000000000000000000000000000000000000000000000000000000000PES00010000001 00000000000000000000000
201509070060000100000000000000021107000000000000000211079611111111111111111111CONS-FINAL                    000000000004800000000000000000000000000000000000000000000000000000000000000000000000000000000000000000000000000000000000PES00010000001 00000000000000000000000
201509070060000100000000000000021108000000000000000211089611111111111111111111CONS-FINAL                    000000000022500000000000000000000000000000000000000000000000000000000000000000000000000000000000000000000000000000000000PES00010000001 00000000000000000000000
201509070060000100000000000000021109000000000000000211099611111111111111111111CONS-FINAL                    000000000075000000000000000000000000000000000000000000000000000000000000000000000000000000000000000000000000000000000000PES00010000001 00000000000000000000000
201509070060000100000000000000021110000000000000000211109611111111111111111111CONS-FINAL                    000000000057500000000000000000000000000000000000000000000000000000000000000000000000000000000000000000000000000000000000PES00010000001 00000000000000000000000
201509070060000100000000000000021111000000000000000211119611111111111111111111CONS-FINAL                    000000000083000000000000000000000000000000000000000000000000000000000000000000000000000000000000000000000000000000000000PES00010000001 00000000000000000000000
201509070060000100000000000000021112000000000000000211129611111111111111111111CONS-FINAL                    000000000129700000000000000000000000000000000000000000000000000000000000000000000000000000000000000000000000000000000000PES00010000001 00000000000000000000000
201509070060000100000000000000021113000000000000000211139611111111111111111111CONS-FINAL                    000000000052500000000000000000000000000000000000000000000000000000000000000000000000000000000000000000000000000000000000PES00010000001 00000000000000000000000
201509070060000100000000000000021114000000000000000211149611111111111111111111CONS-FINAL                    000000000030500000000000000000000000000000000000000000000000000000000000000000000000000000000000000000000000000000000000PES00010000001 00000000000000000000000
201509070060000100000000000000021115000000000000000211159611111111111111111111CONS-FINAL                    000000000019000000000000000000000000000000000000000000000000000000000000000000000000000000000000000000000000000000000000PES00010000001 00000000000000000000000
201509070060000100000000000000021116000000000000000211169611111111111111111111CONS-FINAL                    000000000034500000000000000000000000000000000000000000000000000000000000000000000000000000000000000000000000000000000000PES00010000001 00000000000000000000000
201509070060000100000000000000021117000000000000000211179611111111111111111111CONS-FINAL                    000000000043500000000000000000000000000000000000000000000000000000000000000000000000000000000000000000000000000000000000PES00010000001 00000000000000000000000
201509070060000100000000000000021118000000000000000211189611111111111111111111CONS-FINAL                    000000000143500000000000000000000000000000000000000000000000000000000000000000000000000000000000000000000000000000000000PES00010000001 00000000000000000000000
201509070060000100000000000000021119000000000000000211199611111111111111111111CONS-FINAL                    000000000057500000000000000000000000000000000000000000000000000000000000000000000000000000000000000000000000000000000000PES00010000001 00000000000000000000000
201509080060000100000000000000021120000000000000000211209611111111111111111111CONS-FINAL                    000000000029000000000000000000000000000000000000000000000000000000000000000000000000000000000000000000000000000000000000PES00010000001 00000000000000000000000
201509080060000100000000000000021121000000000000000211219611111111111111111111CONS-FINAL                    000000000045500000000000000000000000000000000000000000000000000000000000000000000000000000000000000000000000000000000000PES00010000001 00000000000000000000000
201509080060000100000000000000021122000000000000000211229611111111111111111111CONS-FINAL                    000000000016000000000000000000000000000000000000000000000000000000000000000000000000000000000000000000000000000000000000PES00010000001 00000000000000000000000
201509080060000100000000000000021123000000000000000211239611111111111111111111CONS-FINAL                    000000000028500000000000000000000000000000000000000000000000000000000000000000000000000000000000000000000000000000000000PES00010000001 00000000000000000000000
201509080060000100000000000000021124000000000000000211249611111111111111111111CONS-FINAL                    000000000122500000000000000000000000000000000000000000000000000000000000000000000000000000000000000000000000000000000000PES00010000001 00000000000000000000000
201509080060000100000000000000021125000000000000000211259611111111111111111111CONS-FINAL                    000000000060000000000000000000000000000000000000000000000000000000000000000000000000000000000000000000000000000000000000PES00010000001 00000000000000000000000
201509080060000100000000000000021126000000000000000211269611111111111111111111CONS-FINAL                    000000000027500000000000000000000000000000000000000000000000000000000000000000000000000000000000000000000000000000000000PES00010000001 00000000000000000000000
201509080060000100000000000000021127000000000000000211279611111111111111111111CONS-FINAL                    000000000039500000000000000000000000000000000000000000000000000000000000000000000000000000000000000000000000000000000000PES00010000001 00000000000000000000000
201509080060000100000000000000021128000000000000000211289611111111111111111111CONS-FINAL                    000000000052100000000000000000000000000000000000000000000000000000000000000000000000000000000000000000000000000000000000PES00010000001 00000000000000000000000
201509080060000100000000000000021129000000000000000211299611111111111111111111CONS-FINAL                    000000000021500000000000000000000000000000000000000000000000000000000000000000000000000000000000000000000000000000000000PES00010000001 00000000000000000000000
201509080060000100000000000000021130000000000000000211309611111111111111111111CONS-FINAL                    000000000065000000000000000000000000000000000000000000000000000000000000000000000000000000000000000000000000000000000000PES00010000001 00000000000000000000000
201509080060000100000000000000021131000000000000000211319611111111111111111111CONS-FINAL                    000000000071600000000000000000000000000000000000000000000000000000000000000000000000000000000000000000000000000000000000PES00010000001 00000000000000000000000
201509080060000100000000000000021132000000000000000211329611111111111111111111CONS-FINAL                    000000000032000000000000000000000000000000000000000000000000000000000000000000000000000000000000000000000000000000000000PES00010000001 00000000000000000000000
201509090060000100000000000000021133000000000000000211339611111111111111111111CONS-FINAL                    000000000017000000000000000000000000000000000000000000000000000000000000000000000000000000000000000000000000000000000000PES00010000001 00000000000000000000000
201509090060000100000000000000021134000000000000000211349611111111111111111111CONS-FINAL                    000000000245000000000000000000000000000000000000000000000000000000000000000000000000000000000000000000000000000000000000PES00010000001 00000000000000000000000
201509090060000100000000000000021135000000000000000211359611111111111111111111CONS-FINAL                    000000000065500000000000000000000000000000000000000000000000000000000000000000000000000000000000000000000000000000000000PES00010000001 00000000000000000000000
201509090060000100000000000000021136000000000000000211369611111111111111111111CONS-FINAL                    000000000017500000000000000000000000000000000000000000000000000000000000000000000000000000000000000000000000000000000000PES00010000001 00000000000000000000000
201509090060000100000000000000021137000000000000000211379611111111111111111111CONS-FINAL                    000000000028500000000000000000000000000000000000000000000000000000000000000000000000000000000000000000000000000000000000PES00010000001 00000000000000000000000
201509090060000100000000000000021138000000000000000211389611111111111111111111CONS-FINAL                    000000000033000000000000000000000000000000000000000000000000000000000000000000000000000000000000000000000000000000000000PES00010000001 00000000000000000000000
201509090060000100000000000000021139000000000000000211399611111111111111111111CONS-FINAL                    000000000044300000000000000000000000000000000000000000000000000000000000000000000000000000000000000000000000000000000000PES00010000001 00000000000000000000000
201509090060000100000000000000021140000000000000000211409611111111111111111111CONS-FINAL                    000000000044500000000000000000000000000000000000000000000000000000000000000000000000000000000000000000000000000000000000PES00010000001 00000000000000000000000
201509090060000100000000000000021141000000000000000211419611111111111111111111CONS-FINAL                    000000000031500000000000000000000000000000000000000000000000000000000000000000000000000000000000000000000000000000000000PES00010000001 00000000000000000000000
201509090060000100000000000000021142000000000000000211429611111111111111111111CONS-FINAL                    000000000186000000000000000000000000000000000000000000000000000000000000000000000000000000000000000000000000000000000000PES00010000001 00000000000000000000000
201509090060000100000000000000021143000000000000000211439611111111111111111111CONS-FINAL                    000000000034500000000000000000000000000000000000000000000000000000000000000000000000000000000000000000000000000000000000PES00010000001 00000000000000000000000
201509090060000100000000000000021144000000000000000211449611111111111111111111CONS-FINAL                    000000000235000000000000000000000000000000000000000000000000000000000000000000000000000000000000000000000000000000000000PES00010000001 00000000000000000000000
201509090060000100000000000000021145000000000000000211459611111111111111111111CONS-FINAL                    000000000219800000000000000000000000000000000000000000000000000000000000000000000000000000000000000000000000000000000000PES00010000001 00000000000000000000000
201509090060000100000000000000021146000000000000000211469611111111111111111111CONS-FINAL                    000000000035000000000000000000000000000000000000000000000000000000000000000000000000000000000000000000000000000000000000PES00010000001 00000000000000000000000
201509090060000100000000000000021147000000000000000211479611111111111111111111CONS-FINAL                    000000000040000000000000000000000000000000000000000000000000000000000000000000000000000000000000000000000000000000000000PES00010000001 00000000000000000000000
201509090060000100000000000000021148000000000000000211489611111111111111111111CONS-FINAL                    000000000259500000000000000000000000000000000000000000000000000000000000000000000000000000000000000000000000000000000000PES00010000001 00000000000000000000000
201509090060000100000000000000021149000000000000000211499611111111111111111111CONS-FINAL                    000000000076000000000000000000000000000000000000000000000000000000000000000000000000000000000000000000000000000000000000PES00010000001 00000000000000000000000
201509090060000100000000000000021150000000000000000211509611111111111111111111CONS-FINAL                    000000000044500000000000000000000000000000000000000000000000000000000000000000000000000000000000000000000000000000000000PES00010000001 00000000000000000000000
201509090060000100000000000000021151000000000000000211519611111111111111111111CONS-FINAL                    000000000090000000000000000000000000000000000000000000000000000000000000000000000000000000000000000000000000000000000000PES00010000001 00000000000000000000000
201509090060000100000000000000021152000000000000000211529611111111111111111111CONS-FINAL                    000000000075500000000000000000000000000000000000000000000000000000000000000000000000000000000000000000000000000000000000PES00010000001 00000000000000000000000
201509090060000100000000000000021153000000000000000211539611111111111111111111CONS-FINAL                    000000000017500000000000000000000000000000000000000000000000000000000000000000000000000000000000000000000000000000000000PES00010000001 00000000000000000000000
201509100060000100000000000000021154000000000000000211549611111111111111111111CONS-FINAL                    000000000075000000000000000000000000000000000000000000000000000000000000000000000000000000000000000000000000000000000000PES00010000001 00000000000000000000000
201509100060000100000000000000021155000000000000000211559611111111111111111111CONS-FINAL                    000000000095000000000000000000000000000000000000000000000000000000000000000000000000000000000000000000000000000000000000PES00010000001 00000000000000000000000
201509100060000100000000000000021156000000000000000211569611111111111111111111CONS-FINAL                    000000000016500000000000000000000000000000000000000000000000000000000000000000000000000000000000000000000000000000000000PES00010000001 00000000000000000000000
201509100060000100000000000000021157000000000000000211579611111111111111111111CONS-FINAL                    000000000028400000000000000000000000000000000000000000000000000000000000000000000000000000000000000000000000000000000000PES00010000001 00000000000000000000000
201509100060000100000000000000021158000000000000000211589611111111111111111111CONS-FINAL                    000000000039500000000000000000000000000000000000000000000000000000000000000000000000000000000000000000000000000000000000PES00010000001 00000000000000000000000
201509100060000100000000000000021159000000000000000211599611111111111111111111CONS-FINAL                    000000000014500000000000000000000000000000000000000000000000000000000000000000000000000000000000000000000000000000000000PES00010000001 00000000000000000000000
201509100060000100000000000000021160000000000000000211609611111111111111111111CONS-FINAL                    000000000114500000000000000000000000000000000000000000000000000000000000000000000000000000000000000000000000000000000000PES00010000001 00000000000000000000000
201509100060000100000000000000021161000000000000000211619611111111111111111111CONS-FINAL                    000000000088300000000000000000000000000000000000000000000000000000000000000000000000000000000000000000000000000000000000PES00010000001 00000000000000000000000
201509100060000100000000000000021162000000000000000211629611111111111111111111CONS-FINAL                    000000000008000000000000000000000000000000000000000000000000000000000000000000000000000000000000000000000000000000000000PES00010000001 00000000000000000000000
201509100060000100000000000000021163000000000000000211639611111111111111111111CONS-FINAL                    000000000024500000000000000000000000000000000000000000000000000000000000000000000000000000000000000000000000000000000000PES00010000001 00000000000000000000000
201509100060000100000000000000021164000000000000000211649611111111111111111111CONS-FINAL                    000000000055500000000000000000000000000000000000000000000000000000000000000000000000000000000000000000000000000000000000PES00010000001 00000000000000000000000
201509110060000100000000000000021165000000000000000211659611111111111111111111CONS-FINAL                    000000000100000000000000000000000000000000000000000000000000000000000000000000000000000000000000000000000000000000000000PES00010000001 00000000000000000000000
201509110060000100000000000000021166000000000000000211669611111111111111111111CONS-FINAL                    000000000048000000000000000000000000000000000000000000000000000000000000000000000000000000000000000000000000000000000000PES00010000001 00000000000000000000000
201509110060000100000000000000021167000000000000000211679611111111111111111111CONS-FINAL                    000000000018000000000000000000000000000000000000000000000000000000000000000000000000000000000000000000000000000000000000PES00010000001 00000000000000000000000
201509110060000100000000000000021168000000000000000211689611111111111111111111CONS-FINAL                    000000000028000000000000000000000000000000000000000000000000000000000000000000000000000000000000000000000000000000000000PES00010000001 00000000000000000000000
201509110060000100000000000000021169000000000000000211699611111111111111111111CONS-FINAL                    000000000021500000000000000000000000000000000000000000000000000000000000000000000000000000000000000000000000000000000000PES00010000001 00000000000000000000000
201509110060000100000000000000021170000000000000000211709611111111111111111111CONS-FINAL                    000000000034000000000000000000000000000000000000000000000000000000000000000000000000000000000000000000000000000000000000PES00010000001 00000000000000000000000
201509110060000100000000000000021171000000000000000211719611111111111111111111CONS-FINAL                    000000000059500000000000000000000000000000000000000000000000000000000000000000000000000000000000000000000000000000000000PES00010000001 00000000000000000000000
201509110060000100000000000000021172000000000000000211729611111111111111111111CONS-FINAL                    000000000018500000000000000000000000000000000000000000000000000000000000000000000000000000000000000000000000000000000000PES00010000001 00000000000000000000000
201509110060000100000000000000021173000000000000000211739611111111111111111111CONS-FINAL                    000000000018000000000000000000000000000000000000000000000000000000000000000000000000000000000000000000000000000000000000PES00010000001 00000000000000000000000
201509110060000100000000000000021174000000000000000211749611111111111111111111CONS-FINAL                    000000000033000000000000000000000000000000000000000000000000000000000000000000000000000000000000000000000000000000000000PES00010000001 00000000000000000000000
201509110060000100000000000000021175000000000000000211759611111111111111111111CONS-FINAL                    000000000032500000000000000000000000000000000000000000000000000000000000000000000000000000000000000000000000000000000000PES00010000001 00000000000000000000000
201509110060000100000000000000021176000000000000000211769611111111111111111111CONS-FINAL                    000000000016500000000000000000000000000000000000000000000000000000000000000000000000000000000000000000000000000000000000PES00010000001 00000000000000000000000
201509110060000100000000000000021177000000000000000211779611111111111111111111CONS-FINAL                    000000000026000000000000000000000000000000000000000000000000000000000000000000000000000000000000000000000000000000000000PES00010000001 00000000000000000000000
201509110060000100000000000000021178000000000000000211789611111111111111111111CONS-FINAL                    000000000058500000000000000000000000000000000000000000000000000000000000000000000000000000000000000000000000000000000000PES00010000001 00000000000000000000000
201509110060000100000000000000021179000000000000000211799611111111111111111111CONS-FINAL                    000000000057000000000000000000000000000000000000000000000000000000000000000000000000000000000000000000000000000000000000PES00010000001 00000000000000000000000
201509110060000100000000000000021180000000000000000211809611111111111111111111CONS-FINAL                    000000000062500000000000000000000000000000000000000000000000000000000000000000000000000000000000000000000000000000000000PES00010000001 00000000000000000000000
201509110060000100000000000000021181000000000000000211819611111111111111111111CONS-FINAL                    000000000006500000000000000000000000000000000000000000000000000000000000000000000000000000000000000000000000000000000000PES00010000001 00000000000000000000000
201509110060000100000000000000021182000000000000000211829611111111111111111111CONS-FINAL                    000000000042000000000000000000000000000000000000000000000000000000000000000000000000000000000000000000000000000000000000PES00010000001 00000000000000000000000
201509110060000100000000000000021183000000000000000211839611111111111111111111CONS-FINAL                    000000000188000000000000000000000000000000000000000000000000000000000000000000000000000000000000000000000000000000000000PES00010000001 00000000000000000000000
201509120060000100000000000000021184000000000000000211849611111111111111111111CONS-FINAL                    000000000120000000000000000000000000000000000000000000000000000000000000000000000000000000000000000000000000000000000000PES00010000001 00000000000000000000000
201509120060000100000000000000021185000000000000000211859611111111111111111111CONS-FINAL                    000000000021000000000000000000000000000000000000000000000000000000000000000000000000000000000000000000000000000000000000PES00010000001 00000000000000000000000
201509120060000100000000000000021186000000000000000211869611111111111111111111CONS-FINAL                    000000000135500000000000000000000000000000000000000000000000000000000000000000000000000000000000000000000000000000000000PES00010000001 00000000000000000000000
201509120060000100000000000000021187000000000000000211879611111111111111111111CONS-FINAL                    000000000031500000000000000000000000000000000000000000000000000000000000000000000000000000000000000000000000000000000000PES00010000001 00000000000000000000000
201509120060000100000000000000021188000000000000000211889611111111111111111111CONS-FINAL                    000000000084000000000000000000000000000000000000000000000000000000000000000000000000000000000000000000000000000000000000PES00010000001 00000000000000000000000
201509120060000100000000000000021189000000000000000211899611111111111111111111CONS-FINAL                    000000000034000000000000000000000000000000000000000000000000000000000000000000000000000000000000000000000000000000000000PES00010000001 00000000000000000000000
201509120060000100000000000000021190000000000000000211909611111111111111111111CONS-FINAL                    000000000030000000000000000000000000000000000000000000000000000000000000000000000000000000000000000000000000000000000000PES00010000001 00000000000000000000000
201509120060000100000000000000021191000000000000000211919611111111111111111111CONS-FINAL                    000000000027000000000000000000000000000000000000000000000000000000000000000000000000000000000000000000000000000000000000PES00010000001 00000000000000000000000
201509120060000100000000000000021192000000000000000211929611111111111111111111CONS-FINAL                    000000000117500000000000000000000000000000000000000000000000000000000000000000000000000000000000000000000000000000000000PES00010000001 00000000000000000000000
201509120060000100000000000000021193000000000000000211939611111111111111111111CONS-FINAL                    000000000042500000000000000000000000000000000000000000000000000000000000000000000000000000000000000000000000000000000000PES00010000001 00000000000000000000000
201509120060000100000000000000021194000000000000000211949611111111111111111111CONS-FINAL                    000000000099800000000000000000000000000000000000000000000000000000000000000000000000000000000000000000000000000000000000PES00010000001 00000000000000000000000
201509120060000100000000000000021195000000000000000211959611111111111111111111CONS-FINAL                    000000000036000000000000000000000000000000000000000000000000000000000000000000000000000000000000000000000000000000000000PES00010000001 00000000000000000000000
201509120060000100000000000000021196000000000000000211969611111111111111111111CONS-FINAL                    000000000139500000000000000000000000000000000000000000000000000000000000000000000000000000000000000000000000000000000000PES00010000001 00000000000000000000000
201509120060000100000000000000021197000000000000000211979611111111111111111111CONS-FINAL                    000000000087000000000000000000000000000000000000000000000000000000000000000000000000000000000000000000000000000000000000PES00010000001 00000000000000000000000
201509120060000100000000000000021198000000000000000211989611111111111111111111CONS-FINAL                    000000000046500000000000000000000000000000000000000000000000000000000000000000000000000000000000000000000000000000000000PES00010000001 00000000000000000000000
201509120060000100000000000000021199000000000000000211999611111111111111111111CONS-FINAL                    000000000229800000000000000000000000000000000000000000000000000000000000000000000000000000000000000000000000000000000000PES00010000001 00000000000000000000000
201509120060000100000000000000021200000000000000000212009611111111111111111111CONS-FINAL                    000000000041000000000000000000000000000000000000000000000000000000000000000000000000000000000000000000000000000000000000PES00010000001 00000000000000000000000
201509120060000100000000000000021201000000000000000212019611111111111111111111CONS-FINAL                    000000000117800000000000000000000000000000000000000000000000000000000000000000000000000000000000000000000000000000000000PES00010000001 00000000000000000000000
201509120060000100000000000000021202000000000000000212029611111111111111111111CONS-FINAL                    000000000070500000000000000000000000000000000000000000000000000000000000000000000000000000000000000000000000000000000000PES00010000001 00000000000000000000000
201509120060000100000000000000021203000000000000000212039611111111111111111111CONS-FINAL                    000000000045500000000000000000000000000000000000000000000000000000000000000000000000000000000000000000000000000000000000PES00010000001 00000000000000000000000
201509120060000100000000000000021204000000000000000212049611111111111111111111CONS-FINAL                    000000000097600000000000000000000000000000000000000000000000000000000000000000000000000000000000000000000000000000000000PES00010000001 00000000000000000000000
201509120060000100000000000000021205000000000000000212059611111111111111111111CONS-FINAL                    000000000024500000000000000000000000000000000000000000000000000000000000000000000000000000000000000000000000000000000000PES00010000001 00000000000000000000000
201509120060000100000000000000021206000000000000000212069611111111111111111111CONS-FINAL                    000000000045000000000000000000000000000000000000000000000000000000000000000000000000000000000000000000000000000000000000PES00010000001 00000000000000000000000
201509120060000100000000000000021207000000000000000212079611111111111111111111CONS-FINAL                    000000000057000000000000000000000000000000000000000000000000000000000000000000000000000000000000000000000000000000000000PES00010000001 00000000000000000000000
201509120060000100000000000000021208000000000000000212089611111111111111111111CONS-FINAL                    000000000149000000000000000000000000000000000000000000000000000000000000000000000000000000000000000000000000000000000000PES00010000001 00000000000000000000000
201509120060000100000000000000021209000000000000000212099611111111111111111111CONS-FINAL                    000000000037300000000000000000000000000000000000000000000000000000000000000000000000000000000000000000000000000000000000PES00010000001 00000000000000000000000
201509120060000100000000000000021210000000000000000212109611111111111111111111CONS-FINAL                    000000000052000000000000000000000000000000000000000000000000000000000000000000000000000000000000000000000000000000000000PES00010000001 00000000000000000000000
201509120060000100000000000000021211000000000000000212119611111111111111111111CONS-FINAL                    000000000048300000000000000000000000000000000000000000000000000000000000000000000000000000000000000000000000000000000000PES00010000001 00000000000000000000000
201509120060000100000000000000021212000000000000000212129611111111111111111111CONS-FINAL                    000000000050000000000000000000000000000000000000000000000000000000000000000000000000000000000000000000000000000000000000PES00010000001 00000000000000000000000
201509120060000100000000000000021213000000000000000212139611111111111111111111CONS-FINAL                    000000000062000000000000000000000000000000000000000000000000000000000000000000000000000000000000000000000000000000000000PES00010000001 00000000000000000000000
201509120060000100000000000000021214000000000000000212149611111111111111111111CONS-FINAL                    000000000053500000000000000000000000000000000000000000000000000000000000000000000000000000000000000000000000000000000000PES00010000001 00000000000000000000000
201509120060000100000000000000021215000000000000000212159611111111111111111111CONS-FINAL                    000000000071500000000000000000000000000000000000000000000000000000000000000000000000000000000000000000000000000000000000PES00010000001 00000000000000000000000
201509120060000100000000000000021216000000000000000212169611111111111111111111CONS-FINAL                    000000000072800000000000000000000000000000000000000000000000000000000000000000000000000000000000000000000000000000000000PES00010000001 00000000000000000000000
201509120060000100000000000000021217000000000000000212179611111111111111111111CONS-FINAL                    000000000073500000000000000000000000000000000000000000000000000000000000000000000000000000000000000000000000000000000000PES00010000001 00000000000000000000000
201509120060000100000000000000021218000000000000000212189611111111111111111111CONS-FINAL                    000000000096000000000000000000000000000000000000000000000000000000000000000000000000000000000000000000000000000000000000PES00010000001 00000000000000000000000
201509120060000100000000000000021219000000000000000212199611111111111111111111CONS-FINAL                    000000000054500000000000000000000000000000000000000000000000000000000000000000000000000000000000000000000000000000000000PES00010000001 00000000000000000000000
201509120060000100000000000000021220000000000000000212209611111111111111111111CONS-FINAL                    000000000044000000000000000000000000000000000000000000000000000000000000000000000000000000000000000000000000000000000000PES00010000001 00000000000000000000000
201509120060000100000000000000021221000000000000000212219611111111111111111111CONS-FINAL                    000000000083000000000000000000000000000000000000000000000000000000000000000000000000000000000000000000000000000000000000PES00010000001 00000000000000000000000
201509120060000100000000000000021222000000000000000212229611111111111111111111CONS-FINAL                    000000000050900000000000000000000000000000000000000000000000000000000000000000000000000000000000000000000000000000000000PES00010000001 00000000000000000000000
201509140060000100000000000000021223000000000000000212239611111111111111111111CONS-FINAL                    000000000064500000000000000000000000000000000000000000000000000000000000000000000000000000000000000000000000000000000000PES00010000001 00000000000000000000000
201509140060000100000000000000021224000000000000000212249611111111111111111111CONS-FINAL                    000000000098500000000000000000000000000000000000000000000000000000000000000000000000000000000000000000000000000000000000PES00010000001 00000000000000000000000
201509140060000100000000000000021225000000000000000212259611111111111111111111CONS-FINAL                    000000000028500000000000000000000000000000000000000000000000000000000000000000000000000000000000000000000000000000000000PES00010000001 00000000000000000000000
201509140060000100000000000000021226000000000000000212269611111111111111111111CONS-FINAL                    000000000091500000000000000000000000000000000000000000000000000000000000000000000000000000000000000000000000000000000000PES00010000001 00000000000000000000000
201509140060000100000000000000021227000000000000000212279611111111111111111111CONS-FINAL                    000000000038000000000000000000000000000000000000000000000000000000000000000000000000000000000000000000000000000000000000PES00010000001 00000000000000000000000
201509140060000100000000000000021228000000000000000212289611111111111111111111CONS-FINAL                    000000000035000000000000000000000000000000000000000000000000000000000000000000000000000000000000000000000000000000000000PES00010000001 00000000000000000000000
201509140060000100000000000000021229000000000000000212299611111111111111111111CONS-FINAL                    000000000023500000000000000000000000000000000000000000000000000000000000000000000000000000000000000000000000000000000000PES00010000001 00000000000000000000000
201509140060000100000000000000021230000000000000000212309611111111111111111111CONS-FINAL                    000000000089800000000000000000000000000000000000000000000000000000000000000000000000000000000000000000000000000000000000PES00010000001 00000000000000000000000
201509140060000100000000000000021231000000000000000212319611111111111111111111CONS-FINAL                    000000000107500000000000000000000000000000000000000000000000000000000000000000000000000000000000000000000000000000000000PES00010000001 00000000000000000000000
201509140060000100000000000000021232000000000000000212329611111111111111111111CONS-FINAL                    000000000045000000000000000000000000000000000000000000000000000000000000000000000000000000000000000000000000000000000000PES00010000001 00000000000000000000000
201509140060000100000000000000021233000000000000000212339611111111111111111111CONS-FINAL                    000000000099000000000000000000000000000000000000000000000000000000000000000000000000000000000000000000000000000000000000PES00010000001 00000000000000000000000
201509140060000100000000000000021234000000000000000212349611111111111111111111CONS-FINAL                    000000000116600000000000000000000000000000000000000000000000000000000000000000000000000000000000000000000000000000000000PES00010000001 00000000000000000000000
201509150060000100000000000000021235000000000000000212359611111111111111111111CONS-FINAL                    000000000026000000000000000000000000000000000000000000000000000000000000000000000000000000000000000000000000000000000000PES00010000001 00000000000000000000000
201509150060000100000000000000021236000000000000000212369611111111111111111111CONS-FINAL                    000000000044000000000000000000000000000000000000000000000000000000000000000000000000000000000000000000000000000000000000PES00010000001 00000000000000000000000
201509150060000100000000000000021237000000000000000212379611111111111111111111CONS-FINAL                    000000000028000000000000000000000000000000000000000000000000000000000000000000000000000000000000000000000000000000000000PES00010000001 00000000000000000000000
201509150060000100000000000000021238000000000000000212389611111111111111111111CONS-FINAL                    000000000091500000000000000000000000000000000000000000000000000000000000000000000000000000000000000000000000000000000000PES00010000001 00000000000000000000000
201509150060000100000000000000021239000000000000000212399611111111111111111111CONS-FINAL                    000000000027000000000000000000000000000000000000000000000000000000000000000000000000000000000000000000000000000000000000PES00010000001 00000000000000000000000
201509150060000100000000000000021240000000000000000212409611111111111111111111CONS-FINAL                    000000000061500000000000000000000000000000000000000000000000000000000000000000000000000000000000000000000000000000000000PES00010000001 00000000000000000000000
201509150060000100000000000000021241000000000000000212419611111111111111111111CONS-FINAL                    000000000023500000000000000000000000000000000000000000000000000000000000000000000000000000000000000000000000000000000000PES00010000001 00000000000000000000000
201509150060000100000000000000021242000000000000000212429611111111111111111111CONS-FINAL                    000000000056200000000000000000000000000000000000000000000000000000000000000000000000000000000000000000000000000000000000PES00010000001 00000000000000000000000
201509150060000100000000000000021243000000000000000212439611111111111111111111CONS-FINAL                    000000000146200000000000000000000000000000000000000000000000000000000000000000000000000000000000000000000000000000000000PES00010000001 00000000000000000000000
201509160060000100000000000000021244000000000000000212449611111111111111111111CONS-FINAL                    000000000124400000000000000000000000000000000000000000000000000000000000000000000000000000000000000000000000000000000000PES00010000001 00000000000000000000000
201509160060000100000000000000021245000000000000000212459611111111111111111111CONS-FINAL                    000000000117500000000000000000000000000000000000000000000000000000000000000000000000000000000000000000000000000000000000PES00010000001 00000000000000000000000
201509160060000100000000000000021246000000000000000212469611111111111111111111CONS-FINAL                    000000000019000000000000000000000000000000000000000000000000000000000000000000000000000000000000000000000000000000000000PES00010000001 00000000000000000000000
201509160060000100000000000000021247000000000000000212479611111111111111111111CONS-FINAL                    000000000162500000000000000000000000000000000000000000000000000000000000000000000000000000000000000000000000000000000000PES00010000001 00000000000000000000000
201509160060000100000000000000021248000000000000000212489611111111111111111111CONS-FINAL                    000000000012000000000000000000000000000000000000000000000000000000000000000000000000000000000000000000000000000000000000PES00010000001 00000000000000000000000
201509160060000100000000000000021249000000000000000212499611111111111111111111CONS-FINAL                    000000000069500000000000000000000000000000000000000000000000000000000000000000000000000000000000000000000000000000000000PES00010000001 00000000000000000000000
201509160060000100000000000000021250000000000000000212509611111111111111111111CONS-FINAL                    000000000028000000000000000000000000000000000000000000000000000000000000000000000000000000000000000000000000000000000000PES00010000001 00000000000000000000000
201509160060000100000000000000021251000000000000000212519611111111111111111111CONS-FINAL                    000000000039000000000000000000000000000000000000000000000000000000000000000000000000000000000000000000000000000000000000PES00010000001 00000000000000000000000
201509160060000100000000000000021252000000000000000212529611111111111111111111CONS-FINAL                    000000000054000000000000000000000000000000000000000000000000000000000000000000000000000000000000000000000000000000000000PES00010000001 00000000000000000000000
201509160060000100000000000000021253000000000000000212539611111111111111111111CONS-FINAL                    000000000041300000000000000000000000000000000000000000000000000000000000000000000000000000000000000000000000000000000000PES00010000001 00000000000000000000000
201509160060000100000000000000021254000000000000000212549611111111111111111111CONS-FINAL                    000000000146300000000000000000000000000000000000000000000000000000000000000000000000000000000000000000000000000000000000PES00010000001 00000000000000000000000
201509160060000100000000000000021255000000000000000212559611111111111111111111CONS-FINAL                    000000000027500000000000000000000000000000000000000000000000000000000000000000000000000000000000000000000000000000000000PES00010000001 00000000000000000000000
201509160060000100000000000000021256000000000000000212569611111111111111111111CONS-FINAL                    000000000032600000000000000000000000000000000000000000000000000000000000000000000000000000000000000000000000000000000000PES00010000001 00000000000000000000000
201509160060000100000000000000021257000000000000000212579611111111111111111111CONS-FINAL                    000000000028500000000000000000000000000000000000000000000000000000000000000000000000000000000000000000000000000000000000PES00010000001 00000000000000000000000
201509160060000100000000000000021258000000000000000212589611111111111111111111CONS-FINAL                    000000000045700000000000000000000000000000000000000000000000000000000000000000000000000000000000000000000000000000000000PES00010000001 00000000000000000000000
201509160060000100000000000000021259000000000000000212599611111111111111111111CONS-FINAL                    000000000254500000000000000000000000000000000000000000000000000000000000000000000000000000000000000000000000000000000000PES00010000001 00000000000000000000000
201509160060000100000000000000021260000000000000000212609611111111111111111111CONS-FINAL                    000000000090500000000000000000000000000000000000000000000000000000000000000000000000000000000000000000000000000000000000PES00010000001 00000000000000000000000
201509160060000100000000000000021261000000000000000212619611111111111111111111CONS-FINAL                    000000000023500000000000000000000000000000000000000000000000000000000000000000000000000000000000000000000000000000000000PES00010000001 00000000000000000000000
201509170060000100000000000000021262000000000000000212629611111111111111111111CONS-FINAL                    000000000052500000000000000000000000000000000000000000000000000000000000000000000000000000000000000000000000000000000000PES00010000001 00000000000000000000000
201509170060000100000000000000021263000000000000000212639611111111111111111111CONS-FINAL                    000000000023500000000000000000000000000000000000000000000000000000000000000000000000000000000000000000000000000000000000PES00010000001 00000000000000000000000
201509170060000100000000000000021264000000000000000212649611111111111111111111CONS-FINAL                    000000000250000000000000000000000000000000000000000000000000000000000000000000000000000000000000000000000000000000000000PES00010000001 00000000000000000000000
201509170060000100000000000000021265000000000000000212659611111111111111111111CONS-FINAL                    000000000080800000000000000000000000000000000000000000000000000000000000000000000000000000000000000000000000000000000000PES00010000001 00000000000000000000000
201509170060000100000000000000021266000000000000000212669611111111111111111111CONS-FINAL                    000000000040300000000000000000000000000000000000000000000000000000000000000000000000000000000000000000000000000000000000PES00010000001 00000000000000000000000
201509170060000100000000000000021267000000000000000212679611111111111111111111CONS-FINAL                    000000000045000000000000000000000000000000000000000000000000000000000000000000000000000000000000000000000000000000000000PES00010000001 00000000000000000000000
201509170060000100000000000000021268000000000000000212689611111111111111111111CONS-FINAL                    000000000064800000000000000000000000000000000000000000000000000000000000000000000000000000000000000000000000000000000000PES00010000001 00000000000000000000000
201509170060000100000000000000021269000000000000000212699611111111111111111111CONS-FINAL                    000000000017500000000000000000000000000000000000000000000000000000000000000000000000000000000000000000000000000000000000PES00010000001 00000000000000000000000
201509170060000100000000000000021270000000000000000212709611111111111111111111CONS-FINAL                    000000000052500000000000000000000000000000000000000000000000000000000000000000000000000000000000000000000000000000000000PES00010000001 00000000000000000000000
201509170060000100000000000000021271000000000000000212719611111111111111111111CONS-FINAL                    000000000130600000000000000000000000000000000000000000000000000000000000000000000000000000000000000000000000000000000000PES00010000001 00000000000000000000000
201509170060000100000000000000021272000000000000000212729611111111111111111111CONS-FINAL                    000000000127500000000000000000000000000000000000000000000000000000000000000000000000000000000000000000000000000000000000PES00010000001 00000000000000000000000
201509170060000100000000000000021273000000000000000212739611111111111111111111CONS-FINAL                    000000000050000000000000000000000000000000000000000000000000000000000000000000000000000000000000000000000000000000000000PES00010000001 00000000000000000000000
201509170060000100000000000000021274000000000000000212749611111111111111111111CONS-FINAL                    000000000017000000000000000000000000000000000000000000000000000000000000000000000000000000000000000000000000000000000000PES00010000001 00000000000000000000000
201509170060000100000000000000021275000000000000000212759611111111111111111111CONS-FINAL                    000000000036500000000000000000000000000000000000000000000000000000000000000000000000000000000000000000000000000000000000PES00010000001 00000000000000000000000
201509170060000100000000000000021276000000000000000212769611111111111111111111CONS-FINAL                    000000000097500000000000000000000000000000000000000000000000000000000000000000000000000000000000000000000000000000000000PES00010000001 00000000000000000000000
201509180060000100000000000000021277000000000000000212779611111111111111111111CONS-FINAL                    000000000065000000000000000000000000000000000000000000000000000000000000000000000000000000000000000000000000000000000000PES00010000001 00000000000000000000000
201509180060000100000000000000021278000000000000000212789611111111111111111111CONS-FINAL                    000000000138500000000000000000000000000000000000000000000000000000000000000000000000000000000000000000000000000000000000PES00010000001 00000000000000000000000
201509180060000100000000000000021279000000000000000212799611111111111111111111CONS-FINAL                    000000000057500000000000000000000000000000000000000000000000000000000000000000000000000000000000000000000000000000000000PES00010000001 00000000000000000000000
201509180060000100000000000000021280000000000000000212809611111111111111111111CONS-FINAL                    000000000013500000000000000000000000000000000000000000000000000000000000000000000000000000000000000000000000000000000000PES00010000001 00000000000000000000000
201509180060000100000000000000021281000000000000000212819611111111111111111111CONS-FINAL                    000000000032700000000000000000000000000000000000000000000000000000000000000000000000000000000000000000000000000000000000PES00010000001 00000000000000000000000
201509180060000100000000000000021282000000000000000212829600000000030710396899-ESCAPES-NICO-SRL             000000000080000000000000000000000000000000000000000000000000000000000000000000000000000000000000000000000000000000000000PES00010000001 00000000000000000000000
201509180060000100000000000000021283000000000000000212839611111111111111111111CONS-FINAL                    000000000031000000000000000000000000000000000000000000000000000000000000000000000000000000000000000000000000000000000000PES00010000001 00000000000000000000000
201509180060000100000000000000021284000000000000000212849611111111111111111111CONS-FINAL                    000000000028000000000000000000000000000000000000000000000000000000000000000000000000000000000000000000000000000000000000PES00010000001 00000000000000000000000
201509190060000100000000000000021285000000000000000212859611111111111111111111CONS-FINAL                    000000000049500000000000000000000000000000000000000000000000000000000000000000000000000000000000000000000000000000000000PES00010000001 00000000000000000000000
201509190060000100000000000000021286000000000000000212869611111111111111111111CONS-FINAL                    000000000072000000000000000000000000000000000000000000000000000000000000000000000000000000000000000000000000000000000000PES00010000001 00000000000000000000000
201509190060000100000000000000021287000000000000000212879611111111111111111111CONS-FINAL                    000000000065500000000000000000000000000000000000000000000000000000000000000000000000000000000000000000000000000000000000PES00010000001 00000000000000000000000
201509190060000100000000000000021288000000000000000212889600000000027340321575SAAVEDRA-FLORENCIA-ELISABET   000000000349800000000000000000000000000000000000000000000000000000000000000000000000000000000000000000000000000000000000PES00010000001 00000000000000000000000
201509190060000100000000000000021289000000000000000212899611111111111111111111CONS-FINAL                    000000000001200000000000000000000000000000000000000000000000000000000000000000000000000000000000000000000000000000000000PES00010000001 00000000000000000000000
201509190060000100000000000000021290000000000000000212909611111111111111111111CONS-FINAL                    000000000072500000000000000000000000000000000000000000000000000000000000000000000000000000000000000000000000000000000000PES00010000001 00000000000000000000000
201509190060000100000000000000021291000000000000000212919611111111111111111111CONS-FINAL                    000000000055000000000000000000000000000000000000000000000000000000000000000000000000000000000000000000000000000000000000PES00010000001 00000000000000000000000
201509190060000100000000000000021292000000000000000212929611111111111111111111CONS-FINAL                    000000000075500000000000000000000000000000000000000000000000000000000000000000000000000000000000000000000000000000000000PES00010000001 00000000000000000000000
201509190060000100000000000000021293000000000000000212939611111111111111111111CONS-FINAL                    000000000046000000000000000000000000000000000000000000000000000000000000000000000000000000000000000000000000000000000000PES00010000001 00000000000000000000000
201509190060000100000000000000021294000000000000000212949611111111111111111111CONS-FINAL                    000000000046500000000000000000000000000000000000000000000000000000000000000000000000000000000000000000000000000000000000PES00010000001 00000000000000000000000
201509190060000100000000000000021295000000000000000212959611111111111111111111CONS-FINAL                    000000000009000000000000000000000000000000000000000000000000000000000000000000000000000000000000000000000000000000000000PES00010000001 00000000000000000000000
201509190060000100000000000000021296000000000000000212969611111111111111111111CONS-FINAL                    000000000115000000000000000000000000000000000000000000000000000000000000000000000000000000000000000000000000000000000000PES00010000001 00000000000000000000000
201509190060000100000000000000021297000000000000000212979611111111111111111111CONS-FINAL                    000000000049900000000000000000000000000000000000000000000000000000000000000000000000000000000000000000000000000000000000PES00010000001 00000000000000000000000
201509190060000100000000000000021298000000000000000212989611111111111111111111CONS-FINAL                    000000000197500000000000000000000000000000000000000000000000000000000000000000000000000000000000000000000000000000000000PES00010000001 00000000000000000000000
201509190060000100000000000000021299000000000000000212999611111111111111111111CONS-FINAL                    000000000115500000000000000000000000000000000000000000000000000000000000000000000000000000000000000000000000000000000000PES00010000001 00000000000000000000000
201509190060000100000000000000021300000000000000000213009611111111111111111111CONS-FINAL                    000000000050000000000000000000000000000000000000000000000000000000000000000000000000000000000000000000000000000000000000PES00010000001 00000000000000000000000
201509190060000100000000000000021301000000000000000213019611111111111111111111CONS-FINAL                    000000000007500000000000000000000000000000000000000000000000000000000000000000000000000000000000000000000000000000000000PES00010000001 00000000000000000000000
201509210060000100000000000000021302000000000000000213029611111111111111111111CONS-FINAL                    000000000186000000000000000000000000000000000000000000000000000000000000000000000000000000000000000000000000000000000000PES00010000001 00000000000000000000000
201509210060000100000000000000021303000000000000000213039611111111111111111111CONS-FINAL                    000000000045000000000000000000000000000000000000000000000000000000000000000000000000000000000000000000000000000000000000PES00010000001 00000000000000000000000
201509210060000100000000000000021304000000000000000213049611111111111111111111CONS-FINAL                    000000000017500000000000000000000000000000000000000000000000000000000000000000000000000000000000000000000000000000000000PES00010000001 00000000000000000000000
201509210060000100000000000000021305000000000000000213059611111111111111111111CONS-FINAL                    000000000033000000000000000000000000000000000000000000000000000000000000000000000000000000000000000000000000000000000000PES00010000001 00000000000000000000000
201509210060000100000000000000021306000000000000000213069611111111111111111111CONS-FINAL                    000000000014000000000000000000000000000000000000000000000000000000000000000000000000000000000000000000000000000000000000PES00010000001 00000000000000000000000
201509210060000100000000000000021307000000000000000213079611111111111111111111CONS-FINAL                    000000000041500000000000000000000000000000000000000000000000000000000000000000000000000000000000000000000000000000000000PES00010000001 00000000000000000000000
201509210060000100000000000000021308000000000000000213089611111111111111111111CONS-FINAL                    000000000067500000000000000000000000000000000000000000000000000000000000000000000000000000000000000000000000000000000000PES00010000001 00000000000000000000000
201509210060000100000000000000021309000000000000000213099611111111111111111111CONS-FINAL                    000000000058600000000000000000000000000000000000000000000000000000000000000000000000000000000000000000000000000000000000PES00010000001 00000000000000000000000
201509210060000100000000000000021310000000000000000213109611111111111111111111CONS-FINAL                    000000000065000000000000000000000000000000000000000000000000000000000000000000000000000000000000000000000000000000000000PES00010000001 00000000000000000000000
201509210060000100000000000000021311000000000000000213119611111111111111111111CONS-FINAL                    000000000012500000000000000000000000000000000000000000000000000000000000000000000000000000000000000000000000000000000000PES00010000001 00000000000000000000000
201509210060000100000000000000021312000000000000000213129611111111111111111111CONS-FINAL                    000000000127500000000000000000000000000000000000000000000000000000000000000000000000000000000000000000000000000000000000PES00010000001 00000000000000000000000
201509210060000100000000000000021313000000000000000213139611111111111111111111CONS-FINAL                    000000000099800000000000000000000000000000000000000000000000000000000000000000000000000000000000000000000000000000000000PES00010000001 00000000000000000000000
201509210060000100000000000000021314000000000000000213149611111111111111111111CONS-FINAL                    000000000024000000000000000000000000000000000000000000000000000000000000000000000000000000000000000000000000000000000000PES00010000001 00000000000000000000000
201509210060000100000000000000021315000000000000000213159611111111111111111111CONS-FINAL                    000000000060000000000000000000000000000000000000000000000000000000000000000000000000000000000000000000000000000000000000PES00010000001 00000000000000000000000
201509210060000100000000000000021316000000000000000213169611111111111111111111CONS-FINAL                    000000000096000000000000000000000000000000000000000000000000000000000000000000000000000000000000000000000000000000000000PES00010000001 00000000000000000000000
201509220060000100000000000000021317000000000000000213179611111111111111111111CONS-FINAL                    000000000027500000000000000000000000000000000000000000000000000000000000000000000000000000000000000000000000000000000000PES00010000001 00000000000000000000000
201509220060000100000000000000021318000000000000000213189611111111111111111111CONS-FINAL                    000000000187000000000000000000000000000000000000000000000000000000000000000000000000000000000000000000000000000000000000PES00010000001 00000000000000000000000
201509220060000100000000000000021319000000000000000213199611111111111111111111CONS-FINAL                    000000000018000000000000000000000000000000000000000000000000000000000000000000000000000000000000000000000000000000000000PES00010000001 00000000000000000000000
201509220060000100000000000000021320000000000000000213209611111111111111111111CONS-FINAL                    000000000082000000000000000000000000000000000000000000000000000000000000000000000000000000000000000000000000000000000000PES00010000001 00000000000000000000000
201509220060000100000000000000021321000000000000000213219611111111111111111111CONS-FINAL                    000000000014500000000000000000000000000000000000000000000000000000000000000000000000000000000000000000000000000000000000PES00010000001 00000000000000000000000
201509220060000100000000000000021322000000000000000213229611111111111111111111CONS-FINAL                    000000000065000000000000000000000000000000000000000000000000000000000000000000000000000000000000000000000000000000000000PES00010000001 00000000000000000000000
201509220060000100000000000000021323000000000000000213239611111111111111111111CONS-FINAL                    000000000176600000000000000000000000000000000000000000000000000000000000000000000000000000000000000000000000000000000000PES00010000001 00000000000000000000000
201509220060000100000000000000021324000000000000000213249611111111111111111111CONS-FINAL                    000000000007800000000000000000000000000000000000000000000000000000000000000000000000000000000000000000000000000000000000PES00010000001 00000000000000000000000
201509220060000100000000000000021325000000000000000213259611111111111111111111CONS-FINAL                    000000000021500000000000000000000000000000000000000000000000000000000000000000000000000000000000000000000000000000000000PES00010000001 00000000000000000000000
201509220060000100000000000000021326000000000000000213269611111111111111111111CONS-FINAL                    000000000015000000000000000000000000000000000000000000000000000000000000000000000000000000000000000000000000000000000000PES00010000001 00000000000000000000000
201509220060000100000000000000021327000000000000000213279611111111111111111111CONS-FINAL                    000000000031000000000000000000000000000000000000000000000000000000000000000000000000000000000000000000000000000000000000PES00010000001 00000000000000000000000
201509220060000100000000000000021328000000000000000213289611111111111111111111CONS-FINAL                    000000000015000000000000000000000000000000000000000000000000000000000000000000000000000000000000000000000000000000000000PES00010000001 00000000000000000000000
201509220060000100000000000000021329000000000000000213299611111111111111111111CONS-FINAL                    000000000031500000000000000000000000000000000000000000000000000000000000000000000000000000000000000000000000000000000000PES00010000001 00000000000000000000000
201509220060000100000000000000021330000000000000000213309611111111111111111111CONS-FINAL                    000000000067400000000000000000000000000000000000000000000000000000000000000000000000000000000000000000000000000000000000PES00010000001 00000000000000000000000
201509220060000100000000000000021331000000000000000213319611111111111111111111CONS-FINAL                    000000000015500000000000000000000000000000000000000000000000000000000000000000000000000000000000000000000000000000000000PES00010000001 00000000000000000000000
201509230060000100000000000000021332000000000000000213329611111111111111111111CONS-FINAL                    000000000080000000000000000000000000000000000000000000000000000000000000000000000000000000000000000000000000000000000000PES00010000001 00000000000000000000000
201509230060000100000000000000021333000000000000000213339611111111111111111111CONS-FINAL                    000000000054000000000000000000000000000000000000000000000000000000000000000000000000000000000000000000000000000000000000PES00010000001 00000000000000000000000
201509230060000100000000000000021334000000000000000213349611111111111111111111CONS-FINAL                    000000000038000000000000000000000000000000000000000000000000000000000000000000000000000000000000000000000000000000000000PES00010000001 00000000000000000000000
201509230060000100000000000000021335000000000000000213359611111111111111111111CONS-FINAL                    000000000048200000000000000000000000000000000000000000000000000000000000000000000000000000000000000000000000000000000000PES00010000001 00000000000000000000000
201509230060000100000000000000021336000000000000000213369611111111111111111111CONS-FINAL                    000000000024000000000000000000000000000000000000000000000000000000000000000000000000000000000000000000000000000000000000PES00010000001 00000000000000000000000
201509230060000100000000000000021337000000000000000213379611111111111111111111CONS-FINAL                    000000000017500000000000000000000000000000000000000000000000000000000000000000000000000000000000000000000000000000000000PES00010000001 00000000000000000000000
201509240060000100000000000000021338000000000000000213389611111111111111111111CONS-FINAL                    000000000068000000000000000000000000000000000000000000000000000000000000000000000000000000000000000000000000000000000000PES00010000001 00000000000000000000000
201509240060000100000000000000021339000000000000000213399611111111111111111111CONS-FINAL                    000000000213200000000000000000000000000000000000000000000000000000000000000000000000000000000000000000000000000000000000PES00010000001 00000000000000000000000
201509240060000100000000000000021340000000000000000213409611111111111111111111CONS-FINAL                    000000000026000000000000000000000000000000000000000000000000000000000000000000000000000000000000000000000000000000000000PES00010000001 00000000000000000000000
201509240060000100000000000000021341000000000000000213419611111111111111111111CONS-FINAL                    000000000051100000000000000000000000000000000000000000000000000000000000000000000000000000000000000000000000000000000000PES00010000001 00000000000000000000000
201509240060000100000000000000021342000000000000000213429611111111111111111111CONS-FINAL                    000000000017500000000000000000000000000000000000000000000000000000000000000000000000000000000000000000000000000000000000PES00010000001 00000000000000000000000
201509240060000100000000000000021343000000000000000213439611111111111111111111CONS-FINAL                    000000000015000000000000000000000000000000000000000000000000000000000000000000000000000000000000000000000000000000000000PES00010000001 00000000000000000000000
201509240060000100000000000000021344000000000000000213449611111111111111111111CONS-FINAL                    000000000033000000000000000000000000000000000000000000000000000000000000000000000000000000000000000000000000000000000000PES00010000001 00000000000000000000000
201509240060000100000000000000021345000000000000000213459611111111111111111111CONS-FINAL                    000000000065000000000000000000000000000000000000000000000000000000000000000000000000000000000000000000000000000000000000PES00010000001 00000000000000000000000
201509240060000100000000000000021346000000000000000213469611111111111111111111CONS-FINAL                    000000000036400000000000000000000000000000000000000000000000000000000000000000000000000000000000000000000000000000000000PES00010000001 00000000000000000000000
201509240060000100000000000000021347000000000000000213479611111111111111111111CONS-FINAL                    000000000006000000000000000000000000000000000000000000000000000000000000000000000000000000000000000000000000000000000000PES00010000001 00000000000000000000000
201509240060000100000000000000021348000000000000000213489611111111111111111111CONS-FINAL                    000000000075000000000000000000000000000000000000000000000000000000000000000000000000000000000000000000000000000000000000PES00010000001 00000000000000000000000
201509240060000100000000000000021349000000000000000213499611111111111111111111CONS-FINAL                    000000000295000000000000000000000000000000000000000000000000000000000000000000000000000000000000000000000000000000000000PES00010000001 00000000000000000000000
201509250060000100000000000000021350000000000000000213509611111111111111111111CONS-FINAL                    000000000216500000000000000000000000000000000000000000000000000000000000000000000000000000000000000000000000000000000000PES00010000001 00000000000000000000000
