201605020010000100000000000012016041                8000000000030639453975TELEFONICA-DE-ARG-SA          000000000107379000000000000000000000000000000000000000000000000000000000000000000000000000000000000000000000000000000000PES00010000001000000000000000000000000000000000000000000                              000000000000000
201605020010000300000000000000000330                8000000000020222552134GUSTAVO-A-GARCIA              000000000450000000000000000000000000000000000000000000000000000000000000000000000000000000000000000000000000000000000000PES00010000001000000000000000000000000000000000000000000                              000000000000000
201605030010001400000000000000000282                8000000000030708926155TRANSPORTES-UNION-SA          000000000240853000000000000000000000000000000000000000000000000000000000000000000000000000000000000000000000000000000000PES00010000001000000000000000000000000000000000000000000                              000000000000000
201605040010000300000000000000007072                8000000000030710941854RUMAH-JAVA-SRL                000000000318230000000000000000000000000000000000000000000000000000000000000000000000000000000000000000000000000000000000PES00010000001000000000000000000000000000000000000000000                              000000000000000
201605040010000500000000000000002739                8000000000030707309659ALMAZEN-IMPORT-SRL            000000001775070000000000000000000000000000000000000000000000000000000000000000000000000000000000000000000000000000000000PES00010000001000000000000000000000000000000000000000000                              000000000000000
201605040010000500000000000000002740                8000000000030707309659ALMAZEN-IMPORT-SRL            000000000295996000000000000000000000000000000000000000000000000000000000000000000000000000000000000000000000000000000000PES00010000001000000000000000000000000000000000000000000                              000000000000000
201605050010000800000000000000101161                8000000000030545726722SOCIEDAD-COOP-POPULAR-LIM-DE  000000000310460000000000000000000000000000000000000000000000000000000000000000000000000000000000000000000000000000000000PES00010000001000000000000000000000000000000000000000000                              000000000000000
201605050010000600000000000000015818                8000000000030605594634M-Y-F-DISTRIBUIDORA-SA        000000003643824000000000000000000000000000000000000000000000000000000000000000000000000000000000000000000000000000000000PES00010000001000000000000000000000000000000000000000000                              000000000000000
201605060010002400000000000000002663                8000000000030670288613DISTRIBUIDORA-LOA-SA          000000000047870000000000000000000000000000000000000000000000000000000000000000000000000000000000000000000000000000000000PES00010000001000000000000000000000000000000000000000000                              000000000000000
201605090010002600000000000000173194                8000000000033707259839DESING-Y-STOLE-DE-LA-DOLCE-SRL000000000707560000000000000000000000000000000000000000000000000000000000000000000000000000000000000000000000000000000000PES00010000001000000000000000000000000000000000000000000                              000000000000000
201605100010000300000000000000003212                8000000000030711190895AUSTRAL-ALARMAS-SRL           000000000036300000000000000000000000000000000000000000000000000000000000000000000000000000000000000000000000000000000000PES00010000001000000000000000000000000000000000000000000                              000000000000000
201605110010250500000000000000003818                8000000000030506730038SA-IMPORT-Y-EXPORT-DE-LA-PATAG000000000017449000000000000000000000000000000000000000000000000000000000000000000000000000000000000000000000000000000000PES00010000001000000000000000000000000000000000000000000                              000000000000000
201605120010000200000000000000001790                8000000000020161974847FABIAN-GERONIMO               000000000278203000000000000000000000000000000000000000000000000000000000000000000000000000000000000000000000000000000000PES00010000001000000000000000000000000000000000000000000                              000000000000000
201605120010000500000000000000010122                8000000000030711778302MDK-SRL                       000000001023358000000000000000000000000000000000000000000000000000000000000000000000000000000000000000000000000000000000PES00010000001000000000000000000000000000000000000000000                              000000000000000
201605160010009800000000000000008784                8000000000030709007161AXEN-SRL                      000000000416748000000000000000000000000000000000000000000000000000000000000000000000000000000000000000000000000000000000PES00010000001000000000000000000000000000000000000000000                              000000000000000
201605160010000700000000000000004167                8000000000030709222399ARAK-MADU-SRL                 000000000125078000000000000000000000000000000000000000000000000000000000000000000000000000000000000000000000000000000000PES00010000001000000000000000000000000000000000000000000                              000000000000000
201605160010000700000000000000004166                8000000000030709222399ARAK-MADU-SRL                 000000001253221000000000000000000000000000000000000000000000000000000000000000000000000000000000000000000000000000000000PES00010000001000000000000000000000000000000000000000000                              000000000000000
201605160010000700000000000000004165                8000000000030709222399ARAK-MADU-SRL                 000000001128712000000000000000000000000000000000000000000000000000000000000000000000000000000000000000000000000000000000PES00010000001000000000000000000000000000000000000000000                              000000000000000
201605200010000100000000000000000019                8000000000030714670618CONDOMINIO-DE-BERSAIS-CESAR-L 000000002662000000000000000000000000000000000000000000000000000000000000000000000000000000000000000000000000000000000000PES00010000001000000000000000000000000000000000000000000                              000000000000000
201605270010000400000000000000001226                8000000000020126715111ALEJANDRO-LUIS-BUSTOS         000000000035995000000000000000000000000000000000000000000000000000000000000000000000000000000000000000000000000000000000PES00010000001000000000000000000000000000000000000000000                              000000000000000
201605280010000300000000000000000253                8000000000030708525436JAVIER-R-BRAIDOT-Y-WALTER-G-  000000001937233000000000000000000000000000000000000000000000000000000000000000000000000000000000000000000000000000000000PES00010000001000000000000000000000000000000000000000000                              000000000000000
