201504010060000100000000000000018842000000000000000188429611111111111111111111CONSUMIDOR-FINAL              000000000049500000000000000000000000000000000000000000000000000000000000000000000000000000000000000000000000000000000000PES00010000001 00000000000000000000000
201504010060000100000000000000018843000000000000000188439611111111111111111111CONSUMIDOR-FINAL              000000000025000000000000000000000000000000000000000000000000000000000000000000000000000000000000000000000000000000000000PES00010000001 00000000000000000000000
201504010060000100000000000000018844000000000000000188449611111111111111111111CONSUMIDOR-FINAL              000000000007500000000000000000000000000000000000000000000000000000000000000000000000000000000000000000000000000000000000PES00010000001 00000000000000000000000
201504010060000100000000000000018845000000000000000188459611111111111111111111CONSUMIDOR-FINAL              000000000028000000000000000000000000000000000000000000000000000000000000000000000000000000000000000000000000000000000000PES00010000001 00000000000000000000000
201504010060000100000000000000018846000000000000000188469611111111111111111111CONSUMIDOR-FINAL              000000000024500000000000000000000000000000000000000000000000000000000000000000000000000000000000000000000000000000000000PES00010000001 00000000000000000000000
201504010060000100000000000000018847000000000000000188479611111111111111111111CONSUMIDOR-FINAL              000000000116000000000000000000000000000000000000000000000000000000000000000000000000000000000000000000000000000000000000PES00010000001 00000000000000000000000
201504010060000100000000000000018848000000000000000188489611111111111111111111CONSUMIDOR-FINAL              000000000049000000000000000000000000000000000000000000000000000000000000000000000000000000000000000000000000000000000000PES00010000001 00000000000000000000000
201504010060000100000000000000018849000000000000000188499611111111111111111111CONSUMIDOR-FINAL              000000000107400000000000000000000000000000000000000000000000000000000000000000000000000000000000000000000000000000000000PES00010000001 00000000000000000000000
201504010060000100000000000000018850000000000000000188509611111111111111111111CONSUMIDOR-FINAL              000000000088000000000000000000000000000000000000000000000000000000000000000000000000000000000000000000000000000000000000PES00010000001 00000000000000000000000
201504010060000100000000000000018851000000000000000188519611111111111111111111CONSUMIDOR-FINAL              000000000030000000000000000000000000000000000000000000000000000000000000000000000000000000000000000000000000000000000000PES00010000001 00000000000000000000000
201504010060000100000000000000018852000000000000000188529611111111111111111111CONSUMIDOR-FINAL              000000000038000000000000000000000000000000000000000000000000000000000000000000000000000000000000000000000000000000000000PES00010000001 00000000000000000000000
201504010060000100000000000000018853000000000000000188539611111111111111111111CONSUMIDOR-FINAL              000000000018000000000000000000000000000000000000000000000000000000000000000000000000000000000000000000000000000000000000PES00010000001 00000000000000000000000
201504010060000100000000000000018854000000000000000188549611111111111111111111CONSUMIDOR-FINAL              000000000087000000000000000000000000000000000000000000000000000000000000000000000000000000000000000000000000000000000000PES00010000001 00000000000000000000000
201504010060000100000000000000018855000000000000000188559611111111111111111111CONSUMIDOR-FINAL              000000000034000000000000000000000000000000000000000000000000000000000000000000000000000000000000000000000000000000000000PES00010000001 00000000000000000000000
201504010060000100000000000000018856000000000000000188569611111111111111111111CONSUMIDOR-FINAL              000000000070300000000000000000000000000000000000000000000000000000000000000000000000000000000000000000000000000000000000PES00010000001 00000000000000000000000
201504010060000100000000000000018857000000000000000188579611111111111111111111CONSUMIDOR-FINAL              000000000059100000000000000000000000000000000000000000000000000000000000000000000000000000000000000000000000000000000000PES00010000001 00000000000000000000000
201504010060000100000000000000018858000000000000000188589611111111111111111111CONSUMIDOR-FINAL              000000000062500000000000000000000000000000000000000000000000000000000000000000000000000000000000000000000000000000000000PES00010000001 00000000000000000000000
201504010060000100000000000000018859000000000000000188599611111111111111111111CONSUMIDOR-FINAL              000000000028000000000000000000000000000000000000000000000000000000000000000000000000000000000000000000000000000000000000PES00010000001 00000000000000000000000
201504010060000100000000000000018860000000000000000188609611111111111111111111CONSUMIDOR-FINAL              000000000041000000000000000000000000000000000000000000000000000000000000000000000000000000000000000000000000000000000000PES00010000001 00000000000000000000000
201504010060000100000000000000018861000000000000000188619611111111111111111111CONSUMIDOR-FINAL              000000000013000000000000000000000000000000000000000000000000000000000000000000000000000000000000000000000000000000000000PES00010000001 00000000000000000000000
201504010060000100000000000000018862000000000000000188629611111111111111111111CONSUMIDOR-FINAL              000000000014000000000000000000000000000000000000000000000000000000000000000000000000000000000000000000000000000000000000PES00010000001 00000000000000000000000
201504040060000100000000000000018863000000000000000188639611111111111111111111CONSUMIDOR-FINAL              000000000065000000000000000000000000000000000000000000000000000000000000000000000000000000000000000000000000000000000000PES00010000001 00000000000000000000000
201504040060000100000000000000018864000000000000000188649611111111111111111111CONSUMIDOR-FINAL              000000000017500000000000000000000000000000000000000000000000000000000000000000000000000000000000000000000000000000000000PES00010000001 00000000000000000000000
201504040060000100000000000000018865000000000000000188659611111111111111111111CONSUMIDOR-FINAL              000000000056000000000000000000000000000000000000000000000000000000000000000000000000000000000000000000000000000000000000PES00010000001 00000000000000000000000
201504040060000100000000000000018866000000000000000188669611111111111111111111CONSUMIDOR-FINAL              000000000417300000000000000000000000000000000000000000000000000000000000000000000000000000000000000000000000000000000000PES00010000001 00000000000000000000000
201504040060000100000000000000018867000000000000000188679611111111111111111111CONSUMIDOR-FINAL              000000000035000000000000000000000000000000000000000000000000000000000000000000000000000000000000000000000000000000000000PES00010000001 00000000000000000000000
201504040060000100000000000000018868000000000000000188689611111111111111111111CONSUMIDOR-FINAL              000000000039500000000000000000000000000000000000000000000000000000000000000000000000000000000000000000000000000000000000PES00010000001 00000000000000000000000
201504040060000100000000000000018869000000000000000188699611111111111111111111CONSUMIDOR-FINAL              000000000059000000000000000000000000000000000000000000000000000000000000000000000000000000000000000000000000000000000000PES00010000001 00000000000000000000000
201504040060000100000000000000018870000000000000000188709611111111111111111111CONSUMIDOR-FINAL              000000000038000000000000000000000000000000000000000000000000000000000000000000000000000000000000000000000000000000000000PES00010000001 00000000000000000000000
201504040060000100000000000000018871000000000000000188719611111111111111111111CONSUMIDOR-FINAL              000000000034500000000000000000000000000000000000000000000000000000000000000000000000000000000000000000000000000000000000PES00010000001 00000000000000000000000
201504040060000100000000000000018872000000000000000188729611111111111111111111CONSUMIDOR-FINAL              000000000007000000000000000000000000000000000000000000000000000000000000000000000000000000000000000000000000000000000000PES00010000001 00000000000000000000000
201504040060000100000000000000018873000000000000000188739611111111111111111111CONSUMIDOR-FINAL              000000000015000000000000000000000000000000000000000000000000000000000000000000000000000000000000000000000000000000000000PES00010000001 00000000000000000000000
201504040060000100000000000000018874000000000000000188749611111111111111111111CONSUMIDOR-FINAL              000000000057800000000000000000000000000000000000000000000000000000000000000000000000000000000000000000000000000000000000PES00010000001 00000000000000000000000
201504040060000100000000000000018875000000000000000188759611111111111111111111CONSUMIDOR-FINAL              000000000007300000000000000000000000000000000000000000000000000000000000000000000000000000000000000000000000000000000000PES00010000001 00000000000000000000000
201504040060000100000000000000018876000000000000000188769611111111111111111111CONSUMIDOR-FINAL              000000000029000000000000000000000000000000000000000000000000000000000000000000000000000000000000000000000000000000000000PES00010000001 00000000000000000000000
201504040060000100000000000000018877000000000000000188779611111111111111111111CONSUMIDOR-FINAL              000000000071700000000000000000000000000000000000000000000000000000000000000000000000000000000000000000000000000000000000PES00010000001 00000000000000000000000
201504040060000100000000000000018878000000000000000188789611111111111111111111CONSUMIDOR-FINAL              000000000047500000000000000000000000000000000000000000000000000000000000000000000000000000000000000000000000000000000000PES00010000001 00000000000000000000000
201504040060000100000000000000018879000000000000000188799611111111111111111111CONSUMIDOR-FINAL              000000000038500000000000000000000000000000000000000000000000000000000000000000000000000000000000000000000000000000000000PES00010000001 00000000000000000000000
201504040060000100000000000000018880000000000000000188809611111111111111111111CONSUMIDOR-FINAL              000000000124300000000000000000000000000000000000000000000000000000000000000000000000000000000000000000000000000000000000PES00010000001 00000000000000000000000
201504040060000100000000000000018881000000000000000188819611111111111111111111CONSUMIDOR-FINAL              000000000094000000000000000000000000000000000000000000000000000000000000000000000000000000000000000000000000000000000000PES00010000001 00000000000000000000000
201504040060000100000000000000018882000000000000000188829611111111111111111111CONSUMIDOR-FINAL              000000000285700000000000000000000000000000000000000000000000000000000000000000000000000000000000000000000000000000000000PES00010000001 00000000000000000000000
201504040060000100000000000000018883000000000000000188839611111111111111111111CONSUMIDOR-FINAL              000000000030500000000000000000000000000000000000000000000000000000000000000000000000000000000000000000000000000000000000PES00010000001 00000000000000000000000
201504040060000100000000000000018884000000000000000188849611111111111111111111CONSUMIDOR-FINAL              000000000017500000000000000000000000000000000000000000000000000000000000000000000000000000000000000000000000000000000000PES00010000001 00000000000000000000000
201504040060000100000000000000018885000000000000000188859611111111111111111111CONSUMIDOR-FINAL              000000000019500000000000000000000000000000000000000000000000000000000000000000000000000000000000000000000000000000000000PES00010000001 00000000000000000000000
201504040060000100000000000000018886000000000000000188869611111111111111111111CONSUMIDOR-FINAL              000000000108000000000000000000000000000000000000000000000000000000000000000000000000000000000000000000000000000000000000PES00010000001 00000000000000000000000
201504040060000100000000000000018887000000000000000188879611111111111111111111CONSUMIDOR-FINAL              000000000015000000000000000000000000000000000000000000000000000000000000000000000000000000000000000000000000000000000000PES00010000001 00000000000000000000000
201504040060000100000000000000018888000000000000000188889611111111111111111111CONSUMIDOR-FINAL              000000000030000000000000000000000000000000000000000000000000000000000000000000000000000000000000000000000000000000000000PES00010000001 00000000000000000000000
201504040060000100000000000000018889000000000000000188899611111111111111111111CONSUMIDOR-FINAL              000000000029000000000000000000000000000000000000000000000000000000000000000000000000000000000000000000000000000000000000PES00010000001 00000000000000000000000
201504040060000100000000000000018890000000000000000188909611111111111111111111CONSUMIDOR-FINAL              000000000025000000000000000000000000000000000000000000000000000000000000000000000000000000000000000000000000000000000000PES00010000001 00000000000000000000000
201504040060000100000000000000018891000000000000000188919611111111111111111111CONSUMIDOR-FINAL              000000000050000000000000000000000000000000000000000000000000000000000000000000000000000000000000000000000000000000000000PES00010000001 00000000000000000000000
201504060060000100000000000000018892000000000000000188929611111111111111111111CONSUMIDOR-FINAL              000000000042500000000000000000000000000000000000000000000000000000000000000000000000000000000000000000000000000000000000PES00010000001 00000000000000000000000
201504060060000100000000000000018893000000000000000188939611111111111111111111CONSUMIDOR-FINAL              000000000015000000000000000000000000000000000000000000000000000000000000000000000000000000000000000000000000000000000000PES00010000001 00000000000000000000000
201504060060000100000000000000018894000000000000000188949611111111111111111111CONSUMIDOR-FINAL              000000000037500000000000000000000000000000000000000000000000000000000000000000000000000000000000000000000000000000000000PES00010000001 00000000000000000000000
201504060010000100000000000000000925000000000000000009258000000000033633107799ZANOTTI-ALEJANDRO-Y-ZANOTTI-ED000000000046000000000000000000000000000000000000000000000000000000000000000000000000000000000000000000000000000000000000PES00010000001 00000000000000000000000
201504060060000100000000000000018895000000000000000188959611111111111111111111CONSUMIDOR-FINAL              000000000040500000000000000000000000000000000000000000000000000000000000000000000000000000000000000000000000000000000000PES00010000001 00000000000000000000000
201504060060000100000000000000018896000000000000000188969611111111111111111111CONSUMIDOR-FINAL              000000000022500000000000000000000000000000000000000000000000000000000000000000000000000000000000000000000000000000000000PES00010000001 00000000000000000000000
201504060060000100000000000000018897000000000000000188979611111111111111111111CONSUMIDOR-FINAL              000000000045700000000000000000000000000000000000000000000000000000000000000000000000000000000000000000000000000000000000PES00010000001 00000000000000000000000
201504060060000100000000000000018898000000000000000188989611111111111111111111CONSUMIDOR-FINAL              000000000009500000000000000000000000000000000000000000000000000000000000000000000000000000000000000000000000000000000000PES00010000001 00000000000000000000000
201504060060000100000000000000018899000000000000000188999611111111111111111111CONSUMIDOR-FINAL              000000000013500000000000000000000000000000000000000000000000000000000000000000000000000000000000000000000000000000000000PES00010000001 00000000000000000000000
201504060060000100000000000000018900000000000000000189009611111111111111111111CONSUMIDOR-FINAL              000000000017300000000000000000000000000000000000000000000000000000000000000000000000000000000000000000000000000000000000PES00010000001 00000000000000000000000
201504060060000100000000000000018901000000000000000189019611111111111111111111CONSUMIDOR-FINAL              000000000017500000000000000000000000000000000000000000000000000000000000000000000000000000000000000000000000000000000000PES00010000001 00000000000000000000000
201504070060000100000000000000018902000000000000000189029611111111111111111111CONSUMIDOR-FINAL              000000000036500000000000000000000000000000000000000000000000000000000000000000000000000000000000000000000000000000000000PES00010000001 00000000000000000000000
201504070060000100000000000000018903000000000000000189039611111111111111111111CONSUMIDOR-FINAL              000000000022500000000000000000000000000000000000000000000000000000000000000000000000000000000000000000000000000000000000PES00010000001 00000000000000000000000
201504070060000100000000000000018904000000000000000189049611111111111111111111CONSUMIDOR-FINAL              000000000035000000000000000000000000000000000000000000000000000000000000000000000000000000000000000000000000000000000000PES00010000001 00000000000000000000000
201504070060000100000000000000018905000000000000000189059611111111111111111111CONSUMIDOR-FINAL              000000000031600000000000000000000000000000000000000000000000000000000000000000000000000000000000000000000000000000000000PES00010000001 00000000000000000000000
201504070060000100000000000000018906000000000000000189069611111111111111111111CONSUMIDOR-FINAL              000000000264900000000000000000000000000000000000000000000000000000000000000000000000000000000000000000000000000000000000PES00010000001 00000000000000000000000
201504070060000100000000000000018907000000000000000189079611111111111111111111CONSUMIDOR-FINAL              000000000048000000000000000000000000000000000000000000000000000000000000000000000000000000000000000000000000000000000000PES00010000001 00000000000000000000000
201504070060000100000000000000018908000000000000000189089611111111111111111111CONSUMIDOR-FINAL              000000000048900000000000000000000000000000000000000000000000000000000000000000000000000000000000000000000000000000000000PES00010000001 00000000000000000000000
201504070060000100000000000000018909000000000000000189099611111111111111111111CONSUMIDOR-FINAL              000000000065300000000000000000000000000000000000000000000000000000000000000000000000000000000000000000000000000000000000PES00010000001 00000000000000000000000
201504070060000100000000000000018910000000000000000189109611111111111111111111CONSUMIDOR-FINAL              000000000012000000000000000000000000000000000000000000000000000000000000000000000000000000000000000000000000000000000000PES00010000001 00000000000000000000000
201504070060000100000000000000018911000000000000000189119611111111111111111111CONSUMIDOR-FINAL              000000000053500000000000000000000000000000000000000000000000000000000000000000000000000000000000000000000000000000000000PES00010000001 00000000000000000000000
201504080060000100000000000000018912000000000000000189129611111111111111111111CONSUMIDOR-FINAL              000000000154600000000000000000000000000000000000000000000000000000000000000000000000000000000000000000000000000000000000PES00010000001 00000000000000000000000
201504080060000100000000000000018913000000000000000189139611111111111111111111CONSUMIDOR-FINAL              000000000049500000000000000000000000000000000000000000000000000000000000000000000000000000000000000000000000000000000000PES00010000001 00000000000000000000000
201504080060000100000000000000018914000000000000000189149611111111111111111111CONSUMIDOR-FINAL              000000000024800000000000000000000000000000000000000000000000000000000000000000000000000000000000000000000000000000000000PES00010000001 00000000000000000000000
201504080060000100000000000000018915000000000000000189159611111111111111111111CONSUMIDOR-FINAL              000000000012000000000000000000000000000000000000000000000000000000000000000000000000000000000000000000000000000000000000PES00010000001 00000000000000000000000
201504080060000100000000000000018916000000000000000189169611111111111111111111CONSUMIDOR-FINAL              000000000059500000000000000000000000000000000000000000000000000000000000000000000000000000000000000000000000000000000000PES00010000001 00000000000000000000000
201504080060000100000000000000018917000000000000000189179611111111111111111111CONSUMIDOR-FINAL              000000000149500000000000000000000000000000000000000000000000000000000000000000000000000000000000000000000000000000000000PES00010000001 00000000000000000000000
201504080060000100000000000000018918000000000000000189189611111111111111111111CONSUMIDOR-FINAL              000000000009000000000000000000000000000000000000000000000000000000000000000000000000000000000000000000000000000000000000PES00010000001 00000000000000000000000
201504080060000100000000000000018919000000000000000189199611111111111111111111CONSUMIDOR-FINAL              000000000026000000000000000000000000000000000000000000000000000000000000000000000000000000000000000000000000000000000000PES00010000001 00000000000000000000000
201504080060000100000000000000018920000000000000000189209611111111111111111111CONSUMIDOR-FINAL              000000000018000000000000000000000000000000000000000000000000000000000000000000000000000000000000000000000000000000000000PES00010000001 00000000000000000000000
201504080060000100000000000000018921000000000000000189219611111111111111111111CONSUMIDOR-FINAL              000000000026000000000000000000000000000000000000000000000000000000000000000000000000000000000000000000000000000000000000PES00010000001 00000000000000000000000
201504080060000100000000000000018922000000000000000189229611111111111111111111CONSUMIDOR-FINAL              000000000065000000000000000000000000000000000000000000000000000000000000000000000000000000000000000000000000000000000000PES00010000001 00000000000000000000000
201504090060000100000000000000018923000000000000000189239611111111111111111111CONSUMIDOR-FINAL              000000000049500000000000000000000000000000000000000000000000000000000000000000000000000000000000000000000000000000000000PES00010000001 00000000000000000000000
201504090010000100000000000000000926000000000000000009268000000000030709381144RYM-ENERGY-SISTEM-DE-ARG-SA   000000000030000000000000000000000000000000000000000000000000000000000000000000000000000000000000000000000000000000000000PES00010000001 00000000000000000000000
201504090060000100000000000000018924000000000000000189249611111111111111111111CONSUMIDOR-FINAL              000000000146100000000000000000000000000000000000000000000000000000000000000000000000000000000000000000000000000000000000PES00010000001 00000000000000000000000
201504090060000100000000000000018925000000000000000189259611111111111111111111CONSUMIDOR-FINAL              000000000026000000000000000000000000000000000000000000000000000000000000000000000000000000000000000000000000000000000000PES00010000001 00000000000000000000000
201504090060000100000000000000018926000000000000000189269611111111111111111111CONSUMIDOR-FINAL              000000000040500000000000000000000000000000000000000000000000000000000000000000000000000000000000000000000000000000000000PES00010000001 00000000000000000000000
201504090060000100000000000000018927000000000000000189279611111111111111111111CONSUMIDOR-FINAL              000000000020000000000000000000000000000000000000000000000000000000000000000000000000000000000000000000000000000000000000PES00010000001 00000000000000000000000
201504090060000100000000000000018928000000000000000189289611111111111111111111CONSUMIDOR-FINAL              000000000049900000000000000000000000000000000000000000000000000000000000000000000000000000000000000000000000000000000000PES00010000001 00000000000000000000000
201504090060000100000000000000018929000000000000000189299611111111111111111111CONSUMIDOR-FINAL              000000000009800000000000000000000000000000000000000000000000000000000000000000000000000000000000000000000000000000000000PES00010000001 00000000000000000000000
201504090060000100000000000000018930000000000000000189309611111111111111111111CONSUMIDOR-FINAL              000000000017000000000000000000000000000000000000000000000000000000000000000000000000000000000000000000000000000000000000PES00010000001 00000000000000000000000
201504090060000100000000000000018931000000000000000189319611111111111111111111CONSUMIDOR-FINAL              000000000038500000000000000000000000000000000000000000000000000000000000000000000000000000000000000000000000000000000000PES00010000001 00000000000000000000000
201504090060000100000000000000018932000000000000000189329611111111111111111111CONSUMIDOR-FINAL              000000000121800000000000000000000000000000000000000000000000000000000000000000000000000000000000000000000000000000000000PES00010000001 00000000000000000000000
201504090060000100000000000000018933000000000000000189339611111111111111111111CONSUMIDOR-FINAL              000000000015000000000000000000000000000000000000000000000000000000000000000000000000000000000000000000000000000000000000PES00010000001 00000000000000000000000
201504100060000100000000000000018934000000000000000189349611111111111111111111CONSUMIDOR-FINAL              000000000025000000000000000000000000000000000000000000000000000000000000000000000000000000000000000000000000000000000000PES00010000001 00000000000000000000000
201504100060000100000000000000018935000000000000000189359611111111111111111111CONSUMIDOR-FINAL              000000000075100000000000000000000000000000000000000000000000000000000000000000000000000000000000000000000000000000000000PES00010000001 00000000000000000000000
201504100010000100000000000000000928000000000000000009288000000000020078884275-STEMPKOWSKI-LEONADO-JAVIER   000000000345000000000000000000000000000000000000000000000000000000000000000000000000000000000000000000000000000000000000PES00010000001 00000000000000000000000
201504100060000100000000000000018936000000000000000189369611111111111111111111CONSUMIDOR-FINAL              000000000042500000000000000000000000000000000000000000000000000000000000000000000000000000000000000000000000000000000000PES00010000001 00000000000000000000000
201504100060000100000000000000018937000000000000000189379611111111111111111111CONSUMIDOR-FINAL              000000000113500000000000000000000000000000000000000000000000000000000000000000000000000000000000000000000000000000000000PES00010000001 00000000000000000000000
201504100060000100000000000000018938000000000000000189389611111111111111111111CONSUMIDOR-FINAL              000000000028000000000000000000000000000000000000000000000000000000000000000000000000000000000000000000000000000000000000PES00010000001 00000000000000000000000
201504100060000100000000000000018939000000000000000189399611111111111111111111CONSUMIDOR-FINAL              000000000073800000000000000000000000000000000000000000000000000000000000000000000000000000000000000000000000000000000000PES00010000001 00000000000000000000000
201504100060000100000000000000018940000000000000000189409611111111111111111111CONSUMIDOR-FINAL              000000000026000000000000000000000000000000000000000000000000000000000000000000000000000000000000000000000000000000000000PES00010000001 00000000000000000000000
201504100060000100000000000000018941000000000000000189419611111111111111111111CONSUMIDOR-FINAL              000000000012000000000000000000000000000000000000000000000000000000000000000000000000000000000000000000000000000000000000PES00010000001 00000000000000000000000
201504100060000100000000000000018942000000000000000189429611111111111111111111CONSUMIDOR-FINAL              000000000003500000000000000000000000000000000000000000000000000000000000000000000000000000000000000000000000000000000000PES00010000001 00000000000000000000000
201504100060000100000000000000018943000000000000000189439611111111111111111111CONSUMIDOR-FINAL              000000000241000000000000000000000000000000000000000000000000000000000000000000000000000000000000000000000000000000000000PES00010000001 00000000000000000000000
201504100060000100000000000000018944000000000000000189449611111111111111111111CONSUMIDOR-FINAL              000000000029000000000000000000000000000000000000000000000000000000000000000000000000000000000000000000000000000000000000PES00010000001 00000000000000000000000
201504100060000100000000000000018945000000000000000189459611111111111111111111CONSUMIDOR-FINAL              000000000010500000000000000000000000000000000000000000000000000000000000000000000000000000000000000000000000000000000000PES00010000001 00000000000000000000000
201504110060000100000000000000018946000000000000000189469611111111111111111111CONSUMIDOR-FINAL              000000000166000000000000000000000000000000000000000000000000000000000000000000000000000000000000000000000000000000000000PES00010000001 00000000000000000000000
201504110060000100000000000000018947000000000000000189479611111111111111111111CONSUMIDOR-FINAL              000000000015000000000000000000000000000000000000000000000000000000000000000000000000000000000000000000000000000000000000PES00010000001 00000000000000000000000
201504110060000100000000000000018948000000000000000189489611111111111111111111CONSUMIDOR-FINAL              000000000091500000000000000000000000000000000000000000000000000000000000000000000000000000000000000000000000000000000000PES00010000001 00000000000000000000000
201504110060000100000000000000018949000000000000000189499611111111111111111111CONSUMIDOR-FINAL              000000000176500000000000000000000000000000000000000000000000000000000000000000000000000000000000000000000000000000000000PES00010000001 00000000000000000000000
201504110060000100000000000000018950000000000000000189509611111111111111111111CONSUMIDOR-FINAL              000000000081000000000000000000000000000000000000000000000000000000000000000000000000000000000000000000000000000000000000PES00010000001 00000000000000000000000
201504110060000100000000000000018951000000000000000189519611111111111111111111CONSUMIDOR-FINAL              000000000333800000000000000000000000000000000000000000000000000000000000000000000000000000000000000000000000000000000000PES00010000001 00000000000000000000000
201504110060000100000000000000018952000000000000000189529611111111111111111111CONSUMIDOR-FINAL              000000000085500000000000000000000000000000000000000000000000000000000000000000000000000000000000000000000000000000000000PES00010000001 00000000000000000000000
201504110060000100000000000000018953000000000000000189539611111111111111111111CONSUMIDOR-FINAL              000000000067000000000000000000000000000000000000000000000000000000000000000000000000000000000000000000000000000000000000PES00010000001 00000000000000000000000
201504110060000100000000000000018954000000000000000189549611111111111111111111CONSUMIDOR-FINAL              000000000139500000000000000000000000000000000000000000000000000000000000000000000000000000000000000000000000000000000000PES00010000001 00000000000000000000000
201504110060000100000000000000018955000000000000000189559611111111111111111111CONSUMIDOR-FINAL              000000000037000000000000000000000000000000000000000000000000000000000000000000000000000000000000000000000000000000000000PES00010000001 00000000000000000000000
201504110060000100000000000000018956000000000000000189569611111111111111111111CONSUMIDOR-FINAL              000000000058800000000000000000000000000000000000000000000000000000000000000000000000000000000000000000000000000000000000PES00010000001 00000000000000000000000
201504110060000100000000000000018957000000000000000189579611111111111111111111CONSUMIDOR-FINAL              000000000035500000000000000000000000000000000000000000000000000000000000000000000000000000000000000000000000000000000000PES00010000001 00000000000000000000000
201504110060000100000000000000018958000000000000000189589611111111111111111111CONSUMIDOR-FINAL              000000000053500000000000000000000000000000000000000000000000000000000000000000000000000000000000000000000000000000000000PES00010000001 00000000000000000000000
201504110060000100000000000000018959000000000000000189599611111111111111111111CONSUMIDOR-FINAL              000000000061500000000000000000000000000000000000000000000000000000000000000000000000000000000000000000000000000000000000PES00010000001 00000000000000000000000
201504110060000100000000000000018960000000000000000189609611111111111111111111CONSUMIDOR-FINAL              000000000015600000000000000000000000000000000000000000000000000000000000000000000000000000000000000000000000000000000000PES00010000001 00000000000000000000000
201504110060000100000000000000018961000000000000000189619611111111111111111111CONSUMIDOR-FINAL              000000000017500000000000000000000000000000000000000000000000000000000000000000000000000000000000000000000000000000000000PES00010000001 00000000000000000000000
201504110060000100000000000000018962000000000000000189629611111111111111111111CONSUMIDOR-FINAL              000000000042000000000000000000000000000000000000000000000000000000000000000000000000000000000000000000000000000000000000PES00010000001 00000000000000000000000
201504110060000100000000000000018963000000000000000189639611111111111111111111CONSUMIDOR-FINAL              000000000018000000000000000000000000000000000000000000000000000000000000000000000000000000000000000000000000000000000000PES00010000001 00000000000000000000000
201504110060000100000000000000018964000000000000000189649611111111111111111111CONSUMIDOR-FINAL              000000000050500000000000000000000000000000000000000000000000000000000000000000000000000000000000000000000000000000000000PES00010000001 00000000000000000000000
201504110060000100000000000000018965000000000000000189659611111111111111111111CONSUMIDOR-FINAL              000000000061700000000000000000000000000000000000000000000000000000000000000000000000000000000000000000000000000000000000PES00010000001 00000000000000000000000
201504110060000100000000000000018966000000000000000189669611111111111111111111CONSUMIDOR-FINAL              000000000160800000000000000000000000000000000000000000000000000000000000000000000000000000000000000000000000000000000000PES00010000001 00000000000000000000000
201504110060000100000000000000018967000000000000000189679611111111111111111111CONSUMIDOR-FINAL              000000000017500000000000000000000000000000000000000000000000000000000000000000000000000000000000000000000000000000000000PES00010000001 00000000000000000000000
201504110060000100000000000000018968000000000000000189689611111111111111111111CONSUMIDOR-FINAL              000000000068300000000000000000000000000000000000000000000000000000000000000000000000000000000000000000000000000000000000PES00010000001 00000000000000000000000
201504110060000100000000000000018969000000000000000189699611111111111111111111CONSUMIDOR-FINAL              000000000010000000000000000000000000000000000000000000000000000000000000000000000000000000000000000000000000000000000000PES00010000001 00000000000000000000000
201504110060000100000000000000018970000000000000000189709611111111111111111111CONSUMIDOR-FINAL              000000000037500000000000000000000000000000000000000000000000000000000000000000000000000000000000000000000000000000000000PES00010000001 00000000000000000000000
201504110060000100000000000000018971000000000000000189719611111111111111111111CONSUMIDOR-FINAL              000000000044700000000000000000000000000000000000000000000000000000000000000000000000000000000000000000000000000000000000PES00010000001 00000000000000000000000
201504110060000100000000000000018972000000000000000189729611111111111111111111CONSUMIDOR-FINAL              000000000006300000000000000000000000000000000000000000000000000000000000000000000000000000000000000000000000000000000000PES00010000001 00000000000000000000000
201504110060000100000000000000018973000000000000000189739611111111111111111111CONSUMIDOR-FINAL              000000000099000000000000000000000000000000000000000000000000000000000000000000000000000000000000000000000000000000000000PES00010000001 00000000000000000000000
201504110060000100000000000000018974000000000000000189749611111111111111111111CONSUMIDOR-FINAL              000000000019500000000000000000000000000000000000000000000000000000000000000000000000000000000000000000000000000000000000PES00010000001 00000000000000000000000
201504110060000100000000000000018975000000000000000189759611111111111111111111CONSUMIDOR-FINAL              000000000023200000000000000000000000000000000000000000000000000000000000000000000000000000000000000000000000000000000000PES00010000001 00000000000000000000000
201504110060000100000000000000018976000000000000000189769611111111111111111111CONSUMIDOR-FINAL              000000000089000000000000000000000000000000000000000000000000000000000000000000000000000000000000000000000000000000000000PES00010000001 00000000000000000000000
201504110060000100000000000000018977000000000000000189779611111111111111111111CONSUMIDOR-FINAL              000000000167000000000000000000000000000000000000000000000000000000000000000000000000000000000000000000000000000000000000PES00010000001 00000000000000000000000
201504110060000100000000000000018978000000000000000189789611111111111111111111CONSUMIDOR-FINAL              000000000058700000000000000000000000000000000000000000000000000000000000000000000000000000000000000000000000000000000000PES00010000001 00000000000000000000000
201504130060000100000000000000018979000000000000000189799611111111111111111111CONSUMIDOR-FINAL              000000000039000000000000000000000000000000000000000000000000000000000000000000000000000000000000000000000000000000000000PES00010000001 00000000000000000000000
201504130060000100000000000000018980000000000000000189809611111111111111111111CONSUMIDOR-FINAL              000000000257000000000000000000000000000000000000000000000000000000000000000000000000000000000000000000000000000000000000PES00010000001 00000000000000000000000
201504130060000100000000000000018981000000000000000189819611111111111111111111CONSUMIDOR-FINAL              000000000041500000000000000000000000000000000000000000000000000000000000000000000000000000000000000000000000000000000000PES00010000001 00000000000000000000000
201504130060000100000000000000018982000000000000000189829611111111111111111111CONSUMIDOR-FINAL              000000000028500000000000000000000000000000000000000000000000000000000000000000000000000000000000000000000000000000000000PES00010000001 00000000000000000000000
201504130060000100000000000000018983000000000000000189839611111111111111111111CONSUMIDOR-FINAL              000000000039500000000000000000000000000000000000000000000000000000000000000000000000000000000000000000000000000000000000PES00010000001 00000000000000000000000
201504130060000100000000000000018984000000000000000189849611111111111111111111CONSUMIDOR-FINAL              000000000062500000000000000000000000000000000000000000000000000000000000000000000000000000000000000000000000000000000000PES00010000001 00000000000000000000000
201504130060000100000000000000018985000000000000000189859611111111111111111111CONSUMIDOR-FINAL              000000000015000000000000000000000000000000000000000000000000000000000000000000000000000000000000000000000000000000000000PES00010000001 00000000000000000000000
201504130060000100000000000000018986000000000000000189869611111111111111111111CONSUMIDOR-FINAL              000000000118000000000000000000000000000000000000000000000000000000000000000000000000000000000000000000000000000000000000PES00010000001 00000000000000000000000
201504130060000100000000000000018987000000000000000189879611111111111111111111CONSUMIDOR-FINAL              000000000008500000000000000000000000000000000000000000000000000000000000000000000000000000000000000000000000000000000000PES00010000001 00000000000000000000000
201504130060000100000000000000018988000000000000000189889611111111111111111111CONSUMIDOR-FINAL              000000000033200000000000000000000000000000000000000000000000000000000000000000000000000000000000000000000000000000000000PES00010000001 00000000000000000000000
201504130060000100000000000000018989000000000000000189899611111111111111111111CONSUMIDOR-FINAL              000000000025500000000000000000000000000000000000000000000000000000000000000000000000000000000000000000000000000000000000PES00010000001 00000000000000000000000
201504130060000100000000000000018990000000000000000189909611111111111111111111CONSUMIDOR-FINAL              000000000022000000000000000000000000000000000000000000000000000000000000000000000000000000000000000000000000000000000000PES00010000001 00000000000000000000000
201504130060000100000000000000018991000000000000000189919611111111111111111111CONSUMIDOR-FINAL              000000000011500000000000000000000000000000000000000000000000000000000000000000000000000000000000000000000000000000000000PES00010000001 00000000000000000000000
201504140060000100000000000000018992000000000000000189929611111111111111111111CONSUMIDOR-FINAL              000000000144000000000000000000000000000000000000000000000000000000000000000000000000000000000000000000000000000000000000PES00010000001 00000000000000000000000
201504140060000100000000000000018993000000000000000189939611111111111111111111CONSUMIDOR-FINAL              000000000091500000000000000000000000000000000000000000000000000000000000000000000000000000000000000000000000000000000000PES00010000001 00000000000000000000000
201504140060000100000000000000018994000000000000000189949611111111111111111111CONSUMIDOR-FINAL              000000000024000000000000000000000000000000000000000000000000000000000000000000000000000000000000000000000000000000000000PES00010000001 00000000000000000000000
201504140010000100000000000000000929000000000000000009298000000000020284667205ARANEDA-GUSTAVO               000000000034000000000000000000000000000000000000000000000000000000000000000000000000000000000000000000000000000000000000PES00010000001 00000000000000000000000
201504140060000100000000000000018995000000000000000189959611111111111111111111CONSUMIDOR-FINAL              000000000067800000000000000000000000000000000000000000000000000000000000000000000000000000000000000000000000000000000000PES00010000001 00000000000000000000000
201504140060000100000000000000018996000000000000000189969611111111111111111111CONSUMIDOR-FINAL              000000000075000000000000000000000000000000000000000000000000000000000000000000000000000000000000000000000000000000000000PES00010000001 00000000000000000000000
201504140060000100000000000000018997000000000000000189979611111111111111111111CONSUMIDOR-FINAL              000000000023500000000000000000000000000000000000000000000000000000000000000000000000000000000000000000000000000000000000PES00010000001 00000000000000000000000
201504140060000100000000000000018998000000000000000189989611111111111111111111CONSUMIDOR-FINAL              000000000017000000000000000000000000000000000000000000000000000000000000000000000000000000000000000000000000000000000000PES00010000001 00000000000000000000000
201504150060000100000000000000018999000000000000000189999611111111111111111111CONSUMIDOR-FINAL              000000000117500000000000000000000000000000000000000000000000000000000000000000000000000000000000000000000000000000000000PES00010000001 00000000000000000000000
201504150060000100000000000000019000000000000000000190009611111111111111111111CONSUMIDOR-FINAL              000000000017500000000000000000000000000000000000000000000000000000000000000000000000000000000000000000000000000000000000PES00010000001 00000000000000000000000
201504150060000100000000000000019001000000000000000190019611111111111111111111CONSUMIDOR-FINAL              000000000118500000000000000000000000000000000000000000000000000000000000000000000000000000000000000000000000000000000000PES00010000001 00000000000000000000000
201504150060000100000000000000019002000000000000000190029611111111111111111111CONSUMIDOR-FINAL              000000000037500000000000000000000000000000000000000000000000000000000000000000000000000000000000000000000000000000000000PES00010000001 00000000000000000000000
201504150060000100000000000000019003000000000000000190039611111111111111111111CONSUMIDOR-FINAL              000000000062500000000000000000000000000000000000000000000000000000000000000000000000000000000000000000000000000000000000PES00010000001 00000000000000000000000
201504150060000100000000000000019004000000000000000190049611111111111111111111CONSUMIDOR-FINAL              000000000021000000000000000000000000000000000000000000000000000000000000000000000000000000000000000000000000000000000000PES00010000001 00000000000000000000000
201504150060000100000000000000019005000000000000000190059611111111111111111111CONSUMIDOR-FINAL              000000000071000000000000000000000000000000000000000000000000000000000000000000000000000000000000000000000000000000000000PES00010000001 00000000000000000000000
201504150060000100000000000000019006000000000000000190069611111111111111111111CONSUMIDOR-FINAL              000000000183000000000000000000000000000000000000000000000000000000000000000000000000000000000000000000000000000000000000PES00010000001 00000000000000000000000
201504150060000100000000000000019007000000000000000190079611111111111111111111CONSUMIDOR-FINAL              000000000063000000000000000000000000000000000000000000000000000000000000000000000000000000000000000000000000000000000000PES00010000001 00000000000000000000000
201504160060000100000000000000019008000000000000000190089611111111111111111111CONSUMIDOR-FINAL              000000000034500000000000000000000000000000000000000000000000000000000000000000000000000000000000000000000000000000000000PES00010000001 00000000000000000000000
201504160060000100000000000000019009000000000000000190099611111111111111111111CONSUMIDOR-FINAL              000000000192000000000000000000000000000000000000000000000000000000000000000000000000000000000000000000000000000000000000PES00010000001 00000000000000000000000
201504160060000100000000000000019010000000000000000190109611111111111111111111CONSUMIDOR-FINAL              000000000120000000000000000000000000000000000000000000000000000000000000000000000000000000000000000000000000000000000000PES00010000001 00000000000000000000000
201504160060000100000000000000019011000000000000000190119611111111111111111111CONSUMIDOR-FINAL              000000000019000000000000000000000000000000000000000000000000000000000000000000000000000000000000000000000000000000000000PES00010000001 00000000000000000000000
201504160060000100000000000000019012000000000000000190129611111111111111111111CONSUMIDOR-FINAL              000000000007500000000000000000000000000000000000000000000000000000000000000000000000000000000000000000000000000000000000PES00010000001 00000000000000000000000
201504160060000100000000000000019013000000000000000190139611111111111111111111CONSUMIDOR-FINAL              000000000023000000000000000000000000000000000000000000000000000000000000000000000000000000000000000000000000000000000000PES00010000001 00000000000000000000000
201504160060000100000000000000019014000000000000000190149611111111111111111111CONSUMIDOR-FINAL              000000000055000000000000000000000000000000000000000000000000000000000000000000000000000000000000000000000000000000000000PES00010000001 00000000000000000000000
201504160060000100000000000000019015000000000000000190159611111111111111111111CONSUMIDOR-FINAL              000000000081500000000000000000000000000000000000000000000000000000000000000000000000000000000000000000000000000000000000PES00010000001 00000000000000000000000
201504170060000100000000000000019016000000000000000190169611111111111111111111CONSUMIDOR-FINAL              000000000003500000000000000000000000000000000000000000000000000000000000000000000000000000000000000000000000000000000000PES00010000001 00000000000000000000000
201504170060000100000000000000019017000000000000000190179611111111111111111111CONSUMIDOR-FINAL              000000000014000000000000000000000000000000000000000000000000000000000000000000000000000000000000000000000000000000000000PES00010000001 00000000000000000000000
201504170010000100000000000000000930000000000000000009308000000000020144707770MIAS-CARLOS-DANIEL            000000000126000000000000000000000000000000000000000000000000000000000000000000000000000000000000000000000000000000000000PES00010000001 00000000000000000000000
201504170060000100000000000000019018000000000000000190189611111111111111111111CONSUMIDOR-FINAL              000000000067500000000000000000000000000000000000000000000000000000000000000000000000000000000000000000000000000000000000PES00010000001 00000000000000000000000
201504170060000100000000000000019019000000000000000190199611111111111111111111CONSUMIDOR-FINAL              000000000011000000000000000000000000000000000000000000000000000000000000000000000000000000000000000000000000000000000000PES00010000001 00000000000000000000000
201504170060000100000000000000019020000000000000000190209611111111111111111111CONSUMIDOR-FINAL              000000000079000000000000000000000000000000000000000000000000000000000000000000000000000000000000000000000000000000000000PES00010000001 00000000000000000000000
201504170060000100000000000000019021000000000000000190219611111111111111111111CONSUMIDOR-FINAL              000000000017600000000000000000000000000000000000000000000000000000000000000000000000000000000000000000000000000000000000PES00010000001 00000000000000000000000
201504170060000100000000000000019022000000000000000190229611111111111111111111CONSUMIDOR-FINAL              000000000066500000000000000000000000000000000000000000000000000000000000000000000000000000000000000000000000000000000000PES00010000001 00000000000000000000000
201504170060000100000000000000019023000000000000000190239611111111111111111111CONSUMIDOR-FINAL              000000000092500000000000000000000000000000000000000000000000000000000000000000000000000000000000000000000000000000000000PES00010000001 00000000000000000000000
201504170060000100000000000000019024000000000000000190249611111111111111111111CONSUMIDOR-FINAL              000000000053000000000000000000000000000000000000000000000000000000000000000000000000000000000000000000000000000000000000PES00010000001 00000000000000000000000
201504170060000100000000000000019025000000000000000190259611111111111111111111CONSUMIDOR-FINAL              000000000042500000000000000000000000000000000000000000000000000000000000000000000000000000000000000000000000000000000000PES00010000001 00000000000000000000000
201504170060000100000000000000019026000000000000000190269611111111111111111111CONSUMIDOR-FINAL              000000000032000000000000000000000000000000000000000000000000000000000000000000000000000000000000000000000000000000000000PES00010000001 00000000000000000000000
201504170060000100000000000000019027000000000000000190279611111111111111111111CONSUMIDOR-FINAL              000000000075000000000000000000000000000000000000000000000000000000000000000000000000000000000000000000000000000000000000PES00010000001 00000000000000000000000
201504170060000100000000000000019028000000000000000190289611111111111111111111CONSUMIDOR-FINAL              000000000052500000000000000000000000000000000000000000000000000000000000000000000000000000000000000000000000000000000000PES00010000001 00000000000000000000000
201504180060000100000000000000019029000000000000000190299611111111111111111111CONSUMIDOR-FINAL              000000000033000000000000000000000000000000000000000000000000000000000000000000000000000000000000000000000000000000000000PES00010000001 00000000000000000000000
201504180060000100000000000000019030000000000000000190309611111111111111111111CONSUMIDOR-FINAL              000000000213000000000000000000000000000000000000000000000000000000000000000000000000000000000000000000000000000000000000PES00010000001 00000000000000000000000
201504180060000100000000000000019031000000000000000190319611111111111111111111CONSUMIDOR-FINAL              000000000064000000000000000000000000000000000000000000000000000000000000000000000000000000000000000000000000000000000000PES00010000001 00000000000000000000000
201504180060000100000000000000019032000000000000000190329611111111111111111111CONSUMIDOR-FINAL              000000000158500000000000000000000000000000000000000000000000000000000000000000000000000000000000000000000000000000000000PES00010000001 00000000000000000000000
201504180060000100000000000000019033000000000000000190339611111111111111111111CONSUMIDOR-FINAL              000000000089000000000000000000000000000000000000000000000000000000000000000000000000000000000000000000000000000000000000PES00010000001 00000000000000000000000
201504180060000100000000000000019034000000000000000190349611111111111111111111CONSUMIDOR-FINAL              000000000113500000000000000000000000000000000000000000000000000000000000000000000000000000000000000000000000000000000000PES00010000001 00000000000000000000000
201504180060000100000000000000019035000000000000000190359611111111111111111111CONSUMIDOR-FINAL              000000000105500000000000000000000000000000000000000000000000000000000000000000000000000000000000000000000000000000000000PES00010000001 00000000000000000000000
201504180060000100000000000000019036000000000000000190369611111111111111111111CONSUMIDOR-FINAL              000000000061000000000000000000000000000000000000000000000000000000000000000000000000000000000000000000000000000000000000PES00010000001 00000000000000000000000
201504180060000100000000000000019037000000000000000190379611111111111111111111CONSUMIDOR-FINAL              000000000067000000000000000000000000000000000000000000000000000000000000000000000000000000000000000000000000000000000000PES00010000001 00000000000000000000000
201504180060000100000000000000019038000000000000000190389611111111111111111111CONSUMIDOR-FINAL              000000000122900000000000000000000000000000000000000000000000000000000000000000000000000000000000000000000000000000000000PES00010000001 00000000000000000000000
201504180060000100000000000000019039000000000000000190399611111111111111111111CONSUMIDOR-FINAL              000000000012500000000000000000000000000000000000000000000000000000000000000000000000000000000000000000000000000000000000PES00010000001 00000000000000000000000
201504180060000100000000000000019040000000000000000190409611111111111111111111CONSUMIDOR-FINAL              000000000217000000000000000000000000000000000000000000000000000000000000000000000000000000000000000000000000000000000000PES00010000001 00000000000000000000000
201504180060000100000000000000019041000000000000000190419611111111111111111111CONSUMIDOR-FINAL              000000000064500000000000000000000000000000000000000000000000000000000000000000000000000000000000000000000000000000000000PES00010000001 00000000000000000000000
201504180060000100000000000000019042000000000000000190429611111111111111111111CONSUMIDOR-FINAL              000000000035000000000000000000000000000000000000000000000000000000000000000000000000000000000000000000000000000000000000PES00010000001 00000000000000000000000
201504180060000100000000000000019043000000000000000190439611111111111111111111CONSUMIDOR-FINAL              000000000027500000000000000000000000000000000000000000000000000000000000000000000000000000000000000000000000000000000000PES00010000001 00000000000000000000000
201504180060000100000000000000019044000000000000000190449611111111111111111111CONSUMIDOR-FINAL              000000000027000000000000000000000000000000000000000000000000000000000000000000000000000000000000000000000000000000000000PES00010000001 00000000000000000000000
201504180060000100000000000000019045000000000000000190459611111111111111111111CONSUMIDOR-FINAL              000000000026800000000000000000000000000000000000000000000000000000000000000000000000000000000000000000000000000000000000PES00010000001 00000000000000000000000
201504180060000100000000000000019046000000000000000190469611111111111111111111CONSUMIDOR-FINAL              000000000078000000000000000000000000000000000000000000000000000000000000000000000000000000000000000000000000000000000000PES00010000001 00000000000000000000000
201504180060000100000000000000019047000000000000000190479611111111111111111111CONSUMIDOR-FINAL              000000000075000000000000000000000000000000000000000000000000000000000000000000000000000000000000000000000000000000000000PES00010000001 00000000000000000000000
201504180060000100000000000000019048000000000000000190489611111111111111111111CONSUMIDOR-FINAL              000000000093500000000000000000000000000000000000000000000000000000000000000000000000000000000000000000000000000000000000PES00010000001 00000000000000000000000
201504180060000100000000000000019049000000000000000190499611111111111111111111CONSUMIDOR-FINAL              000000000085800000000000000000000000000000000000000000000000000000000000000000000000000000000000000000000000000000000000PES00010000001 00000000000000000000000
201504180060000100000000000000019050000000000000000190509611111111111111111111CONSUMIDOR-FINAL              000000000040500000000000000000000000000000000000000000000000000000000000000000000000000000000000000000000000000000000000PES00010000001 00000000000000000000000
201504180060000100000000000000019051000000000000000190519611111111111111111111CONSUMIDOR-FINAL              000000000017000000000000000000000000000000000000000000000000000000000000000000000000000000000000000000000000000000000000PES00010000001 00000000000000000000000
201504180010000100000000000000000931000000000000000009318000000000020270200649ROBERTSON-ALEJANDRO           000000000183000000000000000000000000000000000000000000000000000000000000000000000000000000000000000000000000000000000000PES00010000001 00000000000000000000000
201504200060000100000000000000019052000000000000000190529611111111111111111111CONSUMIDOR-FINAL              000000000030000000000000000000000000000000000000000000000000000000000000000000000000000000000000000000000000000000000000PES00010000001 00000000000000000000000
201504200060000100000000000000019053000000000000000190539611111111111111111111CONSUMIDOR-FINAL              000000000009800000000000000000000000000000000000000000000000000000000000000000000000000000000000000000000000000000000000PES00010000001 00000000000000000000000
201504200060000100000000000000019054000000000000000190549611111111111111111111CONSUMIDOR-FINAL              000000000086100000000000000000000000000000000000000000000000000000000000000000000000000000000000000000000000000000000000PES00010000001 00000000000000000000000
201504200060000100000000000000019055000000000000000190559611111111111111111111CONSUMIDOR-FINAL              000000000148800000000000000000000000000000000000000000000000000000000000000000000000000000000000000000000000000000000000PES00010000001 00000000000000000000000
201504200060000100000000000000019056000000000000000190569611111111111111111111CONSUMIDOR-FINAL              000000000112500000000000000000000000000000000000000000000000000000000000000000000000000000000000000000000000000000000000PES00010000001 00000000000000000000000
201504200060000100000000000000019057000000000000000190579611111111111111111111CONSUMIDOR-FINAL              000000000046000000000000000000000000000000000000000000000000000000000000000000000000000000000000000000000000000000000000PES00010000001 00000000000000000000000
201504200060000100000000000000019058000000000000000190589611111111111111111111CONSUMIDOR-FINAL              000000000014000000000000000000000000000000000000000000000000000000000000000000000000000000000000000000000000000000000000PES00010000001 00000000000000000000000
201504200060000100000000000000019059000000000000000190599611111111111111111111CONSUMIDOR-FINAL              000000000035500000000000000000000000000000000000000000000000000000000000000000000000000000000000000000000000000000000000PES00010000001 00000000000000000000000
201504200060000100000000000000019060000000000000000190609611111111111111111111CONSUMIDOR-FINAL              000000000085100000000000000000000000000000000000000000000000000000000000000000000000000000000000000000000000000000000000PES00010000001 00000000000000000000000
201504200060000100000000000000019061000000000000000190619611111111111111111111CONSUMIDOR-FINAL              000000000016000000000000000000000000000000000000000000000000000000000000000000000000000000000000000000000000000000000000PES00010000001 00000000000000000000000
201504200060000100000000000000019062000000000000000190629611111111111111111111CONSUMIDOR-FINAL              000000000031500000000000000000000000000000000000000000000000000000000000000000000000000000000000000000000000000000000000PES00010000001 00000000000000000000000
201504210060000100000000000000019063000000000000000190639611111111111111111111CONSUMIDOR-FINAL              000000000100500000000000000000000000000000000000000000000000000000000000000000000000000000000000000000000000000000000000PES00010000001 00000000000000000000000
201504210060000100000000000000019064000000000000000190649611111111111111111111CONSUMIDOR-FINAL              000000000028800000000000000000000000000000000000000000000000000000000000000000000000000000000000000000000000000000000000PES00010000001 00000000000000000000000
201504210060000100000000000000019065000000000000000190659611111111111111111111CONSUMIDOR-FINAL              000000000035000000000000000000000000000000000000000000000000000000000000000000000000000000000000000000000000000000000000PES00010000001 00000000000000000000000
201504210060000100000000000000019066000000000000000190669611111111111111111111CONSUMIDOR-FINAL              000000000017400000000000000000000000000000000000000000000000000000000000000000000000000000000000000000000000000000000000PES00010000001 00000000000000000000000
201504210060000100000000000000019067000000000000000190679611111111111111111111CONSUMIDOR-FINAL              000000000033500000000000000000000000000000000000000000000000000000000000000000000000000000000000000000000000000000000000PES00010000001 00000000000000000000000
201504210060000100000000000000019068000000000000000190689611111111111111111111CONSUMIDOR-FINAL              000000000086500000000000000000000000000000000000000000000000000000000000000000000000000000000000000000000000000000000000PES00010000001 00000000000000000000000
201504210060000100000000000000019069000000000000000190699611111111111111111111CONSUMIDOR-FINAL              000000000015000000000000000000000000000000000000000000000000000000000000000000000000000000000000000000000000000000000000PES00010000001 00000000000000000000000
201504210060000100000000000000019070000000000000000190709611111111111111111111CONSUMIDOR-FINAL              000000000007500000000000000000000000000000000000000000000000000000000000000000000000000000000000000000000000000000000000PES00010000001 00000000000000000000000
201504220060000100000000000000019071000000000000000190719611111111111111111111CONSUMIDOR-FINAL              000000000030000000000000000000000000000000000000000000000000000000000000000000000000000000000000000000000000000000000000PES00010000001 00000000000000000000000
201504220060000100000000000000019072000000000000000190729611111111111111111111CONSUMIDOR-FINAL              000000000026000000000000000000000000000000000000000000000000000000000000000000000000000000000000000000000000000000000000PES00010000001 00000000000000000000000
201504220060000100000000000000019073000000000000000190739611111111111111111111CONSUMIDOR-FINAL              000000000052800000000000000000000000000000000000000000000000000000000000000000000000000000000000000000000000000000000000PES00010000001 00000000000000000000000
201504220060000100000000000000019074000000000000000190749611111111111111111111CONSUMIDOR-FINAL              000000000005500000000000000000000000000000000000000000000000000000000000000000000000000000000000000000000000000000000000PES00010000001 00000000000000000000000
201504220060000100000000000000019075000000000000000190759611111111111111111111CONSUMIDOR-FINAL              000000000258800000000000000000000000000000000000000000000000000000000000000000000000000000000000000000000000000000000000PES00010000001 00000000000000000000000
201504220060000100000000000000019076000000000000000190769611111111111111111111CONSUMIDOR-FINAL              000000000332000000000000000000000000000000000000000000000000000000000000000000000000000000000000000000000000000000000000PES00010000001 00000000000000000000000
201504220060000100000000000000019077000000000000000190779611111111111111111111CONSUMIDOR-FINAL              000000000013000000000000000000000000000000000000000000000000000000000000000000000000000000000000000000000000000000000000PES00010000001 00000000000000000000000
201504220060000100000000000000019078000000000000000190789611111111111111111111CONSUMIDOR-FINAL              000000000026000000000000000000000000000000000000000000000000000000000000000000000000000000000000000000000000000000000000PES00010000001 00000000000000000000000
201504220060000100000000000000019079000000000000000190799611111111111111111111CONSUMIDOR-FINAL              000000000089000000000000000000000000000000000000000000000000000000000000000000000000000000000000000000000000000000000000PES00010000001 00000000000000000000000
201504220060000100000000000000019080000000000000000190809611111111111111111111CONSUMIDOR-FINAL              000000000009600000000000000000000000000000000000000000000000000000000000000000000000000000000000000000000000000000000000PES00010000001 00000000000000000000000
201504220060000100000000000000019081000000000000000190819611111111111111111111CONSUMIDOR-FINAL              000000000037500000000000000000000000000000000000000000000000000000000000000000000000000000000000000000000000000000000000PES00010000001 00000000000000000000000
201504220060000100000000000000019082000000000000000190829611111111111111111111CONSUMIDOR-FINAL              000000000019500000000000000000000000000000000000000000000000000000000000000000000000000000000000000000000000000000000000PES00010000001 00000000000000000000000
201504220060000100000000000000019083000000000000000190839611111111111111111111CONSUMIDOR-FINAL              000000000021500000000000000000000000000000000000000000000000000000000000000000000000000000000000000000000000000000000000PES00010000001 00000000000000000000000
201504230060000100000000000000019084000000000000000190849611111111111111111111CONSUMIDOR-FINAL              000000000227500000000000000000000000000000000000000000000000000000000000000000000000000000000000000000000000000000000000PES00010000001 00000000000000000000000
201504230060000100000000000000019085000000000000000190859611111111111111111111CONSUMIDOR-FINAL              000000000033600000000000000000000000000000000000000000000000000000000000000000000000000000000000000000000000000000000000PES00010000001 00000000000000000000000
201504230060000100000000000000019086000000000000000190869611111111111111111111CONSUMIDOR-FINAL              000000000093300000000000000000000000000000000000000000000000000000000000000000000000000000000000000000000000000000000000PES00010000001 00000000000000000000000
201504230060000100000000000000019087000000000000000190879611111111111111111111CONSUMIDOR-FINAL              000000000011800000000000000000000000000000000000000000000000000000000000000000000000000000000000000000000000000000000000PES00010000001 00000000000000000000000
201504230060000100000000000000019088000000000000000190889611111111111111111111CONSUMIDOR-FINAL              000000000007200000000000000000000000000000000000000000000000000000000000000000000000000000000000000000000000000000000000PES00010000001 00000000000000000000000
201504230060000100000000000000019089000000000000000190899611111111111111111111CONSUMIDOR-FINAL              000000000009500000000000000000000000000000000000000000000000000000000000000000000000000000000000000000000000000000000000PES00010000001 00000000000000000000000
201504230060000100000000000000019090000000000000000190909611111111111111111111CONSUMIDOR-FINAL              000000000090000000000000000000000000000000000000000000000000000000000000000000000000000000000000000000000000000000000000PES00010000001 00000000000000000000000
201504230060000100000000000000019091000000000000000190919611111111111111111111CONSUMIDOR-FINAL              000000000006500000000000000000000000000000000000000000000000000000000000000000000000000000000000000000000000000000000000PES00010000001 00000000000000000000000
201504230060000100000000000000019092000000000000000190929611111111111111111111CONSUMIDOR-FINAL              000000000021000000000000000000000000000000000000000000000000000000000000000000000000000000000000000000000000000000000000PES00010000001 00000000000000000000000
201504230060000100000000000000019093000000000000000190939611111111111111111111CONSUMIDOR-FINAL              000000000013500000000000000000000000000000000000000000000000000000000000000000000000000000000000000000000000000000000000PES00010000001 00000000000000000000000
201504240060000100000000000000019094000000000000000190949611111111111111111111CONSUMIDOR-FINAL              000000000034500000000000000000000000000000000000000000000000000000000000000000000000000000000000000000000000000000000000PES00010000001 00000000000000000000000
201504240060000100000000000000019095000000000000000190959611111111111111111111CONSUMIDOR-FINAL              000000000039500000000000000000000000000000000000000000000000000000000000000000000000000000000000000000000000000000000000PES00010000001 00000000000000000000000
201504240060000100000000000000019096000000000000000190969611111111111111111111CONSUMIDOR-FINAL              000000000080100000000000000000000000000000000000000000000000000000000000000000000000000000000000000000000000000000000000PES00010000001 00000000000000000000000
201504240060000100000000000000019097000000000000000190979611111111111111111111CONSUMIDOR-FINAL              000000000054500000000000000000000000000000000000000000000000000000000000000000000000000000000000000000000000000000000000PES00010000001 00000000000000000000000
201504240060000100000000000000019098000000000000000190989611111111111111111111CONSUMIDOR-FINAL              000000000096000000000000000000000000000000000000000000000000000000000000000000000000000000000000000000000000000000000000PES00010000001 00000000000000000000000
201504240060000100000000000000019099000000000000000190999611111111111111111111CONSUMIDOR-FINAL              000000000033000000000000000000000000000000000000000000000000000000000000000000000000000000000000000000000000000000000000PES00010000001 00000000000000000000000
201504240060000100000000000000019100000000000000000191009611111111111111111111CONSUMIDOR-FINAL              000000000253000000000000000000000000000000000000000000000000000000000000000000000000000000000000000000000000000000000000PES00010000001 00000000000000000000000
201504240060000100000000000000019101000000000000000191019611111111111111111111CONSUMIDOR-FINAL              000000000113500000000000000000000000000000000000000000000000000000000000000000000000000000000000000000000000000000000000PES00010000001 00000000000000000000000
201504240060000100000000000000019102000000000000000191029611111111111111111111CONSUMIDOR-FINAL              000000000029500000000000000000000000000000000000000000000000000000000000000000000000000000000000000000000000000000000000PES00010000001 00000000000000000000000
201504240060000100000000000000019103000000000000000191039611111111111111111111CONSUMIDOR-FINAL              000000000044000000000000000000000000000000000000000000000000000000000000000000000000000000000000000000000000000000000000PES00010000001 00000000000000000000000
201504240060000100000000000000019104000000000000000191049611111111111111111111CONSUMIDOR-FINAL              000000000016000000000000000000000000000000000000000000000000000000000000000000000000000000000000000000000000000000000000PES00010000001 00000000000000000000000
201504240060000100000000000000019105000000000000000191059611111111111111111111CONSUMIDOR-FINAL              000000000051500000000000000000000000000000000000000000000000000000000000000000000000000000000000000000000000000000000000PES00010000001 00000000000000000000000
201504240060000100000000000000019106000000000000000191069611111111111111111111CONSUMIDOR-FINAL              000000000030000000000000000000000000000000000000000000000000000000000000000000000000000000000000000000000000000000000000PES00010000001 00000000000000000000000
201504240060000100000000000000019107000000000000000191079611111111111111111111CONSUMIDOR-FINAL              000000000071500000000000000000000000000000000000000000000000000000000000000000000000000000000000000000000000000000000000PES00010000001 00000000000000000000000
201504240060000100000000000000019108000000000000000191089611111111111111111111CONSUMIDOR-FINAL              000000000065000000000000000000000000000000000000000000000000000000000000000000000000000000000000000000000000000000000000PES00010000001 00000000000000000000000
201504240060000100000000000000019109000000000000000191099611111111111111111111CONSUMIDOR-FINAL              000000000020300000000000000000000000000000000000000000000000000000000000000000000000000000000000000000000000000000000000PES00010000001 00000000000000000000000
201504240060000100000000000000019110000000000000000191109611111111111111111111CONSUMIDOR-FINAL              000000000042000000000000000000000000000000000000000000000000000000000000000000000000000000000000000000000000000000000000PES00010000001 00000000000000000000000
201504240060000100000000000000019111000000000000000191119611111111111111111111CONSUMIDOR-FINAL              000000000038000000000000000000000000000000000000000000000000000000000000000000000000000000000000000000000000000000000000PES00010000001 00000000000000000000000
201504240060000100000000000000019112000000000000000191129611111111111111111111CONSUMIDOR-FINAL              000000000010600000000000000000000000000000000000000000000000000000000000000000000000000000000000000000000000000000000000PES00010000001 00000000000000000000000
201504240060000100000000000000019113000000000000000191139611111111111111111111CONSUMIDOR-FINAL              000000000013000000000000000000000000000000000000000000000000000000000000000000000000000000000000000000000000000000000000PES00010000001 00000000000000000000000
201504240060000100000000000000019114000000000000000191149611111111111111111111CONSUMIDOR-FINAL              000000000037200000000000000000000000000000000000000000000000000000000000000000000000000000000000000000000000000000000000PES00010000001 00000000000000000000000
201504240060000100000000000000019115000000000000000191159611111111111111111111CONSUMIDOR-FINAL              000000000123000000000000000000000000000000000000000000000000000000000000000000000000000000000000000000000000000000000000PES00010000001 00000000000000000000000
201504240060000100000000000000019116000000000000000191169611111111111111111111CONSUMIDOR-FINAL              000000000023500000000000000000000000000000000000000000000000000000000000000000000000000000000000000000000000000000000000PES00010000001 00000000000000000000000
201504250060000100000000000000019117000000000000000191179611111111111111111111CONSUMIDOR-FINAL              000000000132000000000000000000000000000000000000000000000000000000000000000000000000000000000000000000000000000000000000PES00010000001 00000000000000000000000
201504250060000100000000000000019118000000000000000191189611111111111111111111CONSUMIDOR-FINAL              000000000057200000000000000000000000000000000000000000000000000000000000000000000000000000000000000000000000000000000000PES00010000001 00000000000000000000000
201504250010000100000000000000000932000000000000000009328000000000030708146311-GR-INDUSTRIAL-SRL            000000000832000000000000000000000000000000000000000000000000000000000000000000000000000000000000000000000000000000000000PES00010000001 00000000000000000000000
201504250060000100000000000000019119000000000000000191199611111111111111111111CONSUMIDOR-FINAL              000000000246000000000000000000000000000000000000000000000000000000000000000000000000000000000000000000000000000000000000PES00010000001 00000000000000000000000
201504250060000100000000000000019120000000000000000191209611111111111111111111CONSUMIDOR-FINAL              000000000015000000000000000000000000000000000000000000000000000000000000000000000000000000000000000000000000000000000000PES00010000001 00000000000000000000000
201504250060000100000000000000019121000000000000000191219611111111111111111111CONSUMIDOR-FINAL              000000000015000000000000000000000000000000000000000000000000000000000000000000000000000000000000000000000000000000000000PES00010000001 00000000000000000000000
201504250060000100000000000000019122000000000000000191229611111111111111111111CONSUMIDOR-FINAL              000000000090000000000000000000000000000000000000000000000000000000000000000000000000000000000000000000000000000000000000PES00010000001 00000000000000000000000
201504250060000100000000000000019123000000000000000191239611111111111111111111CONSUMIDOR-FINAL              000000000104300000000000000000000000000000000000000000000000000000000000000000000000000000000000000000000000000000000000PES00010000001 00000000000000000000000
201504250060000100000000000000019124000000000000000191249611111111111111111111CONSUMIDOR-FINAL              000000000067000000000000000000000000000000000000000000000000000000000000000000000000000000000000000000000000000000000000PES00010000001 00000000000000000000000
201504250060000100000000000000019125000000000000000191259611111111111111111111CONSUMIDOR-FINAL              000000000022500000000000000000000000000000000000000000000000000000000000000000000000000000000000000000000000000000000000PES00010000001 00000000000000000000000
201504250060000100000000000000019126000000000000000191269611111111111111111111CONSUMIDOR-FINAL              000000000074500000000000000000000000000000000000000000000000000000000000000000000000000000000000000000000000000000000000PES00010000001 00000000000000000000000
201504250060000100000000000000019127000000000000000191279611111111111111111111CONSUMIDOR-FINAL              000000000047500000000000000000000000000000000000000000000000000000000000000000000000000000000000000000000000000000000000PES00010000001 00000000000000000000000
201504250060000100000000000000019128000000000000000191289611111111111111111111CONSUMIDOR-FINAL              000000000036000000000000000000000000000000000000000000000000000000000000000000000000000000000000000000000000000000000000PES00010000001 00000000000000000000000
201504250060000100000000000000019129000000000000000191299611111111111111111111CONSUMIDOR-FINAL              000000000019000000000000000000000000000000000000000000000000000000000000000000000000000000000000000000000000000000000000PES00010000001 00000000000000000000000
201504250060000100000000000000019130000000000000000191309611111111111111111111CONSUMIDOR-FINAL              000000000052000000000000000000000000000000000000000000000000000000000000000000000000000000000000000000000000000000000000PES00010000001 00000000000000000000000
201504250060000100000000000000019131000000000000000191319611111111111111111111CONSUMIDOR-FINAL              000000000065000000000000000000000000000000000000000000000000000000000000000000000000000000000000000000000000000000000000PES00010000001 00000000000000000000000
201504250060000100000000000000019132000000000000000191329611111111111111111111CONSUMIDOR-FINAL              000000000024000000000000000000000000000000000000000000000000000000000000000000000000000000000000000000000000000000000000PES00010000001 00000000000000000000000
201504250060000100000000000000019133000000000000000191339611111111111111111111CONSUMIDOR-FINAL              000000000042000000000000000000000000000000000000000000000000000000000000000000000000000000000000000000000000000000000000PES00010000001 00000000000000000000000
201504250060000100000000000000019134000000000000000191349611111111111111111111CONSUMIDOR-FINAL              000000000099000000000000000000000000000000000000000000000000000000000000000000000000000000000000000000000000000000000000PES00010000001 00000000000000000000000
201504250060000100000000000000019135000000000000000191359611111111111111111111CONSUMIDOR-FINAL              000000000031500000000000000000000000000000000000000000000000000000000000000000000000000000000000000000000000000000000000PES00010000001 00000000000000000000000
201504250060000100000000000000019136000000000000000191369611111111111111111111CONSUMIDOR-FINAL              000000000011500000000000000000000000000000000000000000000000000000000000000000000000000000000000000000000000000000000000PES00010000001 00000000000000000000000
201504250060000100000000000000019137000000000000000191379611111111111111111111CONSUMIDOR-FINAL              000000000015800000000000000000000000000000000000000000000000000000000000000000000000000000000000000000000000000000000000PES00010000001 00000000000000000000000
201504270060000100000000000000019139000000000000000191399611111111111111111111CONSUMIDOR-FINAL              000000000013000000000000000000000000000000000000000000000000000000000000000000000000000000000000000000000000000000000000PES00010000001 00000000000000000000000
201504270010000100000000000000000933000000000000000009338000000000027234390010VIVIANA-TORRACA               000000000379000000000000000000000000000000000000000000000000000000000000000000000000000000000000000000000000000000000000PES00010000001 00000000000000000000000
201504270060000100000000000000019140000000000000000191409611111111111111111111CONSUMIDOR-FINAL              000000000165000000000000000000000000000000000000000000000000000000000000000000000000000000000000000000000000000000000000PES00010000001 00000000000000000000000
201504270010000100000000000000000934000000000000000009348000000000030670255960-LA-CHACHA-SRL                000000000127700000000000000000000000000000000000000000000000000000000000000000000000000000000000000000000000000000000000PES00010000001 00000000000000000000000
201504270060000100000000000000019141000000000000000191419611111111111111111111CONSUMIDOR-FINAL              000000000023800000000000000000000000000000000000000000000000000000000000000000000000000000000000000000000000000000000000PES00010000001 00000000000000000000000
201504280060000100000000000000019142000000000000000191429611111111111111111111CONSUMIDOR-FINAL              000000000049500000000000000000000000000000000000000000000000000000000000000000000000000000000000000000000000000000000000PES00010000001 00000000000000000000000
201504280060000100000000000000019143000000000000000191439611111111111111111111CONSUMIDOR-FINAL              000000000037500000000000000000000000000000000000000000000000000000000000000000000000000000000000000000000000000000000000PES00010000001 00000000000000000000000
201504280060000100000000000000019144000000000000000191449611111111111111111111CONSUMIDOR-FINAL              000000000093000000000000000000000000000000000000000000000000000000000000000000000000000000000000000000000000000000000000PES00010000001 00000000000000000000000
201504280060000100000000000000019145000000000000000191459611111111111111111111CONSUMIDOR-FINAL              000000000013000000000000000000000000000000000000000000000000000000000000000000000000000000000000000000000000000000000000PES00010000001 00000000000000000000000
201504280010000100000000000000000935000000000000000009358000000000030670236206CONSTRUCCIONES-INTEGRALES-SRL 000000000184000000000000000000000000000000000000000000000000000000000000000000000000000000000000000000000000000000000000PES00010000001 00000000000000000000000
201504280060000100000000000000019146000000000000000191469611111111111111111111CONSUMIDOR-FINAL              000000000024000000000000000000000000000000000000000000000000000000000000000000000000000000000000000000000000000000000000PES00010000001 00000000000000000000000
201504280010000100000000000000000936000000000000000009368000000000020135644324DAHINTEN-ERNESTO              000000000017500000000000000000000000000000000000000000000000000000000000000000000000000000000000000000000000000000000000PES00010000001 00000000000000000000000
201504280060000100000000000000019147000000000000000191479611111111111111111111CONSUMIDOR-FINAL              000000000069800000000000000000000000000000000000000000000000000000000000000000000000000000000000000000000000000000000000PES00010000001 00000000000000000000000
201504290060000100000000000000019148000000000000000191489611111111111111111111CONSUMIDOR-FINAL              000000000094000000000000000000000000000000000000000000000000000000000000000000000000000000000000000000000000000000000000PES00010000001 00000000000000000000000
201504290060000100000000000000019149000000000000000191499611111111111111111111CONSUMIDOR-FINAL              000000000026000000000000000000000000000000000000000000000000000000000000000000000000000000000000000000000000000000000000PES00010000001 00000000000000000000000
201504290060000100000000000000019150000000000000000191509611111111111111111111CONSUMIDOR-FINAL              000000000092000000000000000000000000000000000000000000000000000000000000000000000000000000000000000000000000000000000000PES00010000001 00000000000000000000000
201504290060000100000000000000019151000000000000000191519611111111111111111111CONSUMIDOR-FINAL              000000000042500000000000000000000000000000000000000000000000000000000000000000000000000000000000000000000000000000000000PES00010000001 00000000000000000000000
201504290060000100000000000000019152000000000000000191529611111111111111111111CONSUMIDOR-FINAL              000000000315000000000000000000000000000000000000000000000000000000000000000000000000000000000000000000000000000000000000PES00010000001 00000000000000000000000
201504290060000100000000000000019153000000000000000191539611111111111111111111CONSUMIDOR-FINAL              000000000213500000000000000000000000000000000000000000000000000000000000000000000000000000000000000000000000000000000000PES00010000001 00000000000000000000000
201504290060000100000000000000019154000000000000000191549611111111111111111111CONSUMIDOR-FINAL              000000000048000000000000000000000000000000000000000000000000000000000000000000000000000000000000000000000000000000000000PES00010000001 00000000000000000000000
201504290060000100000000000000019155000000000000000191559611111111111111111111CONSUMIDOR-FINAL              000000000053000000000000000000000000000000000000000000000000000000000000000000000000000000000000000000000000000000000000PES00010000001 00000000000000000000000
201504290060000100000000000000019156000000000000000191569611111111111111111111CONSUMIDOR-FINAL              000000000021000000000000000000000000000000000000000000000000000000000000000000000000000000000000000000000000000000000000PES00010000001 00000000000000000000000
201504290060000100000000000000019157000000000000000191579611111111111111111111CONSUMIDOR-FINAL              000000000023500000000000000000000000000000000000000000000000000000000000000000000000000000000000000000000000000000000000PES00010000001 00000000000000000000000
201504290060000100000000000000019158000000000000000191589611111111111111111111CONSUMIDOR-FINAL              000000000014000000000000000000000000000000000000000000000000000000000000000000000000000000000000000000000000000000000000PES00010000001 00000000000000000000000
201504290060000100000000000000019159000000000000000191599611111111111111111111CONSUMIDOR-FINAL              000000000028000000000000000000000000000000000000000000000000000000000000000000000000000000000000000000000000000000000000PES00010000001 00000000000000000000000
201504290060000100000000000000019160000000000000000191609611111111111111111111CONSUMIDOR-FINAL              000000000033600000000000000000000000000000000000000000000000000000000000000000000000000000000000000000000000000000000000PES00010000001 00000000000000000000000
201504300060000100000000000000019161000000000000000191619611111111111111111111CONSUMIDOR-FINAL              000000000209200000000000000000000000000000000000000000000000000000000000000000000000000000000000000000000000000000000000PES00010000001 00000000000000000000000
201504300060000100000000000000019162000000000000000191629611111111111111111111CONSUMIDOR-FINAL              000000000055500000000000000000000000000000000000000000000000000000000000000000000000000000000000000000000000000000000000PES00010000001 00000000000000000000000
201504300060000100000000000000019163000000000000000191639611111111111111111111CONSUMIDOR-FINAL              000000000035500000000000000000000000000000000000000000000000000000000000000000000000000000000000000000000000000000000000PES00010000001 00000000000000000000000
201504300060000100000000000000019164000000000000000191649611111111111111111111CONSUMIDOR-FINAL              000000000028000000000000000000000000000000000000000000000000000000000000000000000000000000000000000000000000000000000000PES00010000001 00000000000000000000000
201504300060000100000000000000019165000000000000000191659611111111111111111111CONSUMIDOR-FINAL              000000000025800000000000000000000000000000000000000000000000000000000000000000000000000000000000000000000000000000000000PES00010000001 00000000000000000000000
201504300060000100000000000000019166000000000000000191669611111111111111111111CONSUMIDOR-FINAL              000000000063000000000000000000000000000000000000000000000000000000000000000000000000000000000000000000000000000000000000PES00010000001 00000000000000000000000
201504300060000100000000000000019167000000000000000191679611111111111111111111CONSUMIDOR-FINAL              000000000101500000000000000000000000000000000000000000000000000000000000000000000000000000000000000000000000000000000000PES00010000001 00000000000000000000000
201504300060000100000000000000019168000000000000000191689611111111111111111111CONSUMIDOR-FINAL              000000000335000000000000000000000000000000000000000000000000000000000000000000000000000000000000000000000000000000000000PES00010000001 00000000000000000000000
201504300060000100000000000000019169000000000000000191699611111111111111111111CONSUMIDOR-FINAL              000000000042500000000000000000000000000000000000000000000000000000000000000000000000000000000000000000000000000000000000PES00010000001 00000000000000000000000
201504300060000100000000000000019170000000000000000191709611111111111111111111CONSUMIDOR-FINAL              000000000015100000000000000000000000000000000000000000000000000000000000000000000000000000000000000000000000000000000000PES00010000001 00000000000000000000000
201504300060000100000000000000019171000000000000000191719611111111111111111111CONSUMIDOR-FINAL              000000000018500000000000000000000000000000000000000000000000000000000000000000000000000000000000000000000000000000000000PES00010000001 00000000000000000000000
201504300060000100000000000000019172000000000000000191729611111111111111111111CONSUMIDOR-FINAL              000000000036000000000000000000000000000000000000000000000000000000000000000000000000000000000000000000000000000000000000PES00010000001 00000000000000000000000

