201604010010000800000000000000092597                8000000000030545726722SOCIEDAD-COOP-POPULAR-LIM-DE  000000000227940000000000000000000000000000000000000000000000000000000000000000000000000000000000000000000000000000000000PES00010000001000000000000000000000000000000000000000000                              000000000000000
201604010010000100000000000020160313                8000000000030639453975TELEFONICA-DE-ARG-SA          000000000102097000000000000000000000000000000000000000000000000000000000000000000000000000000000000000000000000000000000PES00010000001000000000000000000000000000000000000000000                              000000000000000
201604010010000200000000000000003204                8000000000030662444150CRISTAL-SAN-MARTIN-SRL        000000001978169000000000000000000000000000000000000000000000000000000000000000000000000000000000000000000000000000000000PES00010000001000000000000000000000000000000000000000000                              000000000000000
201604010010001100000000000000002476                8000000000030670288613DISTRIBUIDORA-LOA-SA          000000000095188000000000000000000000000000000000000000000000000000000000000000000000000000000000000000000000000000000000PES00010000001000000000000000000000000000000000000000000                              000000000000000
201604010010000700000000000000015379                8000000000030710920067SEBSADA-SA                    000000001943599000000000000000000000000000000000000000000000000000000000000000000000000000000000000000000000000000000000PES00010000001000000000000000000000000000000000000000000                              000000000000000
201604050010000400000000000000128519                8000000000030708926155TRANSPORTES-UNION-SA          000000000442127000000000000000000000000000000000000000000000000000000000000000000000000000000000000000000000000000000000PES00010000001000000000000000000000000000000000000000000                              000000000000000
201604070010000300000000000000003159                8000000000030711190895AUSTRAL-ALARMAS-SRL           000000000036300000000000000000000000000000000000000000000000000000000000000000000000000000000000000000000000000000000000PES00010000001000000000000000000000000000000000000000000                              000000000000000
201604160010250500000000000000003768                8000000000030506730038SA-IMPORT-Y-EXPORT-DE-LA-PATAG000000000024730000000000000000000000000000000000000000000000000000000000000000000000000000000000000000000000000000000000PES00010000001000000000000000000000000000000000000000000                              000000000000000
201604180010000300000000000000008270                8000000000030710601573JUNKO-SRL                     000000001208239000000000000000000000000000000000000000000000000000000000000000000000000000000000000000000000000000000000PES00010000001000000000000000000000000000000000000000000                              000000000000000
201604180010000500000000000000009915                8000000000030711778302MDK-SRL                       000000001601435000000000000000000000000000000000000000000000000000000000000000000000000000000000000000000000000000000000PES00010000001000000000000000000000000000000000000000000                              000000000000000
201604200010000100000000000000000018                8000000000030714670618CONDOMINIO-DE-BERSAIS-CESAR-L 000000002662000000000000000000000000000000000000000000000000000000000000000000000000000000000000000000000000000000000000PES00010000001000000000000000000000000000000000000000000                              000000000000000
201604200010001400000000000000000117                8000000000030708926155TRANSPORTES-UNION-SA          000000000672199000000000000000000000000000000000000000000000000000000000000000000000000000000000000000000000000000000000PES00010000001000000000000000000000000000000000000000000                              000000000000000
201604220010002400000000000000002538                8000000000030670288613DISTRIBUIDORA-LOA-SA          000000000047666000000000000000000000000000000000000000000000000000000000000000000000000000000000000000000000000000000000PES00010000001000000000000000000000000000000000000000000                              000000000000000
201604220010000300000000000000000318                8000000000020222552134GUSTAVO-A-GARCIA              000000000450000000000000000000000000000000000000000000000000000000000000000000000000000000000000000000000000000000000000PES00010000001000000000000000000000000000000000000000000                              000000000000000
201604260010000400000000000000015056                8000000000030633641109ELECTROBRAS-SRL               000000000043000000000000000000000000000000000000000000000000000000000000000000000000000000000000000000000000000000000000PES00010000001000000000000000000000000000000000000000000                              000000000000000
201604290010000500000000000000010032                8000000000030711778302MDK-SRL                       000000000725758000000000000000000000000000000000000000000000000000000000000000000000000000000000000000000000000000000000PES00010000001000000000000000000000000000000000000000000                              000000000000000
201604300010000300000000000000007050                8000000000030710941854RUMAH-JAVA-SRL                000000001609300000000000000000000000000000000000000000000000000000000000000000000000000000000000000000000000000000000000PES00010000001000000000000000000000000000000000000000000                              000000000000000
