201607020010000100000000000000001229000000000000000012298000000000023202371779-GONZALEZ-EDUARDO-OSCAR       000000000391000000000000000000000000000000000000000000000000000000000000000000000000000000000000000000000000000000000000PES00010000001 00000000000000000000000
201607060010000100000000000000001232000000000000000012328000000000030710396899-ESCAPES-NICO-SRL             000000000066000000000000000000000000000000000000000000000000000000000000000000000000000000000000000000000000000000000000PES00010000001 00000000000000000000000
201607070010000100000000000000001235000000000000000012358000000000020315139881BANOVAZ-NICOLAS               000000000066000000000000000000000000000000000000000000000000000000000000000000000000000000000000000000000000000000000000PES00010000001 00000000000000000000000
201607070010000100000000000000001237000000000000000012378000000000030709219509-HOLDING-SRL                  000000000085000000000000000000000000000000000000000000000000000000000000000000000000000000000000000000000000000000000000PES00010000001 00000000000000000000000
201607080010000100000000000000001238000000000000000012388000000000027260187258-ANALIA-FALESCHINI            000000000657500000000000000000000000000000000000000000000000000000000000000000000000000000000000000000000000000000000000PES00010000001 00000000000000000000000
201607110010000100000000000000001239000000000000000012398000000000030710835248HIDRAULICA-MDK-SRL            000000000060000000000000000000000000000000000000000000000000000000000000000000000000000000000000000000000000000000000000PES00010000001 00000000000000000000000
201607110010000100000000000000001240000000000000000012408000000000030539836680-PETROSAR-SA-                 000000000085000000000000000000000000000000000000000000000000000000000000000000000000000000000000000000000000000000000000PES00010000001 00000000000000000000000
201607150010000100000000000000001242000000000000000012428000000000030709379948LAMICAR                       000000000084900000000000000000000000000000000000000000000000000000000000000000000000000000000000000000000000000000000000PES00010000001 00000000000000000000000
201607160010000100000000000000001243000000000000000012438000000000030539836680-PETROSAR-SA-                 000000000194400000000000000000000000000000000000000000000000000000000000000000000000000000000000000000000000000000000000PES00010000001 00000000000000000000000
201607180010000100000000000000001244000000000000000012448000000000020361818572MALDONADO-MATIAS              000000000073500000000000000000000000000000000000000000000000000000000000000000000000000000000000000000000000000000000000PES00010000001 00000000000000000000000
201607180010000100000000000000001245000000000000000012458000000000027260187258-ANALIA-FALESCHINI            000000000283300000000000000000000000000000000000000000000000000000000000000000000000000000000000000000000000000000000000PES00010000001 00000000000000000000000
201607190010000100000000000000001250000000000000000012508000000000027202380056-OJEDA-LILIANA                000000000064500000000000000000000000000000000000000000000000000000000000000000000000000000000000000000000000000000000000PES00010000001 00000000000000000000000
201607200010000100000000000000001251000000000000000012518000000000030709219509-HOLDING-SRL                  000000000034000000000000000000000000000000000000000000000000000000000000000000000000000000000000000000000000000000000000PES00010000001 00000000000000000000000
201607230010000100000000000000001252000000000000000012528000000000030711067368LOS-ANDES-DESIGN-SRL          000000000049000000000000000000000000000000000000000000000000000000000000000000000000000000000000000000000000000000000000PES00010000001 00000000000000000000000
201607050060000100000000000000013707000000000000000137078000000000030531025799-SMATA                        000000000049800000000000000000000000000000000000000000000000000000000000000000000000000000000000000000000000000000000000PES00010000001 00000000000000000000000
201607260060000100000000000000013708000000000000000137088000000000030643885642ASOCDE-EDUCADORESPAT          000000000058500000000000000000000000000000000000000000000000000000000000000000000000000000000000000000000000000000000000PES00010000001 00000000000000000000000
201607010060000100000000000000025119000000000000000251199600000000033714143609CENTRO-DE-ESTUDIOS-DIGESTIVOS-000000000014900000000000000000000000000000000000000000000000000000000000000000000000000000000000000000000000000000000000PES00010000001 00000000000000000000000
201607010060000100000000000000025120000000000000000251209600000000033714143609CENTRO-DE-ESTUDIOS-DIGESTIVOS-000000000034000000000000000000000000000000000000000000000000000000000000000000000000000000000000000000000000000000000000PES00010000001 00000000000000000000000
201607010060000100000000000000025121000000000000000251219600000000033714143609CENTRO-DE-ESTUDIOS-DIGESTIVOS-000000000198000000000000000000000000000000000000000000000000000000000000000000000000000000000000000000000000000000000000PES00010000001 00000000000000000000000
201607010060000100000000000000025122000000000000000251229600000000033714143609CENTRO-DE-ESTUDIOS-DIGESTIVOS-000000000026000000000000000000000000000000000000000000000000000000000000000000000000000000000000000000000000000000000000PES00010000001 00000000000000000000000
201607010060000100000000000000025123000000000000000251239600000000033714143609CENTRO-DE-ESTUDIOS-DIGESTIVOS-000000000122500000000000000000000000000000000000000000000000000000000000000000000000000000000000000000000000000000000000PES00010000001 00000000000000000000000
201607010060000100000000000000025124000000000000000251249600000000033714143609CENTRO-DE-ESTUDIOS-DIGESTIVOS-000000000060000000000000000000000000000000000000000000000000000000000000000000000000000000000000000000000000000000000000PES00010000001 00000000000000000000000
201607010060000100000000000000025125000000000000000251259600000000033714143609CENTRO-DE-ESTUDIOS-DIGESTIVOS-000000000078500000000000000000000000000000000000000000000000000000000000000000000000000000000000000000000000000000000000PES00010000001 00000000000000000000000
201607010060000100000000000000025126000000000000000251269600000000033714143609CENTRO-DE-ESTUDIOS-DIGESTIVOS-000000000166300000000000000000000000000000000000000000000000000000000000000000000000000000000000000000000000000000000000PES00010000001 00000000000000000000000
201607010060000100000000000000025127000000000000000251279600000000033714143609CENTRO-DE-ESTUDIOS-DIGESTIVOS-000000000060500000000000000000000000000000000000000000000000000000000000000000000000000000000000000000000000000000000000PES00010000001 00000000000000000000000
201607010060000100000000000000025128000000000000000251289600000000033714143609CENTRO-DE-ESTUDIOS-DIGESTIVOS-000000000098500000000000000000000000000000000000000000000000000000000000000000000000000000000000000000000000000000000000PES00010000001 00000000000000000000000
201607010060000100000000000000025129000000000000000251299600000000033714143609CENTRO-DE-ESTUDIOS-DIGESTIVOS-000000000049500000000000000000000000000000000000000000000000000000000000000000000000000000000000000000000000000000000000PES00010000001 00000000000000000000000
201607010060000100000000000000025130000000000000000251309600000000033714143609CENTRO-DE-ESTUDIOS-DIGESTIVOS-000000000050000000000000000000000000000000000000000000000000000000000000000000000000000000000000000000000000000000000000PES00010000001 00000000000000000000000
201607020060000100000000000000025131000000000000000251319600000000033714143609CENTRO-DE-ESTUDIOS-DIGESTIVOS-000000000095500000000000000000000000000000000000000000000000000000000000000000000000000000000000000000000000000000000000PES00010000001 00000000000000000000000
201607020060000100000000000000025132000000000000000251329600000000033714143609CENTRO-DE-ESTUDIOS-DIGESTIVOS-000000000104400000000000000000000000000000000000000000000000000000000000000000000000000000000000000000000000000000000000PES00010000001 00000000000000000000000
201607020060000100000000000000025133000000000000000251339600000000033714143609CENTRO-DE-ESTUDIOS-DIGESTIVOS-000000000137500000000000000000000000000000000000000000000000000000000000000000000000000000000000000000000000000000000000PES00010000001 00000000000000000000000
201607020060000100000000000000025134000000000000000251349600000000033714143609CENTRO-DE-ESTUDIOS-DIGESTIVOS-000000000241000000000000000000000000000000000000000000000000000000000000000000000000000000000000000000000000000000000000PES00010000001 00000000000000000000000
201607020060000100000000000000025135000000000000000251359600000000033714143609CENTRO-DE-ESTUDIOS-DIGESTIVOS-000000000017500000000000000000000000000000000000000000000000000000000000000000000000000000000000000000000000000000000000PES00010000001 00000000000000000000000
201607020060000100000000000000025136000000000000000251369600000000033714143609CENTRO-DE-ESTUDIOS-DIGESTIVOS-000000000029000000000000000000000000000000000000000000000000000000000000000000000000000000000000000000000000000000000000PES00010000001 00000000000000000000000
201607020060000100000000000000025137000000000000000251379600000000033714143609CENTRO-DE-ESTUDIOS-DIGESTIVOS-000000000058500000000000000000000000000000000000000000000000000000000000000000000000000000000000000000000000000000000000PES00010000001 00000000000000000000000
201607020060000100000000000000025138000000000000000251389600000000033714143609CENTRO-DE-ESTUDIOS-DIGESTIVOS-000000000023000000000000000000000000000000000000000000000000000000000000000000000000000000000000000000000000000000000000PES00010000001 00000000000000000000000
201607020060000100000000000000025139000000000000000251399600000000033714143609CENTRO-DE-ESTUDIOS-DIGESTIVOS-000000000051000000000000000000000000000000000000000000000000000000000000000000000000000000000000000000000000000000000000PES00010000001 00000000000000000000000
201607020060000100000000000000025140000000000000000251409600000000033714143609CENTRO-DE-ESTUDIOS-DIGESTIVOS-000000000026000000000000000000000000000000000000000000000000000000000000000000000000000000000000000000000000000000000000PES00010000001 00000000000000000000000
201607020060000100000000000000025141000000000000000251419600000000033714143609CENTRO-DE-ESTUDIOS-DIGESTIVOS-000000000057000000000000000000000000000000000000000000000000000000000000000000000000000000000000000000000000000000000000PES00010000001 00000000000000000000000
201607020060000100000000000000025142000000000000000251429600000000033714143609CENTRO-DE-ESTUDIOS-DIGESTIVOS-000000000039000000000000000000000000000000000000000000000000000000000000000000000000000000000000000000000000000000000000PES00010000001 00000000000000000000000
201607020060000100000000000000025143000000000000000251439600000000033714143609CENTRO-DE-ESTUDIOS-DIGESTIVOS-000000000092000000000000000000000000000000000000000000000000000000000000000000000000000000000000000000000000000000000000PES00010000001 00000000000000000000000
201607020060000100000000000000025144000000000000000251449600000000033714143609CENTRO-DE-ESTUDIOS-DIGESTIVOS-000000000217000000000000000000000000000000000000000000000000000000000000000000000000000000000000000000000000000000000000PES00010000001 00000000000000000000000
201607020060000100000000000000025145000000000000000251459600000000033714143609CENTRO-DE-ESTUDIOS-DIGESTIVOS-000000000053500000000000000000000000000000000000000000000000000000000000000000000000000000000000000000000000000000000000PES00010000001 00000000000000000000000
201607020060000100000000000000025146000000000000000251469600000000033714143609CENTRO-DE-ESTUDIOS-DIGESTIVOS-000000000233000000000000000000000000000000000000000000000000000000000000000000000000000000000000000000000000000000000000PES00010000001 00000000000000000000000
201607020060000100000000000000025147000000000000000251479600000000033714143609CENTRO-DE-ESTUDIOS-DIGESTIVOS-000000000059000000000000000000000000000000000000000000000000000000000000000000000000000000000000000000000000000000000000PES00010000001 00000000000000000000000
201607020060000100000000000000025148000000000000000251489600000000033714143609CENTRO-DE-ESTUDIOS-DIGESTIVOS-000000000031500000000000000000000000000000000000000000000000000000000000000000000000000000000000000000000000000000000000PES00010000001 00000000000000000000000
201607020060000100000000000000025149000000000000000251499600000000033714143609CENTRO-DE-ESTUDIOS-DIGESTIVOS-000000000055000000000000000000000000000000000000000000000000000000000000000000000000000000000000000000000000000000000000PES00010000001 00000000000000000000000
201607020060000100000000000000025150000000000000000251509600000000033714143609CENTRO-DE-ESTUDIOS-DIGESTIVOS-000000000115500000000000000000000000000000000000000000000000000000000000000000000000000000000000000000000000000000000000PES00010000001 00000000000000000000000
201607020060000100000000000000025151000000000000000251519600000000033714143609CENTRO-DE-ESTUDIOS-DIGESTIVOS-000000000097500000000000000000000000000000000000000000000000000000000000000000000000000000000000000000000000000000000000PES00010000001 00000000000000000000000
201607020060000100000000000000025152000000000000000251529600000000033714143609CENTRO-DE-ESTUDIOS-DIGESTIVOS-000000000065000000000000000000000000000000000000000000000000000000000000000000000000000000000000000000000000000000000000PES00010000001 00000000000000000000000
201607020060000100000000000000025153000000000000000251539600000000033714143609CENTRO-DE-ESTUDIOS-DIGESTIVOS-000000000202300000000000000000000000000000000000000000000000000000000000000000000000000000000000000000000000000000000000PES00010000001 00000000000000000000000
201607020060000100000000000000025154000000000000000251549600000000033714143609CENTRO-DE-ESTUDIOS-DIGESTIVOS-000000000148500000000000000000000000000000000000000000000000000000000000000000000000000000000000000000000000000000000000PES00010000001 00000000000000000000000
201607040060000100000000000000025155000000000000000251559600000000033714143609CENTRO-DE-ESTUDIOS-DIGESTIVOS-000000000062000000000000000000000000000000000000000000000000000000000000000000000000000000000000000000000000000000000000PES00010000001 00000000000000000000000
201607040060000100000000000000025156000000000000000251569600000000033714143609CENTRO-DE-ESTUDIOS-DIGESTIVOS-000000000068500000000000000000000000000000000000000000000000000000000000000000000000000000000000000000000000000000000000PES00010000001 00000000000000000000000
201607040060000100000000000000025157000000000000000251579600000000033714143609CENTRO-DE-ESTUDIOS-DIGESTIVOS-000000000123000000000000000000000000000000000000000000000000000000000000000000000000000000000000000000000000000000000000PES00010000001 00000000000000000000000
201607040060000100000000000000025158000000000000000251589600000000033714143609CENTRO-DE-ESTUDIOS-DIGESTIVOS-000000000025000000000000000000000000000000000000000000000000000000000000000000000000000000000000000000000000000000000000PES00010000001 00000000000000000000000
201607040060000100000000000000025159000000000000000251599600000000033714143609CENTRO-DE-ESTUDIOS-DIGESTIVOS-000000000039800000000000000000000000000000000000000000000000000000000000000000000000000000000000000000000000000000000000PES00010000001 00000000000000000000000
201607050060000100000000000000025160000000000000000251609600000000033714143609CENTRO-DE-ESTUDIOS-DIGESTIVOS-000000000053500000000000000000000000000000000000000000000000000000000000000000000000000000000000000000000000000000000000PES00010000001 00000000000000000000000
201607050060000100000000000000025161000000000000000251619600000000033714143609CENTRO-DE-ESTUDIOS-DIGESTIVOS-000000000597500000000000000000000000000000000000000000000000000000000000000000000000000000000000000000000000000000000000PES00010000001 00000000000000000000000
201607050060000100000000000000025162000000000000000251629600000000033714143609CENTRO-DE-ESTUDIOS-DIGESTIVOS-000000000028000000000000000000000000000000000000000000000000000000000000000000000000000000000000000000000000000000000000PES00010000001 00000000000000000000000
201607050060000100000000000000025163000000000000000251639600000000030710396899-ESCAPES-NICO-SRL             000000000066000000000000000000000000000000000000000000000000000000000000000000000000000000000000000000000000000000000000PES00010000001 00000000000000000000000
201607050060000100000000000000025166000000000000000251669600000000033714143609CENTRO-DE-ESTUDIOS-DIGESTIVOS-000000000054500000000000000000000000000000000000000000000000000000000000000000000000000000000000000000000000000000000000PES00010000001 00000000000000000000000
201607050060000100000000000000025167000000000000000251679600000000033714143609CENTRO-DE-ESTUDIOS-DIGESTIVOS-000000000038600000000000000000000000000000000000000000000000000000000000000000000000000000000000000000000000000000000000PES00010000001 00000000000000000000000
201607050060000100000000000000025168000000000000000251689600000000033714143609CENTRO-DE-ESTUDIOS-DIGESTIVOS-000000000157500000000000000000000000000000000000000000000000000000000000000000000000000000000000000000000000000000000000PES00010000001 00000000000000000000000
201607050060000100000000000000025169000000000000000251699600000000033714143609CENTRO-DE-ESTUDIOS-DIGESTIVOS-000000000259500000000000000000000000000000000000000000000000000000000000000000000000000000000000000000000000000000000000PES00010000001 00000000000000000000000
201607060060000100000000000000025170000000000000000251709600000000033714143609CENTRO-DE-ESTUDIOS-DIGESTIVOS-000000000103800000000000000000000000000000000000000000000000000000000000000000000000000000000000000000000000000000000000PES00010000001 00000000000000000000000
201607060060000100000000000000025171000000000000000251719600000000033714143609CENTRO-DE-ESTUDIOS-DIGESTIVOS-000000000117500000000000000000000000000000000000000000000000000000000000000000000000000000000000000000000000000000000000PES00010000001 00000000000000000000000
201607060060000100000000000000025172000000000000000251729600000000033714143609CENTRO-DE-ESTUDIOS-DIGESTIVOS-000000000039000000000000000000000000000000000000000000000000000000000000000000000000000000000000000000000000000000000000PES00010000001 00000000000000000000000
201607060060000100000000000000025173000000000000000251739600000000033714143609CENTRO-DE-ESTUDIOS-DIGESTIVOS-000000000013000000000000000000000000000000000000000000000000000000000000000000000000000000000000000000000000000000000000PES00010000001 00000000000000000000000
201607060060000100000000000000025174000000000000000251749600000000033714143609CENTRO-DE-ESTUDIOS-DIGESTIVOS-000000000054800000000000000000000000000000000000000000000000000000000000000000000000000000000000000000000000000000000000PES00010000001 00000000000000000000000
201607060060000100000000000000025175000000000000000251759600000000033714143609CENTRO-DE-ESTUDIOS-DIGESTIVOS-000000000224500000000000000000000000000000000000000000000000000000000000000000000000000000000000000000000000000000000000PES00010000001 00000000000000000000000
201607060060000100000000000000025176000000000000000251769600000000033714143609CENTRO-DE-ESTUDIOS-DIGESTIVOS-000000000016000000000000000000000000000000000000000000000000000000000000000000000000000000000000000000000000000000000000PES00010000001 00000000000000000000000
201607060060000100000000000000025177000000000000000251779600000000033714143609CENTRO-DE-ESTUDIOS-DIGESTIVOS-000000000032500000000000000000000000000000000000000000000000000000000000000000000000000000000000000000000000000000000000PES00010000001 00000000000000000000000
201607060060000100000000000000025178000000000000000251789600000000033714143609CENTRO-DE-ESTUDIOS-DIGESTIVOS-000000000025500000000000000000000000000000000000000000000000000000000000000000000000000000000000000000000000000000000000PES00010000001 00000000000000000000000
201607060060000100000000000000025179000000000000000251799600000000033714143609CENTRO-DE-ESTUDIOS-DIGESTIVOS-000000000032500000000000000000000000000000000000000000000000000000000000000000000000000000000000000000000000000000000000PES00010000001 00000000000000000000000
201607060060000100000000000000025180000000000000000251809600000000033714143609CENTRO-DE-ESTUDIOS-DIGESTIVOS-000000000047500000000000000000000000000000000000000000000000000000000000000000000000000000000000000000000000000000000000PES00010000001 00000000000000000000000
201607060060000100000000000000025181000000000000000251819600000000033714143609CENTRO-DE-ESTUDIOS-DIGESTIVOS-000000000186800000000000000000000000000000000000000000000000000000000000000000000000000000000000000000000000000000000000PES00010000001 00000000000000000000000
201607060060000100000000000000025182000000000000000251829600000000033714143609CENTRO-DE-ESTUDIOS-DIGESTIVOS-000000000145000000000000000000000000000000000000000000000000000000000000000000000000000000000000000000000000000000000000PES00010000001 00000000000000000000000
201607070060000100000000000000025183000000000000000251839600000000033714143609CENTRO-DE-ESTUDIOS-DIGESTIVOS-000000000094500000000000000000000000000000000000000000000000000000000000000000000000000000000000000000000000000000000000PES00010000001 00000000000000000000000
201607070060000100000000000000025184000000000000000251849600000000033714143609CENTRO-DE-ESTUDIOS-DIGESTIVOS-000000000047300000000000000000000000000000000000000000000000000000000000000000000000000000000000000000000000000000000000PES00010000001 00000000000000000000000
201607070060000100000000000000025185000000000000000251859600000000033714143609CENTRO-DE-ESTUDIOS-DIGESTIVOS-000000000015000000000000000000000000000000000000000000000000000000000000000000000000000000000000000000000000000000000000PES00010000001 00000000000000000000000
201607070060000100000000000000025186000000000000000251869600000000033714143609CENTRO-DE-ESTUDIOS-DIGESTIVOS-000000000055000000000000000000000000000000000000000000000000000000000000000000000000000000000000000000000000000000000000PES00010000001 00000000000000000000000
201607070060000100000000000000025187000000000000000251879600000000033714143609CENTRO-DE-ESTUDIOS-DIGESTIVOS-000000000018500000000000000000000000000000000000000000000000000000000000000000000000000000000000000000000000000000000000PES00010000001 00000000000000000000000
201607070060000100000000000000025188000000000000000251889600000000033714143609CENTRO-DE-ESTUDIOS-DIGESTIVOS-000000000027500000000000000000000000000000000000000000000000000000000000000000000000000000000000000000000000000000000000PES00010000001 00000000000000000000000
201607070060000100000000000000025189000000000000000251899600000000033714143609CENTRO-DE-ESTUDIOS-DIGESTIVOS-000000000035000000000000000000000000000000000000000000000000000000000000000000000000000000000000000000000000000000000000PES00010000001 00000000000000000000000
201607070060000100000000000000025190000000000000000251909600000000033714143609CENTRO-DE-ESTUDIOS-DIGESTIVOS-000000000027500000000000000000000000000000000000000000000000000000000000000000000000000000000000000000000000000000000000PES00010000001 00000000000000000000000
201607070060000100000000000000025191000000000000000251919600000000033714143609CENTRO-DE-ESTUDIOS-DIGESTIVOS-000000000025000000000000000000000000000000000000000000000000000000000000000000000000000000000000000000000000000000000000PES00010000001 00000000000000000000000
201607070060000100000000000000025192000000000000000251929600000000033714143609CENTRO-DE-ESTUDIOS-DIGESTIVOS-000000000069500000000000000000000000000000000000000000000000000000000000000000000000000000000000000000000000000000000000PES00010000001 00000000000000000000000
201607080060000100000000000000025193000000000000000251939600000000033714143609CENTRO-DE-ESTUDIOS-DIGESTIVOS-000000000059500000000000000000000000000000000000000000000000000000000000000000000000000000000000000000000000000000000000PES00010000001 00000000000000000000000
201607080060000100000000000000025194000000000000000251949600000000033714143609CENTRO-DE-ESTUDIOS-DIGESTIVOS-000000000006000000000000000000000000000000000000000000000000000000000000000000000000000000000000000000000000000000000000PES00010000001 00000000000000000000000
201607080060000100000000000000025195000000000000000251959600000000033714143609CENTRO-DE-ESTUDIOS-DIGESTIVOS-000000000050000000000000000000000000000000000000000000000000000000000000000000000000000000000000000000000000000000000000PES00010000001 00000000000000000000000
201607080060000100000000000000025196000000000000000251969600000000033714143609CENTRO-DE-ESTUDIOS-DIGESTIVOS-000000000048000000000000000000000000000000000000000000000000000000000000000000000000000000000000000000000000000000000000PES00010000001 00000000000000000000000
201607080060000100000000000000025197000000000000000251979600000000033714143609CENTRO-DE-ESTUDIOS-DIGESTIVOS-000000000015000000000000000000000000000000000000000000000000000000000000000000000000000000000000000000000000000000000000PES00010000001 00000000000000000000000
201607080060000100000000000000025198000000000000000251989600000000033714143609CENTRO-DE-ESTUDIOS-DIGESTIVOS-000000000054800000000000000000000000000000000000000000000000000000000000000000000000000000000000000000000000000000000000PES00010000001 00000000000000000000000
201607080060000100000000000000025199000000000000000251999600000000033714143609CENTRO-DE-ESTUDIOS-DIGESTIVOS-000000000115000000000000000000000000000000000000000000000000000000000000000000000000000000000000000000000000000000000000PES00010000001 00000000000000000000000
201607080060000100000000000000025200000000000000000252009600000000033714143609CENTRO-DE-ESTUDIOS-DIGESTIVOS-000000000017500000000000000000000000000000000000000000000000000000000000000000000000000000000000000000000000000000000000PES00010000001 00000000000000000000000
201607080060000100000000000000025201000000000000000252019600000000033714143609CENTRO-DE-ESTUDIOS-DIGESTIVOS-000000000105000000000000000000000000000000000000000000000000000000000000000000000000000000000000000000000000000000000000PES00010000001 00000000000000000000000
201607080060000100000000000000025202000000000000000252029600000000033714143609CENTRO-DE-ESTUDIOS-DIGESTIVOS-000000000293000000000000000000000000000000000000000000000000000000000000000000000000000000000000000000000000000000000000PES00010000001 00000000000000000000000
201607080060000100000000000000025203000000000000000252039600000000033714143609CENTRO-DE-ESTUDIOS-DIGESTIVOS-000000000184000000000000000000000000000000000000000000000000000000000000000000000000000000000000000000000000000000000000PES00010000001 00000000000000000000000
201607080060000100000000000000025204000000000000000252049600000000033714143609CENTRO-DE-ESTUDIOS-DIGESTIVOS-000000000080500000000000000000000000000000000000000000000000000000000000000000000000000000000000000000000000000000000000PES00010000001 00000000000000000000000
201607080060000100000000000000025205000000000000000252059600000000033714143609CENTRO-DE-ESTUDIOS-DIGESTIVOS-000000000075500000000000000000000000000000000000000000000000000000000000000000000000000000000000000000000000000000000000PES00010000001 00000000000000000000000
201607080060000100000000000000025206000000000000000252069600000000033714143609CENTRO-DE-ESTUDIOS-DIGESTIVOS-000000000073500000000000000000000000000000000000000000000000000000000000000000000000000000000000000000000000000000000000PES00010000001 00000000000000000000000
201607080060000100000000000000025207000000000000000252079600000000033714143609CENTRO-DE-ESTUDIOS-DIGESTIVOS-000000000020000000000000000000000000000000000000000000000000000000000000000000000000000000000000000000000000000000000000PES00010000001 00000000000000000000000
201607080060000100000000000000025208000000000000000252089600000000033714143609CENTRO-DE-ESTUDIOS-DIGESTIVOS-000000000050500000000000000000000000000000000000000000000000000000000000000000000000000000000000000000000000000000000000PES00010000001 00000000000000000000000
201607080060000100000000000000025209000000000000000252099600000000033714143609CENTRO-DE-ESTUDIOS-DIGESTIVOS-000000000009500000000000000000000000000000000000000000000000000000000000000000000000000000000000000000000000000000000000PES00010000001 00000000000000000000000
201607110060000100000000000000025210000000000000000252109600000000033714143609CENTRO-DE-ESTUDIOS-DIGESTIVOS-000000000025000000000000000000000000000000000000000000000000000000000000000000000000000000000000000000000000000000000000PES00010000001 00000000000000000000000
201607110060000100000000000000025211000000000000000252119600000000033714143609CENTRO-DE-ESTUDIOS-DIGESTIVOS-000000000046100000000000000000000000000000000000000000000000000000000000000000000000000000000000000000000000000000000000PES00010000001 00000000000000000000000
201607110060000100000000000000025212000000000000000252129600000000033714143609CENTRO-DE-ESTUDIOS-DIGESTIVOS-000000000042500000000000000000000000000000000000000000000000000000000000000000000000000000000000000000000000000000000000PES00010000001 00000000000000000000000
201607110060000100000000000000025213000000000000000252139600000000033714143609CENTRO-DE-ESTUDIOS-DIGESTIVOS-000000000037100000000000000000000000000000000000000000000000000000000000000000000000000000000000000000000000000000000000PES00010000001 00000000000000000000000
201607110060000100000000000000025214000000000000000252149600000000033714143609CENTRO-DE-ESTUDIOS-DIGESTIVOS-000000000017500000000000000000000000000000000000000000000000000000000000000000000000000000000000000000000000000000000000PES00010000001 00000000000000000000000
201607110060000100000000000000025215000000000000000252159600000000033714143609CENTRO-DE-ESTUDIOS-DIGESTIVOS-000000000039600000000000000000000000000000000000000000000000000000000000000000000000000000000000000000000000000000000000PES00010000001 00000000000000000000000
201607110060000100000000000000025216000000000000000252169600000000033714143609CENTRO-DE-ESTUDIOS-DIGESTIVOS-000000000063000000000000000000000000000000000000000000000000000000000000000000000000000000000000000000000000000000000000PES00010000001 00000000000000000000000
201607110060000100000000000000025217000000000000000252179600000000033714143609CENTRO-DE-ESTUDIOS-DIGESTIVOS-000000000010500000000000000000000000000000000000000000000000000000000000000000000000000000000000000000000000000000000000PES00010000001 00000000000000000000000
201607110060000100000000000000025218000000000000000252189600000000033714143609CENTRO-DE-ESTUDIOS-DIGESTIVOS-000000000107000000000000000000000000000000000000000000000000000000000000000000000000000000000000000000000000000000000000PES00010000001 00000000000000000000000
201607110060000100000000000000025219000000000000000252199600000000033714143609CENTRO-DE-ESTUDIOS-DIGESTIVOS-000000000025500000000000000000000000000000000000000000000000000000000000000000000000000000000000000000000000000000000000PES00010000001 00000000000000000000000
201607110060000100000000000000025220000000000000000252209600000000033714143609CENTRO-DE-ESTUDIOS-DIGESTIVOS-000000000008500000000000000000000000000000000000000000000000000000000000000000000000000000000000000000000000000000000000PES00010000001 00000000000000000000000
201607110060000100000000000000025221000000000000000252219600000000033714143609CENTRO-DE-ESTUDIOS-DIGESTIVOS-000000000015500000000000000000000000000000000000000000000000000000000000000000000000000000000000000000000000000000000000PES00010000001 00000000000000000000000
201607110060000100000000000000025222000000000000000252229600000000033714143609CENTRO-DE-ESTUDIOS-DIGESTIVOS-000000000025000000000000000000000000000000000000000000000000000000000000000000000000000000000000000000000000000000000000PES00010000001 00000000000000000000000
201607110060000100000000000000025223000000000000000252239600000000033714143609CENTRO-DE-ESTUDIOS-DIGESTIVOS-000000000278500000000000000000000000000000000000000000000000000000000000000000000000000000000000000000000000000000000000PES00010000001 00000000000000000000000
201607110060000100000000000000025224000000000000000252249600000000033714143609CENTRO-DE-ESTUDIOS-DIGESTIVOS-000000000046500000000000000000000000000000000000000000000000000000000000000000000000000000000000000000000000000000000000PES00010000001 00000000000000000000000
201607110060000100000000000000025225000000000000000252259600000000033714143609CENTRO-DE-ESTUDIOS-DIGESTIVOS-000000000112500000000000000000000000000000000000000000000000000000000000000000000000000000000000000000000000000000000000PES00010000001 00000000000000000000000
201607110060000100000000000000025226000000000000000252269600000000033714143609CENTRO-DE-ESTUDIOS-DIGESTIVOS-000000000015200000000000000000000000000000000000000000000000000000000000000000000000000000000000000000000000000000000000PES00010000001 00000000000000000000000
201607120060000100000000000000025227000000000000000252279600000000033714143609CENTRO-DE-ESTUDIOS-DIGESTIVOS-000000000046000000000000000000000000000000000000000000000000000000000000000000000000000000000000000000000000000000000000PES00010000001 00000000000000000000000
201607120060000100000000000000025228000000000000000252289600000000033714143609CENTRO-DE-ESTUDIOS-DIGESTIVOS-000000000076000000000000000000000000000000000000000000000000000000000000000000000000000000000000000000000000000000000000PES00010000001 00000000000000000000000
201607120060000100000000000000025229000000000000000252299600000000033714143609CENTRO-DE-ESTUDIOS-DIGESTIVOS-000000000017500000000000000000000000000000000000000000000000000000000000000000000000000000000000000000000000000000000000PES00010000001 00000000000000000000000
201607120060000100000000000000025230000000000000000252309600000000033714143609CENTRO-DE-ESTUDIOS-DIGESTIVOS-000000000059600000000000000000000000000000000000000000000000000000000000000000000000000000000000000000000000000000000000PES00010000001 00000000000000000000000
201607120060000100000000000000025231000000000000000252319600000000033714143609CENTRO-DE-ESTUDIOS-DIGESTIVOS-000000000023500000000000000000000000000000000000000000000000000000000000000000000000000000000000000000000000000000000000PES00010000001 00000000000000000000000
201607120060000100000000000000025232000000000000000252329600000000033714143609CENTRO-DE-ESTUDIOS-DIGESTIVOS-000000000076000000000000000000000000000000000000000000000000000000000000000000000000000000000000000000000000000000000000PES00010000001 00000000000000000000000
201607120060000100000000000000025233000000000000000252339600000000033714143609CENTRO-DE-ESTUDIOS-DIGESTIVOS-000000000022000000000000000000000000000000000000000000000000000000000000000000000000000000000000000000000000000000000000PES00010000001 00000000000000000000000
201607120060000100000000000000025234000000000000000252349600000000033714143609CENTRO-DE-ESTUDIOS-DIGESTIVOS-000000000012000000000000000000000000000000000000000000000000000000000000000000000000000000000000000000000000000000000000PES00010000001 00000000000000000000000
201607120060000100000000000000025235000000000000000252359600000000033714143609CENTRO-DE-ESTUDIOS-DIGESTIVOS-000000000095800000000000000000000000000000000000000000000000000000000000000000000000000000000000000000000000000000000000PES00010000001 00000000000000000000000
201607120060000100000000000000025236000000000000000252369600000000033714143609CENTRO-DE-ESTUDIOS-DIGESTIVOS-000000000036000000000000000000000000000000000000000000000000000000000000000000000000000000000000000000000000000000000000PES00010000001 00000000000000000000000
201607120060000100000000000000025237000000000000000252379600000000033714143609CENTRO-DE-ESTUDIOS-DIGESTIVOS-000000000029500000000000000000000000000000000000000000000000000000000000000000000000000000000000000000000000000000000000PES00010000001 00000000000000000000000
201607120060000100000000000000025238000000000000000252389600000000033714143609CENTRO-DE-ESTUDIOS-DIGESTIVOS-000000000042500000000000000000000000000000000000000000000000000000000000000000000000000000000000000000000000000000000000PES00010000001 00000000000000000000000
201607120060000100000000000000025239000000000000000252399600000000033714143609CENTRO-DE-ESTUDIOS-DIGESTIVOS-000000000044500000000000000000000000000000000000000000000000000000000000000000000000000000000000000000000000000000000000PES00010000001 00000000000000000000000
201607120060000100000000000000025240000000000000000252409600000000033714143609CENTRO-DE-ESTUDIOS-DIGESTIVOS-000000000166000000000000000000000000000000000000000000000000000000000000000000000000000000000000000000000000000000000000PES00010000001 00000000000000000000000
201607120060000100000000000000025241000000000000000252419600000000033714143609CENTRO-DE-ESTUDIOS-DIGESTIVOS-000000000069000000000000000000000000000000000000000000000000000000000000000000000000000000000000000000000000000000000000PES00010000001 00000000000000000000000
201607120060000100000000000000025242000000000000000252429600000000033714143609CENTRO-DE-ESTUDIOS-DIGESTIVOS-000000000069500000000000000000000000000000000000000000000000000000000000000000000000000000000000000000000000000000000000PES00010000001 00000000000000000000000
201607130060000100000000000000025243000000000000000252439600000000033714143609CENTRO-DE-ESTUDIOS-DIGESTIVOS-000000000062500000000000000000000000000000000000000000000000000000000000000000000000000000000000000000000000000000000000PES00010000001 00000000000000000000000
201607130060000100000000000000025244000000000000000252449600000000033714143609CENTRO-DE-ESTUDIOS-DIGESTIVOS-000000000032500000000000000000000000000000000000000000000000000000000000000000000000000000000000000000000000000000000000PES00010000001 00000000000000000000000
201607130060000100000000000000025245000000000000000252459600000000033714143609CENTRO-DE-ESTUDIOS-DIGESTIVOS-000000000012700000000000000000000000000000000000000000000000000000000000000000000000000000000000000000000000000000000000PES00010000001 00000000000000000000000
201607130060000100000000000000025246000000000000000252469600000000033714143609CENTRO-DE-ESTUDIOS-DIGESTIVOS-000000000031800000000000000000000000000000000000000000000000000000000000000000000000000000000000000000000000000000000000PES00010000001 00000000000000000000000
201607130060000100000000000000025247000000000000000252479600000000033714143609CENTRO-DE-ESTUDIOS-DIGESTIVOS-000000000090500000000000000000000000000000000000000000000000000000000000000000000000000000000000000000000000000000000000PES00010000001 00000000000000000000000
201607130060000100000000000000025249000000000000000252499600000000033714143609CENTRO-DE-ESTUDIOS-DIGESTIVOS-000000000033000000000000000000000000000000000000000000000000000000000000000000000000000000000000000000000000000000000000PES00010000001 00000000000000000000000
201607130060000100000000000000025250000000000000000252509600000000033714143609CENTRO-DE-ESTUDIOS-DIGESTIVOS-000000000162000000000000000000000000000000000000000000000000000000000000000000000000000000000000000000000000000000000000PES00010000001 00000000000000000000000
201607130060000100000000000000025251000000000000000252519600000000033714143609CENTRO-DE-ESTUDIOS-DIGESTIVOS-000000000159000000000000000000000000000000000000000000000000000000000000000000000000000000000000000000000000000000000000PES00010000001 00000000000000000000000
201607130060000100000000000000025252000000000000000252529600000000033714143609CENTRO-DE-ESTUDIOS-DIGESTIVOS-000000000034300000000000000000000000000000000000000000000000000000000000000000000000000000000000000000000000000000000000PES00010000001 00000000000000000000000
201607140060000100000000000000025253000000000000000252539600000000033714143609CENTRO-DE-ESTUDIOS-DIGESTIVOS-000000000354000000000000000000000000000000000000000000000000000000000000000000000000000000000000000000000000000000000000PES00010000001 00000000000000000000000
201607140060000100000000000000025254000000000000000252549600000000033714143609CENTRO-DE-ESTUDIOS-DIGESTIVOS-000000000020500000000000000000000000000000000000000000000000000000000000000000000000000000000000000000000000000000000000PES00010000001 00000000000000000000000
201607140060000100000000000000025255000000000000000252559600000000033714143609CENTRO-DE-ESTUDIOS-DIGESTIVOS-000000000026000000000000000000000000000000000000000000000000000000000000000000000000000000000000000000000000000000000000PES00010000001 00000000000000000000000
201607140060000100000000000000025256000000000000000252569600000000033714143609CENTRO-DE-ESTUDIOS-DIGESTIVOS-000000000147500000000000000000000000000000000000000000000000000000000000000000000000000000000000000000000000000000000000PES00010000001 00000000000000000000000
201607140060000100000000000000025257000000000000000252579600000000033714143609CENTRO-DE-ESTUDIOS-DIGESTIVOS-000000000034500000000000000000000000000000000000000000000000000000000000000000000000000000000000000000000000000000000000PES00010000001 00000000000000000000000
201607140060000100000000000000025258000000000000000252589600000000033714143609CENTRO-DE-ESTUDIOS-DIGESTIVOS-000000000067500000000000000000000000000000000000000000000000000000000000000000000000000000000000000000000000000000000000PES00010000001 00000000000000000000000
201607140060000100000000000000025259000000000000000252599600000000033714143609CENTRO-DE-ESTUDIOS-DIGESTIVOS-000000000021500000000000000000000000000000000000000000000000000000000000000000000000000000000000000000000000000000000000PES00010000001 00000000000000000000000
201607140060000100000000000000025260000000000000000252609600000000033714143609CENTRO-DE-ESTUDIOS-DIGESTIVOS-000000000050000000000000000000000000000000000000000000000000000000000000000000000000000000000000000000000000000000000000PES00010000001 00000000000000000000000
201607140060000100000000000000025261000000000000000252619600000000033714143609CENTRO-DE-ESTUDIOS-DIGESTIVOS-000000000370600000000000000000000000000000000000000000000000000000000000000000000000000000000000000000000000000000000000PES00010000001 00000000000000000000000
201607140060000100000000000000025262000000000000000252629600000000033714143609CENTRO-DE-ESTUDIOS-DIGESTIVOS-000000000023500000000000000000000000000000000000000000000000000000000000000000000000000000000000000000000000000000000000PES00010000001 00000000000000000000000
201607140060000100000000000000025263000000000000000252639600000000033714143609CENTRO-DE-ESTUDIOS-DIGESTIVOS-000000000099800000000000000000000000000000000000000000000000000000000000000000000000000000000000000000000000000000000000PES00010000001 00000000000000000000000
201607140060000100000000000000025264000000000000000252649600000000033714143609CENTRO-DE-ESTUDIOS-DIGESTIVOS-000000000038500000000000000000000000000000000000000000000000000000000000000000000000000000000000000000000000000000000000PES00010000001 00000000000000000000000
201607140060000100000000000000025265000000000000000252659600000000033714143609CENTRO-DE-ESTUDIOS-DIGESTIVOS-000000000055000000000000000000000000000000000000000000000000000000000000000000000000000000000000000000000000000000000000PES00010000001 00000000000000000000000
201607150060000100000000000000025266000000000000000252669600000000033714143609CENTRO-DE-ESTUDIOS-DIGESTIVOS-000000000068000000000000000000000000000000000000000000000000000000000000000000000000000000000000000000000000000000000000PES00010000001 00000000000000000000000
201607150060000100000000000000025267000000000000000252679600000000033714143609CENTRO-DE-ESTUDIOS-DIGESTIVOS-000000000148400000000000000000000000000000000000000000000000000000000000000000000000000000000000000000000000000000000000PES00010000001 00000000000000000000000
201607150060000100000000000000025268000000000000000252689600000000033714143609CENTRO-DE-ESTUDIOS-DIGESTIVOS-000000000038000000000000000000000000000000000000000000000000000000000000000000000000000000000000000000000000000000000000PES00010000001 00000000000000000000000
201607150060000100000000000000025269000000000000000252699600000000033714143609CENTRO-DE-ESTUDIOS-DIGESTIVOS-000000000105000000000000000000000000000000000000000000000000000000000000000000000000000000000000000000000000000000000000PES00010000001 00000000000000000000000
201607150060000100000000000000025270000000000000000252709600000000033714143609CENTRO-DE-ESTUDIOS-DIGESTIVOS-000000000205500000000000000000000000000000000000000000000000000000000000000000000000000000000000000000000000000000000000PES00010000001 00000000000000000000000
201607150060000100000000000000025271000000000000000252719600000000033714143609CENTRO-DE-ESTUDIOS-DIGESTIVOS-000000000026500000000000000000000000000000000000000000000000000000000000000000000000000000000000000000000000000000000000PES00010000001 00000000000000000000000
201607150060000100000000000000025272000000000000000252729600000000033714143609CENTRO-DE-ESTUDIOS-DIGESTIVOS-000000000051300000000000000000000000000000000000000000000000000000000000000000000000000000000000000000000000000000000000PES00010000001 00000000000000000000000
201607150060000100000000000000025273000000000000000252739600000000033714143609CENTRO-DE-ESTUDIOS-DIGESTIVOS-000000000077500000000000000000000000000000000000000000000000000000000000000000000000000000000000000000000000000000000000PES00010000001 00000000000000000000000
201607150060000100000000000000025274000000000000000252749600000000033714143609CENTRO-DE-ESTUDIOS-DIGESTIVOS-000000000038500000000000000000000000000000000000000000000000000000000000000000000000000000000000000000000000000000000000PES00010000001 00000000000000000000000
201607150060000100000000000000025275000000000000000252759600000000033714143609CENTRO-DE-ESTUDIOS-DIGESTIVOS-000000000079800000000000000000000000000000000000000000000000000000000000000000000000000000000000000000000000000000000000PES00010000001 00000000000000000000000
201607150060000100000000000000025276000000000000000252769600000000033714143609CENTRO-DE-ESTUDIOS-DIGESTIVOS-000000000022500000000000000000000000000000000000000000000000000000000000000000000000000000000000000000000000000000000000PES00010000001 00000000000000000000000
201607150060000100000000000000025277000000000000000252779600000000033714143609CENTRO-DE-ESTUDIOS-DIGESTIVOS-000000000034000000000000000000000000000000000000000000000000000000000000000000000000000000000000000000000000000000000000PES00010000001 00000000000000000000000
201607150060000100000000000000025278000000000000000252789600000000033714143609CENTRO-DE-ESTUDIOS-DIGESTIVOS-000000000062000000000000000000000000000000000000000000000000000000000000000000000000000000000000000000000000000000000000PES00010000001 00000000000000000000000
201607150060000100000000000000025279000000000000000252799600000000033714143609CENTRO-DE-ESTUDIOS-DIGESTIVOS-000000000056000000000000000000000000000000000000000000000000000000000000000000000000000000000000000000000000000000000000PES00010000001 00000000000000000000000
201607160060000100000000000000025280000000000000000252809600000000033714143609CENTRO-DE-ESTUDIOS-DIGESTIVOS-000000000120500000000000000000000000000000000000000000000000000000000000000000000000000000000000000000000000000000000000PES00010000001 00000000000000000000000
201607160060000100000000000000025281000000000000000252819600000000033714143609CENTRO-DE-ESTUDIOS-DIGESTIVOS-000000000015500000000000000000000000000000000000000000000000000000000000000000000000000000000000000000000000000000000000PES00010000001 00000000000000000000000
201607160060000100000000000000025282000000000000000252829600000000033714143609CENTRO-DE-ESTUDIOS-DIGESTIVOS-000000000018500000000000000000000000000000000000000000000000000000000000000000000000000000000000000000000000000000000000PES00010000001 00000000000000000000000
201607160060000100000000000000025283000000000000000252839600000000033714143609CENTRO-DE-ESTUDIOS-DIGESTIVOS-000000000132000000000000000000000000000000000000000000000000000000000000000000000000000000000000000000000000000000000000PES00010000001 00000000000000000000000
201607160060000100000000000000025284000000000000000252849600000000033714143609CENTRO-DE-ESTUDIOS-DIGESTIVOS-000000000022500000000000000000000000000000000000000000000000000000000000000000000000000000000000000000000000000000000000PES00010000001 00000000000000000000000
201607160060000100000000000000025285000000000000000252859600000000033714143609CENTRO-DE-ESTUDIOS-DIGESTIVOS-000000000046000000000000000000000000000000000000000000000000000000000000000000000000000000000000000000000000000000000000PES00010000001 00000000000000000000000
201607160060000100000000000000025286000000000000000252869600000000033714143609CENTRO-DE-ESTUDIOS-DIGESTIVOS-000000000096300000000000000000000000000000000000000000000000000000000000000000000000000000000000000000000000000000000000PES00010000001 00000000000000000000000
201607160060000100000000000000025287000000000000000252879600000000033714143609CENTRO-DE-ESTUDIOS-DIGESTIVOS-000000000027500000000000000000000000000000000000000000000000000000000000000000000000000000000000000000000000000000000000PES00010000001 00000000000000000000000
201607160060000100000000000000025288000000000000000252889600000000033714143609CENTRO-DE-ESTUDIOS-DIGESTIVOS-000000000056200000000000000000000000000000000000000000000000000000000000000000000000000000000000000000000000000000000000PES00010000001 00000000000000000000000
201607160060000100000000000000025289000000000000000252899600000000033714143609CENTRO-DE-ESTUDIOS-DIGESTIVOS-000000000102000000000000000000000000000000000000000000000000000000000000000000000000000000000000000000000000000000000000PES00010000001 00000000000000000000000
201607160060000100000000000000025290000000000000000252909600000000033714143609CENTRO-DE-ESTUDIOS-DIGESTIVOS-000000000063000000000000000000000000000000000000000000000000000000000000000000000000000000000000000000000000000000000000PES00010000001 00000000000000000000000
201607160060000100000000000000025291000000000000000252919600000000033714143609CENTRO-DE-ESTUDIOS-DIGESTIVOS-000000000195000000000000000000000000000000000000000000000000000000000000000000000000000000000000000000000000000000000000PES00010000001 00000000000000000000000
201607160060000100000000000000025292000000000000000252929600000000033714143609CENTRO-DE-ESTUDIOS-DIGESTIVOS-000000000019500000000000000000000000000000000000000000000000000000000000000000000000000000000000000000000000000000000000PES00010000001 00000000000000000000000
201607160060000100000000000000025293000000000000000252939600000000033714143609CENTRO-DE-ESTUDIOS-DIGESTIVOS-000000000165800000000000000000000000000000000000000000000000000000000000000000000000000000000000000000000000000000000000PES00010000001 00000000000000000000000
201607160060000100000000000000025294000000000000000252949600000000033714143609CENTRO-DE-ESTUDIOS-DIGESTIVOS-000000000024500000000000000000000000000000000000000000000000000000000000000000000000000000000000000000000000000000000000PES00010000001 00000000000000000000000
201607160060000100000000000000025295000000000000000252959600000000033714143609CENTRO-DE-ESTUDIOS-DIGESTIVOS-000000000038800000000000000000000000000000000000000000000000000000000000000000000000000000000000000000000000000000000000PES00010000001 00000000000000000000000
201607160060000100000000000000025296000000000000000252969600000000033714143609CENTRO-DE-ESTUDIOS-DIGESTIVOS-000000000048500000000000000000000000000000000000000000000000000000000000000000000000000000000000000000000000000000000000PES00010000001 00000000000000000000000
201607160060000100000000000000025297000000000000000252979600000000033714143609CENTRO-DE-ESTUDIOS-DIGESTIVOS-000000000110000000000000000000000000000000000000000000000000000000000000000000000000000000000000000000000000000000000000PES00010000001 00000000000000000000000
201607160060000100000000000000025298000000000000000252989600000000033714143609CENTRO-DE-ESTUDIOS-DIGESTIVOS-000000000059500000000000000000000000000000000000000000000000000000000000000000000000000000000000000000000000000000000000PES00010000001 00000000000000000000000
201607160060000100000000000000025299000000000000000252999600000000033714143609CENTRO-DE-ESTUDIOS-DIGESTIVOS-000000000023500000000000000000000000000000000000000000000000000000000000000000000000000000000000000000000000000000000000PES00010000001 00000000000000000000000
201607160060000100000000000000025300000000000000000253009600000000033714143609CENTRO-DE-ESTUDIOS-DIGESTIVOS-000000000031800000000000000000000000000000000000000000000000000000000000000000000000000000000000000000000000000000000000PES00010000001 00000000000000000000000
201607160060000100000000000000025301000000000000000253019600000000033714143609CENTRO-DE-ESTUDIOS-DIGESTIVOS-000000000189000000000000000000000000000000000000000000000000000000000000000000000000000000000000000000000000000000000000PES00010000001 00000000000000000000000
201607160060000100000000000000025302000000000000000253029600000000033714143609CENTRO-DE-ESTUDIOS-DIGESTIVOS-000000000035000000000000000000000000000000000000000000000000000000000000000000000000000000000000000000000000000000000000PES00010000001 00000000000000000000000
201607160060000100000000000000025303000000000000000253039600000000033714143609CENTRO-DE-ESTUDIOS-DIGESTIVOS-000000000045800000000000000000000000000000000000000000000000000000000000000000000000000000000000000000000000000000000000PES00010000001 00000000000000000000000
201607160060000100000000000000025304000000000000000253049600000000033714143609CENTRO-DE-ESTUDIOS-DIGESTIVOS-000000000023500000000000000000000000000000000000000000000000000000000000000000000000000000000000000000000000000000000000PES00010000001 00000000000000000000000
201607160060000100000000000000025305000000000000000253059600000000033714143609CENTRO-DE-ESTUDIOS-DIGESTIVOS-000000000013500000000000000000000000000000000000000000000000000000000000000000000000000000000000000000000000000000000000PES00010000001 00000000000000000000000
201607160060000100000000000000025306000000000000000253069600000000033714143609CENTRO-DE-ESTUDIOS-DIGESTIVOS-000000000092500000000000000000000000000000000000000000000000000000000000000000000000000000000000000000000000000000000000PES00010000001 00000000000000000000000
201607160060000100000000000000025307000000000000000253079600000000033714143609CENTRO-DE-ESTUDIOS-DIGESTIVOS-000000000043000000000000000000000000000000000000000000000000000000000000000000000000000000000000000000000000000000000000PES00010000001 00000000000000000000000
201607160060000100000000000000025308000000000000000253089600000000033714143609CENTRO-DE-ESTUDIOS-DIGESTIVOS-000000000054500000000000000000000000000000000000000000000000000000000000000000000000000000000000000000000000000000000000PES00010000001 00000000000000000000000
201607160060000100000000000000025309000000000000000253099600000000033714143609CENTRO-DE-ESTUDIOS-DIGESTIVOS-000000000049500000000000000000000000000000000000000000000000000000000000000000000000000000000000000000000000000000000000PES00010000001 00000000000000000000000
201607180060000100000000000000025310000000000000000253109600000000033714143609CENTRO-DE-ESTUDIOS-DIGESTIVOS-000000000103800000000000000000000000000000000000000000000000000000000000000000000000000000000000000000000000000000000000PES00010000001 00000000000000000000000
201607180060000100000000000000025311000000000000000253119600000000033714143609CENTRO-DE-ESTUDIOS-DIGESTIVOS-000000000048500000000000000000000000000000000000000000000000000000000000000000000000000000000000000000000000000000000000PES00010000001 00000000000000000000000
201607180060000100000000000000025312000000000000000253129600000000033714143609CENTRO-DE-ESTUDIOS-DIGESTIVOS-000000000028000000000000000000000000000000000000000000000000000000000000000000000000000000000000000000000000000000000000PES00010000001 00000000000000000000000
201607180060000100000000000000025313000000000000000253139600000000033714143609CENTRO-DE-ESTUDIOS-DIGESTIVOS-000000000125500000000000000000000000000000000000000000000000000000000000000000000000000000000000000000000000000000000000PES00010000001 00000000000000000000000
201607180060000100000000000000025314000000000000000253149600000000033714143609CENTRO-DE-ESTUDIOS-DIGESTIVOS-000000000049000000000000000000000000000000000000000000000000000000000000000000000000000000000000000000000000000000000000PES00010000001 00000000000000000000000
201607180060000100000000000000025315000000000000000253159600000000033714143609CENTRO-DE-ESTUDIOS-DIGESTIVOS-000000000077300000000000000000000000000000000000000000000000000000000000000000000000000000000000000000000000000000000000PES00010000001 00000000000000000000000
201607180060000100000000000000025316000000000000000253169600000000033714143609CENTRO-DE-ESTUDIOS-DIGESTIVOS-000000000012000000000000000000000000000000000000000000000000000000000000000000000000000000000000000000000000000000000000PES00010000001 00000000000000000000000
201607180060000100000000000000025317000000000000000253179600000000033714143609CENTRO-DE-ESTUDIOS-DIGESTIVOS-000000000067000000000000000000000000000000000000000000000000000000000000000000000000000000000000000000000000000000000000PES00010000001 00000000000000000000000
201607180060000100000000000000025318000000000000000253189600000000033714143609CENTRO-DE-ESTUDIOS-DIGESTIVOS-000000000052000000000000000000000000000000000000000000000000000000000000000000000000000000000000000000000000000000000000PES00010000001 00000000000000000000000
201607180060000100000000000000025319000000000000000253199600000000033714143609CENTRO-DE-ESTUDIOS-DIGESTIVOS-000000000064500000000000000000000000000000000000000000000000000000000000000000000000000000000000000000000000000000000000PES00010000001 00000000000000000000000
201607180060000100000000000000025320000000000000000253209600000000033714143609CENTRO-DE-ESTUDIOS-DIGESTIVOS-000000000289800000000000000000000000000000000000000000000000000000000000000000000000000000000000000000000000000000000000PES00010000001 00000000000000000000000
201607180060000100000000000000025321000000000000000253219600000000033714143609CENTRO-DE-ESTUDIOS-DIGESTIVOS-000000000039500000000000000000000000000000000000000000000000000000000000000000000000000000000000000000000000000000000000PES00010000001 00000000000000000000000
201607180060000100000000000000025322000000000000000253229600000000033714143609CENTRO-DE-ESTUDIOS-DIGESTIVOS-000000000039300000000000000000000000000000000000000000000000000000000000000000000000000000000000000000000000000000000000PES00010000001 00000000000000000000000
201607180060000100000000000000025323000000000000000253239600000000033714143609CENTRO-DE-ESTUDIOS-DIGESTIVOS-000000000033000000000000000000000000000000000000000000000000000000000000000000000000000000000000000000000000000000000000PES00010000001 00000000000000000000000
201607180060000100000000000000025324000000000000000253249600000000033714143609CENTRO-DE-ESTUDIOS-DIGESTIVOS-000000000101000000000000000000000000000000000000000000000000000000000000000000000000000000000000000000000000000000000000PES00010000001 00000000000000000000000
201607180060000100000000000000025325000000000000000253259600000000033714143609CENTRO-DE-ESTUDIOS-DIGESTIVOS-000000000147500000000000000000000000000000000000000000000000000000000000000000000000000000000000000000000000000000000000PES00010000001 00000000000000000000000
201607180060000100000000000000025326000000000000000253269600000000033714143609CENTRO-DE-ESTUDIOS-DIGESTIVOS-000000000076000000000000000000000000000000000000000000000000000000000000000000000000000000000000000000000000000000000000PES00010000001 00000000000000000000000
201607190060000100000000000000025327000000000000000253279600000000033714143609CENTRO-DE-ESTUDIOS-DIGESTIVOS-000000000068500000000000000000000000000000000000000000000000000000000000000000000000000000000000000000000000000000000000PES00010000001 00000000000000000000000
201607190060000100000000000000025328000000000000000253289600000000033714143609CENTRO-DE-ESTUDIOS-DIGESTIVOS-000000000077500000000000000000000000000000000000000000000000000000000000000000000000000000000000000000000000000000000000PES00010000001 00000000000000000000000
201607190060000100000000000000025329000000000000000253299600000000033714143609CENTRO-DE-ESTUDIOS-DIGESTIVOS-000000000037500000000000000000000000000000000000000000000000000000000000000000000000000000000000000000000000000000000000PES00010000001 00000000000000000000000
201607190060000100000000000000025330000000000000000253309600000000033714143609CENTRO-DE-ESTUDIOS-DIGESTIVOS-000000000015000000000000000000000000000000000000000000000000000000000000000000000000000000000000000000000000000000000000PES00010000001 00000000000000000000000
201607190060000100000000000000025331000000000000000253319600000000033714143609CENTRO-DE-ESTUDIOS-DIGESTIVOS-000000000009800000000000000000000000000000000000000000000000000000000000000000000000000000000000000000000000000000000000PES00010000001 00000000000000000000000
201607190060000100000000000000025332000000000000000253329600000000033714143609CENTRO-DE-ESTUDIOS-DIGESTIVOS-000000000163300000000000000000000000000000000000000000000000000000000000000000000000000000000000000000000000000000000000PES00010000001 00000000000000000000000
201607190060000100000000000000025333000000000000000253339600000000033714143609CENTRO-DE-ESTUDIOS-DIGESTIVOS-000000000034000000000000000000000000000000000000000000000000000000000000000000000000000000000000000000000000000000000000PES00010000001 00000000000000000000000
201607190060000100000000000000025334000000000000000253349600000000033714143609CENTRO-DE-ESTUDIOS-DIGESTIVOS-000000000032000000000000000000000000000000000000000000000000000000000000000000000000000000000000000000000000000000000000PES00010000001 00000000000000000000000
201607190060000100000000000000025335000000000000000253359600000000033714143609CENTRO-DE-ESTUDIOS-DIGESTIVOS-000000000250500000000000000000000000000000000000000000000000000000000000000000000000000000000000000000000000000000000000PES00010000001 00000000000000000000000
201607190060000100000000000000025336000000000000000253369600000000033714143609CENTRO-DE-ESTUDIOS-DIGESTIVOS-000000000033700000000000000000000000000000000000000000000000000000000000000000000000000000000000000000000000000000000000PES00010000001 00000000000000000000000
201607190060000100000000000000025337000000000000000253379600000000033714143609CENTRO-DE-ESTUDIOS-DIGESTIVOS-000000000023300000000000000000000000000000000000000000000000000000000000000000000000000000000000000000000000000000000000PES00010000001 00000000000000000000000
201607190060000100000000000000025338000000000000000253389600000000033714143609CENTRO-DE-ESTUDIOS-DIGESTIVOS-000000000009500000000000000000000000000000000000000000000000000000000000000000000000000000000000000000000000000000000000PES00010000001 00000000000000000000000
201607190060000100000000000000025339000000000000000253399600000000033714143609CENTRO-DE-ESTUDIOS-DIGESTIVOS-000000000090000000000000000000000000000000000000000000000000000000000000000000000000000000000000000000000000000000000000PES00010000001 00000000000000000000000
201607190060000100000000000000025340000000000000000253409600000000033714143609CENTRO-DE-ESTUDIOS-DIGESTIVOS-000000000042500000000000000000000000000000000000000000000000000000000000000000000000000000000000000000000000000000000000PES00010000001 00000000000000000000000
201607190060000100000000000000025341000000000000000253419600000000033714143609CENTRO-DE-ESTUDIOS-DIGESTIVOS-000000000134700000000000000000000000000000000000000000000000000000000000000000000000000000000000000000000000000000000000PES00010000001 00000000000000000000000
201607190060000100000000000000025342000000000000000253429600000000033714143609CENTRO-DE-ESTUDIOS-DIGESTIVOS-000000000068900000000000000000000000000000000000000000000000000000000000000000000000000000000000000000000000000000000000PES00010000001 00000000000000000000000
201607190060000100000000000000025343000000000000000253439600000000033714143609CENTRO-DE-ESTUDIOS-DIGESTIVOS-000000000034800000000000000000000000000000000000000000000000000000000000000000000000000000000000000000000000000000000000PES00010000001 00000000000000000000000
201607190060000100000000000000025344000000000000000253449600000000033714143609CENTRO-DE-ESTUDIOS-DIGESTIVOS-000000000074000000000000000000000000000000000000000000000000000000000000000000000000000000000000000000000000000000000000PES00010000001 00000000000000000000000
201607190060000100000000000000025345000000000000000253459600000000033714143609CENTRO-DE-ESTUDIOS-DIGESTIVOS-000000000088500000000000000000000000000000000000000000000000000000000000000000000000000000000000000000000000000000000000PES00010000001 00000000000000000000000
201607190060000100000000000000025346000000000000000253469600000000033714143609CENTRO-DE-ESTUDIOS-DIGESTIVOS-000000000216200000000000000000000000000000000000000000000000000000000000000000000000000000000000000000000000000000000000PES00010000001 00000000000000000000000
201607190060000100000000000000025347000000000000000253479600000000033714143609CENTRO-DE-ESTUDIOS-DIGESTIVOS-000000000057400000000000000000000000000000000000000000000000000000000000000000000000000000000000000000000000000000000000PES00010000001 00000000000000000000000
201607190060000100000000000000025348000000000000000253489600000000033714143609CENTRO-DE-ESTUDIOS-DIGESTIVOS-000000000121700000000000000000000000000000000000000000000000000000000000000000000000000000000000000000000000000000000000PES00010000001 00000000000000000000000
201607190060000100000000000000025349000000000000000253499600000000033714143609CENTRO-DE-ESTUDIOS-DIGESTIVOS-000000000045000000000000000000000000000000000000000000000000000000000000000000000000000000000000000000000000000000000000PES00010000001 00000000000000000000000
201607190060000100000000000000025350000000000000000253509600000000033714143609CENTRO-DE-ESTUDIOS-DIGESTIVOS-000000000005500000000000000000000000000000000000000000000000000000000000000000000000000000000000000000000000000000000000PES00010000001 00000000000000000000000
201607190060000100000000000000025351000000000000000253519600000000033714143609CENTRO-DE-ESTUDIOS-DIGESTIVOS-000000000037000000000000000000000000000000000000000000000000000000000000000000000000000000000000000000000000000000000000PES00010000001 00000000000000000000000
201607190060000100000000000000025352000000000000000253529600000000033714143609CENTRO-DE-ESTUDIOS-DIGESTIVOS-000000000049500000000000000000000000000000000000000000000000000000000000000000000000000000000000000000000000000000000000PES00010000001 00000000000000000000000
201607190060000100000000000000025353000000000000000253539600000000033714143609CENTRO-DE-ESTUDIOS-DIGESTIVOS-000000000044500000000000000000000000000000000000000000000000000000000000000000000000000000000000000000000000000000000000PES00010000001 00000000000000000000000
201607200060000100000000000000025354000000000000000253549600000000033714143609CENTRO-DE-ESTUDIOS-DIGESTIVOS-000000000100000000000000000000000000000000000000000000000000000000000000000000000000000000000000000000000000000000000000PES00010000001 00000000000000000000000
201607200060000100000000000000025355000000000000000253559600000000033714143609CENTRO-DE-ESTUDIOS-DIGESTIVOS-000000000089800000000000000000000000000000000000000000000000000000000000000000000000000000000000000000000000000000000000PES00010000001 00000000000000000000000
201607200060000100000000000000025356000000000000000253569600000000033714143609CENTRO-DE-ESTUDIOS-DIGESTIVOS-000000000059000000000000000000000000000000000000000000000000000000000000000000000000000000000000000000000000000000000000PES00010000001 00000000000000000000000
201607200060000100000000000000025357000000000000000253579600000000033714143609CENTRO-DE-ESTUDIOS-DIGESTIVOS-000000000015000000000000000000000000000000000000000000000000000000000000000000000000000000000000000000000000000000000000PES00010000001 00000000000000000000000
201607200060000100000000000000025358000000000000000253589600000000033714143609CENTRO-DE-ESTUDIOS-DIGESTIVOS-000000000039500000000000000000000000000000000000000000000000000000000000000000000000000000000000000000000000000000000000PES00010000001 00000000000000000000000
201607200060000100000000000000025359000000000000000253599600000000033714143609CENTRO-DE-ESTUDIOS-DIGESTIVOS-000000000310400000000000000000000000000000000000000000000000000000000000000000000000000000000000000000000000000000000000PES00010000001 00000000000000000000000
201607200060000100000000000000025360000000000000000253609600000000033714143609CENTRO-DE-ESTUDIOS-DIGESTIVOS-000000000103500000000000000000000000000000000000000000000000000000000000000000000000000000000000000000000000000000000000PES00010000001 00000000000000000000000
201607200060000100000000000000025361000000000000000253619600000000033714143609CENTRO-DE-ESTUDIOS-DIGESTIVOS-000000000030000000000000000000000000000000000000000000000000000000000000000000000000000000000000000000000000000000000000PES00010000001 00000000000000000000000
201607200060000100000000000000025362000000000000000253629600000000033714143609CENTRO-DE-ESTUDIOS-DIGESTIVOS-000000000042000000000000000000000000000000000000000000000000000000000000000000000000000000000000000000000000000000000000PES00010000001 00000000000000000000000
201607200060000100000000000000025363000000000000000253639600000000033714143609CENTRO-DE-ESTUDIOS-DIGESTIVOS-000000000045000000000000000000000000000000000000000000000000000000000000000000000000000000000000000000000000000000000000PES00010000001 00000000000000000000000
201607200060000100000000000000025364000000000000000253649600000000033714143609CENTRO-DE-ESTUDIOS-DIGESTIVOS-000000000120500000000000000000000000000000000000000000000000000000000000000000000000000000000000000000000000000000000000PES00010000001 00000000000000000000000
201607200060000100000000000000025365000000000000000253659600000000033714143609CENTRO-DE-ESTUDIOS-DIGESTIVOS-000000000038000000000000000000000000000000000000000000000000000000000000000000000000000000000000000000000000000000000000PES00010000001 00000000000000000000000
201607200060000100000000000000025366000000000000000253669600000000033714143609CENTRO-DE-ESTUDIOS-DIGESTIVOS-000000000039000000000000000000000000000000000000000000000000000000000000000000000000000000000000000000000000000000000000PES00010000001 00000000000000000000000
201607200060000100000000000000025367000000000000000253679600000000033714143609CENTRO-DE-ESTUDIOS-DIGESTIVOS-000000000088500000000000000000000000000000000000000000000000000000000000000000000000000000000000000000000000000000000000PES00010000001 00000000000000000000000
201607200060000100000000000000025368000000000000000253689600000000033714143609CENTRO-DE-ESTUDIOS-DIGESTIVOS-000000000102000000000000000000000000000000000000000000000000000000000000000000000000000000000000000000000000000000000000PES00010000001 00000000000000000000000
201607200060000100000000000000025369000000000000000253699600000000033714143609CENTRO-DE-ESTUDIOS-DIGESTIVOS-000000000012000000000000000000000000000000000000000000000000000000000000000000000000000000000000000000000000000000000000PES00010000001 00000000000000000000000
201607200060000100000000000000025370000000000000000253709600000000033714143609CENTRO-DE-ESTUDIOS-DIGESTIVOS-000000000012500000000000000000000000000000000000000000000000000000000000000000000000000000000000000000000000000000000000PES00010000001 00000000000000000000000
201607200060000100000000000000025371000000000000000253719600000000033714143609CENTRO-DE-ESTUDIOS-DIGESTIVOS-000000000035000000000000000000000000000000000000000000000000000000000000000000000000000000000000000000000000000000000000PES00010000001 00000000000000000000000
201607200060000100000000000000025372000000000000000253729600000000033714143609CENTRO-DE-ESTUDIOS-DIGESTIVOS-000000000036000000000000000000000000000000000000000000000000000000000000000000000000000000000000000000000000000000000000PES00010000001 00000000000000000000000
201607200060000100000000000000025373000000000000000253739600000000033714143609CENTRO-DE-ESTUDIOS-DIGESTIVOS-000000000227800000000000000000000000000000000000000000000000000000000000000000000000000000000000000000000000000000000000PES00010000001 00000000000000000000000
201607200060000100000000000000025374000000000000000253749600000000033714143609CENTRO-DE-ESTUDIOS-DIGESTIVOS-000000000045000000000000000000000000000000000000000000000000000000000000000000000000000000000000000000000000000000000000PES00010000001 00000000000000000000000
201607200060000100000000000000025375000000000000000253759600000000033714143609CENTRO-DE-ESTUDIOS-DIGESTIVOS-000000000083000000000000000000000000000000000000000000000000000000000000000000000000000000000000000000000000000000000000PES00010000001 00000000000000000000000
201607200060000100000000000000025376000000000000000253769600000000033714143609CENTRO-DE-ESTUDIOS-DIGESTIVOS-000000000070000000000000000000000000000000000000000000000000000000000000000000000000000000000000000000000000000000000000PES00010000001 00000000000000000000000
201607200060000100000000000000025377000000000000000253779600000000033714143609CENTRO-DE-ESTUDIOS-DIGESTIVOS-000000000039000000000000000000000000000000000000000000000000000000000000000000000000000000000000000000000000000000000000PES00010000001 00000000000000000000000
201607200060000100000000000000025378000000000000000253789600000000033714143609CENTRO-DE-ESTUDIOS-DIGESTIVOS-000000000029000000000000000000000000000000000000000000000000000000000000000000000000000000000000000000000000000000000000PES00010000001 00000000000000000000000
201607200060000100000000000000025379000000000000000253799600000000033714143609CENTRO-DE-ESTUDIOS-DIGESTIVOS-000000000040000000000000000000000000000000000000000000000000000000000000000000000000000000000000000000000000000000000000PES00010000001 00000000000000000000000
201607200060000100000000000000025380000000000000000253809600000000033714143609CENTRO-DE-ESTUDIOS-DIGESTIVOS-000000000288500000000000000000000000000000000000000000000000000000000000000000000000000000000000000000000000000000000000PES00010000001 00000000000000000000000
201607200060000100000000000000025381000000000000000253819600000000033714143609CENTRO-DE-ESTUDIOS-DIGESTIVOS-000000000118500000000000000000000000000000000000000000000000000000000000000000000000000000000000000000000000000000000000PES00010000001 00000000000000000000000
201607200060000100000000000000025382000000000000000253829600000000033714143609CENTRO-DE-ESTUDIOS-DIGESTIVOS-000000000024500000000000000000000000000000000000000000000000000000000000000000000000000000000000000000000000000000000000PES00010000001 00000000000000000000000
201607200060000100000000000000025383000000000000000253839600000000033714143609CENTRO-DE-ESTUDIOS-DIGESTIVOS-000000000045000000000000000000000000000000000000000000000000000000000000000000000000000000000000000000000000000000000000PES00010000001 00000000000000000000000
201607200060000100000000000000025384000000000000000253849600000000033714143609CENTRO-DE-ESTUDIOS-DIGESTIVOS-000000000025600000000000000000000000000000000000000000000000000000000000000000000000000000000000000000000000000000000000PES00010000001 00000000000000000000000
201607200060000100000000000000025385000000000000000253859600000000033714143609CENTRO-DE-ESTUDIOS-DIGESTIVOS-000000000166100000000000000000000000000000000000000000000000000000000000000000000000000000000000000000000000000000000000PES00010000001 00000000000000000000000
201607200060000100000000000000025386000000000000000253869600000000033714143609CENTRO-DE-ESTUDIOS-DIGESTIVOS-000000000027500000000000000000000000000000000000000000000000000000000000000000000000000000000000000000000000000000000000PES00010000001 00000000000000000000000
201607200060000100000000000000025387000000000000000253879600000000033714143609CENTRO-DE-ESTUDIOS-DIGESTIVOS-000000000042500000000000000000000000000000000000000000000000000000000000000000000000000000000000000000000000000000000000PES00010000001 00000000000000000000000
201607200060000100000000000000025388000000000000000253889600000000033714143609CENTRO-DE-ESTUDIOS-DIGESTIVOS-000000000106800000000000000000000000000000000000000000000000000000000000000000000000000000000000000000000000000000000000PES00010000001 00000000000000000000000
201607200060000100000000000000025389000000000000000253899600000000033714143609CENTRO-DE-ESTUDIOS-DIGESTIVOS-000000000035000000000000000000000000000000000000000000000000000000000000000000000000000000000000000000000000000000000000PES00010000001 00000000000000000000000
201607200060000100000000000000025390000000000000000253909600000000033714143609CENTRO-DE-ESTUDIOS-DIGESTIVOS-000000000033000000000000000000000000000000000000000000000000000000000000000000000000000000000000000000000000000000000000PES00010000001 00000000000000000000000
201607200060000100000000000000025391000000000000000253919600000000033714143609CENTRO-DE-ESTUDIOS-DIGESTIVOS-000000000082500000000000000000000000000000000000000000000000000000000000000000000000000000000000000000000000000000000000PES00010000001 00000000000000000000000
201607200060000100000000000000025392000000000000000253929600000000033714143609CENTRO-DE-ESTUDIOS-DIGESTIVOS-000000000118000000000000000000000000000000000000000000000000000000000000000000000000000000000000000000000000000000000000PES00010000001 00000000000000000000000
201607200060000100000000000000025393000000000000000253939600000000033714143609CENTRO-DE-ESTUDIOS-DIGESTIVOS-000000000065000000000000000000000000000000000000000000000000000000000000000000000000000000000000000000000000000000000000PES00010000001 00000000000000000000000
201607210060000100000000000000025394000000000000000253949600000000033714143609CENTRO-DE-ESTUDIOS-DIGESTIVOS-000000000025500000000000000000000000000000000000000000000000000000000000000000000000000000000000000000000000000000000000PES00010000001 00000000000000000000000
201607210060000100000000000000025395000000000000000253959600000000033714143609CENTRO-DE-ESTUDIOS-DIGESTIVOS-000000000113800000000000000000000000000000000000000000000000000000000000000000000000000000000000000000000000000000000000PES00010000001 00000000000000000000000
201607210060000100000000000000025396000000000000000253969600000000033714143609CENTRO-DE-ESTUDIOS-DIGESTIVOS-000000000062300000000000000000000000000000000000000000000000000000000000000000000000000000000000000000000000000000000000PES00010000001 00000000000000000000000
201607210060000100000000000000025397000000000000000253979600000000033714143609CENTRO-DE-ESTUDIOS-DIGESTIVOS-000000000029500000000000000000000000000000000000000000000000000000000000000000000000000000000000000000000000000000000000PES00010000001 00000000000000000000000
201607210060000100000000000000025398000000000000000253989600000000033714143609CENTRO-DE-ESTUDIOS-DIGESTIVOS-000000000065000000000000000000000000000000000000000000000000000000000000000000000000000000000000000000000000000000000000PES00010000001 00000000000000000000000
201607210060000100000000000000025399000000000000000253999600000000033714143609CENTRO-DE-ESTUDIOS-DIGESTIVOS-000000000243500000000000000000000000000000000000000000000000000000000000000000000000000000000000000000000000000000000000PES00010000001 00000000000000000000000
201607210060000100000000000000025400000000000000000254009600000000033714143609CENTRO-DE-ESTUDIOS-DIGESTIVOS-000000000007800000000000000000000000000000000000000000000000000000000000000000000000000000000000000000000000000000000000PES00010000001 00000000000000000000000
201607210060000100000000000000025401000000000000000254019600000000033714143609CENTRO-DE-ESTUDIOS-DIGESTIVOS-000000000177500000000000000000000000000000000000000000000000000000000000000000000000000000000000000000000000000000000000PES00010000001 00000000000000000000000
201607210060000100000000000000025402000000000000000254029600000000033714143609CENTRO-DE-ESTUDIOS-DIGESTIVOS-000000000107000000000000000000000000000000000000000000000000000000000000000000000000000000000000000000000000000000000000PES00010000001 00000000000000000000000
201607210060000100000000000000025403000000000000000254039600000000033714143609CENTRO-DE-ESTUDIOS-DIGESTIVOS-000000000127500000000000000000000000000000000000000000000000000000000000000000000000000000000000000000000000000000000000PES00010000001 00000000000000000000000
201607210060000100000000000000025404000000000000000254049600000000033714143609CENTRO-DE-ESTUDIOS-DIGESTIVOS-000000000137000000000000000000000000000000000000000000000000000000000000000000000000000000000000000000000000000000000000PES00010000001 00000000000000000000000
201607210060000100000000000000025405000000000000000254059600000000033714143609CENTRO-DE-ESTUDIOS-DIGESTIVOS-000000000036000000000000000000000000000000000000000000000000000000000000000000000000000000000000000000000000000000000000PES00010000001 00000000000000000000000
201607210060000100000000000000025406000000000000000254069600000000033714143609CENTRO-DE-ESTUDIOS-DIGESTIVOS-000000000216500000000000000000000000000000000000000000000000000000000000000000000000000000000000000000000000000000000000PES00010000001 00000000000000000000000
201607210060000100000000000000025407000000000000000254079600000000033714143609CENTRO-DE-ESTUDIOS-DIGESTIVOS-000000000029800000000000000000000000000000000000000000000000000000000000000000000000000000000000000000000000000000000000PES00010000001 00000000000000000000000
201607210060000100000000000000025408000000000000000254089600000000033714143609CENTRO-DE-ESTUDIOS-DIGESTIVOS-000000000026000000000000000000000000000000000000000000000000000000000000000000000000000000000000000000000000000000000000PES00010000001 00000000000000000000000
201607210060000100000000000000025409000000000000000254099600000000033714143609CENTRO-DE-ESTUDIOS-DIGESTIVOS-000000000067500000000000000000000000000000000000000000000000000000000000000000000000000000000000000000000000000000000000PES00010000001 00000000000000000000000
201607210060000100000000000000025410000000000000000254109600000000033714143609CENTRO-DE-ESTUDIOS-DIGESTIVOS-000000000198000000000000000000000000000000000000000000000000000000000000000000000000000000000000000000000000000000000000PES00010000001 00000000000000000000000
201607210060000100000000000000025411000000000000000254119600000000033714143609CENTRO-DE-ESTUDIOS-DIGESTIVOS-000000000117500000000000000000000000000000000000000000000000000000000000000000000000000000000000000000000000000000000000PES00010000001 00000000000000000000000
201607210060000100000000000000025412000000000000000254129600000000033714143609CENTRO-DE-ESTUDIOS-DIGESTIVOS-000000000019000000000000000000000000000000000000000000000000000000000000000000000000000000000000000000000000000000000000PES00010000001 00000000000000000000000
201607210060000100000000000000025413000000000000000254139600000000033714143609CENTRO-DE-ESTUDIOS-DIGESTIVOS-000000000075300000000000000000000000000000000000000000000000000000000000000000000000000000000000000000000000000000000000PES00010000001 00000000000000000000000
201607210060000100000000000000025414000000000000000254149600000000033714143609CENTRO-DE-ESTUDIOS-DIGESTIVOS-000000000132200000000000000000000000000000000000000000000000000000000000000000000000000000000000000000000000000000000000PES00010000001 00000000000000000000000
201607210060000100000000000000025415000000000000000254159600000000033714143609CENTRO-DE-ESTUDIOS-DIGESTIVOS-000000000091500000000000000000000000000000000000000000000000000000000000000000000000000000000000000000000000000000000000PES00010000001 00000000000000000000000
201607210060000100000000000000025416000000000000000254169600000000033714143609CENTRO-DE-ESTUDIOS-DIGESTIVOS-000000000095000000000000000000000000000000000000000000000000000000000000000000000000000000000000000000000000000000000000PES00010000001 00000000000000000000000
201607210060000100000000000000025417000000000000000254179600000000033714143609CENTRO-DE-ESTUDIOS-DIGESTIVOS-000000000026000000000000000000000000000000000000000000000000000000000000000000000000000000000000000000000000000000000000PES00010000001 00000000000000000000000
201607210060000100000000000000025418000000000000000254189600000000033714143609CENTRO-DE-ESTUDIOS-DIGESTIVOS-000000000101000000000000000000000000000000000000000000000000000000000000000000000000000000000000000000000000000000000000PES00010000001 00000000000000000000000
201607210060000100000000000000025419000000000000000254199600000000033714143609CENTRO-DE-ESTUDIOS-DIGESTIVOS-000000000084300000000000000000000000000000000000000000000000000000000000000000000000000000000000000000000000000000000000PES00010000001 00000000000000000000000
201607210060000100000000000000025420000000000000000254209600000000033714143609CENTRO-DE-ESTUDIOS-DIGESTIVOS-000000000034000000000000000000000000000000000000000000000000000000000000000000000000000000000000000000000000000000000000PES00010000001 00000000000000000000000
201607220060000100000000000000025421000000000000000254219600000000033714143609CENTRO-DE-ESTUDIOS-DIGESTIVOS-000000000057000000000000000000000000000000000000000000000000000000000000000000000000000000000000000000000000000000000000PES00010000001 00000000000000000000000
201607220060000100000000000000025422000000000000000254229600000000033714143609CENTRO-DE-ESTUDIOS-DIGESTIVOS-000000000035000000000000000000000000000000000000000000000000000000000000000000000000000000000000000000000000000000000000PES00010000001 00000000000000000000000
201607220060000100000000000000025423000000000000000254239600000000033714143609CENTRO-DE-ESTUDIOS-DIGESTIVOS-000000000007800000000000000000000000000000000000000000000000000000000000000000000000000000000000000000000000000000000000PES00010000001 00000000000000000000000
201607220060000100000000000000025424000000000000000254249600000000033714143609CENTRO-DE-ESTUDIOS-DIGESTIVOS-000000000040500000000000000000000000000000000000000000000000000000000000000000000000000000000000000000000000000000000000PES00010000001 00000000000000000000000
201607220060000100000000000000025425000000000000000254259600000000033714143609CENTRO-DE-ESTUDIOS-DIGESTIVOS-000000000078000000000000000000000000000000000000000000000000000000000000000000000000000000000000000000000000000000000000PES00010000001 00000000000000000000000
201607220060000100000000000000025426000000000000000254269600000000033714143609CENTRO-DE-ESTUDIOS-DIGESTIVOS-000000000034000000000000000000000000000000000000000000000000000000000000000000000000000000000000000000000000000000000000PES00010000001 00000000000000000000000
201607220060000100000000000000025427000000000000000254279600000000033714143609CENTRO-DE-ESTUDIOS-DIGESTIVOS-000000000135000000000000000000000000000000000000000000000000000000000000000000000000000000000000000000000000000000000000PES00010000001 00000000000000000000000
201607220060000100000000000000025428000000000000000254289600000000033714143609CENTRO-DE-ESTUDIOS-DIGESTIVOS-000000000037000000000000000000000000000000000000000000000000000000000000000000000000000000000000000000000000000000000000PES00010000001 00000000000000000000000
201607220060000100000000000000025429000000000000000254299600000000033714143609CENTRO-DE-ESTUDIOS-DIGESTIVOS-000000000170000000000000000000000000000000000000000000000000000000000000000000000000000000000000000000000000000000000000PES00010000001 00000000000000000000000
201607220060000100000000000000025431000000000000000254319600000000033714143609CENTRO-DE-ESTUDIOS-DIGESTIVOS-000000000045000000000000000000000000000000000000000000000000000000000000000000000000000000000000000000000000000000000000PES00010000001 00000000000000000000000
201607220060000100000000000000025432000000000000000254329600000000033714143609CENTRO-DE-ESTUDIOS-DIGESTIVOS-000000000181000000000000000000000000000000000000000000000000000000000000000000000000000000000000000000000000000000000000PES00010000001 00000000000000000000000
201607220060000100000000000000025433000000000000000254339600000000033714143609CENTRO-DE-ESTUDIOS-DIGESTIVOS-000000000080500000000000000000000000000000000000000000000000000000000000000000000000000000000000000000000000000000000000PES00010000001 00000000000000000000000
201607220060000100000000000000025434000000000000000254349600000000033714143609CENTRO-DE-ESTUDIOS-DIGESTIVOS-000000000022500000000000000000000000000000000000000000000000000000000000000000000000000000000000000000000000000000000000PES00010000001 00000000000000000000000
201607220060000100000000000000025435000000000000000254359600000000033714143609CENTRO-DE-ESTUDIOS-DIGESTIVOS-000000000429500000000000000000000000000000000000000000000000000000000000000000000000000000000000000000000000000000000000PES00010000001 00000000000000000000000
201607220060000100000000000000025436000000000000000254369600000000033714143609CENTRO-DE-ESTUDIOS-DIGESTIVOS-000000000038000000000000000000000000000000000000000000000000000000000000000000000000000000000000000000000000000000000000PES00010000001 00000000000000000000000
201607220060000100000000000000025437000000000000000254379600000000033714143609CENTRO-DE-ESTUDIOS-DIGESTIVOS-000000000089800000000000000000000000000000000000000000000000000000000000000000000000000000000000000000000000000000000000PES00010000001 00000000000000000000000
201607220060000100000000000000025438000000000000000254389600000000033714143609CENTRO-DE-ESTUDIOS-DIGESTIVOS-000000000038000000000000000000000000000000000000000000000000000000000000000000000000000000000000000000000000000000000000PES00010000001 00000000000000000000000
201607220060000100000000000000025439000000000000000254399600000000033714143609CENTRO-DE-ESTUDIOS-DIGESTIVOS-000000000020500000000000000000000000000000000000000000000000000000000000000000000000000000000000000000000000000000000000PES00010000001 00000000000000000000000
201607230060000100000000000000025440000000000000000254409600000000033714143609CENTRO-DE-ESTUDIOS-DIGESTIVOS-000000000015000000000000000000000000000000000000000000000000000000000000000000000000000000000000000000000000000000000000PES00010000001 00000000000000000000000
201607230060000100000000000000025441000000000000000254419600000000033714143609CENTRO-DE-ESTUDIOS-DIGESTIVOS-000000000170000000000000000000000000000000000000000000000000000000000000000000000000000000000000000000000000000000000000PES00010000001 00000000000000000000000
201607230060000100000000000000025442000000000000000254429600000000033714143609CENTRO-DE-ESTUDIOS-DIGESTIVOS-000000000018500000000000000000000000000000000000000000000000000000000000000000000000000000000000000000000000000000000000PES00010000001 00000000000000000000000
201607230060000100000000000000025443000000000000000254439600000000033714143609CENTRO-DE-ESTUDIOS-DIGESTIVOS-000000000009500000000000000000000000000000000000000000000000000000000000000000000000000000000000000000000000000000000000PES00010000001 00000000000000000000000
201607230060000100000000000000025444000000000000000254449600000000033714143609CENTRO-DE-ESTUDIOS-DIGESTIVOS-000000000025500000000000000000000000000000000000000000000000000000000000000000000000000000000000000000000000000000000000PES00010000001 00000000000000000000000
201607230060000100000000000000025445000000000000000254459600000000033714143609CENTRO-DE-ESTUDIOS-DIGESTIVOS-000000000091500000000000000000000000000000000000000000000000000000000000000000000000000000000000000000000000000000000000PES00010000001 00000000000000000000000
201607230060000100000000000000025446000000000000000254469600000000033714143609CENTRO-DE-ESTUDIOS-DIGESTIVOS-000000000160400000000000000000000000000000000000000000000000000000000000000000000000000000000000000000000000000000000000PES00010000001 00000000000000000000000
201607230060000100000000000000025447000000000000000254479600000000033714143609CENTRO-DE-ESTUDIOS-DIGESTIVOS-000000000037500000000000000000000000000000000000000000000000000000000000000000000000000000000000000000000000000000000000PES00010000001 00000000000000000000000
201607230060000100000000000000025448000000000000000254489600000000033714143609CENTRO-DE-ESTUDIOS-DIGESTIVOS-000000000026000000000000000000000000000000000000000000000000000000000000000000000000000000000000000000000000000000000000PES00010000001 00000000000000000000000
201607230060000100000000000000025449000000000000000254499600000000033714143609CENTRO-DE-ESTUDIOS-DIGESTIVOS-000000000054000000000000000000000000000000000000000000000000000000000000000000000000000000000000000000000000000000000000PES00010000001 00000000000000000000000
201607230060000100000000000000025450000000000000000254509600000000033714143609CENTRO-DE-ESTUDIOS-DIGESTIVOS-000000000030300000000000000000000000000000000000000000000000000000000000000000000000000000000000000000000000000000000000PES00010000001 00000000000000000000000
201607230060000100000000000000025451000000000000000254519600000000033714143609CENTRO-DE-ESTUDIOS-DIGESTIVOS-000000000070000000000000000000000000000000000000000000000000000000000000000000000000000000000000000000000000000000000000PES00010000001 00000000000000000000000
201607230060000100000000000000025452000000000000000254529600000000033714143609CENTRO-DE-ESTUDIOS-DIGESTIVOS-000000000036500000000000000000000000000000000000000000000000000000000000000000000000000000000000000000000000000000000000PES00010000001 00000000000000000000000
201607230060000100000000000000025453000000000000000254539600000000033714143609CENTRO-DE-ESTUDIOS-DIGESTIVOS-000000000017000000000000000000000000000000000000000000000000000000000000000000000000000000000000000000000000000000000000PES00010000001 00000000000000000000000
201607230060000100000000000000025454000000000000000254549600000000033714143609CENTRO-DE-ESTUDIOS-DIGESTIVOS-000000000099500000000000000000000000000000000000000000000000000000000000000000000000000000000000000000000000000000000000PES00010000001 00000000000000000000000
201607230060000100000000000000025455000000000000000254559600000000033714143609CENTRO-DE-ESTUDIOS-DIGESTIVOS-000000000065000000000000000000000000000000000000000000000000000000000000000000000000000000000000000000000000000000000000PES00010000001 00000000000000000000000
201607230060000100000000000000025456000000000000000254569600000000033714143609CENTRO-DE-ESTUDIOS-DIGESTIVOS-000000000244400000000000000000000000000000000000000000000000000000000000000000000000000000000000000000000000000000000000PES00010000001 00000000000000000000000
201607230060000100000000000000025457000000000000000254579600000000033714143609CENTRO-DE-ESTUDIOS-DIGESTIVOS-000000000016500000000000000000000000000000000000000000000000000000000000000000000000000000000000000000000000000000000000PES00010000001 00000000000000000000000
201607230060000100000000000000025458000000000000000254589600000000033714143609CENTRO-DE-ESTUDIOS-DIGESTIVOS-000000000082200000000000000000000000000000000000000000000000000000000000000000000000000000000000000000000000000000000000PES00010000001 00000000000000000000000
201607230060000100000000000000025459000000000000000254599600000000033714143609CENTRO-DE-ESTUDIOS-DIGESTIVOS-000000000045500000000000000000000000000000000000000000000000000000000000000000000000000000000000000000000000000000000000PES00010000001 00000000000000000000000
201607230060000100000000000000025460000000000000000254609600000000033714143609CENTRO-DE-ESTUDIOS-DIGESTIVOS-000000000046500000000000000000000000000000000000000000000000000000000000000000000000000000000000000000000000000000000000PES00010000001 00000000000000000000000
201607230060000100000000000000025461000000000000000254619600000000033714143609CENTRO-DE-ESTUDIOS-DIGESTIVOS-000000000033500000000000000000000000000000000000000000000000000000000000000000000000000000000000000000000000000000000000PES00010000001 00000000000000000000000
201607230060000100000000000000025462000000000000000254629600000000033714143609CENTRO-DE-ESTUDIOS-DIGESTIVOS-000000000049500000000000000000000000000000000000000000000000000000000000000000000000000000000000000000000000000000000000PES00010000001 00000000000000000000000
201607230060000100000000000000025463000000000000000254639600000000033714143609CENTRO-DE-ESTUDIOS-DIGESTIVOS-000000000039000000000000000000000000000000000000000000000000000000000000000000000000000000000000000000000000000000000000PES00010000001 00000000000000000000000
201607230060000100000000000000025464000000000000000254649600000000033714143609CENTRO-DE-ESTUDIOS-DIGESTIVOS-000000000075000000000000000000000000000000000000000000000000000000000000000000000000000000000000000000000000000000000000PES00010000001 00000000000000000000000
201607230060000100000000000000025465000000000000000254659600000000033714143609CENTRO-DE-ESTUDIOS-DIGESTIVOS-000000000122100000000000000000000000000000000000000000000000000000000000000000000000000000000000000000000000000000000000PES00010000001 00000000000000000000000
201607230060000100000000000000025466000000000000000254669600000000030711067368LOS-ANDES-DESIGN-SRL          000000000143000000000000000000000000000000000000000000000000000000000000000000000000000000000000000000000000000000000000PES00010000001 00000000000000000000000
201607230060000100000000000000025467000000000000000254679600000000033714143609CENTRO-DE-ESTUDIOS-DIGESTIVOS-000000000010000000000000000000000000000000000000000000000000000000000000000000000000000000000000000000000000000000000000PES00010000001 00000000000000000000000
201607230060000100000000000000025468000000000000000254689600000000033714143609CENTRO-DE-ESTUDIOS-DIGESTIVOS-000000000047500000000000000000000000000000000000000000000000000000000000000000000000000000000000000000000000000000000000PES00010000001 00000000000000000000000
201607230060000100000000000000025469000000000000000254699600000000033714143609CENTRO-DE-ESTUDIOS-DIGESTIVOS-000000000064500000000000000000000000000000000000000000000000000000000000000000000000000000000000000000000000000000000000PES00010000001 00000000000000000000000
201607230060000100000000000000025470000000000000000254709600000000033714143609CENTRO-DE-ESTUDIOS-DIGESTIVOS-000000000057500000000000000000000000000000000000000000000000000000000000000000000000000000000000000000000000000000000000PES00010000001 00000000000000000000000
201607230060000100000000000000025471000000000000000254719600000000033714143609CENTRO-DE-ESTUDIOS-DIGESTIVOS-000000000048500000000000000000000000000000000000000000000000000000000000000000000000000000000000000000000000000000000000PES00010000001 00000000000000000000000
201607230060000100000000000000025472000000000000000254729600000000033714143609CENTRO-DE-ESTUDIOS-DIGESTIVOS-000000000126500000000000000000000000000000000000000000000000000000000000000000000000000000000000000000000000000000000000PES00010000001 00000000000000000000000
201607230060000100000000000000025473000000000000000254739600000000033714143609CENTRO-DE-ESTUDIOS-DIGESTIVOS-000000000039500000000000000000000000000000000000000000000000000000000000000000000000000000000000000000000000000000000000PES00010000001 00000000000000000000000
201607230060000100000000000000025474000000000000000254749600000000033714143609CENTRO-DE-ESTUDIOS-DIGESTIVOS-000000000035000000000000000000000000000000000000000000000000000000000000000000000000000000000000000000000000000000000000PES00010000001 00000000000000000000000
201607250060000100000000000000025475000000000000000254759600000000033714143609CENTRO-DE-ESTUDIOS-DIGESTIVOS-000000000045000000000000000000000000000000000000000000000000000000000000000000000000000000000000000000000000000000000000PES00010000001 00000000000000000000000
201607250060000100000000000000025476000000000000000254769600000000033714143609CENTRO-DE-ESTUDIOS-DIGESTIVOS-000000000094400000000000000000000000000000000000000000000000000000000000000000000000000000000000000000000000000000000000PES00010000001 00000000000000000000000
201607250060000100000000000000025477000000000000000254779600000000033714143609CENTRO-DE-ESTUDIOS-DIGESTIVOS-000000000024000000000000000000000000000000000000000000000000000000000000000000000000000000000000000000000000000000000000PES00010000001 00000000000000000000000
201607250060000100000000000000025478000000000000000254789600000000033714143609CENTRO-DE-ESTUDIOS-DIGESTIVOS-000000000034500000000000000000000000000000000000000000000000000000000000000000000000000000000000000000000000000000000000PES00010000001 00000000000000000000000
201607250060000100000000000000025479000000000000000254799600000000033714143609CENTRO-DE-ESTUDIOS-DIGESTIVOS-000000000065000000000000000000000000000000000000000000000000000000000000000000000000000000000000000000000000000000000000PES00010000001 00000000000000000000000
201607250060000100000000000000025480000000000000000254809600000000033714143609CENTRO-DE-ESTUDIOS-DIGESTIVOS-000000000082500000000000000000000000000000000000000000000000000000000000000000000000000000000000000000000000000000000000PES00010000001 00000000000000000000000
