201507010060000100000000000000020015000000000000000200159611111111111111111111CONSUMIDOR-FINAL              000000000037300000000000000000000000000000000000000000000000000000000000000000000000000000000000000000000000000000000000PES00010000001 00000000000000000000000
201507010060000100000000000000020016000000000000000200169611111111111111111111CONSUMIDOR-FINAL              000000000079500000000000000000000000000000000000000000000000000000000000000000000000000000000000000000000000000000000000PES00010000001 00000000000000000000000
201507010060000100000000000000020017000000000000000200179611111111111111111111CONSUMIDOR-FINAL              000000000015000000000000000000000000000000000000000000000000000000000000000000000000000000000000000000000000000000000000PES00010000001 00000000000000000000000
201507010060000100000000000000020018000000000000000200189611111111111111111111CONSUMIDOR-FINAL              000000000224100000000000000000000000000000000000000000000000000000000000000000000000000000000000000000000000000000000000PES00010000001 00000000000000000000000
201507010060000100000000000000020019000000000000000200199611111111111111111111CONSUMIDOR-FINAL              000000000071400000000000000000000000000000000000000000000000000000000000000000000000000000000000000000000000000000000000PES00010000001 00000000000000000000000
201507010010000100000000000000000976000000000000000009768000000000030670291851CLAMAR-SRL                    000000000476500000000000000000000000000000000000000000000000000000000000000000000000000000000000000000000000000000000000PES00010000001 00000000000000000000000
201507010060000100000000000000020020000000000000000200209611111111111111111111CONSUMIDOR-FINAL              000000000031500000000000000000000000000000000000000000000000000000000000000000000000000000000000000000000000000000000000PES00010000001 00000000000000000000000
201507010060000100000000000000020021000000000000000200219611111111111111111111CONSUMIDOR-FINAL              000000000065000000000000000000000000000000000000000000000000000000000000000000000000000000000000000000000000000000000000PES00010000001 00000000000000000000000
201507010060000100000000000000020022000000000000000200229611111111111111111111CONSUMIDOR-FINAL              000000000012500000000000000000000000000000000000000000000000000000000000000000000000000000000000000000000000000000000000PES00010000001 00000000000000000000000
201507010060000100000000000000020023000000000000000200239611111111111111111111CONSUMIDOR-FINAL              000000000033000000000000000000000000000000000000000000000000000000000000000000000000000000000000000000000000000000000000PES00010000001 00000000000000000000000
201507010060000100000000000000020024000000000000000200249611111111111111111111CONSUMIDOR-FINAL              000000000040000000000000000000000000000000000000000000000000000000000000000000000000000000000000000000000000000000000000PES00010000001 00000000000000000000000
201507010060000100000000000000020025000000000000000200259611111111111111111111CONSUMIDOR-FINAL              000000000089000000000000000000000000000000000000000000000000000000000000000000000000000000000000000000000000000000000000PES00010000001 00000000000000000000000
201507010060000100000000000000020026000000000000000200269611111111111111111111CONSUMIDOR-FINAL              000000000129600000000000000000000000000000000000000000000000000000000000000000000000000000000000000000000000000000000000PES00010000001 00000000000000000000000
201507010060000100000000000000020027000000000000000200279611111111111111111111CONSUMIDOR-FINAL              000000000205000000000000000000000000000000000000000000000000000000000000000000000000000000000000000000000000000000000000PES00010000001 00000000000000000000000
201507010060000100000000000000020028000000000000000200289611111111111111111111CONSUMIDOR-FINAL              000000000042500000000000000000000000000000000000000000000000000000000000000000000000000000000000000000000000000000000000PES00010000001 00000000000000000000000
201507010060000100000000000000020029000000000000000200299611111111111111111111CONSUMIDOR-FINAL              000000000032500000000000000000000000000000000000000000000000000000000000000000000000000000000000000000000000000000000000PES00010000001 00000000000000000000000
201507010060000100000000000000020030000000000000000200309611111111111111111111CONSUMIDOR-FINAL              000000000005800000000000000000000000000000000000000000000000000000000000000000000000000000000000000000000000000000000000PES00010000001 00000000000000000000000
201507020060000100000000000000020031000000000000000200319611111111111111111111CONSUMIDOR-FINAL              000000000048000000000000000000000000000000000000000000000000000000000000000000000000000000000000000000000000000000000000PES00010000001 00000000000000000000000
201507020060000100000000000000020032000000000000000200329611111111111111111111CONSUMIDOR-FINAL              000000000040000000000000000000000000000000000000000000000000000000000000000000000000000000000000000000000000000000000000PES00010000001 00000000000000000000000
201507020060000100000000000000020033000000000000000200339611111111111111111111CONSUMIDOR-FINAL              000000000054600000000000000000000000000000000000000000000000000000000000000000000000000000000000000000000000000000000000PES00010000001 00000000000000000000000
201507020060000100000000000000020034000000000000000200349611111111111111111111CONSUMIDOR-FINAL              000000000022500000000000000000000000000000000000000000000000000000000000000000000000000000000000000000000000000000000000PES00010000001 00000000000000000000000
201507020060000100000000000000020035000000000000000200359611111111111111111111CONSUMIDOR-FINAL              000000000027000000000000000000000000000000000000000000000000000000000000000000000000000000000000000000000000000000000000PES00010000001 00000000000000000000000
201507020060000100000000000000020036000000000000000200369611111111111111111111CONSUMIDOR-FINAL              000000000019000000000000000000000000000000000000000000000000000000000000000000000000000000000000000000000000000000000000PES00010000001 00000000000000000000000
201507020010000100000000000000000977000000000000000009778000000000020126715111BUSTOS-ALEJANDRO-LUIS         000000000097500000000000000000000000000000000000000000000000000000000000000000000000000000000000000000000000000000000000PES00010000001 00000000000000000000000
201507020060000100000000000000020037000000000000000200379611111111111111111111CONSUMIDOR-FINAL              000000000090000000000000000000000000000000000000000000000000000000000000000000000000000000000000000000000000000000000000PES00010000001 00000000000000000000000
201507020060000100000000000000020038000000000000000200389611111111111111111111CONSUMIDOR-FINAL              000000000056700000000000000000000000000000000000000000000000000000000000000000000000000000000000000000000000000000000000PES00010000001 00000000000000000000000
201507030060000100000000000000020039000000000000000200399611111111111111111111CONSUMIDOR-FINAL              000000000106000000000000000000000000000000000000000000000000000000000000000000000000000000000000000000000000000000000000PES00010000001 00000000000000000000000
201507030060000100000000000000020040000000000000000200409611111111111111111111CONSUMIDOR-FINAL              000000000015000000000000000000000000000000000000000000000000000000000000000000000000000000000000000000000000000000000000PES00010000001 00000000000000000000000
201507030060000100000000000000020041000000000000000200419611111111111111111111CONSUMIDOR-FINAL              000000000060000000000000000000000000000000000000000000000000000000000000000000000000000000000000000000000000000000000000PES00010000001 00000000000000000000000
201507030060000100000000000000020042000000000000000200429611111111111111111111CONSUMIDOR-FINAL              000000000052500000000000000000000000000000000000000000000000000000000000000000000000000000000000000000000000000000000000PES00010000001 00000000000000000000000
201507030060000100000000000000020043000000000000000200439611111111111111111111CONSUMIDOR-FINAL              000000000042500000000000000000000000000000000000000000000000000000000000000000000000000000000000000000000000000000000000PES00010000001 00000000000000000000000
201507030060000100000000000000020044000000000000000200449611111111111111111111CONSUMIDOR-FINAL              000000000044000000000000000000000000000000000000000000000000000000000000000000000000000000000000000000000000000000000000PES00010000001 00000000000000000000000
201507030060000100000000000000020045000000000000000200459611111111111111111111CONSUMIDOR-FINAL              000000000019000000000000000000000000000000000000000000000000000000000000000000000000000000000000000000000000000000000000PES00010000001 00000000000000000000000
201507030060000100000000000000020046000000000000000200469611111111111111111111CONSUMIDOR-FINAL              000000000019500000000000000000000000000000000000000000000000000000000000000000000000000000000000000000000000000000000000PES00010000001 00000000000000000000000
201507030060000100000000000000020047000000000000000200479611111111111111111111CONSUMIDOR-FINAL              000000000042500000000000000000000000000000000000000000000000000000000000000000000000000000000000000000000000000000000000PES00010000001 00000000000000000000000
201507030060000100000000000000020048000000000000000200489611111111111111111111CONSUMIDOR-FINAL              000000000038700000000000000000000000000000000000000000000000000000000000000000000000000000000000000000000000000000000000PES00010000001 00000000000000000000000
201507030060000100000000000000020049000000000000000200499611111111111111111111CONSUMIDOR-FINAL              000000000046500000000000000000000000000000000000000000000000000000000000000000000000000000000000000000000000000000000000PES00010000001 00000000000000000000000
201507030060000100000000000000020050000000000000000200509611111111111111111111CONSUMIDOR-FINAL              000000000049500000000000000000000000000000000000000000000000000000000000000000000000000000000000000000000000000000000000PES00010000001 00000000000000000000000
201507030060000100000000000000020051000000000000000200519611111111111111111111CONSUMIDOR-FINAL              000000000022000000000000000000000000000000000000000000000000000000000000000000000000000000000000000000000000000000000000PES00010000001 00000000000000000000000
201507030010000100000000000000000978000000000000000009788000000000027280759134IBARRA-MARIA-VICTORIA         000000000062000000000000000000000000000000000000000000000000000000000000000000000000000000000000000000000000000000000000PES00010000001 00000000000000000000000
201507030060000100000000000000020052000000000000000200529611111111111111111111CONSUMIDOR-FINAL              000000000067000000000000000000000000000000000000000000000000000000000000000000000000000000000000000000000000000000000000PES00010000001 00000000000000000000000
201507030060000100000000000000020053000000000000000200539611111111111111111111CONSUMIDOR-FINAL              000000000083500000000000000000000000000000000000000000000000000000000000000000000000000000000000000000000000000000000000PES00010000001 00000000000000000000000
201507030060000100000000000000020054000000000000000200549611111111111111111111CONSUMIDOR-FINAL              000000000103800000000000000000000000000000000000000000000000000000000000000000000000000000000000000000000000000000000000PES00010000001 00000000000000000000000
201507040060000100000000000000020055000000000000000200559611111111111111111111CONSUMIDOR-FINAL              000000000079000000000000000000000000000000000000000000000000000000000000000000000000000000000000000000000000000000000000PES00010000001 00000000000000000000000
201507040060000100000000000000020056000000000000000200569611111111111111111111CONSUMIDOR-FINAL              000000000015500000000000000000000000000000000000000000000000000000000000000000000000000000000000000000000000000000000000PES00010000001 00000000000000000000000
201507040060000100000000000000020057000000000000000200579611111111111111111111CONSUMIDOR-FINAL              000000000066000000000000000000000000000000000000000000000000000000000000000000000000000000000000000000000000000000000000PES00010000001 00000000000000000000000
201507040060000100000000000000020058000000000000000200589611111111111111111111CONSUMIDOR-FINAL              000000000304000000000000000000000000000000000000000000000000000000000000000000000000000000000000000000000000000000000000PES00010000001 00000000000000000000000
201507040060000100000000000000020059000000000000000200599611111111111111111111CONSUMIDOR-FINAL              000000000085000000000000000000000000000000000000000000000000000000000000000000000000000000000000000000000000000000000000PES00010000001 00000000000000000000000
201507040060000100000000000000020060000000000000000200609611111111111111111111CONSUMIDOR-FINAL              000000000048000000000000000000000000000000000000000000000000000000000000000000000000000000000000000000000000000000000000PES00010000001 00000000000000000000000
201507040060000100000000000000020061000000000000000200619611111111111111111111CONSUMIDOR-FINAL              000000000119000000000000000000000000000000000000000000000000000000000000000000000000000000000000000000000000000000000000PES00010000001 00000000000000000000000
201507040060000100000000000000020062000000000000000200629611111111111111111111CONSUMIDOR-FINAL              000000000007800000000000000000000000000000000000000000000000000000000000000000000000000000000000000000000000000000000000PES00010000001 00000000000000000000000
201507040060000100000000000000020063000000000000000200639611111111111111111111CONSUMIDOR-FINAL              000000000015000000000000000000000000000000000000000000000000000000000000000000000000000000000000000000000000000000000000PES00010000001 00000000000000000000000
201507040060000100000000000000020064000000000000000200649611111111111111111111CONSUMIDOR-FINAL              000000000033500000000000000000000000000000000000000000000000000000000000000000000000000000000000000000000000000000000000PES00010000001 00000000000000000000000
201507040060000100000000000000020065000000000000000200659611111111111111111111CONSUMIDOR-FINAL              000000000047500000000000000000000000000000000000000000000000000000000000000000000000000000000000000000000000000000000000PES00010000001 00000000000000000000000
201507040060000100000000000000020066000000000000000200669611111111111111111111CONSUMIDOR-FINAL              000000000015000000000000000000000000000000000000000000000000000000000000000000000000000000000000000000000000000000000000PES00010000001 00000000000000000000000
201507040060000100000000000000020067000000000000000200679611111111111111111111CONSUMIDOR-FINAL              000000000172500000000000000000000000000000000000000000000000000000000000000000000000000000000000000000000000000000000000PES00010000001 00000000000000000000000
201507040060000100000000000000020068000000000000000200689611111111111111111111CONSUMIDOR-FINAL              000000000022800000000000000000000000000000000000000000000000000000000000000000000000000000000000000000000000000000000000PES00010000001 00000000000000000000000
201507040060000100000000000000020069000000000000000200699611111111111111111111CONSUMIDOR-FINAL              000000000025400000000000000000000000000000000000000000000000000000000000000000000000000000000000000000000000000000000000PES00010000001 00000000000000000000000
201507060060000100000000000000020070000000000000000200709611111111111111111111CONSUMIDOR-FINAL              000000000071500000000000000000000000000000000000000000000000000000000000000000000000000000000000000000000000000000000000PES00010000001 00000000000000000000000
201507060060000100000000000000020071000000000000000200719611111111111111111111CONSUMIDOR-FINAL              000000000026000000000000000000000000000000000000000000000000000000000000000000000000000000000000000000000000000000000000PES00010000001 00000000000000000000000
201507060060000100000000000000020072000000000000000200729611111111111111111111CONSUMIDOR-FINAL              000000000052000000000000000000000000000000000000000000000000000000000000000000000000000000000000000000000000000000000000PES00010000001 00000000000000000000000
201507060060000100000000000000020073000000000000000200739611111111111111111111CONSUMIDOR-FINAL              000000000008000000000000000000000000000000000000000000000000000000000000000000000000000000000000000000000000000000000000PES00010000001 00000000000000000000000
201507060060000100000000000000020074000000000000000200749611111111111111111111CONSUMIDOR-FINAL              000000000059000000000000000000000000000000000000000000000000000000000000000000000000000000000000000000000000000000000000PES00010000001 00000000000000000000000
201507060060000100000000000000020075000000000000000200759611111111111111111111CONSUMIDOR-FINAL              000000000012500000000000000000000000000000000000000000000000000000000000000000000000000000000000000000000000000000000000PES00010000001 00000000000000000000000
201507060060000100000000000000020076000000000000000200769611111111111111111111CONSUMIDOR-FINAL              000000000027000000000000000000000000000000000000000000000000000000000000000000000000000000000000000000000000000000000000PES00010000001 00000000000000000000000
201507060060000100000000000000020077000000000000000200779611111111111111111111CONSUMIDOR-FINAL              000000000117300000000000000000000000000000000000000000000000000000000000000000000000000000000000000000000000000000000000PES00010000001 00000000000000000000000
201507060060000100000000000000020078000000000000000200789611111111111111111111CONSUMIDOR-FINAL              000000000166000000000000000000000000000000000000000000000000000000000000000000000000000000000000000000000000000000000000PES00010000001 00000000000000000000000
201507060060000100000000000000020079000000000000000200799611111111111111111111CONSUMIDOR-FINAL              000000000074000000000000000000000000000000000000000000000000000000000000000000000000000000000000000000000000000000000000PES00010000001 00000000000000000000000
201507060060000100000000000000020080000000000000000200809611111111111111111111CONSUMIDOR-FINAL              000000000047500000000000000000000000000000000000000000000000000000000000000000000000000000000000000000000000000000000000PES00010000001 00000000000000000000000
201507060060000100000000000000020081000000000000000200819611111111111111111111CONSUMIDOR-FINAL              000000000095000000000000000000000000000000000000000000000000000000000000000000000000000000000000000000000000000000000000PES00010000001 00000000000000000000000
201507070060000100000000000000020082000000000000000200829611111111111111111111CONSUMIDOR-FINAL              000000000098000000000000000000000000000000000000000000000000000000000000000000000000000000000000000000000000000000000000PES00010000001 00000000000000000000000
201507070060000100000000000000020083000000000000000200839611111111111111111111CONSUMIDOR-FINAL              000000000009000000000000000000000000000000000000000000000000000000000000000000000000000000000000000000000000000000000000PES00010000001 00000000000000000000000
201507070060000100000000000000020084000000000000000200849611111111111111111111CONSUMIDOR-FINAL              000000000095000000000000000000000000000000000000000000000000000000000000000000000000000000000000000000000000000000000000PES00010000001 00000000000000000000000
201507070060000100000000000000020085000000000000000200859611111111111111111111CONSUMIDOR-FINAL              000000000022000000000000000000000000000000000000000000000000000000000000000000000000000000000000000000000000000000000000PES00010000001 00000000000000000000000
201507070060000100000000000000020086000000000000000200869611111111111111111111CONSUMIDOR-FINAL              000000000275000000000000000000000000000000000000000000000000000000000000000000000000000000000000000000000000000000000000PES00010000001 00000000000000000000000
201507070060000100000000000000020087000000000000000200879611111111111111111111CONSUMIDOR-FINAL              000000000076800000000000000000000000000000000000000000000000000000000000000000000000000000000000000000000000000000000000PES00010000001 00000000000000000000000
201507070060000100000000000000020088000000000000000200889611111111111111111111CONSUMIDOR-FINAL              000000000033000000000000000000000000000000000000000000000000000000000000000000000000000000000000000000000000000000000000PES00010000001 00000000000000000000000
201507070060000100000000000000020089000000000000000200899611111111111111111111CONSUMIDOR-FINAL              000000000084200000000000000000000000000000000000000000000000000000000000000000000000000000000000000000000000000000000000PES00010000001 00000000000000000000000
201507070060000100000000000000020090000000000000000200909611111111111111111111CONSUMIDOR-FINAL              000000000085000000000000000000000000000000000000000000000000000000000000000000000000000000000000000000000000000000000000PES00010000001 00000000000000000000000
201507070060000100000000000000020091000000000000000200919611111111111111111111CONSUMIDOR-FINAL              000000000062500000000000000000000000000000000000000000000000000000000000000000000000000000000000000000000000000000000000PES00010000001 00000000000000000000000
201507070060000100000000000000020092000000000000000200929611111111111111111111CONSUMIDOR-FINAL              000000000043000000000000000000000000000000000000000000000000000000000000000000000000000000000000000000000000000000000000PES00010000001 00000000000000000000000
201507070060000100000000000000020093000000000000000200939611111111111111111111CONSUMIDOR-FINAL              000000000035000000000000000000000000000000000000000000000000000000000000000000000000000000000000000000000000000000000000PES00010000001 00000000000000000000000
201507070060000100000000000000020094000000000000000200949611111111111111111111CONSUMIDOR-FINAL              000000000029000000000000000000000000000000000000000000000000000000000000000000000000000000000000000000000000000000000000PES00010000001 00000000000000000000000
201507070060000100000000000000020095000000000000000200959611111111111111111111CONSUMIDOR-FINAL              000000000307700000000000000000000000000000000000000000000000000000000000000000000000000000000000000000000000000000000000PES00010000001 00000000000000000000000
201507070060000100000000000000020096000000000000000200969611111111111111111111CONSUMIDOR-FINAL              000000000012000000000000000000000000000000000000000000000000000000000000000000000000000000000000000000000000000000000000PES00010000001 00000000000000000000000
201507070060000100000000000000020097000000000000000200979611111111111111111111CONSUMIDOR-FINAL              000000000183000000000000000000000000000000000000000000000000000000000000000000000000000000000000000000000000000000000000PES00010000001 00000000000000000000000
201507070060000100000000000000020098000000000000000200989611111111111111111111CONSUMIDOR-FINAL              000000000011500000000000000000000000000000000000000000000000000000000000000000000000000000000000000000000000000000000000PES00010000001 00000000000000000000000
201507070060000100000000000000020099000000000000000200999611111111111111111111CONSUMIDOR-FINAL              000000000216300000000000000000000000000000000000000000000000000000000000000000000000000000000000000000000000000000000000PES00010000001 00000000000000000000000
201507080060000100000000000000020100000000000000000201009611111111111111111111CONSUMIDOR-FINAL              000000000150000000000000000000000000000000000000000000000000000000000000000000000000000000000000000000000000000000000000PES00010000001 00000000000000000000000
201507080060000100000000000000020101000000000000000201019611111111111111111111CONSUMIDOR-FINAL              000000000012500000000000000000000000000000000000000000000000000000000000000000000000000000000000000000000000000000000000PES00010000001 00000000000000000000000
201507080060000100000000000000020102000000000000000201029611111111111111111111CONSUMIDOR-FINAL              000000000071500000000000000000000000000000000000000000000000000000000000000000000000000000000000000000000000000000000000PES00010000001 00000000000000000000000
201507080060000100000000000000020103000000000000000201039611111111111111111111CONSUMIDOR-FINAL              000000000024000000000000000000000000000000000000000000000000000000000000000000000000000000000000000000000000000000000000PES00010000001 00000000000000000000000
201507080060000100000000000000020104000000000000000201049611111111111111111111CONSUMIDOR-FINAL              000000000046800000000000000000000000000000000000000000000000000000000000000000000000000000000000000000000000000000000000PES00010000001 00000000000000000000000
201507080060000100000000000000020105000000000000000201059611111111111111111111CONSUMIDOR-FINAL              000000000055500000000000000000000000000000000000000000000000000000000000000000000000000000000000000000000000000000000000PES00010000001 00000000000000000000000
201507080060000100000000000000020106000000000000000201069611111111111111111111CONSUMIDOR-FINAL              000000000067500000000000000000000000000000000000000000000000000000000000000000000000000000000000000000000000000000000000PES00010000001 00000000000000000000000
201507080060000100000000000000020107000000000000000201079611111111111111111111CONSUMIDOR-FINAL              000000000136400000000000000000000000000000000000000000000000000000000000000000000000000000000000000000000000000000000000PES00010000001 00000000000000000000000
201507080060000100000000000000020108000000000000000201089611111111111111111111CONSUMIDOR-FINAL              000000000046000000000000000000000000000000000000000000000000000000000000000000000000000000000000000000000000000000000000PES00010000001 00000000000000000000000
201507080060000100000000000000020109000000000000000201099611111111111111111111CONSUMIDOR-FINAL              000000000017500000000000000000000000000000000000000000000000000000000000000000000000000000000000000000000000000000000000PES00010000001 00000000000000000000000
201507080060000100000000000000020110000000000000000201109611111111111111111111CONSUMIDOR-FINAL              000000000078000000000000000000000000000000000000000000000000000000000000000000000000000000000000000000000000000000000000PES00010000001 00000000000000000000000
201507080060000100000000000000020111000000000000000201119611111111111111111111CONSUMIDOR-FINAL              000000000021500000000000000000000000000000000000000000000000000000000000000000000000000000000000000000000000000000000000PES00010000001 00000000000000000000000
201507080060000100000000000000020112000000000000000201129611111111111111111111CONSUMIDOR-FINAL              000000000135700000000000000000000000000000000000000000000000000000000000000000000000000000000000000000000000000000000000PES00010000001 00000000000000000000000
201507080060000100000000000000020113000000000000000201139611111111111111111111CONSUMIDOR-FINAL              000000000090300000000000000000000000000000000000000000000000000000000000000000000000000000000000000000000000000000000000PES00010000001 00000000000000000000000
201507080060000100000000000000020114000000000000000201149611111111111111111111CONSUMIDOR-FINAL              000000000059500000000000000000000000000000000000000000000000000000000000000000000000000000000000000000000000000000000000PES00010000001 00000000000000000000000
201507080060000100000000000000020115000000000000000201159611111111111111111111CONSUMIDOR-FINAL              000000000068500000000000000000000000000000000000000000000000000000000000000000000000000000000000000000000000000000000000PES00010000001 00000000000000000000000
201507080060000100000000000000020116000000000000000201169611111111111111111111CONSUMIDOR-FINAL              000000000049500000000000000000000000000000000000000000000000000000000000000000000000000000000000000000000000000000000000PES00010000001 00000000000000000000000
201507080060000100000000000000020117000000000000000201179611111111111111111111CONSUMIDOR-FINAL              000000000050200000000000000000000000000000000000000000000000000000000000000000000000000000000000000000000000000000000000PES00010000001 00000000000000000000000
201507080060000100000000000000020118000000000000000201189611111111111111111111CONSUMIDOR-FINAL              000000000021500000000000000000000000000000000000000000000000000000000000000000000000000000000000000000000000000000000000PES00010000001 00000000000000000000000
201507080060000100000000000000020119000000000000000201199611111111111111111111CONSUMIDOR-FINAL              000000000032500000000000000000000000000000000000000000000000000000000000000000000000000000000000000000000000000000000000PES00010000001 00000000000000000000000
201507080060000100000000000000020121000000000000000201219611111111111111111111CONSUMIDOR-FINAL              000000000042000000000000000000000000000000000000000000000000000000000000000000000000000000000000000000000000000000000000PES00010000001 00000000000000000000000
201507100060000100000000000000020122000000000000000201229611111111111111111111CONSUMIDOR-FINAL              000000000049500000000000000000000000000000000000000000000000000000000000000000000000000000000000000000000000000000000000PES00010000001 00000000000000000000000
201507100060000100000000000000020123000000000000000201239611111111111111111111CONSUMIDOR-FINAL              000000000111000000000000000000000000000000000000000000000000000000000000000000000000000000000000000000000000000000000000PES00010000001 00000000000000000000000
201507100060000100000000000000020124000000000000000201249611111111111111111111CONSUMIDOR-FINAL              000000000081500000000000000000000000000000000000000000000000000000000000000000000000000000000000000000000000000000000000PES00010000001 00000000000000000000000
201507100060000100000000000000020125000000000000000201259611111111111111111111CONSUMIDOR-FINAL              000000000063000000000000000000000000000000000000000000000000000000000000000000000000000000000000000000000000000000000000PES00010000001 00000000000000000000000
201507100060000100000000000000020126000000000000000201269611111111111111111111CONSUMIDOR-FINAL              000000000019000000000000000000000000000000000000000000000000000000000000000000000000000000000000000000000000000000000000PES00010000001 00000000000000000000000
201507100060000100000000000000020127000000000000000201279611111111111111111111CONSUMIDOR-FINAL              000000000009000000000000000000000000000000000000000000000000000000000000000000000000000000000000000000000000000000000000PES00010000001 00000000000000000000000
201507100010000100000000000000000979000000000000000009798000000000020078884275-STEMPKOWSKI-LEONADO-JAVIER   000000000148500000000000000000000000000000000000000000000000000000000000000000000000000000000000000000000000000000000000PES00010000001 00000000000000000000000
201507100060000100000000000000020128000000000000000201289611111111111111111111CONSUMIDOR-FINAL              000000000160500000000000000000000000000000000000000000000000000000000000000000000000000000000000000000000000000000000000PES00010000001 00000000000000000000000
201507100060000100000000000000020129000000000000000201299611111111111111111111CONSUMIDOR-FINAL              000000000019800000000000000000000000000000000000000000000000000000000000000000000000000000000000000000000000000000000000PES00010000001 00000000000000000000000
201507100060000100000000000000020130000000000000000201309611111111111111111111CONSUMIDOR-FINAL              000000000446300000000000000000000000000000000000000000000000000000000000000000000000000000000000000000000000000000000000PES00010000001 00000000000000000000000
201507100060000100000000000000020131000000000000000201319611111111111111111111CONSUMIDOR-FINAL              000000000026500000000000000000000000000000000000000000000000000000000000000000000000000000000000000000000000000000000000PES00010000001 00000000000000000000000
201507100060000100000000000000020132000000000000000201329611111111111111111111CONSUMIDOR-FINAL              000000000052500000000000000000000000000000000000000000000000000000000000000000000000000000000000000000000000000000000000PES00010000001 00000000000000000000000
201507100060000100000000000000020133000000000000000201339611111111111111111111CONSUMIDOR-FINAL              000000000035500000000000000000000000000000000000000000000000000000000000000000000000000000000000000000000000000000000000PES00010000001 00000000000000000000000
201507100060000100000000000000020134000000000000000201349611111111111111111111CONSUMIDOR-FINAL              000000000058500000000000000000000000000000000000000000000000000000000000000000000000000000000000000000000000000000000000PES00010000001 00000000000000000000000
201507100060000100000000000000020135000000000000000201359611111111111111111111CONSUMIDOR-FINAL              000000000212400000000000000000000000000000000000000000000000000000000000000000000000000000000000000000000000000000000000PES00010000001 00000000000000000000000
201507110060000100000000000000020136000000000000000201369611111111111111111111CONSUMIDOR-FINAL              000000000460900000000000000000000000000000000000000000000000000000000000000000000000000000000000000000000000000000000000PES00010000001 00000000000000000000000
201507110060000100000000000000020137000000000000000201379611111111111111111111CONSUMIDOR-FINAL              000000000068300000000000000000000000000000000000000000000000000000000000000000000000000000000000000000000000000000000000PES00010000001 00000000000000000000000
201507110060000100000000000000020138000000000000000201389611111111111111111111CONSUMIDOR-FINAL              000000000146600000000000000000000000000000000000000000000000000000000000000000000000000000000000000000000000000000000000PES00010000001 00000000000000000000000
201507110060000100000000000000020139000000000000000201399611111111111111111111CONSUMIDOR-FINAL              000000000195000000000000000000000000000000000000000000000000000000000000000000000000000000000000000000000000000000000000PES00010000001 00000000000000000000000
201507110060000100000000000000020140000000000000000201409611111111111111111111CONSUMIDOR-FINAL              000000000013500000000000000000000000000000000000000000000000000000000000000000000000000000000000000000000000000000000000PES00010000001 00000000000000000000000
201507110060000100000000000000020141000000000000000201419611111111111111111111CONSUMIDOR-FINAL              000000000058500000000000000000000000000000000000000000000000000000000000000000000000000000000000000000000000000000000000PES00010000001 00000000000000000000000
201507110060000100000000000000020142000000000000000201429611111111111111111111CONSUMIDOR-FINAL              000000000066800000000000000000000000000000000000000000000000000000000000000000000000000000000000000000000000000000000000PES00010000001 00000000000000000000000
201507110060000100000000000000020143000000000000000201439611111111111111111111CONSUMIDOR-FINAL              000000000090800000000000000000000000000000000000000000000000000000000000000000000000000000000000000000000000000000000000PES00010000001 00000000000000000000000
201507110060000100000000000000020144000000000000000201449611111111111111111111CONSUMIDOR-FINAL              000000000033500000000000000000000000000000000000000000000000000000000000000000000000000000000000000000000000000000000000PES00010000001 00000000000000000000000
201507110060000100000000000000020145000000000000000201459611111111111111111111CONSUMIDOR-FINAL              000000000299300000000000000000000000000000000000000000000000000000000000000000000000000000000000000000000000000000000000PES00010000001 00000000000000000000000
201507110060000100000000000000020146000000000000000201469611111111111111111111CONSUMIDOR-FINAL              000000000043100000000000000000000000000000000000000000000000000000000000000000000000000000000000000000000000000000000000PES00010000001 00000000000000000000000
201507110060000100000000000000020147000000000000000201479611111111111111111111CONSUMIDOR-FINAL              000000000029500000000000000000000000000000000000000000000000000000000000000000000000000000000000000000000000000000000000PES00010000001 00000000000000000000000
201507110060000100000000000000020148000000000000000201489611111111111111111111CONSUMIDOR-FINAL              000000000052000000000000000000000000000000000000000000000000000000000000000000000000000000000000000000000000000000000000PES00010000001 00000000000000000000000
201507110010000100000000000000000980000000000000000009808000000000030710643624PROYECTO-ALUMINIO-SRL         000000000079500000000000000000000000000000000000000000000000000000000000000000000000000000000000000000000000000000000000PES00010000001 00000000000000000000000
201507110060000100000000000000020149000000000000000201499611111111111111111111CONSUMIDOR-FINAL              000000000848300000000000000000000000000000000000000000000000000000000000000000000000000000000000000000000000000000000000PES00010000001 00000000000000000000000
201507110060000100000000000000020150000000000000000201509611111111111111111111CONSUMIDOR-FINAL              000000000078000000000000000000000000000000000000000000000000000000000000000000000000000000000000000000000000000000000000PES00010000001 00000000000000000000000
201507110060000100000000000000020151000000000000000201519611111111111111111111CONSUMIDOR-FINAL              000000000052000000000000000000000000000000000000000000000000000000000000000000000000000000000000000000000000000000000000PES00010000001 00000000000000000000000
201507110060000100000000000000020152000000000000000201529611111111111111111111CONSUMIDOR-FINAL              000000000037300000000000000000000000000000000000000000000000000000000000000000000000000000000000000000000000000000000000PES00010000001 00000000000000000000000
201507110060000100000000000000020153000000000000000201539611111111111111111111CONSUMIDOR-FINAL              000000000167000000000000000000000000000000000000000000000000000000000000000000000000000000000000000000000000000000000000PES00010000001 00000000000000000000000
201507110060000100000000000000020154000000000000000201549611111111111111111111CONSUMIDOR-FINAL              000000000082500000000000000000000000000000000000000000000000000000000000000000000000000000000000000000000000000000000000PES00010000001 00000000000000000000000
201507110060000100000000000000020155000000000000000201559611111111111111111111CONSUMIDOR-FINAL              000000000144400000000000000000000000000000000000000000000000000000000000000000000000000000000000000000000000000000000000PES00010000001 00000000000000000000000
201507110060000100000000000000020157000000000000000201579611111111111111111111CONSUMIDOR-FINAL              000000000033500000000000000000000000000000000000000000000000000000000000000000000000000000000000000000000000000000000000PES00010000001 00000000000000000000000
201507110060000100000000000000020158000000000000000201589611111111111111111111CONSUMIDOR-FINAL              000000000019500000000000000000000000000000000000000000000000000000000000000000000000000000000000000000000000000000000000PES00010000001 00000000000000000000000
201507110060000100000000000000020159000000000000000201599611111111111111111111CONSUMIDOR-FINAL              000000000047500000000000000000000000000000000000000000000000000000000000000000000000000000000000000000000000000000000000PES00010000001 00000000000000000000000
201507110060000100000000000000020160000000000000000201609611111111111111111111CONSUMIDOR-FINAL              000000000091500000000000000000000000000000000000000000000000000000000000000000000000000000000000000000000000000000000000PES00010000001 00000000000000000000000
201507110060000100000000000000020161000000000000000201619611111111111111111111CONSUMIDOR-FINAL              000000000091000000000000000000000000000000000000000000000000000000000000000000000000000000000000000000000000000000000000PES00010000001 00000000000000000000000
201507110060000100000000000000020162000000000000000201629611111111111111111111CONSUMIDOR-FINAL              000000000107000000000000000000000000000000000000000000000000000000000000000000000000000000000000000000000000000000000000PES00010000001 00000000000000000000000
201507110060000100000000000000020163000000000000000201639611111111111111111111CONSUMIDOR-FINAL              000000000018000000000000000000000000000000000000000000000000000000000000000000000000000000000000000000000000000000000000PES00010000001 00000000000000000000000
201507110060000100000000000000020164000000000000000201649611111111111111111111CONSUMIDOR-FINAL              000000000092500000000000000000000000000000000000000000000000000000000000000000000000000000000000000000000000000000000000PES00010000001 00000000000000000000000
201507110060000100000000000000020165000000000000000201659611111111111111111111CONSUMIDOR-FINAL              000000000039000000000000000000000000000000000000000000000000000000000000000000000000000000000000000000000000000000000000PES00010000001 00000000000000000000000
201507110060000100000000000000020166000000000000000201669611111111111111111111CONSUMIDOR-FINAL              000000000165500000000000000000000000000000000000000000000000000000000000000000000000000000000000000000000000000000000000PES00010000001 00000000000000000000000
201507110060000100000000000000020167000000000000000201679611111111111111111111CONSUMIDOR-FINAL              000000000124500000000000000000000000000000000000000000000000000000000000000000000000000000000000000000000000000000000000PES00010000001 00000000000000000000000
201507110060000100000000000000020168000000000000000201689611111111111111111111CONSUMIDOR-FINAL              000000000058000000000000000000000000000000000000000000000000000000000000000000000000000000000000000000000000000000000000PES00010000001 00000000000000000000000
201507110060000100000000000000020169000000000000000201699611111111111111111111CONSUMIDOR-FINAL              000000000124500000000000000000000000000000000000000000000000000000000000000000000000000000000000000000000000000000000000PES00010000001 00000000000000000000000
201507110060000100000000000000020170000000000000000201709611111111111111111111CONSUMIDOR-FINAL              000000000076600000000000000000000000000000000000000000000000000000000000000000000000000000000000000000000000000000000000PES00010000001 00000000000000000000000
201507110060000100000000000000020171000000000000000201719611111111111111111111CONSUMIDOR-FINAL              000000000040800000000000000000000000000000000000000000000000000000000000000000000000000000000000000000000000000000000000PES00010000001 00000000000000000000000
201507130060000100000000000000020172000000000000000201729611111111111111111111CONSUMIDOR-FINAL              000000000058500000000000000000000000000000000000000000000000000000000000000000000000000000000000000000000000000000000000PES00010000001 00000000000000000000000
201507130060000100000000000000020173000000000000000201739611111111111111111111CONSUMIDOR-FINAL              000000000083000000000000000000000000000000000000000000000000000000000000000000000000000000000000000000000000000000000000PES00010000001 00000000000000000000000
201507130060000100000000000000020174000000000000000201749611111111111111111111CONSUMIDOR-FINAL              000000000102800000000000000000000000000000000000000000000000000000000000000000000000000000000000000000000000000000000000PES00010000001 00000000000000000000000
201507130060000100000000000000020175000000000000000201759611111111111111111111CONSUMIDOR-FINAL              000000000051500000000000000000000000000000000000000000000000000000000000000000000000000000000000000000000000000000000000PES00010000001 00000000000000000000000
201507130060000100000000000000020176000000000000000201769611111111111111111111CONSUMIDOR-FINAL              000000000034000000000000000000000000000000000000000000000000000000000000000000000000000000000000000000000000000000000000PES00010000001 00000000000000000000000
201507130060000100000000000000020177000000000000000201779611111111111111111111CONSUMIDOR-FINAL              000000000014000000000000000000000000000000000000000000000000000000000000000000000000000000000000000000000000000000000000PES00010000001 00000000000000000000000
201507130060000100000000000000020178000000000000000201789611111111111111111111CONSUMIDOR-FINAL              000000000045200000000000000000000000000000000000000000000000000000000000000000000000000000000000000000000000000000000000PES00010000001 00000000000000000000000
201507130060000100000000000000020179000000000000000201799611111111111111111111CONSUMIDOR-FINAL              000000000157000000000000000000000000000000000000000000000000000000000000000000000000000000000000000000000000000000000000PES00010000001 00000000000000000000000
201507140060000100000000000000020180000000000000000201809611111111111111111111CONSUMIDOR-FINAL              000000000125400000000000000000000000000000000000000000000000000000000000000000000000000000000000000000000000000000000000PES00010000001 00000000000000000000000
201507140060000100000000000000020181000000000000000201819611111111111111111111CONSUMIDOR-FINAL              000000000037500000000000000000000000000000000000000000000000000000000000000000000000000000000000000000000000000000000000PES00010000001 00000000000000000000000
201507140060000100000000000000020182000000000000000201829611111111111111111111CONSUMIDOR-FINAL              000000000179500000000000000000000000000000000000000000000000000000000000000000000000000000000000000000000000000000000000PES00010000001 00000000000000000000000
201507140060000100000000000000020184000000000000000201849611111111111111111111CONSUMIDOR-FINAL              000000000093700000000000000000000000000000000000000000000000000000000000000000000000000000000000000000000000000000000000PES00010000001 00000000000000000000000
201507140060000100000000000000020185000000000000000201859611111111111111111111CONSUMIDOR-FINAL              000000000203500000000000000000000000000000000000000000000000000000000000000000000000000000000000000000000000000000000000PES00010000001 00000000000000000000000
201507140060000100000000000000020186000000000000000201869611111111111111111111CONSUMIDOR-FINAL              000000000076500000000000000000000000000000000000000000000000000000000000000000000000000000000000000000000000000000000000PES00010000001 00000000000000000000000
201507140060000100000000000000020187000000000000000201879611111111111111111111CONSUMIDOR-FINAL              000000000078800000000000000000000000000000000000000000000000000000000000000000000000000000000000000000000000000000000000PES00010000001 00000000000000000000000
201507140060000100000000000000020188000000000000000201889611111111111111111111CONSUMIDOR-FINAL              000000000026000000000000000000000000000000000000000000000000000000000000000000000000000000000000000000000000000000000000PES00010000001 00000000000000000000000
201507140060000100000000000000020189000000000000000201899611111111111111111111CONSUMIDOR-FINAL              000000000055500000000000000000000000000000000000000000000000000000000000000000000000000000000000000000000000000000000000PES00010000001 00000000000000000000000
201507140060000100000000000000020190000000000000000201909611111111111111111111CONSUMIDOR-FINAL              000000000098000000000000000000000000000000000000000000000000000000000000000000000000000000000000000000000000000000000000PES00010000001 00000000000000000000000
201507140060000100000000000000020191000000000000000201919611111111111111111111CONSUMIDOR-FINAL              000000000061300000000000000000000000000000000000000000000000000000000000000000000000000000000000000000000000000000000000PES00010000001 00000000000000000000000
201507140060000100000000000000020192000000000000000201929611111111111111111111CONSUMIDOR-FINAL              000000000015000000000000000000000000000000000000000000000000000000000000000000000000000000000000000000000000000000000000PES00010000001 00000000000000000000000
201507140060000100000000000000020193000000000000000201939611111111111111111111CONSUMIDOR-FINAL              000000000236000000000000000000000000000000000000000000000000000000000000000000000000000000000000000000000000000000000000PES00010000001 00000000000000000000000
201507140060000100000000000000020194000000000000000201949611111111111111111111CONSUMIDOR-FINAL              000000000056500000000000000000000000000000000000000000000000000000000000000000000000000000000000000000000000000000000000PES00010000001 00000000000000000000000
201507140060000100000000000000020195000000000000000201959611111111111111111111CONSUMIDOR-FINAL              000000000018500000000000000000000000000000000000000000000000000000000000000000000000000000000000000000000000000000000000PES00010000001 00000000000000000000000
201507140060000100000000000000020196000000000000000201969611111111111111111111CONSUMIDOR-FINAL              000000000054500000000000000000000000000000000000000000000000000000000000000000000000000000000000000000000000000000000000PES00010000001 00000000000000000000000
201507140060000100000000000000020197000000000000000201979611111111111111111111CONSUMIDOR-FINAL              000000000307500000000000000000000000000000000000000000000000000000000000000000000000000000000000000000000000000000000000PES00010000001 00000000000000000000000
201507140060000100000000000000020198000000000000000201989611111111111111111111CONSUMIDOR-FINAL              000000000127500000000000000000000000000000000000000000000000000000000000000000000000000000000000000000000000000000000000PES00010000001 00000000000000000000000
201507140060000100000000000000020199000000000000000201999611111111111111111111CONSUMIDOR-FINAL              000000000038500000000000000000000000000000000000000000000000000000000000000000000000000000000000000000000000000000000000PES00010000001 00000000000000000000000
201507150060000100000000000000020200000000000000000202009611111111111111111111CONSUMIDOR-FINAL              000000000059200000000000000000000000000000000000000000000000000000000000000000000000000000000000000000000000000000000000PES00010000001 00000000000000000000000
201507150060000100000000000000020201000000000000000202019611111111111111111111CONSUMIDOR-FINAL              000000000069000000000000000000000000000000000000000000000000000000000000000000000000000000000000000000000000000000000000PES00010000001 00000000000000000000000
201507150060000100000000000000020202000000000000000202029611111111111111111111CONSUMIDOR-FINAL              000000000041000000000000000000000000000000000000000000000000000000000000000000000000000000000000000000000000000000000000PES00010000001 00000000000000000000000
201507150060000100000000000000020203000000000000000202039611111111111111111111CONSUMIDOR-FINAL              000000000024000000000000000000000000000000000000000000000000000000000000000000000000000000000000000000000000000000000000PES00010000001 00000000000000000000000
201507150060000100000000000000020204000000000000000202049611111111111111111111CONSUMIDOR-FINAL              000000000047300000000000000000000000000000000000000000000000000000000000000000000000000000000000000000000000000000000000PES00010000001 00000000000000000000000
201507150060000100000000000000020205000000000000000202059611111111111111111111CONSUMIDOR-FINAL              000000000075900000000000000000000000000000000000000000000000000000000000000000000000000000000000000000000000000000000000PES00010000001 00000000000000000000000
201507150060000100000000000000020207000000000000000202079611111111111111111111CONSUMIDOR-FINAL              000000000032500000000000000000000000000000000000000000000000000000000000000000000000000000000000000000000000000000000000PES00010000001 00000000000000000000000
201507150060000100000000000000020208000000000000000202089611111111111111111111CONSUMIDOR-FINAL              000000000075500000000000000000000000000000000000000000000000000000000000000000000000000000000000000000000000000000000000PES00010000001 00000000000000000000000
201507150060000100000000000000020209000000000000000202099611111111111111111111CONSUMIDOR-FINAL              000000000006000000000000000000000000000000000000000000000000000000000000000000000000000000000000000000000000000000000000PES00010000001 00000000000000000000000
201507150060000100000000000000020210000000000000000202109611111111111111111111CONSUMIDOR-FINAL              000000000021500000000000000000000000000000000000000000000000000000000000000000000000000000000000000000000000000000000000PES00010000001 00000000000000000000000
201507150060000100000000000000020211000000000000000202119611111111111111111111CONSUMIDOR-FINAL              000000000093500000000000000000000000000000000000000000000000000000000000000000000000000000000000000000000000000000000000PES00010000001 00000000000000000000000
201507150060000100000000000000020212000000000000000202129611111111111111111111CONSUMIDOR-FINAL              000000000125200000000000000000000000000000000000000000000000000000000000000000000000000000000000000000000000000000000000PES00010000001 00000000000000000000000
201507150060000100000000000000020213000000000000000202139611111111111111111111CONSUMIDOR-FINAL              000000000056700000000000000000000000000000000000000000000000000000000000000000000000000000000000000000000000000000000000PES00010000001 00000000000000000000000
201507150060000100000000000000020214000000000000000202149611111111111111111111CONSUMIDOR-FINAL              000000000058000000000000000000000000000000000000000000000000000000000000000000000000000000000000000000000000000000000000PES00010000001 00000000000000000000000
201507160010000100000000000000000981000000000000000009818000000000033708101899-MAXICON-SRL                  000000000157500000000000000000000000000000000000000000000000000000000000000000000000000000000000000000000000000000000000PES00010000001 00000000000000000000000
201507160060000100000000000000020215000000000000000202159611111111111111111111CONSUMIDOR-FINAL              000000000031000000000000000000000000000000000000000000000000000000000000000000000000000000000000000000000000000000000000PES00010000001 00000000000000000000000
201507160060000100000000000000020216000000000000000202169611111111111111111111CONSUMIDOR-FINAL              000000000015000000000000000000000000000000000000000000000000000000000000000000000000000000000000000000000000000000000000PES00010000001 00000000000000000000000
201507160060000100000000000000020217000000000000000202179611111111111111111111CONSUMIDOR-FINAL              000000000039000000000000000000000000000000000000000000000000000000000000000000000000000000000000000000000000000000000000PES00010000001 00000000000000000000000
201507160060000100000000000000020218000000000000000202189611111111111111111111CONSUMIDOR-FINAL              000000000023600000000000000000000000000000000000000000000000000000000000000000000000000000000000000000000000000000000000PES00010000001 00000000000000000000000
201507160060000100000000000000020219000000000000000202199611111111111111111111CONSUMIDOR-FINAL              000000000104500000000000000000000000000000000000000000000000000000000000000000000000000000000000000000000000000000000000PES00010000001 00000000000000000000000
201507160010000100000000000000000982000000000000000009828000000000020248162431-AZCONA-HECTOR                000000000073500000000000000000000000000000000000000000000000000000000000000000000000000000000000000000000000000000000000PES00010000001 00000000000000000000000
201507160060000100000000000000020220000000000000000202209600000000020248162431-AZCONA-HECTOR                000000000057500000000000000000000000000000000000000000000000000000000000000000000000000000000000000000000000000000000000PES00010000001 00000000000000000000000
201507160060000100000000000000020221000000000000000202219611111111111111111111CONSUMIDOR-FINAL              000000000047000000000000000000000000000000000000000000000000000000000000000000000000000000000000000000000000000000000000PES00010000001 00000000000000000000000
201507160060000100000000000000020222000000000000000202229611111111111111111111CONSUMIDOR-FINAL              000000000029500000000000000000000000000000000000000000000000000000000000000000000000000000000000000000000000000000000000PES00010000001 00000000000000000000000
201507160060000100000000000000020223000000000000000202239611111111111111111111CONSUMIDOR-FINAL              000000000057300000000000000000000000000000000000000000000000000000000000000000000000000000000000000000000000000000000000PES00010000001 00000000000000000000000
201507160060000100000000000000020224000000000000000202249611111111111111111111CONSUMIDOR-FINAL              000000000013500000000000000000000000000000000000000000000000000000000000000000000000000000000000000000000000000000000000PES00010000001 00000000000000000000000
201507160060000100000000000000020225000000000000000202259611111111111111111111CONSUMIDOR-FINAL              000000000014000000000000000000000000000000000000000000000000000000000000000000000000000000000000000000000000000000000000PES00010000001 00000000000000000000000
201507160060000100000000000000020226000000000000000202269611111111111111111111CONSUMIDOR-FINAL              000000000037500000000000000000000000000000000000000000000000000000000000000000000000000000000000000000000000000000000000PES00010000001 00000000000000000000000
201507160060000100000000000000020227000000000000000202279611111111111111111111CONSUMIDOR-FINAL              000000000044800000000000000000000000000000000000000000000000000000000000000000000000000000000000000000000000000000000000PES00010000001 00000000000000000000000
201507170060000100000000000000020228000000000000000202289611111111111111111111CONSUMIDOR-FINAL              000000000026500000000000000000000000000000000000000000000000000000000000000000000000000000000000000000000000000000000000PES00010000001 00000000000000000000000
201507170010000100000000000000000983000000000000000009838000000000027202380056-OJEDA-LILIANA                000000000042500000000000000000000000000000000000000000000000000000000000000000000000000000000000000000000000000000000000PES00010000001 00000000000000000000000
201507170060000100000000000000020229000000000000000202299611111111111111111111CONSUMIDOR-FINAL              000000000027000000000000000000000000000000000000000000000000000000000000000000000000000000000000000000000000000000000000PES00010000001 00000000000000000000000
201507170060000100000000000000020230000000000000000202309611111111111111111111CONSUMIDOR-FINAL              000000000011500000000000000000000000000000000000000000000000000000000000000000000000000000000000000000000000000000000000PES00010000001 00000000000000000000000
201507170060000100000000000000020231000000000000000202319611111111111111111111CONSUMIDOR-FINAL              000000000042000000000000000000000000000000000000000000000000000000000000000000000000000000000000000000000000000000000000PES00010000001 00000000000000000000000
201507170060000100000000000000020232000000000000000202329611111111111111111111CONSUMIDOR-FINAL              000000000044000000000000000000000000000000000000000000000000000000000000000000000000000000000000000000000000000000000000PES00010000001 00000000000000000000000
201507170060000100000000000000020233000000000000000202339611111111111111111111CONSUMIDOR-FINAL              000000000021500000000000000000000000000000000000000000000000000000000000000000000000000000000000000000000000000000000000PES00010000001 00000000000000000000000
201507170060000100000000000000020234000000000000000202349611111111111111111111CONSUMIDOR-FINAL              000000000043000000000000000000000000000000000000000000000000000000000000000000000000000000000000000000000000000000000000PES00010000001 00000000000000000000000
201507170060000100000000000000020235000000000000000202359611111111111111111111CONSUMIDOR-FINAL              000000000026000000000000000000000000000000000000000000000000000000000000000000000000000000000000000000000000000000000000PES00010000001 00000000000000000000000
201507170060000100000000000000020236000000000000000202369611111111111111111111CONSUMIDOR-FINAL              000000000151500000000000000000000000000000000000000000000000000000000000000000000000000000000000000000000000000000000000PES00010000001 00000000000000000000000
201507170060000100000000000000020237000000000000000202379611111111111111111111CONSUMIDOR-FINAL              000000000050000000000000000000000000000000000000000000000000000000000000000000000000000000000000000000000000000000000000PES00010000001 00000000000000000000000
201507170060000100000000000000020238000000000000000202389611111111111111111111CONSUMIDOR-FINAL              000000000029300000000000000000000000000000000000000000000000000000000000000000000000000000000000000000000000000000000000PES00010000001 00000000000000000000000
201507170060000100000000000000020239000000000000000202399611111111111111111111CONSUMIDOR-FINAL              000000000045000000000000000000000000000000000000000000000000000000000000000000000000000000000000000000000000000000000000PES00010000001 00000000000000000000000
201507170060000100000000000000020240000000000000000202409611111111111111111111CONSUMIDOR-FINAL              000000000019000000000000000000000000000000000000000000000000000000000000000000000000000000000000000000000000000000000000PES00010000001 00000000000000000000000
201507170060000100000000000000020241000000000000000202419611111111111111111111CONSUMIDOR-FINAL              000000000028800000000000000000000000000000000000000000000000000000000000000000000000000000000000000000000000000000000000PES00010000001 00000000000000000000000
201507170060000100000000000000020242000000000000000202429611111111111111111111CONSUMIDOR-FINAL              000000000048500000000000000000000000000000000000000000000000000000000000000000000000000000000000000000000000000000000000PES00010000001 00000000000000000000000
201507170060000100000000000000020243000000000000000202439611111111111111111111CONSUMIDOR-FINAL              000000000063000000000000000000000000000000000000000000000000000000000000000000000000000000000000000000000000000000000000PES00010000001 00000000000000000000000
201507170060000100000000000000020244000000000000000202449611111111111111111111CONSUMIDOR-FINAL              000000000060400000000000000000000000000000000000000000000000000000000000000000000000000000000000000000000000000000000000PES00010000001 00000000000000000000000
201507170060000100000000000000020245000000000000000202459611111111111111111111CONSUMIDOR-FINAL              000000000039500000000000000000000000000000000000000000000000000000000000000000000000000000000000000000000000000000000000PES00010000001 00000000000000000000000
201507170060000100000000000000020246000000000000000202469611111111111111111111CONSUMIDOR-FINAL              000000000045200000000000000000000000000000000000000000000000000000000000000000000000000000000000000000000000000000000000PES00010000001 00000000000000000000000
201507170060000100000000000000020247000000000000000202479611111111111111111111CONSUMIDOR-FINAL              000000000278000000000000000000000000000000000000000000000000000000000000000000000000000000000000000000000000000000000000PES00010000001 00000000000000000000000
201507180060000100000000000000020248000000000000000202489611111111111111111111CONSUMIDOR-FINAL              000000000070000000000000000000000000000000000000000000000000000000000000000000000000000000000000000000000000000000000000PES00010000001 00000000000000000000000
201507180060000100000000000000020249000000000000000202499611111111111111111111CONSUMIDOR-FINAL              000000000072000000000000000000000000000000000000000000000000000000000000000000000000000000000000000000000000000000000000PES00010000001 00000000000000000000000
201507180060000100000000000000020250000000000000000202509611111111111111111111CONSUMIDOR-FINAL              000000000056500000000000000000000000000000000000000000000000000000000000000000000000000000000000000000000000000000000000PES00010000001 00000000000000000000000
201507180060000100000000000000020251000000000000000202519611111111111111111111CONSUMIDOR-FINAL              000000000065600000000000000000000000000000000000000000000000000000000000000000000000000000000000000000000000000000000000PES00010000001 00000000000000000000000
201507180060000100000000000000020252000000000000000202529611111111111111111111CONSUMIDOR-FINAL              000000000042300000000000000000000000000000000000000000000000000000000000000000000000000000000000000000000000000000000000PES00010000001 00000000000000000000000
201507180060000100000000000000020253000000000000000202539611111111111111111111CONSUMIDOR-FINAL              000000000194500000000000000000000000000000000000000000000000000000000000000000000000000000000000000000000000000000000000PES00010000001 00000000000000000000000
201507180060000100000000000000020254000000000000000202549611111111111111111111CONSUMIDOR-FINAL              000000000015000000000000000000000000000000000000000000000000000000000000000000000000000000000000000000000000000000000000PES00010000001 00000000000000000000000
201507180060000100000000000000020255000000000000000202559611111111111111111111CONSUMIDOR-FINAL              000000000056000000000000000000000000000000000000000000000000000000000000000000000000000000000000000000000000000000000000PES00010000001 00000000000000000000000
201507180060000100000000000000020256000000000000000202569611111111111111111111CONSUMIDOR-FINAL              000000000104300000000000000000000000000000000000000000000000000000000000000000000000000000000000000000000000000000000000PES00010000001 00000000000000000000000
201507180060000100000000000000020257000000000000000202579611111111111111111111CONSUMIDOR-FINAL              000000000044000000000000000000000000000000000000000000000000000000000000000000000000000000000000000000000000000000000000PES00010000001 00000000000000000000000
201507180060000100000000000000020258000000000000000202589611111111111111111111CONSUMIDOR-FINAL              000000000019000000000000000000000000000000000000000000000000000000000000000000000000000000000000000000000000000000000000PES00010000001 00000000000000000000000
201507180060000100000000000000020259000000000000000202599611111111111111111111CONSUMIDOR-FINAL              000000000031000000000000000000000000000000000000000000000000000000000000000000000000000000000000000000000000000000000000PES00010000001 00000000000000000000000
201507180060000100000000000000020260000000000000000202609611111111111111111111CONSUMIDOR-FINAL              000000000043200000000000000000000000000000000000000000000000000000000000000000000000000000000000000000000000000000000000PES00010000001 00000000000000000000000
201507180060000100000000000000020261000000000000000202619611111111111111111111CONSUMIDOR-FINAL              000000000061000000000000000000000000000000000000000000000000000000000000000000000000000000000000000000000000000000000000PES00010000001 00000000000000000000000
201507180060000100000000000000020262000000000000000202629611111111111111111111CONSUMIDOR-FINAL              000000000038300000000000000000000000000000000000000000000000000000000000000000000000000000000000000000000000000000000000PES00010000001 00000000000000000000000
201507180060000100000000000000020263000000000000000202639611111111111111111111CONSUMIDOR-FINAL              000000000026500000000000000000000000000000000000000000000000000000000000000000000000000000000000000000000000000000000000PES00010000001 00000000000000000000000
201507180060000100000000000000020264000000000000000202649611111111111111111111CONSUMIDOR-FINAL              000000000018000000000000000000000000000000000000000000000000000000000000000000000000000000000000000000000000000000000000PES00010000001 00000000000000000000000
201507180060000100000000000000020265000000000000000202659611111111111111111111CONSUMIDOR-FINAL              000000000035000000000000000000000000000000000000000000000000000000000000000000000000000000000000000000000000000000000000PES00010000001 00000000000000000000000
201507180060000100000000000000020266000000000000000202669611111111111111111111CONSUMIDOR-FINAL              000000000048700000000000000000000000000000000000000000000000000000000000000000000000000000000000000000000000000000000000PES00010000001 00000000000000000000000
201507180060000100000000000000020267000000000000000202679611111111111111111111CONSUMIDOR-FINAL              000000000049500000000000000000000000000000000000000000000000000000000000000000000000000000000000000000000000000000000000PES00010000001 00000000000000000000000
201507180060000100000000000000020268000000000000000202689611111111111111111111CONSUMIDOR-FINAL              000000000016800000000000000000000000000000000000000000000000000000000000000000000000000000000000000000000000000000000000PES00010000001 00000000000000000000000
201507180060000100000000000000020269000000000000000202699611111111111111111111CONSUMIDOR-FINAL              000000000010500000000000000000000000000000000000000000000000000000000000000000000000000000000000000000000000000000000000PES00010000001 00000000000000000000000
201507180060000100000000000000020270000000000000000202709611111111111111111111CONSUMIDOR-FINAL              000000000013800000000000000000000000000000000000000000000000000000000000000000000000000000000000000000000000000000000000PES00010000001 00000000000000000000000
201507180060000100000000000000020271000000000000000202719611111111111111111111CONSUMIDOR-FINAL              000000000036900000000000000000000000000000000000000000000000000000000000000000000000000000000000000000000000000000000000PES00010000001 00000000000000000000000
201507180060000100000000000000020272000000000000000202729611111111111111111111CONSUMIDOR-FINAL              000000000121400000000000000000000000000000000000000000000000000000000000000000000000000000000000000000000000000000000000PES00010000001 00000000000000000000000
201507180010000100000000000000000984000000000000000009848000000000020135642801-BARRIONUEVO-JULIO            000000000074000000000000000000000000000000000000000000000000000000000000000000000000000000000000000000000000000000000000PES00010000001 00000000000000000000000
201507180060000100000000000000020273000000000000000202739611111111111111111111CONSUMIDOR-FINAL              000000000072000000000000000000000000000000000000000000000000000000000000000000000000000000000000000000000000000000000000PES00010000001 00000000000000000000000
201507180060000100000000000000020274000000000000000202749611111111111111111111CONSUMIDOR-FINAL              000000000044300000000000000000000000000000000000000000000000000000000000000000000000000000000000000000000000000000000000PES00010000001 00000000000000000000000
201507180060000100000000000000020275000000000000000202759611111111111111111111CONSUMIDOR-FINAL              000000000184900000000000000000000000000000000000000000000000000000000000000000000000000000000000000000000000000000000000PES00010000001 00000000000000000000000
201507180060000100000000000000020276000000000000000202769611111111111111111111CONSUMIDOR-FINAL              000000000130500000000000000000000000000000000000000000000000000000000000000000000000000000000000000000000000000000000000PES00010000001 00000000000000000000000
201507180060000100000000000000020277000000000000000202779611111111111111111111CONSUMIDOR-FINAL              000000000049500000000000000000000000000000000000000000000000000000000000000000000000000000000000000000000000000000000000PES00010000001 00000000000000000000000
201507180060000100000000000000020278000000000000000202789611111111111111111111CONSUMIDOR-FINAL              000000000053600000000000000000000000000000000000000000000000000000000000000000000000000000000000000000000000000000000000PES00010000001 00000000000000000000000
201507180060000100000000000000020279000000000000000202799611111111111111111111CONSUMIDOR-FINAL              000000000015000000000000000000000000000000000000000000000000000000000000000000000000000000000000000000000000000000000000PES00010000001 00000000000000000000000
201507180060000100000000000000020280000000000000000202809611111111111111111111CONSUMIDOR-FINAL              000000000019500000000000000000000000000000000000000000000000000000000000000000000000000000000000000000000000000000000000PES00010000001 00000000000000000000000
201507180010000100000000000000000985000000000000000009858000000000027340321575SAAVEDRA-FLORENCIA-ELISABET   000000000125500000000000000000000000000000000000000000000000000000000000000000000000000000000000000000000000000000000000PES00010000001 00000000000000000000000
201507180010000100000000000000000986000000000000000009868000000000027340321575SAAVEDRA-FLORENCIA-ELISABET   000000000056400000000000000000000000000000000000000000000000000000000000000000000000000000000000000000000000000000000000PES00010000001 00000000000000000000000
201507180060000100000000000000020281000000000000000202819611111111111111111111CONSUMIDOR-FINAL              000000000071000000000000000000000000000000000000000000000000000000000000000000000000000000000000000000000000000000000000PES00010000001 00000000000000000000000
201507180060000100000000000000020282000000000000000202829611111111111111111111CONSUMIDOR-FINAL              000000000144000000000000000000000000000000000000000000000000000000000000000000000000000000000000000000000000000000000000PES00010000001 00000000000000000000000
201507180060000100000000000000020283000000000000000202839611111111111111111111CONSUMIDOR-FINAL              000000000080500000000000000000000000000000000000000000000000000000000000000000000000000000000000000000000000000000000000PES00010000001 00000000000000000000000
201507180060000100000000000000020284000000000000000202849611111111111111111111CONSUMIDOR-FINAL              000000000047500000000000000000000000000000000000000000000000000000000000000000000000000000000000000000000000000000000000PES00010000001 00000000000000000000000
201507180060000100000000000000020285000000000000000202859611111111111111111111CONSUMIDOR-FINAL              000000000015500000000000000000000000000000000000000000000000000000000000000000000000000000000000000000000000000000000000PES00010000001 00000000000000000000000
201507180060000100000000000000020286000000000000000202869611111111111111111111CONSUMIDOR-FINAL              000000000004800000000000000000000000000000000000000000000000000000000000000000000000000000000000000000000000000000000000PES00010000001 00000000000000000000000
201507180060000100000000000000020287000000000000000202879611111111111111111111CONSUMIDOR-FINAL              000000000125500000000000000000000000000000000000000000000000000000000000000000000000000000000000000000000000000000000000PES00010000001 00000000000000000000000
201507180060000100000000000000020288000000000000000202889611111111111111111111CONSUMIDOR-FINAL              000000000045000000000000000000000000000000000000000000000000000000000000000000000000000000000000000000000000000000000000PES00010000001 00000000000000000000000
201507180060000100000000000000020289000000000000000202899611111111111111111111CONSUMIDOR-FINAL              000000000113000000000000000000000000000000000000000000000000000000000000000000000000000000000000000000000000000000000000PES00010000001 00000000000000000000000
201507180060000100000000000000020290000000000000000202909611111111111111111111CONSUMIDOR-FINAL              000000000081400000000000000000000000000000000000000000000000000000000000000000000000000000000000000000000000000000000000PES00010000001 00000000000000000000000
201507180060000100000000000000020291000000000000000202919611111111111111111111CONSUMIDOR-FINAL              000000000043500000000000000000000000000000000000000000000000000000000000000000000000000000000000000000000000000000000000PES00010000001 00000000000000000000000
201507180060000100000000000000020292000000000000000202929611111111111111111111CONSUMIDOR-FINAL              000000000315000000000000000000000000000000000000000000000000000000000000000000000000000000000000000000000000000000000000PES00010000001 00000000000000000000000
201507200060000100000000000000020293000000000000000202939611111111111111111111CONSUMIDOR-FINAL              000000000032500000000000000000000000000000000000000000000000000000000000000000000000000000000000000000000000000000000000PES00010000001 00000000000000000000000
201507200060000100000000000000020294000000000000000202949611111111111111111111CONSUMIDOR-FINAL              000000000040000000000000000000000000000000000000000000000000000000000000000000000000000000000000000000000000000000000000PES00010000001 00000000000000000000000
201507200060000100000000000000020295000000000000000202959611111111111111111111CONSUMIDOR-FINAL              000000000027000000000000000000000000000000000000000000000000000000000000000000000000000000000000000000000000000000000000PES00010000001 00000000000000000000000
201507200060000100000000000000020296000000000000000202969611111111111111111111CONSUMIDOR-FINAL              000000000017000000000000000000000000000000000000000000000000000000000000000000000000000000000000000000000000000000000000PES00010000001 00000000000000000000000
201507200060000100000000000000020297000000000000000202979611111111111111111111CONSUMIDOR-FINAL              000000000033600000000000000000000000000000000000000000000000000000000000000000000000000000000000000000000000000000000000PES00010000001 00000000000000000000000
201507200060000100000000000000020298000000000000000202989611111111111111111111CONSUMIDOR-FINAL              000000000122000000000000000000000000000000000000000000000000000000000000000000000000000000000000000000000000000000000000PES00010000001 00000000000000000000000
201507200060000100000000000000020299000000000000000202999611111111111111111111CONSUMIDOR-FINAL              000000000057500000000000000000000000000000000000000000000000000000000000000000000000000000000000000000000000000000000000PES00010000001 00000000000000000000000
201507200060000100000000000000020300000000000000000203009611111111111111111111CONSUMIDOR-FINAL              000000000015000000000000000000000000000000000000000000000000000000000000000000000000000000000000000000000000000000000000PES00010000001 00000000000000000000000
201507200060000100000000000000020301000000000000000203019611111111111111111111CONSUMIDOR-FINAL              000000000092900000000000000000000000000000000000000000000000000000000000000000000000000000000000000000000000000000000000PES00010000001 00000000000000000000000
201507200060000100000000000000020302000000000000000203029611111111111111111111CONSUMIDOR-FINAL              000000000082500000000000000000000000000000000000000000000000000000000000000000000000000000000000000000000000000000000000PES00010000001 00000000000000000000000
201507200060000100000000000000020303000000000000000203039611111111111111111111CONSUMIDOR-FINAL              000000000042500000000000000000000000000000000000000000000000000000000000000000000000000000000000000000000000000000000000PES00010000001 00000000000000000000000
201507200060000100000000000000020304000000000000000203049611111111111111111111CONSUMIDOR-FINAL              000000000011000000000000000000000000000000000000000000000000000000000000000000000000000000000000000000000000000000000000PES00010000001 00000000000000000000000
201507200060000100000000000000020305000000000000000203059611111111111111111111CONSUMIDOR-FINAL              000000000176300000000000000000000000000000000000000000000000000000000000000000000000000000000000000000000000000000000000PES00010000001 00000000000000000000000
201507200060000100000000000000020306000000000000000203069611111111111111111111CONSUMIDOR-FINAL              000000000018300000000000000000000000000000000000000000000000000000000000000000000000000000000000000000000000000000000000PES00010000001 00000000000000000000000
201507200060000100000000000000020307000000000000000203079611111111111111111111CONSUMIDOR-FINAL              000000000015000000000000000000000000000000000000000000000000000000000000000000000000000000000000000000000000000000000000PES00010000001 00000000000000000000000
201507200060000100000000000000020308000000000000000203089611111111111111111111CONSUMIDOR-FINAL              000000000011500000000000000000000000000000000000000000000000000000000000000000000000000000000000000000000000000000000000PES00010000001 00000000000000000000000
201507200060000100000000000000020309000000000000000203099611111111111111111111CONSUMIDOR-FINAL              000000000044000000000000000000000000000000000000000000000000000000000000000000000000000000000000000000000000000000000000PES00010000001 00000000000000000000000
201507200060000100000000000000020310000000000000000203109611111111111111111111CONSUMIDOR-FINAL              000000000071800000000000000000000000000000000000000000000000000000000000000000000000000000000000000000000000000000000000PES00010000001 00000000000000000000000
201507200060000100000000000000020311000000000000000203119611111111111111111111CONSUMIDOR-FINAL              000000000010500000000000000000000000000000000000000000000000000000000000000000000000000000000000000000000000000000000000PES00010000001 00000000000000000000000
201507200060000100000000000000020312000000000000000203129611111111111111111111CONSUMIDOR-FINAL              000000000074900000000000000000000000000000000000000000000000000000000000000000000000000000000000000000000000000000000000PES00010000001 00000000000000000000000
201507200060000100000000000000020313000000000000000203139611111111111111111111CONSUMIDOR-FINAL              000000000048000000000000000000000000000000000000000000000000000000000000000000000000000000000000000000000000000000000000PES00010000001 00000000000000000000000
201507200060000100000000000000020314000000000000000203149611111111111111111111CONSUMIDOR-FINAL              000000000018000000000000000000000000000000000000000000000000000000000000000000000000000000000000000000000000000000000000PES00010000001 00000000000000000000000
201507200060000100000000000000020315000000000000000203159611111111111111111111CONSUMIDOR-FINAL              000000000035000000000000000000000000000000000000000000000000000000000000000000000000000000000000000000000000000000000000PES00010000001 00000000000000000000000
201507200060000100000000000000020316000000000000000203169611111111111111111111CONSUMIDOR-FINAL              000000000055700000000000000000000000000000000000000000000000000000000000000000000000000000000000000000000000000000000000PES00010000001 00000000000000000000000
201507200060000100000000000000020317000000000000000203179611111111111111111111CONSUMIDOR-FINAL              000000000089000000000000000000000000000000000000000000000000000000000000000000000000000000000000000000000000000000000000PES00010000001 00000000000000000000000
201507200060000100000000000000020318000000000000000203189611111111111111111111CONSUMIDOR-FINAL              000000000085100000000000000000000000000000000000000000000000000000000000000000000000000000000000000000000000000000000000PES00010000001 00000000000000000000000
201507200060000100000000000000020319000000000000000203199611111111111111111111CONSUMIDOR-FINAL              000000000009000000000000000000000000000000000000000000000000000000000000000000000000000000000000000000000000000000000000PES00010000001 00000000000000000000000
201507200060000100000000000000020320000000000000000203209611111111111111111111CONSUMIDOR-FINAL              000000000105000000000000000000000000000000000000000000000000000000000000000000000000000000000000000000000000000000000000PES00010000001 00000000000000000000000
201507200060000100000000000000020321000000000000000203219611111111111111111111CONSUMIDOR-FINAL              000000000072200000000000000000000000000000000000000000000000000000000000000000000000000000000000000000000000000000000000PES00010000001 00000000000000000000000
201507200060000100000000000000020322000000000000000203229611111111111111111111CONSUMIDOR-FINAL              000000000059500000000000000000000000000000000000000000000000000000000000000000000000000000000000000000000000000000000000PES00010000001 00000000000000000000000
201507200060000100000000000000020323000000000000000203239611111111111111111111CONSUMIDOR-FINAL              000000000066000000000000000000000000000000000000000000000000000000000000000000000000000000000000000000000000000000000000PES00010000001 00000000000000000000000
201507200060000100000000000000020324000000000000000203249611111111111111111111CONSUMIDOR-FINAL              000000000034000000000000000000000000000000000000000000000000000000000000000000000000000000000000000000000000000000000000PES00010000001 00000000000000000000000
201507200060000100000000000000020325000000000000000203259611111111111111111111CONSUMIDOR-FINAL              000000000033800000000000000000000000000000000000000000000000000000000000000000000000000000000000000000000000000000000000PES00010000001 00000000000000000000000
201507200060000100000000000000020326000000000000000203269611111111111111111111CONSUMIDOR-FINAL              000000000096000000000000000000000000000000000000000000000000000000000000000000000000000000000000000000000000000000000000PES00010000001 00000000000000000000000
201507200060000100000000000000020327000000000000000203279611111111111111111111CONSUMIDOR-FINAL              000000000055800000000000000000000000000000000000000000000000000000000000000000000000000000000000000000000000000000000000PES00010000001 00000000000000000000000
201507200060000100000000000000020328000000000000000203289611111111111111111111CONSUMIDOR-FINAL              000000000073000000000000000000000000000000000000000000000000000000000000000000000000000000000000000000000000000000000000PES00010000001 00000000000000000000000
201507200060000100000000000000020329000000000000000203299611111111111111111111CONSUMIDOR-FINAL              000000000085500000000000000000000000000000000000000000000000000000000000000000000000000000000000000000000000000000000000PES00010000001 00000000000000000000000
201507200060000100000000000000020330000000000000000203309611111111111111111111CONSUMIDOR-FINAL              000000000073500000000000000000000000000000000000000000000000000000000000000000000000000000000000000000000000000000000000PES00010000001 00000000000000000000000
201507200060000100000000000000020331000000000000000203319611111111111111111111CONSUMIDOR-FINAL              000000000069000000000000000000000000000000000000000000000000000000000000000000000000000000000000000000000000000000000000PES00010000001 00000000000000000000000
201507200060000100000000000000020332000000000000000203329611111111111111111111CONSUMIDOR-FINAL              000000000010500000000000000000000000000000000000000000000000000000000000000000000000000000000000000000000000000000000000PES00010000001 00000000000000000000000
201507200060000100000000000000020333000000000000000203339611111111111111111111CONSUMIDOR-FINAL              000000000077500000000000000000000000000000000000000000000000000000000000000000000000000000000000000000000000000000000000PES00010000001 00000000000000000000000
201507200060000100000000000000020334000000000000000203349611111111111111111111CONSUMIDOR-FINAL              000000000057800000000000000000000000000000000000000000000000000000000000000000000000000000000000000000000000000000000000PES00010000001 00000000000000000000000
201507200060000100000000000000020335000000000000000203359611111111111111111111CONSUMIDOR-FINAL              000000000078000000000000000000000000000000000000000000000000000000000000000000000000000000000000000000000000000000000000PES00010000001 00000000000000000000000
201507200060000100000000000000020336000000000000000203369611111111111111111111CONSUMIDOR-FINAL              000000000023500000000000000000000000000000000000000000000000000000000000000000000000000000000000000000000000000000000000PES00010000001 00000000000000000000000
201507200060000100000000000000020337000000000000000203379611111111111111111111CONSUMIDOR-FINAL              000000000026500000000000000000000000000000000000000000000000000000000000000000000000000000000000000000000000000000000000PES00010000001 00000000000000000000000
201507200060000100000000000000020338000000000000000203389611111111111111111111CONSUMIDOR-FINAL              000000000011000000000000000000000000000000000000000000000000000000000000000000000000000000000000000000000000000000000000PES00010000001 00000000000000000000000
201507200060000100000000000000020339000000000000000203399611111111111111111111CONSUMIDOR-FINAL              000000000138500000000000000000000000000000000000000000000000000000000000000000000000000000000000000000000000000000000000PES00010000001 00000000000000000000000
201507200060000100000000000000020340000000000000000203409611111111111111111111CONSUMIDOR-FINAL              000000000052000000000000000000000000000000000000000000000000000000000000000000000000000000000000000000000000000000000000PES00010000001 00000000000000000000000
201507210060000100000000000000020341000000000000000203419611111111111111111111CONSUMIDOR-FINAL              000000000062000000000000000000000000000000000000000000000000000000000000000000000000000000000000000000000000000000000000PES00010000001 00000000000000000000000
201507210060000100000000000000020342000000000000000203429611111111111111111111CONSUMIDOR-FINAL              000000000031000000000000000000000000000000000000000000000000000000000000000000000000000000000000000000000000000000000000PES00010000001 00000000000000000000000
201507210060000100000000000000020343000000000000000203439611111111111111111111CONSUMIDOR-FINAL              000000000033500000000000000000000000000000000000000000000000000000000000000000000000000000000000000000000000000000000000PES00010000001 00000000000000000000000
201507210060000100000000000000020344000000000000000203449611111111111111111111CONSUMIDOR-FINAL              000000000082500000000000000000000000000000000000000000000000000000000000000000000000000000000000000000000000000000000000PES00010000001 00000000000000000000000
201507210060000100000000000000020345000000000000000203459611111111111111111111CONSUMIDOR-FINAL              000000000022500000000000000000000000000000000000000000000000000000000000000000000000000000000000000000000000000000000000PES00010000001 00000000000000000000000
201507210010000100000000000000000987000000000000000009878000000000030711225761NELSON-OLIVA-SRL              000000000100500000000000000000000000000000000000000000000000000000000000000000000000000000000000000000000000000000000000PES00010000001 00000000000000000000000
201507210060000100000000000000020346000000000000000203469611111111111111111111CONSUMIDOR-FINAL              000000000031000000000000000000000000000000000000000000000000000000000000000000000000000000000000000000000000000000000000PES00010000001 00000000000000000000000
201507210060000100000000000000020347000000000000000203479611111111111111111111CONSUMIDOR-FINAL              000000000051500000000000000000000000000000000000000000000000000000000000000000000000000000000000000000000000000000000000PES00010000001 00000000000000000000000
201507210060000100000000000000020348000000000000000203489611111111111111111111CONSUMIDOR-FINAL              000000000050000000000000000000000000000000000000000000000000000000000000000000000000000000000000000000000000000000000000PES00010000001 00000000000000000000000
201507210060000100000000000000020349000000000000000203499611111111111111111111CONSUMIDOR-FINAL              000000000035000000000000000000000000000000000000000000000000000000000000000000000000000000000000000000000000000000000000PES00010000001 00000000000000000000000
201507210060000100000000000000020350000000000000000203509611111111111111111111CONSUMIDOR-FINAL              000000000034500000000000000000000000000000000000000000000000000000000000000000000000000000000000000000000000000000000000PES00010000001 00000000000000000000000
201507210060000100000000000000020351000000000000000203519611111111111111111111CONSUMIDOR-FINAL              000000000042000000000000000000000000000000000000000000000000000000000000000000000000000000000000000000000000000000000000PES00010000001 00000000000000000000000
201507210060000100000000000000020352000000000000000203529611111111111111111111CONSUMIDOR-FINAL              000000000021500000000000000000000000000000000000000000000000000000000000000000000000000000000000000000000000000000000000PES00010000001 00000000000000000000000
201507210060000100000000000000020353000000000000000203539611111111111111111111CONSUMIDOR-FINAL              000000000039000000000000000000000000000000000000000000000000000000000000000000000000000000000000000000000000000000000000PES00010000001 00000000000000000000000
201507210010000100000000000000000988000000000000000009888000000000020135644324DAHINTEN-ERNESTO              000000000028000000000000000000000000000000000000000000000000000000000000000000000000000000000000000000000000000000000000PES00010000001 00000000000000000000000
201507210060000100000000000000020354000000000000000203549611111111111111111111CONSUMIDOR-FINAL              000000000055300000000000000000000000000000000000000000000000000000000000000000000000000000000000000000000000000000000000PES00010000001 00000000000000000000000
201507210060000100000000000000020355000000000000000203559611111111111111111111CONSUMIDOR-FINAL              000000000125500000000000000000000000000000000000000000000000000000000000000000000000000000000000000000000000000000000000PES00010000001 00000000000000000000000
201507210060000100000000000000020356000000000000000203569611111111111111111111CONSUMIDOR-FINAL              000000000014500000000000000000000000000000000000000000000000000000000000000000000000000000000000000000000000000000000000PES00010000001 00000000000000000000000
201507210060000100000000000000020357000000000000000203579611111111111111111111CONSUMIDOR-FINAL              000000000042000000000000000000000000000000000000000000000000000000000000000000000000000000000000000000000000000000000000PES00010000001 00000000000000000000000
201507220060000100000000000000020358000000000000000203589611111111111111111111CONSUMIDOR-FINAL              000000000074500000000000000000000000000000000000000000000000000000000000000000000000000000000000000000000000000000000000PES00010000001 00000000000000000000000
201507220060000100000000000000020359000000000000000203599611111111111111111111CONSUMIDOR-FINAL              000000000026800000000000000000000000000000000000000000000000000000000000000000000000000000000000000000000000000000000000PES00010000001 00000000000000000000000
201507220060000100000000000000020360000000000000000203609611111111111111111111CONSUMIDOR-FINAL              000000000022500000000000000000000000000000000000000000000000000000000000000000000000000000000000000000000000000000000000PES00010000001 00000000000000000000000
201507220060000100000000000000020361000000000000000203619611111111111111111111CONSUMIDOR-FINAL              000000000027500000000000000000000000000000000000000000000000000000000000000000000000000000000000000000000000000000000000PES00010000001 00000000000000000000000
201507220060000100000000000000020362000000000000000203629611111111111111111111CONSUMIDOR-FINAL              000000000045000000000000000000000000000000000000000000000000000000000000000000000000000000000000000000000000000000000000PES00010000001 00000000000000000000000
201507220060000100000000000000020363000000000000000203639611111111111111111111CONSUMIDOR-FINAL              000000000051000000000000000000000000000000000000000000000000000000000000000000000000000000000000000000000000000000000000PES00010000001 00000000000000000000000
201507220060000100000000000000020364000000000000000203649611111111111111111111CONSUMIDOR-FINAL              000000000048300000000000000000000000000000000000000000000000000000000000000000000000000000000000000000000000000000000000PES00010000001 00000000000000000000000
201507220060000100000000000000020365000000000000000203659611111111111111111111CONSUMIDOR-FINAL              000000000057500000000000000000000000000000000000000000000000000000000000000000000000000000000000000000000000000000000000PES00010000001 00000000000000000000000
201507220060000100000000000000020366000000000000000203669611111111111111111111CONSUMIDOR-FINAL              000000000014000000000000000000000000000000000000000000000000000000000000000000000000000000000000000000000000000000000000PES00010000001 00000000000000000000000
201507220060000100000000000000020367000000000000000203679611111111111111111111CONSUMIDOR-FINAL              000000000026000000000000000000000000000000000000000000000000000000000000000000000000000000000000000000000000000000000000PES00010000001 00000000000000000000000
201507220060000100000000000000020368000000000000000203689611111111111111111111CONSUMIDOR-FINAL              000000000042000000000000000000000000000000000000000000000000000000000000000000000000000000000000000000000000000000000000PES00010000001 00000000000000000000000
201507220060000100000000000000020369000000000000000203699611111111111111111111CONSUMIDOR-FINAL              000000000029000000000000000000000000000000000000000000000000000000000000000000000000000000000000000000000000000000000000PES00010000001 00000000000000000000000
201507220060000100000000000000020370000000000000000203709611111111111111111111CONSUMIDOR-FINAL              000000000012500000000000000000000000000000000000000000000000000000000000000000000000000000000000000000000000000000000000PES00010000001 00000000000000000000000
201507230060000100000000000000020371000000000000000203719611111111111111111111CONSUMIDOR-FINAL              000000000053500000000000000000000000000000000000000000000000000000000000000000000000000000000000000000000000000000000000PES00010000001 00000000000000000000000
201507230060000100000000000000020372000000000000000203729611111111111111111111CONSUMIDOR-FINAL              000000000090500000000000000000000000000000000000000000000000000000000000000000000000000000000000000000000000000000000000PES00010000001 00000000000000000000000
201507230060000100000000000000020373000000000000000203739611111111111111111111CONSUMIDOR-FINAL              000000000036200000000000000000000000000000000000000000000000000000000000000000000000000000000000000000000000000000000000PES00010000001 00000000000000000000000
201507230060000100000000000000020374000000000000000203749611111111111111111111CONSUMIDOR-FINAL              000000000106000000000000000000000000000000000000000000000000000000000000000000000000000000000000000000000000000000000000PES00010000001 00000000000000000000000
201507230060000100000000000000020375000000000000000203759611111111111111111111CONSUMIDOR-FINAL              000000000141300000000000000000000000000000000000000000000000000000000000000000000000000000000000000000000000000000000000PES00010000001 00000000000000000000000
201507230060000100000000000000020376000000000000000203769611111111111111111111CONSUMIDOR-FINAL              000000000067300000000000000000000000000000000000000000000000000000000000000000000000000000000000000000000000000000000000PES00010000001 00000000000000000000000
201507230060000100000000000000020377000000000000000203779611111111111111111111CONSUMIDOR-FINAL              000000000084000000000000000000000000000000000000000000000000000000000000000000000000000000000000000000000000000000000000PES00010000001 00000000000000000000000
201507230060000100000000000000020378000000000000000203789611111111111111111111CONSUMIDOR-FINAL              000000000022500000000000000000000000000000000000000000000000000000000000000000000000000000000000000000000000000000000000PES00010000001 00000000000000000000000
201507230060000100000000000000020379000000000000000203799611111111111111111111CONSUMIDOR-FINAL              000000000145000000000000000000000000000000000000000000000000000000000000000000000000000000000000000000000000000000000000PES00010000001 00000000000000000000000
