201511040010000100000000000000001065000000000000000010658000000000020146721487-PRIETO-ROBERTO-WALTER        000000000240000000000000000000000000000000000000000000000000000000000000000000000000000000000000000000000000000000000000PES00010000001 00000000000000000000000
201511050010000100000000000000001066000000000000000010668000000000030580951860SP-ARGENTINASA                000000000037500000000000000000000000000000000000000000000000000000000000000000000000000000000000000000000000000000000000PES00010000001 00000000000000000000000
201511050010000100000000000000001067000000000000000010678000000000020168795638LEGORBURU-CLAUDIO-A           000000000027000000000000000000000000000000000000000000000000000000000000000000000000000000000000000000000000000000000000PES00010000001 00000000000000000000000
201511050010000100000000000000001068000000000000000010688000000000023012008724TEONIA-ZAIRES                 000000001400000000000000000000000000000000000000000000000000000000000000000000000000000000000000000000000000000000000000PES00010000001 00000000000000000000000
201511070010000100000000000000001069000000000000000010698000000000030670254662LASA-SRL                      000000000067500000000000000000000000000000000000000000000000000000000000000000000000000000000000000000000000000000000000PES00010000001 00000000000000000000000
201511090010000100000000000000001070000000000000000010708000000000030535638116FIORASI-SA                    000000000033000000000000000000000000000000000000000000000000000000000000000000000000000000000000000000000000000000000000PES00010000001 00000000000000000000000
201511090010000100000000000000001071000000000000000010718000000000030535638116FIORASI-SA                    000000000043000000000000000000000000000000000000000000000000000000000000000000000000000000000000000000000000000000000000PES00010000001 00000000000000000000000
201511110010000100000000000000001072000000000000000010728000000000023234392204VERONICA-GARCIA               000000000000100000000000000000000000000000000000000000000000000000000000000000000000000000000000000000000000000000000000PES00010000001 00000000000000000000000
201511110010000100000000000000001073000000000000000010738000000000023234392204VERONICA-GARCIA               000000000055800000000000000000000000000000000000000000000000000000000000000000000000000000000000000000000000000000000000PES00010000001 00000000000000000000000
201511120010000100000000000000001074000000000000000010748000000000023234392204VERONICA-GARCIA               000000000007000000000000000000000000000000000000000000000000000000000000000000000000000000000000000000000000000000000000PES00010000001 00000000000000000000000
201511170010000100000000000000001075000000000000000010758000000000030711419639TRANSPORTES-MELIAN-SRL        000000000046800000000000000000000000000000000000000000000000000000000000000000000000000000000000000000000000000000000000PES00010000001 00000000000000000000000
201511180010000100000000000000001076000000000000000010768000000000020230328189CORDOBA-GUSTAVO-ALBERTO       000000000266200000000000000000000000000000000000000000000000000000000000000000000000000000000000000000000000000000000000PES00010000001 00000000000000000000000
201511210010000100000000000000001077000000000000000010778000000000023308826619ESPIGA-CRISTIAN-ALEJANDRO     000000000165000000000000000000000000000000000000000000000000000000000000000000000000000000000000000000000000000000000000PES00010000001 00000000000000000000000
201511250010000100000000000000001078000000000000000010788000000000030707607889ELECTRO-PATAGONIA-SA          000000000045000000000000000000000000000000000000000000000000000000000000000000000000000000000000000000000000000000000000PES00010000001 00000000000000000000000
201511260010000100000000000000001079000000000000000010798000000000020140752739ENRIQUE-EDUARDO-VERDE         000000000063000000000000000000000000000000000000000000000000000000000000000000000000000000000000000000000000000000000000PES00010000001 00000000000000000000000
201511260010000100000000000000001080000000000000000010808000000000030709816361SISCON-INDUSTRI-SRL           000000000077500000000000000000000000000000000000000000000000000000000000000000000000000000000000000000000000000000000000PES00010000001 00000000000000000000000
201511260010000100000000000000001081000000000000000010818000000000027120410534MIRANDA-MIRTA                 000000000052000000000000000000000000000000000000000000000000000000000000000000000000000000000000000000000000000000000000PES00010000001 00000000000000000000000
201511170060000100000000000000013691000000000000000136918000000000030670240122MUNICIPALIDAD-DE-RIO-MAYO     000000000017000000000000000000000000000000000000000000000000000000000000000000000000000000000000000000000000000000000000PES00010000001 00000000000000000000000
201511170060000100000000000000013692000000000000000136928000000000030999065593MUNICIPALIDAD-DE-COMODORO-RIVA000000000075000000000000000000000000000000000000000000000000000000000000000000000000000000000000000000000000000000000000PES00010000001 00000000000000000000000
201511230060000100000000000000013693000000000000000136938000000000030999065593MUNICIPALIDAD-DE-COMODORO-RIVA000000000049800000000000000000000000000000000000000000000000000000000000000000000000000000000000000000000000000000000000PES00010000001 00000000000000000000000
201511020060000100000000000000021855000000000000000218559611111111111111111111CONS-FINAL                    000000000039500000000000000000000000000000000000000000000000000000000000000000000000000000000000000000000000000000000000PES00010000001 00000000000000000000000
201511020060000100000000000000021856000000000000000218569611111111111111111111CONS-FINAL                    000000000015500000000000000000000000000000000000000000000000000000000000000000000000000000000000000000000000000000000000PES00010000001 00000000000000000000000
201511020060000100000000000000021857000000000000000218579611111111111111111111CONS-FINAL                    000000000014500000000000000000000000000000000000000000000000000000000000000000000000000000000000000000000000000000000000PES00010000001 00000000000000000000000
201511020060000100000000000000021858000000000000000218589611111111111111111111CONS-FINAL                    000000000097000000000000000000000000000000000000000000000000000000000000000000000000000000000000000000000000000000000000PES00010000001 00000000000000000000000
201511020060000100000000000000021859000000000000000218599611111111111111111111CONS-FINAL                    000000000035000000000000000000000000000000000000000000000000000000000000000000000000000000000000000000000000000000000000PES00010000001 00000000000000000000000
201511020060000100000000000000021860000000000000000218609611111111111111111111CONS-FINAL                    000000000017500000000000000000000000000000000000000000000000000000000000000000000000000000000000000000000000000000000000PES00010000001 00000000000000000000000
201511020060000100000000000000021861000000000000000218619611111111111111111111CONS-FINAL                    000000000029500000000000000000000000000000000000000000000000000000000000000000000000000000000000000000000000000000000000PES00010000001 00000000000000000000000
201511020060000100000000000000021862000000000000000218629611111111111111111111CONS-FINAL                    000000000057500000000000000000000000000000000000000000000000000000000000000000000000000000000000000000000000000000000000PES00010000001 00000000000000000000000
201511020060000100000000000000021863000000000000000218639611111111111111111111CONS-FINAL                    000000000020500000000000000000000000000000000000000000000000000000000000000000000000000000000000000000000000000000000000PES00010000001 00000000000000000000000
201511020060000100000000000000021864000000000000000218649611111111111111111111CONS-FINAL                    000000000024500000000000000000000000000000000000000000000000000000000000000000000000000000000000000000000000000000000000PES00010000001 00000000000000000000000
201511020060000100000000000000021865000000000000000218659611111111111111111111CONS-FINAL                    000000000059500000000000000000000000000000000000000000000000000000000000000000000000000000000000000000000000000000000000PES00010000001 00000000000000000000000
201511030060000100000000000000021866000000000000000218669611111111111111111111CONS-FINAL                    000000000015000000000000000000000000000000000000000000000000000000000000000000000000000000000000000000000000000000000000PES00010000001 00000000000000000000000
201511030060000100000000000000021867000000000000000218679611111111111111111111CONS-FINAL                    000000000080000000000000000000000000000000000000000000000000000000000000000000000000000000000000000000000000000000000000PES00010000001 00000000000000000000000
201511030060000100000000000000021868000000000000000218689611111111111111111111CONS-FINAL                    000000000048000000000000000000000000000000000000000000000000000000000000000000000000000000000000000000000000000000000000PES00010000001 00000000000000000000000
201511030060000100000000000000021869000000000000000218699611111111111111111111CONS-FINAL                    000000000046000000000000000000000000000000000000000000000000000000000000000000000000000000000000000000000000000000000000PES00010000001 00000000000000000000000
201511030060000100000000000000021870000000000000000218709611111111111111111111CONS-FINAL                    000000000040100000000000000000000000000000000000000000000000000000000000000000000000000000000000000000000000000000000000PES00010000001 00000000000000000000000
201511030060000100000000000000021871000000000000000218719611111111111111111111CONS-FINAL                    000000000043500000000000000000000000000000000000000000000000000000000000000000000000000000000000000000000000000000000000PES00010000001 00000000000000000000000
201511030060000100000000000000021872000000000000000218729611111111111111111111CONS-FINAL                    000000000025000000000000000000000000000000000000000000000000000000000000000000000000000000000000000000000000000000000000PES00010000001 00000000000000000000000
201511030060000100000000000000021873000000000000000218739611111111111111111111CONS-FINAL                    000000000078500000000000000000000000000000000000000000000000000000000000000000000000000000000000000000000000000000000000PES00010000001 00000000000000000000000
201511030060000100000000000000021874000000000000000218749611111111111111111111CONS-FINAL                    000000000097500000000000000000000000000000000000000000000000000000000000000000000000000000000000000000000000000000000000PES00010000001 00000000000000000000000
201511030060000100000000000000021875000000000000000218759611111111111111111111CONS-FINAL                    000000000048000000000000000000000000000000000000000000000000000000000000000000000000000000000000000000000000000000000000PES00010000001 00000000000000000000000
201511030060000100000000000000021876000000000000000218769611111111111111111111CONS-FINAL                    000000000030000000000000000000000000000000000000000000000000000000000000000000000000000000000000000000000000000000000000PES00010000001 00000000000000000000000
201511030060000100000000000000021877000000000000000218779611111111111111111111CONS-FINAL                    000000000069000000000000000000000000000000000000000000000000000000000000000000000000000000000000000000000000000000000000PES00010000001 00000000000000000000000
201511040060000100000000000000021878000000000000000218789611111111111111111111CONS-FINAL                    000000000007500000000000000000000000000000000000000000000000000000000000000000000000000000000000000000000000000000000000PES00010000001 00000000000000000000000
201511040060000100000000000000021879000000000000000218799611111111111111111111CONS-FINAL                    000000000095000000000000000000000000000000000000000000000000000000000000000000000000000000000000000000000000000000000000PES00010000001 00000000000000000000000
201511040060000100000000000000021880000000000000000218809611111111111111111111CONS-FINAL                    000000000097300000000000000000000000000000000000000000000000000000000000000000000000000000000000000000000000000000000000PES00010000001 00000000000000000000000
201511040060000100000000000000021881000000000000000218819611111111111111111111CONS-FINAL                    000000000052000000000000000000000000000000000000000000000000000000000000000000000000000000000000000000000000000000000000PES00010000001 00000000000000000000000
201511040060000100000000000000021882000000000000000218829611111111111111111111CONS-FINAL                    000000000032500000000000000000000000000000000000000000000000000000000000000000000000000000000000000000000000000000000000PES00010000001 00000000000000000000000
201511040060000100000000000000021883000000000000000218839611111111111111111111CONS-FINAL                    000000000099500000000000000000000000000000000000000000000000000000000000000000000000000000000000000000000000000000000000PES00010000001 00000000000000000000000
201511040060000100000000000000021884000000000000000218849611111111111111111111CONS-FINAL                    000000000027500000000000000000000000000000000000000000000000000000000000000000000000000000000000000000000000000000000000PES00010000001 00000000000000000000000
201511040060000100000000000000021885000000000000000218859611111111111111111111CONS-FINAL                    000000000020000000000000000000000000000000000000000000000000000000000000000000000000000000000000000000000000000000000000PES00010000001 00000000000000000000000
201511040060000100000000000000021886000000000000000218869611111111111111111111CONS-FINAL                    000000000067000000000000000000000000000000000000000000000000000000000000000000000000000000000000000000000000000000000000PES00010000001 00000000000000000000000
201511040060000100000000000000021887000000000000000218879611111111111111111111CONS-FINAL                    000000000083000000000000000000000000000000000000000000000000000000000000000000000000000000000000000000000000000000000000PES00010000001 00000000000000000000000
201511040060000100000000000000021888000000000000000218889611111111111111111111CONS-FINAL                    000000000156000000000000000000000000000000000000000000000000000000000000000000000000000000000000000000000000000000000000PES00010000001 00000000000000000000000
201511040060000100000000000000021889000000000000000218899611111111111111111111CONS-FINAL                    000000000065500000000000000000000000000000000000000000000000000000000000000000000000000000000000000000000000000000000000PES00010000001 00000000000000000000000
201511040060000100000000000000021890000000000000000218909600000000020146721487-PRIETO-ROBERTO-WALTER        000000000240000000000000000000000000000000000000000000000000000000000000000000000000000000000000000000000000000000000000PES00010000001 00000000000000000000000
201511040060000100000000000000021891000000000000000218919611111111111111111111CONS-FINAL                    000000000026500000000000000000000000000000000000000000000000000000000000000000000000000000000000000000000000000000000000PES00010000001 00000000000000000000000
201511050060000100000000000000021892000000000000000218929611111111111111111111CONS-FINAL                    000000000058500000000000000000000000000000000000000000000000000000000000000000000000000000000000000000000000000000000000PES00010000001 00000000000000000000000
201511050060000100000000000000021893000000000000000218939611111111111111111111CONS-FINAL                    000000000067000000000000000000000000000000000000000000000000000000000000000000000000000000000000000000000000000000000000PES00010000001 00000000000000000000000
201511050060000100000000000000021894000000000000000218949611111111111111111111CONS-FINAL                    000000000038500000000000000000000000000000000000000000000000000000000000000000000000000000000000000000000000000000000000PES00010000001 00000000000000000000000
201511050060000100000000000000021895000000000000000218959611111111111111111111CONS-FINAL                    000000000013500000000000000000000000000000000000000000000000000000000000000000000000000000000000000000000000000000000000PES00010000001 00000000000000000000000
201511050060000100000000000000021896000000000000000218969611111111111111111111CONS-FINAL                    000000000011500000000000000000000000000000000000000000000000000000000000000000000000000000000000000000000000000000000000PES00010000001 00000000000000000000000
201511050060000100000000000000021897000000000000000218979611111111111111111111CONS-FINAL                    000000000014000000000000000000000000000000000000000000000000000000000000000000000000000000000000000000000000000000000000PES00010000001 00000000000000000000000
201511050060000100000000000000021898000000000000000218989611111111111111111111CONS-FINAL                    000000000048000000000000000000000000000000000000000000000000000000000000000000000000000000000000000000000000000000000000PES00010000001 00000000000000000000000
201511050060000100000000000000021899000000000000000218999611111111111111111111CONS-FINAL                    000000000018500000000000000000000000000000000000000000000000000000000000000000000000000000000000000000000000000000000000PES00010000001 00000000000000000000000
201511050060000100000000000000021900000000000000000219009611111111111111111111CONS-FINAL                    000000000019500000000000000000000000000000000000000000000000000000000000000000000000000000000000000000000000000000000000PES00010000001 00000000000000000000000
201511050060000100000000000000021901000000000000000219019611111111111111111111CONS-FINAL                    000000000055000000000000000000000000000000000000000000000000000000000000000000000000000000000000000000000000000000000000PES00010000001 00000000000000000000000
201511060060000100000000000000021902000000000000000219029611111111111111111111CONS-FINAL                    000000000028900000000000000000000000000000000000000000000000000000000000000000000000000000000000000000000000000000000000PES00010000001 00000000000000000000000
201511060060000100000000000000021903000000000000000219039611111111111111111111CONS-FINAL                    000000000015000000000000000000000000000000000000000000000000000000000000000000000000000000000000000000000000000000000000PES00010000001 00000000000000000000000
201511060060000100000000000000021904000000000000000219049611111111111111111111CONS-FINAL                    000000000197500000000000000000000000000000000000000000000000000000000000000000000000000000000000000000000000000000000000PES00010000001 00000000000000000000000
201511060060000100000000000000021905000000000000000219059611111111111111111111CONS-FINAL                    000000000028000000000000000000000000000000000000000000000000000000000000000000000000000000000000000000000000000000000000PES00010000001 00000000000000000000000
201511060060000100000000000000021906000000000000000219069611111111111111111111CONS-FINAL                    000000000077500000000000000000000000000000000000000000000000000000000000000000000000000000000000000000000000000000000000PES00010000001 00000000000000000000000
201511060060000100000000000000021907000000000000000219079611111111111111111111CONS-FINAL                    000000000033000000000000000000000000000000000000000000000000000000000000000000000000000000000000000000000000000000000000PES00010000001 00000000000000000000000
201511060060000100000000000000021908000000000000000219089611111111111111111111CONS-FINAL                    000000000071600000000000000000000000000000000000000000000000000000000000000000000000000000000000000000000000000000000000PES00010000001 00000000000000000000000
201511060060000100000000000000021909000000000000000219099611111111111111111111CONS-FINAL                    000000000325000000000000000000000000000000000000000000000000000000000000000000000000000000000000000000000000000000000000PES00010000001 00000000000000000000000
201511060060000100000000000000021910000000000000000219109611111111111111111111CONS-FINAL                    000000000099000000000000000000000000000000000000000000000000000000000000000000000000000000000000000000000000000000000000PES00010000001 00000000000000000000000
201511060060000100000000000000021911000000000000000219119611111111111111111111CONS-FINAL                    000000000012500000000000000000000000000000000000000000000000000000000000000000000000000000000000000000000000000000000000PES00010000001 00000000000000000000000
201511060060000100000000000000021912000000000000000219129611111111111111111111CONS-FINAL                    000000000042000000000000000000000000000000000000000000000000000000000000000000000000000000000000000000000000000000000000PES00010000001 00000000000000000000000
201511060060000100000000000000021913000000000000000219139611111111111111111111CONS-FINAL                    000000000011500000000000000000000000000000000000000000000000000000000000000000000000000000000000000000000000000000000000PES00010000001 00000000000000000000000
201511070060000100000000000000021914000000000000000219149611111111111111111111CONS-FINAL                    000000000006000000000000000000000000000000000000000000000000000000000000000000000000000000000000000000000000000000000000PES00010000001 00000000000000000000000
201511070060000100000000000000021915000000000000000219159611111111111111111111CONS-FINAL                    000000000018800000000000000000000000000000000000000000000000000000000000000000000000000000000000000000000000000000000000PES00010000001 00000000000000000000000
201511070060000100000000000000021916000000000000000219169611111111111111111111CONS-FINAL                    000000000037500000000000000000000000000000000000000000000000000000000000000000000000000000000000000000000000000000000000PES00010000001 00000000000000000000000
201511070060000100000000000000021917000000000000000219179611111111111111111111CONS-FINAL                    000000000035900000000000000000000000000000000000000000000000000000000000000000000000000000000000000000000000000000000000PES00010000001 00000000000000000000000
201511070060000100000000000000021918000000000000000219189611111111111111111111CONS-FINAL                    000000000047000000000000000000000000000000000000000000000000000000000000000000000000000000000000000000000000000000000000PES00010000001 00000000000000000000000
201511070060000100000000000000021919000000000000000219199611111111111111111111CONS-FINAL                    000000000020300000000000000000000000000000000000000000000000000000000000000000000000000000000000000000000000000000000000PES00010000001 00000000000000000000000
201511070060000100000000000000021920000000000000000219209611111111111111111111CONS-FINAL                    000000000069000000000000000000000000000000000000000000000000000000000000000000000000000000000000000000000000000000000000PES00010000001 00000000000000000000000
201511070060000100000000000000021921000000000000000219219611111111111111111111CONS-FINAL                    000000000079500000000000000000000000000000000000000000000000000000000000000000000000000000000000000000000000000000000000PES00010000001 00000000000000000000000
201511070060000100000000000000021922000000000000000219229611111111111111111111CONS-FINAL                    000000000057800000000000000000000000000000000000000000000000000000000000000000000000000000000000000000000000000000000000PES00010000001 00000000000000000000000
201511070060000100000000000000021923000000000000000219239611111111111111111111CONS-FINAL                    000000000057700000000000000000000000000000000000000000000000000000000000000000000000000000000000000000000000000000000000PES00010000001 00000000000000000000000
201511070060000100000000000000021924000000000000000219249611111111111111111111CONS-FINAL                    000000000143500000000000000000000000000000000000000000000000000000000000000000000000000000000000000000000000000000000000PES00010000001 00000000000000000000000
201511070060000100000000000000021925000000000000000219259611111111111111111111CONS-FINAL                    000000000076300000000000000000000000000000000000000000000000000000000000000000000000000000000000000000000000000000000000PES00010000001 00000000000000000000000
201511070060000100000000000000021926000000000000000219269611111111111111111111CONS-FINAL                    000000000086500000000000000000000000000000000000000000000000000000000000000000000000000000000000000000000000000000000000PES00010000001 00000000000000000000000
201511070060000100000000000000021927000000000000000219279611111111111111111111CONS-FINAL                    000000000298500000000000000000000000000000000000000000000000000000000000000000000000000000000000000000000000000000000000PES00010000001 00000000000000000000000
201511070060000100000000000000021928000000000000000219289611111111111111111111CONS-FINAL                    000000000046500000000000000000000000000000000000000000000000000000000000000000000000000000000000000000000000000000000000PES00010000001 00000000000000000000000
201511090060000100000000000000021929000000000000000219299611111111111111111111CONS-FINAL                    000000000115000000000000000000000000000000000000000000000000000000000000000000000000000000000000000000000000000000000000PES00010000001 00000000000000000000000
201511090060000100000000000000021930000000000000000219309611111111111111111111CONS-FINAL                    000000000029400000000000000000000000000000000000000000000000000000000000000000000000000000000000000000000000000000000000PES00010000001 00000000000000000000000
201511090060000100000000000000021931000000000000000219319611111111111111111111CONS-FINAL                    000000000046000000000000000000000000000000000000000000000000000000000000000000000000000000000000000000000000000000000000PES00010000001 00000000000000000000000
201511090060000100000000000000021932000000000000000219329611111111111111111111CONS-FINAL                    000000000066400000000000000000000000000000000000000000000000000000000000000000000000000000000000000000000000000000000000PES00010000001 00000000000000000000000
201511090060000100000000000000021933000000000000000219339611111111111111111111CONS-FINAL                    000000000036500000000000000000000000000000000000000000000000000000000000000000000000000000000000000000000000000000000000PES00010000001 00000000000000000000000
201511090060000100000000000000021934000000000000000219349611111111111111111111CONS-FINAL                    000000000032000000000000000000000000000000000000000000000000000000000000000000000000000000000000000000000000000000000000PES00010000001 00000000000000000000000
201511090060000100000000000000021935000000000000000219359611111111111111111111CONS-FINAL                    000000000078800000000000000000000000000000000000000000000000000000000000000000000000000000000000000000000000000000000000PES00010000001 00000000000000000000000
201511100060000100000000000000021936000000000000000219369611111111111111111111CONS-FINAL                    000000000026000000000000000000000000000000000000000000000000000000000000000000000000000000000000000000000000000000000000PES00010000001 00000000000000000000000
201511100060000100000000000000021937000000000000000219379611111111111111111111CONS-FINAL                    000000000046000000000000000000000000000000000000000000000000000000000000000000000000000000000000000000000000000000000000PES00010000001 00000000000000000000000
201511100060000100000000000000021938000000000000000219389611111111111111111111CONS-FINAL                    000000000031500000000000000000000000000000000000000000000000000000000000000000000000000000000000000000000000000000000000PES00010000001 00000000000000000000000
201511100060000100000000000000021939000000000000000219399611111111111111111111CONS-FINAL                    000000000099000000000000000000000000000000000000000000000000000000000000000000000000000000000000000000000000000000000000PES00010000001 00000000000000000000000
201511100060000100000000000000021940000000000000000219409611111111111111111111CONS-FINAL                    000000000021500000000000000000000000000000000000000000000000000000000000000000000000000000000000000000000000000000000000PES00010000001 00000000000000000000000
201511100060000100000000000000021941000000000000000219419611111111111111111111CONS-FINAL                    000000000149500000000000000000000000000000000000000000000000000000000000000000000000000000000000000000000000000000000000PES00010000001 00000000000000000000000
201511110060000100000000000000021942000000000000000219429611111111111111111111CONS-FINAL                    000000000024000000000000000000000000000000000000000000000000000000000000000000000000000000000000000000000000000000000000PES00010000001 00000000000000000000000
201511110060000100000000000000021943000000000000000219439611111111111111111111CONS-FINAL                    000000000034500000000000000000000000000000000000000000000000000000000000000000000000000000000000000000000000000000000000PES00010000001 00000000000000000000000
201511110060000100000000000000021944000000000000000219449611111111111111111111CONS-FINAL                    000000000091400000000000000000000000000000000000000000000000000000000000000000000000000000000000000000000000000000000000PES00010000001 00000000000000000000000
201511110060000100000000000000021945000000000000000219459611111111111111111111CONS-FINAL                    000000000066000000000000000000000000000000000000000000000000000000000000000000000000000000000000000000000000000000000000PES00010000001 00000000000000000000000
201511110060000100000000000000021946000000000000000219469611111111111111111111CONS-FINAL                    000000000024300000000000000000000000000000000000000000000000000000000000000000000000000000000000000000000000000000000000PES00010000001 00000000000000000000000
201511110060000100000000000000021947000000000000000219479611111111111111111111CONS-FINAL                    000000000044000000000000000000000000000000000000000000000000000000000000000000000000000000000000000000000000000000000000PES00010000001 00000000000000000000000
201511110060000100000000000000021948000000000000000219489611111111111111111111CONS-FINAL                    000000000093800000000000000000000000000000000000000000000000000000000000000000000000000000000000000000000000000000000000PES00010000001 00000000000000000000000
201511110060000100000000000000021949000000000000000219499611111111111111111111CONS-FINAL                    000000000032500000000000000000000000000000000000000000000000000000000000000000000000000000000000000000000000000000000000PES00010000001 00000000000000000000000
201511110060000100000000000000021950000000000000000219509611111111111111111111CONS-FINAL                    000000000023500000000000000000000000000000000000000000000000000000000000000000000000000000000000000000000000000000000000PES00010000001 00000000000000000000000
201511110060000100000000000000021951000000000000000219519611111111111111111111CONS-FINAL                    000000000038500000000000000000000000000000000000000000000000000000000000000000000000000000000000000000000000000000000000PES00010000001 00000000000000000000000
201511110060000100000000000000021952000000000000000219529611111111111111111111CONS-FINAL                    000000000066000000000000000000000000000000000000000000000000000000000000000000000000000000000000000000000000000000000000PES00010000001 00000000000000000000000
201511120060000100000000000000021953000000000000000219539611111111111111111111CONS-FINAL                    000000000032000000000000000000000000000000000000000000000000000000000000000000000000000000000000000000000000000000000000PES00010000001 00000000000000000000000
201511120060000100000000000000021954000000000000000219549611111111111111111111CONS-FINAL                    000000000072500000000000000000000000000000000000000000000000000000000000000000000000000000000000000000000000000000000000PES00010000001 00000000000000000000000
201511120060000100000000000000021955000000000000000219559611111111111111111111CONS-FINAL                    000000000057000000000000000000000000000000000000000000000000000000000000000000000000000000000000000000000000000000000000PES00010000001 00000000000000000000000
201511120060000100000000000000021956000000000000000219569611111111111111111111CONS-FINAL                    000000000092000000000000000000000000000000000000000000000000000000000000000000000000000000000000000000000000000000000000PES00010000001 00000000000000000000000
201511120060000100000000000000021957000000000000000219579611111111111111111111CONS-FINAL                    000000000008500000000000000000000000000000000000000000000000000000000000000000000000000000000000000000000000000000000000PES00010000001 00000000000000000000000
201511120060000100000000000000021958000000000000000219589611111111111111111111CONS-FINAL                    000000000021500000000000000000000000000000000000000000000000000000000000000000000000000000000000000000000000000000000000PES00010000001 00000000000000000000000
201511120060000100000000000000021959000000000000000219599611111111111111111111CONS-FINAL                    000000000059500000000000000000000000000000000000000000000000000000000000000000000000000000000000000000000000000000000000PES00010000001 00000000000000000000000
201511120060000100000000000000021960000000000000000219609611111111111111111111CONS-FINAL                    000000000400000000000000000000000000000000000000000000000000000000000000000000000000000000000000000000000000000000000000PES00010000001 00000000000000000000000
201511120060000100000000000000021961000000000000000219619611111111111111111111CONS-FINAL                    000000000041500000000000000000000000000000000000000000000000000000000000000000000000000000000000000000000000000000000000PES00010000001 00000000000000000000000
201511120060000100000000000000021962000000000000000219629611111111111111111111CONS-FINAL                    000000000041000000000000000000000000000000000000000000000000000000000000000000000000000000000000000000000000000000000000PES00010000001 00000000000000000000000
201511120060000100000000000000021963000000000000000219639611111111111111111111CONS-FINAL                    000000000025000000000000000000000000000000000000000000000000000000000000000000000000000000000000000000000000000000000000PES00010000001 00000000000000000000000
201511120060000100000000000000021965000000000000000219659611111111111111111111CONS-FINAL                    000000000048500000000000000000000000000000000000000000000000000000000000000000000000000000000000000000000000000000000000PES00010000001 00000000000000000000000
201511120060000100000000000000021966000000000000000219669611111111111111111111CONS-FINAL                    000000000074500000000000000000000000000000000000000000000000000000000000000000000000000000000000000000000000000000000000PES00010000001 00000000000000000000000
201511120060000100000000000000021967000000000000000219679611111111111111111111CONS-FINAL                    000000000040500000000000000000000000000000000000000000000000000000000000000000000000000000000000000000000000000000000000PES00010000001 00000000000000000000000
201511120060000100000000000000021968000000000000000219689611111111111111111111CONS-FINAL                    000000000047000000000000000000000000000000000000000000000000000000000000000000000000000000000000000000000000000000000000PES00010000001 00000000000000000000000
201511120060000100000000000000021969000000000000000219699611111111111111111111CONS-FINAL                    000000000069800000000000000000000000000000000000000000000000000000000000000000000000000000000000000000000000000000000000PES00010000001 00000000000000000000000
201511120060000100000000000000021970000000000000000219709611111111111111111111CONS-FINAL                    000000000027500000000000000000000000000000000000000000000000000000000000000000000000000000000000000000000000000000000000PES00010000001 00000000000000000000000
201511130060000100000000000000021971000000000000000219719611111111111111111111CONS-FINAL                    000000000054500000000000000000000000000000000000000000000000000000000000000000000000000000000000000000000000000000000000PES00010000001 00000000000000000000000
201511130060000100000000000000021972000000000000000219729611111111111111111111CONS-FINAL                    000000000298500000000000000000000000000000000000000000000000000000000000000000000000000000000000000000000000000000000000PES00010000001 00000000000000000000000
201511130060000100000000000000021973000000000000000219739611111111111111111111CONS-FINAL                    000000000036000000000000000000000000000000000000000000000000000000000000000000000000000000000000000000000000000000000000PES00010000001 00000000000000000000000
201511130060000100000000000000021974000000000000000219749611111111111111111111CONS-FINAL                    000000000076900000000000000000000000000000000000000000000000000000000000000000000000000000000000000000000000000000000000PES00010000001 00000000000000000000000
201511130060000100000000000000021975000000000000000219759611111111111111111111CONS-FINAL                    000000000065500000000000000000000000000000000000000000000000000000000000000000000000000000000000000000000000000000000000PES00010000001 00000000000000000000000
201511130060000100000000000000021976000000000000000219769611111111111111111111CONS-FINAL                    000000000032000000000000000000000000000000000000000000000000000000000000000000000000000000000000000000000000000000000000PES00010000001 00000000000000000000000
201511130060000100000000000000021977000000000000000219779611111111111111111111CONS-FINAL                    000000000019800000000000000000000000000000000000000000000000000000000000000000000000000000000000000000000000000000000000PES00010000001 00000000000000000000000
201511130060000100000000000000021978000000000000000219789611111111111111111111CONS-FINAL                    000000000027500000000000000000000000000000000000000000000000000000000000000000000000000000000000000000000000000000000000PES00010000001 00000000000000000000000
201511130060000100000000000000021979000000000000000219799611111111111111111111CONS-FINAL                    000000000008500000000000000000000000000000000000000000000000000000000000000000000000000000000000000000000000000000000000PES00010000001 00000000000000000000000
201511130060000100000000000000021980000000000000000219809611111111111111111111CONS-FINAL                    000000000135000000000000000000000000000000000000000000000000000000000000000000000000000000000000000000000000000000000000PES00010000001 00000000000000000000000
201511130060000100000000000000021981000000000000000219819611111111111111111111CONS-FINAL                    000000000043500000000000000000000000000000000000000000000000000000000000000000000000000000000000000000000000000000000000PES00010000001 00000000000000000000000
201511130060000100000000000000021982000000000000000219829611111111111111111111CONS-FINAL                    000000000050000000000000000000000000000000000000000000000000000000000000000000000000000000000000000000000000000000000000PES00010000001 00000000000000000000000
201511130060000100000000000000021983000000000000000219839611111111111111111111CONS-FINAL                    000000000035000000000000000000000000000000000000000000000000000000000000000000000000000000000000000000000000000000000000PES00010000001 00000000000000000000000
201511130060000100000000000000021984000000000000000219849611111111111111111111CONS-FINAL                    000000000019800000000000000000000000000000000000000000000000000000000000000000000000000000000000000000000000000000000000PES00010000001 00000000000000000000000
201511130060000100000000000000021985000000000000000219859611111111111111111111CONS-FINAL                    000000000059100000000000000000000000000000000000000000000000000000000000000000000000000000000000000000000000000000000000PES00010000001 00000000000000000000000
201511130060000100000000000000021986000000000000000219869611111111111111111111CONS-FINAL                    000000000014000000000000000000000000000000000000000000000000000000000000000000000000000000000000000000000000000000000000PES00010000001 00000000000000000000000
201511130060000100000000000000021987000000000000000219879611111111111111111111CONS-FINAL                    000000000047500000000000000000000000000000000000000000000000000000000000000000000000000000000000000000000000000000000000PES00010000001 00000000000000000000000
201511130060000100000000000000021988000000000000000219889611111111111111111111CONS-FINAL                    000000000172300000000000000000000000000000000000000000000000000000000000000000000000000000000000000000000000000000000000PES00010000001 00000000000000000000000
201511140060000100000000000000021989000000000000000219899611111111111111111111CONS-FINAL                    000000000019800000000000000000000000000000000000000000000000000000000000000000000000000000000000000000000000000000000000PES00010000001 00000000000000000000000
201511140060000100000000000000021990000000000000000219909611111111111111111111CONS-FINAL                    000000000324800000000000000000000000000000000000000000000000000000000000000000000000000000000000000000000000000000000000PES00010000001 00000000000000000000000
201511140060000100000000000000021991000000000000000219919611111111111111111111CONS-FINAL                    000000000318600000000000000000000000000000000000000000000000000000000000000000000000000000000000000000000000000000000000PES00010000001 00000000000000000000000
201511140060000100000000000000021992000000000000000219929611111111111111111111CONS-FINAL                    000000000020500000000000000000000000000000000000000000000000000000000000000000000000000000000000000000000000000000000000PES00010000001 00000000000000000000000
201511140060000100000000000000021993000000000000000219939611111111111111111111CONS-FINAL                    000000000035000000000000000000000000000000000000000000000000000000000000000000000000000000000000000000000000000000000000PES00010000001 00000000000000000000000
201511140060000100000000000000021994000000000000000219949611111111111111111111CONS-FINAL                    000000000042000000000000000000000000000000000000000000000000000000000000000000000000000000000000000000000000000000000000PES00010000001 00000000000000000000000
201511140060000100000000000000021995000000000000000219959611111111111111111111CONS-FINAL                    000000000078000000000000000000000000000000000000000000000000000000000000000000000000000000000000000000000000000000000000PES00010000001 00000000000000000000000
201511140060000100000000000000021996000000000000000219969611111111111111111111CONS-FINAL                    000000000022000000000000000000000000000000000000000000000000000000000000000000000000000000000000000000000000000000000000PES00010000001 00000000000000000000000
201511140060000100000000000000021997000000000000000219979611111111111111111111CONS-FINAL                    000000000027500000000000000000000000000000000000000000000000000000000000000000000000000000000000000000000000000000000000PES00010000001 00000000000000000000000
201511140060000100000000000000021998000000000000000219989611111111111111111111CONS-FINAL                    000000000117600000000000000000000000000000000000000000000000000000000000000000000000000000000000000000000000000000000000PES00010000001 00000000000000000000000
201511140060000100000000000000021999000000000000000219999611111111111111111111CONS-FINAL                    000000000055000000000000000000000000000000000000000000000000000000000000000000000000000000000000000000000000000000000000PES00010000001 00000000000000000000000
201511140060000100000000000000022000000000000000000220009611111111111111111111CONS-FINAL                    000000000026000000000000000000000000000000000000000000000000000000000000000000000000000000000000000000000000000000000000PES00010000001 00000000000000000000000
201511140060000100000000000000022001000000000000000220019611111111111111111111CONS-FINAL                    000000000029800000000000000000000000000000000000000000000000000000000000000000000000000000000000000000000000000000000000PES00010000001 00000000000000000000000
201511140060000100000000000000022002000000000000000220029611111111111111111111CONS-FINAL                    000000000042600000000000000000000000000000000000000000000000000000000000000000000000000000000000000000000000000000000000PES00010000001 00000000000000000000000
201511140060000100000000000000022003000000000000000220039611111111111111111111CONS-FINAL                    000000000119800000000000000000000000000000000000000000000000000000000000000000000000000000000000000000000000000000000000PES00010000001 00000000000000000000000
201511140060000100000000000000022004000000000000000220049611111111111111111111CONS-FINAL                    000000000035000000000000000000000000000000000000000000000000000000000000000000000000000000000000000000000000000000000000PES00010000001 00000000000000000000000
201511140060000100000000000000022005000000000000000220059611111111111111111111CONS-FINAL                    000000000024000000000000000000000000000000000000000000000000000000000000000000000000000000000000000000000000000000000000PES00010000001 00000000000000000000000
201511140060000100000000000000022006000000000000000220069611111111111111111111CONS-FINAL                    000000000048300000000000000000000000000000000000000000000000000000000000000000000000000000000000000000000000000000000000PES00010000001 00000000000000000000000
201511140060000100000000000000022007000000000000000220079611111111111111111111CONS-FINAL                    000000000061500000000000000000000000000000000000000000000000000000000000000000000000000000000000000000000000000000000000PES00010000001 00000000000000000000000
201511140060000100000000000000022008000000000000000220089611111111111111111111CONS-FINAL                    000000000045000000000000000000000000000000000000000000000000000000000000000000000000000000000000000000000000000000000000PES00010000001 00000000000000000000000
201511140060000100000000000000022009000000000000000220099611111111111111111111CONS-FINAL                    000000000027500000000000000000000000000000000000000000000000000000000000000000000000000000000000000000000000000000000000PES00010000001 00000000000000000000000
201511140060000100000000000000022010000000000000000220109611111111111111111111CONS-FINAL                    000000000026000000000000000000000000000000000000000000000000000000000000000000000000000000000000000000000000000000000000PES00010000001 00000000000000000000000
201511140060000100000000000000022011000000000000000220119611111111111111111111CONS-FINAL                    000000000100000000000000000000000000000000000000000000000000000000000000000000000000000000000000000000000000000000000000PES00010000001 00000000000000000000000
201511140060000100000000000000022012000000000000000220129611111111111111111111CONS-FINAL                    000000000050000000000000000000000000000000000000000000000000000000000000000000000000000000000000000000000000000000000000PES00010000001 00000000000000000000000
201511140060000100000000000000022013000000000000000220139611111111111111111111CONS-FINAL                    000000000125000000000000000000000000000000000000000000000000000000000000000000000000000000000000000000000000000000000000PES00010000001 00000000000000000000000
201511140060000100000000000000022014000000000000000220149611111111111111111111CONS-FINAL                    000000000005000000000000000000000000000000000000000000000000000000000000000000000000000000000000000000000000000000000000PES00010000001 00000000000000000000000
201511140060000100000000000000022015000000000000000220159611111111111111111111CONS-FINAL                    000000000065500000000000000000000000000000000000000000000000000000000000000000000000000000000000000000000000000000000000PES00010000001 00000000000000000000000
201511160060000100000000000000022016000000000000000220169611111111111111111111CONS-FINAL                    000000000033000000000000000000000000000000000000000000000000000000000000000000000000000000000000000000000000000000000000PES00010000001 00000000000000000000000
201511160060000100000000000000022017000000000000000220179611111111111111111111CONS-FINAL                    000000000047300000000000000000000000000000000000000000000000000000000000000000000000000000000000000000000000000000000000PES00010000001 00000000000000000000000
201511160060000100000000000000022018000000000000000220189611111111111111111111CONS-FINAL                    000000000036000000000000000000000000000000000000000000000000000000000000000000000000000000000000000000000000000000000000PES00010000001 00000000000000000000000
201511160060000100000000000000022019000000000000000220199611111111111111111111CONS-FINAL                    000000000058500000000000000000000000000000000000000000000000000000000000000000000000000000000000000000000000000000000000PES00010000001 00000000000000000000000
201511160060000100000000000000022020000000000000000220209611111111111111111111CONS-FINAL                    000000000013500000000000000000000000000000000000000000000000000000000000000000000000000000000000000000000000000000000000PES00010000001 00000000000000000000000
201511160060000100000000000000022021000000000000000220219611111111111111111111CONS-FINAL                    000000000039000000000000000000000000000000000000000000000000000000000000000000000000000000000000000000000000000000000000PES00010000001 00000000000000000000000
201511160060000100000000000000022022000000000000000220229611111111111111111111CONS-FINAL                    000000000043500000000000000000000000000000000000000000000000000000000000000000000000000000000000000000000000000000000000PES00010000001 00000000000000000000000
201511160060000100000000000000022023000000000000000220239611111111111111111111CONS-FINAL                    000000000271000000000000000000000000000000000000000000000000000000000000000000000000000000000000000000000000000000000000PES00010000001 00000000000000000000000
201511160060000100000000000000022024000000000000000220249611111111111111111111CONS-FINAL                    000000000023000000000000000000000000000000000000000000000000000000000000000000000000000000000000000000000000000000000000PES00010000001 00000000000000000000000
201511160060000100000000000000022025000000000000000220259611111111111111111111CONS-FINAL                    000000000019600000000000000000000000000000000000000000000000000000000000000000000000000000000000000000000000000000000000PES00010000001 00000000000000000000000
201511160060000100000000000000022026000000000000000220269611111111111111111111CONS-FINAL                    000000000457700000000000000000000000000000000000000000000000000000000000000000000000000000000000000000000000000000000000PES00010000001 00000000000000000000000
201511160060000100000000000000022027000000000000000220279611111111111111111111CONS-FINAL                    000000000048000000000000000000000000000000000000000000000000000000000000000000000000000000000000000000000000000000000000PES00010000001 00000000000000000000000
201511160060000100000000000000022028000000000000000220289611111111111111111111CONS-FINAL                    000000000070000000000000000000000000000000000000000000000000000000000000000000000000000000000000000000000000000000000000PES00010000001 00000000000000000000000
201511170060000100000000000000022029000000000000000220299611111111111111111111CONS-FINAL                    000000000059500000000000000000000000000000000000000000000000000000000000000000000000000000000000000000000000000000000000PES00010000001 00000000000000000000000
201511170060000100000000000000022030000000000000000220309611111111111111111111CONS-FINAL                    000000000017000000000000000000000000000000000000000000000000000000000000000000000000000000000000000000000000000000000000PES00010000001 00000000000000000000000
201511170060000100000000000000022032000000000000000220329611111111111111111111CONS-FINAL                    000000000408000000000000000000000000000000000000000000000000000000000000000000000000000000000000000000000000000000000000PES00010000001 00000000000000000000000
201511170060000100000000000000022033000000000000000220339611111111111111111111CONS-FINAL                    000000000035000000000000000000000000000000000000000000000000000000000000000000000000000000000000000000000000000000000000PES00010000001 00000000000000000000000
201511170060000100000000000000022034000000000000000220349611111111111111111111CONS-FINAL                    000000000023500000000000000000000000000000000000000000000000000000000000000000000000000000000000000000000000000000000000PES00010000001 00000000000000000000000
201511170060000100000000000000022035000000000000000220359611111111111111111111CONS-FINAL                    000000000067500000000000000000000000000000000000000000000000000000000000000000000000000000000000000000000000000000000000PES00010000001 00000000000000000000000
201511180060000100000000000000022036000000000000000220369611111111111111111111CONS-FINAL                    000000000053000000000000000000000000000000000000000000000000000000000000000000000000000000000000000000000000000000000000PES00010000001 00000000000000000000000
201511180060000100000000000000022037000000000000000220379611111111111111111111CONS-FINAL                    000000000019500000000000000000000000000000000000000000000000000000000000000000000000000000000000000000000000000000000000PES00010000001 00000000000000000000000
201511180060000100000000000000022038000000000000000220389611111111111111111111CONS-FINAL                    000000000058000000000000000000000000000000000000000000000000000000000000000000000000000000000000000000000000000000000000PES00010000001 00000000000000000000000
201511180060000100000000000000022039000000000000000220399611111111111111111111CONS-FINAL                    000000000004000000000000000000000000000000000000000000000000000000000000000000000000000000000000000000000000000000000000PES00010000001 00000000000000000000000
201511180060000100000000000000022040000000000000000220409611111111111111111111CONS-FINAL                    000000000032300000000000000000000000000000000000000000000000000000000000000000000000000000000000000000000000000000000000PES00010000001 00000000000000000000000
201511180060000100000000000000022041000000000000000220419611111111111111111111CONS-FINAL                    000000000012500000000000000000000000000000000000000000000000000000000000000000000000000000000000000000000000000000000000PES00010000001 00000000000000000000000
201511180060000100000000000000022042000000000000000220429611111111111111111111CONS-FINAL                    000000000025000000000000000000000000000000000000000000000000000000000000000000000000000000000000000000000000000000000000PES00010000001 00000000000000000000000
201511190060000100000000000000022043000000000000000220439611111111111111111111CONS-FINAL                    000000000125000000000000000000000000000000000000000000000000000000000000000000000000000000000000000000000000000000000000PES00010000001 00000000000000000000000
201511190060000100000000000000022044000000000000000220449611111111111111111111CONS-FINAL                    000000000024500000000000000000000000000000000000000000000000000000000000000000000000000000000000000000000000000000000000PES00010000001 00000000000000000000000
201511190060000100000000000000022045000000000000000220459611111111111111111111CONS-FINAL                    000000000033500000000000000000000000000000000000000000000000000000000000000000000000000000000000000000000000000000000000PES00010000001 00000000000000000000000
201511190060000100000000000000022046000000000000000220469611111111111111111111CONS-FINAL                    000000000057000000000000000000000000000000000000000000000000000000000000000000000000000000000000000000000000000000000000PES00010000001 00000000000000000000000
201511190060000100000000000000022047000000000000000220479611111111111111111111CONS-FINAL                    000000000036000000000000000000000000000000000000000000000000000000000000000000000000000000000000000000000000000000000000PES00010000001 00000000000000000000000
201511190060000100000000000000022048000000000000000220489611111111111111111111CONS-FINAL                    000000000034500000000000000000000000000000000000000000000000000000000000000000000000000000000000000000000000000000000000PES00010000001 00000000000000000000000
201511190060000100000000000000022049000000000000000220499611111111111111111111CONS-FINAL                    000000000024000000000000000000000000000000000000000000000000000000000000000000000000000000000000000000000000000000000000PES00010000001 00000000000000000000000
201511190060000100000000000000022050000000000000000220509611111111111111111111CONS-FINAL                    000000000124100000000000000000000000000000000000000000000000000000000000000000000000000000000000000000000000000000000000PES00010000001 00000000000000000000000
201511190060000100000000000000022051000000000000000220519611111111111111111111CONS-FINAL                    000000000078500000000000000000000000000000000000000000000000000000000000000000000000000000000000000000000000000000000000PES00010000001 00000000000000000000000
201511200060000100000000000000022052000000000000000220529611111111111111111111CONS-FINAL                    000000000057500000000000000000000000000000000000000000000000000000000000000000000000000000000000000000000000000000000000PES00010000001 00000000000000000000000
201511200060000100000000000000022053000000000000000220539611111111111111111111CONS-FINAL                    000000000041700000000000000000000000000000000000000000000000000000000000000000000000000000000000000000000000000000000000PES00010000001 00000000000000000000000
201511200060000100000000000000022054000000000000000220549611111111111111111111CONS-FINAL                    000000000080500000000000000000000000000000000000000000000000000000000000000000000000000000000000000000000000000000000000PES00010000001 00000000000000000000000
201511200060000100000000000000022055000000000000000220559611111111111111111111CONS-FINAL                    000000000240500000000000000000000000000000000000000000000000000000000000000000000000000000000000000000000000000000000000PES00010000001 00000000000000000000000
201511200060000100000000000000022056000000000000000220569611111111111111111111CONS-FINAL                    000000000024500000000000000000000000000000000000000000000000000000000000000000000000000000000000000000000000000000000000PES00010000001 00000000000000000000000
201511200060000100000000000000022057000000000000000220579611111111111111111111CONS-FINAL                    000000000101000000000000000000000000000000000000000000000000000000000000000000000000000000000000000000000000000000000000PES00010000001 00000000000000000000000
201511200060000100000000000000022058000000000000000220589611111111111111111111CONS-FINAL                    000000000033500000000000000000000000000000000000000000000000000000000000000000000000000000000000000000000000000000000000PES00010000001 00000000000000000000000
201511200060000100000000000000022059000000000000000220599611111111111111111111CONS-FINAL                    000000000034000000000000000000000000000000000000000000000000000000000000000000000000000000000000000000000000000000000000PES00010000001 00000000000000000000000
201511200060000100000000000000022060000000000000000220609611111111111111111111CONS-FINAL                    000000000014000000000000000000000000000000000000000000000000000000000000000000000000000000000000000000000000000000000000PES00010000001 00000000000000000000000
201511200060000100000000000000022061000000000000000220619611111111111111111111CONS-FINAL                    000000000036500000000000000000000000000000000000000000000000000000000000000000000000000000000000000000000000000000000000PES00010000001 00000000000000000000000
201511200060000100000000000000022062000000000000000220629611111111111111111111CONS-FINAL                    000000000043500000000000000000000000000000000000000000000000000000000000000000000000000000000000000000000000000000000000PES00010000001 00000000000000000000000
201511210060000100000000000000022063000000000000000220639611111111111111111111CONS-FINAL                    000000000015500000000000000000000000000000000000000000000000000000000000000000000000000000000000000000000000000000000000PES00010000001 00000000000000000000000
201511210060000100000000000000022064000000000000000220649611111111111111111111CONS-FINAL                    000000000020000000000000000000000000000000000000000000000000000000000000000000000000000000000000000000000000000000000000PES00010000001 00000000000000000000000
201511210060000100000000000000022065000000000000000220659611111111111111111111CONS-FINAL                    000000000048000000000000000000000000000000000000000000000000000000000000000000000000000000000000000000000000000000000000PES00010000001 00000000000000000000000
201511210060000100000000000000022066000000000000000220669611111111111111111111CONS-FINAL                    000000000097500000000000000000000000000000000000000000000000000000000000000000000000000000000000000000000000000000000000PES00010000001 00000000000000000000000
201511210060000100000000000000022067000000000000000220679611111111111111111111CONS-FINAL                    000000000035000000000000000000000000000000000000000000000000000000000000000000000000000000000000000000000000000000000000PES00010000001 00000000000000000000000
201511210060000100000000000000022068000000000000000220689611111111111111111111CONS-FINAL                    000000000158500000000000000000000000000000000000000000000000000000000000000000000000000000000000000000000000000000000000PES00010000001 00000000000000000000000
201511210060000100000000000000022069000000000000000220699611111111111111111111CONS-FINAL                    000000000023500000000000000000000000000000000000000000000000000000000000000000000000000000000000000000000000000000000000PES00010000001 00000000000000000000000
201511210060000100000000000000022070000000000000000220709611111111111111111111CONS-FINAL                    000000000031300000000000000000000000000000000000000000000000000000000000000000000000000000000000000000000000000000000000PES00010000001 00000000000000000000000
201511210060000100000000000000022071000000000000000220719611111111111111111111CONS-FINAL                    000000000069500000000000000000000000000000000000000000000000000000000000000000000000000000000000000000000000000000000000PES00010000001 00000000000000000000000
201511210060000100000000000000022072000000000000000220729611111111111111111111CONS-FINAL                    000000000009500000000000000000000000000000000000000000000000000000000000000000000000000000000000000000000000000000000000PES00010000001 00000000000000000000000
201511210060000100000000000000022073000000000000000220739611111111111111111111CONS-FINAL                    000000000044500000000000000000000000000000000000000000000000000000000000000000000000000000000000000000000000000000000000PES00010000001 00000000000000000000000
201511210060000100000000000000022074000000000000000220749611111111111111111111CONS-FINAL                    000000000087000000000000000000000000000000000000000000000000000000000000000000000000000000000000000000000000000000000000PES00010000001 00000000000000000000000
201511210060000100000000000000022075000000000000000220759611111111111111111111CONS-FINAL                    000000000032000000000000000000000000000000000000000000000000000000000000000000000000000000000000000000000000000000000000PES00010000001 00000000000000000000000
201511210060000100000000000000022076000000000000000220769611111111111111111111CONS-FINAL                    000000000055500000000000000000000000000000000000000000000000000000000000000000000000000000000000000000000000000000000000PES00010000001 00000000000000000000000
201511210060000100000000000000022077000000000000000220779611111111111111111111CONS-FINAL                    000000000034500000000000000000000000000000000000000000000000000000000000000000000000000000000000000000000000000000000000PES00010000001 00000000000000000000000
201511210060000100000000000000022078000000000000000220789611111111111111111111CONS-FINAL                    000000000054000000000000000000000000000000000000000000000000000000000000000000000000000000000000000000000000000000000000PES00010000001 00000000000000000000000
201511210060000100000000000000022079000000000000000220799611111111111111111111CONS-FINAL                    000000000048500000000000000000000000000000000000000000000000000000000000000000000000000000000000000000000000000000000000PES00010000001 00000000000000000000000
201511210060000100000000000000022080000000000000000220809611111111111111111111CONS-FINAL                    000000000071500000000000000000000000000000000000000000000000000000000000000000000000000000000000000000000000000000000000PES00010000001 00000000000000000000000
201511210060000100000000000000022081000000000000000220819611111111111111111111CONS-FINAL                    000000000061500000000000000000000000000000000000000000000000000000000000000000000000000000000000000000000000000000000000PES00010000001 00000000000000000000000
201511210060000100000000000000022082000000000000000220829611111111111111111111CONS-FINAL                    000000000022500000000000000000000000000000000000000000000000000000000000000000000000000000000000000000000000000000000000PES00010000001 00000000000000000000000
201511210060000100000000000000022083000000000000000220839611111111111111111111CONS-FINAL                    000000000023500000000000000000000000000000000000000000000000000000000000000000000000000000000000000000000000000000000000PES00010000001 00000000000000000000000
201511210060000100000000000000022084000000000000000220849611111111111111111111CONS-FINAL                    000000000037500000000000000000000000000000000000000000000000000000000000000000000000000000000000000000000000000000000000PES00010000001 00000000000000000000000
201511210060000100000000000000022085000000000000000220859611111111111111111111CONS-FINAL                    000000000064000000000000000000000000000000000000000000000000000000000000000000000000000000000000000000000000000000000000PES00010000001 00000000000000000000000
201511210060000100000000000000022086000000000000000220869611111111111111111111CONS-FINAL                    000000000079500000000000000000000000000000000000000000000000000000000000000000000000000000000000000000000000000000000000PES00010000001 00000000000000000000000
201511210060000100000000000000022087000000000000000220879611111111111111111111CONS-FINAL                    000000000062000000000000000000000000000000000000000000000000000000000000000000000000000000000000000000000000000000000000PES00010000001 00000000000000000000000
201511210060000100000000000000022088000000000000000220889611111111111111111111CONS-FINAL                    000000000073300000000000000000000000000000000000000000000000000000000000000000000000000000000000000000000000000000000000PES00010000001 00000000000000000000000
201511210060000100000000000000022089000000000000000220899611111111111111111111CONS-FINAL                    000000000166000000000000000000000000000000000000000000000000000000000000000000000000000000000000000000000000000000000000PES00010000001 00000000000000000000000
201511230060000100000000000000022090000000000000000220909611111111111111111111CONS-FINAL                    000000000035000000000000000000000000000000000000000000000000000000000000000000000000000000000000000000000000000000000000PES00010000001 00000000000000000000000
201511230060000100000000000000022091000000000000000220919611111111111111111111CONS-FINAL                    000000000036400000000000000000000000000000000000000000000000000000000000000000000000000000000000000000000000000000000000PES00010000001 00000000000000000000000
201511230060000100000000000000022092000000000000000220929611111111111111111111CONS-FINAL                    000000000044800000000000000000000000000000000000000000000000000000000000000000000000000000000000000000000000000000000000PES00010000001 00000000000000000000000
201511230060000100000000000000022093000000000000000220939611111111111111111111CONS-FINAL                    000000000015000000000000000000000000000000000000000000000000000000000000000000000000000000000000000000000000000000000000PES00010000001 00000000000000000000000
201511230060000100000000000000022094000000000000000220949611111111111111111111CONS-FINAL                    000000000018000000000000000000000000000000000000000000000000000000000000000000000000000000000000000000000000000000000000PES00010000001 00000000000000000000000
201511230060000100000000000000022095000000000000000220959611111111111111111111CONS-FINAL                    000000000060500000000000000000000000000000000000000000000000000000000000000000000000000000000000000000000000000000000000PES00010000001 00000000000000000000000
201511230060000100000000000000022096000000000000000220969611111111111111111111CONS-FINAL                    000000000041500000000000000000000000000000000000000000000000000000000000000000000000000000000000000000000000000000000000PES00010000001 00000000000000000000000
201511230060000100000000000000022097000000000000000220979611111111111111111111CONS-FINAL                    000000000085000000000000000000000000000000000000000000000000000000000000000000000000000000000000000000000000000000000000PES00010000001 00000000000000000000000
201511230060000100000000000000022098000000000000000220989611111111111111111111CONS-FINAL                    000000000065500000000000000000000000000000000000000000000000000000000000000000000000000000000000000000000000000000000000PES00010000001 00000000000000000000000
201511230060000100000000000000022099000000000000000220999611111111111111111111CONS-FINAL                    000000000007800000000000000000000000000000000000000000000000000000000000000000000000000000000000000000000000000000000000PES00010000001 00000000000000000000000
201511230060000100000000000000022100000000000000000221009611111111111111111111CONS-FINAL                    000000000033000000000000000000000000000000000000000000000000000000000000000000000000000000000000000000000000000000000000PES00010000001 00000000000000000000000
201511230060000100000000000000022101000000000000000221019611111111111111111111CONS-FINAL                    000000000038500000000000000000000000000000000000000000000000000000000000000000000000000000000000000000000000000000000000PES00010000001 00000000000000000000000
201511230060000100000000000000022102000000000000000221029611111111111111111111CONS-FINAL                    000000000019000000000000000000000000000000000000000000000000000000000000000000000000000000000000000000000000000000000000PES00010000001 00000000000000000000000
201511230060000100000000000000022103000000000000000221039611111111111111111111CONS-FINAL                    000000000042500000000000000000000000000000000000000000000000000000000000000000000000000000000000000000000000000000000000PES00010000001 00000000000000000000000
201511230060000100000000000000022104000000000000000221049611111111111111111111CONS-FINAL                    000000000011000000000000000000000000000000000000000000000000000000000000000000000000000000000000000000000000000000000000PES00010000001 00000000000000000000000
201511230060000100000000000000022105000000000000000221059611111111111111111111CONS-FINAL                    000000000032000000000000000000000000000000000000000000000000000000000000000000000000000000000000000000000000000000000000PES00010000001 00000000000000000000000
201511240060000100000000000000022106000000000000000221069611111111111111111111CONS-FINAL                    000000000030000000000000000000000000000000000000000000000000000000000000000000000000000000000000000000000000000000000000PES00010000001 00000000000000000000000
201511240060000100000000000000022107000000000000000221079611111111111111111111CONS-FINAL                    000000000025500000000000000000000000000000000000000000000000000000000000000000000000000000000000000000000000000000000000PES00010000001 00000000000000000000000
201511240060000100000000000000022108000000000000000221089611111111111111111111CONS-FINAL                    000000000040000000000000000000000000000000000000000000000000000000000000000000000000000000000000000000000000000000000000PES00010000001 00000000000000000000000
201511240060000100000000000000022109000000000000000221099611111111111111111111CONS-FINAL                    000000000017500000000000000000000000000000000000000000000000000000000000000000000000000000000000000000000000000000000000PES00010000001 00000000000000000000000
201511240060000100000000000000022110000000000000000221109611111111111111111111CONS-FINAL                    000000000045000000000000000000000000000000000000000000000000000000000000000000000000000000000000000000000000000000000000PES00010000001 00000000000000000000000
201511240060000100000000000000022111000000000000000221119611111111111111111111CONS-FINAL                    000000000008500000000000000000000000000000000000000000000000000000000000000000000000000000000000000000000000000000000000PES00010000001 00000000000000000000000
201511250060000100000000000000022112000000000000000221129611111111111111111111CONS-FINAL                    000000000023000000000000000000000000000000000000000000000000000000000000000000000000000000000000000000000000000000000000PES00010000001 00000000000000000000000
201511250060000100000000000000022113000000000000000221139611111111111111111111CONS-FINAL                    000000000024000000000000000000000000000000000000000000000000000000000000000000000000000000000000000000000000000000000000PES00010000001 00000000000000000000000
201511250060000100000000000000022114000000000000000221149611111111111111111111CONS-FINAL                    000000000198000000000000000000000000000000000000000000000000000000000000000000000000000000000000000000000000000000000000PES00010000001 00000000000000000000000
201511250060000100000000000000022115000000000000000221159611111111111111111111CONS-FINAL                    000000000034500000000000000000000000000000000000000000000000000000000000000000000000000000000000000000000000000000000000PES00010000001 00000000000000000000000
201511250060000100000000000000022116000000000000000221169611111111111111111111CONS-FINAL                    000000000040000000000000000000000000000000000000000000000000000000000000000000000000000000000000000000000000000000000000PES00010000001 00000000000000000000000
201511250060000100000000000000022117000000000000000221179611111111111111111111CONS-FINAL                    000000000090300000000000000000000000000000000000000000000000000000000000000000000000000000000000000000000000000000000000PES00010000001 00000000000000000000000
201511250060000100000000000000022118000000000000000221189611111111111111111111CONS-FINAL                    000000000019300000000000000000000000000000000000000000000000000000000000000000000000000000000000000000000000000000000000PES00010000001 00000000000000000000000
201511250060000100000000000000022119000000000000000221199611111111111111111111CONS-FINAL                    000000000042500000000000000000000000000000000000000000000000000000000000000000000000000000000000000000000000000000000000PES00010000001 00000000000000000000000
201511250060000100000000000000022120000000000000000221209611111111111111111111CONS-FINAL                    000000000029800000000000000000000000000000000000000000000000000000000000000000000000000000000000000000000000000000000000PES00010000001 00000000000000000000000
201511260060000100000000000000022121000000000000000221219611111111111111111111CONS-FINAL                    000000000353100000000000000000000000000000000000000000000000000000000000000000000000000000000000000000000000000000000000PES00010000001 00000000000000000000000
201511260060000100000000000000022122000000000000000221229611111111111111111111CONS-FINAL                    000000000034500000000000000000000000000000000000000000000000000000000000000000000000000000000000000000000000000000000000PES00010000001 00000000000000000000000
201511260060000100000000000000022123000000000000000221239611111111111111111111CONS-FINAL                    000000000015300000000000000000000000000000000000000000000000000000000000000000000000000000000000000000000000000000000000PES00010000001 00000000000000000000000
201511260060000100000000000000022124000000000000000221249611111111111111111111CONS-FINAL                    000000000021400000000000000000000000000000000000000000000000000000000000000000000000000000000000000000000000000000000000PES00010000001 00000000000000000000000
201511260060000100000000000000022125000000000000000221259611111111111111111111CONS-FINAL                    000000000033500000000000000000000000000000000000000000000000000000000000000000000000000000000000000000000000000000000000PES00010000001 00000000000000000000000
201511260060000100000000000000022126000000000000000221269611111111111111111111CONS-FINAL                    000000000146500000000000000000000000000000000000000000000000000000000000000000000000000000000000000000000000000000000000PES00010000001 00000000000000000000000
201511260060000100000000000000022127000000000000000221279611111111111111111111CONS-FINAL                    000000000119500000000000000000000000000000000000000000000000000000000000000000000000000000000000000000000000000000000000PES00010000001 00000000000000000000000
201511260060000100000000000000022128000000000000000221289611111111111111111111CONS-FINAL                    000000000141800000000000000000000000000000000000000000000000000000000000000000000000000000000000000000000000000000000000PES00010000001 00000000000000000000000
201511260060000100000000000000022129000000000000000221299611111111111111111111CONS-FINAL                    000000000016500000000000000000000000000000000000000000000000000000000000000000000000000000000000000000000000000000000000PES00010000001 00000000000000000000000
201511260060000100000000000000022130000000000000000221309611111111111111111111CONS-FINAL                    000000000027000000000000000000000000000000000000000000000000000000000000000000000000000000000000000000000000000000000000PES00010000001 00000000000000000000000
201511260060000100000000000000022131000000000000000221319611111111111111111111CONS-FINAL                    000000000029500000000000000000000000000000000000000000000000000000000000000000000000000000000000000000000000000000000000PES00010000001 00000000000000000000000
201511260060000100000000000000022132000000000000000221329611111111111111111111CONS-FINAL                    000000000429500000000000000000000000000000000000000000000000000000000000000000000000000000000000000000000000000000000000PES00010000001 00000000000000000000000
201511260060000100000000000000022133000000000000000221339611111111111111111111CONS-FINAL                    000000000043000000000000000000000000000000000000000000000000000000000000000000000000000000000000000000000000000000000000PES00010000001 00000000000000000000000
201511260060000100000000000000022134000000000000000221349611111111111111111111CONS-FINAL                    000000000041500000000000000000000000000000000000000000000000000000000000000000000000000000000000000000000000000000000000PES00010000001 00000000000000000000000
201511260060000100000000000000022135000000000000000221359611111111111111111111CONS-FINAL                    000000000095500000000000000000000000000000000000000000000000000000000000000000000000000000000000000000000000000000000000PES00010000001 00000000000000000000000
201511260060000100000000000000022136000000000000000221369611111111111111111111CONS-FINAL                    000000000060500000000000000000000000000000000000000000000000000000000000000000000000000000000000000000000000000000000000PES00010000001 00000000000000000000000
201511260060000100000000000000022137000000000000000221379611111111111111111111CONS-FINAL                    000000000086100000000000000000000000000000000000000000000000000000000000000000000000000000000000000000000000000000000000PES00010000001 00000000000000000000000
201511280060000100000000000000022138000000000000000221389611111111111111111111CONS-FINAL                    000000000027500000000000000000000000000000000000000000000000000000000000000000000000000000000000000000000000000000000000PES00010000001 00000000000000000000000
201511280060000100000000000000022139000000000000000221399611111111111111111111CONS-FINAL                    000000000115000000000000000000000000000000000000000000000000000000000000000000000000000000000000000000000000000000000000PES00010000001 00000000000000000000000
201511280060000100000000000000022140000000000000000221409611111111111111111111CONS-FINAL                    000000000054800000000000000000000000000000000000000000000000000000000000000000000000000000000000000000000000000000000000PES00010000001 00000000000000000000000
201511280060000100000000000000022141000000000000000221419611111111111111111111CONS-FINAL                    000000000052000000000000000000000000000000000000000000000000000000000000000000000000000000000000000000000000000000000000PES00010000001 00000000000000000000000
201511280060000100000000000000022142000000000000000221429611111111111111111111CONS-FINAL                    000000000011500000000000000000000000000000000000000000000000000000000000000000000000000000000000000000000000000000000000PES00010000001 00000000000000000000000
201511280060000100000000000000022143000000000000000221439611111111111111111111CONS-FINAL                    000000000023500000000000000000000000000000000000000000000000000000000000000000000000000000000000000000000000000000000000PES00010000001 00000000000000000000000
201511280060000100000000000000022144000000000000000221449611111111111111111111CONS-FINAL                    000000000125000000000000000000000000000000000000000000000000000000000000000000000000000000000000000000000000000000000000PES00010000001 00000000000000000000000
201511280060000100000000000000022145000000000000000221459611111111111111111111CONS-FINAL                    000000000011000000000000000000000000000000000000000000000000000000000000000000000000000000000000000000000000000000000000PES00010000001 00000000000000000000000
201511280060000100000000000000022146000000000000000221469611111111111111111111CONS-FINAL                    000000000023000000000000000000000000000000000000000000000000000000000000000000000000000000000000000000000000000000000000PES00010000001 00000000000000000000000
201511280060000100000000000000022147000000000000000221479611111111111111111111CONS-FINAL                    000000000699000000000000000000000000000000000000000000000000000000000000000000000000000000000000000000000000000000000000PES00010000001 00000000000000000000000
201511280060000100000000000000022148000000000000000221489611111111111111111111CONS-FINAL                    000000000029500000000000000000000000000000000000000000000000000000000000000000000000000000000000000000000000000000000000PES00010000001 00000000000000000000000
201511280060000100000000000000022149000000000000000221499611111111111111111111CONS-FINAL                    000000000050000000000000000000000000000000000000000000000000000000000000000000000000000000000000000000000000000000000000PES00010000001 00000000000000000000000
201511280060000100000000000000022150000000000000000221509611111111111111111111CONS-FINAL                    000000000015000000000000000000000000000000000000000000000000000000000000000000000000000000000000000000000000000000000000PES00010000001 00000000000000000000000
201511280060000100000000000000022151000000000000000221519611111111111111111111CONS-FINAL                    000000000028500000000000000000000000000000000000000000000000000000000000000000000000000000000000000000000000000000000000PES00010000001 00000000000000000000000
201511280060000100000000000000022152000000000000000221529611111111111111111111CONS-FINAL                    000000000026000000000000000000000000000000000000000000000000000000000000000000000000000000000000000000000000000000000000PES00010000001 00000000000000000000000
201511280060000100000000000000022153000000000000000221539611111111111111111111CONS-FINAL                    000000000029500000000000000000000000000000000000000000000000000000000000000000000000000000000000000000000000000000000000PES00010000001 00000000000000000000000
201511280060000100000000000000022154000000000000000221549611111111111111111111CONS-FINAL                    000000000015000000000000000000000000000000000000000000000000000000000000000000000000000000000000000000000000000000000000PES00010000001 00000000000000000000000
201511280060000100000000000000022155000000000000000221559611111111111111111111CONS-FINAL                    000000000049200000000000000000000000000000000000000000000000000000000000000000000000000000000000000000000000000000000000PES00010000001 00000000000000000000000
201511280060000100000000000000022156000000000000000221569611111111111111111111CONS-FINAL                    000000000036200000000000000000000000000000000000000000000000000000000000000000000000000000000000000000000000000000000000PES00010000001 00000000000000000000000
201511280060000100000000000000022157000000000000000221579611111111111111111111CONS-FINAL                    000000000029000000000000000000000000000000000000000000000000000000000000000000000000000000000000000000000000000000000000PES00010000001 00000000000000000000000
201511280060000100000000000000022158000000000000000221589611111111111111111111CONS-FINAL                    000000000039000000000000000000000000000000000000000000000000000000000000000000000000000000000000000000000000000000000000PES00010000001 00000000000000000000000
201511280060000100000000000000022159000000000000000221599611111111111111111111CONS-FINAL                    000000000027500000000000000000000000000000000000000000000000000000000000000000000000000000000000000000000000000000000000PES00010000001 00000000000000000000000
201511280060000100000000000000022160000000000000000221609611111111111111111111CONS-FINAL                    000000000067500000000000000000000000000000000000000000000000000000000000000000000000000000000000000000000000000000000000PES00010000001 00000000000000000000000
201511280060000100000000000000022161000000000000000221619611111111111111111111CONS-FINAL                    000000000035000000000000000000000000000000000000000000000000000000000000000000000000000000000000000000000000000000000000PES00010000001 00000000000000000000000
201511280060000100000000000000022162000000000000000221629611111111111111111111CONS-FINAL                    000000000022500000000000000000000000000000000000000000000000000000000000000000000000000000000000000000000000000000000000PES00010000001 00000000000000000000000
201511300060000100000000000000022163000000000000000221639611111111111111111111CONS-FINAL                    000000000022500000000000000000000000000000000000000000000000000000000000000000000000000000000000000000000000000000000000PES00010000001 00000000000000000000000
201511300060000100000000000000022164000000000000000221649611111111111111111111CONS-FINAL                    000000000028600000000000000000000000000000000000000000000000000000000000000000000000000000000000000000000000000000000000PES00010000001 00000000000000000000000
201511300060000100000000000000022165000000000000000221659611111111111111111111CONS-FINAL                    000000000026000000000000000000000000000000000000000000000000000000000000000000000000000000000000000000000000000000000000PES00010000001 00000000000000000000000
201511300060000100000000000000022166000000000000000221669611111111111111111111CONS-FINAL                    000000000032000000000000000000000000000000000000000000000000000000000000000000000000000000000000000000000000000000000000PES00010000001 00000000000000000000000
201511300060000100000000000000022167000000000000000221679611111111111111111111CONS-FINAL                    000000000020500000000000000000000000000000000000000000000000000000000000000000000000000000000000000000000000000000000000PES00010000001 00000000000000000000000
201511300060000100000000000000022168000000000000000221689611111111111111111111CONS-FINAL                    000000000014700000000000000000000000000000000000000000000000000000000000000000000000000000000000000000000000000000000000PES00010000001 00000000000000000000000
201511300060000100000000000000022169000000000000000221699611111111111111111111CONS-FINAL                    000000000019800000000000000000000000000000000000000000000000000000000000000000000000000000000000000000000000000000000000PES00010000001 00000000000000000000000
201511300060000100000000000000022170000000000000000221709611111111111111111111CONS-FINAL                    000000000098500000000000000000000000000000000000000000000000000000000000000000000000000000000000000000000000000000000000PES00010000001 00000000000000000000000
201511300060000100000000000000022171000000000000000221719611111111111111111111CONS-FINAL                    000000000071200000000000000000000000000000000000000000000000000000000000000000000000000000000000000000000000000000000000PES00010000001 00000000000000000000000
201511300060000100000000000000022172000000000000000221729611111111111111111111CONS-FINAL                    000000000013000000000000000000000000000000000000000000000000000000000000000000000000000000000000000000000000000000000000PES00010000001 00000000000000000000000
201511300060000100000000000000022173000000000000000221739611111111111111111111CONS-FINAL                    000000000039900000000000000000000000000000000000000000000000000000000000000000000000000000000000000000000000000000000000PES00010000001 00000000000000000000000
201511300060000100000000000000022174000000000000000221749611111111111111111111CONS-FINAL                    000000000035000000000000000000000000000000000000000000000000000000000000000000000000000000000000000000000000000000000000PES00010000001 00000000000000000000000
201511300060000100000000000000022175000000000000000221759611111111111111111111CONS-FINAL                    000000000031500000000000000000000000000000000000000000000000000000000000000000000000000000000000000000000000000000000000PES00010000001 00000000000000000000000
201511300060000100000000000000022176000000000000000221769611111111111111111111CONS-FINAL                    000000000025500000000000000000000000000000000000000000000000000000000000000000000000000000000000000000000000000000000000PES00010000001 00000000000000000000000
201511300060000100000000000000022177000000000000000221779611111111111111111111CONS-FINAL                    000000000067500000000000000000000000000000000000000000000000000000000000000000000000000000000000000000000000000000000000PES00010000001 00000000000000000000000
201511300060000100000000000000022178000000000000000221789611111111111111111111CONS-FINAL                    000000000029500000000000000000000000000000000000000000000000000000000000000000000000000000000000000000000000000000000000PES00010000001 00000000000000000000000
201511300060000100000000000000022179000000000000000221799611111111111111111111CONS-FINAL                    000000000037000000000000000000000000000000000000000000000000000000000000000000000000000000000000000000000000000000000000PES00010000001 00000000000000000000000
201511040060000100000000000000000031000000000000000000319611111111111111111111CONS-FINAL                    000000000240000000000000000000000000000000000000000000000000000000000000000000000000000000000000000000000000000000000000PES00010000001 00000000000000000000000

