201602110010000400000000000000127020                8000000000030708926155TRANSPORTES-UNION-SA          000000000800472000000000000000000000000000000000000000000000000000000000000000000000000000000000000000000000000000000000PES00010000001000000000000000000000000000000000000000000                              000000000000000
201602110010000300000000000000000294                8000000000020222552134GUSTAVO-A-GARCIA              000000000450000000000000000000000000000000000000000000000000000000000000000000000000000000000000000000000000000000000000PES00010000001000000000000000000000000000000000000000000                              000000000000000
201602110010250600000000000000004037                8000000000030506730038SA-IMPORT-Y-EXPORT-DE-LA-PATAG000000000015189000000000000000000000000000000000000000000000000000000000000000000000000000000000000000000000000000000000PES00010000001000000000000000000000000000000000000000000                              000000000000000
201602110010000100000000000020160113                8000000000030639453975TELEFONICA-DE-ARG-SA          000000000096046000000000000000000000000000000000000000000000000000000000000000000000000000000000000000000000000000000000PES00010000001000000000000000000000000000000000000000000                              000000000000000
201602110010002100000000000000009286                8000000000030707454640EL-ESTANCO-SA                 000000000016000000000000000000000000000000000000000000000000000000000000000000000000000000000000000000000000000000000000PES00010000001000000000000000000000000000000000000000000                              000000000000000
201602110010000300000000000000000379                8000000000033710589149MARWALL-SA                    000000000736164000000000000000000000000000000000000000000000000000000000000000000000000000000000000000000000000000000000PES00010000001000000000000000000000000000000000000000000                              000000000000000
201602110010001200000000000000003937                8000000000030708094931ARIFERNIC-INVARG-SRL          000000000240360000000000000000000000000000000000000000000000000000000000000000000000000000000000000000000000000000000000PES00010000001000000000000000000000000000000000000000000                              000000000000000
201602110010001200000000000000003937                8000000000030708094931ARIFERNIC-INVARG-SRL          000000002151800000000000000000000000000000000000000000000000000000000000000000000000000000000000000000000000000000000000PES00010000001000000000000000000000000000000000000000000                              000000000000000
201602110010000400000000000000000028                8000000000030708268468ZAIRE-REGALOS-SRL             000000001422316000000000000000000000000000000000000000000000000000000000000000000000000000000000000000000000000000000000PES00010000001000000000000000000000000000000000000000000                              000000000000000
201602110010000400000000000000000287                8000000000030708268468ZAIRE-REGALOS-SRL             000000000116995000000000000000000000000000000000000000000000000000000000000000000000000000000000000000000000000000000000PES00010000001000000000000000000000000000000000000000000                              000000000000000
201602120010000100000000000000009518                8000000000030709545325GRUPO-MARINHO-SRL             000000000576492000000000000000000000000000000000000000000000000000000000000000000000000000000000000000000000000000000000PES00010000001000000000000000000000000000000000000000000                              000000000000000
201602120010000100000000000000004768                8000000000030709387584CONCEPTOMAREA-DE-GAMARRA-SRL  000000001006236000000000000000000000000000000000000000000000000000000000000000000000000000000000000000000000000000000000PES00010000001000000000000000000000000000000000000000000                              000000000000000
201602120010000300000000000000003000                8000000000030711190895AUSTRAL-ALARMAS-SRL           000000000036300000000000000000000000000000000000000000000000000000000000000000000000000000000000000000000000000000000000PES00010000001000000000000000000000000000000000000000000                              000000000000000
201602160010000300000000000000006667                8000000000030710941854RUMAH-JAVA-SRL                000000001246300000000000000000000000000000000000000000000000000000000000000000000000000000000000000000000000000000000000PES00010000001000000000000000000000000000000000000000000                              000000000000000
201602170010000400000000000000127543                8000000000030708926155TRANSPORTES-UNION-SA          000000000181744000000000000000000000000000000000000000000000000000000000000000000000000000000000000000000000000000000000PES00010000001000000000000000000000000000000000000000000                              000000000000000
201602190010000100000000000000000016                8000000000030714670618CONDOMINIO-DE-BERSAIS-CESAR-L 000000002662000000000000000000000000000000000000000000000000000000000000000000000000000000000000000000000000000000000000PES00010000001000000000000000000000000000000000000000000                              000000000000000
201602200010002400000000000000001979                8000000000030670288613DISTRIBUIDORA-LOA-SA          000000000092214000000000000000000000000000000000000000000000000000000000000000000000000000000000000000000000000000000000PES00010000001000000000000000000000000000000000000000000                              000000000000000
201602200010002100000000000000009451                8000000000030707454640EL-ESTANCO-SA                 000000000023900000000000000000000000000000000000000000000000000000000000000000000000000000000000000000000000000000000000PES00010000001000000000000000000000000000000000000000000                              000000000000000
201602270010000300000000000000001191                8000000000020110064668NESTOR-JUAN-WILLUBER          000000000125499000000000000000000000000000000000000000000000000000000000000000000000000000000000000000000000000000000000PES00010000001000000000000000000000000000000000000000000                              000000000000000
201602170010001600000000000000101885                8000000000030599869138LP-SRL                        000000001767021000000000000000000000000000000000000000000000000000000000000000000000000000000000000000000000000000000000PES00010000001000000000000000000000000000000000000000000                              000000000000000
201602290010000400000000000000127715                8000000000030708926155TRANSPORTES-UNION-SA          000000000243407000000000000000000000000000000000000000000000000000000000000000000000000000000000000000000000000000000000PES00010000001000000000000000000000000000000000000000000                              000000000000000
201602230010000200000000000000000001                8000000000027300361469PAULA-AGUSTINA-INGLESE        000000001408052000000000000000000000000000000000000000000000000000000000000000000000000000000000000000000000000000000000PES00010000001000000000000000000000000000000000000000000                              000000000000000
