201505020060000100000000000000019173000000000000000191739611111111111111111111CONSUMIDOR-FINAL              000000000030000000000000000000000000000000000000000000000000000000000000000000000000000000000000000000000000000000000000PES00010000001 00000000000000000000000
201505020060000100000000000000019174000000000000000191749611111111111111111111CONSUMIDOR-FINAL              000000000037500000000000000000000000000000000000000000000000000000000000000000000000000000000000000000000000000000000000PES00010000001 00000000000000000000000
201505020060000100000000000000019175000000000000000191759611111111111111111111CONSUMIDOR-FINAL              000000000062500000000000000000000000000000000000000000000000000000000000000000000000000000000000000000000000000000000000PES00010000001 00000000000000000000000
201505020060000100000000000000019176000000000000000191769611111111111111111111CONSUMIDOR-FINAL              000000000015500000000000000000000000000000000000000000000000000000000000000000000000000000000000000000000000000000000000PES00010000001 00000000000000000000000
201505020060000100000000000000019177000000000000000191779611111111111111111111CONSUMIDOR-FINAL              000000000060800000000000000000000000000000000000000000000000000000000000000000000000000000000000000000000000000000000000PES00010000001 00000000000000000000000
201505020060000100000000000000019178000000000000000191789611111111111111111111CONSUMIDOR-FINAL              000000000022600000000000000000000000000000000000000000000000000000000000000000000000000000000000000000000000000000000000PES00010000001 00000000000000000000000
201505020060000100000000000000019179000000000000000191799611111111111111111111CONSUMIDOR-FINAL              000000000096100000000000000000000000000000000000000000000000000000000000000000000000000000000000000000000000000000000000PES00010000001 00000000000000000000000
201505020060000100000000000000019180000000000000000191809611111111111111111111CONSUMIDOR-FINAL              000000000005300000000000000000000000000000000000000000000000000000000000000000000000000000000000000000000000000000000000PES00010000001 00000000000000000000000
201505020060000100000000000000019181000000000000000191819611111111111111111111CONSUMIDOR-FINAL              000000000068000000000000000000000000000000000000000000000000000000000000000000000000000000000000000000000000000000000000PES00010000001 00000000000000000000000
201505020060000100000000000000019182000000000000000191829611111111111111111111CONSUMIDOR-FINAL              000000000129000000000000000000000000000000000000000000000000000000000000000000000000000000000000000000000000000000000000PES00010000001 00000000000000000000000
201505020060000100000000000000019183000000000000000191839611111111111111111111CONSUMIDOR-FINAL              000000000075000000000000000000000000000000000000000000000000000000000000000000000000000000000000000000000000000000000000PES00010000001 00000000000000000000000
201505020060000100000000000000019184000000000000000191849611111111111111111111CONSUMIDOR-FINAL              000000000065000000000000000000000000000000000000000000000000000000000000000000000000000000000000000000000000000000000000PES00010000001 00000000000000000000000
201505020060000100000000000000019185000000000000000191859611111111111111111111CONSUMIDOR-FINAL              000000000025000000000000000000000000000000000000000000000000000000000000000000000000000000000000000000000000000000000000PES00010000001 00000000000000000000000
201505020060000100000000000000019186000000000000000191869611111111111111111111CONSUMIDOR-FINAL              000000000084500000000000000000000000000000000000000000000000000000000000000000000000000000000000000000000000000000000000PES00010000001 00000000000000000000000
201505020060000100000000000000019187000000000000000191879611111111111111111111CONSUMIDOR-FINAL              000000000047500000000000000000000000000000000000000000000000000000000000000000000000000000000000000000000000000000000000PES00010000001 00000000000000000000000
201505020060000100000000000000019188000000000000000191889611111111111111111111CONSUMIDOR-FINAL              000000000176500000000000000000000000000000000000000000000000000000000000000000000000000000000000000000000000000000000000PES00010000001 00000000000000000000000
201505020060000100000000000000019189000000000000000191899611111111111111111111CONSUMIDOR-FINAL              000000000056500000000000000000000000000000000000000000000000000000000000000000000000000000000000000000000000000000000000PES00010000001 00000000000000000000000
201505020060000100000000000000019190000000000000000191909611111111111111111111CONSUMIDOR-FINAL              000000000087000000000000000000000000000000000000000000000000000000000000000000000000000000000000000000000000000000000000PES00010000001 00000000000000000000000
201505020060000100000000000000019191000000000000000191919611111111111111111111CONSUMIDOR-FINAL              000000000174500000000000000000000000000000000000000000000000000000000000000000000000000000000000000000000000000000000000PES00010000001 00000000000000000000000
201505020060000100000000000000019192000000000000000191929611111111111111111111CONSUMIDOR-FINAL              000000000020500000000000000000000000000000000000000000000000000000000000000000000000000000000000000000000000000000000000PES00010000001 00000000000000000000000
201505020060000100000000000000019193000000000000000191939611111111111111111111CONSUMIDOR-FINAL              000000000119500000000000000000000000000000000000000000000000000000000000000000000000000000000000000000000000000000000000PES00010000001 00000000000000000000000
201505020060000100000000000000019194000000000000000191949611111111111111111111CONSUMIDOR-FINAL              000000000052000000000000000000000000000000000000000000000000000000000000000000000000000000000000000000000000000000000000PES00010000001 00000000000000000000000
201505020060000100000000000000019195000000000000000191959611111111111111111111CONSUMIDOR-FINAL              000000000058500000000000000000000000000000000000000000000000000000000000000000000000000000000000000000000000000000000000PES00010000001 00000000000000000000000
201505020060000100000000000000019196000000000000000191969611111111111111111111CONSUMIDOR-FINAL              000000000039100000000000000000000000000000000000000000000000000000000000000000000000000000000000000000000000000000000000PES00010000001 00000000000000000000000
201505020060000100000000000000019197000000000000000191979611111111111111111111CONSUMIDOR-FINAL              000000000043500000000000000000000000000000000000000000000000000000000000000000000000000000000000000000000000000000000000PES00010000001 00000000000000000000000
201505020060000100000000000000019198000000000000000191989611111111111111111111CONSUMIDOR-FINAL              000000000139700000000000000000000000000000000000000000000000000000000000000000000000000000000000000000000000000000000000PES00010000001 00000000000000000000000
201505020060000100000000000000019199000000000000000191999611111111111111111111CONSUMIDOR-FINAL              000000000070000000000000000000000000000000000000000000000000000000000000000000000000000000000000000000000000000000000000PES00010000001 00000000000000000000000
201505020060000100000000000000019200000000000000000192009611111111111111111111CONSUMIDOR-FINAL              000000000039500000000000000000000000000000000000000000000000000000000000000000000000000000000000000000000000000000000000PES00010000001 00000000000000000000000
201505020060000100000000000000019201000000000000000192019611111111111111111111CONSUMIDOR-FINAL              000000000029000000000000000000000000000000000000000000000000000000000000000000000000000000000000000000000000000000000000PES00010000001 00000000000000000000000
201505020060000100000000000000019202000000000000000192029611111111111111111111CONSUMIDOR-FINAL              000000000017500000000000000000000000000000000000000000000000000000000000000000000000000000000000000000000000000000000000PES00010000001 00000000000000000000000
201505020060000100000000000000019203000000000000000192039611111111111111111111CONSUMIDOR-FINAL              000000000063800000000000000000000000000000000000000000000000000000000000000000000000000000000000000000000000000000000000PES00010000001 00000000000000000000000
201505020060000100000000000000019204000000000000000192049611111111111111111111CONSUMIDOR-FINAL              000000000033000000000000000000000000000000000000000000000000000000000000000000000000000000000000000000000000000000000000PES00010000001 00000000000000000000000
201505020060000100000000000000019205000000000000000192059611111111111111111111CONSUMIDOR-FINAL              000000000017500000000000000000000000000000000000000000000000000000000000000000000000000000000000000000000000000000000000PES00010000001 00000000000000000000000
201505020060000100000000000000019206000000000000000192069611111111111111111111CONSUMIDOR-FINAL              000000000044000000000000000000000000000000000000000000000000000000000000000000000000000000000000000000000000000000000000PES00010000001 00000000000000000000000
201505020060000100000000000000019207000000000000000192079611111111111111111111CONSUMIDOR-FINAL              000000000040800000000000000000000000000000000000000000000000000000000000000000000000000000000000000000000000000000000000PES00010000001 00000000000000000000000
201505020060000100000000000000019208000000000000000192089611111111111111111111CONSUMIDOR-FINAL              000000000204800000000000000000000000000000000000000000000000000000000000000000000000000000000000000000000000000000000000PES00010000001 00000000000000000000000
201505020060000100000000000000019209000000000000000192099611111111111111111111CONSUMIDOR-FINAL              000000000026000000000000000000000000000000000000000000000000000000000000000000000000000000000000000000000000000000000000PES00010000001 00000000000000000000000
201505020060000100000000000000019210000000000000000192109611111111111111111111CONSUMIDOR-FINAL              000000000072500000000000000000000000000000000000000000000000000000000000000000000000000000000000000000000000000000000000PES00010000001 00000000000000000000000
201505020060000100000000000000019211000000000000000192119611111111111111111111CONSUMIDOR-FINAL              000000000018500000000000000000000000000000000000000000000000000000000000000000000000000000000000000000000000000000000000PES00010000001 00000000000000000000000
201505020010000100000000000000000937000000000000000009378000000000030710575548VETERINARIA-ROCA-SRL          000000000404000000000000000000000000000000000000000000000000000000000000000000000000000000000000000000000000000000000000PES00010000001 00000000000000000000000
201505020060000100000000000000019212000000000000000192129611111111111111111111CONSUMIDOR-FINAL              000000000060900000000000000000000000000000000000000000000000000000000000000000000000000000000000000000000000000000000000PES00010000001 00000000000000000000000
201505020060000100000000000000019213000000000000000192139611111111111111111111CONSUMIDOR-FINAL              000000000037500000000000000000000000000000000000000000000000000000000000000000000000000000000000000000000000000000000000PES00010000001 00000000000000000000000
201505040060000100000000000000019214000000000000000192149611111111111111111111CONSUMIDOR-FINAL              000000000132500000000000000000000000000000000000000000000000000000000000000000000000000000000000000000000000000000000000PES00010000001 00000000000000000000000
201505040060000100000000000000019215000000000000000192159611111111111111111111CONSUMIDOR-FINAL              000000000049500000000000000000000000000000000000000000000000000000000000000000000000000000000000000000000000000000000000PES00010000001 00000000000000000000000
201505040060000100000000000000019216000000000000000192169611111111111111111111CONSUMIDOR-FINAL              000000000037500000000000000000000000000000000000000000000000000000000000000000000000000000000000000000000000000000000000PES00010000001 00000000000000000000000
201505040060000100000000000000019217000000000000000192179611111111111111111111CONSUMIDOR-FINAL              000000000017000000000000000000000000000000000000000000000000000000000000000000000000000000000000000000000000000000000000PES00010000001 00000000000000000000000
201505040060000100000000000000019218000000000000000192189611111111111111111111CONSUMIDOR-FINAL              000000000063500000000000000000000000000000000000000000000000000000000000000000000000000000000000000000000000000000000000PES00010000001 00000000000000000000000
201505040060000100000000000000019219000000000000000192199611111111111111111111CONSUMIDOR-FINAL              000000000025000000000000000000000000000000000000000000000000000000000000000000000000000000000000000000000000000000000000PES00010000001 00000000000000000000000
201505040060000100000000000000019220000000000000000192209611111111111111111111CONSUMIDOR-FINAL              000000000042000000000000000000000000000000000000000000000000000000000000000000000000000000000000000000000000000000000000PES00010000001 00000000000000000000000
201505040060000100000000000000019221000000000000000192219611111111111111111111CONSUMIDOR-FINAL              000000000120500000000000000000000000000000000000000000000000000000000000000000000000000000000000000000000000000000000000PES00010000001 00000000000000000000000
201505040010000100000000000000000938000000000000000009388000000000020171295425JORGE-SAAVEDRA                000000000126000000000000000000000000000000000000000000000000000000000000000000000000000000000000000000000000000000000000PES00010000001 00000000000000000000000
201505040060000100000000000000019222000000000000000192229611111111111111111111CONSUMIDOR-FINAL              000000000037500000000000000000000000000000000000000000000000000000000000000000000000000000000000000000000000000000000000PES00010000001 00000000000000000000000
201505040060000100000000000000019223000000000000000192239611111111111111111111CONSUMIDOR-FINAL              000000000019500000000000000000000000000000000000000000000000000000000000000000000000000000000000000000000000000000000000PES00010000001 00000000000000000000000
201505040060000100000000000000019224000000000000000192249611111111111111111111CONSUMIDOR-FINAL              000000000080400000000000000000000000000000000000000000000000000000000000000000000000000000000000000000000000000000000000PES00010000001 00000000000000000000000
201505050060000100000000000000019225000000000000000192259611111111111111111111CONSUMIDOR-FINAL              000000000128500000000000000000000000000000000000000000000000000000000000000000000000000000000000000000000000000000000000PES00010000001 00000000000000000000000
201505050060000100000000000000019226000000000000000192269611111111111111111111CONSUMIDOR-FINAL              000000000037300000000000000000000000000000000000000000000000000000000000000000000000000000000000000000000000000000000000PES00010000001 00000000000000000000000
201505050060000100000000000000019227000000000000000192279611111111111111111111CONSUMIDOR-FINAL              000000000029500000000000000000000000000000000000000000000000000000000000000000000000000000000000000000000000000000000000PES00010000001 00000000000000000000000
201505050060000100000000000000019228000000000000000192289611111111111111111111CONSUMIDOR-FINAL              000000000091500000000000000000000000000000000000000000000000000000000000000000000000000000000000000000000000000000000000PES00010000001 00000000000000000000000
201505050060000100000000000000019229000000000000000192299611111111111111111111CONSUMIDOR-FINAL              000000000016000000000000000000000000000000000000000000000000000000000000000000000000000000000000000000000000000000000000PES00010000001 00000000000000000000000
201505050060000100000000000000019230000000000000000192309611111111111111111111CONSUMIDOR-FINAL              000000000012000000000000000000000000000000000000000000000000000000000000000000000000000000000000000000000000000000000000PES00010000001 00000000000000000000000
201505050060000100000000000000019231000000000000000192319611111111111111111111CONSUMIDOR-FINAL              000000000104500000000000000000000000000000000000000000000000000000000000000000000000000000000000000000000000000000000000PES00010000001 00000000000000000000000
201505050060000100000000000000019232000000000000000192329611111111111111111111CONSUMIDOR-FINAL              000000000115000000000000000000000000000000000000000000000000000000000000000000000000000000000000000000000000000000000000PES00010000001 00000000000000000000000
201505050060000100000000000000019233000000000000000192339611111111111111111111CONSUMIDOR-FINAL              000000000016300000000000000000000000000000000000000000000000000000000000000000000000000000000000000000000000000000000000PES00010000001 00000000000000000000000
201505060060000100000000000000019234000000000000000192349611111111111111111111CONSUMIDOR-FINAL              000000000028500000000000000000000000000000000000000000000000000000000000000000000000000000000000000000000000000000000000PES00010000001 00000000000000000000000
201505060060000100000000000000019235000000000000000192359611111111111111111111CONSUMIDOR-FINAL              000000000047000000000000000000000000000000000000000000000000000000000000000000000000000000000000000000000000000000000000PES00010000001 00000000000000000000000
201505060060000100000000000000019236000000000000000192369611111111111111111111CONSUMIDOR-FINAL              000000000127900000000000000000000000000000000000000000000000000000000000000000000000000000000000000000000000000000000000PES00010000001 00000000000000000000000
201505060060000100000000000000019237000000000000000192379611111111111111111111CONSUMIDOR-FINAL              000000000016500000000000000000000000000000000000000000000000000000000000000000000000000000000000000000000000000000000000PES00010000001 00000000000000000000000
201505060060000100000000000000019238000000000000000192389611111111111111111111CONSUMIDOR-FINAL              000000000032500000000000000000000000000000000000000000000000000000000000000000000000000000000000000000000000000000000000PES00010000001 00000000000000000000000
201505060060000100000000000000019239000000000000000192399611111111111111111111CONSUMIDOR-FINAL              000000000185000000000000000000000000000000000000000000000000000000000000000000000000000000000000000000000000000000000000PES00010000001 00000000000000000000000
201505060060000100000000000000013682000000000000000136828000000000030537724001INSTITUTO-ARG-DEL-PETROLEO-Y-E000000000153000000000000000000000000000000000000000000000000000000000000000000000000000000000000000000000000000000000000PES00010000001 00000000000000000000000
201505060060000100000000000000019240000000000000000192409611111111111111111111CONSUMIDOR-FINAL              000000000080300000000000000000000000000000000000000000000000000000000000000000000000000000000000000000000000000000000000PES00010000001 00000000000000000000000
201505060010000100000000000000000939000000000000000009398000000000020125688021-TERENZI-CARLOS-HORACIO       000000000707200000000000000000000000000000000000000000000000000000000000000000000000000000000000000000000000000000000000PES00010000001 00000000000000000000000
201505060010000100000000000000000940000000000000000009408000000000020125688021-TERENZI-CARLOS-HORACIO       000000000078000000000000000000000000000000000000000000000000000000000000000000000000000000000000000000000000000000000000PES00010000001 00000000000000000000000
201505060010000100000000000000000941000000000000000009418000000000030707311718-LERIN-RUBEN                  000000000062500000000000000000000000000000000000000000000000000000000000000000000000000000000000000000000000000000000000PES00010000001 00000000000000000000000
201505060010000100000000000000000942000000000000000009428000000000030707311718-LERIN-RUBEN                  000000000033000000000000000000000000000000000000000000000000000000000000000000000000000000000000000000000000000000000000PES00010000001 00000000000000000000000
201505070060000100000000000000019241000000000000000192419611111111111111111111CONSUMIDOR-FINAL              000000000017500000000000000000000000000000000000000000000000000000000000000000000000000000000000000000000000000000000000PES00010000001 00000000000000000000000
201505070060000100000000000000019242000000000000000192429611111111111111111111CONSUMIDOR-FINAL              000000000016500000000000000000000000000000000000000000000000000000000000000000000000000000000000000000000000000000000000PES00010000001 00000000000000000000000
201505070060000100000000000000019243000000000000000192439611111111111111111111CONSUMIDOR-FINAL              000000000080300000000000000000000000000000000000000000000000000000000000000000000000000000000000000000000000000000000000PES00010000001 00000000000000000000000
201505070010000100000000000000000943000000000000000009438000000000033708101899-MAXICON-SRL                  000000000201000000000000000000000000000000000000000000000000000000000000000000000000000000000000000000000000000000000000PES00010000001 00000000000000000000000
201505070060000100000000000000019244000000000000000192449611111111111111111111CONSUMIDOR-FINAL              000000000022500000000000000000000000000000000000000000000000000000000000000000000000000000000000000000000000000000000000PES00010000001 00000000000000000000000
201505070060000100000000000000019245000000000000000192459611111111111111111111CONSUMIDOR-FINAL              000000000085000000000000000000000000000000000000000000000000000000000000000000000000000000000000000000000000000000000000PES00010000001 00000000000000000000000
201505070060000100000000000000019246000000000000000192469611111111111111111111CONSUMIDOR-FINAL              000000000103500000000000000000000000000000000000000000000000000000000000000000000000000000000000000000000000000000000000PES00010000001 00000000000000000000000
201505070060000100000000000000019247000000000000000192479611111111111111111111CONSUMIDOR-FINAL              000000000008500000000000000000000000000000000000000000000000000000000000000000000000000000000000000000000000000000000000PES00010000001 00000000000000000000000
201505070060000100000000000000019248000000000000000192489611111111111111111111CONSUMIDOR-FINAL              000000000049700000000000000000000000000000000000000000000000000000000000000000000000000000000000000000000000000000000000PES00010000001 00000000000000000000000
201505080010000100000000000000000944000000000000000009448000000000030714557382SGA-SERVICIOS-SA              000000000540000000000000000000000000000000000000000000000000000000000000000000000000000000000000000000000000000000000000PES00010000001 00000000000000000000000
201505080010000100000000000000000945000000000000000009458000000000030714557382SGA-SERVICIOS-SA              000000000120000000000000000000000000000000000000000000000000000000000000000000000000000000000000000000000000000000000000PES00010000001 00000000000000000000000
201505080060000100000000000000019249000000000000000192499611111111111111111111CONSUMIDOR-FINAL              000000001218000000000000000000000000000000000000000000000000000000000000000000000000000000000000000000000000000000000000PES00010000001 00000000000000000000000
201505080060000100000000000000019250000000000000000192509611111111111111111111CONSUMIDOR-FINAL              000000000092000000000000000000000000000000000000000000000000000000000000000000000000000000000000000000000000000000000000PES00010000001 00000000000000000000000
201505080060000100000000000000019251000000000000000192519611111111111111111111CONSUMIDOR-FINAL              000000000049000000000000000000000000000000000000000000000000000000000000000000000000000000000000000000000000000000000000PES00010000001 00000000000000000000000
201505080060000100000000000000019252000000000000000192529611111111111111111111CONSUMIDOR-FINAL              000000000298000000000000000000000000000000000000000000000000000000000000000000000000000000000000000000000000000000000000PES00010000001 00000000000000000000000
201505080060000100000000000000000026000000000000000000269611111111111111111111CONSUMIDOR-FINAL              000000000298000000000000000000000000000000000000000000000000000000000000000000000000000000000000000000000000000000000000PES00010000001 00000000000000000000000
201505080060000100000000000000000027000000000000000000279611111111111111111111CONSUMIDOR-FINAL              000000000920000000000000000000000000000000000000000000000000000000000000000000000000000000000000000000000000000000000000PES00010000001 00000000000000000000000
201505080060000100000000000000019253000000000000000192539611111111111111111111CONSUMIDOR-FINAL              000000000022500000000000000000000000000000000000000000000000000000000000000000000000000000000000000000000000000000000000PES00010000001 00000000000000000000000
201505080060000100000000000000019254000000000000000192549611111111111111111111CONSUMIDOR-FINAL              000000000098000000000000000000000000000000000000000000000000000000000000000000000000000000000000000000000000000000000000PES00010000001 00000000000000000000000
201505080060000100000000000000019255000000000000000192559611111111111111111111CONSUMIDOR-FINAL              000000000035500000000000000000000000000000000000000000000000000000000000000000000000000000000000000000000000000000000000PES00010000001 00000000000000000000000
201505080060000100000000000000019256000000000000000192569611111111111111111111CONSUMIDOR-FINAL              000000000195000000000000000000000000000000000000000000000000000000000000000000000000000000000000000000000000000000000000PES00010000001 00000000000000000000000
201505080060000100000000000000019257000000000000000192579611111111111111111111CONSUMIDOR-FINAL              000000000045500000000000000000000000000000000000000000000000000000000000000000000000000000000000000000000000000000000000PES00010000001 00000000000000000000000
201505080060000100000000000000019258000000000000000192589611111111111111111111CONSUMIDOR-FINAL              000000000023800000000000000000000000000000000000000000000000000000000000000000000000000000000000000000000000000000000000PES00010000001 00000000000000000000000
201505080060000100000000000000019259000000000000000192599611111111111111111111CONSUMIDOR-FINAL              000000000019500000000000000000000000000000000000000000000000000000000000000000000000000000000000000000000000000000000000PES00010000001 00000000000000000000000
201505080060000100000000000000019260000000000000000192609611111111111111111111CONSUMIDOR-FINAL              000000000025000000000000000000000000000000000000000000000000000000000000000000000000000000000000000000000000000000000000PES00010000001 00000000000000000000000
201505080060000100000000000000019261000000000000000192619611111111111111111111CONSUMIDOR-FINAL              000000000014500000000000000000000000000000000000000000000000000000000000000000000000000000000000000000000000000000000000PES00010000001 00000000000000000000000
201505090060000100000000000000019262000000000000000192629611111111111111111111CONSUMIDOR-FINAL              000000000104500000000000000000000000000000000000000000000000000000000000000000000000000000000000000000000000000000000000PES00010000001 00000000000000000000000
201505090060000100000000000000019263000000000000000192639611111111111111111111CONSUMIDOR-FINAL              000000000012500000000000000000000000000000000000000000000000000000000000000000000000000000000000000000000000000000000000PES00010000001 00000000000000000000000
201505090060000100000000000000019264000000000000000192649611111111111111111111CONSUMIDOR-FINAL              000000000040000000000000000000000000000000000000000000000000000000000000000000000000000000000000000000000000000000000000PES00010000001 00000000000000000000000
201505090060000100000000000000019265000000000000000192659611111111111111111111CONSUMIDOR-FINAL              000000000022500000000000000000000000000000000000000000000000000000000000000000000000000000000000000000000000000000000000PES00010000001 00000000000000000000000
201505090060000100000000000000019266000000000000000192669611111111111111111111CONSUMIDOR-FINAL              000000000015000000000000000000000000000000000000000000000000000000000000000000000000000000000000000000000000000000000000PES00010000001 00000000000000000000000
201505090060000100000000000000019267000000000000000192679611111111111111111111CONSUMIDOR-FINAL              000000000059100000000000000000000000000000000000000000000000000000000000000000000000000000000000000000000000000000000000PES00010000001 00000000000000000000000
201505090060000100000000000000019268000000000000000192689611111111111111111111CONSUMIDOR-FINAL              000000000073500000000000000000000000000000000000000000000000000000000000000000000000000000000000000000000000000000000000PES00010000001 00000000000000000000000
201505090060000100000000000000019269000000000000000192699611111111111111111111CONSUMIDOR-FINAL              000000000023500000000000000000000000000000000000000000000000000000000000000000000000000000000000000000000000000000000000PES00010000001 00000000000000000000000
201505090060000100000000000000019270000000000000000192709611111111111111111111CONSUMIDOR-FINAL              000000000051000000000000000000000000000000000000000000000000000000000000000000000000000000000000000000000000000000000000PES00010000001 00000000000000000000000
201505090060000100000000000000019271000000000000000192719611111111111111111111CONSUMIDOR-FINAL              000000000007000000000000000000000000000000000000000000000000000000000000000000000000000000000000000000000000000000000000PES00010000001 00000000000000000000000
201505090060000100000000000000019272000000000000000192729611111111111111111111CONSUMIDOR-FINAL              000000000110500000000000000000000000000000000000000000000000000000000000000000000000000000000000000000000000000000000000PES00010000001 00000000000000000000000
201505090060000100000000000000019273000000000000000192739611111111111111111111CONSUMIDOR-FINAL              000000000079000000000000000000000000000000000000000000000000000000000000000000000000000000000000000000000000000000000000PES00010000001 00000000000000000000000
201505090060000100000000000000019274000000000000000192749611111111111111111111CONSUMIDOR-FINAL              000000000062500000000000000000000000000000000000000000000000000000000000000000000000000000000000000000000000000000000000PES00010000001 00000000000000000000000
201505090060000100000000000000019275000000000000000192759611111111111111111111CONSUMIDOR-FINAL              000000000072500000000000000000000000000000000000000000000000000000000000000000000000000000000000000000000000000000000000PES00010000001 00000000000000000000000
201505090060000100000000000000019276000000000000000192769611111111111111111111CONSUMIDOR-FINAL              000000000022000000000000000000000000000000000000000000000000000000000000000000000000000000000000000000000000000000000000PES00010000001 00000000000000000000000
201505090060000100000000000000019277000000000000000192779611111111111111111111CONSUMIDOR-FINAL              000000000142500000000000000000000000000000000000000000000000000000000000000000000000000000000000000000000000000000000000PES00010000001 00000000000000000000000
201505090060000100000000000000019278000000000000000192789611111111111111111111CONSUMIDOR-FINAL              000000000063000000000000000000000000000000000000000000000000000000000000000000000000000000000000000000000000000000000000PES00010000001 00000000000000000000000
201505090060000100000000000000019279000000000000000192799611111111111111111111CONSUMIDOR-FINAL              000000000057000000000000000000000000000000000000000000000000000000000000000000000000000000000000000000000000000000000000PES00010000001 00000000000000000000000
201505090010000100000000000000000946000000000000000009468000000000020142820332-GUERREIRO-SERGIO             000000000047000000000000000000000000000000000000000000000000000000000000000000000000000000000000000000000000000000000000PES00010000001 00000000000000000000000
201505090060000100000000000000019280000000000000000192809611111111111111111111CONSUMIDOR-FINAL              000000000024300000000000000000000000000000000000000000000000000000000000000000000000000000000000000000000000000000000000PES00010000001 00000000000000000000000
201505090060000100000000000000019281000000000000000192819611111111111111111111CONSUMIDOR-FINAL              000000000036300000000000000000000000000000000000000000000000000000000000000000000000000000000000000000000000000000000000PES00010000001 00000000000000000000000
201505090060000100000000000000019282000000000000000192829611111111111111111111CONSUMIDOR-FINAL              000000000028500000000000000000000000000000000000000000000000000000000000000000000000000000000000000000000000000000000000PES00010000001 00000000000000000000000
201505090060000100000000000000019283000000000000000192839611111111111111111111CONSUMIDOR-FINAL              000000000062000000000000000000000000000000000000000000000000000000000000000000000000000000000000000000000000000000000000PES00010000001 00000000000000000000000
201505090060000100000000000000019284000000000000000192849611111111111111111111CONSUMIDOR-FINAL              000000000036200000000000000000000000000000000000000000000000000000000000000000000000000000000000000000000000000000000000PES00010000001 00000000000000000000000
201505090060000100000000000000019285000000000000000192859611111111111111111111CONSUMIDOR-FINAL              000000000018000000000000000000000000000000000000000000000000000000000000000000000000000000000000000000000000000000000000PES00010000001 00000000000000000000000
201505090060000100000000000000019286000000000000000192869611111111111111111111CONSUMIDOR-FINAL              000000000029000000000000000000000000000000000000000000000000000000000000000000000000000000000000000000000000000000000000PES00010000001 00000000000000000000000
201505110060000100000000000000019287000000000000000192879611111111111111111111CONSUMIDOR-FINAL              000000000069000000000000000000000000000000000000000000000000000000000000000000000000000000000000000000000000000000000000PES00010000001 00000000000000000000000
201505110060000100000000000000019288000000000000000192889611111111111111111111CONSUMIDOR-FINAL              000000000038300000000000000000000000000000000000000000000000000000000000000000000000000000000000000000000000000000000000PES00010000001 00000000000000000000000
201505110060000100000000000000019289000000000000000192899611111111111111111111CONSUMIDOR-FINAL              000000000043500000000000000000000000000000000000000000000000000000000000000000000000000000000000000000000000000000000000PES00010000001 00000000000000000000000
201505110060000100000000000000019290000000000000000192909611111111111111111111CONSUMIDOR-FINAL              000000000130000000000000000000000000000000000000000000000000000000000000000000000000000000000000000000000000000000000000PES00010000001 00000000000000000000000
201505110010000100000000000000000947000000000000000009478000000000020266330767ROJAS-FERNANDO-OSCAR          000000000019000000000000000000000000000000000000000000000000000000000000000000000000000000000000000000000000000000000000PES00010000001 00000000000000000000000
201505110060000100000000000000019291000000000000000192919611111111111111111111CONSUMIDOR-FINAL              000000000061000000000000000000000000000000000000000000000000000000000000000000000000000000000000000000000000000000000000PES00010000001 00000000000000000000000
201505110060000100000000000000019292000000000000000192929611111111111111111111CONSUMIDOR-FINAL              000000000024000000000000000000000000000000000000000000000000000000000000000000000000000000000000000000000000000000000000PES00010000001 00000000000000000000000
201505110060000100000000000000019293000000000000000192939611111111111111111111CONSUMIDOR-FINAL              000000000225200000000000000000000000000000000000000000000000000000000000000000000000000000000000000000000000000000000000PES00010000001 00000000000000000000000
201505110060000100000000000000019294000000000000000192949611111111111111111111CONSUMIDOR-FINAL              000000000021500000000000000000000000000000000000000000000000000000000000000000000000000000000000000000000000000000000000PES00010000001 00000000000000000000000
201505110060000100000000000000019295000000000000000192959611111111111111111111CONSUMIDOR-FINAL              000000000036800000000000000000000000000000000000000000000000000000000000000000000000000000000000000000000000000000000000PES00010000001 00000000000000000000000
201505110060000100000000000000019296000000000000000192969611111111111111111111CONSUMIDOR-FINAL              000000000170000000000000000000000000000000000000000000000000000000000000000000000000000000000000000000000000000000000000PES00010000001 00000000000000000000000
201505110060000100000000000000019297000000000000000192979611111111111111111111CONSUMIDOR-FINAL              000000000030200000000000000000000000000000000000000000000000000000000000000000000000000000000000000000000000000000000000PES00010000001 00000000000000000000000
201505120060000100000000000000019298000000000000000192989611111111111111111111CONSUMIDOR-FINAL              000000000019000000000000000000000000000000000000000000000000000000000000000000000000000000000000000000000000000000000000PES00010000001 00000000000000000000000
201505120060000100000000000000019299000000000000000192999611111111111111111111CONSUMIDOR-FINAL              000000000017500000000000000000000000000000000000000000000000000000000000000000000000000000000000000000000000000000000000PES00010000001 00000000000000000000000
201505120060000100000000000000019300000000000000000193009611111111111111111111CONSUMIDOR-FINAL              000000000039400000000000000000000000000000000000000000000000000000000000000000000000000000000000000000000000000000000000PES00010000001 00000000000000000000000
201505120060000100000000000000019301000000000000000193019611111111111111111111CONSUMIDOR-FINAL              000000000027500000000000000000000000000000000000000000000000000000000000000000000000000000000000000000000000000000000000PES00010000001 00000000000000000000000
201505120060000100000000000000019302000000000000000193029611111111111111111111CONSUMIDOR-FINAL              000000000073500000000000000000000000000000000000000000000000000000000000000000000000000000000000000000000000000000000000PES00010000001 00000000000000000000000
201505120060000100000000000000019303000000000000000193039611111111111111111111CONSUMIDOR-FINAL              000000000102500000000000000000000000000000000000000000000000000000000000000000000000000000000000000000000000000000000000PES00010000001 00000000000000000000000
201505120060000100000000000000019304000000000000000193049611111111111111111111CONSUMIDOR-FINAL              000000000007500000000000000000000000000000000000000000000000000000000000000000000000000000000000000000000000000000000000PES00010000001 00000000000000000000000
201505130060000100000000000000019305000000000000000193059611111111111111111111CONSUMIDOR-FINAL              000000000010500000000000000000000000000000000000000000000000000000000000000000000000000000000000000000000000000000000000PES00010000001 00000000000000000000000
201505130010000100000000000000000948000000000000000009488000000000027234399417CANTO-DANIELA                 000000000272400000000000000000000000000000000000000000000000000000000000000000000000000000000000000000000000000000000000PES00010000001 00000000000000000000000
201505130060000100000000000000019306000000000000000193069611111111111111111111CONSUMIDOR-FINAL              000000000355000000000000000000000000000000000000000000000000000000000000000000000000000000000000000000000000000000000000PES00010000001 00000000000000000000000
201505130060000100000000000000019307000000000000000193079611111111111111111111CONSUMIDOR-FINAL              000000000039400000000000000000000000000000000000000000000000000000000000000000000000000000000000000000000000000000000000PES00010000001 00000000000000000000000
201505130060000100000000000000019308000000000000000193089611111111111111111111CONSUMIDOR-FINAL              000000000257000000000000000000000000000000000000000000000000000000000000000000000000000000000000000000000000000000000000PES00010000001 00000000000000000000000
201505130060000100000000000000019309000000000000000193099611111111111111111111CONSUMIDOR-FINAL              000000000117500000000000000000000000000000000000000000000000000000000000000000000000000000000000000000000000000000000000PES00010000001 00000000000000000000000
201505130010000100000000000000000949000000000000000009498000000000020243025665BASABE-DARIO-MARTIN           000000000018500000000000000000000000000000000000000000000000000000000000000000000000000000000000000000000000000000000000PES00010000001 00000000000000000000000
201505130060000100000000000000019310000000000000000193109611111111111111111111CONSUMIDOR-FINAL              000000000049500000000000000000000000000000000000000000000000000000000000000000000000000000000000000000000000000000000000PES00010000001 00000000000000000000000
201505130060000100000000000000019311000000000000000193119611111111111111111111CONSUMIDOR-FINAL              000000000115000000000000000000000000000000000000000000000000000000000000000000000000000000000000000000000000000000000000PES00010000001 00000000000000000000000
201505130060000100000000000000019312000000000000000193129611111111111111111111CONSUMIDOR-FINAL              000000000014500000000000000000000000000000000000000000000000000000000000000000000000000000000000000000000000000000000000PES00010000001 00000000000000000000000
201505130060000100000000000000019313000000000000000193139611111111111111111111CONSUMIDOR-FINAL              000000000021600000000000000000000000000000000000000000000000000000000000000000000000000000000000000000000000000000000000PES00010000001 00000000000000000000000
201505130060000100000000000000019314000000000000000193149611111111111111111111CONSUMIDOR-FINAL              000000000027500000000000000000000000000000000000000000000000000000000000000000000000000000000000000000000000000000000000PES00010000001 00000000000000000000000
201505130060000100000000000000019315000000000000000193159611111111111111111111CONSUMIDOR-FINAL              000000000174000000000000000000000000000000000000000000000000000000000000000000000000000000000000000000000000000000000000PES00010000001 00000000000000000000000
201505140060000100000000000000019316000000000000000193169611111111111111111111CONSUMIDOR-FINAL              000000000039500000000000000000000000000000000000000000000000000000000000000000000000000000000000000000000000000000000000PES00010000001 00000000000000000000000
201505140010000100000000000000000950000000000000000009508000000000020132539473ORTEGO-CARLOS                 000000000186000000000000000000000000000000000000000000000000000000000000000000000000000000000000000000000000000000000000PES00010000001 00000000000000000000000
201505140060000100000000000000019317000000000000000193179611111111111111111111CONSUMIDOR-FINAL              000000000029500000000000000000000000000000000000000000000000000000000000000000000000000000000000000000000000000000000000PES00010000001 00000000000000000000000
201505140060000100000000000000019318000000000000000193189611111111111111111111CONSUMIDOR-FINAL              000000000052800000000000000000000000000000000000000000000000000000000000000000000000000000000000000000000000000000000000PES00010000001 00000000000000000000000
201505140060000100000000000000019319000000000000000193199611111111111111111111CONSUMIDOR-FINAL              000000000015000000000000000000000000000000000000000000000000000000000000000000000000000000000000000000000000000000000000PES00010000001 00000000000000000000000
201505140060000100000000000000019320000000000000000193209611111111111111111111CONSUMIDOR-FINAL              000000000108000000000000000000000000000000000000000000000000000000000000000000000000000000000000000000000000000000000000PES00010000001 00000000000000000000000
201505140060000100000000000000019321000000000000000193219611111111111111111111CONSUMIDOR-FINAL              000000000086000000000000000000000000000000000000000000000000000000000000000000000000000000000000000000000000000000000000PES00010000001 00000000000000000000000
201505140060000100000000000000019322000000000000000193229611111111111111111111CONSUMIDOR-FINAL              000000000031500000000000000000000000000000000000000000000000000000000000000000000000000000000000000000000000000000000000PES00010000001 00000000000000000000000
201505140060000100000000000000019323000000000000000193239611111111111111111111CONSUMIDOR-FINAL              000000000108000000000000000000000000000000000000000000000000000000000000000000000000000000000000000000000000000000000000PES00010000001 00000000000000000000000
201505140060000100000000000000019324000000000000000193249611111111111111111111CONSUMIDOR-FINAL              000000000760500000000000000000000000000000000000000000000000000000000000000000000000000000000000000000000000000000000000PES00010000001 00000000000000000000000
201505140060000100000000000000019325000000000000000193259611111111111111111111CONSUMIDOR-FINAL              000000000085000000000000000000000000000000000000000000000000000000000000000000000000000000000000000000000000000000000000PES00010000001 00000000000000000000000
201505140060000100000000000000019326000000000000000193269611111111111111111111CONSUMIDOR-FINAL              000000000091800000000000000000000000000000000000000000000000000000000000000000000000000000000000000000000000000000000000PES00010000001 00000000000000000000000
201505140060000100000000000000019327000000000000000193279611111111111111111111CONSUMIDOR-FINAL              000000000030000000000000000000000000000000000000000000000000000000000000000000000000000000000000000000000000000000000000PES00010000001 00000000000000000000000
201505150060000100000000000000019328000000000000000193289611111111111111111111CONSUMIDOR-FINAL              000000000060000000000000000000000000000000000000000000000000000000000000000000000000000000000000000000000000000000000000PES00010000001 00000000000000000000000
201505150060000100000000000000019329000000000000000193299611111111111111111111CONSUMIDOR-FINAL              000000000079200000000000000000000000000000000000000000000000000000000000000000000000000000000000000000000000000000000000PES00010000001 00000000000000000000000
201505150060000100000000000000019330000000000000000193309611111111111111111111CONSUMIDOR-FINAL              000000000003500000000000000000000000000000000000000000000000000000000000000000000000000000000000000000000000000000000000PES00010000001 00000000000000000000000
201505150060000100000000000000019331000000000000000193319611111111111111111111CONSUMIDOR-FINAL              000000000089300000000000000000000000000000000000000000000000000000000000000000000000000000000000000000000000000000000000PES00010000001 00000000000000000000000
201505150060000100000000000000000028000000000000000000289611111111111111111111CONSUMIDOR-FINAL              000000000003500000000000000000000000000000000000000000000000000000000000000000000000000000000000000000000000000000000000PES00010000001 00000000000000000000000
201505150060000100000000000000019332000000000000000193329611111111111111111111CONSUMIDOR-FINAL              000000000051500000000000000000000000000000000000000000000000000000000000000000000000000000000000000000000000000000000000PES00010000001 00000000000000000000000
201505150060000100000000000000019333000000000000000193339611111111111111111111CONSUMIDOR-FINAL              000000000073000000000000000000000000000000000000000000000000000000000000000000000000000000000000000000000000000000000000PES00010000001 00000000000000000000000
201505150060000100000000000000019334000000000000000193349611111111111111111111CONSUMIDOR-FINAL              000000000220000000000000000000000000000000000000000000000000000000000000000000000000000000000000000000000000000000000000PES00010000001 00000000000000000000000
201505150060000100000000000000019335000000000000000193359611111111111111111111CONSUMIDOR-FINAL              000000000143900000000000000000000000000000000000000000000000000000000000000000000000000000000000000000000000000000000000PES00010000001 00000000000000000000000
201505150060000100000000000000019336000000000000000193369611111111111111111111CONSUMIDOR-FINAL              000000000011000000000000000000000000000000000000000000000000000000000000000000000000000000000000000000000000000000000000PES00010000001 00000000000000000000000
201505150060000100000000000000019337000000000000000193379611111111111111111111CONSUMIDOR-FINAL              000000000024000000000000000000000000000000000000000000000000000000000000000000000000000000000000000000000000000000000000PES00010000001 00000000000000000000000
201505150060000100000000000000019338000000000000000193389611111111111111111111CONSUMIDOR-FINAL              000000000061000000000000000000000000000000000000000000000000000000000000000000000000000000000000000000000000000000000000PES00010000001 00000000000000000000000
201505150060000100000000000000019339000000000000000193399611111111111111111111CONSUMIDOR-FINAL              000000000050000000000000000000000000000000000000000000000000000000000000000000000000000000000000000000000000000000000000PES00010000001 00000000000000000000000
201505150060000100000000000000019340000000000000000193409611111111111111111111CONSUMIDOR-FINAL              000000000048000000000000000000000000000000000000000000000000000000000000000000000000000000000000000000000000000000000000PES00010000001 00000000000000000000000
201505150060000100000000000000019341000000000000000193419611111111111111111111CONSUMIDOR-FINAL              000000000079500000000000000000000000000000000000000000000000000000000000000000000000000000000000000000000000000000000000PES00010000001 00000000000000000000000
201505150060000100000000000000019342000000000000000193429611111111111111111111CONSUMIDOR-FINAL              000000000064600000000000000000000000000000000000000000000000000000000000000000000000000000000000000000000000000000000000PES00010000001 00000000000000000000000
201505150060000100000000000000019343000000000000000193439611111111111111111111CONSUMIDOR-FINAL              000000000029000000000000000000000000000000000000000000000000000000000000000000000000000000000000000000000000000000000000PES00010000001 00000000000000000000000
201505150060000100000000000000019344000000000000000193449611111111111111111111CONSUMIDOR-FINAL              000000000064500000000000000000000000000000000000000000000000000000000000000000000000000000000000000000000000000000000000PES00010000001 00000000000000000000000
201505150060000100000000000000019345000000000000000193459611111111111111111111CONSUMIDOR-FINAL              000000000055000000000000000000000000000000000000000000000000000000000000000000000000000000000000000000000000000000000000PES00010000001 00000000000000000000000
201505150060000100000000000000019346000000000000000193469611111111111111111111CONSUMIDOR-FINAL              000000000005000000000000000000000000000000000000000000000000000000000000000000000000000000000000000000000000000000000000PES00010000001 00000000000000000000000
201505150060000100000000000000019347000000000000000193479611111111111111111111CONSUMIDOR-FINAL              000000000039300000000000000000000000000000000000000000000000000000000000000000000000000000000000000000000000000000000000PES00010000001 00000000000000000000000
201505160060000100000000000000019348000000000000000193489611111111111111111111CONSUMIDOR-FINAL              000000000047500000000000000000000000000000000000000000000000000000000000000000000000000000000000000000000000000000000000PES00010000001 00000000000000000000000
201505160060000100000000000000019349000000000000000193499611111111111111111111CONSUMIDOR-FINAL              000000000045000000000000000000000000000000000000000000000000000000000000000000000000000000000000000000000000000000000000PES00010000001 00000000000000000000000
201505160060000100000000000000019350000000000000000193509611111111111111111111CONSUMIDOR-FINAL              000000000137000000000000000000000000000000000000000000000000000000000000000000000000000000000000000000000000000000000000PES00010000001 00000000000000000000000
201505160060000100000000000000019351000000000000000193519611111111111111111111CONSUMIDOR-FINAL              000000000137500000000000000000000000000000000000000000000000000000000000000000000000000000000000000000000000000000000000PES00010000001 00000000000000000000000
201505160060000100000000000000019352000000000000000193529611111111111111111111CONSUMIDOR-FINAL              000000000037500000000000000000000000000000000000000000000000000000000000000000000000000000000000000000000000000000000000PES00010000001 00000000000000000000000
201505160060000100000000000000019353000000000000000193539611111111111111111111CONSUMIDOR-FINAL              000000000019000000000000000000000000000000000000000000000000000000000000000000000000000000000000000000000000000000000000PES00010000001 00000000000000000000000
201505160060000100000000000000019354000000000000000193549611111111111111111111CONSUMIDOR-FINAL              000000000178000000000000000000000000000000000000000000000000000000000000000000000000000000000000000000000000000000000000PES00010000001 00000000000000000000000
201505160060000100000000000000019355000000000000000193559611111111111111111111CONSUMIDOR-FINAL              000000000034300000000000000000000000000000000000000000000000000000000000000000000000000000000000000000000000000000000000PES00010000001 00000000000000000000000
201505160060000100000000000000019356000000000000000193569611111111111111111111CONSUMIDOR-FINAL              000000000027000000000000000000000000000000000000000000000000000000000000000000000000000000000000000000000000000000000000PES00010000001 00000000000000000000000
201505160060000100000000000000019357000000000000000193579611111111111111111111CONSUMIDOR-FINAL              000000000098000000000000000000000000000000000000000000000000000000000000000000000000000000000000000000000000000000000000PES00010000001 00000000000000000000000
201505160060000100000000000000019358000000000000000193589611111111111111111111CONSUMIDOR-FINAL              000000000040000000000000000000000000000000000000000000000000000000000000000000000000000000000000000000000000000000000000PES00010000001 00000000000000000000000
201505160060000100000000000000019359000000000000000193599611111111111111111111CONSUMIDOR-FINAL              000000000118700000000000000000000000000000000000000000000000000000000000000000000000000000000000000000000000000000000000PES00010000001 00000000000000000000000
201505160060000100000000000000019360000000000000000193609611111111111111111111CONSUMIDOR-FINAL              000000000091400000000000000000000000000000000000000000000000000000000000000000000000000000000000000000000000000000000000PES00010000001 00000000000000000000000
201505160060000100000000000000019361000000000000000193619611111111111111111111CONSUMIDOR-FINAL              000000000042300000000000000000000000000000000000000000000000000000000000000000000000000000000000000000000000000000000000PES00010000001 00000000000000000000000
201505160060000100000000000000019362000000000000000193629611111111111111111111CONSUMIDOR-FINAL              000000000015000000000000000000000000000000000000000000000000000000000000000000000000000000000000000000000000000000000000PES00010000001 00000000000000000000000
201505160060000100000000000000019363000000000000000193639611111111111111111111CONSUMIDOR-FINAL              000000000197600000000000000000000000000000000000000000000000000000000000000000000000000000000000000000000000000000000000PES00010000001 00000000000000000000000
201505160060000100000000000000019364000000000000000193649611111111111111111111CONSUMIDOR-FINAL              000000000104300000000000000000000000000000000000000000000000000000000000000000000000000000000000000000000000000000000000PES00010000001 00000000000000000000000
201505160060000100000000000000019365000000000000000193659611111111111111111111CONSUMIDOR-FINAL              000000000042100000000000000000000000000000000000000000000000000000000000000000000000000000000000000000000000000000000000PES00010000001 00000000000000000000000
201505160060000100000000000000019366000000000000000193669611111111111111111111CONSUMIDOR-FINAL              000000000075100000000000000000000000000000000000000000000000000000000000000000000000000000000000000000000000000000000000PES00010000001 00000000000000000000000
201505160060000100000000000000019367000000000000000193679611111111111111111111CONSUMIDOR-FINAL              000000000058500000000000000000000000000000000000000000000000000000000000000000000000000000000000000000000000000000000000PES00010000001 00000000000000000000000
201505160060000100000000000000019368000000000000000193689611111111111111111111CONSUMIDOR-FINAL              000000000255700000000000000000000000000000000000000000000000000000000000000000000000000000000000000000000000000000000000PES00010000001 00000000000000000000000
201505160060000100000000000000019369000000000000000193699611111111111111111111CONSUMIDOR-FINAL              000000000023000000000000000000000000000000000000000000000000000000000000000000000000000000000000000000000000000000000000PES00010000001 00000000000000000000000
201505160060000100000000000000019370000000000000000193709611111111111111111111CONSUMIDOR-FINAL              000000000057500000000000000000000000000000000000000000000000000000000000000000000000000000000000000000000000000000000000PES00010000001 00000000000000000000000
201505160060000100000000000000019371000000000000000193719611111111111111111111CONSUMIDOR-FINAL              000000000056000000000000000000000000000000000000000000000000000000000000000000000000000000000000000000000000000000000000PES00010000001 00000000000000000000000
201505160060000100000000000000019372000000000000000193729611111111111111111111CONSUMIDOR-FINAL              000000000021500000000000000000000000000000000000000000000000000000000000000000000000000000000000000000000000000000000000PES00010000001 00000000000000000000000
201505180060000100000000000000019373000000000000000193739611111111111111111111CONSUMIDOR-FINAL              000000000043500000000000000000000000000000000000000000000000000000000000000000000000000000000000000000000000000000000000PES00010000001 00000000000000000000000
201505180060000100000000000000019374000000000000000193749611111111111111111111CONSUMIDOR-FINAL              000000000083500000000000000000000000000000000000000000000000000000000000000000000000000000000000000000000000000000000000PES00010000001 00000000000000000000000
201505180060000100000000000000019375000000000000000193759611111111111111111111CONSUMIDOR-FINAL              000000000053000000000000000000000000000000000000000000000000000000000000000000000000000000000000000000000000000000000000PES00010000001 00000000000000000000000
201505180060000100000000000000019376000000000000000193769611111111111111111111CONSUMIDOR-FINAL              000000000146400000000000000000000000000000000000000000000000000000000000000000000000000000000000000000000000000000000000PES00010000001 00000000000000000000000
201505180060000100000000000000019377000000000000000193779611111111111111111111CONSUMIDOR-FINAL              000000000039000000000000000000000000000000000000000000000000000000000000000000000000000000000000000000000000000000000000PES00010000001 00000000000000000000000
201505180060000100000000000000019378000000000000000193789611111111111111111111CONSUMIDOR-FINAL              000000000026000000000000000000000000000000000000000000000000000000000000000000000000000000000000000000000000000000000000PES00010000001 00000000000000000000000
201505180060000100000000000000019379000000000000000193799611111111111111111111CONSUMIDOR-FINAL              000000000009000000000000000000000000000000000000000000000000000000000000000000000000000000000000000000000000000000000000PES00010000001 00000000000000000000000
201505180060000100000000000000019380000000000000000193809611111111111111111111CONSUMIDOR-FINAL              000000000044000000000000000000000000000000000000000000000000000000000000000000000000000000000000000000000000000000000000PES00010000001 00000000000000000000000
201505180060000100000000000000019381000000000000000193819611111111111111111111CONSUMIDOR-FINAL              000000000073000000000000000000000000000000000000000000000000000000000000000000000000000000000000000000000000000000000000PES00010000001 00000000000000000000000
201505180060000100000000000000019382000000000000000193829611111111111111111111CONSUMIDOR-FINAL              000000000021500000000000000000000000000000000000000000000000000000000000000000000000000000000000000000000000000000000000PES00010000001 00000000000000000000000
201505180060000100000000000000019383000000000000000193839611111111111111111111CONSUMIDOR-FINAL              000000000033000000000000000000000000000000000000000000000000000000000000000000000000000000000000000000000000000000000000PES00010000001 00000000000000000000000
201505180060000100000000000000019384000000000000000193849611111111111111111111CONSUMIDOR-FINAL              000000000076500000000000000000000000000000000000000000000000000000000000000000000000000000000000000000000000000000000000PES00010000001 00000000000000000000000
201505180060000100000000000000019385000000000000000193859611111111111111111111CONSUMIDOR-FINAL              000000000021500000000000000000000000000000000000000000000000000000000000000000000000000000000000000000000000000000000000PES00010000001 00000000000000000000000
201505180060000100000000000000019386000000000000000193869611111111111111111111CONSUMIDOR-FINAL              000000000159500000000000000000000000000000000000000000000000000000000000000000000000000000000000000000000000000000000000PES00010000001 00000000000000000000000
201505180060000100000000000000019387000000000000000193879611111111111111111111CONSUMIDOR-FINAL              000000000378500000000000000000000000000000000000000000000000000000000000000000000000000000000000000000000000000000000000PES00010000001 00000000000000000000000
201505180060000100000000000000019388000000000000000193889611111111111111111111CONSUMIDOR-FINAL              000000000012000000000000000000000000000000000000000000000000000000000000000000000000000000000000000000000000000000000000PES00010000001 00000000000000000000000
201505190060000100000000000000019389000000000000000193899611111111111111111111CONSUMIDOR-FINAL              000000000094500000000000000000000000000000000000000000000000000000000000000000000000000000000000000000000000000000000000PES00010000001 00000000000000000000000
201505190060000100000000000000019390000000000000000193909611111111111111111111CONSUMIDOR-FINAL              000000000039000000000000000000000000000000000000000000000000000000000000000000000000000000000000000000000000000000000000PES00010000001 00000000000000000000000
201505190060000100000000000000019391000000000000000193919611111111111111111111CONSUMIDOR-FINAL              000000000041000000000000000000000000000000000000000000000000000000000000000000000000000000000000000000000000000000000000PES00010000001 00000000000000000000000
201505190060000100000000000000019392000000000000000193929611111111111111111111CONSUMIDOR-FINAL              000000000022300000000000000000000000000000000000000000000000000000000000000000000000000000000000000000000000000000000000PES00010000001 00000000000000000000000
201505190060000100000000000000019393000000000000000193939611111111111111111111CONSUMIDOR-FINAL              000000000139500000000000000000000000000000000000000000000000000000000000000000000000000000000000000000000000000000000000PES00010000001 00000000000000000000000
201505190060000100000000000000019394000000000000000193949611111111111111111111CONSUMIDOR-FINAL              000000000019800000000000000000000000000000000000000000000000000000000000000000000000000000000000000000000000000000000000PES00010000001 00000000000000000000000
201505190060000100000000000000019395000000000000000193959611111111111111111111CONSUMIDOR-FINAL              000000000005000000000000000000000000000000000000000000000000000000000000000000000000000000000000000000000000000000000000PES00010000001 00000000000000000000000
201505190060000100000000000000019396000000000000000193969611111111111111111111CONSUMIDOR-FINAL              000000000025000000000000000000000000000000000000000000000000000000000000000000000000000000000000000000000000000000000000PES00010000001 00000000000000000000000
201505190060000100000000000000019397000000000000000193979611111111111111111111CONSUMIDOR-FINAL              000000000055000000000000000000000000000000000000000000000000000000000000000000000000000000000000000000000000000000000000PES00010000001 00000000000000000000000
201505190060000100000000000000019398000000000000000193989611111111111111111111CONSUMIDOR-FINAL              000000000115800000000000000000000000000000000000000000000000000000000000000000000000000000000000000000000000000000000000PES00010000001 00000000000000000000000
201505200060000100000000000000019399000000000000000193999611111111111111111111CONSUMIDOR-FINAL              000000000092500000000000000000000000000000000000000000000000000000000000000000000000000000000000000000000000000000000000PES00010000001 00000000000000000000000
201505200060000100000000000000019400000000000000000194009611111111111111111111CONSUMIDOR-FINAL              000000000062000000000000000000000000000000000000000000000000000000000000000000000000000000000000000000000000000000000000PES00010000001 00000000000000000000000
201505200010000100000000000000000951000000000000000009518000000000023233595349APHOWRISETH-JORGE-HORACIO     000000000017500000000000000000000000000000000000000000000000000000000000000000000000000000000000000000000000000000000000PES00010000001 00000000000000000000000
201505200060000100000000000000019401000000000000000194019611111111111111111111CONSUMIDOR-FINAL              000000000036000000000000000000000000000000000000000000000000000000000000000000000000000000000000000000000000000000000000PES00010000001 00000000000000000000000
201505200060000100000000000000019402000000000000000194029611111111111111111111CONSUMIDOR-FINAL              000000000034500000000000000000000000000000000000000000000000000000000000000000000000000000000000000000000000000000000000PES00010000001 00000000000000000000000
201505200060000100000000000000019403000000000000000194039611111111111111111111CONSUMIDOR-FINAL              000000000030800000000000000000000000000000000000000000000000000000000000000000000000000000000000000000000000000000000000PES00010000001 00000000000000000000000
201505200060000100000000000000019404000000000000000194049611111111111111111111CONSUMIDOR-FINAL              000000000016500000000000000000000000000000000000000000000000000000000000000000000000000000000000000000000000000000000000PES00010000001 00000000000000000000000
201505200060000100000000000000019405000000000000000194059611111111111111111111CONSUMIDOR-FINAL              000000000041500000000000000000000000000000000000000000000000000000000000000000000000000000000000000000000000000000000000PES00010000001 00000000000000000000000
201505200060000100000000000000019406000000000000000194069611111111111111111111CONSUMIDOR-FINAL              000000000032000000000000000000000000000000000000000000000000000000000000000000000000000000000000000000000000000000000000PES00010000001 00000000000000000000000
201505200060000100000000000000019407000000000000000194079611111111111111111111CONSUMIDOR-FINAL              000000000057500000000000000000000000000000000000000000000000000000000000000000000000000000000000000000000000000000000000PES00010000001 00000000000000000000000
201505200060000100000000000000019408000000000000000194089611111111111111111111CONSUMIDOR-FINAL              000000000019500000000000000000000000000000000000000000000000000000000000000000000000000000000000000000000000000000000000PES00010000001 00000000000000000000000
201505200060000100000000000000019409000000000000000194099611111111111111111111CONSUMIDOR-FINAL              000000000045300000000000000000000000000000000000000000000000000000000000000000000000000000000000000000000000000000000000PES00010000001 00000000000000000000000
201505200060000100000000000000019410000000000000000194109611111111111111111111CONSUMIDOR-FINAL              000000000008500000000000000000000000000000000000000000000000000000000000000000000000000000000000000000000000000000000000PES00010000001 00000000000000000000000
201505200060000100000000000000019411000000000000000194119611111111111111111111CONSUMIDOR-FINAL              000000000022000000000000000000000000000000000000000000000000000000000000000000000000000000000000000000000000000000000000PES00010000001 00000000000000000000000
201505200060000100000000000000019412000000000000000194129611111111111111111111CONSUMIDOR-FINAL              000000000030000000000000000000000000000000000000000000000000000000000000000000000000000000000000000000000000000000000000PES00010000001 00000000000000000000000
201505210060000100000000000000019413000000000000000194139611111111111111111111CONSUMIDOR-FINAL              000000000042500000000000000000000000000000000000000000000000000000000000000000000000000000000000000000000000000000000000PES00010000001 00000000000000000000000
201505210060000100000000000000019414000000000000000194149611111111111111111111CONSUMIDOR-FINAL              000000000014000000000000000000000000000000000000000000000000000000000000000000000000000000000000000000000000000000000000PES00010000001 00000000000000000000000
201505210060000100000000000000019415000000000000000194159611111111111111111111CONSUMIDOR-FINAL              000000000039500000000000000000000000000000000000000000000000000000000000000000000000000000000000000000000000000000000000PES00010000001 00000000000000000000000
201505210060000100000000000000019416000000000000000194169611111111111111111111CONSUMIDOR-FINAL              000000000027500000000000000000000000000000000000000000000000000000000000000000000000000000000000000000000000000000000000PES00010000001 00000000000000000000000
201505210060000100000000000000019417000000000000000194179611111111111111111111CONSUMIDOR-FINAL              000000000077700000000000000000000000000000000000000000000000000000000000000000000000000000000000000000000000000000000000PES00010000001 00000000000000000000000
201505210060000100000000000000019418000000000000000194189611111111111111111111CONSUMIDOR-FINAL              000000000085000000000000000000000000000000000000000000000000000000000000000000000000000000000000000000000000000000000000PES00010000001 00000000000000000000000
201505210060000100000000000000019419000000000000000194199611111111111111111111CONSUMIDOR-FINAL              000000000033000000000000000000000000000000000000000000000000000000000000000000000000000000000000000000000000000000000000PES00010000001 00000000000000000000000
201505210060000100000000000000019420000000000000000194209611111111111111111111CONSUMIDOR-FINAL              000000000109000000000000000000000000000000000000000000000000000000000000000000000000000000000000000000000000000000000000PES00010000001 00000000000000000000000
201505210060000100000000000000019421000000000000000194219611111111111111111111CONSUMIDOR-FINAL              000000000019600000000000000000000000000000000000000000000000000000000000000000000000000000000000000000000000000000000000PES00010000001 00000000000000000000000
201505210010000100000000000000000952000000000000000009528000000000030711592543LODOS-DEL-SUR-SRL             000000000289500000000000000000000000000000000000000000000000000000000000000000000000000000000000000000000000000000000000PES00010000001 00000000000000000000000
201505210060000100000000000000019422000000000000000194229611111111111111111111CONSUMIDOR-FINAL              000000000025500000000000000000000000000000000000000000000000000000000000000000000000000000000000000000000000000000000000PES00010000001 00000000000000000000000
201505210010000100000000000000000953000000000000000009538000000000027131274551GRANDE-MABEL-INES             000000000130000000000000000000000000000000000000000000000000000000000000000000000000000000000000000000000000000000000000PES00010000001 00000000000000000000000
201505210060000100000000000000019423000000000000000194239611111111111111111111CONSUMIDOR-FINAL              000000000039000000000000000000000000000000000000000000000000000000000000000000000000000000000000000000000000000000000000PES00010000001 00000000000000000000000
201505210060000100000000000000019424000000000000000194249611111111111111111111CONSUMIDOR-FINAL              000000000023500000000000000000000000000000000000000000000000000000000000000000000000000000000000000000000000000000000000PES00010000001 00000000000000000000000
201505210060000100000000000000019425000000000000000194259611111111111111111111CONSUMIDOR-FINAL              000000000074500000000000000000000000000000000000000000000000000000000000000000000000000000000000000000000000000000000000PES00010000001 00000000000000000000000
201505210060000100000000000000019426000000000000000194269611111111111111111111CONSUMIDOR-FINAL              000000000000100000000000000000000000000000000000000000000000000000000000000000000000000000000000000000000000000000000000PES00010000001 00000000000000000000000
201505210060000100000000000000019427000000000000000194279611111111111111111111CONSUMIDOR-FINAL              000000000000100000000000000000000000000000000000000000000000000000000000000000000000000000000000000000000000000000000000PES00010000001 00000000000000000000000
201505220060000100000000000000019428000000000000000194289611111111111111111111CONSUMIDOR-FINAL              000000000125000000000000000000000000000000000000000000000000000000000000000000000000000000000000000000000000000000000000PES00010000001 00000000000000000000000
201505220010000100000000000000000954000000000000000009548000000000020115182340VILLATA-HORACIO               000000000235500000000000000000000000000000000000000000000000000000000000000000000000000000000000000000000000000000000000PES00010000001 00000000000000000000000
201505220010000100000000000000000955000000000000000009558000000000030709817023-FURLO-SRL                    000000000081000000000000000000000000000000000000000000000000000000000000000000000000000000000000000000000000000000000000PES00010000001 00000000000000000000000
201505220060000100000000000000019429000000000000000194299611111111111111111111CONSUMIDOR-FINAL              000000000127500000000000000000000000000000000000000000000000000000000000000000000000000000000000000000000000000000000000PES00010000001 00000000000000000000000
201505220060000100000000000000019430000000000000000194309611111111111111111111CONSUMIDOR-FINAL              000000000119300000000000000000000000000000000000000000000000000000000000000000000000000000000000000000000000000000000000PES00010000001 00000000000000000000000
201505220060000100000000000000019431000000000000000194319611111111111111111111CONSUMIDOR-FINAL              000000000097500000000000000000000000000000000000000000000000000000000000000000000000000000000000000000000000000000000000PES00010000001 00000000000000000000000
201505220060000100000000000000019432000000000000000194329611111111111111111111CONSUMIDOR-FINAL              000000000054000000000000000000000000000000000000000000000000000000000000000000000000000000000000000000000000000000000000PES00010000001 00000000000000000000000
201505220060000100000000000000019433000000000000000194339611111111111111111111CONSUMIDOR-FINAL              000000000015600000000000000000000000000000000000000000000000000000000000000000000000000000000000000000000000000000000000PES00010000001 00000000000000000000000
201505220060000100000000000000019434000000000000000194349611111111111111111111CONSUMIDOR-FINAL              000000000058500000000000000000000000000000000000000000000000000000000000000000000000000000000000000000000000000000000000PES00010000001 00000000000000000000000
201505220060000100000000000000019435000000000000000194359611111111111111111111CONSUMIDOR-FINAL              000000000032000000000000000000000000000000000000000000000000000000000000000000000000000000000000000000000000000000000000PES00010000001 00000000000000000000000
201505220060000100000000000000019436000000000000000194369611111111111111111111CONSUMIDOR-FINAL              000000000085500000000000000000000000000000000000000000000000000000000000000000000000000000000000000000000000000000000000PES00010000001 00000000000000000000000
201505220060000100000000000000019437000000000000000194379611111111111111111111CONSUMIDOR-FINAL              000000000052000000000000000000000000000000000000000000000000000000000000000000000000000000000000000000000000000000000000PES00010000001 00000000000000000000000
201505220060000100000000000000019438000000000000000194389611111111111111111111CONSUMIDOR-FINAL              000000000049500000000000000000000000000000000000000000000000000000000000000000000000000000000000000000000000000000000000PES00010000001 00000000000000000000000
201505220010000100000000000000000956000000000000000009568000000000027234399417CANTO-DANIELA                 000000000041500000000000000000000000000000000000000000000000000000000000000000000000000000000000000000000000000000000000PES00010000001 00000000000000000000000
201505220060000100000000000000019439000000000000000194399611111111111111111111CONSUMIDOR-FINAL              000000000037000000000000000000000000000000000000000000000000000000000000000000000000000000000000000000000000000000000000PES00010000001 00000000000000000000000
201505220060000100000000000000019440000000000000000194409611111111111111111111CONSUMIDOR-FINAL              000000000118500000000000000000000000000000000000000000000000000000000000000000000000000000000000000000000000000000000000PES00010000001 00000000000000000000000
201505220060000100000000000000000029000000000000000000299611111111111111111111CONSUMIDOR-FINAL              000000000118500000000000000000000000000000000000000000000000000000000000000000000000000000000000000000000000000000000000PES00010000001 00000000000000000000000
201505220060000100000000000000019441000000000000000194419611111111111111111111CONSUMIDOR-FINAL              000000000120600000000000000000000000000000000000000000000000000000000000000000000000000000000000000000000000000000000000PES00010000001 00000000000000000000000
201505220060000100000000000000019442000000000000000194429611111111111111111111CONSUMIDOR-FINAL              000000000094500000000000000000000000000000000000000000000000000000000000000000000000000000000000000000000000000000000000PES00010000001 00000000000000000000000
201505230060000100000000000000019443000000000000000194439611111111111111111111CONSUMIDOR-FINAL              000000000123100000000000000000000000000000000000000000000000000000000000000000000000000000000000000000000000000000000000PES00010000001 00000000000000000000000
201505230060000100000000000000019444000000000000000194449611111111111111111111CONSUMIDOR-FINAL              000000000042000000000000000000000000000000000000000000000000000000000000000000000000000000000000000000000000000000000000PES00010000001 00000000000000000000000
201505230060000100000000000000019445000000000000000194459611111111111111111111CONSUMIDOR-FINAL              000000000025000000000000000000000000000000000000000000000000000000000000000000000000000000000000000000000000000000000000PES00010000001 00000000000000000000000
201505230060000100000000000000019446000000000000000194469611111111111111111111CONSUMIDOR-FINAL              000000000042500000000000000000000000000000000000000000000000000000000000000000000000000000000000000000000000000000000000PES00010000001 00000000000000000000000
201505230060000100000000000000019447000000000000000194479611111111111111111111CONSUMIDOR-FINAL              000000000013000000000000000000000000000000000000000000000000000000000000000000000000000000000000000000000000000000000000PES00010000001 00000000000000000000000
201505230060000100000000000000019448000000000000000194489611111111111111111111CONSUMIDOR-FINAL              000000000047000000000000000000000000000000000000000000000000000000000000000000000000000000000000000000000000000000000000PES00010000001 00000000000000000000000
201505230060000100000000000000019449000000000000000194499611111111111111111111CONSUMIDOR-FINAL              000000000046500000000000000000000000000000000000000000000000000000000000000000000000000000000000000000000000000000000000PES00010000001 00000000000000000000000
201505230060000100000000000000019450000000000000000194509611111111111111111111CONSUMIDOR-FINAL              000000000070500000000000000000000000000000000000000000000000000000000000000000000000000000000000000000000000000000000000PES00010000001 00000000000000000000000
201505230060000100000000000000019451000000000000000194519611111111111111111111CONSUMIDOR-FINAL              000000000129000000000000000000000000000000000000000000000000000000000000000000000000000000000000000000000000000000000000PES00010000001 00000000000000000000000
201505230060000100000000000000019452000000000000000194529611111111111111111111CONSUMIDOR-FINAL              000000000018500000000000000000000000000000000000000000000000000000000000000000000000000000000000000000000000000000000000PES00010000001 00000000000000000000000
201505230060000100000000000000019453000000000000000194539611111111111111111111CONSUMIDOR-FINAL              000000000081500000000000000000000000000000000000000000000000000000000000000000000000000000000000000000000000000000000000PES00010000001 00000000000000000000000
201505230060000100000000000000019454000000000000000194549611111111111111111111CONSUMIDOR-FINAL              000000000085500000000000000000000000000000000000000000000000000000000000000000000000000000000000000000000000000000000000PES00010000001 00000000000000000000000
201505230060000100000000000000019455000000000000000194559611111111111111111111CONSUMIDOR-FINAL              000000000103700000000000000000000000000000000000000000000000000000000000000000000000000000000000000000000000000000000000PES00010000001 00000000000000000000000
201505230060000100000000000000019456000000000000000194569611111111111111111111CONSUMIDOR-FINAL              000000000221500000000000000000000000000000000000000000000000000000000000000000000000000000000000000000000000000000000000PES00010000001 00000000000000000000000
201505230060000100000000000000019457000000000000000194579611111111111111111111CONSUMIDOR-FINAL              000000000244500000000000000000000000000000000000000000000000000000000000000000000000000000000000000000000000000000000000PES00010000001 00000000000000000000000
201505230060000100000000000000019458000000000000000194589611111111111111111111CONSUMIDOR-FINAL              000000000099000000000000000000000000000000000000000000000000000000000000000000000000000000000000000000000000000000000000PES00010000001 00000000000000000000000
201505230060000100000000000000019459000000000000000194599611111111111111111111CONSUMIDOR-FINAL              000000000051000000000000000000000000000000000000000000000000000000000000000000000000000000000000000000000000000000000000PES00010000001 00000000000000000000000
201505230060000100000000000000019460000000000000000194609611111111111111111111CONSUMIDOR-FINAL              000000000034000000000000000000000000000000000000000000000000000000000000000000000000000000000000000000000000000000000000PES00010000001 00000000000000000000000
201505230060000100000000000000019461000000000000000194619611111111111111111111CONSUMIDOR-FINAL              000000000091000000000000000000000000000000000000000000000000000000000000000000000000000000000000000000000000000000000000PES00010000001 00000000000000000000000
201505230060000100000000000000019462000000000000000194629611111111111111111111CONSUMIDOR-FINAL              000000000069000000000000000000000000000000000000000000000000000000000000000000000000000000000000000000000000000000000000PES00010000001 00000000000000000000000
201505230060000100000000000000019463000000000000000194639611111111111111111111CONSUMIDOR-FINAL              000000000144000000000000000000000000000000000000000000000000000000000000000000000000000000000000000000000000000000000000PES00010000001 00000000000000000000000
201505230060000100000000000000019464000000000000000194649611111111111111111111CONSUMIDOR-FINAL              000000000087000000000000000000000000000000000000000000000000000000000000000000000000000000000000000000000000000000000000PES00010000001 00000000000000000000000
201505230060000100000000000000019465000000000000000194659611111111111111111111CONSUMIDOR-FINAL              000000000099800000000000000000000000000000000000000000000000000000000000000000000000000000000000000000000000000000000000PES00010000001 00000000000000000000000
201505230060000100000000000000019466000000000000000194669611111111111111111111CONSUMIDOR-FINAL              000000000022500000000000000000000000000000000000000000000000000000000000000000000000000000000000000000000000000000000000PES00010000001 00000000000000000000000
201505260060000100000000000000019467000000000000000194679611111111111111111111CONSUMIDOR-FINAL              000000000087500000000000000000000000000000000000000000000000000000000000000000000000000000000000000000000000000000000000PES00010000001 00000000000000000000000
201505260060000100000000000000019468000000000000000194689611111111111111111111CONSUMIDOR-FINAL              000000000041000000000000000000000000000000000000000000000000000000000000000000000000000000000000000000000000000000000000PES00010000001 00000000000000000000000
201505260010000100000000000000000957000000000000000009578000000000023233595349APHOWRISETH-JORGE-HORACIO     000000000009800000000000000000000000000000000000000000000000000000000000000000000000000000000000000000000000000000000000PES00010000001 00000000000000000000000
201505260060000100000000000000019469000000000000000194699611111111111111111111CONSUMIDOR-FINAL              000000000027500000000000000000000000000000000000000000000000000000000000000000000000000000000000000000000000000000000000PES00010000001 00000000000000000000000
201505260060000100000000000000019470000000000000000194709611111111111111111111CONSUMIDOR-FINAL              000000000033000000000000000000000000000000000000000000000000000000000000000000000000000000000000000000000000000000000000PES00010000001 00000000000000000000000
201505260060000100000000000000019471000000000000000194719611111111111111111111CONSUMIDOR-FINAL              000000000019500000000000000000000000000000000000000000000000000000000000000000000000000000000000000000000000000000000000PES00010000001 00000000000000000000000
201505260060000100000000000000019472000000000000000194729611111111111111111111CONSUMIDOR-FINAL              000000000056700000000000000000000000000000000000000000000000000000000000000000000000000000000000000000000000000000000000PES00010000001 00000000000000000000000
201505260060000100000000000000019473000000000000000194739611111111111111111111CONSUMIDOR-FINAL              000000000013000000000000000000000000000000000000000000000000000000000000000000000000000000000000000000000000000000000000PES00010000001 00000000000000000000000
201505260060000100000000000000019474000000000000000194749611111111111111111111CONSUMIDOR-FINAL              000000000133500000000000000000000000000000000000000000000000000000000000000000000000000000000000000000000000000000000000PES00010000001 00000000000000000000000
201505260060000100000000000000019475000000000000000194759611111111111111111111CONSUMIDOR-FINAL              000000000054000000000000000000000000000000000000000000000000000000000000000000000000000000000000000000000000000000000000PES00010000001 00000000000000000000000
201505260060000100000000000000019476000000000000000194769611111111111111111111CONSUMIDOR-FINAL              000000000025500000000000000000000000000000000000000000000000000000000000000000000000000000000000000000000000000000000000PES00010000001 00000000000000000000000
201505270060000100000000000000019478000000000000000194789611111111111111111111CONSUMIDOR-FINAL              000000000030000000000000000000000000000000000000000000000000000000000000000000000000000000000000000000000000000000000000PES00010000001 00000000000000000000000
201505270060000100000000000000019479000000000000000194799611111111111111111111CONSUMIDOR-FINAL              000000000061100000000000000000000000000000000000000000000000000000000000000000000000000000000000000000000000000000000000PES00010000001 00000000000000000000000
201505270060000100000000000000019480000000000000000194809611111111111111111111CONSUMIDOR-FINAL              000000000099200000000000000000000000000000000000000000000000000000000000000000000000000000000000000000000000000000000000PES00010000001 00000000000000000000000
201505270060000100000000000000019481000000000000000194819611111111111111111111CONSUMIDOR-FINAL              000000000025500000000000000000000000000000000000000000000000000000000000000000000000000000000000000000000000000000000000PES00010000001 00000000000000000000000
201505270060000100000000000000019482000000000000000194829611111111111111111111CONSUMIDOR-FINAL              000000000078200000000000000000000000000000000000000000000000000000000000000000000000000000000000000000000000000000000000PES00010000001 00000000000000000000000
201505270060000100000000000000019483000000000000000194839611111111111111111111CONSUMIDOR-FINAL              000000000076800000000000000000000000000000000000000000000000000000000000000000000000000000000000000000000000000000000000PES00010000001 00000000000000000000000
201505270060000100000000000000019484000000000000000194849611111111111111111111CONSUMIDOR-FINAL              000000000058000000000000000000000000000000000000000000000000000000000000000000000000000000000000000000000000000000000000PES00010000001 00000000000000000000000
201505270060000100000000000000019485000000000000000194859611111111111111111111CONSUMIDOR-FINAL              000000000012000000000000000000000000000000000000000000000000000000000000000000000000000000000000000000000000000000000000PES00010000001 00000000000000000000000
201505280060000100000000000000019486000000000000000194869611111111111111111111CONSUMIDOR-FINAL              000000000044700000000000000000000000000000000000000000000000000000000000000000000000000000000000000000000000000000000000PES00010000001 00000000000000000000000
201505280060000100000000000000019487000000000000000194879611111111111111111111CONSUMIDOR-FINAL              000000000057500000000000000000000000000000000000000000000000000000000000000000000000000000000000000000000000000000000000PES00010000001 00000000000000000000000
201505280060000100000000000000019488000000000000000194889611111111111111111111CONSUMIDOR-FINAL              000000000055000000000000000000000000000000000000000000000000000000000000000000000000000000000000000000000000000000000000PES00010000001 00000000000000000000000
201505280060000100000000000000019489000000000000000194899611111111111111111111CONSUMIDOR-FINAL              000000000015000000000000000000000000000000000000000000000000000000000000000000000000000000000000000000000000000000000000PES00010000001 00000000000000000000000
201505280060000100000000000000019490000000000000000194909611111111111111111111CONSUMIDOR-FINAL              000000000012500000000000000000000000000000000000000000000000000000000000000000000000000000000000000000000000000000000000PES00010000001 00000000000000000000000
201505280060000100000000000000019491000000000000000194919611111111111111111111CONSUMIDOR-FINAL              000000000067500000000000000000000000000000000000000000000000000000000000000000000000000000000000000000000000000000000000PES00010000001 00000000000000000000000
201505280060000100000000000000019492000000000000000194929611111111111111111111CONSUMIDOR-FINAL              000000000036000000000000000000000000000000000000000000000000000000000000000000000000000000000000000000000000000000000000PES00010000001 00000000000000000000000
201505280060000100000000000000019493000000000000000194939611111111111111111111CONSUMIDOR-FINAL              000000000099000000000000000000000000000000000000000000000000000000000000000000000000000000000000000000000000000000000000PES00010000001 00000000000000000000000
201505280060000100000000000000019494000000000000000194949611111111111111111111CONSUMIDOR-FINAL              000000000132500000000000000000000000000000000000000000000000000000000000000000000000000000000000000000000000000000000000PES00010000001 00000000000000000000000
201505280060000100000000000000019495000000000000000194959611111111111111111111CONSUMIDOR-FINAL              000000000036500000000000000000000000000000000000000000000000000000000000000000000000000000000000000000000000000000000000PES00010000001 00000000000000000000000
201505280060000100000000000000019496000000000000000194969611111111111111111111CONSUMIDOR-FINAL              000000000044000000000000000000000000000000000000000000000000000000000000000000000000000000000000000000000000000000000000PES00010000001 00000000000000000000000
201505280060000100000000000000019497000000000000000194979611111111111111111111CONSUMIDOR-FINAL              000000000043500000000000000000000000000000000000000000000000000000000000000000000000000000000000000000000000000000000000PES00010000001 00000000000000000000000
201505280060000100000000000000019498000000000000000194989611111111111111111111CONSUMIDOR-FINAL              000000000052000000000000000000000000000000000000000000000000000000000000000000000000000000000000000000000000000000000000PES00010000001 00000000000000000000000
201505290060000100000000000000019499000000000000000194999611111111111111111111CONSUMIDOR-FINAL              000000000026500000000000000000000000000000000000000000000000000000000000000000000000000000000000000000000000000000000000PES00010000001 00000000000000000000000
201505290060000100000000000000019500000000000000000195009611111111111111111111CONSUMIDOR-FINAL              000000000043500000000000000000000000000000000000000000000000000000000000000000000000000000000000000000000000000000000000PES00010000001 00000000000000000000000
201505290060000100000000000000019501000000000000000195019611111111111111111111CONSUMIDOR-FINAL              000000000028000000000000000000000000000000000000000000000000000000000000000000000000000000000000000000000000000000000000PES00010000001 00000000000000000000000
201505290060000100000000000000019502000000000000000195029611111111111111111111CONSUMIDOR-FINAL              000000000092000000000000000000000000000000000000000000000000000000000000000000000000000000000000000000000000000000000000PES00010000001 00000000000000000000000
201505290060000100000000000000019503000000000000000195039611111111111111111111CONSUMIDOR-FINAL              000000000015300000000000000000000000000000000000000000000000000000000000000000000000000000000000000000000000000000000000PES00010000001 00000000000000000000000
201505290060000100000000000000019504000000000000000195049611111111111111111111CONSUMIDOR-FINAL              000000000047500000000000000000000000000000000000000000000000000000000000000000000000000000000000000000000000000000000000PES00010000001 00000000000000000000000
201505290060000100000000000000019505000000000000000195059611111111111111111111CONSUMIDOR-FINAL              000000000051200000000000000000000000000000000000000000000000000000000000000000000000000000000000000000000000000000000000PES00010000001 00000000000000000000000
201505290060000100000000000000019506000000000000000195069611111111111111111111CONSUMIDOR-FINAL              000000000021500000000000000000000000000000000000000000000000000000000000000000000000000000000000000000000000000000000000PES00010000001 00000000000000000000000
201505290060000100000000000000019507000000000000000195079611111111111111111111CONSUMIDOR-FINAL              000000000048700000000000000000000000000000000000000000000000000000000000000000000000000000000000000000000000000000000000PES00010000001 00000000000000000000000
201505290060000100000000000000019508000000000000000195089611111111111111111111CONSUMIDOR-FINAL              000000000043500000000000000000000000000000000000000000000000000000000000000000000000000000000000000000000000000000000000PES00010000001 00000000000000000000000
201505290060000100000000000000019509000000000000000195099611111111111111111111CONSUMIDOR-FINAL              000000000124500000000000000000000000000000000000000000000000000000000000000000000000000000000000000000000000000000000000PES00010000001 00000000000000000000000
201505290060000100000000000000019510000000000000000195109611111111111111111111CONSUMIDOR-FINAL              000000000063500000000000000000000000000000000000000000000000000000000000000000000000000000000000000000000000000000000000PES00010000001 00000000000000000000000
201505290060000100000000000000019511000000000000000195119611111111111111111111CONSUMIDOR-FINAL              000000000019000000000000000000000000000000000000000000000000000000000000000000000000000000000000000000000000000000000000PES00010000001 00000000000000000000000
201505290060000100000000000000019512000000000000000195129611111111111111111111CONSUMIDOR-FINAL              000000000037800000000000000000000000000000000000000000000000000000000000000000000000000000000000000000000000000000000000PES00010000001 00000000000000000000000
201505290060000100000000000000019513000000000000000195139611111111111111111111CONSUMIDOR-FINAL              000000000042000000000000000000000000000000000000000000000000000000000000000000000000000000000000000000000000000000000000PES00010000001 00000000000000000000000
201505290060000100000000000000019514000000000000000195149611111111111111111111CONSUMIDOR-FINAL              000000000067200000000000000000000000000000000000000000000000000000000000000000000000000000000000000000000000000000000000PES00010000001 00000000000000000000000
201505290060000100000000000000019515000000000000000195159611111111111111111111CONSUMIDOR-FINAL              000000000059000000000000000000000000000000000000000000000000000000000000000000000000000000000000000000000000000000000000PES00010000001 00000000000000000000000
201505290060000100000000000000019516000000000000000195169611111111111111111111CONSUMIDOR-FINAL              000000000045700000000000000000000000000000000000000000000000000000000000000000000000000000000000000000000000000000000000PES00010000001 00000000000000000000000
201505290060000100000000000000019517000000000000000195179611111111111111111111CONSUMIDOR-FINAL              000000000029100000000000000000000000000000000000000000000000000000000000000000000000000000000000000000000000000000000000PES00010000001 00000000000000000000000
201505290060000100000000000000019518000000000000000195189611111111111111111111CONSUMIDOR-FINAL              000000000026300000000000000000000000000000000000000000000000000000000000000000000000000000000000000000000000000000000000PES00010000001 00000000000000000000000
201505290060000100000000000000019519000000000000000195199611111111111111111111CONSUMIDOR-FINAL              000000000015500000000000000000000000000000000000000000000000000000000000000000000000000000000000000000000000000000000000PES00010000001 00000000000000000000000
201505290060000100000000000000019520000000000000000195209611111111111111111111CONSUMIDOR-FINAL              000000000038500000000000000000000000000000000000000000000000000000000000000000000000000000000000000000000000000000000000PES00010000001 00000000000000000000000
201505290060000100000000000000019521000000000000000195219611111111111111111111CONSUMIDOR-FINAL              000000000011000000000000000000000000000000000000000000000000000000000000000000000000000000000000000000000000000000000000PES00010000001 00000000000000000000000
