201508190010000100000000000000001000000000000000000010008000000000033691943289-SENDA-TEAM-SRL               000000000206500000000000000000000000000000000000000000000000000000000000000000000000000000000000000000000000000000000000PES00010000001 00000000000000000000000
201508200010000100000000000000001001000000000000000010018000000000030710396899-ESCAPES-NICO-SRL             000000000035500000000000000000000000000000000000000000000000000000000000000000000000000000000000000000000000000000000000PES00010000001 00000000000000000000000
201508220010000100000000000000001002000000000000000010028000000000027163632972TORRES-ALEJANDRA              000000000070000000000000000000000000000000000000000000000000000000000000000000000000000000000000000000000000000000000000PES00010000001 00000000000000000000000
201508220010000100000000000000001003000000000000000010038000000000020249885674PERALTA-CRISTIAN-ALBERTO      000000000416300000000000000000000000000000000000000000000000000000000000000000000000000000000000000000000000000000000000PES00010000001 00000000000000000000000
201508220010000100000000000000001004000000000000000010048000000000030712558578PLANTEROSE-Y-MONTICELLI-SH    000000000066100000000000000000000000000000000000000000000000000000000000000000000000000000000000000000000000000000000000PES00010000001 00000000000000000000000
201508240010000100000000000000001005000000000000000010058000000000030545080172OTAMENDI-Y-CIA-SRL            000000000075000000000000000000000000000000000000000000000000000000000000000000000000000000000000000000000000000000000000PES00010000001 00000000000000000000000
201508260010000100000000000000001006000000000000000010068000000000030714643319MADROAL-MONICA-Y-GROSHAUS-VALE000000000019500000000000000000000000000000000000000000000000000000000000000000000000000000000000000000000000000000000000PES00010000001 00000000000000000000000
201508260010000100000000000000001007000000000000000010078000000000020083963450MARIO-LUCIANO-AMBROSI         000000000127500000000000000000000000000000000000000000000000000000000000000000000000000000000000000000000000000000000000PES00010000001 00000000000000000000000
201508260010000100000000000000001008000000000000000010088000000000030691994844MOTTESI-MATERIALES-SA         000000000055800000000000000000000000000000000000000000000000000000000000000000000000000000000000000000000000000000000000PES00010000001 00000000000000000000000
201508280010000100000000000000001009000000000000000010098000000000033691943289-SENDA-TEAM-SRL               000000000230000000000000000000000000000000000000000000000000000000000000000000000000000000000000000000000000000000000000PES00010000001 00000000000000000000000
201508310010000100000000000000001010000000000000000010108000000000030710580460ULLOA-ENDRINAL-SH             000000000085500000000000000000000000000000000000000000000000000000000000000000000000000000000000000000000000000000000000PES00010000001 00000000000000000000000
201508010060000100000000000000020518000000000000000205189611111111111111111111CONSUMIDOR-FINAL              000000000086900000000000000000000000000000000000000000000000000000000000000000000000000000000000000000000000000000000000PES00010000001 00000000000000000000000
201508010060000100000000000000020519000000000000000205199611111111111111111111CONSUMIDOR-FINAL              000000000021500000000000000000000000000000000000000000000000000000000000000000000000000000000000000000000000000000000000PES00010000001 00000000000000000000000
201508010060000100000000000000020520000000000000000205209611111111111111111111CONSUMIDOR-FINAL              000000000022500000000000000000000000000000000000000000000000000000000000000000000000000000000000000000000000000000000000PES00010000001 00000000000000000000000
201508010060000100000000000000020521000000000000000205219611111111111111111111CONSUMIDOR-FINAL              000000000027000000000000000000000000000000000000000000000000000000000000000000000000000000000000000000000000000000000000PES00010000001 00000000000000000000000
201508010060000100000000000000020522000000000000000205229611111111111111111111CONSUMIDOR-FINAL              000000000009000000000000000000000000000000000000000000000000000000000000000000000000000000000000000000000000000000000000PES00010000001 00000000000000000000000
201508010060000100000000000000020523000000000000000205239611111111111111111111CONSUMIDOR-FINAL              000000000048500000000000000000000000000000000000000000000000000000000000000000000000000000000000000000000000000000000000PES00010000001 00000000000000000000000
201508010060000100000000000000020524000000000000000205249611111111111111111111CONSUMIDOR-FINAL              000000000075000000000000000000000000000000000000000000000000000000000000000000000000000000000000000000000000000000000000PES00010000001 00000000000000000000000
201508010060000100000000000000020525000000000000000205259611111111111111111111CONSUMIDOR-FINAL              000000000065000000000000000000000000000000000000000000000000000000000000000000000000000000000000000000000000000000000000PES00010000001 00000000000000000000000
201508010060000100000000000000020526000000000000000205269611111111111111111111CONSUMIDOR-FINAL              000000000048500000000000000000000000000000000000000000000000000000000000000000000000000000000000000000000000000000000000PES00010000001 00000000000000000000000
201508010060000100000000000000020527000000000000000205279611111111111111111111CONSUMIDOR-FINAL              000000000015000000000000000000000000000000000000000000000000000000000000000000000000000000000000000000000000000000000000PES00010000001 00000000000000000000000
201508010060000100000000000000020528000000000000000205289611111111111111111111CONSUMIDOR-FINAL              000000000037000000000000000000000000000000000000000000000000000000000000000000000000000000000000000000000000000000000000PES00010000001 00000000000000000000000
201508010060000100000000000000020529000000000000000205299611111111111111111111CONSUMIDOR-FINAL              000000000123400000000000000000000000000000000000000000000000000000000000000000000000000000000000000000000000000000000000PES00010000001 00000000000000000000000
201508010060000100000000000000020530000000000000000205309611111111111111111111CONSUMIDOR-FINAL              000000000119000000000000000000000000000000000000000000000000000000000000000000000000000000000000000000000000000000000000PES00010000001 00000000000000000000000
201508010060000100000000000000020531000000000000000205319611111111111111111111CONSUMIDOR-FINAL              000000000102000000000000000000000000000000000000000000000000000000000000000000000000000000000000000000000000000000000000PES00010000001 00000000000000000000000
201508010060000100000000000000020532000000000000000205329611111111111111111111CONSUMIDOR-FINAL              000000000091500000000000000000000000000000000000000000000000000000000000000000000000000000000000000000000000000000000000PES00010000001 00000000000000000000000
201508010060000100000000000000020533000000000000000205339611111111111111111111CONSUMIDOR-FINAL              000000000097000000000000000000000000000000000000000000000000000000000000000000000000000000000000000000000000000000000000PES00010000001 00000000000000000000000
201508010060000100000000000000020534000000000000000205349611111111111111111111CONSUMIDOR-FINAL              000000000024800000000000000000000000000000000000000000000000000000000000000000000000000000000000000000000000000000000000PES00010000001 00000000000000000000000
201508010060000100000000000000020535000000000000000205359611111111111111111111CONSUMIDOR-FINAL              000000000211500000000000000000000000000000000000000000000000000000000000000000000000000000000000000000000000000000000000PES00010000001 00000000000000000000000
201508010060000100000000000000020536000000000000000205369611111111111111111111CONSUMIDOR-FINAL              000000000260500000000000000000000000000000000000000000000000000000000000000000000000000000000000000000000000000000000000PES00010000001 00000000000000000000000
201508010060000100000000000000020537000000000000000205379611111111111111111111CONSUMIDOR-FINAL              000000000026000000000000000000000000000000000000000000000000000000000000000000000000000000000000000000000000000000000000PES00010000001 00000000000000000000000
201508010060000100000000000000020538000000000000000205389611111111111111111111CONSUMIDOR-FINAL              000000000056300000000000000000000000000000000000000000000000000000000000000000000000000000000000000000000000000000000000PES00010000001 00000000000000000000000
201508010060000100000000000000020539000000000000000205399611111111111111111111CONSUMIDOR-FINAL              000000000319000000000000000000000000000000000000000000000000000000000000000000000000000000000000000000000000000000000000PES00010000001 00000000000000000000000
201508010060000100000000000000020540000000000000000205409611111111111111111111CONSUMIDOR-FINAL              000000000605500000000000000000000000000000000000000000000000000000000000000000000000000000000000000000000000000000000000PES00010000001 00000000000000000000000
201508010060000100000000000000020541000000000000000205419611111111111111111111CONSUMIDOR-FINAL              000000000033000000000000000000000000000000000000000000000000000000000000000000000000000000000000000000000000000000000000PES00010000001 00000000000000000000000
201508010060000100000000000000020542000000000000000205429611111111111111111111CONSUMIDOR-FINAL              000000000055500000000000000000000000000000000000000000000000000000000000000000000000000000000000000000000000000000000000PES00010000001 00000000000000000000000
201508010060000100000000000000020543000000000000000205439611111111111111111111CONSUMIDOR-FINAL              000000000047500000000000000000000000000000000000000000000000000000000000000000000000000000000000000000000000000000000000PES00010000001 00000000000000000000000
201508010060000100000000000000020544000000000000000205449611111111111111111111CONSUMIDOR-FINAL              000000000093500000000000000000000000000000000000000000000000000000000000000000000000000000000000000000000000000000000000PES00010000001 00000000000000000000000
201508010060000100000000000000020545000000000000000205459611111111111111111111CONSUMIDOR-FINAL              000000000077300000000000000000000000000000000000000000000000000000000000000000000000000000000000000000000000000000000000PES00010000001 00000000000000000000000
201508010060000100000000000000020546000000000000000205469611111111111111111111CONSUMIDOR-FINAL              000000000137400000000000000000000000000000000000000000000000000000000000000000000000000000000000000000000000000000000000PES00010000001 00000000000000000000000
201508010060000100000000000000020547000000000000000205479611111111111111111111CONSUMIDOR-FINAL              000000000060000000000000000000000000000000000000000000000000000000000000000000000000000000000000000000000000000000000000PES00010000001 00000000000000000000000
201508010060000100000000000000020548000000000000000205489611111111111111111111CONSUMIDOR-FINAL              000000000100000000000000000000000000000000000000000000000000000000000000000000000000000000000000000000000000000000000000PES00010000001 00000000000000000000000
201508010060000100000000000000020549000000000000000205499611111111111111111111CONSUMIDOR-FINAL              000000000144500000000000000000000000000000000000000000000000000000000000000000000000000000000000000000000000000000000000PES00010000001 00000000000000000000000
201508010060000100000000000000020550000000000000000205509611111111111111111111CONSUMIDOR-FINAL              000000000005500000000000000000000000000000000000000000000000000000000000000000000000000000000000000000000000000000000000PES00010000001 00000000000000000000000
201508010060000100000000000000020551000000000000000205519611111111111111111111CONSUMIDOR-FINAL              000000000032500000000000000000000000000000000000000000000000000000000000000000000000000000000000000000000000000000000000PES00010000001 00000000000000000000000
201508010060000100000000000000020552000000000000000205529611111111111111111111CONSUMIDOR-FINAL              000000000025200000000000000000000000000000000000000000000000000000000000000000000000000000000000000000000000000000000000PES00010000001 00000000000000000000000
201508010060000100000000000000020553000000000000000205539611111111111111111111CONSUMIDOR-FINAL              000000000019000000000000000000000000000000000000000000000000000000000000000000000000000000000000000000000000000000000000PES00010000001 00000000000000000000000
201508010060000100000000000000020554000000000000000205549611111111111111111111CONSUMIDOR-FINAL              000000000032500000000000000000000000000000000000000000000000000000000000000000000000000000000000000000000000000000000000PES00010000001 00000000000000000000000
201508010060000100000000000000020555000000000000000205559611111111111111111111CONSUMIDOR-FINAL              000000000057500000000000000000000000000000000000000000000000000000000000000000000000000000000000000000000000000000000000PES00010000001 00000000000000000000000
201508010060000100000000000000020556000000000000000205569611111111111111111111CONSUMIDOR-FINAL              000000000044000000000000000000000000000000000000000000000000000000000000000000000000000000000000000000000000000000000000PES00010000001 00000000000000000000000
201508010060000100000000000000020557000000000000000205579611111111111111111111CONSUMIDOR-FINAL              000000000016000000000000000000000000000000000000000000000000000000000000000000000000000000000000000000000000000000000000PES00010000001 00000000000000000000000
201508010060000100000000000000020558000000000000000205589611111111111111111111CONSUMIDOR-FINAL              000000000019000000000000000000000000000000000000000000000000000000000000000000000000000000000000000000000000000000000000PES00010000001 00000000000000000000000
201508010060000100000000000000020559000000000000000205599611111111111111111111CONSUMIDOR-FINAL              000000000017500000000000000000000000000000000000000000000000000000000000000000000000000000000000000000000000000000000000PES00010000001 00000000000000000000000
201508010060000100000000000000020560000000000000000205609611111111111111111111CONSUMIDOR-FINAL              000000000029700000000000000000000000000000000000000000000000000000000000000000000000000000000000000000000000000000000000PES00010000001 00000000000000000000000
201508030060000100000000000000020561000000000000000205619611111111111111111111CONSUMIDOR-FINAL              000000000051500000000000000000000000000000000000000000000000000000000000000000000000000000000000000000000000000000000000PES00010000001 00000000000000000000000
201508030060000100000000000000020562000000000000000205629611111111111111111111CONSUMIDOR-FINAL              000000000056000000000000000000000000000000000000000000000000000000000000000000000000000000000000000000000000000000000000PES00010000001 00000000000000000000000
201508030060000100000000000000020563000000000000000205639611111111111111111111CONSUMIDOR-FINAL              000000000072000000000000000000000000000000000000000000000000000000000000000000000000000000000000000000000000000000000000PES00010000001 00000000000000000000000
201508030060000100000000000000020564000000000000000205649611111111111111111111CONSUMIDOR-FINAL              000000000052500000000000000000000000000000000000000000000000000000000000000000000000000000000000000000000000000000000000PES00010000001 00000000000000000000000
201508030060000100000000000000020565000000000000000205659611111111111111111111CONSUMIDOR-FINAL              000000000041500000000000000000000000000000000000000000000000000000000000000000000000000000000000000000000000000000000000PES00010000001 00000000000000000000000
201508030060000100000000000000020566000000000000000205669611111111111111111111CONSUMIDOR-FINAL              000000000058000000000000000000000000000000000000000000000000000000000000000000000000000000000000000000000000000000000000PES00010000001 00000000000000000000000
201508040060000100000000000000020567000000000000000205679611111111111111111111CONSUMIDOR-FINAL              000000000042500000000000000000000000000000000000000000000000000000000000000000000000000000000000000000000000000000000000PES00010000001 00000000000000000000000
201508040060000100000000000000020568000000000000000205689611111111111111111111CONSUMIDOR-FINAL              000000000055300000000000000000000000000000000000000000000000000000000000000000000000000000000000000000000000000000000000PES00010000001 00000000000000000000000
201508040060000100000000000000020569000000000000000205699611111111111111111111CONSUMIDOR-FINAL              000000000039000000000000000000000000000000000000000000000000000000000000000000000000000000000000000000000000000000000000PES00010000001 00000000000000000000000
201508040060000100000000000000020570000000000000000205709611111111111111111111CONSUMIDOR-FINAL              000000000013000000000000000000000000000000000000000000000000000000000000000000000000000000000000000000000000000000000000PES00010000001 00000000000000000000000
201508040060000100000000000000020571000000000000000205719611111111111111111111CONSUMIDOR-FINAL              000000000042000000000000000000000000000000000000000000000000000000000000000000000000000000000000000000000000000000000000PES00010000001 00000000000000000000000
201508040060000100000000000000020572000000000000000205729611111111111111111111CONSUMIDOR-FINAL              000000000032500000000000000000000000000000000000000000000000000000000000000000000000000000000000000000000000000000000000PES00010000001 00000000000000000000000
201508040060000100000000000000020573000000000000000205739611111111111111111111CONSUMIDOR-FINAL              000000000191500000000000000000000000000000000000000000000000000000000000000000000000000000000000000000000000000000000000PES00010000001 00000000000000000000000
201508040060000100000000000000020574000000000000000205749611111111111111111111CONSUMIDOR-FINAL              000000001084000000000000000000000000000000000000000000000000000000000000000000000000000000000000000000000000000000000000PES00010000001 00000000000000000000000
201508040060000100000000000000020575000000000000000205759611111111111111111111CONSUMIDOR-FINAL              000000000027000000000000000000000000000000000000000000000000000000000000000000000000000000000000000000000000000000000000PES00010000001 00000000000000000000000
201508040060000100000000000000020576000000000000000205769611111111111111111111CONSUMIDOR-FINAL              000000000276600000000000000000000000000000000000000000000000000000000000000000000000000000000000000000000000000000000000PES00010000001 00000000000000000000000
201508040060000100000000000000020577000000000000000205779611111111111111111111CONSUMIDOR-FINAL              000000000074500000000000000000000000000000000000000000000000000000000000000000000000000000000000000000000000000000000000PES00010000001 00000000000000000000000
201508040060000100000000000000020578000000000000000205789611111111111111111111CONSUMIDOR-FINAL              000000000175000000000000000000000000000000000000000000000000000000000000000000000000000000000000000000000000000000000000PES00010000001 00000000000000000000000
201508040060000100000000000000020579000000000000000205799611111111111111111111CONSUMIDOR-FINAL              000000000128000000000000000000000000000000000000000000000000000000000000000000000000000000000000000000000000000000000000PES00010000001 00000000000000000000000
201508040060000100000000000000020580000000000000000205809611111111111111111111CONSUMIDOR-FINAL              000000000065000000000000000000000000000000000000000000000000000000000000000000000000000000000000000000000000000000000000PES00010000001 00000000000000000000000
201508040060000100000000000000020581000000000000000205819611111111111111111111CONSUMIDOR-FINAL              000000000104500000000000000000000000000000000000000000000000000000000000000000000000000000000000000000000000000000000000PES00010000001 00000000000000000000000
201508040060000100000000000000020582000000000000000205829611111111111111111111CONSUMIDOR-FINAL              000000002296700000000000000000000000000000000000000000000000000000000000000000000000000000000000000000000000000000000000PES00010000001 00000000000000000000000
201508050060000100000000000000020583000000000000000205839611111111111111111111CONSUMIDOR-FINAL              000000000018500000000000000000000000000000000000000000000000000000000000000000000000000000000000000000000000000000000000PES00010000001 00000000000000000000000
201508050060000100000000000000020584000000000000000205849611111111111111111111CONSUMIDOR-FINAL              000000000016500000000000000000000000000000000000000000000000000000000000000000000000000000000000000000000000000000000000PES00010000001 00000000000000000000000
201508050060000100000000000000020585000000000000000205859611111111111111111111CONSUMIDOR-FINAL              000000000033000000000000000000000000000000000000000000000000000000000000000000000000000000000000000000000000000000000000PES00010000001 00000000000000000000000
201508050060000100000000000000020586000000000000000205869611111111111111111111CONSUMIDOR-FINAL              000000000026000000000000000000000000000000000000000000000000000000000000000000000000000000000000000000000000000000000000PES00010000001 00000000000000000000000
201508050060000100000000000000020587000000000000000205879611111111111111111111CONSUMIDOR-FINAL              000000000094600000000000000000000000000000000000000000000000000000000000000000000000000000000000000000000000000000000000PES00010000001 00000000000000000000000
201508050060000100000000000000020588000000000000000205889611111111111111111111CONSUMIDOR-FINAL              000000000076300000000000000000000000000000000000000000000000000000000000000000000000000000000000000000000000000000000000PES00010000001 00000000000000000000000
201508050060000100000000000000020589000000000000000205899611111111111111111111CONSUMIDOR-FINAL              000000000036500000000000000000000000000000000000000000000000000000000000000000000000000000000000000000000000000000000000PES00010000001 00000000000000000000000
201508050060000100000000000000020590000000000000000205909611111111111111111111CONSUMIDOR-FINAL              000000000042000000000000000000000000000000000000000000000000000000000000000000000000000000000000000000000000000000000000PES00010000001 00000000000000000000000
201508050060000100000000000000020591000000000000000205919611111111111111111111CONSUMIDOR-FINAL              000000000033000000000000000000000000000000000000000000000000000000000000000000000000000000000000000000000000000000000000PES00010000001 00000000000000000000000
201508050060000100000000000000020592000000000000000205929611111111111111111111CONSUMIDOR-FINAL              000000000053500000000000000000000000000000000000000000000000000000000000000000000000000000000000000000000000000000000000PES00010000001 00000000000000000000000
201508050060000100000000000000020593000000000000000205939611111111111111111111CONSUMIDOR-FINAL              000000000041000000000000000000000000000000000000000000000000000000000000000000000000000000000000000000000000000000000000PES00010000001 00000000000000000000000
201508060060000100000000000000020595000000000000000205959611111111111111111111CONSUMIDOR-FINAL              000000000046000000000000000000000000000000000000000000000000000000000000000000000000000000000000000000000000000000000000PES00010000001 00000000000000000000000
201508060060000100000000000000020596000000000000000205969611111111111111111111CONSUMIDOR-FINAL              000000000034500000000000000000000000000000000000000000000000000000000000000000000000000000000000000000000000000000000000PES00010000001 00000000000000000000000
201508060060000100000000000000020597000000000000000205979611111111111111111111CONSUMIDOR-FINAL              000000000005000000000000000000000000000000000000000000000000000000000000000000000000000000000000000000000000000000000000PES00010000001 00000000000000000000000
201508060060000100000000000000020598000000000000000205989611111111111111111111CONSUMIDOR-FINAL              000000000053000000000000000000000000000000000000000000000000000000000000000000000000000000000000000000000000000000000000PES00010000001 00000000000000000000000
201508060060000100000000000000020599000000000000000205999611111111111111111111CONSUMIDOR-FINAL              000000000061000000000000000000000000000000000000000000000000000000000000000000000000000000000000000000000000000000000000PES00010000001 00000000000000000000000
201508060060000100000000000000020600000000000000000206009611111111111111111111CONSUMIDOR-FINAL              000000000012000000000000000000000000000000000000000000000000000000000000000000000000000000000000000000000000000000000000PES00010000001 00000000000000000000000
201508060060000100000000000000020601000000000000000206019611111111111111111111CONSUMIDOR-FINAL              000000000015000000000000000000000000000000000000000000000000000000000000000000000000000000000000000000000000000000000000PES00010000001 00000000000000000000000
201508060060000100000000000000020602000000000000000206029611111111111111111111CONSUMIDOR-FINAL              000000000036000000000000000000000000000000000000000000000000000000000000000000000000000000000000000000000000000000000000PES00010000001 00000000000000000000000
201508060060000100000000000000020603000000000000000206039611111111111111111111CONSUMIDOR-FINAL              000000000027500000000000000000000000000000000000000000000000000000000000000000000000000000000000000000000000000000000000PES00010000001 00000000000000000000000
201508060060000100000000000000020604000000000000000206049611111111111111111111CONSUMIDOR-FINAL              000000000012500000000000000000000000000000000000000000000000000000000000000000000000000000000000000000000000000000000000PES00010000001 00000000000000000000000
201508060060000100000000000000020605000000000000000206059611111111111111111111CONSUMIDOR-FINAL              000000000067500000000000000000000000000000000000000000000000000000000000000000000000000000000000000000000000000000000000PES00010000001 00000000000000000000000
201508060060000100000000000000020606000000000000000206069611111111111111111111CONSUMIDOR-FINAL              000000000015000000000000000000000000000000000000000000000000000000000000000000000000000000000000000000000000000000000000PES00010000001 00000000000000000000000
201508060060000100000000000000020607000000000000000206079611111111111111111111CONSUMIDOR-FINAL              000000000030000000000000000000000000000000000000000000000000000000000000000000000000000000000000000000000000000000000000PES00010000001 00000000000000000000000
201508060060000100000000000000020608000000000000000206089611111111111111111111CONSUMIDOR-FINAL              000000000027000000000000000000000000000000000000000000000000000000000000000000000000000000000000000000000000000000000000PES00010000001 00000000000000000000000
201508060060000100000000000000020609000000000000000206099611111111111111111111CONSUMIDOR-FINAL              000000000014000000000000000000000000000000000000000000000000000000000000000000000000000000000000000000000000000000000000PES00010000001 00000000000000000000000
201508060060000100000000000000020610000000000000000206109611111111111111111111CONSUMIDOR-FINAL              000000000019000000000000000000000000000000000000000000000000000000000000000000000000000000000000000000000000000000000000PES00010000001 00000000000000000000000
201508060060000100000000000000020611000000000000000206119611111111111111111111CONSUMIDOR-FINAL              000000000015000000000000000000000000000000000000000000000000000000000000000000000000000000000000000000000000000000000000PES00010000001 00000000000000000000000
201508060060000100000000000000020612000000000000000206129611111111111111111111CONSUMIDOR-FINAL              000000000019500000000000000000000000000000000000000000000000000000000000000000000000000000000000000000000000000000000000PES00010000001 00000000000000000000000
201508060060000100000000000000020613000000000000000206139611111111111111111111CONSUMIDOR-FINAL              000000000051500000000000000000000000000000000000000000000000000000000000000000000000000000000000000000000000000000000000PES00010000001 00000000000000000000000
201508060060000100000000000000020614000000000000000206149611111111111111111111CONSUMIDOR-FINAL              000000000094500000000000000000000000000000000000000000000000000000000000000000000000000000000000000000000000000000000000PES00010000001 00000000000000000000000
201508070060000100000000000000020615000000000000000206159611111111111111111111CONSUMIDOR-FINAL              000000000023300000000000000000000000000000000000000000000000000000000000000000000000000000000000000000000000000000000000PES00010000001 00000000000000000000000
201508070060000100000000000000020616000000000000000206169611111111111111111111CONSUMIDOR-FINAL              000000000019000000000000000000000000000000000000000000000000000000000000000000000000000000000000000000000000000000000000PES00010000001 00000000000000000000000
201508070060000100000000000000020617000000000000000206179611111111111111111111CONSUMIDOR-FINAL              000000000028500000000000000000000000000000000000000000000000000000000000000000000000000000000000000000000000000000000000PES00010000001 00000000000000000000000
201508070060000100000000000000020618000000000000000206189611111111111111111111CONSUMIDOR-FINAL              000000000039000000000000000000000000000000000000000000000000000000000000000000000000000000000000000000000000000000000000PES00010000001 00000000000000000000000
201508070060000100000000000000020619000000000000000206199611111111111111111111CONSUMIDOR-FINAL              000000000030000000000000000000000000000000000000000000000000000000000000000000000000000000000000000000000000000000000000PES00010000001 00000000000000000000000
201508070060000100000000000000020620000000000000000206209611111111111111111111CONSUMIDOR-FINAL              000000000031500000000000000000000000000000000000000000000000000000000000000000000000000000000000000000000000000000000000PES00010000001 00000000000000000000000
201508070060000100000000000000020621000000000000000206219611111111111111111111CONSUMIDOR-FINAL              000000000401800000000000000000000000000000000000000000000000000000000000000000000000000000000000000000000000000000000000PES00010000001 00000000000000000000000
201508070060000100000000000000020622000000000000000206229611111111111111111111CONSUMIDOR-FINAL              000000000047300000000000000000000000000000000000000000000000000000000000000000000000000000000000000000000000000000000000PES00010000001 00000000000000000000000
201508070060000100000000000000020623000000000000000206239611111111111111111111CONSUMIDOR-FINAL              000000000106000000000000000000000000000000000000000000000000000000000000000000000000000000000000000000000000000000000000PES00010000001 00000000000000000000000
201508070060000100000000000000020624000000000000000206249611111111111111111111CONSUMIDOR-FINAL              000000000123000000000000000000000000000000000000000000000000000000000000000000000000000000000000000000000000000000000000PES00010000001 00000000000000000000000
201508070060000100000000000000020625000000000000000206259611111111111111111111CONSUMIDOR-FINAL              000000000009800000000000000000000000000000000000000000000000000000000000000000000000000000000000000000000000000000000000PES00010000001 00000000000000000000000
201508070060000100000000000000020626000000000000000206269611111111111111111111CONSUMIDOR-FINAL              000000000089500000000000000000000000000000000000000000000000000000000000000000000000000000000000000000000000000000000000PES00010000001 00000000000000000000000
201508070060000100000000000000020627000000000000000206279611111111111111111111CONSUMIDOR-FINAL              000000000040000000000000000000000000000000000000000000000000000000000000000000000000000000000000000000000000000000000000PES00010000001 00000000000000000000000
201508070060000100000000000000020628000000000000000206289611111111111111111111CONSUMIDOR-FINAL              000000000045000000000000000000000000000000000000000000000000000000000000000000000000000000000000000000000000000000000000PES00010000001 00000000000000000000000
201508070060000100000000000000020629000000000000000206299611111111111111111111CONSUMIDOR-FINAL              000000000012500000000000000000000000000000000000000000000000000000000000000000000000000000000000000000000000000000000000PES00010000001 00000000000000000000000
201508070060000100000000000000020630000000000000000206309611111111111111111111CONSUMIDOR-FINAL              000000000924500000000000000000000000000000000000000000000000000000000000000000000000000000000000000000000000000000000000PES00010000001 00000000000000000000000
201508070060000100000000000000020631000000000000000206319611111111111111111111CONSUMIDOR-FINAL              000000000113500000000000000000000000000000000000000000000000000000000000000000000000000000000000000000000000000000000000PES00010000001 00000000000000000000000
201508070060000100000000000000020632000000000000000206329611111111111111111111CONSUMIDOR-FINAL              000000000086500000000000000000000000000000000000000000000000000000000000000000000000000000000000000000000000000000000000PES00010000001 00000000000000000000000
201508070060000100000000000000020633000000000000000206339611111111111111111111CONSUMIDOR-FINAL              000000000104500000000000000000000000000000000000000000000000000000000000000000000000000000000000000000000000000000000000PES00010000001 00000000000000000000000
201508070060000100000000000000020634000000000000000206349611111111111111111111CONSUMIDOR-FINAL              000000000061000000000000000000000000000000000000000000000000000000000000000000000000000000000000000000000000000000000000PES00010000001 00000000000000000000000
201508070060000100000000000000020635000000000000000206359611111111111111111111CONSUMIDOR-FINAL              000000000026000000000000000000000000000000000000000000000000000000000000000000000000000000000000000000000000000000000000PES00010000001 00000000000000000000000
201508070060000100000000000000020636000000000000000206369611111111111111111111CONSUMIDOR-FINAL              000000000065500000000000000000000000000000000000000000000000000000000000000000000000000000000000000000000000000000000000PES00010000001 00000000000000000000000
201508080060000100000000000000020637000000000000000206379611111111111111111111CONSUMIDOR-FINAL              000000000115000000000000000000000000000000000000000000000000000000000000000000000000000000000000000000000000000000000000PES00010000001 00000000000000000000000
201508080060000100000000000000020638000000000000000206389611111111111111111111CONSUMIDOR-FINAL              000000000085500000000000000000000000000000000000000000000000000000000000000000000000000000000000000000000000000000000000PES00010000001 00000000000000000000000
201508080060000100000000000000020639000000000000000206399611111111111111111111CONSUMIDOR-FINAL              000000000125000000000000000000000000000000000000000000000000000000000000000000000000000000000000000000000000000000000000PES00010000001 00000000000000000000000
201508080060000100000000000000020640000000000000000206409611111111111111111111CONSUMIDOR-FINAL              000000000072000000000000000000000000000000000000000000000000000000000000000000000000000000000000000000000000000000000000PES00010000001 00000000000000000000000
201508080060000100000000000000020641000000000000000206419611111111111111111111CONSUMIDOR-FINAL              000000000075300000000000000000000000000000000000000000000000000000000000000000000000000000000000000000000000000000000000PES00010000001 00000000000000000000000
201508080060000100000000000000020642000000000000000206429611111111111111111111CONSUMIDOR-FINAL              000000000021000000000000000000000000000000000000000000000000000000000000000000000000000000000000000000000000000000000000PES00010000001 00000000000000000000000
201508080060000100000000000000020643000000000000000206439611111111111111111111CONSUMIDOR-FINAL              000000000057500000000000000000000000000000000000000000000000000000000000000000000000000000000000000000000000000000000000PES00010000001 00000000000000000000000
201508080060000100000000000000020644000000000000000206449611111111111111111111CONSUMIDOR-FINAL              000000000108500000000000000000000000000000000000000000000000000000000000000000000000000000000000000000000000000000000000PES00010000001 00000000000000000000000
201508080060000100000000000000020645000000000000000206459611111111111111111111CONSUMIDOR-FINAL              000000000041400000000000000000000000000000000000000000000000000000000000000000000000000000000000000000000000000000000000PES00010000001 00000000000000000000000
201508080060000100000000000000020646000000000000000206469611111111111111111111CONSUMIDOR-FINAL              000000000009600000000000000000000000000000000000000000000000000000000000000000000000000000000000000000000000000000000000PES00010000001 00000000000000000000000
201508080060000100000000000000020647000000000000000206479611111111111111111111CONSUMIDOR-FINAL              000000000162000000000000000000000000000000000000000000000000000000000000000000000000000000000000000000000000000000000000PES00010000001 00000000000000000000000
201508080060000100000000000000020648000000000000000206489611111111111111111111CONSUMIDOR-FINAL              000000000254500000000000000000000000000000000000000000000000000000000000000000000000000000000000000000000000000000000000PES00010000001 00000000000000000000000
201508080060000100000000000000020649000000000000000206499611111111111111111111CONSUMIDOR-FINAL              000000000040000000000000000000000000000000000000000000000000000000000000000000000000000000000000000000000000000000000000PES00010000001 00000000000000000000000
201508080060000100000000000000020650000000000000000206509611111111111111111111CONSUMIDOR-FINAL              000000000031500000000000000000000000000000000000000000000000000000000000000000000000000000000000000000000000000000000000PES00010000001 00000000000000000000000
201508080060000100000000000000020651000000000000000206519611111111111111111111CONSUMIDOR-FINAL              000000000040300000000000000000000000000000000000000000000000000000000000000000000000000000000000000000000000000000000000PES00010000001 00000000000000000000000
201508080060000100000000000000020652000000000000000206529611111111111111111111CONSUMIDOR-FINAL              000000000201500000000000000000000000000000000000000000000000000000000000000000000000000000000000000000000000000000000000PES00010000001 00000000000000000000000
201508080060000100000000000000020653000000000000000206539611111111111111111111CONSUMIDOR-FINAL              000000000012000000000000000000000000000000000000000000000000000000000000000000000000000000000000000000000000000000000000PES00010000001 00000000000000000000000
201508080060000100000000000000020654000000000000000206549611111111111111111111CONSUMIDOR-FINAL              000000000136500000000000000000000000000000000000000000000000000000000000000000000000000000000000000000000000000000000000PES00010000001 00000000000000000000000
201508080060000100000000000000020655000000000000000206559611111111111111111111CONSUMIDOR-FINAL              000000000064500000000000000000000000000000000000000000000000000000000000000000000000000000000000000000000000000000000000PES00010000001 00000000000000000000000
201508080060000100000000000000020656000000000000000206569611111111111111111111CONSUMIDOR-FINAL              000000000049000000000000000000000000000000000000000000000000000000000000000000000000000000000000000000000000000000000000PES00010000001 00000000000000000000000
201508080060000100000000000000020657000000000000000206579611111111111111111111CONSUMIDOR-FINAL              000000000053200000000000000000000000000000000000000000000000000000000000000000000000000000000000000000000000000000000000PES00010000001 00000000000000000000000
201508080060000100000000000000020658000000000000000206589611111111111111111111CONSUMIDOR-FINAL              000000000091500000000000000000000000000000000000000000000000000000000000000000000000000000000000000000000000000000000000PES00010000001 00000000000000000000000
201508080060000100000000000000020659000000000000000206599611111111111111111111CONSUMIDOR-FINAL              000000000102500000000000000000000000000000000000000000000000000000000000000000000000000000000000000000000000000000000000PES00010000001 00000000000000000000000
201508080060000100000000000000020660000000000000000206609611111111111111111111CONSUMIDOR-FINAL              000000000032500000000000000000000000000000000000000000000000000000000000000000000000000000000000000000000000000000000000PES00010000001 00000000000000000000000
201508080060000100000000000000020661000000000000000206619611111111111111111111CONSUMIDOR-FINAL              000000000099000000000000000000000000000000000000000000000000000000000000000000000000000000000000000000000000000000000000PES00010000001 00000000000000000000000
201508080060000100000000000000020662000000000000000206629611111111111111111111CONSUMIDOR-FINAL              000000000021500000000000000000000000000000000000000000000000000000000000000000000000000000000000000000000000000000000000PES00010000001 00000000000000000000000
201508080060000100000000000000020663000000000000000206639611111111111111111111CONSUMIDOR-FINAL              000000000060400000000000000000000000000000000000000000000000000000000000000000000000000000000000000000000000000000000000PES00010000001 00000000000000000000000
201508080060000100000000000000020664000000000000000206649611111111111111111111CONSUMIDOR-FINAL              000000000072500000000000000000000000000000000000000000000000000000000000000000000000000000000000000000000000000000000000PES00010000001 00000000000000000000000
201508080060000100000000000000020665000000000000000206659611111111111111111111CONSUMIDOR-FINAL              000000000106000000000000000000000000000000000000000000000000000000000000000000000000000000000000000000000000000000000000PES00010000001 00000000000000000000000
201508080060000100000000000000020666000000000000000206669611111111111111111111CONSUMIDOR-FINAL              000000000064300000000000000000000000000000000000000000000000000000000000000000000000000000000000000000000000000000000000PES00010000001 00000000000000000000000
201508100060000100000000000000020667000000000000000206679611111111111111111111CONSUMIDOR-FINAL              000000000083000000000000000000000000000000000000000000000000000000000000000000000000000000000000000000000000000000000000PES00010000001 00000000000000000000000
201508100060000100000000000000020668000000000000000206689611111111111111111111CONSUMIDOR-FINAL              000000000026500000000000000000000000000000000000000000000000000000000000000000000000000000000000000000000000000000000000PES00010000001 00000000000000000000000
201508100060000100000000000000020669000000000000000206699611111111111111111111CONSUMIDOR-FINAL              000000000045500000000000000000000000000000000000000000000000000000000000000000000000000000000000000000000000000000000000PES00010000001 00000000000000000000000
201508100060000100000000000000020670000000000000000206709611111111111111111111CONSUMIDOR-FINAL              000000000017500000000000000000000000000000000000000000000000000000000000000000000000000000000000000000000000000000000000PES00010000001 00000000000000000000000
201508100060000100000000000000020671000000000000000206719611111111111111111111CONSUMIDOR-FINAL              000000000021000000000000000000000000000000000000000000000000000000000000000000000000000000000000000000000000000000000000PES00010000001 00000000000000000000000
201508100060000100000000000000020672000000000000000206729611111111111111111111CONSUMIDOR-FINAL              000000000018200000000000000000000000000000000000000000000000000000000000000000000000000000000000000000000000000000000000PES00010000001 00000000000000000000000
201508100060000100000000000000020673000000000000000206739611111111111111111111CONSUMIDOR-FINAL              000000000283500000000000000000000000000000000000000000000000000000000000000000000000000000000000000000000000000000000000PES00010000001 00000000000000000000000
201508100060000100000000000000020674000000000000000206749611111111111111111111CONSUMIDOR-FINAL              000000000025000000000000000000000000000000000000000000000000000000000000000000000000000000000000000000000000000000000000PES00010000001 00000000000000000000000
201508100060000100000000000000020675000000000000000206759611111111111111111111CONSUMIDOR-FINAL              000000000052300000000000000000000000000000000000000000000000000000000000000000000000000000000000000000000000000000000000PES00010000001 00000000000000000000000
201508100060000100000000000000020676000000000000000206769611111111111111111111CONSUMIDOR-FINAL              000000000087500000000000000000000000000000000000000000000000000000000000000000000000000000000000000000000000000000000000PES00010000001 00000000000000000000000
201508100060000100000000000000020677000000000000000206779611111111111111111111CONSUMIDOR-FINAL              000000000084000000000000000000000000000000000000000000000000000000000000000000000000000000000000000000000000000000000000PES00010000001 00000000000000000000000
201508100060000100000000000000020678000000000000000206789611111111111111111111CONSUMIDOR-FINAL              000000000098000000000000000000000000000000000000000000000000000000000000000000000000000000000000000000000000000000000000PES00010000001 00000000000000000000000
201508100060000100000000000000020679000000000000000206799611111111111111111111CONSUMIDOR-FINAL              000000000124000000000000000000000000000000000000000000000000000000000000000000000000000000000000000000000000000000000000PES00010000001 00000000000000000000000
201508100060000100000000000000020680000000000000000206809611111111111111111111CONSUMIDOR-FINAL              000000000017000000000000000000000000000000000000000000000000000000000000000000000000000000000000000000000000000000000000PES00010000001 00000000000000000000000
201508100060000100000000000000020681000000000000000206819611111111111111111111CONSUMIDOR-FINAL              000000000250500000000000000000000000000000000000000000000000000000000000000000000000000000000000000000000000000000000000PES00010000001 00000000000000000000000
201508100060000100000000000000020682000000000000000206829611111111111111111111CONSUMIDOR-FINAL              000000000101500000000000000000000000000000000000000000000000000000000000000000000000000000000000000000000000000000000000PES00010000001 00000000000000000000000
201508100060000100000000000000020683000000000000000206839611111111111111111111CONSUMIDOR-FINAL              000000000015500000000000000000000000000000000000000000000000000000000000000000000000000000000000000000000000000000000000PES00010000001 00000000000000000000000
201508110060000100000000000000020685000000000000000206859611111111111111111111CONSUMIDOR-FINAL              000000000001000000000000000000000000000000000000000000000000000000000000000000000000000000000000000000000000000000000000PES00010000001 00000000000000000000000
201508110060000100000000000000020686000000000000000206869611111111111111111111CONSUMIDOR-FINAL              000000000047500000000000000000000000000000000000000000000000000000000000000000000000000000000000000000000000000000000000PES00010000001 00000000000000000000000
201508110060000100000000000000020687000000000000000206879611111111111111111111CONSUMIDOR-FINAL              000000000044500000000000000000000000000000000000000000000000000000000000000000000000000000000000000000000000000000000000PES00010000001 00000000000000000000000
201508110060000100000000000000020688000000000000000206889611111111111111111111CONSUMIDOR-FINAL              000000000059000000000000000000000000000000000000000000000000000000000000000000000000000000000000000000000000000000000000PES00010000001 00000000000000000000000
201508110060000100000000000000020689000000000000000206899611111111111111111111CONSUMIDOR-FINAL              000000000009500000000000000000000000000000000000000000000000000000000000000000000000000000000000000000000000000000000000PES00010000001 00000000000000000000000
201508110060000100000000000000020690000000000000000206909611111111111111111111CONSUMIDOR-FINAL              000000000012000000000000000000000000000000000000000000000000000000000000000000000000000000000000000000000000000000000000PES00010000001 00000000000000000000000
201508110060000100000000000000020691000000000000000206919611111111111111111111CONSUMIDOR-FINAL              000000000008500000000000000000000000000000000000000000000000000000000000000000000000000000000000000000000000000000000000PES00010000001 00000000000000000000000
201508110060000100000000000000020692000000000000000206929611111111111111111111CONSUMIDOR-FINAL              000000000085500000000000000000000000000000000000000000000000000000000000000000000000000000000000000000000000000000000000PES00010000001 00000000000000000000000
201508110060000100000000000000020693000000000000000206939611111111111111111111CONSUMIDOR-FINAL              000000000079500000000000000000000000000000000000000000000000000000000000000000000000000000000000000000000000000000000000PES00010000001 00000000000000000000000
201508110060000100000000000000020694000000000000000206949611111111111111111111CONSUMIDOR-FINAL              000000000035000000000000000000000000000000000000000000000000000000000000000000000000000000000000000000000000000000000000PES00010000001 00000000000000000000000
201508110060000100000000000000020695000000000000000206959611111111111111111111CONSUMIDOR-FINAL              000000000033000000000000000000000000000000000000000000000000000000000000000000000000000000000000000000000000000000000000PES00010000001 00000000000000000000000
201508110060000100000000000000020696000000000000000206969611111111111111111111CONSUMIDOR-FINAL              000000000031500000000000000000000000000000000000000000000000000000000000000000000000000000000000000000000000000000000000PES00010000001 00000000000000000000000
201508110060000100000000000000020697000000000000000206979611111111111111111111CONSUMIDOR-FINAL              000000000041000000000000000000000000000000000000000000000000000000000000000000000000000000000000000000000000000000000000PES00010000001 00000000000000000000000
201508110060000100000000000000020698000000000000000206989611111111111111111111CONSUMIDOR-FINAL              000000000020000000000000000000000000000000000000000000000000000000000000000000000000000000000000000000000000000000000000PES00010000001 00000000000000000000000
201508110060000100000000000000020699000000000000000206999611111111111111111111CONSUMIDOR-FINAL              000000000091200000000000000000000000000000000000000000000000000000000000000000000000000000000000000000000000000000000000PES00010000001 00000000000000000000000
201508110060000100000000000000020700000000000000000207009611111111111111111111CONSUMIDOR-FINAL              000000000072000000000000000000000000000000000000000000000000000000000000000000000000000000000000000000000000000000000000PES00010000001 00000000000000000000000
201508110060000100000000000000020701000000000000000207019611111111111111111111CONSUMIDOR-FINAL              000000000032600000000000000000000000000000000000000000000000000000000000000000000000000000000000000000000000000000000000PES00010000001 00000000000000000000000
201508110060000100000000000000020702000000000000000207029611111111111111111111CONSUMIDOR-FINAL              000000000087000000000000000000000000000000000000000000000000000000000000000000000000000000000000000000000000000000000000PES00010000001 00000000000000000000000
201508110060000100000000000000020703000000000000000207039611111111111111111111CONSUMIDOR-FINAL              000000000037500000000000000000000000000000000000000000000000000000000000000000000000000000000000000000000000000000000000PES00010000001 00000000000000000000000
201508120060000100000000000000020704000000000000000207049611111111111111111111CONSUMIDOR-FINAL              000000000019500000000000000000000000000000000000000000000000000000000000000000000000000000000000000000000000000000000000PES00010000001 00000000000000000000000
201508120060000100000000000000020705000000000000000207059611111111111111111111CONSUMIDOR-FINAL              000000000071500000000000000000000000000000000000000000000000000000000000000000000000000000000000000000000000000000000000PES00010000001 00000000000000000000000
201508120060000100000000000000020706000000000000000207069611111111111111111111CONSUMIDOR-FINAL              000000000013500000000000000000000000000000000000000000000000000000000000000000000000000000000000000000000000000000000000PES00010000001 00000000000000000000000
201508120060000100000000000000020707000000000000000207079611111111111111111111CONSUMIDOR-FINAL              000000000035500000000000000000000000000000000000000000000000000000000000000000000000000000000000000000000000000000000000PES00010000001 00000000000000000000000
201508120060000100000000000000020708000000000000000207089611111111111111111111CONSUMIDOR-FINAL              000000000060500000000000000000000000000000000000000000000000000000000000000000000000000000000000000000000000000000000000PES00010000001 00000000000000000000000
201508120060000100000000000000020709000000000000000207099611111111111111111111CONSUMIDOR-FINAL              000000000022500000000000000000000000000000000000000000000000000000000000000000000000000000000000000000000000000000000000PES00010000001 00000000000000000000000
201508120060000100000000000000020710000000000000000207109611111111111111111111CONSUMIDOR-FINAL              000000000039000000000000000000000000000000000000000000000000000000000000000000000000000000000000000000000000000000000000PES00010000001 00000000000000000000000
201508120060000100000000000000020711000000000000000207119611111111111111111111CONSUMIDOR-FINAL              000000000045500000000000000000000000000000000000000000000000000000000000000000000000000000000000000000000000000000000000PES00010000001 00000000000000000000000
201508120060000100000000000000020712000000000000000207129611111111111111111111CONSUMIDOR-FINAL              000000000044000000000000000000000000000000000000000000000000000000000000000000000000000000000000000000000000000000000000PES00010000001 00000000000000000000000
201508120060000100000000000000020713000000000000000207139611111111111111111111CONSUMIDOR-FINAL              000000000036000000000000000000000000000000000000000000000000000000000000000000000000000000000000000000000000000000000000PES00010000001 00000000000000000000000
201508120060000100000000000000020714000000000000000207149611111111111111111111CONSUMIDOR-FINAL              000000000064000000000000000000000000000000000000000000000000000000000000000000000000000000000000000000000000000000000000PES00010000001 00000000000000000000000
201508120060000100000000000000020715000000000000000207159611111111111111111111CONSUMIDOR-FINAL              000000000054000000000000000000000000000000000000000000000000000000000000000000000000000000000000000000000000000000000000PES00010000001 00000000000000000000000
201508120060000100000000000000020716000000000000000207169611111111111111111111CONSUMIDOR-FINAL              000000000034500000000000000000000000000000000000000000000000000000000000000000000000000000000000000000000000000000000000PES00010000001 00000000000000000000000
201508120060000100000000000000020717000000000000000207179611111111111111111111CONSUMIDOR-FINAL              000000000012000000000000000000000000000000000000000000000000000000000000000000000000000000000000000000000000000000000000PES00010000001 00000000000000000000000
201508120060000100000000000000020718000000000000000207189611111111111111111111CONSUMIDOR-FINAL              000000000093500000000000000000000000000000000000000000000000000000000000000000000000000000000000000000000000000000000000PES00010000001 00000000000000000000000
201508120060000100000000000000020719000000000000000207199611111111111111111111CONSUMIDOR-FINAL              000000000021500000000000000000000000000000000000000000000000000000000000000000000000000000000000000000000000000000000000PES00010000001 00000000000000000000000
201508120060000100000000000000020720000000000000000207209611111111111111111111CONSUMIDOR-FINAL              000000000037500000000000000000000000000000000000000000000000000000000000000000000000000000000000000000000000000000000000PES00010000001 00000000000000000000000
201508130060000100000000000000020721000000000000000207219611111111111111111111CONSUMIDOR-FINAL              000000000071000000000000000000000000000000000000000000000000000000000000000000000000000000000000000000000000000000000000PES00010000001 00000000000000000000000
201508130060000100000000000000020722000000000000000207229611111111111111111111CONSUMIDOR-FINAL              000000000120600000000000000000000000000000000000000000000000000000000000000000000000000000000000000000000000000000000000PES00010000001 00000000000000000000000
201508130060000100000000000000020723000000000000000207239611111111111111111111CONSUMIDOR-FINAL              000000000069200000000000000000000000000000000000000000000000000000000000000000000000000000000000000000000000000000000000PES00010000001 00000000000000000000000
201508130060000100000000000000020724000000000000000207249611111111111111111111CONSUMIDOR-FINAL              000000000035000000000000000000000000000000000000000000000000000000000000000000000000000000000000000000000000000000000000PES00010000001 00000000000000000000000
201508130060000100000000000000020725000000000000000207259611111111111111111111CONSUMIDOR-FINAL              000000000060600000000000000000000000000000000000000000000000000000000000000000000000000000000000000000000000000000000000PES00010000001 00000000000000000000000
201508130060000100000000000000020726000000000000000207269611111111111111111111CONSUMIDOR-FINAL              000000000049000000000000000000000000000000000000000000000000000000000000000000000000000000000000000000000000000000000000PES00010000001 00000000000000000000000
201508130060000100000000000000020727000000000000000207279611111111111111111111CONSUMIDOR-FINAL              000000000026800000000000000000000000000000000000000000000000000000000000000000000000000000000000000000000000000000000000PES00010000001 00000000000000000000000
201508130060000100000000000000020728000000000000000207289611111111111111111111CONSUMIDOR-FINAL              000000000045000000000000000000000000000000000000000000000000000000000000000000000000000000000000000000000000000000000000PES00010000001 00000000000000000000000
201508130060000100000000000000020729000000000000000207299611111111111111111111CONSUMIDOR-FINAL              000000000010500000000000000000000000000000000000000000000000000000000000000000000000000000000000000000000000000000000000PES00010000001 00000000000000000000000
201508130060000100000000000000020730000000000000000207309611111111111111111111CONSUMIDOR-FINAL              000000000017500000000000000000000000000000000000000000000000000000000000000000000000000000000000000000000000000000000000PES00010000001 00000000000000000000000
201508140060000100000000000000020731000000000000000207319611111111111111111111CONSUMIDOR-FINAL              000000000039200000000000000000000000000000000000000000000000000000000000000000000000000000000000000000000000000000000000PES00010000001 00000000000000000000000
201508140060000100000000000000020732000000000000000207329611111111111111111111CONSUMIDOR-FINAL              000000000034500000000000000000000000000000000000000000000000000000000000000000000000000000000000000000000000000000000000PES00010000001 00000000000000000000000
201508140060000100000000000000020733000000000000000207339611111111111111111111CONSUMIDOR-FINAL              000000000021000000000000000000000000000000000000000000000000000000000000000000000000000000000000000000000000000000000000PES00010000001 00000000000000000000000
201508140060000100000000000000020734000000000000000207349611111111111111111111CONSUMIDOR-FINAL              000000000423000000000000000000000000000000000000000000000000000000000000000000000000000000000000000000000000000000000000PES00010000001 00000000000000000000000
201508140060000100000000000000020735000000000000000207359611111111111111111111CONSUMIDOR-FINAL              000000000072000000000000000000000000000000000000000000000000000000000000000000000000000000000000000000000000000000000000PES00010000001 00000000000000000000000
201508140060000100000000000000020736000000000000000207369611111111111111111111CONSUMIDOR-FINAL              000000000046500000000000000000000000000000000000000000000000000000000000000000000000000000000000000000000000000000000000PES00010000001 00000000000000000000000
201508140060000100000000000000020737000000000000000207379611111111111111111111CONSUMIDOR-FINAL              000000000032500000000000000000000000000000000000000000000000000000000000000000000000000000000000000000000000000000000000PES00010000001 00000000000000000000000
201508140060000100000000000000020738000000000000000207389611111111111111111111CONSUMIDOR-FINAL              000000000069500000000000000000000000000000000000000000000000000000000000000000000000000000000000000000000000000000000000PES00010000001 00000000000000000000000
201508140060000100000000000000020739000000000000000207399611111111111111111111CONSUMIDOR-FINAL              000000000091500000000000000000000000000000000000000000000000000000000000000000000000000000000000000000000000000000000000PES00010000001 00000000000000000000000
201508140060000100000000000000020740000000000000000207409611111111111111111111CONSUMIDOR-FINAL              000000000033000000000000000000000000000000000000000000000000000000000000000000000000000000000000000000000000000000000000PES00010000001 00000000000000000000000
201508140060000100000000000000020741000000000000000207419611111111111111111111CONSUMIDOR-FINAL              000000000033000000000000000000000000000000000000000000000000000000000000000000000000000000000000000000000000000000000000PES00010000001 00000000000000000000000
201508140060000100000000000000020742000000000000000207429611111111111111111111CONSUMIDOR-FINAL              000000000059500000000000000000000000000000000000000000000000000000000000000000000000000000000000000000000000000000000000PES00010000001 00000000000000000000000
201508140060000100000000000000020743000000000000000207439611111111111111111111CONSUMIDOR-FINAL              000000000170000000000000000000000000000000000000000000000000000000000000000000000000000000000000000000000000000000000000PES00010000001 00000000000000000000000
201508140060000100000000000000020744000000000000000207449611111111111111111111CONSUMIDOR-FINAL              000000000008500000000000000000000000000000000000000000000000000000000000000000000000000000000000000000000000000000000000PES00010000001 00000000000000000000000
201508140060000100000000000000020745000000000000000207459611111111111111111111CONSUMIDOR-FINAL              000000000176600000000000000000000000000000000000000000000000000000000000000000000000000000000000000000000000000000000000PES00010000001 00000000000000000000000
201508140060000100000000000000020746000000000000000207469611111111111111111111CONSUMIDOR-FINAL              000000000085500000000000000000000000000000000000000000000000000000000000000000000000000000000000000000000000000000000000PES00010000001 00000000000000000000000
201508140060000100000000000000020747000000000000000207479611111111111111111111CONSUMIDOR-FINAL              000000000013000000000000000000000000000000000000000000000000000000000000000000000000000000000000000000000000000000000000PES00010000001 00000000000000000000000
201508140060000100000000000000020748000000000000000207489611111111111111111111CONSUMIDOR-FINAL              000000000041100000000000000000000000000000000000000000000000000000000000000000000000000000000000000000000000000000000000PES00010000001 00000000000000000000000
201508140060000100000000000000020749000000000000000207499611111111111111111111CONSUMIDOR-FINAL              000000000052000000000000000000000000000000000000000000000000000000000000000000000000000000000000000000000000000000000000PES00010000001 00000000000000000000000
201508140060000100000000000000020750000000000000000207509611111111111111111111CONSUMIDOR-FINAL              000000000152000000000000000000000000000000000000000000000000000000000000000000000000000000000000000000000000000000000000PES00010000001 00000000000000000000000
201508140060000100000000000000020751000000000000000207519611111111111111111111CONSUMIDOR-FINAL              000000000033000000000000000000000000000000000000000000000000000000000000000000000000000000000000000000000000000000000000PES00010000001 00000000000000000000000
201508140060000100000000000000020752000000000000000207529611111111111111111111CONSUMIDOR-FINAL              000000000027300000000000000000000000000000000000000000000000000000000000000000000000000000000000000000000000000000000000PES00010000001 00000000000000000000000
201508140060000100000000000000020753000000000000000207539611111111111111111111CONSUMIDOR-FINAL              000000000034500000000000000000000000000000000000000000000000000000000000000000000000000000000000000000000000000000000000PES00010000001 00000000000000000000000
201508150060000100000000000000020754000000000000000207549611111111111111111111CONSUMIDOR-FINAL              000000000054500000000000000000000000000000000000000000000000000000000000000000000000000000000000000000000000000000000000PES00010000001 00000000000000000000000
201508150060000100000000000000020755000000000000000207559611111111111111111111CONSUMIDOR-FINAL              000000000050000000000000000000000000000000000000000000000000000000000000000000000000000000000000000000000000000000000000PES00010000001 00000000000000000000000
201508150060000100000000000000020756000000000000000207569611111111111111111111CONSUMIDOR-FINAL              000000000050800000000000000000000000000000000000000000000000000000000000000000000000000000000000000000000000000000000000PES00010000001 00000000000000000000000
201508150060000100000000000000020757000000000000000207579611111111111111111111CONSUMIDOR-FINAL              000000000017000000000000000000000000000000000000000000000000000000000000000000000000000000000000000000000000000000000000PES00010000001 00000000000000000000000
201508150060000100000000000000020758000000000000000207589611111111111111111111CONSUMIDOR-FINAL              000000000031500000000000000000000000000000000000000000000000000000000000000000000000000000000000000000000000000000000000PES00010000001 00000000000000000000000
201508150060000100000000000000020759000000000000000207599611111111111111111111CONSUMIDOR-FINAL              000000000060500000000000000000000000000000000000000000000000000000000000000000000000000000000000000000000000000000000000PES00010000001 00000000000000000000000
201508150060000100000000000000020760000000000000000207609611111111111111111111CONSUMIDOR-FINAL              000000000037500000000000000000000000000000000000000000000000000000000000000000000000000000000000000000000000000000000000PES00010000001 00000000000000000000000
201508150060000100000000000000020761000000000000000207619611111111111111111111CONSUMIDOR-FINAL              000000000038300000000000000000000000000000000000000000000000000000000000000000000000000000000000000000000000000000000000PES00010000001 00000000000000000000000
201508150060000100000000000000020762000000000000000207629611111111111111111111CONSUMIDOR-FINAL              000000000032500000000000000000000000000000000000000000000000000000000000000000000000000000000000000000000000000000000000PES00010000001 00000000000000000000000
201508150060000100000000000000020763000000000000000207639611111111111111111111CONSUMIDOR-FINAL              000000000056500000000000000000000000000000000000000000000000000000000000000000000000000000000000000000000000000000000000PES00010000001 00000000000000000000000
201508150060000100000000000000020764000000000000000207649611111111111111111111CONSUMIDOR-FINAL              000000000124300000000000000000000000000000000000000000000000000000000000000000000000000000000000000000000000000000000000PES00010000001 00000000000000000000000
201508150060000100000000000000020765000000000000000207659611111111111111111111CONSUMIDOR-FINAL              000000000091500000000000000000000000000000000000000000000000000000000000000000000000000000000000000000000000000000000000PES00010000001 00000000000000000000000
201508150060000100000000000000020766000000000000000207669611111111111111111111CONSUMIDOR-FINAL              000000000024500000000000000000000000000000000000000000000000000000000000000000000000000000000000000000000000000000000000PES00010000001 00000000000000000000000
201508150060000100000000000000020767000000000000000207679611111111111111111111CONSUMIDOR-FINAL              000000000017500000000000000000000000000000000000000000000000000000000000000000000000000000000000000000000000000000000000PES00010000001 00000000000000000000000
201508150060000100000000000000020768000000000000000207689611111111111111111111CONSUMIDOR-FINAL              000000000185000000000000000000000000000000000000000000000000000000000000000000000000000000000000000000000000000000000000PES00010000001 00000000000000000000000
201508150060000100000000000000020769000000000000000207699611111111111111111111CONSUMIDOR-FINAL              000000000157000000000000000000000000000000000000000000000000000000000000000000000000000000000000000000000000000000000000PES00010000001 00000000000000000000000
201508150060000100000000000000020770000000000000000207709611111111111111111111CONSUMIDOR-FINAL              000000000023000000000000000000000000000000000000000000000000000000000000000000000000000000000000000000000000000000000000PES00010000001 00000000000000000000000
201508150060000100000000000000020771000000000000000207719611111111111111111111CONSUMIDOR-FINAL              000000000020000000000000000000000000000000000000000000000000000000000000000000000000000000000000000000000000000000000000PES00010000001 00000000000000000000000
201508150060000100000000000000020772000000000000000207729611111111111111111111CONSUMIDOR-FINAL              000000000031500000000000000000000000000000000000000000000000000000000000000000000000000000000000000000000000000000000000PES00010000001 00000000000000000000000
201508150060000100000000000000020773000000000000000207739611111111111111111111CONSUMIDOR-FINAL              000000000018500000000000000000000000000000000000000000000000000000000000000000000000000000000000000000000000000000000000PES00010000001 00000000000000000000000
201508150060000100000000000000020774000000000000000207749611111111111111111111CONSUMIDOR-FINAL              000000000011500000000000000000000000000000000000000000000000000000000000000000000000000000000000000000000000000000000000PES00010000001 00000000000000000000000
201508150060000100000000000000020775000000000000000207759611111111111111111111CONSUMIDOR-FINAL              000000000078500000000000000000000000000000000000000000000000000000000000000000000000000000000000000000000000000000000000PES00010000001 00000000000000000000000
201508150060000100000000000000020776000000000000000207769611111111111111111111CONSUMIDOR-FINAL              000000000015000000000000000000000000000000000000000000000000000000000000000000000000000000000000000000000000000000000000PES00010000001 00000000000000000000000
201508150060000100000000000000020777000000000000000207779611111111111111111111CONSUMIDOR-FINAL              000000000030000000000000000000000000000000000000000000000000000000000000000000000000000000000000000000000000000000000000PES00010000001 00000000000000000000000
201508150060000100000000000000020778000000000000000207789611111111111111111111CONSUMIDOR-FINAL              000000000035000000000000000000000000000000000000000000000000000000000000000000000000000000000000000000000000000000000000PES00010000001 00000000000000000000000
201508150060000100000000000000020779000000000000000207799611111111111111111111CONSUMIDOR-FINAL              000000000047500000000000000000000000000000000000000000000000000000000000000000000000000000000000000000000000000000000000PES00010000001 00000000000000000000000
201508150060000100000000000000020780000000000000000207809611111111111111111111CONSUMIDOR-FINAL              000000000032500000000000000000000000000000000000000000000000000000000000000000000000000000000000000000000000000000000000PES00010000001 00000000000000000000000
201508150060000100000000000000020781000000000000000207819611111111111111111111CONSUMIDOR-FINAL              000000000209900000000000000000000000000000000000000000000000000000000000000000000000000000000000000000000000000000000000PES00010000001 00000000000000000000000
201508150060000100000000000000020782000000000000000207829611111111111111111111CONSUMIDOR-FINAL              000000000049500000000000000000000000000000000000000000000000000000000000000000000000000000000000000000000000000000000000PES00010000001 00000000000000000000000
201508150060000100000000000000020783000000000000000207839611111111111111111111CONSUMIDOR-FINAL              000000000111600000000000000000000000000000000000000000000000000000000000000000000000000000000000000000000000000000000000PES00010000001 00000000000000000000000
201508150060000100000000000000020784000000000000000207849611111111111111111111CONSUMIDOR-FINAL              000000000018000000000000000000000000000000000000000000000000000000000000000000000000000000000000000000000000000000000000PES00010000001 00000000000000000000000
201508150060000100000000000000020785000000000000000207859611111111111111111111CONSUMIDOR-FINAL              000000000031000000000000000000000000000000000000000000000000000000000000000000000000000000000000000000000000000000000000PES00010000001 00000000000000000000000
201508180060000100000000000000020786000000000000000207869611111111111111111111CONSUMIDOR-FINAL              000000000051500000000000000000000000000000000000000000000000000000000000000000000000000000000000000000000000000000000000PES00010000001 00000000000000000000000
201508180060000100000000000000020787000000000000000207879611111111111111111111CONSUMIDOR-FINAL              000000000073500000000000000000000000000000000000000000000000000000000000000000000000000000000000000000000000000000000000PES00010000001 00000000000000000000000
201508180060000100000000000000020788000000000000000207889611111111111111111111CONSUMIDOR-FINAL              000000000063500000000000000000000000000000000000000000000000000000000000000000000000000000000000000000000000000000000000PES00010000001 00000000000000000000000
201508180060000100000000000000020789000000000000000207899611111111111111111111CONSUMIDOR-FINAL              000000000049500000000000000000000000000000000000000000000000000000000000000000000000000000000000000000000000000000000000PES00010000001 00000000000000000000000
201508180060000100000000000000020790000000000000000207909611111111111111111111CONSUMIDOR-FINAL              000000000385200000000000000000000000000000000000000000000000000000000000000000000000000000000000000000000000000000000000PES00010000001 00000000000000000000000
201508180060000100000000000000020791000000000000000207919611111111111111111111CONSUMIDOR-FINAL              000000000133500000000000000000000000000000000000000000000000000000000000000000000000000000000000000000000000000000000000PES00010000001 00000000000000000000000
201508180060000100000000000000020792000000000000000207929611111111111111111111CONSUMIDOR-FINAL              000000000013500000000000000000000000000000000000000000000000000000000000000000000000000000000000000000000000000000000000PES00010000001 00000000000000000000000
201508180060000100000000000000020793000000000000000207939611111111111111111111CONSUMIDOR-FINAL              000000000013500000000000000000000000000000000000000000000000000000000000000000000000000000000000000000000000000000000000PES00010000001 00000000000000000000000
201508180060000100000000000000020794000000000000000207949611111111111111111111CONSUMIDOR-FINAL              000000000087500000000000000000000000000000000000000000000000000000000000000000000000000000000000000000000000000000000000PES00010000001 00000000000000000000000
201508180060000100000000000000020795000000000000000207959611111111111111111111CONSUMIDOR-FINAL              000000000075600000000000000000000000000000000000000000000000000000000000000000000000000000000000000000000000000000000000PES00010000001 00000000000000000000000
201508180060000100000000000000020796000000000000000207969611111111111111111111CONSUMIDOR-FINAL              000000000331700000000000000000000000000000000000000000000000000000000000000000000000000000000000000000000000000000000000PES00010000001 00000000000000000000000
201508180060000100000000000000020797000000000000000207979611111111111111111111CONSUMIDOR-FINAL              000000000032100000000000000000000000000000000000000000000000000000000000000000000000000000000000000000000000000000000000PES00010000001 00000000000000000000000
201508180060000100000000000000020798000000000000000207989611111111111111111111CONSUMIDOR-FINAL              000000000027500000000000000000000000000000000000000000000000000000000000000000000000000000000000000000000000000000000000PES00010000001 00000000000000000000000
201508180060000100000000000000020799000000000000000207999611111111111111111111CONSUMIDOR-FINAL              000000000047500000000000000000000000000000000000000000000000000000000000000000000000000000000000000000000000000000000000PES00010000001 00000000000000000000000
201508180060000100000000000000020800000000000000000208009611111111111111111111CONSUMIDOR-FINAL              000000000022600000000000000000000000000000000000000000000000000000000000000000000000000000000000000000000000000000000000PES00010000001 00000000000000000000000
201508190060000100000000000000020801000000000000000208019611111111111111111111CONSUMIDOR-FINAL              000000000029800000000000000000000000000000000000000000000000000000000000000000000000000000000000000000000000000000000000PES00010000001 00000000000000000000000
201508190060000100000000000000020802000000000000000208029611111111111111111111CONSUMIDOR-FINAL              000000000047000000000000000000000000000000000000000000000000000000000000000000000000000000000000000000000000000000000000PES00010000001 00000000000000000000000
201508190060000100000000000000020803000000000000000208039611111111111111111111CONSUMIDOR-FINAL              000000000051000000000000000000000000000000000000000000000000000000000000000000000000000000000000000000000000000000000000PES00010000001 00000000000000000000000
201508190060000100000000000000020804000000000000000208049611111111111111111111CONSUMIDOR-FINAL              000000000134400000000000000000000000000000000000000000000000000000000000000000000000000000000000000000000000000000000000PES00010000001 00000000000000000000000
201508190060000100000000000000020805000000000000000208059611111111111111111111CONSUMIDOR-FINAL              000000000058000000000000000000000000000000000000000000000000000000000000000000000000000000000000000000000000000000000000PES00010000001 00000000000000000000000
201508190060000100000000000000020806000000000000000208069611111111111111111111CONSUMIDOR-FINAL              000000000125300000000000000000000000000000000000000000000000000000000000000000000000000000000000000000000000000000000000PES00010000001 00000000000000000000000
201508190060000100000000000000020807000000000000000208079611111111111111111111CONSUMIDOR-FINAL              000000000043000000000000000000000000000000000000000000000000000000000000000000000000000000000000000000000000000000000000PES00010000001 00000000000000000000000
201508190060000100000000000000020808000000000000000208089611111111111111111111CONSUMIDOR-FINAL              000000000259500000000000000000000000000000000000000000000000000000000000000000000000000000000000000000000000000000000000PES00010000001 00000000000000000000000
201508190060000100000000000000020809000000000000000208099611111111111111111111CONSUMIDOR-FINAL              000000000014500000000000000000000000000000000000000000000000000000000000000000000000000000000000000000000000000000000000PES00010000001 00000000000000000000000
201508190060000100000000000000020810000000000000000208109611111111111111111111CONSUMIDOR-FINAL              000000000051900000000000000000000000000000000000000000000000000000000000000000000000000000000000000000000000000000000000PES00010000001 00000000000000000000000
201508190060000100000000000000020811000000000000000208119611111111111111111111CONSUMIDOR-FINAL              000000000099500000000000000000000000000000000000000000000000000000000000000000000000000000000000000000000000000000000000PES00010000001 00000000000000000000000
201508200060000100000000000000020812000000000000000208129611111111111111111111CONSUMIDOR-FINAL              000000000039000000000000000000000000000000000000000000000000000000000000000000000000000000000000000000000000000000000000PES00010000001 00000000000000000000000
201508200060000100000000000000020813000000000000000208139611111111111111111111CONSUMIDOR-FINAL              000000000023500000000000000000000000000000000000000000000000000000000000000000000000000000000000000000000000000000000000PES00010000001 00000000000000000000000
201508200060000100000000000000020814000000000000000208149611111111111111111111CONSUMIDOR-FINAL              000000000085000000000000000000000000000000000000000000000000000000000000000000000000000000000000000000000000000000000000PES00010000001 00000000000000000000000
201508200060000100000000000000020815000000000000000208159611111111111111111111CONSUMIDOR-FINAL              000000000036000000000000000000000000000000000000000000000000000000000000000000000000000000000000000000000000000000000000PES00010000001 00000000000000000000000
201508200060000100000000000000020816000000000000000208169611111111111111111111CONSUMIDOR-FINAL              000000000094500000000000000000000000000000000000000000000000000000000000000000000000000000000000000000000000000000000000PES00010000001 00000000000000000000000
201508200060000100000000000000020817000000000000000208179611111111111111111111CONSUMIDOR-FINAL              000000000009000000000000000000000000000000000000000000000000000000000000000000000000000000000000000000000000000000000000PES00010000001 00000000000000000000000
201508200060000100000000000000020818000000000000000208189611111111111111111111CONSUMIDOR-FINAL              000000000042000000000000000000000000000000000000000000000000000000000000000000000000000000000000000000000000000000000000PES00010000001 00000000000000000000000
201508200060000100000000000000020819000000000000000208199611111111111111111111CONSUMIDOR-FINAL              000000000043500000000000000000000000000000000000000000000000000000000000000000000000000000000000000000000000000000000000PES00010000001 00000000000000000000000
201508200060000100000000000000020820000000000000000208209611111111111111111111CONSUMIDOR-FINAL              000000000060000000000000000000000000000000000000000000000000000000000000000000000000000000000000000000000000000000000000PES00010000001 00000000000000000000000
201508200060000100000000000000020821000000000000000208219611111111111111111111CONSUMIDOR-FINAL              000000000034500000000000000000000000000000000000000000000000000000000000000000000000000000000000000000000000000000000000PES00010000001 00000000000000000000000
201508200060000100000000000000020822000000000000000208229611111111111111111111CONSUMIDOR-FINAL              000000000093100000000000000000000000000000000000000000000000000000000000000000000000000000000000000000000000000000000000PES00010000001 00000000000000000000000
201508200060000100000000000000020823000000000000000208239611111111111111111111CONSUMIDOR-FINAL              000000000046000000000000000000000000000000000000000000000000000000000000000000000000000000000000000000000000000000000000PES00010000001 00000000000000000000000
201508200060000100000000000000020824000000000000000208249611111111111111111111CONSUMIDOR-FINAL              000000000036800000000000000000000000000000000000000000000000000000000000000000000000000000000000000000000000000000000000PES00010000001 00000000000000000000000
201508200060000100000000000000020825000000000000000208259611111111111111111111CONSUMIDOR-FINAL              000000000025000000000000000000000000000000000000000000000000000000000000000000000000000000000000000000000000000000000000PES00010000001 00000000000000000000000
201508200060000100000000000000020826000000000000000208269611111111111111111111CONSUMIDOR-FINAL              000000000076000000000000000000000000000000000000000000000000000000000000000000000000000000000000000000000000000000000000PES00010000001 00000000000000000000000
201508200060000100000000000000020827000000000000000208279611111111111111111111CONSUMIDOR-FINAL              000000000047000000000000000000000000000000000000000000000000000000000000000000000000000000000000000000000000000000000000PES00010000001 00000000000000000000000
201508200060000100000000000000020828000000000000000208289611111111111111111111CONSUMIDOR-FINAL              000000000133400000000000000000000000000000000000000000000000000000000000000000000000000000000000000000000000000000000000PES00010000001 00000000000000000000000
201508210060000100000000000000020829000000000000000208299611111111111111111111CONSUMIDOR-FINAL              000000000128500000000000000000000000000000000000000000000000000000000000000000000000000000000000000000000000000000000000PES00010000001 00000000000000000000000
201508210060000100000000000000020830000000000000000208309611111111111111111111CONSUMIDOR-FINAL              000000000006000000000000000000000000000000000000000000000000000000000000000000000000000000000000000000000000000000000000PES00010000001 00000000000000000000000
201508210060000100000000000000020831000000000000000208319611111111111111111111CONSUMIDOR-FINAL              000000000106000000000000000000000000000000000000000000000000000000000000000000000000000000000000000000000000000000000000PES00010000001 00000000000000000000000
201508210060000100000000000000020832000000000000000208329611111111111111111111CONSUMIDOR-FINAL              000000000159000000000000000000000000000000000000000000000000000000000000000000000000000000000000000000000000000000000000PES00010000001 00000000000000000000000
201508210060000100000000000000020833000000000000000208339611111111111111111111CONSUMIDOR-FINAL              000000000062500000000000000000000000000000000000000000000000000000000000000000000000000000000000000000000000000000000000PES00010000001 00000000000000000000000
201508210060000100000000000000020834000000000000000208349611111111111111111111CONSUMIDOR-FINAL              000000000117000000000000000000000000000000000000000000000000000000000000000000000000000000000000000000000000000000000000PES00010000001 00000000000000000000000
201508210060000100000000000000020835000000000000000208359611111111111111111111CONSUMIDOR-FINAL              000000000039500000000000000000000000000000000000000000000000000000000000000000000000000000000000000000000000000000000000PES00010000001 00000000000000000000000
201508210060000100000000000000020836000000000000000208369611111111111111111111CONSUMIDOR-FINAL              000000000041000000000000000000000000000000000000000000000000000000000000000000000000000000000000000000000000000000000000PES00010000001 00000000000000000000000
201508210060000100000000000000020837000000000000000208379611111111111111111111CONSUMIDOR-FINAL              000000000032200000000000000000000000000000000000000000000000000000000000000000000000000000000000000000000000000000000000PES00010000001 00000000000000000000000
201508210060000100000000000000020838000000000000000208389611111111111111111111CONSUMIDOR-FINAL              000000000036000000000000000000000000000000000000000000000000000000000000000000000000000000000000000000000000000000000000PES00010000001 00000000000000000000000
201508210060000100000000000000020839000000000000000208399611111111111111111111CONSUMIDOR-FINAL              000000000020500000000000000000000000000000000000000000000000000000000000000000000000000000000000000000000000000000000000PES00010000001 00000000000000000000000
201508210060000100000000000000020840000000000000000208409611111111111111111111CONSUMIDOR-FINAL              000000000227800000000000000000000000000000000000000000000000000000000000000000000000000000000000000000000000000000000000PES00010000001 00000000000000000000000
201508220060000100000000000000020841000000000000000208419611111111111111111111CONSUMIDOR-FINAL              000000000044000000000000000000000000000000000000000000000000000000000000000000000000000000000000000000000000000000000000PES00010000001 00000000000000000000000
201508220060000100000000000000020843000000000000000208439611111111111111111111CONSUMIDOR-FINAL              000000000134500000000000000000000000000000000000000000000000000000000000000000000000000000000000000000000000000000000000PES00010000001 00000000000000000000000
201508220060000100000000000000020844000000000000000208449611111111111111111111CONSUMIDOR-FINAL              000000000033000000000000000000000000000000000000000000000000000000000000000000000000000000000000000000000000000000000000PES00010000001 00000000000000000000000
201508220060000100000000000000020845000000000000000208459611111111111111111111CONSUMIDOR-FINAL              000000000059500000000000000000000000000000000000000000000000000000000000000000000000000000000000000000000000000000000000PES00010000001 00000000000000000000000
201508220060000100000000000000020846000000000000000208469611111111111111111111CONSUMIDOR-FINAL              000000000045000000000000000000000000000000000000000000000000000000000000000000000000000000000000000000000000000000000000PES00010000001 00000000000000000000000
201508220060000100000000000000020847000000000000000208479611111111111111111111CONSUMIDOR-FINAL              000000000030000000000000000000000000000000000000000000000000000000000000000000000000000000000000000000000000000000000000PES00010000001 00000000000000000000000
201508220060000100000000000000020848000000000000000208489611111111111111111111CONSUMIDOR-FINAL              000000000189000000000000000000000000000000000000000000000000000000000000000000000000000000000000000000000000000000000000PES00010000001 00000000000000000000000
201508220060000100000000000000020849000000000000000208499611111111111111111111CONSUMIDOR-FINAL              000000000037000000000000000000000000000000000000000000000000000000000000000000000000000000000000000000000000000000000000PES00010000001 00000000000000000000000
201508220060000100000000000000020850000000000000000208509611111111111111111111CONSUMIDOR-FINAL              000000000039000000000000000000000000000000000000000000000000000000000000000000000000000000000000000000000000000000000000PES00010000001 00000000000000000000000
201508220060000100000000000000020851000000000000000208519611111111111111111111CONSUMIDOR-FINAL              000000000156500000000000000000000000000000000000000000000000000000000000000000000000000000000000000000000000000000000000PES00010000001 00000000000000000000000
201508220060000100000000000000020852000000000000000208529611111111111111111111CONSUMIDOR-FINAL              000000000016800000000000000000000000000000000000000000000000000000000000000000000000000000000000000000000000000000000000PES00010000001 00000000000000000000000
201508220060000100000000000000020853000000000000000208539611111111111111111111CONSUMIDOR-FINAL              000000000070100000000000000000000000000000000000000000000000000000000000000000000000000000000000000000000000000000000000PES00010000001 00000000000000000000000
201508220060000100000000000000020854000000000000000208549611111111111111111111CONSUMIDOR-FINAL              000000000070900000000000000000000000000000000000000000000000000000000000000000000000000000000000000000000000000000000000PES00010000001 00000000000000000000000
201508220060000100000000000000020855000000000000000208559611111111111111111111CONSUMIDOR-FINAL              000000000065500000000000000000000000000000000000000000000000000000000000000000000000000000000000000000000000000000000000PES00010000001 00000000000000000000000
201508220060000100000000000000020856000000000000000208569611111111111111111111CONSUMIDOR-FINAL              000000000072000000000000000000000000000000000000000000000000000000000000000000000000000000000000000000000000000000000000PES00010000001 00000000000000000000000
201508220060000100000000000000020857000000000000000208579611111111111111111111CONSUMIDOR-FINAL              000000000059000000000000000000000000000000000000000000000000000000000000000000000000000000000000000000000000000000000000PES00010000001 00000000000000000000000
201508220060000100000000000000020858000000000000000208589611111111111111111111CONSUMIDOR-FINAL              000000000072500000000000000000000000000000000000000000000000000000000000000000000000000000000000000000000000000000000000PES00010000001 00000000000000000000000
201508220060000100000000000000020859000000000000000208599611111111111111111111CONSUMIDOR-FINAL              000000000074000000000000000000000000000000000000000000000000000000000000000000000000000000000000000000000000000000000000PES00010000001 00000000000000000000000
201508220060000100000000000000020860000000000000000208609611111111111111111111CONSUMIDOR-FINAL              000000000083500000000000000000000000000000000000000000000000000000000000000000000000000000000000000000000000000000000000PES00010000001 00000000000000000000000
201508220060000100000000000000020861000000000000000208619611111111111111111111CONSUMIDOR-FINAL              000000000086000000000000000000000000000000000000000000000000000000000000000000000000000000000000000000000000000000000000PES00010000001 00000000000000000000000
201508220060000100000000000000020862000000000000000208629611111111111111111111CONSUMIDOR-FINAL              000000000027000000000000000000000000000000000000000000000000000000000000000000000000000000000000000000000000000000000000PES00010000001 00000000000000000000000
201508220060000100000000000000020863000000000000000208639611111111111111111111CONSUMIDOR-FINAL              000000000056000000000000000000000000000000000000000000000000000000000000000000000000000000000000000000000000000000000000PES00010000001 00000000000000000000000
201508220060000100000000000000020864000000000000000208649611111111111111111111CONSUMIDOR-FINAL              000000000027500000000000000000000000000000000000000000000000000000000000000000000000000000000000000000000000000000000000PES00010000001 00000000000000000000000
201508220060000100000000000000020865000000000000000208659611111111111111111111CONSUMIDOR-FINAL              000000000080600000000000000000000000000000000000000000000000000000000000000000000000000000000000000000000000000000000000PES00010000001 00000000000000000000000
201508220060000100000000000000020866000000000000000208669611111111111111111111CONSUMIDOR-FINAL              000000000199800000000000000000000000000000000000000000000000000000000000000000000000000000000000000000000000000000000000PES00010000001 00000000000000000000000
201508220060000100000000000000020867000000000000000208679611111111111111111111CONSUMIDOR-FINAL              000000000114000000000000000000000000000000000000000000000000000000000000000000000000000000000000000000000000000000000000PES00010000001 00000000000000000000000
201508220060000100000000000000020868000000000000000208689611111111111111111111CONSUMIDOR-FINAL              000000000039300000000000000000000000000000000000000000000000000000000000000000000000000000000000000000000000000000000000PES00010000001 00000000000000000000000
201508220060000100000000000000020869000000000000000208699611111111111111111111CONSUMIDOR-FINAL              000000000055500000000000000000000000000000000000000000000000000000000000000000000000000000000000000000000000000000000000PES00010000001 00000000000000000000000
201508220060000100000000000000020870000000000000000208709611111111111111111111CONSUMIDOR-FINAL              000000000125500000000000000000000000000000000000000000000000000000000000000000000000000000000000000000000000000000000000PES00010000001 00000000000000000000000
201508220060000100000000000000020871000000000000000208719611111111111111111111CONSUMIDOR-FINAL              000000000045500000000000000000000000000000000000000000000000000000000000000000000000000000000000000000000000000000000000PES00010000001 00000000000000000000000
201508220060000100000000000000020872000000000000000208729611111111111111111111CONSUMIDOR-FINAL              000000000113300000000000000000000000000000000000000000000000000000000000000000000000000000000000000000000000000000000000PES00010000001 00000000000000000000000
201508220060000100000000000000020873000000000000000208739611111111111111111111CONSUMIDOR-FINAL              000000000038000000000000000000000000000000000000000000000000000000000000000000000000000000000000000000000000000000000000PES00010000001 00000000000000000000000
201508220060000100000000000000020874000000000000000208749611111111111111111111CONSUMIDOR-FINAL              000000000064500000000000000000000000000000000000000000000000000000000000000000000000000000000000000000000000000000000000PES00010000001 00000000000000000000000
201508220060000100000000000000020875000000000000000208759611111111111111111111CONSUMIDOR-FINAL              000000000043000000000000000000000000000000000000000000000000000000000000000000000000000000000000000000000000000000000000PES00010000001 00000000000000000000000
201508220060000100000000000000020876000000000000000208769611111111111111111111CONSUMIDOR-FINAL              000000000019000000000000000000000000000000000000000000000000000000000000000000000000000000000000000000000000000000000000PES00010000001 00000000000000000000000
201508240060000100000000000000020877000000000000000208779611111111111111111111CONSUMIDOR-FINAL              000000000014500000000000000000000000000000000000000000000000000000000000000000000000000000000000000000000000000000000000PES00010000001 00000000000000000000000
201508240060000100000000000000020878000000000000000208789611111111111111111111CONSUMIDOR-FINAL              000000000083500000000000000000000000000000000000000000000000000000000000000000000000000000000000000000000000000000000000PES00010000001 00000000000000000000000
201508240060000100000000000000020879000000000000000208799611111111111111111111CONSUMIDOR-FINAL              000000000083500000000000000000000000000000000000000000000000000000000000000000000000000000000000000000000000000000000000PES00010000001 00000000000000000000000
201508240060000100000000000000020880000000000000000208809611111111111111111111CONSUMIDOR-FINAL              000000000017500000000000000000000000000000000000000000000000000000000000000000000000000000000000000000000000000000000000PES00010000001 00000000000000000000000
201508240060000100000000000000020881000000000000000208819611111111111111111111CONSUMIDOR-FINAL              000000000047500000000000000000000000000000000000000000000000000000000000000000000000000000000000000000000000000000000000PES00010000001 00000000000000000000000
201508240060000100000000000000020882000000000000000208829611111111111111111111CONSUMIDOR-FINAL              000000000028000000000000000000000000000000000000000000000000000000000000000000000000000000000000000000000000000000000000PES00010000001 00000000000000000000000
201508240060000100000000000000020883000000000000000208839611111111111111111111CONSUMIDOR-FINAL              000000000062500000000000000000000000000000000000000000000000000000000000000000000000000000000000000000000000000000000000PES00010000001 00000000000000000000000
