201602010010000100000000000000001149000000000000000011498000000000027253978940-DAMBOREARENA-MARIA-LAURA     000000000076000000000000000000000000000000000000000000000000000000000000000000000000000000000000000000000000000000000000PES00010000001 00000000000000000000000
201602010010000100000000000000001150000000000000000011508000000000030710942931JONES-SRL                     000000000084000000000000000000000000000000000000000000000000000000000000000000000000000000000000000000000000000000000000PES00010000001 00000000000000000000000
201602020010000100000000000000001151000000000000000011518000000000030710354738GOLFO-SAN-JORGE-SA            000000000066500000000000000000000000000000000000000000000000000000000000000000000000000000000000000000000000000000000000PES00010000001 00000000000000000000000
201602030010000100000000000000001152000000000000000011528000000000020129210797-MARRERO-SERGIO               000000000191300000000000000000000000000000000000000000000000000000000000000000000000000000000000000000000000000000000000PES00010000001 00000000000000000000000
201602030010000100000000000000001153000000000000000011538000000000020119807175SALAZAR-DANIEL-ATILIO         000000000065500000000000000000000000000000000000000000000000000000000000000000000000000000000000000000000000000000000000PES00010000001 00000000000000000000000
201602110010000100000000000000001154000000000000000011548000000000033708101899-MAXICON-SRL                  000000000225500000000000000000000000000000000000000000000000000000000000000000000000000000000000000000000000000000000000PES00010000001 00000000000000000000000
201602160010000100000000000000001155000000000000000011558000000000033708101899-MAXICON-SRL                  000000000178000000000000000000000000000000000000000000000000000000000000000000000000000000000000000000000000000000000000PES00010000001 00000000000000000000000
201602290010000100000000000000001156000000000000000011568000000000030713251808PARADOR-DIEZ-SA               000000000130500000000000000000000000000000000000000000000000000000000000000000000000000000000000000000000000000000000000PES00010000001 00000000000000000000000
201602010060000100000000000000023514000000000000000235149600000000033714143609CENTRO-DE-ESTUDIOS-DIGESTIVOS-000000000099800000000000000000000000000000000000000000000000000000000000000000000000000000000000000000000000000000000000PES00010000001 00000000000000000000000
201602010060000100000000000000023515000000000000000235159600000000033714143609CENTRO-DE-ESTUDIOS-DIGESTIVOS-000000000144500000000000000000000000000000000000000000000000000000000000000000000000000000000000000000000000000000000000PES00010000001 00000000000000000000000
201602010060000100000000000000023516000000000000000235169600000000033714143609CENTRO-DE-ESTUDIOS-DIGESTIVOS-000000000034000000000000000000000000000000000000000000000000000000000000000000000000000000000000000000000000000000000000PES00010000001 00000000000000000000000
201602010060000100000000000000023517000000000000000235179600000000033714143609CENTRO-DE-ESTUDIOS-DIGESTIVOS-000000000017500000000000000000000000000000000000000000000000000000000000000000000000000000000000000000000000000000000000PES00010000001 00000000000000000000000
201602010060000100000000000000023518000000000000000235189600000000033714143609CENTRO-DE-ESTUDIOS-DIGESTIVOS-000000000139000000000000000000000000000000000000000000000000000000000000000000000000000000000000000000000000000000000000PES00010000001 00000000000000000000000
201602010060000100000000000000023519000000000000000235199600000000033714143609CENTRO-DE-ESTUDIOS-DIGESTIVOS-000000000047615000000000000000000000000000000000000000000000000000000000000000000000000000000000000000000000000000000000PES00010000001 00000000000000000000000
201602010060000100000000000000023520000000000000000235209600000000033714143609CENTRO-DE-ESTUDIOS-DIGESTIVOS-000000000017500000000000000000000000000000000000000000000000000000000000000000000000000000000000000000000000000000000000PES00010000001 00000000000000000000000
201602010060000100000000000000023521000000000000000235219600000000033714143609CENTRO-DE-ESTUDIOS-DIGESTIVOS-000000000023500000000000000000000000000000000000000000000000000000000000000000000000000000000000000000000000000000000000PES00010000001 00000000000000000000000
201602020060000100000000000000023522000000000000000235229600000000033714143609CENTRO-DE-ESTUDIOS-DIGESTIVOS-000000000014500000000000000000000000000000000000000000000000000000000000000000000000000000000000000000000000000000000000PES00010000001 00000000000000000000000
201602020060000100000000000000023523000000000000000235239600000000033714143609CENTRO-DE-ESTUDIOS-DIGESTIVOS-000000000049500000000000000000000000000000000000000000000000000000000000000000000000000000000000000000000000000000000000PES00010000001 00000000000000000000000
201602020060000100000000000000023524000000000000000235249600000000033714143609CENTRO-DE-ESTUDIOS-DIGESTIVOS-000000000129000000000000000000000000000000000000000000000000000000000000000000000000000000000000000000000000000000000000PES00010000001 00000000000000000000000
201602020060000100000000000000023525000000000000000235259600000000033714143609CENTRO-DE-ESTUDIOS-DIGESTIVOS-000000000019500000000000000000000000000000000000000000000000000000000000000000000000000000000000000000000000000000000000PES00010000001 00000000000000000000000
201602020060000100000000000000023526000000000000000235269600000000033714143609CENTRO-DE-ESTUDIOS-DIGESTIVOS-000000000037500000000000000000000000000000000000000000000000000000000000000000000000000000000000000000000000000000000000PES00010000001 00000000000000000000000
201602020060000100000000000000023527000000000000000235279600000000033714143609CENTRO-DE-ESTUDIOS-DIGESTIVOS-000000000051000000000000000000000000000000000000000000000000000000000000000000000000000000000000000000000000000000000000PES00010000001 00000000000000000000000
201602020060000100000000000000023528000000000000000235289600000000033714143609CENTRO-DE-ESTUDIOS-DIGESTIVOS-000000000052000000000000000000000000000000000000000000000000000000000000000000000000000000000000000000000000000000000000PES00010000001 00000000000000000000000
201602020060000100000000000000023529000000000000000235299600000000033714143609CENTRO-DE-ESTUDIOS-DIGESTIVOS-000000000037000000000000000000000000000000000000000000000000000000000000000000000000000000000000000000000000000000000000PES00010000001 00000000000000000000000
201602020060000100000000000000023530000000000000000235309600000000033714143609CENTRO-DE-ESTUDIOS-DIGESTIVOS-000000000012000000000000000000000000000000000000000000000000000000000000000000000000000000000000000000000000000000000000PES00010000001 00000000000000000000000
201602020060000100000000000000023531000000000000000235319600000000033714143609CENTRO-DE-ESTUDIOS-DIGESTIVOS-000000000066500000000000000000000000000000000000000000000000000000000000000000000000000000000000000000000000000000000000PES00010000001 00000000000000000000000
201602020060000100000000000000023532000000000000000235329600000000033714143609CENTRO-DE-ESTUDIOS-DIGESTIVOS-000000000088500000000000000000000000000000000000000000000000000000000000000000000000000000000000000000000000000000000000PES00010000001 00000000000000000000000
201602020060000100000000000000023533000000000000000235339600000000033714143609CENTRO-DE-ESTUDIOS-DIGESTIVOS-000000000078500000000000000000000000000000000000000000000000000000000000000000000000000000000000000000000000000000000000PES00010000001 00000000000000000000000
201602020060000100000000000000023534000000000000000235349600000000033714143609CENTRO-DE-ESTUDIOS-DIGESTIVOS-000000000049500000000000000000000000000000000000000000000000000000000000000000000000000000000000000000000000000000000000PES00010000001 00000000000000000000000
201602020060000100000000000000023535000000000000000235359600000000033714143609CENTRO-DE-ESTUDIOS-DIGESTIVOS-000000000023500000000000000000000000000000000000000000000000000000000000000000000000000000000000000000000000000000000000PES00010000001 00000000000000000000000
201602020060000100000000000000023536000000000000000235369600000000033714143609CENTRO-DE-ESTUDIOS-DIGESTIVOS-000000000038200000000000000000000000000000000000000000000000000000000000000000000000000000000000000000000000000000000000PES00010000001 00000000000000000000000
201602020060000100000000000000023537000000000000000235379600000000033714143609CENTRO-DE-ESTUDIOS-DIGESTIVOS-000000000031000000000000000000000000000000000000000000000000000000000000000000000000000000000000000000000000000000000000PES00010000001 00000000000000000000000
201602020060000100000000000000023538000000000000000235389600000000033714143609CENTRO-DE-ESTUDIOS-DIGESTIVOS-000000000042500000000000000000000000000000000000000000000000000000000000000000000000000000000000000000000000000000000000PES00010000001 00000000000000000000000
201602020060000100000000000000023539000000000000000235399600000000033714143609CENTRO-DE-ESTUDIOS-DIGESTIVOS-000000000077500000000000000000000000000000000000000000000000000000000000000000000000000000000000000000000000000000000000PES00010000001 00000000000000000000000
201602020060000100000000000000023540000000000000000235409600000000033714143609CENTRO-DE-ESTUDIOS-DIGESTIVOS-000000000043500000000000000000000000000000000000000000000000000000000000000000000000000000000000000000000000000000000000PES00010000001 00000000000000000000000
201602030060000100000000000000023541000000000000000235419600000000033714143609CENTRO-DE-ESTUDIOS-DIGESTIVOS-000000000155000000000000000000000000000000000000000000000000000000000000000000000000000000000000000000000000000000000000PES00010000001 00000000000000000000000
201602030060000100000000000000023542000000000000000235429600000000033714143609CENTRO-DE-ESTUDIOS-DIGESTIVOS-000000000029500000000000000000000000000000000000000000000000000000000000000000000000000000000000000000000000000000000000PES00010000001 00000000000000000000000
201602030060000100000000000000023543000000000000000235439600000000033714143609CENTRO-DE-ESTUDIOS-DIGESTIVOS-000000000217000000000000000000000000000000000000000000000000000000000000000000000000000000000000000000000000000000000000PES00010000001 00000000000000000000000
201602030060000100000000000000023544000000000000000235449600000000033714143609CENTRO-DE-ESTUDIOS-DIGESTIVOS-000000000026000000000000000000000000000000000000000000000000000000000000000000000000000000000000000000000000000000000000PES00010000001 00000000000000000000000
201602030060000100000000000000023545000000000000000235459600000000033714143609CENTRO-DE-ESTUDIOS-DIGESTIVOS-000000000057000000000000000000000000000000000000000000000000000000000000000000000000000000000000000000000000000000000000PES00010000001 00000000000000000000000
201602030060000100000000000000023546000000000000000235469600000000033714143609CENTRO-DE-ESTUDIOS-DIGESTIVOS-000000000026500000000000000000000000000000000000000000000000000000000000000000000000000000000000000000000000000000000000PES00010000001 00000000000000000000000
201602030060000100000000000000023547000000000000000235479600000000033714143609CENTRO-DE-ESTUDIOS-DIGESTIVOS-000000000037500000000000000000000000000000000000000000000000000000000000000000000000000000000000000000000000000000000000PES00010000001 00000000000000000000000
201602030060000100000000000000023548000000000000000235489600000000033714143609CENTRO-DE-ESTUDIOS-DIGESTIVOS-000000000134300000000000000000000000000000000000000000000000000000000000000000000000000000000000000000000000000000000000PES00010000001 00000000000000000000000
201602030060000100000000000000023549000000000000000235499600000000033714143609CENTRO-DE-ESTUDIOS-DIGESTIVOS-000000000186000000000000000000000000000000000000000000000000000000000000000000000000000000000000000000000000000000000000PES00010000001 00000000000000000000000
201602040060000100000000000000023550000000000000000235509600000000033714143609CENTRO-DE-ESTUDIOS-DIGESTIVOS-000000000060000000000000000000000000000000000000000000000000000000000000000000000000000000000000000000000000000000000000PES00010000001 00000000000000000000000
201602040060000100000000000000023551000000000000000235519600000000033714143609CENTRO-DE-ESTUDIOS-DIGESTIVOS-000000000051500000000000000000000000000000000000000000000000000000000000000000000000000000000000000000000000000000000000PES00010000001 00000000000000000000000
201602040060000100000000000000023552000000000000000235529600000000033714143609CENTRO-DE-ESTUDIOS-DIGESTIVOS-000000000069000000000000000000000000000000000000000000000000000000000000000000000000000000000000000000000000000000000000PES00010000001 00000000000000000000000
201602040060000100000000000000023553000000000000000235539600000000033714143609CENTRO-DE-ESTUDIOS-DIGESTIVOS-000000000028500000000000000000000000000000000000000000000000000000000000000000000000000000000000000000000000000000000000PES00010000001 00000000000000000000000
201602040060000100000000000000023554000000000000000235549600000000033714143609CENTRO-DE-ESTUDIOS-DIGESTIVOS-000000000068000000000000000000000000000000000000000000000000000000000000000000000000000000000000000000000000000000000000PES00010000001 00000000000000000000000
201602040060000100000000000000023555000000000000000235559600000000033714143609CENTRO-DE-ESTUDIOS-DIGESTIVOS-000000000058500000000000000000000000000000000000000000000000000000000000000000000000000000000000000000000000000000000000PES00010000001 00000000000000000000000
201602040060000100000000000000023556000000000000000235569600000000033714143609CENTRO-DE-ESTUDIOS-DIGESTIVOS-000000000067500000000000000000000000000000000000000000000000000000000000000000000000000000000000000000000000000000000000PES00010000001 00000000000000000000000
201602050060000100000000000000023557000000000000000235579600000000033714143609CENTRO-DE-ESTUDIOS-DIGESTIVOS-000000000067500000000000000000000000000000000000000000000000000000000000000000000000000000000000000000000000000000000000PES00010000001 00000000000000000000000
201602050060000100000000000000023558000000000000000235589600000000033714143609CENTRO-DE-ESTUDIOS-DIGESTIVOS-000000000146000000000000000000000000000000000000000000000000000000000000000000000000000000000000000000000000000000000000PES00010000001 00000000000000000000000
201602050060000100000000000000023559000000000000000235599600000000033714143609CENTRO-DE-ESTUDIOS-DIGESTIVOS-000000000069500000000000000000000000000000000000000000000000000000000000000000000000000000000000000000000000000000000000PES00010000001 00000000000000000000000
201602050060000100000000000000023560000000000000000235609600000000033714143609CENTRO-DE-ESTUDIOS-DIGESTIVOS-000000000062000000000000000000000000000000000000000000000000000000000000000000000000000000000000000000000000000000000000PES00010000001 00000000000000000000000
201602050060000100000000000000023561000000000000000235619600000000033714143609CENTRO-DE-ESTUDIOS-DIGESTIVOS-000000000047700000000000000000000000000000000000000000000000000000000000000000000000000000000000000000000000000000000000PES00010000001 00000000000000000000000
201602050060000100000000000000023562000000000000000235629600000000033714143609CENTRO-DE-ESTUDIOS-DIGESTIVOS-000000000021500000000000000000000000000000000000000000000000000000000000000000000000000000000000000000000000000000000000PES00010000001 00000000000000000000000
201602050060000100000000000000023563000000000000000235639600000000033714143609CENTRO-DE-ESTUDIOS-DIGESTIVOS-000000000041500000000000000000000000000000000000000000000000000000000000000000000000000000000000000000000000000000000000PES00010000001 00000000000000000000000
201602050060000100000000000000023564000000000000000235649600000000033714143609CENTRO-DE-ESTUDIOS-DIGESTIVOS-000000000048000000000000000000000000000000000000000000000000000000000000000000000000000000000000000000000000000000000000PES00010000001 00000000000000000000000
201602050060000100000000000000023565000000000000000235659600000000033714143609CENTRO-DE-ESTUDIOS-DIGESTIVOS-000000000066000000000000000000000000000000000000000000000000000000000000000000000000000000000000000000000000000000000000PES00010000001 00000000000000000000000
201602060060000100000000000000023566000000000000000235669600000000033714143609CENTRO-DE-ESTUDIOS-DIGESTIVOS-000000000047300000000000000000000000000000000000000000000000000000000000000000000000000000000000000000000000000000000000PES00010000001 00000000000000000000000
201602060060000100000000000000023567000000000000000235679600000000033714143609CENTRO-DE-ESTUDIOS-DIGESTIVOS-000000000023500000000000000000000000000000000000000000000000000000000000000000000000000000000000000000000000000000000000PES00010000001 00000000000000000000000
201602060060000100000000000000023568000000000000000235689600000000033714143609CENTRO-DE-ESTUDIOS-DIGESTIVOS-000000000044500000000000000000000000000000000000000000000000000000000000000000000000000000000000000000000000000000000000PES00010000001 00000000000000000000000
201602060060000100000000000000023569000000000000000235699600000000033714143609CENTRO-DE-ESTUDIOS-DIGESTIVOS-000000000016000000000000000000000000000000000000000000000000000000000000000000000000000000000000000000000000000000000000PES00010000001 00000000000000000000000
201602060060000100000000000000023570000000000000000235709600000000033714143609CENTRO-DE-ESTUDIOS-DIGESTIVOS-000000000114000000000000000000000000000000000000000000000000000000000000000000000000000000000000000000000000000000000000PES00010000001 00000000000000000000000
201602060060000100000000000000023571000000000000000235719600000000033714143609CENTRO-DE-ESTUDIOS-DIGESTIVOS-000000000009800000000000000000000000000000000000000000000000000000000000000000000000000000000000000000000000000000000000PES00010000001 00000000000000000000000
201602060060000100000000000000023572000000000000000235729600000000033714143609CENTRO-DE-ESTUDIOS-DIGESTIVOS-000000000018500000000000000000000000000000000000000000000000000000000000000000000000000000000000000000000000000000000000PES00010000001 00000000000000000000000
201602060060000100000000000000023573000000000000000235739600000000033714143609CENTRO-DE-ESTUDIOS-DIGESTIVOS-000000000052300000000000000000000000000000000000000000000000000000000000000000000000000000000000000000000000000000000000PES00010000001 00000000000000000000000
201602060060000100000000000000023574000000000000000235749600000000033714143609CENTRO-DE-ESTUDIOS-DIGESTIVOS-000000000052300000000000000000000000000000000000000000000000000000000000000000000000000000000000000000000000000000000000PES00010000001 00000000000000000000000
201602060060000100000000000000023575000000000000000235759600000000033714143609CENTRO-DE-ESTUDIOS-DIGESTIVOS-000000000035000000000000000000000000000000000000000000000000000000000000000000000000000000000000000000000000000000000000PES00010000001 00000000000000000000000
201602060060000100000000000000023576000000000000000235769600000000033714143609CENTRO-DE-ESTUDIOS-DIGESTIVOS-000000000120015000000000000000000000000000000000000000000000000000000000000000000000000000000000000000000000000000000000PES00010000001 00000000000000000000000
201602060060000100000000000000023577000000000000000235779600000000033714143609CENTRO-DE-ESTUDIOS-DIGESTIVOS-000000000007500000000000000000000000000000000000000000000000000000000000000000000000000000000000000000000000000000000000PES00010000001 00000000000000000000000
201602060060000100000000000000023578000000000000000235789600000000033714143609CENTRO-DE-ESTUDIOS-DIGESTIVOS-000000000035000000000000000000000000000000000000000000000000000000000000000000000000000000000000000000000000000000000000PES00010000001 00000000000000000000000
201602060060000100000000000000023579000000000000000235799600000000033714143609CENTRO-DE-ESTUDIOS-DIGESTIVOS-000000000034500000000000000000000000000000000000000000000000000000000000000000000000000000000000000000000000000000000000PES00010000001 00000000000000000000000
201602060060000100000000000000023580000000000000000235809600000000033714143609CENTRO-DE-ESTUDIOS-DIGESTIVOS-000000000134400000000000000000000000000000000000000000000000000000000000000000000000000000000000000000000000000000000000PES00010000001 00000000000000000000000
201602060060000100000000000000023581000000000000000235819600000000033714143609CENTRO-DE-ESTUDIOS-DIGESTIVOS-000000000031000000000000000000000000000000000000000000000000000000000000000000000000000000000000000000000000000000000000PES00010000001 00000000000000000000000
201602060060000100000000000000023582000000000000000235829600000000033714143609CENTRO-DE-ESTUDIOS-DIGESTIVOS-000000000019500000000000000000000000000000000000000000000000000000000000000000000000000000000000000000000000000000000000PES00010000001 00000000000000000000000
201602060060000100000000000000023583000000000000000235839600000000033714143609CENTRO-DE-ESTUDIOS-DIGESTIVOS-000000000049000000000000000000000000000000000000000000000000000000000000000000000000000000000000000000000000000000000000PES00010000001 00000000000000000000000
201602060060000100000000000000023584000000000000000235849600000000033714143609CENTRO-DE-ESTUDIOS-DIGESTIVOS-000000000071500000000000000000000000000000000000000000000000000000000000000000000000000000000000000000000000000000000000PES00010000001 00000000000000000000000
201602060060000100000000000000023585000000000000000235859600000000033714143609CENTRO-DE-ESTUDIOS-DIGESTIVOS-000000000019500000000000000000000000000000000000000000000000000000000000000000000000000000000000000000000000000000000000PES00010000001 00000000000000000000000
201602060060000100000000000000023586000000000000000235869600000000033714143609CENTRO-DE-ESTUDIOS-DIGESTIVOS-000000000076000000000000000000000000000000000000000000000000000000000000000000000000000000000000000000000000000000000000PES00010000001 00000000000000000000000
201602060060000100000000000000023587000000000000000235879600000000033714143609CENTRO-DE-ESTUDIOS-DIGESTIVOS-000000000021500000000000000000000000000000000000000000000000000000000000000000000000000000000000000000000000000000000000PES00010000001 00000000000000000000000
201602060060000100000000000000023588000000000000000235889600000000033714143609CENTRO-DE-ESTUDIOS-DIGESTIVOS-000000000125400000000000000000000000000000000000000000000000000000000000000000000000000000000000000000000000000000000000PES00010000001 00000000000000000000000
201602100060000100000000000000023589000000000000000235899600000000033714143609CENTRO-DE-ESTUDIOS-DIGESTIVOS-000000000216500000000000000000000000000000000000000000000000000000000000000000000000000000000000000000000000000000000000PES00010000001 00000000000000000000000
201602100060000100000000000000023590000000000000000235909600000000033714143609CENTRO-DE-ESTUDIOS-DIGESTIVOS-000000000035000000000000000000000000000000000000000000000000000000000000000000000000000000000000000000000000000000000000PES00010000001 00000000000000000000000
201602100060000100000000000000023591000000000000000235919600000000033714143609CENTRO-DE-ESTUDIOS-DIGESTIVOS-000000000036500000000000000000000000000000000000000000000000000000000000000000000000000000000000000000000000000000000000PES00010000001 00000000000000000000000
201602100060000100000000000000023592000000000000000235929600000000033714143609CENTRO-DE-ESTUDIOS-DIGESTIVOS-000000000039000000000000000000000000000000000000000000000000000000000000000000000000000000000000000000000000000000000000PES00010000001 00000000000000000000000
201602100060000100000000000000023593000000000000000235939600000000033714143609CENTRO-DE-ESTUDIOS-DIGESTIVOS-000000000187000000000000000000000000000000000000000000000000000000000000000000000000000000000000000000000000000000000000PES00010000001 00000000000000000000000
201602100060000100000000000000023594000000000000000235949600000000033714143609CENTRO-DE-ESTUDIOS-DIGESTIVOS-000000000023500000000000000000000000000000000000000000000000000000000000000000000000000000000000000000000000000000000000PES00010000001 00000000000000000000000
201602100060000100000000000000023595000000000000000235959600000000033714143609CENTRO-DE-ESTUDIOS-DIGESTIVOS-000000000053000000000000000000000000000000000000000000000000000000000000000000000000000000000000000000000000000000000000PES00010000001 00000000000000000000000
201602100060000100000000000000023596000000000000000235969600000000033714143609CENTRO-DE-ESTUDIOS-DIGESTIVOS-000000000051500000000000000000000000000000000000000000000000000000000000000000000000000000000000000000000000000000000000PES00010000001 00000000000000000000000
201602100060000100000000000000023597000000000000000235979600000000033714143609CENTRO-DE-ESTUDIOS-DIGESTIVOS-000000000023500000000000000000000000000000000000000000000000000000000000000000000000000000000000000000000000000000000000PES00010000001 00000000000000000000000
201602100060000100000000000000023598000000000000000235989600000000033714143609CENTRO-DE-ESTUDIOS-DIGESTIVOS-000000000159500000000000000000000000000000000000000000000000000000000000000000000000000000000000000000000000000000000000PES00010000001 00000000000000000000000
201602110060000100000000000000023599000000000000000235999600000000033714143609CENTRO-DE-ESTUDIOS-DIGESTIVOS-000000000046000000000000000000000000000000000000000000000000000000000000000000000000000000000000000000000000000000000000PES00010000001 00000000000000000000000
201602110060000100000000000000023600000000000000000236009600000000033714143609CENTRO-DE-ESTUDIOS-DIGESTIVOS-000000000015000000000000000000000000000000000000000000000000000000000000000000000000000000000000000000000000000000000000PES00010000001 00000000000000000000000
201602110060000100000000000000023601000000000000000236019600000000033714143609CENTRO-DE-ESTUDIOS-DIGESTIVOS-000000000049500000000000000000000000000000000000000000000000000000000000000000000000000000000000000000000000000000000000PES00010000001 00000000000000000000000
201602110060000100000000000000023602000000000000000236029600000000033714143609CENTRO-DE-ESTUDIOS-DIGESTIVOS-000000000060500000000000000000000000000000000000000000000000000000000000000000000000000000000000000000000000000000000000PES00010000001 00000000000000000000000
201602110060000100000000000000023603000000000000000236039600000000033714143609CENTRO-DE-ESTUDIOS-DIGESTIVOS-000000000075500000000000000000000000000000000000000000000000000000000000000000000000000000000000000000000000000000000000PES00010000001 00000000000000000000000
201602110060000100000000000000023604000000000000000236049600000000033714143609CENTRO-DE-ESTUDIOS-DIGESTIVOS-000000000072000000000000000000000000000000000000000000000000000000000000000000000000000000000000000000000000000000000000PES00010000001 00000000000000000000000
201602120060000100000000000000023605000000000000000236059600000000033714143609CENTRO-DE-ESTUDIOS-DIGESTIVOS-000000000135000000000000000000000000000000000000000000000000000000000000000000000000000000000000000000000000000000000000PES00010000001 00000000000000000000000
201602120060000100000000000000023606000000000000000236069600000000033714143609CENTRO-DE-ESTUDIOS-DIGESTIVOS-000000000135000000000000000000000000000000000000000000000000000000000000000000000000000000000000000000000000000000000000PES00010000001 00000000000000000000000
201602120060000100000000000000023607000000000000000236079600000000033714143609CENTRO-DE-ESTUDIOS-DIGESTIVOS-000000000042500000000000000000000000000000000000000000000000000000000000000000000000000000000000000000000000000000000000PES00010000001 00000000000000000000000
201602120060000100000000000000023608000000000000000236089600000000033714143609CENTRO-DE-ESTUDIOS-DIGESTIVOS-000000000069500000000000000000000000000000000000000000000000000000000000000000000000000000000000000000000000000000000000PES00010000001 00000000000000000000000
201602120060000100000000000000023609000000000000000236099600000000033714143609CENTRO-DE-ESTUDIOS-DIGESTIVOS-000000000118100000000000000000000000000000000000000000000000000000000000000000000000000000000000000000000000000000000000PES00010000001 00000000000000000000000
201602120060000100000000000000023610000000000000000236109600000000033714143609CENTRO-DE-ESTUDIOS-DIGESTIVOS-000000000105500000000000000000000000000000000000000000000000000000000000000000000000000000000000000000000000000000000000PES00010000001 00000000000000000000000
201602120060000100000000000000023611000000000000000236119600000000033714143609CENTRO-DE-ESTUDIOS-DIGESTIVOS-000000000056000000000000000000000000000000000000000000000000000000000000000000000000000000000000000000000000000000000000PES00010000001 00000000000000000000000
201602120060000100000000000000023612000000000000000236129600000000033714143609CENTRO-DE-ESTUDIOS-DIGESTIVOS-000000000028000000000000000000000000000000000000000000000000000000000000000000000000000000000000000000000000000000000000PES00010000001 00000000000000000000000
201602120060000100000000000000023613000000000000000236139600000000033714143609CENTRO-DE-ESTUDIOS-DIGESTIVOS-000000000056500000000000000000000000000000000000000000000000000000000000000000000000000000000000000000000000000000000000PES00010000001 00000000000000000000000
201602120060000100000000000000023614000000000000000236149600000000033714143609CENTRO-DE-ESTUDIOS-DIGESTIVOS-000000000085500000000000000000000000000000000000000000000000000000000000000000000000000000000000000000000000000000000000PES00010000001 00000000000000000000000
201602120060000100000000000000023615000000000000000236159600000000033714143609CENTRO-DE-ESTUDIOS-DIGESTIVOS-000000000053000000000000000000000000000000000000000000000000000000000000000000000000000000000000000000000000000000000000PES00010000001 00000000000000000000000
201602120060000100000000000000023616000000000000000236169600000000033714143609CENTRO-DE-ESTUDIOS-DIGESTIVOS-000000000211300000000000000000000000000000000000000000000000000000000000000000000000000000000000000000000000000000000000PES00010000001 00000000000000000000000
201602120060000100000000000000023617000000000000000236179600000000033714143609CENTRO-DE-ESTUDIOS-DIGESTIVOS-000000000026000000000000000000000000000000000000000000000000000000000000000000000000000000000000000000000000000000000000PES00010000001 00000000000000000000000
201602120060000100000000000000023618000000000000000236189600000000033714143609CENTRO-DE-ESTUDIOS-DIGESTIVOS-000000000137000000000000000000000000000000000000000000000000000000000000000000000000000000000000000000000000000000000000PES00010000001 00000000000000000000000
201602120060000100000000000000023619000000000000000236199600000000033714143609CENTRO-DE-ESTUDIOS-DIGESTIVOS-000000000064300000000000000000000000000000000000000000000000000000000000000000000000000000000000000000000000000000000000PES00010000001 00000000000000000000000
201602120060000100000000000000023620000000000000000236209600000000033714143609CENTRO-DE-ESTUDIOS-DIGESTIVOS-000000000021000000000000000000000000000000000000000000000000000000000000000000000000000000000000000000000000000000000000PES00010000001 00000000000000000000000
201602120060000100000000000000023621000000000000000236219600000000033714143609CENTRO-DE-ESTUDIOS-DIGESTIVOS-000000000099800000000000000000000000000000000000000000000000000000000000000000000000000000000000000000000000000000000000PES00010000001 00000000000000000000000
201602120060000100000000000000023622000000000000000236229600000000033714143609CENTRO-DE-ESTUDIOS-DIGESTIVOS-000000000079500000000000000000000000000000000000000000000000000000000000000000000000000000000000000000000000000000000000PES00010000001 00000000000000000000000
201602130060000100000000000000023623000000000000000236239600000000033714143609CENTRO-DE-ESTUDIOS-DIGESTIVOS-000000000018500000000000000000000000000000000000000000000000000000000000000000000000000000000000000000000000000000000000PES00010000001 00000000000000000000000
201602130060000100000000000000023624000000000000000236249600000000033714143609CENTRO-DE-ESTUDIOS-DIGESTIVOS-000000000017500000000000000000000000000000000000000000000000000000000000000000000000000000000000000000000000000000000000PES00010000001 00000000000000000000000
201602130060000100000000000000023625000000000000000236259600000000033714143609CENTRO-DE-ESTUDIOS-DIGESTIVOS-000000000049000000000000000000000000000000000000000000000000000000000000000000000000000000000000000000000000000000000000PES00010000001 00000000000000000000000
201602130060000100000000000000023626000000000000000236269600000000033714143609CENTRO-DE-ESTUDIOS-DIGESTIVOS-000000000273000000000000000000000000000000000000000000000000000000000000000000000000000000000000000000000000000000000000PES00010000001 00000000000000000000000
201602130060000100000000000000023627000000000000000236279600000000033714143609CENTRO-DE-ESTUDIOS-DIGESTIVOS-000000000029500000000000000000000000000000000000000000000000000000000000000000000000000000000000000000000000000000000000PES00010000001 00000000000000000000000
201602130060000100000000000000023628000000000000000236289600000000033714143609CENTRO-DE-ESTUDIOS-DIGESTIVOS-000000000078000000000000000000000000000000000000000000000000000000000000000000000000000000000000000000000000000000000000PES00010000001 00000000000000000000000
201602130060000100000000000000023629000000000000000236299600000000033714143609CENTRO-DE-ESTUDIOS-DIGESTIVOS-000000000058500000000000000000000000000000000000000000000000000000000000000000000000000000000000000000000000000000000000PES00010000001 00000000000000000000000
201602130060000100000000000000023630000000000000000236309600000000033714143609CENTRO-DE-ESTUDIOS-DIGESTIVOS-000000000010500000000000000000000000000000000000000000000000000000000000000000000000000000000000000000000000000000000000PES00010000001 00000000000000000000000
201602130060000100000000000000023631000000000000000236319600000000033714143609CENTRO-DE-ESTUDIOS-DIGESTIVOS-000000000036000000000000000000000000000000000000000000000000000000000000000000000000000000000000000000000000000000000000PES00010000001 00000000000000000000000
201602130060000100000000000000023632000000000000000236329600000000033714143609CENTRO-DE-ESTUDIOS-DIGESTIVOS-000000000023500000000000000000000000000000000000000000000000000000000000000000000000000000000000000000000000000000000000PES00010000001 00000000000000000000000
201602130060000100000000000000023633000000000000000236339600000000033714143609CENTRO-DE-ESTUDIOS-DIGESTIVOS-000000000041000000000000000000000000000000000000000000000000000000000000000000000000000000000000000000000000000000000000PES00010000001 00000000000000000000000
201602130060000100000000000000023634000000000000000236349600000000033714143609CENTRO-DE-ESTUDIOS-DIGESTIVOS-000000000056000000000000000000000000000000000000000000000000000000000000000000000000000000000000000000000000000000000000PES00010000001 00000000000000000000000
201602130060000100000000000000023635000000000000000236359600000000033714143609CENTRO-DE-ESTUDIOS-DIGESTIVOS-000000000031500000000000000000000000000000000000000000000000000000000000000000000000000000000000000000000000000000000000PES00010000001 00000000000000000000000
201602130060000100000000000000023636000000000000000236369600000000033714143609CENTRO-DE-ESTUDIOS-DIGESTIVOS-000000000133500000000000000000000000000000000000000000000000000000000000000000000000000000000000000000000000000000000000PES00010000001 00000000000000000000000
201602130060000100000000000000023637000000000000000236379600000000033714143609CENTRO-DE-ESTUDIOS-DIGESTIVOS-000000000027500000000000000000000000000000000000000000000000000000000000000000000000000000000000000000000000000000000000PES00010000001 00000000000000000000000
201602130060000100000000000000023638000000000000000236389600000000033714143609CENTRO-DE-ESTUDIOS-DIGESTIVOS-000000000029500000000000000000000000000000000000000000000000000000000000000000000000000000000000000000000000000000000000PES00010000001 00000000000000000000000
201602130060000100000000000000023639000000000000000236399600000000033714143609CENTRO-DE-ESTUDIOS-DIGESTIVOS-000000000195000000000000000000000000000000000000000000000000000000000000000000000000000000000000000000000000000000000000PES00010000001 00000000000000000000000
201602130060000100000000000000023640000000000000000236409600000000033714143609CENTRO-DE-ESTUDIOS-DIGESTIVOS-000000000030700000000000000000000000000000000000000000000000000000000000000000000000000000000000000000000000000000000000PES00010000001 00000000000000000000000
201602130060000100000000000000023641000000000000000236419600000000033714143609CENTRO-DE-ESTUDIOS-DIGESTIVOS-000000000066000000000000000000000000000000000000000000000000000000000000000000000000000000000000000000000000000000000000PES00010000001 00000000000000000000000
201602130060000100000000000000023642000000000000000236429600000000033714143609CENTRO-DE-ESTUDIOS-DIGESTIVOS-000000000049500000000000000000000000000000000000000000000000000000000000000000000000000000000000000000000000000000000000PES00010000001 00000000000000000000000
201602130060000100000000000000023643000000000000000236439600000000033714143609CENTRO-DE-ESTUDIOS-DIGESTIVOS-000000000035500000000000000000000000000000000000000000000000000000000000000000000000000000000000000000000000000000000000PES00010000001 00000000000000000000000
201602130060000100000000000000023644000000000000000236449600000000033714143609CENTRO-DE-ESTUDIOS-DIGESTIVOS-000000000106000000000000000000000000000000000000000000000000000000000000000000000000000000000000000000000000000000000000PES00010000001 00000000000000000000000
201602150060000100000000000000023645000000000000000236459600000000033714143609CENTRO-DE-ESTUDIOS-DIGESTIVOS-000000000242100000000000000000000000000000000000000000000000000000000000000000000000000000000000000000000000000000000000PES00010000001 00000000000000000000000
201602150060000100000000000000023646000000000000000236469600000000033714143609CENTRO-DE-ESTUDIOS-DIGESTIVOS-000000000214000000000000000000000000000000000000000000000000000000000000000000000000000000000000000000000000000000000000PES00010000001 00000000000000000000000
201602150060000100000000000000023647000000000000000236479600000000033714143609CENTRO-DE-ESTUDIOS-DIGESTIVOS-000000000075000000000000000000000000000000000000000000000000000000000000000000000000000000000000000000000000000000000000PES00010000001 00000000000000000000000
201602150060000100000000000000023648000000000000000236489600000000033714143609CENTRO-DE-ESTUDIOS-DIGESTIVOS-000000000071600000000000000000000000000000000000000000000000000000000000000000000000000000000000000000000000000000000000PES00010000001 00000000000000000000000
201602150060000100000000000000023649000000000000000236499600000000033714143609CENTRO-DE-ESTUDIOS-DIGESTIVOS-000000000016000000000000000000000000000000000000000000000000000000000000000000000000000000000000000000000000000000000000PES00010000001 00000000000000000000000
201602150060000100000000000000023650000000000000000236509600000000033714143609CENTRO-DE-ESTUDIOS-DIGESTIVOS-000000000035000000000000000000000000000000000000000000000000000000000000000000000000000000000000000000000000000000000000PES00010000001 00000000000000000000000
201602150060000100000000000000023651000000000000000236519600000000033714143609CENTRO-DE-ESTUDIOS-DIGESTIVOS-000000000018500000000000000000000000000000000000000000000000000000000000000000000000000000000000000000000000000000000000PES00010000001 00000000000000000000000
201602150060000100000000000000023652000000000000000236529600000000033714143609CENTRO-DE-ESTUDIOS-DIGESTIVOS-000000000096500000000000000000000000000000000000000000000000000000000000000000000000000000000000000000000000000000000000PES00010000001 00000000000000000000000
201602150060000100000000000000023653000000000000000236539600000000033714143609CENTRO-DE-ESTUDIOS-DIGESTIVOS-000000000040000000000000000000000000000000000000000000000000000000000000000000000000000000000000000000000000000000000000PES00010000001 00000000000000000000000
201602150060000100000000000000023654000000000000000236549600000000033714143609CENTRO-DE-ESTUDIOS-DIGESTIVOS-000000000018500000000000000000000000000000000000000000000000000000000000000000000000000000000000000000000000000000000000PES00010000001 00000000000000000000000
201602150060000100000000000000023655000000000000000236559600000000033714143609CENTRO-DE-ESTUDIOS-DIGESTIVOS-000000000130500000000000000000000000000000000000000000000000000000000000000000000000000000000000000000000000000000000000PES00010000001 00000000000000000000000
201602150060000100000000000000023656000000000000000236569600000000033714143609CENTRO-DE-ESTUDIOS-DIGESTIVOS-000000000151100000000000000000000000000000000000000000000000000000000000000000000000000000000000000000000000000000000000PES00010000001 00000000000000000000000
201602150060000100000000000000023657000000000000000236579600000000033714143609CENTRO-DE-ESTUDIOS-DIGESTIVOS-000000000037500000000000000000000000000000000000000000000000000000000000000000000000000000000000000000000000000000000000PES00010000001 00000000000000000000000
201602150060000100000000000000023658000000000000000236589600000000033714143609CENTRO-DE-ESTUDIOS-DIGESTIVOS-000000000360000000000000000000000000000000000000000000000000000000000000000000000000000000000000000000000000000000000000PES00010000001 00000000000000000000000
201602150060000100000000000000023659000000000000000236599600000000033714143609CENTRO-DE-ESTUDIOS-DIGESTIVOS-000000000203700000000000000000000000000000000000000000000000000000000000000000000000000000000000000000000000000000000000PES00010000001 00000000000000000000000
201602150060000100000000000000023660000000000000000236609600000000033714143609CENTRO-DE-ESTUDIOS-DIGESTIVOS-000000000105000000000000000000000000000000000000000000000000000000000000000000000000000000000000000000000000000000000000PES00010000001 00000000000000000000000
201602160060000100000000000000023661000000000000000236619600000000033714143609CENTRO-DE-ESTUDIOS-DIGESTIVOS-000000000036000000000000000000000000000000000000000000000000000000000000000000000000000000000000000000000000000000000000PES00010000001 00000000000000000000000
201602160060000100000000000000023662000000000000000236629600000000033714143609CENTRO-DE-ESTUDIOS-DIGESTIVOS-000000000780000000000000000000000000000000000000000000000000000000000000000000000000000000000000000000000000000000000000PES00010000001 00000000000000000000000
201602160060000100000000000000023663000000000000000236639600000000033714143609CENTRO-DE-ESTUDIOS-DIGESTIVOS-000000000035000000000000000000000000000000000000000000000000000000000000000000000000000000000000000000000000000000000000PES00010000001 00000000000000000000000
201602160060000100000000000000023664000000000000000236649600000000033714143609CENTRO-DE-ESTUDIOS-DIGESTIVOS-000000000034000000000000000000000000000000000000000000000000000000000000000000000000000000000000000000000000000000000000PES00010000001 00000000000000000000000
201602160060000100000000000000023665000000000000000236659600000000033714143609CENTRO-DE-ESTUDIOS-DIGESTIVOS-000000000025300000000000000000000000000000000000000000000000000000000000000000000000000000000000000000000000000000000000PES00010000001 00000000000000000000000
201602160060000100000000000000023666000000000000000236669600000000033714143609CENTRO-DE-ESTUDIOS-DIGESTIVOS-000000000166000000000000000000000000000000000000000000000000000000000000000000000000000000000000000000000000000000000000PES00010000001 00000000000000000000000
201602160060000100000000000000023667000000000000000236679600000000033714143609CENTRO-DE-ESTUDIOS-DIGESTIVOS-000000000073500000000000000000000000000000000000000000000000000000000000000000000000000000000000000000000000000000000000PES00010000001 00000000000000000000000
201602160060000100000000000000023669000000000000000236699600000000033714143609CENTRO-DE-ESTUDIOS-DIGESTIVOS-000000000095000000000000000000000000000000000000000000000000000000000000000000000000000000000000000000000000000000000000PES00010000001 00000000000000000000000
201602160060000100000000000000023670000000000000000236709600000000033714143609CENTRO-DE-ESTUDIOS-DIGESTIVOS-000000000060000000000000000000000000000000000000000000000000000000000000000000000000000000000000000000000000000000000000PES00010000001 00000000000000000000000
201602160060000100000000000000023671000000000000000236719600000000033714143609CENTRO-DE-ESTUDIOS-DIGESTIVOS-000000000013000000000000000000000000000000000000000000000000000000000000000000000000000000000000000000000000000000000000PES00010000001 00000000000000000000000
201602160060000100000000000000023672000000000000000236729600000000033714143609CENTRO-DE-ESTUDIOS-DIGESTIVOS-000000000061000000000000000000000000000000000000000000000000000000000000000000000000000000000000000000000000000000000000PES00010000001 00000000000000000000000
201602160060000100000000000000023673000000000000000236739600000000033714143609CENTRO-DE-ESTUDIOS-DIGESTIVOS-000000000063500000000000000000000000000000000000000000000000000000000000000000000000000000000000000000000000000000000000PES00010000001 00000000000000000000000
201602160060000100000000000000023674000000000000000236749600000000033714143609CENTRO-DE-ESTUDIOS-DIGESTIVOS-000000000061000000000000000000000000000000000000000000000000000000000000000000000000000000000000000000000000000000000000PES00010000001 00000000000000000000000
201602170060000100000000000000023675000000000000000236759600000000033714143609CENTRO-DE-ESTUDIOS-DIGESTIVOS-000000000083000000000000000000000000000000000000000000000000000000000000000000000000000000000000000000000000000000000000PES00010000001 00000000000000000000000
201602170060000100000000000000023676000000000000000236769600000000033714143609CENTRO-DE-ESTUDIOS-DIGESTIVOS-000000000058500000000000000000000000000000000000000000000000000000000000000000000000000000000000000000000000000000000000PES00010000001 00000000000000000000000
201602170060000100000000000000023677000000000000000236779600000000033714143609CENTRO-DE-ESTUDIOS-DIGESTIVOS-000000000073000000000000000000000000000000000000000000000000000000000000000000000000000000000000000000000000000000000000PES00010000001 00000000000000000000000
201602170060000100000000000000023678000000000000000236789600000000033714143609CENTRO-DE-ESTUDIOS-DIGESTIVOS-000000000077000000000000000000000000000000000000000000000000000000000000000000000000000000000000000000000000000000000000PES00010000001 00000000000000000000000
201602170060000100000000000000023679000000000000000236799600000000033714143609CENTRO-DE-ESTUDIOS-DIGESTIVOS-000000000082000000000000000000000000000000000000000000000000000000000000000000000000000000000000000000000000000000000000PES00010000001 00000000000000000000000
201602170060000100000000000000023680000000000000000236809600000000033714143609CENTRO-DE-ESTUDIOS-DIGESTIVOS-000000000185500000000000000000000000000000000000000000000000000000000000000000000000000000000000000000000000000000000000PES00010000001 00000000000000000000000
201602170060000100000000000000023681000000000000000236819600000000033714143609CENTRO-DE-ESTUDIOS-DIGESTIVOS-000000000013000000000000000000000000000000000000000000000000000000000000000000000000000000000000000000000000000000000000PES00010000001 00000000000000000000000
201602170060000100000000000000023682000000000000000236829600000000033714143609CENTRO-DE-ESTUDIOS-DIGESTIVOS-000000000155000000000000000000000000000000000000000000000000000000000000000000000000000000000000000000000000000000000000PES00010000001 00000000000000000000000
201602170060000100000000000000023683000000000000000236839600000000033714143609CENTRO-DE-ESTUDIOS-DIGESTIVOS-000000000022500000000000000000000000000000000000000000000000000000000000000000000000000000000000000000000000000000000000PES00010000001 00000000000000000000000
201602170060000100000000000000023684000000000000000236849600000000033714143609CENTRO-DE-ESTUDIOS-DIGESTIVOS-000000000016500000000000000000000000000000000000000000000000000000000000000000000000000000000000000000000000000000000000PES00010000001 00000000000000000000000
201602170060000100000000000000023685000000000000000236859600000000033714143609CENTRO-DE-ESTUDIOS-DIGESTIVOS-000000000088300000000000000000000000000000000000000000000000000000000000000000000000000000000000000000000000000000000000PES00010000001 00000000000000000000000
201602170060000100000000000000023686000000000000000236869600000000033714143609CENTRO-DE-ESTUDIOS-DIGESTIVOS-000000000053500000000000000000000000000000000000000000000000000000000000000000000000000000000000000000000000000000000000PES00010000001 00000000000000000000000
201602170060000100000000000000023687000000000000000236879600000000033714143609CENTRO-DE-ESTUDIOS-DIGESTIVOS-000000000036800000000000000000000000000000000000000000000000000000000000000000000000000000000000000000000000000000000000PES00010000001 00000000000000000000000
201602170060000100000000000000023688000000000000000236889600000000033714143609CENTRO-DE-ESTUDIOS-DIGESTIVOS-000000000022500000000000000000000000000000000000000000000000000000000000000000000000000000000000000000000000000000000000PES00010000001 00000000000000000000000
201602170060000100000000000000023689000000000000000236899600000000033714143609CENTRO-DE-ESTUDIOS-DIGESTIVOS-000000000057000000000000000000000000000000000000000000000000000000000000000000000000000000000000000000000000000000000000PES00010000001 00000000000000000000000
201602180060000100000000000000023690000000000000000236909600000000033714143609CENTRO-DE-ESTUDIOS-DIGESTIVOS-000000000108500000000000000000000000000000000000000000000000000000000000000000000000000000000000000000000000000000000000PES00010000001 00000000000000000000000
201602180060000100000000000000023691000000000000000236919600000000033714143609CENTRO-DE-ESTUDIOS-DIGESTIVOS-000000000070800000000000000000000000000000000000000000000000000000000000000000000000000000000000000000000000000000000000PES00010000001 00000000000000000000000
201602180060000100000000000000023692000000000000000236929600000000033714143609CENTRO-DE-ESTUDIOS-DIGESTIVOS-000000000134800000000000000000000000000000000000000000000000000000000000000000000000000000000000000000000000000000000000PES00010000001 00000000000000000000000
201602180060000100000000000000023693000000000000000236939600000000033714143609CENTRO-DE-ESTUDIOS-DIGESTIVOS-000000000021500000000000000000000000000000000000000000000000000000000000000000000000000000000000000000000000000000000000PES00010000001 00000000000000000000000
201602180060000100000000000000023694000000000000000236949600000000033714143609CENTRO-DE-ESTUDIOS-DIGESTIVOS-000000000023500000000000000000000000000000000000000000000000000000000000000000000000000000000000000000000000000000000000PES00010000001 00000000000000000000000
201602180060000100000000000000023695000000000000000236959600000000033714143609CENTRO-DE-ESTUDIOS-DIGESTIVOS-000000000062600000000000000000000000000000000000000000000000000000000000000000000000000000000000000000000000000000000000PES00010000001 00000000000000000000000
201602180060000100000000000000023696000000000000000236969600000000033714143609CENTRO-DE-ESTUDIOS-DIGESTIVOS-000000000147000000000000000000000000000000000000000000000000000000000000000000000000000000000000000000000000000000000000PES00010000001 00000000000000000000000
201602180060000100000000000000023697000000000000000236979600000000033714143609CENTRO-DE-ESTUDIOS-DIGESTIVOS-000000000049900000000000000000000000000000000000000000000000000000000000000000000000000000000000000000000000000000000000PES00010000001 00000000000000000000000
201602180060000100000000000000023698000000000000000236989600000000033714143609CENTRO-DE-ESTUDIOS-DIGESTIVOS-000000000031000000000000000000000000000000000000000000000000000000000000000000000000000000000000000000000000000000000000PES00010000001 00000000000000000000000
201602180060000100000000000000023699000000000000000236999600000000033714143609CENTRO-DE-ESTUDIOS-DIGESTIVOS-000000000023500000000000000000000000000000000000000000000000000000000000000000000000000000000000000000000000000000000000PES00010000001 00000000000000000000000
201602190060000100000000000000023700000000000000000237009600000000033714143609CENTRO-DE-ESTUDIOS-DIGESTIVOS-000000000017500000000000000000000000000000000000000000000000000000000000000000000000000000000000000000000000000000000000PES00010000001 00000000000000000000000
201602190060000100000000000000023701000000000000000237019600000000033714143609CENTRO-DE-ESTUDIOS-DIGESTIVOS-000000000038000000000000000000000000000000000000000000000000000000000000000000000000000000000000000000000000000000000000PES00010000001 00000000000000000000000
201602190060000100000000000000023702000000000000000237029600000000033714143609CENTRO-DE-ESTUDIOS-DIGESTIVOS-000000000160000000000000000000000000000000000000000000000000000000000000000000000000000000000000000000000000000000000000PES00010000001 00000000000000000000000
201602190060000100000000000000023703000000000000000237039600000000033714143609CENTRO-DE-ESTUDIOS-DIGESTIVOS-000000000120000000000000000000000000000000000000000000000000000000000000000000000000000000000000000000000000000000000000PES00010000001 00000000000000000000000
201602190060000100000000000000023704000000000000000237049600000000033714143609CENTRO-DE-ESTUDIOS-DIGESTIVOS-000000000023500000000000000000000000000000000000000000000000000000000000000000000000000000000000000000000000000000000000PES00010000001 00000000000000000000000
201602190060000100000000000000023705000000000000000237059600000000033714143609CENTRO-DE-ESTUDIOS-DIGESTIVOS-000000000042000000000000000000000000000000000000000000000000000000000000000000000000000000000000000000000000000000000000PES00010000001 00000000000000000000000
201602190060000100000000000000023706000000000000000237069600000000033714143609CENTRO-DE-ESTUDIOS-DIGESTIVOS-000000000092000000000000000000000000000000000000000000000000000000000000000000000000000000000000000000000000000000000000PES00010000001 00000000000000000000000
201602190060000100000000000000023708000000000000000237089600000000033714143609CENTRO-DE-ESTUDIOS-DIGESTIVOS-000000000138500000000000000000000000000000000000000000000000000000000000000000000000000000000000000000000000000000000000PES00010000001 00000000000000000000000
201602190060000100000000000000023709000000000000000237099600000000033714143609CENTRO-DE-ESTUDIOS-DIGESTIVOS-000000000093500000000000000000000000000000000000000000000000000000000000000000000000000000000000000000000000000000000000PES00010000001 00000000000000000000000
201602200060000100000000000000023710000000000000000237109600000000033714143609CENTRO-DE-ESTUDIOS-DIGESTIVOS-000000000040500000000000000000000000000000000000000000000000000000000000000000000000000000000000000000000000000000000000PES00010000001 00000000000000000000000
201602200060000100000000000000023711000000000000000237119600000000033714143609CENTRO-DE-ESTUDIOS-DIGESTIVOS-000000000105000000000000000000000000000000000000000000000000000000000000000000000000000000000000000000000000000000000000PES00010000001 00000000000000000000000
201602200060000100000000000000023712000000000000000237129600000000033714143609CENTRO-DE-ESTUDIOS-DIGESTIVOS-000000000140400000000000000000000000000000000000000000000000000000000000000000000000000000000000000000000000000000000000PES00010000001 00000000000000000000000
201602200060000100000000000000023713000000000000000237139600000000033714143609CENTRO-DE-ESTUDIOS-DIGESTIVOS-000000000081500000000000000000000000000000000000000000000000000000000000000000000000000000000000000000000000000000000000PES00010000001 00000000000000000000000
201602200060000100000000000000023714000000000000000237149600000000033714143609CENTRO-DE-ESTUDIOS-DIGESTIVOS-000000000175500000000000000000000000000000000000000000000000000000000000000000000000000000000000000000000000000000000000PES00010000001 00000000000000000000000
201602200060000100000000000000023715000000000000000237159600000000033714143609CENTRO-DE-ESTUDIOS-DIGESTIVOS-000000000085000000000000000000000000000000000000000000000000000000000000000000000000000000000000000000000000000000000000PES00010000001 00000000000000000000000
201602200060000100000000000000023716000000000000000237169600000000033714143609CENTRO-DE-ESTUDIOS-DIGESTIVOS-000000000104900000000000000000000000000000000000000000000000000000000000000000000000000000000000000000000000000000000000PES00010000001 00000000000000000000000
201602200060000100000000000000023717000000000000000237179600000000033714143609CENTRO-DE-ESTUDIOS-DIGESTIVOS-000000000082000000000000000000000000000000000000000000000000000000000000000000000000000000000000000000000000000000000000PES00010000001 00000000000000000000000
201602200060000100000000000000023718000000000000000237189600000000033714143609CENTRO-DE-ESTUDIOS-DIGESTIVOS-000000000060500000000000000000000000000000000000000000000000000000000000000000000000000000000000000000000000000000000000PES00010000001 00000000000000000000000
201602200060000100000000000000023719000000000000000237199600000000033714143609CENTRO-DE-ESTUDIOS-DIGESTIVOS-000000000009500000000000000000000000000000000000000000000000000000000000000000000000000000000000000000000000000000000000PES00010000001 00000000000000000000000
201602200060000100000000000000023720000000000000000237209600000000033714143609CENTRO-DE-ESTUDIOS-DIGESTIVOS-000000000043000000000000000000000000000000000000000000000000000000000000000000000000000000000000000000000000000000000000PES00010000001 00000000000000000000000
201602200060000100000000000000023721000000000000000237219600000000033714143609CENTRO-DE-ESTUDIOS-DIGESTIVOS-000000000023000000000000000000000000000000000000000000000000000000000000000000000000000000000000000000000000000000000000PES00010000001 00000000000000000000000
201602200060000100000000000000023722000000000000000237229600000000033714143609CENTRO-DE-ESTUDIOS-DIGESTIVOS-000000000092800000000000000000000000000000000000000000000000000000000000000000000000000000000000000000000000000000000000PES00010000001 00000000000000000000000
201602200060000100000000000000023723000000000000000237239600000000033714143609CENTRO-DE-ESTUDIOS-DIGESTIVOS-000000000190000000000000000000000000000000000000000000000000000000000000000000000000000000000000000000000000000000000000PES00010000001 00000000000000000000000
201602200060000100000000000000023724000000000000000237249600000000033714143609CENTRO-DE-ESTUDIOS-DIGESTIVOS-000000000027000000000000000000000000000000000000000000000000000000000000000000000000000000000000000000000000000000000000PES00010000001 00000000000000000000000
201602200060000100000000000000023725000000000000000237259600000000033714143609CENTRO-DE-ESTUDIOS-DIGESTIVOS-000000000071000000000000000000000000000000000000000000000000000000000000000000000000000000000000000000000000000000000000PES00010000001 00000000000000000000000
201602200060000100000000000000023726000000000000000237269600000000033714143609CENTRO-DE-ESTUDIOS-DIGESTIVOS-000000000044400000000000000000000000000000000000000000000000000000000000000000000000000000000000000000000000000000000000PES00010000001 00000000000000000000000
201602200060000100000000000000023727000000000000000237279600000000033714143609CENTRO-DE-ESTUDIOS-DIGESTIVOS-000000000034500000000000000000000000000000000000000000000000000000000000000000000000000000000000000000000000000000000000PES00010000001 00000000000000000000000
201602200060000100000000000000023728000000000000000237289600000000033714143609CENTRO-DE-ESTUDIOS-DIGESTIVOS-000000000033500000000000000000000000000000000000000000000000000000000000000000000000000000000000000000000000000000000000PES00010000001 00000000000000000000000
201602200060000100000000000000023729000000000000000237299600000000033714143609CENTRO-DE-ESTUDIOS-DIGESTIVOS-000000000028000000000000000000000000000000000000000000000000000000000000000000000000000000000000000000000000000000000000PES00010000001 00000000000000000000000
201602200060000100000000000000023730000000000000000237309600000000033714143609CENTRO-DE-ESTUDIOS-DIGESTIVOS-000000000078500000000000000000000000000000000000000000000000000000000000000000000000000000000000000000000000000000000000PES00010000001 00000000000000000000000
201602200060000100000000000000023731000000000000000237319600000000033714143609CENTRO-DE-ESTUDIOS-DIGESTIVOS-000000000046000000000000000000000000000000000000000000000000000000000000000000000000000000000000000000000000000000000000PES00010000001 00000000000000000000000
201602200060000100000000000000023732000000000000000237329600000000033714143609CENTRO-DE-ESTUDIOS-DIGESTIVOS-000000000449600000000000000000000000000000000000000000000000000000000000000000000000000000000000000000000000000000000000PES00010000001 00000000000000000000000
201602200060000100000000000000023733000000000000000237339600000000033714143609CENTRO-DE-ESTUDIOS-DIGESTIVOS-000000000047000000000000000000000000000000000000000000000000000000000000000000000000000000000000000000000000000000000000PES00010000001 00000000000000000000000
201602200060000100000000000000023734000000000000000237349600000000033714143609CENTRO-DE-ESTUDIOS-DIGESTIVOS-000000001595000000000000000000000000000000000000000000000000000000000000000000000000000000000000000000000000000000000000PES00010000001 00000000000000000000000
201602200060000100000000000000023735000000000000000237359600000000033714143609CENTRO-DE-ESTUDIOS-DIGESTIVOS-000000000031500000000000000000000000000000000000000000000000000000000000000000000000000000000000000000000000000000000000PES00010000001 00000000000000000000000
201602200060000100000000000000023736000000000000000237369600000000033714143609CENTRO-DE-ESTUDIOS-DIGESTIVOS-000000000153000000000000000000000000000000000000000000000000000000000000000000000000000000000000000000000000000000000000PES00010000001 00000000000000000000000
201602200060000100000000000000023737000000000000000237379600000000033714143609CENTRO-DE-ESTUDIOS-DIGESTIVOS-000000000144000000000000000000000000000000000000000000000000000000000000000000000000000000000000000000000000000000000000PES00010000001 00000000000000000000000
201602220060000100000000000000023738000000000000000237389600000000033714143609CENTRO-DE-ESTUDIOS-DIGESTIVOS-000000000007500000000000000000000000000000000000000000000000000000000000000000000000000000000000000000000000000000000000PES00010000001 00000000000000000000000
201602220060000100000000000000023739000000000000000237399600000000033714143609CENTRO-DE-ESTUDIOS-DIGESTIVOS-000000000051500000000000000000000000000000000000000000000000000000000000000000000000000000000000000000000000000000000000PES00010000001 00000000000000000000000
201602220060000100000000000000023740000000000000000237409600000000033714143609CENTRO-DE-ESTUDIOS-DIGESTIVOS-000000000043000000000000000000000000000000000000000000000000000000000000000000000000000000000000000000000000000000000000PES00010000001 00000000000000000000000
201602220060000100000000000000023741000000000000000237419600000000033714143609CENTRO-DE-ESTUDIOS-DIGESTIVOS-000000000270800000000000000000000000000000000000000000000000000000000000000000000000000000000000000000000000000000000000PES00010000001 00000000000000000000000
201602220060000100000000000000023742000000000000000237429600000000033714143609CENTRO-DE-ESTUDIOS-DIGESTIVOS-000000000024500000000000000000000000000000000000000000000000000000000000000000000000000000000000000000000000000000000000PES00010000001 00000000000000000000000
201602220060000100000000000000023743000000000000000237439600000000033714143609CENTRO-DE-ESTUDIOS-DIGESTIVOS-000000000062500000000000000000000000000000000000000000000000000000000000000000000000000000000000000000000000000000000000PES00010000001 00000000000000000000000
201602220060000100000000000000023744000000000000000237449600000000033714143609CENTRO-DE-ESTUDIOS-DIGESTIVOS-000000000398500000000000000000000000000000000000000000000000000000000000000000000000000000000000000000000000000000000000PES00010000001 00000000000000000000000
201602220060000100000000000000023745000000000000000237459600000000033714143609CENTRO-DE-ESTUDIOS-DIGESTIVOS-000000000045500000000000000000000000000000000000000000000000000000000000000000000000000000000000000000000000000000000000PES00010000001 00000000000000000000000
201602220060000100000000000000023746000000000000000237469600000000033714143609CENTRO-DE-ESTUDIOS-DIGESTIVOS-000000000233000000000000000000000000000000000000000000000000000000000000000000000000000000000000000000000000000000000000PES00010000001 00000000000000000000000
201602220060000100000000000000023747000000000000000237479600000000033714143609CENTRO-DE-ESTUDIOS-DIGESTIVOS-000000000049500000000000000000000000000000000000000000000000000000000000000000000000000000000000000000000000000000000000PES00010000001 00000000000000000000000
201602220060000100000000000000023748000000000000000237489600000000033714143609CENTRO-DE-ESTUDIOS-DIGESTIVOS-000000000113400000000000000000000000000000000000000000000000000000000000000000000000000000000000000000000000000000000000PES00010000001 00000000000000000000000
201602220060000100000000000000023749000000000000000237499600000000033714143609CENTRO-DE-ESTUDIOS-DIGESTIVOS-000000000076500000000000000000000000000000000000000000000000000000000000000000000000000000000000000000000000000000000000PES00010000001 00000000000000000000000
201602220060000100000000000000023750000000000000000237509600000000033714143609CENTRO-DE-ESTUDIOS-DIGESTIVOS-000000000080200000000000000000000000000000000000000000000000000000000000000000000000000000000000000000000000000000000000PES00010000001 00000000000000000000000
201602220060000100000000000000023751000000000000000237519600000000033714143609CENTRO-DE-ESTUDIOS-DIGESTIVOS-000000000022500000000000000000000000000000000000000000000000000000000000000000000000000000000000000000000000000000000000PES00010000001 00000000000000000000000
201602230060000100000000000000023752000000000000000237529600000000033714143609CENTRO-DE-ESTUDIOS-DIGESTIVOS-000000000045000000000000000000000000000000000000000000000000000000000000000000000000000000000000000000000000000000000000PES00010000001 00000000000000000000000
201602230060000100000000000000023753000000000000000237539600000000033714143609CENTRO-DE-ESTUDIOS-DIGESTIVOS-000000000271100000000000000000000000000000000000000000000000000000000000000000000000000000000000000000000000000000000000PES00010000001 00000000000000000000000
201602230060000100000000000000023754000000000000000237549600000000033714143609CENTRO-DE-ESTUDIOS-DIGESTIVOS-000000000091600000000000000000000000000000000000000000000000000000000000000000000000000000000000000000000000000000000000PES00010000001 00000000000000000000000
201602230060000100000000000000023755000000000000000237559600000000033714143609CENTRO-DE-ESTUDIOS-DIGESTIVOS-000000000049500000000000000000000000000000000000000000000000000000000000000000000000000000000000000000000000000000000000PES00010000001 00000000000000000000000
201602230060000100000000000000023756000000000000000237569600000000033714143609CENTRO-DE-ESTUDIOS-DIGESTIVOS-000000000016500000000000000000000000000000000000000000000000000000000000000000000000000000000000000000000000000000000000PES00010000001 00000000000000000000000
201602230060000100000000000000023757000000000000000237579600000000033714143609CENTRO-DE-ESTUDIOS-DIGESTIVOS-000000000018200000000000000000000000000000000000000000000000000000000000000000000000000000000000000000000000000000000000PES00010000001 00000000000000000000000
201602230060000100000000000000023758000000000000000237589600000000033714143609CENTRO-DE-ESTUDIOS-DIGESTIVOS-000000000021500000000000000000000000000000000000000000000000000000000000000000000000000000000000000000000000000000000000PES00010000001 00000000000000000000000
201602230060000100000000000000023759000000000000000237599600000000033714143609CENTRO-DE-ESTUDIOS-DIGESTIVOS-000000000093000000000000000000000000000000000000000000000000000000000000000000000000000000000000000000000000000000000000PES00010000001 00000000000000000000000
201602230060000100000000000000023760000000000000000237609600000000033714143609CENTRO-DE-ESTUDIOS-DIGESTIVOS-000000000008500000000000000000000000000000000000000000000000000000000000000000000000000000000000000000000000000000000000PES00010000001 00000000000000000000000
201602230060000100000000000000023761000000000000000237619600000000033714143609CENTRO-DE-ESTUDIOS-DIGESTIVOS-000000000089000000000000000000000000000000000000000000000000000000000000000000000000000000000000000000000000000000000000PES00010000001 00000000000000000000000
201602230060000100000000000000023762000000000000000237629600000000033714143609CENTRO-DE-ESTUDIOS-DIGESTIVOS-000000000033000000000000000000000000000000000000000000000000000000000000000000000000000000000000000000000000000000000000PES00010000001 00000000000000000000000
201602230060000100000000000000023763000000000000000237639600000000033714143609CENTRO-DE-ESTUDIOS-DIGESTIVOS-000000000013000000000000000000000000000000000000000000000000000000000000000000000000000000000000000000000000000000000000PES00010000001 00000000000000000000000
201602230060000100000000000000023764000000000000000237649600000000033714143609CENTRO-DE-ESTUDIOS-DIGESTIVOS-000000000070500000000000000000000000000000000000000000000000000000000000000000000000000000000000000000000000000000000000PES00010000001 00000000000000000000000
201602230060000100000000000000023765000000000000000237659600000000033714143609CENTRO-DE-ESTUDIOS-DIGESTIVOS-000000000072500000000000000000000000000000000000000000000000000000000000000000000000000000000000000000000000000000000000PES00010000001 00000000000000000000000
201602240060000100000000000000023766000000000000000237669600000000033714143609CENTRO-DE-ESTUDIOS-DIGESTIVOS-000000000023500000000000000000000000000000000000000000000000000000000000000000000000000000000000000000000000000000000000PES00010000001 00000000000000000000000
201602240060000100000000000000023767000000000000000237679600000000033714143609CENTRO-DE-ESTUDIOS-DIGESTIVOS-000000000069800000000000000000000000000000000000000000000000000000000000000000000000000000000000000000000000000000000000PES00010000001 00000000000000000000000
201602240060000100000000000000023768000000000000000237689600000000020222550514-CONTE-GRAND-HORACIO          000000000090300000000000000000000000000000000000000000000000000000000000000000000000000000000000000000000000000000000000PES00010000001 00000000000000000000000
201602240060000100000000000000023769000000000000000237699600000000033714143609CENTRO-DE-ESTUDIOS-DIGESTIVOS-000000000044500000000000000000000000000000000000000000000000000000000000000000000000000000000000000000000000000000000000PES00010000001 00000000000000000000000
201602240060000100000000000000023770000000000000000237709600000000033714143609CENTRO-DE-ESTUDIOS-DIGESTIVOS-000000000037500000000000000000000000000000000000000000000000000000000000000000000000000000000000000000000000000000000000PES00010000001 00000000000000000000000
201602240060000100000000000000023771000000000000000237719600000000033714143609CENTRO-DE-ESTUDIOS-DIGESTIVOS-000000000036000000000000000000000000000000000000000000000000000000000000000000000000000000000000000000000000000000000000PES00010000001 00000000000000000000000
201602240060000100000000000000023772000000000000000237729600000000033714143609CENTRO-DE-ESTUDIOS-DIGESTIVOS-000000000052500000000000000000000000000000000000000000000000000000000000000000000000000000000000000000000000000000000000PES00010000001 00000000000000000000000
201602240060000100000000000000023773000000000000000237739600000000033714143609CENTRO-DE-ESTUDIOS-DIGESTIVOS-000000000034500000000000000000000000000000000000000000000000000000000000000000000000000000000000000000000000000000000000PES00010000001 00000000000000000000000
201602250060000100000000000000023774000000000000000237749600000000033714143609CENTRO-DE-ESTUDIOS-DIGESTIVOS-000000000092000000000000000000000000000000000000000000000000000000000000000000000000000000000000000000000000000000000000PES00010000001 00000000000000000000000
201602250060000100000000000000023775000000000000000237759600000000033714143609CENTRO-DE-ESTUDIOS-DIGESTIVOS-000000000027000000000000000000000000000000000000000000000000000000000000000000000000000000000000000000000000000000000000PES00010000001 00000000000000000000000
201602250060000100000000000000023776000000000000000237769600000000033714143609CENTRO-DE-ESTUDIOS-DIGESTIVOS-000000000405600000000000000000000000000000000000000000000000000000000000000000000000000000000000000000000000000000000000PES00010000001 00000000000000000000000
201602250060000100000000000000023777000000000000000237779600000000033714143609CENTRO-DE-ESTUDIOS-DIGESTIVOS-000000000220000000000000000000000000000000000000000000000000000000000000000000000000000000000000000000000000000000000000PES00010000001 00000000000000000000000
201602250060000100000000000000023778000000000000000237789600000000033714143609CENTRO-DE-ESTUDIOS-DIGESTIVOS-000000000013500000000000000000000000000000000000000000000000000000000000000000000000000000000000000000000000000000000000PES00010000001 00000000000000000000000
201602250060000100000000000000023779000000000000000237799600000000033714143609CENTRO-DE-ESTUDIOS-DIGESTIVOS-000000000073500000000000000000000000000000000000000000000000000000000000000000000000000000000000000000000000000000000000PES00010000001 00000000000000000000000
201602250060000100000000000000023780000000000000000237809600000000033714143609CENTRO-DE-ESTUDIOS-DIGESTIVOS-000000000076500000000000000000000000000000000000000000000000000000000000000000000000000000000000000000000000000000000000PES00010000001 00000000000000000000000
201602250060000100000000000000023781000000000000000237819600000000033714143609CENTRO-DE-ESTUDIOS-DIGESTIVOS-000000000151500000000000000000000000000000000000000000000000000000000000000000000000000000000000000000000000000000000000PES00010000001 00000000000000000000000
201602250060000100000000000000023782000000000000000237829600000000033714143609CENTRO-DE-ESTUDIOS-DIGESTIVOS-000000000057500000000000000000000000000000000000000000000000000000000000000000000000000000000000000000000000000000000000PES00010000001 00000000000000000000000
201602250060000100000000000000023783000000000000000237839600000000033714143609CENTRO-DE-ESTUDIOS-DIGESTIVOS-000000000022700000000000000000000000000000000000000000000000000000000000000000000000000000000000000000000000000000000000PES00010000001 00000000000000000000000
201602250060000100000000000000023784000000000000000237849600000000033714143609CENTRO-DE-ESTUDIOS-DIGESTIVOS-000000000035000000000000000000000000000000000000000000000000000000000000000000000000000000000000000000000000000000000000PES00010000001 00000000000000000000000
201602250060000100000000000000023785000000000000000237859600000000033714143609CENTRO-DE-ESTUDIOS-DIGESTIVOS-000000000044500000000000000000000000000000000000000000000000000000000000000000000000000000000000000000000000000000000000PES00010000001 00000000000000000000000
201602250060000100000000000000023786000000000000000237869600000000033714143609CENTRO-DE-ESTUDIOS-DIGESTIVOS-000000000017000000000000000000000000000000000000000000000000000000000000000000000000000000000000000000000000000000000000PES00010000001 00000000000000000000000
201602260060000100000000000000023787000000000000000237879600000000033714143609CENTRO-DE-ESTUDIOS-DIGESTIVOS-000000000137500000000000000000000000000000000000000000000000000000000000000000000000000000000000000000000000000000000000PES00010000001 00000000000000000000000
201602260060000100000000000000023788000000000000000237889600000000033714143609CENTRO-DE-ESTUDIOS-DIGESTIVOS-000000000038500000000000000000000000000000000000000000000000000000000000000000000000000000000000000000000000000000000000PES00010000001 00000000000000000000000
201602260060000100000000000000023789000000000000000237899600000000033714143609CENTRO-DE-ESTUDIOS-DIGESTIVOS-000000000009500000000000000000000000000000000000000000000000000000000000000000000000000000000000000000000000000000000000PES00010000001 00000000000000000000000
201602260060000100000000000000023790000000000000000237909600000000033714143609CENTRO-DE-ESTUDIOS-DIGESTIVOS-000000000031600000000000000000000000000000000000000000000000000000000000000000000000000000000000000000000000000000000000PES00010000001 00000000000000000000000
201602260060000100000000000000023791000000000000000237919600000000033714143609CENTRO-DE-ESTUDIOS-DIGESTIVOS-000000000170000000000000000000000000000000000000000000000000000000000000000000000000000000000000000000000000000000000000PES00010000001 00000000000000000000000
201602260060000100000000000000023792000000000000000237929600000000033714143609CENTRO-DE-ESTUDIOS-DIGESTIVOS-000000000075000000000000000000000000000000000000000000000000000000000000000000000000000000000000000000000000000000000000PES00010000001 00000000000000000000000
201602260060000100000000000000023793000000000000000237939600000000033714143609CENTRO-DE-ESTUDIOS-DIGESTIVOS-000000000028000000000000000000000000000000000000000000000000000000000000000000000000000000000000000000000000000000000000PES00010000001 00000000000000000000000
201602270060000100000000000000023795000000000000000237959600000000033714143609CENTRO-DE-ESTUDIOS-DIGESTIVOS-000000000082500000000000000000000000000000000000000000000000000000000000000000000000000000000000000000000000000000000000PES00010000001 00000000000000000000000
201602270060000100000000000000023796000000000000000237969600000000033714143609CENTRO-DE-ESTUDIOS-DIGESTIVOS-000000000238200000000000000000000000000000000000000000000000000000000000000000000000000000000000000000000000000000000000PES00010000001 00000000000000000000000
201602270060000100000000000000023797000000000000000237979600000000033714143609CENTRO-DE-ESTUDIOS-DIGESTIVOS-000000000138100000000000000000000000000000000000000000000000000000000000000000000000000000000000000000000000000000000000PES00010000001 00000000000000000000000
201602270060000100000000000000023798000000000000000237989600000000033714143609CENTRO-DE-ESTUDIOS-DIGESTIVOS-000000000062500000000000000000000000000000000000000000000000000000000000000000000000000000000000000000000000000000000000PES00010000001 00000000000000000000000
201602270060000100000000000000023799000000000000000237999600000000033714143609CENTRO-DE-ESTUDIOS-DIGESTIVOS-000000000029500000000000000000000000000000000000000000000000000000000000000000000000000000000000000000000000000000000000PES00010000001 00000000000000000000000
201602270060000100000000000000023800000000000000000238009600000000033714143609CENTRO-DE-ESTUDIOS-DIGESTIVOS-000000000072000000000000000000000000000000000000000000000000000000000000000000000000000000000000000000000000000000000000PES00010000001 00000000000000000000000
201602270060000100000000000000023801000000000000000238019600000000033714143609CENTRO-DE-ESTUDIOS-DIGESTIVOS-000000000030000000000000000000000000000000000000000000000000000000000000000000000000000000000000000000000000000000000000PES00010000001 00000000000000000000000
201602270060000100000000000000023802000000000000000238029600000000033714143609CENTRO-DE-ESTUDIOS-DIGESTIVOS-000000000022500000000000000000000000000000000000000000000000000000000000000000000000000000000000000000000000000000000000PES00010000001 00000000000000000000000
201602270060000100000000000000023803000000000000000238039600000000033714143609CENTRO-DE-ESTUDIOS-DIGESTIVOS-000000000029500000000000000000000000000000000000000000000000000000000000000000000000000000000000000000000000000000000000PES00010000001 00000000000000000000000
201602270060000100000000000000023804000000000000000238049600000000033714143609CENTRO-DE-ESTUDIOS-DIGESTIVOS-000000000084000000000000000000000000000000000000000000000000000000000000000000000000000000000000000000000000000000000000PES00010000001 00000000000000000000000
201602270060000100000000000000023805000000000000000238059600000000033714143609CENTRO-DE-ESTUDIOS-DIGESTIVOS-000000000059000000000000000000000000000000000000000000000000000000000000000000000000000000000000000000000000000000000000PES00010000001 00000000000000000000000
201602270060000100000000000000023806000000000000000238069600000000033714143609CENTRO-DE-ESTUDIOS-DIGESTIVOS-000000000022000000000000000000000000000000000000000000000000000000000000000000000000000000000000000000000000000000000000PES00010000001 00000000000000000000000
201602270060000100000000000000023807000000000000000238079600000000033714143609CENTRO-DE-ESTUDIOS-DIGESTIVOS-000000000342700000000000000000000000000000000000000000000000000000000000000000000000000000000000000000000000000000000000PES00010000001 00000000000000000000000
201602270060000100000000000000023808000000000000000238089600000000033714143609CENTRO-DE-ESTUDIOS-DIGESTIVOS-000000000020000000000000000000000000000000000000000000000000000000000000000000000000000000000000000000000000000000000000PES00010000001 00000000000000000000000
201602270060000100000000000000023809000000000000000238099600000000033714143609CENTRO-DE-ESTUDIOS-DIGESTIVOS-000000000022000000000000000000000000000000000000000000000000000000000000000000000000000000000000000000000000000000000000PES00010000001 00000000000000000000000
201602270060000100000000000000023810000000000000000238109600000000033714143609CENTRO-DE-ESTUDIOS-DIGESTIVOS-000000000033000000000000000000000000000000000000000000000000000000000000000000000000000000000000000000000000000000000000PES00010000001 00000000000000000000000
201602270060000100000000000000023811000000000000000238119600000000033714143609CENTRO-DE-ESTUDIOS-DIGESTIVOS-000000000026500000000000000000000000000000000000000000000000000000000000000000000000000000000000000000000000000000000000PES00010000001 00000000000000000000000
201602270060000100000000000000023812000000000000000238129600000000033714143609CENTRO-DE-ESTUDIOS-DIGESTIVOS-000000000115000000000000000000000000000000000000000000000000000000000000000000000000000000000000000000000000000000000000PES00010000001 00000000000000000000000
201602290060000100000000000000023813000000000000000238139600000000033714143609CENTRO-DE-ESTUDIOS-DIGESTIVOS-000000000004500000000000000000000000000000000000000000000000000000000000000000000000000000000000000000000000000000000000PES00010000001 00000000000000000000000
201602290060000100000000000000023814000000000000000238149600000000033714143609CENTRO-DE-ESTUDIOS-DIGESTIVOS-000000000009000000000000000000000000000000000000000000000000000000000000000000000000000000000000000000000000000000000000PES00010000001 00000000000000000000000
201602290060000100000000000000023815000000000000000238159600000000033714143609CENTRO-DE-ESTUDIOS-DIGESTIVOS-000000000053000000000000000000000000000000000000000000000000000000000000000000000000000000000000000000000000000000000000PES00010000001 00000000000000000000000
201602290060000100000000000000023816000000000000000238169600000000033714143609CENTRO-DE-ESTUDIOS-DIGESTIVOS-000000000029500000000000000000000000000000000000000000000000000000000000000000000000000000000000000000000000000000000000PES00010000001 00000000000000000000000
201602290060000100000000000000023817000000000000000238179600000000033714143609CENTRO-DE-ESTUDIOS-DIGESTIVOS-000000000066000000000000000000000000000000000000000000000000000000000000000000000000000000000000000000000000000000000000PES00010000001 00000000000000000000000
201602290060000100000000000000023818000000000000000238189600000000033714143609CENTRO-DE-ESTUDIOS-DIGESTIVOS-000000000205000000000000000000000000000000000000000000000000000000000000000000000000000000000000000000000000000000000000PES00010000001 00000000000000000000000
201602290060000100000000000000023819000000000000000238199600000000033714143609CENTRO-DE-ESTUDIOS-DIGESTIVOS-000000000094000000000000000000000000000000000000000000000000000000000000000000000000000000000000000000000000000000000000PES00010000001 00000000000000000000000
201602290060000100000000000000023820000000000000000238209600000000033714143609CENTRO-DE-ESTUDIOS-DIGESTIVOS-000000000099800000000000000000000000000000000000000000000000000000000000000000000000000000000000000000000000000000000000PES00010000001 00000000000000000000000
201602290060000100000000000000023821000000000000000238219600000000033714143609CENTRO-DE-ESTUDIOS-DIGESTIVOS-000000000170300000000000000000000000000000000000000000000000000000000000000000000000000000000000000000000000000000000000PES00010000001 00000000000000000000000
201602290060000100000000000000023822000000000000000238229600000000033714143609CENTRO-DE-ESTUDIOS-DIGESTIVOS-000000000312200000000000000000000000000000000000000000000000000000000000000000000000000000000000000000000000000000000000PES00010000001 00000000000000000000000
201602290060000100000000000000000033000000000000000000339600000000033714143609CENTRO-DE-ESTUDIOS-DIGESTIVOS-000000000130500000000000000000000000000000000000000000000000000000000000000000000000000000000000000000000000000000000000PES00010000001 00000000000000000000000

